{
  "contractName": "AdminAuthentication",
  "abi": [
    {
      "inputs": [],
      "stateMutability": "nonpayable",
      "type": "constructor"
    },
    {
      "inputs": [],
      "name": "admin",
      "outputs": [
        {
          "internalType": "address",
          "name": "",
          "type": "address"
        }
      ],
      "stateMutability": "view",
      "type": "function",
      "constant": true
    },
    {
      "inputs": [
        {
          "internalType": "string",
          "name": "",
          "type": "string"
        }
      ],
      "name": "admins",
      "outputs": [
        {
          "internalType": "string",
          "name": "username",
          "type": "string"
        },
        {
          "internalType": "string",
          "name": "password",
          "type": "string"
        },
        {
          "internalType": "bool",
          "name": "isRegistered",
          "type": "bool"
        }
      ],
      "stateMutability": "view",
      "type": "function",
      "constant": true
    },
    {
      "inputs": [],
      "name": "getRemainingTime",
      "outputs": [
        {
          "internalType": "uint256",
          "name": "",
          "type": "uint256"
        }
      ],
      "stateMutability": "view",
      "type": "function",
      "constant": true
    },
    {
      "inputs": [],
      "name": "getTime",
      "outputs": [
        {
          "internalType": "uint256",
          "name": "startTime",
          "type": "uint256"
        },
        {
          "internalType": "uint256",
          "name": "endTime",
          "type": "uint256"
        }
      ],
      "stateMutability": "view",
      "type": "function",
      "constant": true
    },
    {
      "inputs": [
        {
          "internalType": "address",
          "name": "",
          "type": "address"
        }
      ],
      "name": "hasAdminLoggiedIn",
      "outputs": [
        {
          "internalType": "bool",
          "name": "",
          "type": "bool"
        }
      ],
      "stateMutability": "view",
      "type": "function",
      "constant": true
    },
    {
      "inputs": [],
      "name": "isInitiated",
      "outputs": [
        {
          "internalType": "bool",
          "name": "",
          "type": "bool"
        }
      ],
      "stateMutability": "view",
      "type": "function",
      "constant": true
    },
    {
      "inputs": [
        {
          "internalType": "uint256",
          "name": "_startTime",
          "type": "uint256"
        },
        {
          "internalType": "uint256",
          "name": "_endTime",
          "type": "uint256"
        }
      ],
      "name": "setVotingPeriod",
      "outputs": [],
      "stateMutability": "nonpayable",
      "type": "function"
    },
    {
      "inputs": [
        {
          "internalType": "address",
          "name": "newAdmin",
          "type": "address"
        }
      ],
      "name": "transferAdmin",
      "outputs": [],
      "stateMutability": "nonpayable",
      "type": "function"
    },
    {
      "inputs": [
        {
          "internalType": "string",
          "name": "_username",
          "type": "string"
        },
        {
          "internalType": "string",
          "name": "_password",
          "type": "string"
        }
      ],
      "name": "adminAuth",
      "outputs": [],
      "stateMutability": "nonpayable",
      "type": "function"
    },
    {
      "inputs": [],
      "name": "adminLogout",
      "outputs": [],
      "stateMutability": "nonpayable",
      "type": "function"
    }
  ],
  "bytecode": "0x60806040523480156200001157600080fd5b50336000806101000a81548173ffffffffffffffffffffffffffffffffffffffff021916908373ffffffffffffffffffffffffffffffffffffffff16021790555060006040518060400160405280600581526020017f41646d696e0000000000000000000000000000000000000000000000000000008152509050600060405180606001604052806040518060400160405280600581526020017f41646d696e00000000000000000000000000000000000000000000000000000081525081526020016040518060400160405280600881526020017f61646d696e3132330000000000000000000000000000000000000000000000008152508152602001600115158152509050806005836040516200012b91906200020d565b9081526020016040518091039020600082015181600001908162000150919062000495565b50602082015181600101908162000168919062000495565b5060408201518160020160006101000a81548160ff02191690831515021790555090505050506200057c565b600081519050919050565b600081905092915050565b60005b83811015620001ca578082015181840152602081019050620001ad565b60008484015250505050565b6000620001e38262000194565b620001ef81856200019f565b935062000201818560208601620001aa565b80840191505092915050565b60006200021b8284620001d6565b915081905092915050565b7f4e487b7100000000000000000000000000000000000000000000000000000000600052604160045260246000fd5b7f4e487b7100000000000000000000000000000000000000000000000000000000600052602260045260246000fd5b600060028204905060018216806200029d57607f821691505b602082108103620002b357620002b262000255565b5b50919050565b60008190508160005260206000209050919050565b60006020601f8301049050919050565b600082821b905092915050565b6000600883026200031d7fffffffffffffffffffffffffffffffffffffffffffffffffffffffffffffffff82620002de565b620003298683620002de565b95508019841693508086168417925050509392505050565b6000819050919050565b6000819050919050565b600062000376620003706200036a8462000341565b6200034b565b62000341565b9050919050565b6000819050919050565b620003928362000355565b620003aa620003a1826200037d565b848454620002eb565b825550505050565b600090565b620003c1620003b2565b620003ce81848462000387565b505050565b5b81811015620003f657620003ea600082620003b7565b600181019050620003d4565b5050565b601f82111562000445576200040f81620002b9565b6200041a84620002ce565b810160208510156200042a578190505b620004426200043985620002ce565b830182620003d3565b50505b505050565b600082821c905092915050565b60006200046a600019846008026200044a565b1980831691505092915050565b600062000485838362000457565b9150826002028217905092915050565b620004a08262000194565b67ffffffffffffffff811115620004bc57620004bb62000226565b5b620004c8825462000284565b620004d5828285620003fa565b600060209050601f8311600181146200050d5760008415620004f8578287015190505b62000504858262000477565b86555062000574565b601f1984166200051d86620002b9565b60005b82811015620005475784890151825560018201915060208501945060208101905062000520565b8683101562000567578489015162000563601f89168262000457565b8355505b6001600288020188555050505b505050505050565b611459806200058c6000396000f3fe608060405234801561001057600080fd5b506004361061009e5760003560e01c8063a15a36c711610066578063a15a36c71461015e578063a1c855261461017a578063d4dd0b7714610184578063efb98bcf146101a0578063f851a440146101be5761009e565b80631cb59914146100a35780633c26f8d4146100c1578063557ed1ba146100f157806375829def14610110578063926d7eb01461012c575b600080fd5b6100ab6101dc565b6040516100b891906109d9565b60405180910390f35b6100db60048036038101906100d69190610a66565b6101ef565b6040516100e891906109d9565b60405180910390f35b6100f961020f565b604051610107929190610aac565b60405180910390f35b61012a60048036038101906101259190610a66565b6102a4565b005b61014660048036038101906101419190610c1b565b610375565b60405161015593929190610ce3565b60405180910390f35b61017860048036038101906101739190610d54565b6104d2565b005b610182610615565b005b61019e60048036038101906101999190610d94565b61066f565b005b6101a861092c565b6040516101b59190610e0c565b60405180910390f35b6101c661099a565b6040516101d39190610e36565b60405180910390f35b600460009054906101000a900460ff1681565b60066020528060005260406000206000915054906101000a900460ff1681565b60008060008054906101000a900473ffffffffffffffffffffffffffffffffffffffff1673ffffffffffffffffffffffffffffffffffffffff163373ffffffffffffffffffffffffffffffffffffffff16146102a0576040517f08c379a000000000000000000000000000000000000000000000000000000000815260040161029790610ec3565b60405180910390fd5b9091565b60008054906101000a900473ffffffffffffffffffffffffffffffffffffffff1673ffffffffffffffffffffffffffffffffffffffff163373ffffffffffffffffffffffffffffffffffffffff1614610332576040517f08c379a000000000000000000000000000000000000000000000000000000000815260040161032990610ec3565b60405180910390fd5b806000806101000a81548173ffffffffffffffffffffffffffffffffffffffff021916908373ffffffffffffffffffffffffffffffffffffffff16021790555050565b6005818051602081018201805184825260208301602085012081835280955050505050506000915090508060000180546103ae90610f12565b80601f01602080910402602001604051908101604052809291908181526020018280546103da90610f12565b80156104275780601f106103fc57610100808354040283529160200191610427565b820191906000526020600020905b81548152906001019060200180831161040a57829003601f168201915b50505050509080600101805461043c90610f12565b80601f016020809104026020016040519081016040528092919081815260200182805461046890610f12565b80156104b55780601f1061048a576101008083540402835291602001916104b5565b820191906000526020600020905b81548152906001019060200180831161049857829003601f168201915b5050505050908060020160009054906101000a900460ff16905083565b60008054906101000a900473ffffffffffffffffffffffffffffffffffffffff1673ffffffffffffffffffffffffffffffffffffffff163373ffffffffffffffffffffffffffffffffffffffff1614610560576040517f08c379a000000000000000000000000000000000000000000000000000000000815260040161055790610ec3565b60405180910390fd5b8181116105a2576040517f08c379a000000000000000000000000000000000000000000000000000000000815260040161059990610f8f565b60405180910390fd5b600082826105b09190610fde565b90506001600460006101000a81548160ff0219169083151502179055506001836105da9190611012565b426105e59190611054565b6001819055506001826105f89190611012565b426106039190611054565b60028190555080600381905550505050565b6000600660003373ffffffffffffffffffffffffffffffffffffffff1673ffffffffffffffffffffffffffffffffffffffff16815260200190815260200160002060006101000a81548160ff021916908315150217905550565b60008054906101000a900473ffffffffffffffffffffffffffffffffffffffff1673ffffffffffffffffffffffffffffffffffffffff163373ffffffffffffffffffffffffffffffffffffffff16146106fd576040517f08c379a00000000000000000000000000000000000000000000000000000000081526004016106f490610ec3565b60405180910390fd5b60058260405161070d91906110c4565b908152602001604051809103902060020160009054906101000a900460ff1661076b576040517f08c379a00000000000000000000000000000000000000000000000000000000081526004016107629061114d565b60405180910390fd5b6000828051906020012050602060ff1611801561079557506000818051906020012050602060ff16115b6107d4576040517f08c379a00000000000000000000000000000000000000000000000000000000081526004016107cb906111df565b60405180910390fd5b81805190602001206005836040516107ec91906110c4565b908152602001604051809103902060000160405161080a91906112a2565b604051809103902014610852576040517f08c379a000000000000000000000000000000000000000000000000000000000815260040161084990611305565b60405180910390fd5b808051906020012060058360405161086a91906110c4565b908152602001604051809103902060010160405161088891906112a2565b6040518091039020146108d0576040517f08c379a00000000000000000000000000000000000000000000000000000000081526004016108c790611371565b60405180910390fd5b6001600660003373ffffffffffffffffffffffffffffffffffffffff1673ffffffffffffffffffffffffffffffffffffffff16815260200190815260200160002060006101000a81548160ff0219169083151502179055505050565b6000600154421015610973576040517f08c379a000000000000000000000000000000000000000000000000000000000815260040161096a90611403565b60405180910390fd5b600254421015610992574260025461098b9190610fde565b9050610997565b600090505b90565b60008054906101000a900473ffffffffffffffffffffffffffffffffffffffff1681565b60008115159050919050565b6109d3816109be565b82525050565b60006020820190506109ee60008301846109ca565b92915050565b6000604051905090565b600080fd5b600080fd5b600073ffffffffffffffffffffffffffffffffffffffff82169050919050565b6000610a3382610a08565b9050919050565b610a4381610a28565b8114610a4e57600080fd5b50565b600081359050610a6081610a3a565b92915050565b600060208284031215610a7c57610a7b6109fe565b5b6000610a8a84828501610a51565b91505092915050565b6000819050919050565b610aa681610a93565b82525050565b6000604082019050610ac16000830185610a9d565b610ace6020830184610a9d565b9392505050565b600080fd5b600080fd5b6000601f19601f8301169050919050565b7f4e487b7100000000000000000000000000000000000000000000000000000000600052604160045260246000fd5b610b2882610adf565b810181811067ffffffffffffffff82111715610b4757610b46610af0565b5b80604052505050565b6000610b5a6109f4565b9050610b668282610b1f565b919050565b600067ffffffffffffffff821115610b8657610b85610af0565b5b610b8f82610adf565b9050602081019050919050565b82818337600083830152505050565b6000610bbe610bb984610b6b565b610b50565b905082815260208101848484011115610bda57610bd9610ada565b5b610be5848285610b9c565b509392505050565b600082601f830112610c0257610c01610ad5565b5b8135610c12848260208601610bab565b91505092915050565b600060208284031215610c3157610c306109fe565b5b600082013567ffffffffffffffff811115610c4f57610c4e610a03565b5b610c5b84828501610bed565b91505092915050565b600081519050919050565b600082825260208201905092915050565b60005b83811015610c9e578082015181840152602081019050610c83565b60008484015250505050565b6000610cb582610c64565b610cbf8185610c6f565b9350610ccf818560208601610c80565b610cd881610adf565b840191505092915050565b60006060820190508181036000830152610cfd8186610caa565b90508181036020830152610d118185610caa565b9050610d2060408301846109ca565b949350505050565b610d3181610a93565b8114610d3c57600080fd5b50565b600081359050610d4e81610d28565b92915050565b60008060408385031215610d6b57610d6a6109fe565b5b6000610d7985828601610d3f565b9250506020610d8a85828601610d3f565b9150509250929050565b60008060408385031215610dab57610daa6109fe565b5b600083013567ffffffffffffffff811115610dc957610dc8610a03565b5b610dd585828601610bed565b925050602083013567ffffffffffffffff811115610df657610df5610a03565b5b610e0285828601610bed565b9150509250929050565b6000602082019050610e216000830184610a9d565b92915050565b610e3081610a28565b82525050565b6000602082019050610e4b6000830184610e27565b92915050565b7f4f6e6c792061646d696e2063616e20706572666f726d2074686973206163746960008201527f6f6e000000000000000000000000000000000000000000000000000000000000602082015250565b6000610ead602283610c6f565b9150610eb882610e51565b604082019050919050565b60006020820190508181036000830152610edc81610ea0565b9050919050565b7f4e487b7100000000000000000000000000000000000000000000000000000000600052602260045260246000fd5b60006002820490506001821680610f2a57607f821691505b602082108103610f3d57610f3c610ee3565b5b50919050565b7f496e76616c696420766f74696e6720706572696f640000000000000000000000600082015250565b6000610f79601583610c6f565b9150610f8482610f43565b602082019050919050565b60006020820190508181036000830152610fa881610f6c565b9050919050565b7f4e487b7100000000000000000000000000000000000000000000000000000000600052601160045260246000fd5b6000610fe982610a93565b9150610ff483610a93565b925082820390508181111561100c5761100b610faf565b5b92915050565b600061101d82610a93565b915061102883610a93565b925082820261103681610a93565b9150828204841483151761104d5761104c610faf565b5b5092915050565b600061105f82610a93565b915061106a83610a93565b925082820190508082111561108257611081610faf565b5b92915050565b600081905092915050565b600061109e82610c64565b6110a88185611088565b93506110b8818560208601610c80565b80840191505092915050565b60006110d08284611093565b915081905092915050565b7f506c656173652c204c6f67696e20776974682061646d696e6973747261746f7260008201527f20657468657265756d206163636f756e74000000000000000000000000000000602082015250565b6000611137603183610c6f565b9150611142826110db565b604082019050919050565b600060208201905081810360008301526111668161112a565b9050919050565b7f757365726e616d6520616e642070617373776f72642063616e6e6f742062652060008201527f656d707479000000000000000000000000000000000000000000000000000000602082015250565b60006111c9602583610c6f565b91506111d48261116d565b604082019050919050565b600060208201905081810360008301526111f8816111bc565b9050919050565b600081905092915050565b60008190508160005260206000209050919050565b6000815461122c81610f12565b61123681866111ff565b94506001821660008114611251576001811461126657611299565b60ff1983168652811515820286019350611299565b61126f8561120a565b60005b8381101561129157815481890152600182019150602081019050611272565b838801955050505b50505092915050565b60006112ae828461121f565b915081905092915050565b7f496e76616c6964207075626c6963206164647265737300000000000000000000600082015250565b60006112ef601683610c6f565b91506112fa826112b9565b602082019050919050565b6000602082019050818103600083015261131e816112e2565b9050919050565b7f496e76616c69642070617373776f726400000000000000000000000000000000600082015250565b600061135b601083610c6f565b915061136682611325565b602082019050919050565b6000602082019050818103600083015261138a8161134e565b9050919050565b7f766f74696e6720686173206e6f742073746172746564207965742121212c205060008201527f6c65617365207761697400000000000000000000000000000000000000000000602082015250565b60006113ed602a83610c6f565b91506113f882611391565b604082019050919050565b6000602082019050818103600083015261141c816113e0565b905091905056fea26469706673582212200b44df5bdea3be0481b1c3462c0697eb9f41b4169f4f906e3a4da0fb4c4e42bb64736f6c63430008130033",
  "immutableReferences": {},
  "source": "//SPDX-License-Identifier: MIT\npragma solidity ^0.8.0;\nimport \"./TimeControl.sol\";\n\ncontract AdminAuthentication is TimeControl {\n\n    struct Admin {\n        string username;\n        string password;\n        bool isRegistered;\n    }\n\n    mapping(string => Admin) public admins;\n    mapping(address => bool) public hasAdminLoggiedIn;\n    constructor() {\n        string memory username = \"Admin\";\n        Admin memory admin = Admin(\"Admin\", \"admin123\", true);\n        admins[username] = admin;\n    }\n\n    function adminAuth(string memory _username, string memory _password) onlyAdmin public{\n        require(admins[_username].isRegistered, \"Please, Login with administrator ethereum account\");\n        // require(abi.encodePacked(_adminPublicAddress).length > 0 && keccak256(bytes(bytes(_password))).length > 0, \"username and password cannot be empty\");\n        require(keccak256(bytes(_username)).length > 0 && keccak256(bytes(bytes(_password))).length > 0, \"username and password cannot be empty\");\n        require(keccak256(bytes(admins[_username].username)) == keccak256(bytes(_username)), \"Invalid public address\");\n        require(keccak256(bytes(admins[_username].password)) == keccak256(bytes(_password)), \"Invalid password\");\n        hasAdminLoggiedIn[msg.sender] = true;\n    }\n\n    function adminLogout() public {\n        hasAdminLoggiedIn[msg.sender] = false;\n    }\n}",
  "sourcePath": "/home/temba/Documents/SmartContract/client/contracts/AdminAuthentication.sol",
  "compiler": {
    "name": "solc",
    "version": "0.8.19+commit.7dd6d404.Emscripten.clang"
  },
  "schemaVersion": "3.4.14",
  "updatedAt": "2023-06-21T10:05:41.703Z",
  "networkType": "ethereum",
  "devdoc": {
    "kind": "dev",
    "methods": {},
    "version": 1
  },
  "userdoc": {
    "kind": "user",
    "methods": {},
    "version": 1
  }
}