{
  "contractName": "CandidateGovernor",
  "abi": [
    {
      "anonymous": false,
      "inputs": [
        {
          "indexed": false,
          "internalType": "string",
          "name": "firstName",
          "type": "string"
        },
        {
          "indexed": false,
          "internalType": "string",
          "name": "lastName",
          "type": "string"
        },
        {
          "indexed": false,
          "internalType": "string",
          "name": "collegeName",
          "type": "string"
        },
        {
          "indexed": false,
          "internalType": "string",
          "name": "programName",
          "type": "string"
        },
        {
          "indexed": false,
          "internalType": "uint256",
          "name": "yearOfStudy",
          "type": "uint256"
        },
        {
          "indexed": false,
          "internalType": "string",
          "name": "regNo",
          "type": "string"
        },
        {
          "indexed": false,
          "internalType": "string",
          "name": "blockNumber",
          "type": "string"
        },
        {
          "indexed": false,
          "internalType": "string",
          "name": "gender",
          "type": "string"
        }
      ],
      "name": "NewGovernorRegistered",
      "type": "event"
    },
    {
      "inputs": [],
      "name": "admin",
      "outputs": [
        {
          "internalType": "address",
          "name": "",
          "type": "address"
        }
      ],
      "stateMutability": "view",
      "type": "function",
      "constant": true
    },
    {
      "inputs": [
        {
          "internalType": "uint256",
          "name": "",
          "type": "uint256"
        }
      ],
      "name": "blockLeaderList",
      "outputs": [
        {
          "internalType": "string",
          "name": "",
          "type": "string"
        }
      ],
      "stateMutability": "view",
      "type": "function",
      "constant": true
    },
    {
      "inputs": [
        {
          "internalType": "address",
          "name": "",
          "type": "address"
        }
      ],
      "name": "blockLeaderVoted",
      "outputs": [
        {
          "internalType": "bool",
          "name": "",
          "type": "bool"
        }
      ],
      "stateMutability": "view",
      "type": "function",
      "constant": true
    },
    {
      "inputs": [
        {
          "internalType": "string",
          "name": "",
          "type": "string"
        }
      ],
      "name": "candidateBlockLeader",
      "outputs": [
        {
          "internalType": "string",
          "name": "firstName",
          "type": "string"
        },
        {
          "internalType": "string",
          "name": "lastName",
          "type": "string"
        },
        {
          "internalType": "string",
          "name": "collegeName",
          "type": "string"
        },
        {
          "internalType": "string",
          "name": "programName",
          "type": "string"
        },
        {
          "internalType": "uint256",
          "name": "yearOfStudy",
          "type": "uint256"
        },
        {
          "internalType": "string",
          "name": "regNo",
          "type": "string"
        },
        {
          "internalType": "string",
          "name": "blockNumber",
          "type": "string"
        },
        {
          "internalType": "string",
          "name": "gender",
          "type": "string"
        },
        {
          "internalType": "bool",
          "name": "isWinner",
          "type": "bool"
        },
        {
          "internalType": "uint256",
          "name": "voteCount",
          "type": "uint256"
        }
      ],
      "stateMutability": "view",
      "type": "function",
      "constant": true
    },
    {
      "inputs": [
        {
          "internalType": "string",
          "name": "",
          "type": "string"
        }
      ],
      "name": "candidateGovernor",
      "outputs": [
        {
          "internalType": "string",
          "name": "firstName",
          "type": "string"
        },
        {
          "internalType": "string",
          "name": "lastName",
          "type": "string"
        },
        {
          "internalType": "string",
          "name": "collegeName",
          "type": "string"
        },
        {
          "internalType": "string",
          "name": "programName",
          "type": "string"
        },
        {
          "internalType": "uint256",
          "name": "yearOfStudy",
          "type": "uint256"
        },
        {
          "internalType": "string",
          "name": "regNo",
          "type": "string"
        },
        {
          "internalType": "string",
          "name": "blockNumber",
          "type": "string"
        },
        {
          "internalType": "string",
          "name": "gender",
          "type": "string"
        },
        {
          "internalType": "bool",
          "name": "isWinner",
          "type": "bool"
        },
        {
          "internalType": "uint256",
          "name": "voteCount",
          "type": "uint256"
        }
      ],
      "stateMutability": "view",
      "type": "function",
      "constant": true
    },
    {
      "inputs": [
        {
          "internalType": "string",
          "name": "",
          "type": "string"
        }
      ],
      "name": "candidatePresident",
      "outputs": [
        {
          "internalType": "string",
          "name": "firstName",
          "type": "string"
        },
        {
          "internalType": "string",
          "name": "lastName",
          "type": "string"
        },
        {
          "internalType": "string",
          "name": "collegeName",
          "type": "string"
        },
        {
          "internalType": "string",
          "name": "programName",
          "type": "string"
        },
        {
          "internalType": "uint256",
          "name": "yearOfStudy",
          "type": "uint256"
        },
        {
          "internalType": "string",
          "name": "regNo",
          "type": "string"
        },
        {
          "internalType": "string",
          "name": "blockNumber",
          "type": "string"
        },
        {
          "internalType": "string",
          "name": "gender",
          "type": "string"
        },
        {
          "internalType": "bool",
          "name": "isWinner",
          "type": "bool"
        },
        {
          "internalType": "uint256",
          "name": "voteCount",
          "type": "uint256"
        }
      ],
      "stateMutability": "view",
      "type": "function",
      "constant": true
    },
    {
      "inputs": [
        {
          "internalType": "uint256",
          "name": "",
          "type": "uint256"
        }
      ],
      "name": "governorList",
      "outputs": [
        {
          "internalType": "string",
          "name": "",
          "type": "string"
        }
      ],
      "stateMutability": "view",
      "type": "function",
      "constant": true
    },
    {
      "inputs": [
        {
          "internalType": "address",
          "name": "",
          "type": "address"
        }
      ],
      "name": "governorVoted",
      "outputs": [
        {
          "internalType": "bool",
          "name": "",
          "type": "bool"
        }
      ],
      "stateMutability": "view",
      "type": "function",
      "constant": true
    },
    {
      "inputs": [
        {
          "internalType": "address",
          "name": "",
          "type": "address"
        }
      ],
      "name": "hasLogedin",
      "outputs": [
        {
          "internalType": "bool",
          "name": "",
          "type": "bool"
        }
      ],
      "stateMutability": "view",
      "type": "function",
      "constant": true
    },
    {
      "inputs": [],
      "name": "isInitiated",
      "outputs": [
        {
          "internalType": "bool",
          "name": "",
          "type": "bool"
        }
      ],
      "stateMutability": "view",
      "type": "function",
      "constant": true
    },
    {
      "inputs": [
        {
          "internalType": "string",
          "name": "",
          "type": "string"
        }
      ],
      "name": "isRegistered",
      "outputs": [
        {
          "internalType": "bool",
          "name": "",
          "type": "bool"
        }
      ],
      "stateMutability": "view",
      "type": "function",
      "constant": true
    },
    {
      "inputs": [],
      "name": "numberOfBlockLeader",
      "outputs": [
        {
          "internalType": "uint256",
          "name": "",
          "type": "uint256"
        }
      ],
      "stateMutability": "view",
      "type": "function",
      "constant": true
    },
    {
      "inputs": [
        {
          "internalType": "uint256",
          "name": "",
          "type": "uint256"
        }
      ],
      "name": "numberOfGovernor",
      "outputs": [
        {
          "internalType": "uint256",
          "name": "",
          "type": "uint256"
        }
      ],
      "stateMutability": "view",
      "type": "function",
      "constant": true
    },
    {
      "inputs": [],
      "name": "numberOfPresident",
      "outputs": [
        {
          "internalType": "uint256",
          "name": "",
          "type": "uint256"
        }
      ],
      "stateMutability": "view",
      "type": "function",
      "constant": true
    },
    {
      "inputs": [
        {
          "internalType": "uint256",
          "name": "",
          "type": "uint256"
        }
      ],
      "name": "presidentList",
      "outputs": [
        {
          "internalType": "string",
          "name": "",
          "type": "string"
        }
      ],
      "stateMutability": "view",
      "type": "function",
      "constant": true
    },
    {
      "inputs": [
        {
          "internalType": "address",
          "name": "",
          "type": "address"
        }
      ],
      "name": "presidentVoted",
      "outputs": [
        {
          "internalType": "bool",
          "name": "",
          "type": "bool"
        }
      ],
      "stateMutability": "view",
      "type": "function",
      "constant": true
    },
    {
      "inputs": [],
      "name": "totalVotes",
      "outputs": [
        {
          "internalType": "uint256",
          "name": "",
          "type": "uint256"
        }
      ],
      "stateMutability": "view",
      "type": "function",
      "constant": true
    },
    {
      "inputs": [
        {
          "internalType": "address",
          "name": "newAdmin",
          "type": "address"
        }
      ],
      "name": "transferAdmin",
      "outputs": [],
      "stateMutability": "nonpayable",
      "type": "function"
    },
    {
      "inputs": [
        {
          "internalType": "uint256",
          "name": "",
          "type": "uint256"
        }
      ],
      "name": "voterAddressArray",
      "outputs": [
        {
          "internalType": "address",
          "name": "",
          "type": "address"
        }
      ],
      "stateMutability": "view",
      "type": "function",
      "constant": true
    },
    {
      "inputs": [
        {
          "internalType": "address",
          "name": "",
          "type": "address"
        }
      ],
      "name": "voterSession",
      "outputs": [
        {
          "internalType": "string",
          "name": "",
          "type": "string"
        }
      ],
      "stateMutability": "view",
      "type": "function",
      "constant": true
    },
    {
      "inputs": [
        {
          "internalType": "address",
          "name": "",
          "type": "address"
        }
      ],
      "name": "voters",
      "outputs": [
        {
          "internalType": "address",
          "name": "voterAddress",
          "type": "address"
        },
        {
          "internalType": "string",
          "name": "firstName",
          "type": "string"
        },
        {
          "internalType": "string",
          "name": "lastName",
          "type": "string"
        },
        {
          "internalType": "string",
          "name": "collegeName",
          "type": "string"
        },
        {
          "internalType": "string",
          "name": "programName",
          "type": "string"
        },
        {
          "internalType": "uint256",
          "name": "yearOfStudy",
          "type": "uint256"
        },
        {
          "internalType": "string",
          "name": "regNo",
          "type": "string"
        },
        {
          "internalType": "string",
          "name": "blockNumber",
          "type": "string"
        },
        {
          "internalType": "string",
          "name": "password",
          "type": "string"
        },
        {
          "internalType": "string",
          "name": "gender",
          "type": "string"
        },
        {
          "internalType": "bool",
          "name": "isRegistered",
          "type": "bool"
        },
        {
          "internalType": "bool",
          "name": "voted",
          "type": "bool"
        }
      ],
      "stateMutability": "view",
      "type": "function",
      "constant": true
    },
    {
      "inputs": [
        {
          "internalType": "string",
          "name": "_firstName",
          "type": "string"
        },
        {
          "internalType": "string",
          "name": "_lastName",
          "type": "string"
        },
        {
          "internalType": "string",
          "name": "_collegeName",
          "type": "string"
        },
        {
          "internalType": "string",
          "name": "_programName",
          "type": "string"
        },
        {
          "internalType": "uint256",
          "name": "_yearOfStudy",
          "type": "uint256"
        },
        {
          "internalType": "string",
          "name": "_regNo",
          "type": "string"
        },
        {
          "internalType": "string",
          "name": "_blockNumber",
          "type": "string"
        },
        {
          "internalType": "string",
          "name": "_gender",
          "type": "string"
        }
      ],
      "name": "registerGovernor",
      "outputs": [],
      "stateMutability": "nonpayable",
      "type": "function"
    },
    {
      "inputs": [],
      "name": "getGovernorRegNumber",
      "outputs": [
        {
          "internalType": "string[]",
          "name": "",
          "type": "string[]"
        }
      ],
      "stateMutability": "view",
      "type": "function",
      "constant": true
    },
    {
      "inputs": [
        {
          "internalType": "string",
          "name": "_regNo",
          "type": "string"
        }
      ],
      "name": "adminViewGovernors",
      "outputs": [
        {
          "internalType": "string",
          "name": "firstName",
          "type": "string"
        },
        {
          "internalType": "string",
          "name": "lastName",
          "type": "string"
        },
        {
          "internalType": "string",
          "name": "collegeName",
          "type": "string"
        },
        {
          "internalType": "string",
          "name": "programName",
          "type": "string"
        },
        {
          "internalType": "uint256",
          "name": "yearOfStudy",
          "type": "uint256"
        },
        {
          "internalType": "string",
          "name": "regNo",
          "type": "string"
        },
        {
          "internalType": "string",
          "name": "blockNumber",
          "type": "string"
        },
        {
          "internalType": "string",
          "name": "gender",
          "type": "string"
        },
        {
          "internalType": "uint256",
          "name": "voteCount",
          "type": "uint256"
        }
      ],
      "stateMutability": "view",
      "type": "function",
      "constant": true
    },
    {
      "inputs": [
        {
          "internalType": "address",
          "name": "addressVoter",
          "type": "address"
        }
      ],
      "name": "voterViewGovernors",
      "outputs": [
        {
          "components": [
            {
              "internalType": "string",
              "name": "firstName",
              "type": "string"
            },
            {
              "internalType": "string",
              "name": "lastName",
              "type": "string"
            },
            {
              "internalType": "string",
              "name": "collegeName",
              "type": "string"
            },
            {
              "internalType": "string",
              "name": "programName",
              "type": "string"
            },
            {
              "internalType": "uint256",
              "name": "yearOfStudy",
              "type": "uint256"
            },
            {
              "internalType": "string",
              "name": "regNo",
              "type": "string"
            },
            {
              "internalType": "string",
              "name": "blockNumber",
              "type": "string"
            },
            {
              "internalType": "string",
              "name": "gender",
              "type": "string"
            },
            {
              "internalType": "bool",
              "name": "isWinner",
              "type": "bool"
            },
            {
              "internalType": "uint256",
              "name": "voteCount",
              "type": "uint256"
            }
          ],
          "internalType": "struct CandidateStructure.Candidate[]",
          "name": "",
          "type": "tuple[]"
        }
      ],
      "stateMutability": "view",
      "type": "function",
      "constant": true
    },
    {
      "inputs": [
        {
          "internalType": "string",
          "name": "_presidentRegNo",
          "type": "string"
        }
      ],
      "name": "deleteGovernor",
      "outputs": [],
      "stateMutability": "nonpayable",
      "type": "function"
    },
    {
      "inputs": [],
      "name": "getWinnerGovernor",
      "outputs": [
        {
          "internalType": "string",
          "name": "",
          "type": "string"
        },
        {
          "internalType": "string",
          "name": "",
          "type": "string"
        },
        {
          "internalType": "string",
          "name": "",
          "type": "string"
        },
        {
          "internalType": "string",
          "name": "",
          "type": "string"
        },
        {
          "internalType": "uint256",
          "name": "",
          "type": "uint256"
        }
      ],
      "stateMutability": "view",
      "type": "function",
      "constant": true
    }
  ],
  "bytecode": "0x608060405234801561001057600080fd5b5033601860006101000a81548173ffffffffffffffffffffffffffffffffffffffff021916908373ffffffffffffffffffffffffffffffffffffffff160217905550614f44806100616000396000f3fe608060405234801561001057600080fd5b50600436106101a95760003560e01c8063a0b0df95116100f9578063dccea18911610097578063ebad7e7911610071578063ebad7e79146105a5578063f6445026146105c1578063f6ffc117146105fa578063f851a44014610618576101a9565b8063dccea18914610527578063e316db4e14610545578063e6b52a3314610575576101a9565b8063bf08128f116100d3578063bf08128f1461047b578063c184e778146104ab578063c822d7f0146104c7578063ca397043146104f7576101a9565b8063a0b0df95146103f2578063a3ec138d14610422578063b339eb161461045d576101a9565b806345a8a2be116101665780636d75f0de116101405780636d75f0de1461034c57806371b7ddb81461036e57806375829def1461039e578063828d95f2146103ba576101a9565b806345a8a2be146102bc5780635b6e990c146102ec5780635f8b99721461031c576101a9565b806302aac7b2146101ae578063052fbf8c146101de5780630d15fd771461020e578063166b47221461022c5780631ac45f52146102655780631cb599141461029e575b600080fd5b6101c860048036038101906101c39190613ac5565b610636565b6040516101d59190613b82565b60405180910390f35b6101f860048036038101906101f39190613c02565b6106e2565b6040516102059190613c4a565b60405180910390f35b610216610702565b6040516102239190613c74565b60405180910390f35b61024660048036038101906102419190613dc4565b610708565b60405161025c9a99989796959493929190613e0d565b60405180910390f35b61027f600480360381019061027a9190613dc4565b610b37565b6040516102959a99989796959493929190613e0d565b60405180910390f35b6102a6610f66565b6040516102b39190613c4a565b60405180910390f35b6102d660048036038101906102d19190613ac5565b610f79565b6040516102e39190613b82565b60405180910390f35b61030660048036038101906103019190613c02565b611025565b6040516103139190613b82565b60405180910390f35b61033660048036038101906103319190613c02565b6110c5565b6040516103439190613c4a565b60405180910390f35b6103546110e5565b604051610365959493929190613eda565b60405180910390f35b61038860048036038101906103839190613ac5565b611648565b6040516103959190613f58565b60405180910390f35b6103b860048036038101906103b39190613c02565b611687565b005b6103d460048036038101906103cf9190613dc4565b61175b565b6040516103e999989796959493929190613f73565b60405180910390f35b61040c60048036038101906104079190613c02565b611c12565b6040516104199190613c4a565b60405180910390f35b61043c60048036038101906104379190613c02565b611c32565b6040516104549c9b9a99989796959493929190614031565b60405180910390f35b61046561210c565b604051610472919061422f565b60405180910390f35b61049560048036038101906104909190613c02565b6121e5565b6040516104a29190613c4a565b60405180910390f35b6104c560048036038101906104c09190614251565b612205565b005b6104e160048036038101906104dc9190613dc4565b612623565b6040516104ee9190613c4a565b60405180910390f35b610511600480360381019061050c9190613c02565b612659565b60405161051e91906145af565b60405180910390f35b61052f613238565b60405161053c9190613c74565b60405180910390f35b61055f600480360381019061055a9190613ac5565b61323e565b60405161056c9190613b82565b60405180910390f35b61058f600480360381019061058a9190613ac5565b6132ea565b60405161059c9190613c74565b60405180910390f35b6105bf60048036038101906105ba9190613dc4565b613305565b005b6105db60048036038101906105d69190613dc4565b61356e565b6040516105f19a99989796959493929190613e0d565b60405180910390f35b61060261399d565b60405161060f9190613c74565b60405180910390f35b6106206139a3565b60405161062d9190613f58565b60405180910390f35b6009818154811061064657600080fd5b90600052602060002001600091509050805461066190614600565b80601f016020809104026020016040519081016040528092919081815260200182805461068d90614600565b80156106da5780601f106106af576101008083540402835291602001916106da565b820191906000526020600020905b8154815290600101906020018083116106bd57829003601f168201915b505050505081565b60076020528060005260406000206000915054906101000a900460ff1681565b60005481565b60028180516020810182018051848252602083016020850120818352809550505050505060009150905080600001805461074190614600565b80601f016020809104026020016040519081016040528092919081815260200182805461076d90614600565b80156107ba5780601f1061078f576101008083540402835291602001916107ba565b820191906000526020600020905b81548152906001019060200180831161079d57829003601f168201915b5050505050908060010180546107cf90614600565b80601f01602080910402602001604051908101604052809291908181526020018280546107fb90614600565b80156108485780601f1061081d57610100808354040283529160200191610848565b820191906000526020600020905b81548152906001019060200180831161082b57829003601f168201915b50505050509080600201805461085d90614600565b80601f016020809104026020016040519081016040528092919081815260200182805461088990614600565b80156108d65780601f106108ab576101008083540402835291602001916108d6565b820191906000526020600020905b8154815290600101906020018083116108b957829003601f168201915b5050505050908060030180546108eb90614600565b80601f016020809104026020016040519081016040528092919081815260200182805461091790614600565b80156109645780601f1061093957610100808354040283529160200191610964565b820191906000526020600020905b81548152906001019060200180831161094757829003601f168201915b50505050509080600401549080600501805461097f90614600565b80601f01602080910402602001604051908101604052809291908181526020018280546109ab90614600565b80156109f85780601f106109cd576101008083540402835291602001916109f8565b820191906000526020600020905b8154815290600101906020018083116109db57829003601f168201915b505050505090806006018054610a0d90614600565b80601f0160208091040260200160405190810160405280929190818152602001828054610a3990614600565b8015610a865780601f10610a5b57610100808354040283529160200191610a86565b820191906000526020600020905b815481529060010190602001808311610a6957829003601f168201915b505050505090806007018054610a9b90614600565b80601f0160208091040260200160405190810160405280929190818152602001828054610ac790614600565b8015610b145780601f10610ae957610100808354040283529160200191610b14565b820191906000526020600020905b815481529060010190602001808311610af757829003601f168201915b5050505050908060080160009054906101000a900460ff1690806009015490508a565b600481805160208101820180518482526020830160208501208183528095505050505050600091509050806000018054610b7090614600565b80601f0160208091040260200160405190810160405280929190818152602001828054610b9c90614600565b8015610be95780601f10610bbe57610100808354040283529160200191610be9565b820191906000526020600020905b815481529060010190602001808311610bcc57829003601f168201915b505050505090806001018054610bfe90614600565b80601f0160208091040260200160405190810160405280929190818152602001828054610c2a90614600565b8015610c775780601f10610c4c57610100808354040283529160200191610c77565b820191906000526020600020905b815481529060010190602001808311610c5a57829003601f168201915b505050505090806002018054610c8c90614600565b80601f0160208091040260200160405190810160405280929190818152602001828054610cb890614600565b8015610d055780601f10610cda57610100808354040283529160200191610d05565b820191906000526020600020905b815481529060010190602001808311610ce857829003601f168201915b505050505090806003018054610d1a90614600565b80601f0160208091040260200160405190810160405280929190818152602001828054610d4690614600565b8015610d935780601f10610d6857610100808354040283529160200191610d93565b820191906000526020600020905b815481529060010190602001808311610d7657829003601f168201915b505050505090806004015490806005018054610dae90614600565b80601f0160208091040260200160405190810160405280929190818152602001828054610dda90614600565b8015610e275780601f10610dfc57610100808354040283529160200191610e27565b820191906000526020600020905b815481529060010190602001808311610e0a57829003601f168201915b505050505090806006018054610e3c90614600565b80601f0160208091040260200160405190810160405280929190818152602001828054610e6890614600565b8015610eb55780601f10610e8a57610100808354040283529160200191610eb5565b820191906000526020600020905b815481529060010190602001808311610e9857829003601f168201915b505050505090806007018054610eca90614600565b80601f0160208091040260200160405190810160405280929190818152602001828054610ef690614600565b8015610f435780601f10610f1857610100808354040283529160200191610f43565b820191906000526020600020905b815481529060010190602001808311610f2657829003601f168201915b5050505050908060080160009054906101000a900460ff1690806009015490508a565b601c60009054906101000a900460ff1681565b600a8181548110610f8957600080fd5b906000526020600020016000915090508054610fa490614600565b80601f0160208091040260200160405190810160405280929190818152602001828054610fd090614600565b801561101d5780601f10610ff25761010080835404028352916020019161101d565b820191906000526020600020905b81548152906001019060200180831161100057829003601f168201915b505050505081565b6016602052806000526040600020600091509050805461104490614600565b80601f016020809104026020016040519081016040528092919081815260200182805461107090614600565b80156110bd5780601f10611092576101008083540402835291602001916110bd565b820191906000526020600020905b8154815290600101906020018083116110a057829003601f168201915b505050505081565b60056020528060005260406000206000915054906101000a900460ff1681565b606080606080600080600090506000805b6009805490508110156111a1578260036009838154811061111a57611119614631565b5b906000526020600020016040516111319190614703565b908152602001604051809103902060090154111561118e5760036009828154811061115f5761115e614631565b5b906000526020600020016040516111769190614703565b90815260200160405180910390206009015492508091505b808061119990614749565b9150506110f6565b5060006003600983815481106111ba576111b9614631565b5b906000526020600020016040516111d19190614703565b9081526020016040518091039020604051806101400160405290816000820180546111fb90614600565b80601f016020809104026020016040519081016040528092919081815260200182805461122790614600565b80156112745780601f1061124957610100808354040283529160200191611274565b820191906000526020600020905b81548152906001019060200180831161125757829003601f168201915b5050505050815260200160018201805461128d90614600565b80601f01602080910402602001604051908101604052809291908181526020018280546112b990614600565b80156113065780601f106112db57610100808354040283529160200191611306565b820191906000526020600020905b8154815290600101906020018083116112e957829003601f168201915b5050505050815260200160028201805461131f90614600565b80601f016020809104026020016040519081016040528092919081815260200182805461134b90614600565b80156113985780601f1061136d57610100808354040283529160200191611398565b820191906000526020600020905b81548152906001019060200180831161137b57829003601f168201915b505050505081526020016003820180546113b190614600565b80601f01602080910402602001604051908101604052809291908181526020018280546113dd90614600565b801561142a5780601f106113ff5761010080835404028352916020019161142a565b820191906000526020600020905b81548152906001019060200180831161140d57829003601f168201915b505050505081526020016004820154815260200160058201805461144d90614600565b80601f016020809104026020016040519081016040528092919081815260200182805461147990614600565b80156114c65780601f1061149b576101008083540402835291602001916114c6565b820191906000526020600020905b8154815290600101906020018083116114a957829003601f168201915b505050505081526020016006820180546114df90614600565b80601f016020809104026020016040519081016040528092919081815260200182805461150b90614600565b80156115585780601f1061152d57610100808354040283529160200191611558565b820191906000526020600020905b81548152906001019060200180831161153b57829003601f168201915b5050505050815260200160078201805461157190614600565b80601f016020809104026020016040519081016040528092919081815260200182805461159d90614600565b80156115ea5780601f106115bf576101008083540402835291602001916115ea565b820191906000526020600020905b8154815290600101906020018083116115cd57829003601f168201915b505050505081526020016008820160009054906101000a900460ff16151515158152602001600982015481525050905080600001518160a0015182604001518360600151846101200151975097509750975097505050509091929394565b6017818154811061165857600080fd5b906000526020600020016000915054906101000a900473ffffffffffffffffffffffffffffffffffffffff1681565b601860009054906101000a900473ffffffffffffffffffffffffffffffffffffffff1673ffffffffffffffffffffffffffffffffffffffff163373ffffffffffffffffffffffffffffffffffffffff1614611717576040517f08c379a000000000000000000000000000000000000000000000000000000000815260040161170e90614803565b60405180910390fd5b80601860006101000a81548173ffffffffffffffffffffffffffffffffffffffff021916908373ffffffffffffffffffffffffffffffffffffffff16021790555050565b6060806060806000606080606060008060038b60405161177b9190614854565b9081526020016040518091039020604051806101400160405290816000820180546117a590614600565b80601f01602080910402602001604051908101604052809291908181526020018280546117d190614600565b801561181e5780601f106117f35761010080835404028352916020019161181e565b820191906000526020600020905b81548152906001019060200180831161180157829003601f168201915b5050505050815260200160018201805461183790614600565b80601f016020809104026020016040519081016040528092919081815260200182805461186390614600565b80156118b05780601f10611885576101008083540402835291602001916118b0565b820191906000526020600020905b81548152906001019060200180831161189357829003601f168201915b505050505081526020016002820180546118c990614600565b80601f01602080910402602001604051908101604052809291908181526020018280546118f590614600565b80156119425780601f1061191757610100808354040283529160200191611942565b820191906000526020600020905b81548152906001019060200180831161192557829003601f168201915b5050505050815260200160038201805461195b90614600565b80601f016020809104026020016040519081016040528092919081815260200182805461198790614600565b80156119d45780601f106119a9576101008083540402835291602001916119d4565b820191906000526020600020905b8154815290600101906020018083116119b757829003601f168201915b50505050508152602001600482015481526020016005820180546119f790614600565b80601f0160208091040260200160405190810160405280929190818152602001828054611a2390614600565b8015611a705780601f10611a4557610100808354040283529160200191611a70565b820191906000526020600020905b815481529060010190602001808311611a5357829003601f168201915b50505050508152602001600682018054611a8990614600565b80601f0160208091040260200160405190810160405280929190818152602001828054611ab590614600565b8015611b025780601f10611ad757610100808354040283529160200191611b02565b820191906000526020600020905b815481529060010190602001808311611ae557829003601f168201915b50505050508152602001600782018054611b1b90614600565b80601f0160208091040260200160405190810160405280929190818152602001828054611b4790614600565b8015611b945780601f10611b6957610100808354040283529160200191611b94565b820191906000526020600020905b815481529060010190602001808311611b7757829003601f168201915b505050505081526020016008820160009054906101000a900460ff16151515158152602001600982015481525050905080600001519950806020015198508060400151975080606001519650806080015195508060a0015194508060c0015193508060e0015192508061012001519150509193959799909294969850565b60066020528060005260406000206000915054906101000a900460ff1681565b60146020528060005260406000206000915090508060000160009054906101000a900473ffffffffffffffffffffffffffffffffffffffff1690806001018054611c7b90614600565b80601f0160208091040260200160405190810160405280929190818152602001828054611ca790614600565b8015611cf45780601f10611cc957610100808354040283529160200191611cf4565b820191906000526020600020905b815481529060010190602001808311611cd757829003601f168201915b505050505090806002018054611d0990614600565b80601f0160208091040260200160405190810160405280929190818152602001828054611d3590614600565b8015611d825780601f10611d5757610100808354040283529160200191611d82565b820191906000526020600020905b815481529060010190602001808311611d6557829003601f168201915b505050505090806003018054611d9790614600565b80601f0160208091040260200160405190810160405280929190818152602001828054611dc390614600565b8015611e105780601f10611de557610100808354040283529160200191611e10565b820191906000526020600020905b815481529060010190602001808311611df357829003601f168201915b505050505090806004018054611e2590614600565b80601f0160208091040260200160405190810160405280929190818152602001828054611e5190614600565b8015611e9e5780601f10611e7357610100808354040283529160200191611e9e565b820191906000526020600020905b815481529060010190602001808311611e8157829003601f168201915b505050505090806005015490806006018054611eb990614600565b80601f0160208091040260200160405190810160405280929190818152602001828054611ee590614600565b8015611f325780601f10611f0757610100808354040283529160200191611f32565b820191906000526020600020905b815481529060010190602001808311611f1557829003601f168201915b505050505090806007018054611f4790614600565b80601f0160208091040260200160405190810160405280929190818152602001828054611f7390614600565b8015611fc05780601f10611f9557610100808354040283529160200191611fc0565b820191906000526020600020905b815481529060010190602001808311611fa357829003601f168201915b505050505090806008018054611fd590614600565b80601f016020809104026020016040519081016040528092919081815260200182805461200190614600565b801561204e5780601f106120235761010080835404028352916020019161204e565b820191906000526020600020905b81548152906001019060200180831161203157829003601f168201915b50505050509080600901805461206390614600565b80601f016020809104026020016040519081016040528092919081815260200182805461208f90614600565b80156120dc5780601f106120b1576101008083540402835291602001916120dc565b820191906000526020600020905b8154815290600101906020018083116120bf57829003601f168201915b50505050509080600a0160009054906101000a900460ff169080600a0160019054906101000a900460ff1690508c565b60606009805480602002602001604051908101604052809291908181526020016000905b828210156121dc57838290600052602060002001805461214f90614600565b80601f016020809104026020016040519081016040528092919081815260200182805461217b90614600565b80156121c85780601f1061219d576101008083540402835291602001916121c8565b820191906000526020600020905b8154815290600101906020018083116121ab57829003601f168201915b505050505081526020019060010190612130565b50505050905090565b60156020528060005260406000206000915054906101000a900460ff1681565b601860009054906101000a900473ffffffffffffffffffffffffffffffffffffffff1673ffffffffffffffffffffffffffffffffffffffff163373ffffffffffffffffffffffffffffffffffffffff1614612295576040517f08c379a000000000000000000000000000000000000000000000000000000000815260040161228c90614803565b60405180910390fd5b601c60009054906101000a900460ff16156122e5576040517f08c379a00000000000000000000000000000000000000000000000000000000081526004016122dc906148b7565b60405180910390fd5b6000838051906020012050602060ff1611801561230f57506000888051906020012050602060ff16115b801561232857506000868051906020012050602060ff16115b801561234157506000858051906020012050602060ff16115b801561235a57506000828051906020012050602060ff16115b801561237357506000818051906020012050602060ff16115b6123b2576040517f08c379a00000000000000000000000000000000000000000000000000000000081526004016123a990614949565b60405180910390fd5b6001836040516123c29190614854565b908152602001604051809103902060009054906101000a900460ff161561241e576040517f08c379a0000000000000000000000000000000000000000000000000000000008152600401612415906149b5565b60405180910390fd5b60008411801561242e5750600584105b61246d576040517f08c379a000000000000000000000000000000000000000000000000000000000815260040161246490614a21565b60405180910390fd5b60006040518061014001604052808a815260200189815260200188815260200187815260200186815260200185815260200184815260200183815260200160001515815260200160008152509050806003856040516124cc9190614854565b908152602001604051809103902060008201518160000190816124ef9190614bd8565b5060208201518160010190816125059190614bd8565b50604082015181600201908161251b9190614bd8565b5060608201518160030190816125319190614bd8565b506080820151816004015560a08201518160050190816125519190614bd8565b5060c08201518160060190816125679190614bd8565b5060e082015181600701908161257d9190614bd8565b506101008201518160080160006101000a81548160ff02191690831515021790555061012082015181600901559050506009849080600181540180825580915050600190039060005260206000200160009091909190915090816125e19190614bd8565b50600180856040516125f39190614854565b908152602001604051809103902060006101000a81548160ff021916908315150217905550505050505050505050565b6001818051602081018201805184825260208301602085012081835280955050505050506000915054906101000a900460ff1681565b60606000601460008473ffffffffffffffffffffffffffffffffffffffff1673ffffffffffffffffffffffffffffffffffffffff168152602001908152602001600020604051806101800160405290816000820160009054906101000a900473ffffffffffffffffffffffffffffffffffffffff1673ffffffffffffffffffffffffffffffffffffffff1673ffffffffffffffffffffffffffffffffffffffff16815260200160018201805461270e90614600565b80601f016020809104026020016040519081016040528092919081815260200182805461273a90614600565b80156127875780601f1061275c57610100808354040283529160200191612787565b820191906000526020600020905b81548152906001019060200180831161276a57829003601f168201915b505050505081526020016002820180546127a090614600565b80601f01602080910402602001604051908101604052809291908181526020018280546127cc90614600565b80156128195780601f106127ee57610100808354040283529160200191612819565b820191906000526020600020905b8154815290600101906020018083116127fc57829003601f168201915b5050505050815260200160038201805461283290614600565b80601f016020809104026020016040519081016040528092919081815260200182805461285e90614600565b80156128ab5780601f10612880576101008083540402835291602001916128ab565b820191906000526020600020905b81548152906001019060200180831161288e57829003601f168201915b505050505081526020016004820180546128c490614600565b80601f01602080910402602001604051908101604052809291908181526020018280546128f090614600565b801561293d5780601f106129125761010080835404028352916020019161293d565b820191906000526020600020905b81548152906001019060200180831161292057829003601f168201915b505050505081526020016005820154815260200160068201805461296090614600565b80601f016020809104026020016040519081016040528092919081815260200182805461298c90614600565b80156129d95780601f106129ae576101008083540402835291602001916129d9565b820191906000526020600020905b8154815290600101906020018083116129bc57829003601f168201915b505050505081526020016007820180546129f290614600565b80601f0160208091040260200160405190810160405280929190818152602001828054612a1e90614600565b8015612a6b5780601f10612a4057610100808354040283529160200191612a6b565b820191906000526020600020905b815481529060010190602001808311612a4e57829003601f168201915b50505050508152602001600882018054612a8490614600565b80601f0160208091040260200160405190810160405280929190818152602001828054612ab090614600565b8015612afd5780601f10612ad257610100808354040283529160200191612afd565b820191906000526020600020905b815481529060010190602001808311612ae057829003601f168201915b50505050508152602001600982018054612b1690614600565b80601f0160208091040260200160405190810160405280929190818152602001828054612b4290614600565b8015612b8f5780601f10612b6457610100808354040283529160200191612b8f565b820191906000526020600020905b815481529060010190602001808311612b7257829003601f168201915b50505050508152602001600a820160009054906101000a900460ff16151515158152602001600a820160019054906101000a900460ff1615151515815250509050600081606001519050600060098054905067ffffffffffffffff811115612bfa57612bf9613c99565b5b604051908082528060200260200182016040528015612c3357816020015b612c206139c9565b815260200190600190039081612c185790505b50905060006009805480602002602001604051908101604052809291908181526020016000905b82821015612d06578382906000526020600020018054612c7990614600565b80601f0160208091040260200160405190810160405280929190818152602001828054612ca590614600565b8015612cf25780601f10612cc757610100808354040283529160200191612cf2565b820191906000526020600020905b815481529060010190602001808311612cd557829003601f168201915b505050505081526020019060010190612c5a565b5050505090506000805b82518110156132275784805190602001206003848381518110612d3657612d35614631565b5b6020026020010151604051612d4b9190614854565b9081526020016040518091039020600201604051612d699190614d4d565b604051809103902003613214576003838281518110612d8b57612d8a614631565b5b6020026020010151604051612da09190614854565b908152602001604051809103902060405180610140016040529081600082018054612dca90614600565b80601f0160208091040260200160405190810160405280929190818152602001828054612df690614600565b8015612e435780601f10612e1857610100808354040283529160200191612e43565b820191906000526020600020905b815481529060010190602001808311612e2657829003601f168201915b50505050508152602001600182018054612e5c90614600565b80601f0160208091040260200160405190810160405280929190818152602001828054612e8890614600565b8015612ed55780601f10612eaa57610100808354040283529160200191612ed5565b820191906000526020600020905b815481529060010190602001808311612eb857829003601f168201915b50505050508152602001600282018054612eee90614600565b80601f0160208091040260200160405190810160405280929190818152602001828054612f1a90614600565b8015612f675780601f10612f3c57610100808354040283529160200191612f67565b820191906000526020600020905b815481529060010190602001808311612f4a57829003601f168201915b50505050508152602001600382018054612f8090614600565b80601f0160208091040260200160405190810160405280929190818152602001828054612fac90614600565b8015612ff95780601f10612fce57610100808354040283529160200191612ff9565b820191906000526020600020905b815481529060010190602001808311612fdc57829003601f168201915b505050505081526020016004820154815260200160058201805461301c90614600565b80601f016020809104026020016040519081016040528092919081815260200182805461304890614600565b80156130955780601f1061306a57610100808354040283529160200191613095565b820191906000526020600020905b81548152906001019060200180831161307857829003601f168201915b505050505081526020016006820180546130ae90614600565b80601f01602080910402602001604051908101604052809291908181526020018280546130da90614600565b80156131275780601f106130fc57610100808354040283529160200191613127565b820191906000526020600020905b81548152906001019060200180831161310a57829003601f168201915b5050505050815260200160078201805461314090614600565b80601f016020809104026020016040519081016040528092919081815260200182805461316c90614600565b80156131b95780601f1061318e576101008083540402835291602001916131b9565b820191906000526020600020905b81548152906001019060200180831161319c57829003601f168201915b505050505081526020016008820160009054906101000a900460ff161515151581526020016009820154815250508483815181106131fa576131f9614631565b5b6020026020010181905250818061321090614749565b9250505b808061321f90614749565b915050612d10565b508083528295505050505050919050565b600b5481565b6008818154811061324e57600080fd5b90600052602060002001600091509050805461326990614600565b80601f016020809104026020016040519081016040528092919081815260200182805461329590614600565b80156132e25780601f106132b7576101008083540402835291602001916132e2565b820191906000526020600020905b8154815290600101906020018083116132c557829003601f168201915b505050505081565b600c81600781106132fa57600080fd5b016000915090505481565b601860009054906101000a900473ffffffffffffffffffffffffffffffffffffffff1673ffffffffffffffffffffffffffffffffffffffff163373ffffffffffffffffffffffffffffffffffffffff1614613395576040517f08c379a000000000000000000000000000000000000000000000000000000000815260040161338c90614803565b60405180910390fd5b6003816040516133a59190614854565b9081526020016040518091039020600080820160006133c49190613a1e565b6001820160006133d49190613a1e565b6002820160006133e49190613a1e565b6003820160006133f49190613a1e565b600482016000905560058201600061340c9190613a1e565b60068201600061341c9190613a1e565b60078201600061342c9190613a1e565b6008820160006101000a81549060ff02191690556009820160009055505060005b60098054905081101561356a5781805190602001206009828154811061347657613475614631565b5b9060005260206000200160405161348d9190614d4d565b6040518091039020036135575760008190505b60016009805490506134b29190614d64565b8110156135215760096001826134c89190614d98565b815481106134d9576134d8614631565b5b90600052602060002001600982815481106134f7576134f6614631565b5b90600052602060002001908161350d9190614df7565b50808061351990614749565b9150506134a0565b50600980548061353457613533614edf565b5b6001900381819060005260206000200160006135509190613a1e565b905561356a565b808061356290614749565b91505061344d565b5050565b6003818051602081018201805184825260208301602085012081835280955050505050506000915090508060000180546135a790614600565b80601f01602080910402602001604051908101604052809291908181526020018280546135d390614600565b80156136205780601f106135f557610100808354040283529160200191613620565b820191906000526020600020905b81548152906001019060200180831161360357829003601f168201915b50505050509080600101805461363590614600565b80601f016020809104026020016040519081016040528092919081815260200182805461366190614600565b80156136ae5780601f10613683576101008083540402835291602001916136ae565b820191906000526020600020905b81548152906001019060200180831161369157829003601f168201915b5050505050908060020180546136c390614600565b80601f01602080910402602001604051908101604052809291908181526020018280546136ef90614600565b801561373c5780601f106137115761010080835404028352916020019161373c565b820191906000526020600020905b81548152906001019060200180831161371f57829003601f168201915b50505050509080600301805461375190614600565b80601f016020809104026020016040519081016040528092919081815260200182805461377d90614600565b80156137ca5780601f1061379f576101008083540402835291602001916137ca565b820191906000526020600020905b8154815290600101906020018083116137ad57829003601f168201915b5050505050908060040154908060050180546137e590614600565b80601f016020809104026020016040519081016040528092919081815260200182805461381190614600565b801561385e5780601f106138335761010080835404028352916020019161385e565b820191906000526020600020905b81548152906001019060200180831161384157829003601f168201915b50505050509080600601805461387390614600565b80601f016020809104026020016040519081016040528092919081815260200182805461389f90614600565b80156138ec5780601f106138c1576101008083540402835291602001916138ec565b820191906000526020600020905b8154815290600101906020018083116138cf57829003601f168201915b50505050509080600701805461390190614600565b80601f016020809104026020016040519081016040528092919081815260200182805461392d90614600565b801561397a5780601f1061394f5761010080835404028352916020019161397a565b820191906000526020600020905b81548152906001019060200180831161395d57829003601f168201915b5050505050908060080160009054906101000a900460ff1690806009015490508a565b60135481565b601860009054906101000a900473ffffffffffffffffffffffffffffffffffffffff1681565b6040518061014001604052806060815260200160608152602001606081526020016060815260200160008152602001606081526020016060815260200160608152602001600015158152602001600081525090565b508054613a2a90614600565b6000825580601f10613a3c5750613a5b565b601f016020900490600052602060002090810190613a5a9190613a5e565b5b50565b5b80821115613a77576000816000905550600101613a5f565b5090565b6000604051905090565b600080fd5b600080fd5b6000819050919050565b613aa281613a8f565b8114613aad57600080fd5b50565b600081359050613abf81613a99565b92915050565b600060208284031215613adb57613ada613a85565b5b6000613ae984828501613ab0565b91505092915050565b600081519050919050565b600082825260208201905092915050565b60005b83811015613b2c578082015181840152602081019050613b11565b60008484015250505050565b6000601f19601f8301169050919050565b6000613b5482613af2565b613b5e8185613afd565b9350613b6e818560208601613b0e565b613b7781613b38565b840191505092915050565b60006020820190508181036000830152613b9c8184613b49565b905092915050565b600073ffffffffffffffffffffffffffffffffffffffff82169050919050565b6000613bcf82613ba4565b9050919050565b613bdf81613bc4565b8114613bea57600080fd5b50565b600081359050613bfc81613bd6565b92915050565b600060208284031215613c1857613c17613a85565b5b6000613c2684828501613bed565b91505092915050565b60008115159050919050565b613c4481613c2f565b82525050565b6000602082019050613c5f6000830184613c3b565b92915050565b613c6e81613a8f565b82525050565b6000602082019050613c896000830184613c65565b92915050565b600080fd5b600080fd5b7f4e487b7100000000000000000000000000000000000000000000000000000000600052604160045260246000fd5b613cd182613b38565b810181811067ffffffffffffffff82111715613cf057613cef613c99565b5b80604052505050565b6000613d03613a7b565b9050613d0f8282613cc8565b919050565b600067ffffffffffffffff821115613d2f57613d2e613c99565b5b613d3882613b38565b9050602081019050919050565b82818337600083830152505050565b6000613d67613d6284613d14565b613cf9565b905082815260208101848484011115613d8357613d82613c94565b5b613d8e848285613d45565b509392505050565b600082601f830112613dab57613daa613c8f565b5b8135613dbb848260208601613d54565b91505092915050565b600060208284031215613dda57613dd9613a85565b5b600082013567ffffffffffffffff811115613df857613df7613a8a565b5b613e0484828501613d96565b91505092915050565b6000610140820190508181036000830152613e28818d613b49565b90508181036020830152613e3c818c613b49565b90508181036040830152613e50818b613b49565b90508181036060830152613e64818a613b49565b9050613e736080830189613c65565b81810360a0830152613e858188613b49565b905081810360c0830152613e998187613b49565b905081810360e0830152613ead8186613b49565b9050613ebd610100830185613c3b565b613ecb610120830184613c65565b9b9a5050505050505050505050565b600060a0820190508181036000830152613ef48188613b49565b90508181036020830152613f088187613b49565b90508181036040830152613f1c8186613b49565b90508181036060830152613f308185613b49565b9050613f3f6080830184613c65565b9695505050505050565b613f5281613bc4565b82525050565b6000602082019050613f6d6000830184613f49565b92915050565b6000610120820190508181036000830152613f8e818c613b49565b90508181036020830152613fa2818b613b49565b90508181036040830152613fb6818a613b49565b90508181036060830152613fca8189613b49565b9050613fd96080830188613c65565b81810360a0830152613feb8187613b49565b905081810360c0830152613fff8186613b49565b905081810360e08301526140138185613b49565b9050614023610100830184613c65565b9a9950505050505050505050565b600061018082019050614047600083018f613f49565b8181036020830152614059818e613b49565b9050818103604083015261406d818d613b49565b90508181036060830152614081818c613b49565b90508181036080830152614095818b613b49565b90506140a460a083018a613c65565b81810360c08301526140b68189613b49565b905081810360e08301526140ca8188613b49565b90508181036101008301526140df8187613b49565b90508181036101208301526140f48186613b49565b9050614104610140830185613c3b565b614112610160830184613c3b565b9d9c50505050505050505050505050565b600081519050919050565b600082825260208201905092915050565b6000819050602082019050919050565b600082825260208201905092915050565b600061416b82613af2565b614175818561414f565b9350614185818560208601613b0e565b61418e81613b38565b840191505092915050565b60006141a58383614160565b905092915050565b6000602082019050919050565b60006141c582614123565b6141cf818561412e565b9350836020820285016141e18561413f565b8060005b8581101561421d57848403895281516141fe8582614199565b9450614209836141ad565b925060208a019950506001810190506141e5565b50829750879550505050505092915050565b6000602082019050818103600083015261424981846141ba565b905092915050565b600080600080600080600080610100898b03121561427257614271613a85565b5b600089013567ffffffffffffffff8111156142905761428f613a8a565b5b61429c8b828c01613d96565b985050602089013567ffffffffffffffff8111156142bd576142bc613a8a565b5b6142c98b828c01613d96565b975050604089013567ffffffffffffffff8111156142ea576142e9613a8a565b5b6142f68b828c01613d96565b965050606089013567ffffffffffffffff81111561431757614316613a8a565b5b6143238b828c01613d96565b95505060806143348b828c01613ab0565b94505060a089013567ffffffffffffffff81111561435557614354613a8a565b5b6143618b828c01613d96565b93505060c089013567ffffffffffffffff81111561438257614381613a8a565b5b61438e8b828c01613d96565b92505060e089013567ffffffffffffffff8111156143af576143ae613a8a565b5b6143bb8b828c01613d96565b9150509295985092959890939650565b600081519050919050565b600082825260208201905092915050565b6000819050602082019050919050565b61440081613a8f565b82525050565b61440f81613c2f565b82525050565b60006101408301600083015184820360008601526144338282614160565b9150506020830151848203602086015261444d8282614160565b915050604083015184820360408601526144678282614160565b915050606083015184820360608601526144818282614160565b915050608083015161449660808601826143f7565b5060a083015184820360a08601526144ae8282614160565b91505060c083015184820360c08601526144c88282614160565b91505060e083015184820360e08601526144e28282614160565b9150506101008301516144f9610100860182614406565b5061012083015161450e6101208601826143f7565b508091505092915050565b60006145258383614415565b905092915050565b6000602082019050919050565b6000614545826143cb565b61454f81856143d6565b935083602082028501614561856143e7565b8060005b8581101561459d578484038952815161457e8582614519565b94506145898361452d565b925060208a01995050600181019050614565565b50829750879550505050505092915050565b600060208201905081810360008301526145c9818461453a565b905092915050565b7f4e487b7100000000000000000000000000000000000000000000000000000000600052602260045260246000fd5b6000600282049050600182168061461857607f821691505b60208210810361462b5761462a6145d1565b5b50919050565b7f4e487b7100000000000000000000000000000000000000000000000000000000600052603260045260246000fd5b600081905092915050565b60008190508160005260206000209050919050565b6000815461468d81614600565b6146978186614660565b945060018216600081146146b257600181146146c7576146fa565b60ff19831686528115158202860193506146fa565b6146d08561466b565b60005b838110156146f2578154818901526001820191506020810190506146d3565b838801955050505b50505092915050565b600061470f8284614680565b915081905092915050565b7f4e487b7100000000000000000000000000000000000000000000000000000000600052601160045260246000fd5b600061475482613a8f565b91507fffffffffffffffffffffffffffffffffffffffffffffffffffffffffffffffff82036147865761478561471a565b5b600182019050919050565b7f4f6e6c792061646d696e2063616e20706572666f726d2074686973206163746960008201527f6f6e000000000000000000000000000000000000000000000000000000000000602082015250565b60006147ed602283613afd565b91506147f882614791565b604082019050919050565b6000602082019050818103600083015261481c816147e0565b9050919050565b600061482e82613af2565b6148388185614660565b9350614848818560208601613b0e565b80840191505092915050565b60006148608284614823565b915081905092915050565b7f566f74696e672070726f6365737320616c726561647920737461727465640000600082015250565b60006148a1601e83613afd565b91506148ac8261486b565b602082019050919050565b600060208201905081810360008301526148d081614894565b9050919050565b7f4d616b652073757265206576657279206669656c642063616e6e6f742062652060008201527f656d707479000000000000000000000000000000000000000000000000000000602082015250565b6000614933602583613afd565b915061493e826148d7565b604082019050919050565b6000602082019050818103600083015261496281614926565b9050919050565b7f63616e64696461746520697320616c7265616479207265676973746572656421600082015250565b600061499f602083613afd565b91506149aa82614969565b602082019050919050565b600060208201905081810360008301526149ce81614992565b9050919050565b7f496e76616c69642079656172206f662053747564790000000000000000000000600082015250565b6000614a0b601583613afd565b9150614a16826149d5565b602082019050919050565b60006020820190508181036000830152614a3a816149fe565b9050919050565b60006020601f8301049050919050565b600082821b905092915050565b600060088302614a8e7fffffffffffffffffffffffffffffffffffffffffffffffffffffffffffffffff82614a51565b614a988683614a51565b95508019841693508086168417925050509392505050565b6000819050919050565b6000614ad5614ad0614acb84613a8f565b614ab0565b613a8f565b9050919050565b6000819050919050565b614aef83614aba565b614b03614afb82614adc565b848454614a5e565b825550505050565b600090565b614b18614b0b565b614b23818484614ae6565b505050565b5b81811015614b4757614b3c600082614b10565b600181019050614b29565b5050565b601f821115614b8c57614b5d8161466b565b614b6684614a41565b81016020851015614b75578190505b614b89614b8185614a41565b830182614b28565b50505b505050565b600082821c905092915050565b6000614baf60001984600802614b91565b1980831691505092915050565b6000614bc88383614b9e565b9150826002028217905092915050565b614be182613af2565b67ffffffffffffffff811115614bfa57614bf9613c99565b5b614c048254614600565b614c0f828285614b4b565b600060209050601f831160018114614c425760008415614c30578287015190505b614c3a8582614bbc565b865550614ca2565b601f198416614c508661466b565b60005b82811015614c7857848901518255600182019150602085019450602081019050614c53565b86831015614c955784890151614c91601f891682614b9e565b8355505b6001600288020188555050505b505050505050565b600081905092915050565b60008190508160005260206000209050919050565b60008154614cd781614600565b614ce18186614caa565b94506001821660008114614cfc5760018114614d1157614d44565b60ff1983168652811515820286019350614d44565b614d1a85614cb5565b60005b83811015614d3c57815481890152600182019150602081019050614d1d565b838801955050505b50505092915050565b6000614d598284614cca565b915081905092915050565b6000614d6f82613a8f565b9150614d7a83613a8f565b9250828203905081811115614d9257614d9161471a565b5b92915050565b6000614da382613a8f565b9150614dae83613a8f565b9250828201905080821115614dc657614dc561471a565b5b92915050565b600081549050614ddb81614600565b9050919050565b60008190508160005260206000209050919050565b818103614e05575050614edd565b614e0e82614dcc565b67ffffffffffffffff811115614e2757614e26613c99565b5b614e318254614600565b614e3c828285614b4b565b6000601f831160018114614e6b5760008415614e59578287015490505b614e638582614bbc565b865550614ed6565b601f198416614e7987614de2565b9650614e848661466b565b60005b82811015614eac57848901548255600182019150600185019450602081019050614e87565b86831015614ec95784890154614ec5601f891682614b9e565b8355505b6001600288020188555050505b5050505050505b565b7f4e487b7100000000000000000000000000000000000000000000000000000000600052603160045260246000fdfea264697066735822122090982257c63b4490da00cb800ad6b32548313d4b3606d13b661e2f2c6a956c4e64736f6c63430008130033",
  "immutableReferences": {},
  "source": "// SPDX-License-Identifier: MIT\npragma solidity ^0.8.0;\nimport \"./CandidateStructure.sol\";\nimport \"./VoterStructure.sol\";\nimport \"./AccessControl.sol\";\nimport \"./TimeStructure.sol\";\n\ncontract CandidateGovernor is CandidateStructure,VoterStructure, AccessControl, TimeStructure{\n\n    event NewGovernorRegistered(string firstName, string lastName, string collegeName, string programName, uint256 yearOfStudy, string regNo, string blockNumber, string gender);\n\n    function registerGovernor(string memory _firstName, string memory _lastName, string memory _collegeName,string memory _programName, uint256 _yearOfStudy, string memory _regNo, string memory _blockNumber, string memory _gender) public onlyAdmin{\n        require(!isInitiated, \"Voting process already started\");\n        require(keccak256(bytes(_regNo)).length > 0 && keccak256(bytes(_firstName)).length > 0 && keccak256(bytes(_collegeName)).length > 0\n        && keccak256(bytes(_programName)).length > 0 && keccak256(bytes(_blockNumber)).length > 0 \n        && keccak256(bytes(_gender)).length > 0, \"Make sure every field cannot be empty\");\n        require(!isRegistered[_regNo], \"candidate is already registered!\");\n        // if(keccak256(bytes(_collegeName)) == keccak256(bytes(\"CNMS\"))){\n        require(_yearOfStudy > 0 && _yearOfStudy < 5, \"Invalid year of Study\");\n        // require(numberOfGovernor[6] < 2, \"The registered Governor at CNMS college is enough!\");\n        Candidate memory newCandidate = Candidate({firstName: _firstName, lastName: _lastName, collegeName: _collegeName,programName: _programName, yearOfStudy: _yearOfStudy, \n        regNo: _regNo, blockNumber: _blockNumber,gender: _gender, isWinner: false, voteCount: 0\n        });\n        candidateGovernor[_regNo] = newCandidate;\n        // candidateGovernorCnms[_regNo] = newCandidate;\n        governorList.push(_regNo);\n        // numberOfGovernor[6]++;\n        isRegistered[_regNo]= true;\n\n            // emit NewGovernorRegistered(_firstName, _collegeName, _programName, _yearOfStudy, _regNo, _blockNumber, _gender);\n      \n        // else if(keccak256(bytes(_collegeName)) == keccak256(bytes(\"CSBL\"))){\n        //     require(_yearOfStudy > 0 && _yearOfStudy < 4, \"Invalid year of Study\");\n        //     require(numberOfGovernor[4] < 2, \"The registered governor at CSBL college is enough!\");\n        //     Candidate memory newCandidate = Candidate({firstName: _firstName, lastName: _lastName, collegeName: _collegeName,programName: _programName, yearOfStudy: _yearOfStudy, \n        //     regNo: _regNo, blockNumber: _blockNumber,gender: _gender, isWinner: false, voteCount: 0\n        //     });\n        //     candidateGovernor[_regNo] = newCandidate;\n        //     // candidateGovernorCsbl[_regNo] = newCandidate;\n        //     governorList.push(_regNo);\n        //     numberOfGovernor[4]++;\n        // isRegistered[_regNo]= true;\n\n        //     // emit NewGovernorRegistered(_firstName, _collegeName, _programName, _yearOfStudy, _regNo, _blockNumber, _gender);\n        // }\n      \n    }\n\n    \n\n    //return the registration number for the candidates for each position\n\n    function getGovernorRegNumber() public view returns (string[] memory){\n        return governorList;\n    }\n    \n\n    function adminViewGovernors(string memory _regNo) public view returns(string memory firstName,string memory lastName, \n        string memory collegeName, string memory programName, uint256 yearOfStudy, string memory regNo, string memory blockNumber, string memory gender,uint256 voteCount){\n        Candidate memory candidateGov = candidateGovernor[_regNo];\n        firstName = candidateGov.firstName;\n        lastName = candidateGov.lastName;\n        collegeName = candidateGov.collegeName;\n        programName = candidateGov.programName;\n        yearOfStudy = candidateGov.yearOfStudy;\n        regNo = candidateGov.regNo;\n        blockNumber = candidateGov.blockNumber;\n        gender = candidateGov.gender;\n        voteCount = candidateGov.voteCount;\n    }\n\n\n \n    function voterViewGovernors(address addressVoter) public view returns (Candidate[] memory) {\n        Voter memory newVoter = voters[addressVoter];\n        string memory voterCollege = newVoter.collegeName;\n\n        Candidate[] memory result = new Candidate[](governorList.length);\n        string[] memory governorLst = governorList;\n        uint256 count = 0; // Index for adding candidates to the result array\n\n        for (uint256 i = 0; i < governorLst.length; i++) {\n            if (keccak256(bytes(candidateGovernor[governorLst[i]].collegeName)) == keccak256(bytes(voterCollege))) {\n                result[count] = candidateGovernor[governorLst[i]];\n                count++;\n            }\n        }\n        // Resize the result array to remove any empty elements\n        assembly {\n            mstore(result, count)\n        }\n        return result;\n    }\n\n    function deleteGovernor(string memory _presidentRegNo) public onlyAdmin{\n        delete candidateGovernor[_presidentRegNo];\n         for (uint256 i = 0; i < governorList.length; i++) {\n            if (keccak256(bytes(governorList[i])) == keccak256(bytes(_presidentRegNo))) {\n                for (uint256 j = i; j < governorList.length - 1; j++) {\n                    governorList[j] = governorList[j + 1];\n                }\n                governorList.pop();\n                break;\n            }\n        }\n    }\n\n\n    function getWinnerGovernor() public view returns (string memory, string memory, string memory, string memory, uint256){  \n        uint256 winningGovernorVoteCount = 0;\n        uint256 winningGovernorIndex = 0;    \n        for (uint256 i = 0; i < governorList.length; i++) {\n            if (candidateGovernor[governorList[i]].voteCount > winningGovernorVoteCount) {\n                winningGovernorVoteCount = candidateGovernor[governorList[i]].voteCount;\n                winningGovernorIndex = i;\n            }\n        }\n        Candidate memory winner = candidateGovernor[governorList[winningGovernorIndex]];\n        // emit getTheWinner(winner.firstName, winner.regNo, winner.collegeName, winner.programName, winner.voteCount);\n        return (winner.firstName, winner.regNo, winner.collegeName, winner.programName, winner.voteCount);\n    }\n\n}",
  "sourcePath": "/home/temba/Documents/SmartContract/client/contracts/CandidateGovernor.sol",
  "compiler": {
    "name": "solc",
    "version": "0.8.19+commit.7dd6d404.Emscripten.clang"
  },
  "schemaVersion": "3.4.14",
  "updatedAt": "2023-06-20T14:50:19.278Z",
  "networkType": "ethereum",
  "devdoc": {
    "kind": "dev",
    "methods": {},
    "version": 1
  },
  "userdoc": {
    "kind": "user",
    "methods": {},
    "version": 1
  }
}