{
  "contractName": "CandidateBlockLeader",
  "abi": [
    {
      "anonymous": false,
      "inputs": [
        {
          "indexed": false,
          "internalType": "string",
          "name": "firstName",
          "type": "string"
        },
        {
          "indexed": false,
          "internalType": "string",
          "name": "lastName",
          "type": "string"
        },
        {
          "indexed": false,
          "internalType": "string",
          "name": "collegeName",
          "type": "string"
        },
        {
          "indexed": false,
          "internalType": "string",
          "name": "programName",
          "type": "string"
        },
        {
          "indexed": false,
          "internalType": "uint256",
          "name": "yearOfStudy",
          "type": "uint256"
        },
        {
          "indexed": false,
          "internalType": "string",
          "name": "regNo",
          "type": "string"
        },
        {
          "indexed": false,
          "internalType": "string",
          "name": "blockNumber",
          "type": "string"
        },
        {
          "indexed": false,
          "internalType": "string",
          "name": "gender",
          "type": "string"
        }
      ],
      "name": "NewBlockLeaderRegistered",
      "type": "event"
    },
    {
      "inputs": [],
      "name": "admin",
      "outputs": [
        {
          "internalType": "address",
          "name": "",
          "type": "address"
        }
      ],
      "stateMutability": "view",
      "type": "function",
      "constant": true
    },
    {
      "inputs": [
        {
          "internalType": "uint256",
          "name": "",
          "type": "uint256"
        }
      ],
      "name": "blockLeaderList",
      "outputs": [
        {
          "internalType": "string",
          "name": "",
          "type": "string"
        }
      ],
      "stateMutability": "view",
      "type": "function",
      "constant": true
    },
    {
      "inputs": [
        {
          "internalType": "address",
          "name": "",
          "type": "address"
        }
      ],
      "name": "blockLeaderVoted",
      "outputs": [
        {
          "internalType": "bool",
          "name": "",
          "type": "bool"
        }
      ],
      "stateMutability": "view",
      "type": "function",
      "constant": true
    },
    {
      "inputs": [
        {
          "internalType": "string",
          "name": "",
          "type": "string"
        }
      ],
      "name": "candidateBlockLeader",
      "outputs": [
        {
          "internalType": "string",
          "name": "firstName",
          "type": "string"
        },
        {
          "internalType": "string",
          "name": "lastName",
          "type": "string"
        },
        {
          "internalType": "string",
          "name": "collegeName",
          "type": "string"
        },
        {
          "internalType": "string",
          "name": "programName",
          "type": "string"
        },
        {
          "internalType": "uint256",
          "name": "yearOfStudy",
          "type": "uint256"
        },
        {
          "internalType": "string",
          "name": "regNo",
          "type": "string"
        },
        {
          "internalType": "string",
          "name": "blockNumber",
          "type": "string"
        },
        {
          "internalType": "string",
          "name": "gender",
          "type": "string"
        },
        {
          "internalType": "bool",
          "name": "isWinner",
          "type": "bool"
        },
        {
          "internalType": "uint256",
          "name": "voteCount",
          "type": "uint256"
        }
      ],
      "stateMutability": "view",
      "type": "function",
      "constant": true
    },
    {
      "inputs": [
        {
          "internalType": "string",
          "name": "",
          "type": "string"
        }
      ],
      "name": "candidateGovernor",
      "outputs": [
        {
          "internalType": "string",
          "name": "firstName",
          "type": "string"
        },
        {
          "internalType": "string",
          "name": "lastName",
          "type": "string"
        },
        {
          "internalType": "string",
          "name": "collegeName",
          "type": "string"
        },
        {
          "internalType": "string",
          "name": "programName",
          "type": "string"
        },
        {
          "internalType": "uint256",
          "name": "yearOfStudy",
          "type": "uint256"
        },
        {
          "internalType": "string",
          "name": "regNo",
          "type": "string"
        },
        {
          "internalType": "string",
          "name": "blockNumber",
          "type": "string"
        },
        {
          "internalType": "string",
          "name": "gender",
          "type": "string"
        },
        {
          "internalType": "bool",
          "name": "isWinner",
          "type": "bool"
        },
        {
          "internalType": "uint256",
          "name": "voteCount",
          "type": "uint256"
        }
      ],
      "stateMutability": "view",
      "type": "function",
      "constant": true
    },
    {
      "inputs": [
        {
          "internalType": "string",
          "name": "",
          "type": "string"
        }
      ],
      "name": "candidatePresident",
      "outputs": [
        {
          "internalType": "string",
          "name": "firstName",
          "type": "string"
        },
        {
          "internalType": "string",
          "name": "lastName",
          "type": "string"
        },
        {
          "internalType": "string",
          "name": "collegeName",
          "type": "string"
        },
        {
          "internalType": "string",
          "name": "programName",
          "type": "string"
        },
        {
          "internalType": "uint256",
          "name": "yearOfStudy",
          "type": "uint256"
        },
        {
          "internalType": "string",
          "name": "regNo",
          "type": "string"
        },
        {
          "internalType": "string",
          "name": "blockNumber",
          "type": "string"
        },
        {
          "internalType": "string",
          "name": "gender",
          "type": "string"
        },
        {
          "internalType": "bool",
          "name": "isWinner",
          "type": "bool"
        },
        {
          "internalType": "uint256",
          "name": "voteCount",
          "type": "uint256"
        }
      ],
      "stateMutability": "view",
      "type": "function",
      "constant": true
    },
    {
      "inputs": [
        {
          "internalType": "uint256",
          "name": "",
          "type": "uint256"
        }
      ],
      "name": "governorList",
      "outputs": [
        {
          "internalType": "string",
          "name": "",
          "type": "string"
        }
      ],
      "stateMutability": "view",
      "type": "function",
      "constant": true
    },
    {
      "inputs": [
        {
          "internalType": "address",
          "name": "",
          "type": "address"
        }
      ],
      "name": "governorVoted",
      "outputs": [
        {
          "internalType": "bool",
          "name": "",
          "type": "bool"
        }
      ],
      "stateMutability": "view",
      "type": "function",
      "constant": true
    },
    {
      "inputs": [
        {
          "internalType": "address",
          "name": "",
          "type": "address"
        }
      ],
      "name": "hasLogedin",
      "outputs": [
        {
          "internalType": "bool",
          "name": "",
          "type": "bool"
        }
      ],
      "stateMutability": "view",
      "type": "function",
      "constant": true
    },
    {
      "inputs": [],
      "name": "isInitiated",
      "outputs": [
        {
          "internalType": "bool",
          "name": "",
          "type": "bool"
        }
      ],
      "stateMutability": "view",
      "type": "function",
      "constant": true
    },
    {
      "inputs": [
        {
          "internalType": "string",
          "name": "",
          "type": "string"
        }
      ],
      "name": "isRegistered",
      "outputs": [
        {
          "internalType": "bool",
          "name": "",
          "type": "bool"
        }
      ],
      "stateMutability": "view",
      "type": "function",
      "constant": true
    },
    {
      "inputs": [],
      "name": "numberOfBlockLeader",
      "outputs": [
        {
          "internalType": "uint256",
          "name": "",
          "type": "uint256"
        }
      ],
      "stateMutability": "view",
      "type": "function",
      "constant": true
    },
    {
      "inputs": [
        {
          "internalType": "uint256",
          "name": "",
          "type": "uint256"
        }
      ],
      "name": "numberOfGovernor",
      "outputs": [
        {
          "internalType": "uint256",
          "name": "",
          "type": "uint256"
        }
      ],
      "stateMutability": "view",
      "type": "function",
      "constant": true
    },
    {
      "inputs": [],
      "name": "numberOfPresident",
      "outputs": [
        {
          "internalType": "uint256",
          "name": "",
          "type": "uint256"
        }
      ],
      "stateMutability": "view",
      "type": "function",
      "constant": true
    },
    {
      "inputs": [
        {
          "internalType": "uint256",
          "name": "",
          "type": "uint256"
        }
      ],
      "name": "presidentList",
      "outputs": [
        {
          "internalType": "string",
          "name": "",
          "type": "string"
        }
      ],
      "stateMutability": "view",
      "type": "function",
      "constant": true
    },
    {
      "inputs": [
        {
          "internalType": "address",
          "name": "",
          "type": "address"
        }
      ],
      "name": "presidentVoted",
      "outputs": [
        {
          "internalType": "bool",
          "name": "",
          "type": "bool"
        }
      ],
      "stateMutability": "view",
      "type": "function",
      "constant": true
    },
    {
      "inputs": [],
      "name": "totalVotes",
      "outputs": [
        {
          "internalType": "uint256",
          "name": "",
          "type": "uint256"
        }
      ],
      "stateMutability": "view",
      "type": "function",
      "constant": true
    },
    {
      "inputs": [
        {
          "internalType": "address",
          "name": "newAdmin",
          "type": "address"
        }
      ],
      "name": "transferAdmin",
      "outputs": [],
      "stateMutability": "nonpayable",
      "type": "function"
    },
    {
      "inputs": [
        {
          "internalType": "uint256",
          "name": "",
          "type": "uint256"
        }
      ],
      "name": "voterAddressArray",
      "outputs": [
        {
          "internalType": "address",
          "name": "",
          "type": "address"
        }
      ],
      "stateMutability": "view",
      "type": "function",
      "constant": true
    },
    {
      "inputs": [
        {
          "internalType": "address",
          "name": "",
          "type": "address"
        }
      ],
      "name": "voterSession",
      "outputs": [
        {
          "internalType": "string",
          "name": "",
          "type": "string"
        }
      ],
      "stateMutability": "view",
      "type": "function",
      "constant": true
    },
    {
      "inputs": [
        {
          "internalType": "address",
          "name": "",
          "type": "address"
        }
      ],
      "name": "voters",
      "outputs": [
        {
          "internalType": "address",
          "name": "voterAddress",
          "type": "address"
        },
        {
          "internalType": "string",
          "name": "firstName",
          "type": "string"
        },
        {
          "internalType": "string",
          "name": "lastName",
          "type": "string"
        },
        {
          "internalType": "string",
          "name": "collegeName",
          "type": "string"
        },
        {
          "internalType": "string",
          "name": "programName",
          "type": "string"
        },
        {
          "internalType": "uint256",
          "name": "yearOfStudy",
          "type": "uint256"
        },
        {
          "internalType": "string",
          "name": "regNo",
          "type": "string"
        },
        {
          "internalType": "string",
          "name": "blockNumber",
          "type": "string"
        },
        {
          "internalType": "string",
          "name": "password",
          "type": "string"
        },
        {
          "internalType": "string",
          "name": "gender",
          "type": "string"
        },
        {
          "internalType": "bool",
          "name": "isRegistered",
          "type": "bool"
        },
        {
          "internalType": "bool",
          "name": "voted",
          "type": "bool"
        }
      ],
      "stateMutability": "view",
      "type": "function",
      "constant": true
    },
    {
      "inputs": [
        {
          "internalType": "string",
          "name": "_firstName",
          "type": "string"
        },
        {
          "internalType": "string",
          "name": "_lastName",
          "type": "string"
        },
        {
          "internalType": "string",
          "name": "_collegeName",
          "type": "string"
        },
        {
          "internalType": "string",
          "name": "_programName",
          "type": "string"
        },
        {
          "internalType": "uint256",
          "name": "_yearOfStudy",
          "type": "uint256"
        },
        {
          "internalType": "string",
          "name": "_regNo",
          "type": "string"
        },
        {
          "internalType": "string",
          "name": "_blockNumber",
          "type": "string"
        },
        {
          "internalType": "string",
          "name": "_gender",
          "type": "string"
        }
      ],
      "name": "registerBlockLeader",
      "outputs": [],
      "stateMutability": "nonpayable",
      "type": "function"
    },
    {
      "inputs": [],
      "name": "getBlockLeaderRegNumber",
      "outputs": [
        {
          "internalType": "string[]",
          "name": "",
          "type": "string[]"
        }
      ],
      "stateMutability": "view",
      "type": "function",
      "constant": true
    },
    {
      "inputs": [
        {
          "internalType": "string",
          "name": "_regNo",
          "type": "string"
        }
      ],
      "name": "adminViewBlockLeaders",
      "outputs": [
        {
          "internalType": "string",
          "name": "firstName",
          "type": "string"
        },
        {
          "internalType": "string",
          "name": "lastName",
          "type": "string"
        },
        {
          "internalType": "string",
          "name": "collegeName",
          "type": "string"
        },
        {
          "internalType": "string",
          "name": "programName",
          "type": "string"
        },
        {
          "internalType": "uint256",
          "name": "yearOfStudy",
          "type": "uint256"
        },
        {
          "internalType": "string",
          "name": "regNo",
          "type": "string"
        },
        {
          "internalType": "string",
          "name": "blockNumber",
          "type": "string"
        },
        {
          "internalType": "string",
          "name": "gender",
          "type": "string"
        },
        {
          "internalType": "uint256",
          "name": "voteCount",
          "type": "uint256"
        }
      ],
      "stateMutability": "view",
      "type": "function",
      "constant": true
    },
    {
      "inputs": [
        {
          "internalType": "string",
          "name": "_collegeName",
          "type": "string"
        },
        {
          "internalType": "string",
          "name": "_blockNumber",
          "type": "string"
        }
      ],
      "name": "viewBlockLeader",
      "outputs": [
        {
          "components": [
            {
              "internalType": "string",
              "name": "firstName",
              "type": "string"
            },
            {
              "internalType": "string",
              "name": "lastName",
              "type": "string"
            },
            {
              "internalType": "string",
              "name": "collegeName",
              "type": "string"
            },
            {
              "internalType": "string",
              "name": "programName",
              "type": "string"
            },
            {
              "internalType": "uint256",
              "name": "yearOfStudy",
              "type": "uint256"
            },
            {
              "internalType": "string",
              "name": "regNo",
              "type": "string"
            },
            {
              "internalType": "string",
              "name": "blockNumber",
              "type": "string"
            },
            {
              "internalType": "string",
              "name": "gender",
              "type": "string"
            },
            {
              "internalType": "bool",
              "name": "isWinner",
              "type": "bool"
            },
            {
              "internalType": "uint256",
              "name": "voteCount",
              "type": "uint256"
            }
          ],
          "internalType": "struct CandidateStructure.Candidate[]",
          "name": "",
          "type": "tuple[]"
        }
      ],
      "stateMutability": "view",
      "type": "function",
      "constant": true
    },
    {
      "inputs": [
        {
          "internalType": "address",
          "name": "addressVoter",
          "type": "address"
        }
      ],
      "name": "voterViewBlockLeaders",
      "outputs": [
        {
          "components": [
            {
              "internalType": "string",
              "name": "firstName",
              "type": "string"
            },
            {
              "internalType": "string",
              "name": "lastName",
              "type": "string"
            },
            {
              "internalType": "string",
              "name": "collegeName",
              "type": "string"
            },
            {
              "internalType": "string",
              "name": "programName",
              "type": "string"
            },
            {
              "internalType": "uint256",
              "name": "yearOfStudy",
              "type": "uint256"
            },
            {
              "internalType": "string",
              "name": "regNo",
              "type": "string"
            },
            {
              "internalType": "string",
              "name": "blockNumber",
              "type": "string"
            },
            {
              "internalType": "string",
              "name": "gender",
              "type": "string"
            },
            {
              "internalType": "bool",
              "name": "isWinner",
              "type": "bool"
            },
            {
              "internalType": "uint256",
              "name": "voteCount",
              "type": "uint256"
            }
          ],
          "internalType": "struct CandidateStructure.Candidate[]",
          "name": "",
          "type": "tuple[]"
        }
      ],
      "stateMutability": "view",
      "type": "function",
      "constant": true
    },
    {
      "inputs": [
        {
          "internalType": "string",
          "name": "_presidentRegNo",
          "type": "string"
        }
      ],
      "name": "deleteBlockLeader",
      "outputs": [],
      "stateMutability": "nonpayable",
      "type": "function"
    },
    {
      "inputs": [
        {
          "internalType": "string",
          "name": "_blockLeaderRegNo",
          "type": "string"
        }
      ],
      "name": "castVoteBlockLeader",
      "outputs": [],
      "stateMutability": "nonpayable",
      "type": "function"
    },
    {
      "inputs": [],
      "name": "getWinnerBlockLeader",
      "outputs": [
        {
          "internalType": "string",
          "name": "firstName",
          "type": "string"
        },
        {
          "internalType": "string",
          "name": "regNo",
          "type": "string"
        },
        {
          "internalType": "string",
          "name": "collegeName",
          "type": "string"
        },
        {
          "internalType": "string",
          "name": "programName",
          "type": "string"
        },
        {
          "internalType": "uint256",
          "name": "voteCount",
          "type": "uint256"
        }
      ],
      "stateMutability": "view",
      "type": "function",
      "constant": true
    }
  ],
  "bytecode": "0x608060405234801561001057600080fd5b5033601860006101000a81548173ffffffffffffffffffffffffffffffffffffffff021916908373ffffffffffffffffffffffffffffffffffffffff160217905550615efc80620000626000396000f3fe608060405234801561001057600080fd5b50600436106101cf5760003560e01c806375829def11610104578063dccea189116100a2578063f644502611610071578063f644502614610615578063f6ffc1171461064e578063f851a4401461066c578063f9c120091461068a576101cf565b8063dccea1891461057b578063e316db4e14610599578063e6b52a33146105c9578063f19c8802146105f9576101cf565b8063a3ec138d116100de578063a3ec138d146104b0578063ab14ce15146104eb578063bf08128f1461051b578063c822d7f01461054b576101cf565b806375829def1461042c5780637f8bbbc514610448578063a0b0df9514610480576101cf565b80631cb59914116101715780635aca02cf1161014b5780635aca02cf146103805780635b6e990c1461039c5780635f8b9972146103cc57806371b7ddb8146103fc576101cf565b80631cb59914146103165780632c18a8841461033457806345a8a2be14610350576101cf565b80630d15fd77116101ad5780630d15fd7714610264578063166b47221461028257806319fbf89f146102bb5780631ac45f52146102dd576101cf565b806302aac7b2146101d4578063052fbf8c1461020457806305420c7514610234575b600080fd5b6101ee60048036038101906101e9919061482f565b6106a8565b6040516101fb91906148ec565b60405180910390f35b61021e6004803603810190610219919061496c565b610754565b60405161022b91906149b4565b60405180910390f35b61024e60048036038101906102499190614b04565b610774565b60405161025b9190614daa565b60405180910390f35b61026c610de3565b6040516102799190614ddb565b60405180910390f35b61029c60048036038101906102979190614df6565b610de9565b6040516102b29a99989796959493929190614e3f565b60405180910390f35b6102c3611218565b6040516102d4959493929190614f0c565b60405180910390f35b6102f760048036038101906102f29190614df6565b61177b565b60405161030d9a99989796959493929190614e3f565b60405180910390f35b61031e611baa565b60405161032b91906149b4565b60405180910390f35b61034e60048036038101906103499190614df6565b611bbd565b005b61036a6004803603810190610365919061482f565b611e26565b60405161037791906148ec565b60405180910390f35b61039a60048036038101906103959190614df6565b611ed2565b005b6103b660048036038101906103b1919061496c565b61253e565b6040516103c391906148ec565b60405180910390f35b6103e660048036038101906103e1919061496c565b6125de565b6040516103f391906149b4565b60405180910390f35b6104166004803603810190610411919061482f565b6125fe565b6040516104239190614f8a565b60405180910390f35b6104466004803603810190610441919061496c565b61263d565b005b610462600480360381019061045d9190614df6565b612711565b60405161047799989796959493929190614fa5565b60405180910390f35b61049a6004803603810190610495919061496c565b612bc8565b6040516104a791906149b4565b60405180910390f35b6104ca60048036038101906104c5919061496c565b612be8565b6040516104e29c9b9a99989796959493929190615063565b60405180910390f35b6105056004803603810190610500919061496c565b6130c2565b6040516105129190614daa565b60405180910390f35b6105356004803603810190610530919061496c565b613d0d565b60405161054291906149b4565b60405180910390f35b61056560048036038101906105609190614df6565b613d2d565b60405161057291906149b4565b60405180910390f35b610583613d63565b6040516105909190614ddb565b60405180910390f35b6105b360048036038101906105ae919061482f565b613d69565b6040516105c091906148ec565b60405180910390f35b6105e360048036038101906105de919061482f565b613e15565b6040516105f09190614ddb565b60405180910390f35b610613600480360381019061060e9190615155565b613e30565b005b61062f600480360381019061062a9190614df6565b6141ff565b6040516106459a99989796959493929190614e3f565b60405180910390f35b61065661462e565b6040516106639190614ddb565b60405180910390f35b610674614634565b6040516106819190614f8a565b60405180910390f35b61069261465a565b60405161069f9190615391565b60405180910390f35b600981815481106106b857600080fd5b9060005260206000200160009150905080546106d3906153e2565b80601f01602080910402602001604051908101604052809291908181526020018280546106ff906153e2565b801561074c5780601f106107215761010080835404028352916020019161074c565b820191906000526020600020905b81548152906001019060200180831161072f57829003601f168201915b505050505081565b60076020528060005260406000206000915054906101000a900460ff1681565b60606019544210156107bb576040517f08c379a00000000000000000000000000000000000000000000000000000000081526004016107b29061545f565b60405180910390fd5b601a54421115610800576040517f08c379a00000000000000000000000000000000000000000000000000000000081526004016107f7906154cb565b60405180910390fd5b6000600a8054905067ffffffffffffffff811115610821576108206149d9565b5b60405190808252806020026020018201604052801561085a57816020015b610847614733565b81526020019060019003908161083f5790505b50905060005b600a80549050811015610dd85784805190602001206004600a838154811061088b5761088a6154eb565b5b906000526020600020016040516108a291906155bd565b90815260200160405180910390206002016040516108c09190615677565b604051809103902014801561092d575083805190602001206004600a83815481106108ee576108ed6154eb565b5b9060005260206000200160405161090591906155bd565b90815260200160405180910390206006016040516109239190615677565b6040518091039020145b15610dc5576003600a8281548110610948576109476154eb565b5b9060005260206000200160405161095f91906155bd565b908152602001604051809103902060405180610140016040529081600082018054610989906153e2565b80601f01602080910402602001604051908101604052809291908181526020018280546109b5906153e2565b8015610a025780601f106109d757610100808354040283529160200191610a02565b820191906000526020600020905b8154815290600101906020018083116109e557829003601f168201915b50505050508152602001600182018054610a1b906153e2565b80601f0160208091040260200160405190810160405280929190818152602001828054610a47906153e2565b8015610a945780601f10610a6957610100808354040283529160200191610a94565b820191906000526020600020905b815481529060010190602001808311610a7757829003601f168201915b50505050508152602001600282018054610aad906153e2565b80601f0160208091040260200160405190810160405280929190818152602001828054610ad9906153e2565b8015610b265780601f10610afb57610100808354040283529160200191610b26565b820191906000526020600020905b815481529060010190602001808311610b0957829003601f168201915b50505050508152602001600382018054610b3f906153e2565b80601f0160208091040260200160405190810160405280929190818152602001828054610b6b906153e2565b8015610bb85780601f10610b8d57610100808354040283529160200191610bb8565b820191906000526020600020905b815481529060010190602001808311610b9b57829003601f168201915b5050505050815260200160048201548152602001600582018054610bdb906153e2565b80601f0160208091040260200160405190810160405280929190818152602001828054610c07906153e2565b8015610c545780601f10610c2957610100808354040283529160200191610c54565b820191906000526020600020905b815481529060010190602001808311610c3757829003601f168201915b50505050508152602001600682018054610c6d906153e2565b80601f0160208091040260200160405190810160405280929190818152602001828054610c99906153e2565b8015610ce65780601f10610cbb57610100808354040283529160200191610ce6565b820191906000526020600020905b815481529060010190602001808311610cc957829003601f168201915b50505050508152602001600782018054610cff906153e2565b80601f0160208091040260200160405190810160405280929190818152602001828054610d2b906153e2565b8015610d785780601f10610d4d57610100808354040283529160200191610d78565b820191906000526020600020905b815481529060010190602001808311610d5b57829003601f168201915b505050505081526020016008820160009054906101000a900460ff16151515158152602001600982015481525050828281518110610db957610db86154eb565b5b60200260200101819052505b8080610dd0906156bd565b915050610860565b508091505092915050565b60005481565b600281805160208101820180518482526020830160208501208183528095505050505050600091509050806000018054610e22906153e2565b80601f0160208091040260200160405190810160405280929190818152602001828054610e4e906153e2565b8015610e9b5780601f10610e7057610100808354040283529160200191610e9b565b820191906000526020600020905b815481529060010190602001808311610e7e57829003601f168201915b505050505090806001018054610eb0906153e2565b80601f0160208091040260200160405190810160405280929190818152602001828054610edc906153e2565b8015610f295780601f10610efe57610100808354040283529160200191610f29565b820191906000526020600020905b815481529060010190602001808311610f0c57829003601f168201915b505050505090806002018054610f3e906153e2565b80601f0160208091040260200160405190810160405280929190818152602001828054610f6a906153e2565b8015610fb75780601f10610f8c57610100808354040283529160200191610fb7565b820191906000526020600020905b815481529060010190602001808311610f9a57829003601f168201915b505050505090806003018054610fcc906153e2565b80601f0160208091040260200160405190810160405280929190818152602001828054610ff8906153e2565b80156110455780601f1061101a57610100808354040283529160200191611045565b820191906000526020600020905b81548152906001019060200180831161102857829003601f168201915b505050505090806004015490806005018054611060906153e2565b80601f016020809104026020016040519081016040528092919081815260200182805461108c906153e2565b80156110d95780601f106110ae576101008083540402835291602001916110d9565b820191906000526020600020905b8154815290600101906020018083116110bc57829003601f168201915b5050505050908060060180546110ee906153e2565b80601f016020809104026020016040519081016040528092919081815260200182805461111a906153e2565b80156111675780601f1061113c57610100808354040283529160200191611167565b820191906000526020600020905b81548152906001019060200180831161114a57829003601f168201915b50505050509080600701805461117c906153e2565b80601f01602080910402602001604051908101604052809291908181526020018280546111a8906153e2565b80156111f55780601f106111ca576101008083540402835291602001916111f5565b820191906000526020600020905b8154815290600101906020018083116111d857829003601f168201915b5050505050908060080160009054906101000a900460ff1690806009015490508a565b606080606080600080600090506000805b600a805490508110156112d457826003600a838154811061124d5761124c6154eb565b5b9060005260206000200160405161126491906155bd565b90815260200160405180910390206009015411156112c1576003600a8281548110611292576112916154eb565b5b906000526020600020016040516112a991906155bd565b90815260200160405180910390206009015492508091505b80806112cc906156bd565b915050611229565b5060006003600a83815481106112ed576112ec6154eb565b5b9060005260206000200160405161130491906155bd565b90815260200160405180910390206040518061014001604052908160008201805461132e906153e2565b80601f016020809104026020016040519081016040528092919081815260200182805461135a906153e2565b80156113a75780601f1061137c576101008083540402835291602001916113a7565b820191906000526020600020905b81548152906001019060200180831161138a57829003601f168201915b505050505081526020016001820180546113c0906153e2565b80601f01602080910402602001604051908101604052809291908181526020018280546113ec906153e2565b80156114395780601f1061140e57610100808354040283529160200191611439565b820191906000526020600020905b81548152906001019060200180831161141c57829003601f168201915b50505050508152602001600282018054611452906153e2565b80601f016020809104026020016040519081016040528092919081815260200182805461147e906153e2565b80156114cb5780601f106114a0576101008083540402835291602001916114cb565b820191906000526020600020905b8154815290600101906020018083116114ae57829003601f168201915b505050505081526020016003820180546114e4906153e2565b80601f0160208091040260200160405190810160405280929190818152602001828054611510906153e2565b801561155d5780601f106115325761010080835404028352916020019161155d565b820191906000526020600020905b81548152906001019060200180831161154057829003601f168201915b5050505050815260200160048201548152602001600582018054611580906153e2565b80601f01602080910402602001604051908101604052809291908181526020018280546115ac906153e2565b80156115f95780601f106115ce576101008083540402835291602001916115f9565b820191906000526020600020905b8154815290600101906020018083116115dc57829003601f168201915b50505050508152602001600682018054611612906153e2565b80601f016020809104026020016040519081016040528092919081815260200182805461163e906153e2565b801561168b5780601f106116605761010080835404028352916020019161168b565b820191906000526020600020905b81548152906001019060200180831161166e57829003601f168201915b505050505081526020016007820180546116a4906153e2565b80601f01602080910402602001604051908101604052809291908181526020018280546116d0906153e2565b801561171d5780601f106116f25761010080835404028352916020019161171d565b820191906000526020600020905b81548152906001019060200180831161170057829003601f168201915b505050505081526020016008820160009054906101000a900460ff161515151581526020016009820154815250509050806000015197508060a001519650806040015195508060600151945080610120015193505050509091929394565b6004818051602081018201805184825260208301602085012081835280955050505050506000915090508060000180546117b4906153e2565b80601f01602080910402602001604051908101604052809291908181526020018280546117e0906153e2565b801561182d5780601f106118025761010080835404028352916020019161182d565b820191906000526020600020905b81548152906001019060200180831161181057829003601f168201915b505050505090806001018054611842906153e2565b80601f016020809104026020016040519081016040528092919081815260200182805461186e906153e2565b80156118bb5780601f10611890576101008083540402835291602001916118bb565b820191906000526020600020905b81548152906001019060200180831161189e57829003601f168201915b5050505050908060020180546118d0906153e2565b80601f01602080910402602001604051908101604052809291908181526020018280546118fc906153e2565b80156119495780601f1061191e57610100808354040283529160200191611949565b820191906000526020600020905b81548152906001019060200180831161192c57829003601f168201915b50505050509080600301805461195e906153e2565b80601f016020809104026020016040519081016040528092919081815260200182805461198a906153e2565b80156119d75780601f106119ac576101008083540402835291602001916119d7565b820191906000526020600020905b8154815290600101906020018083116119ba57829003601f168201915b5050505050908060040154908060050180546119f2906153e2565b80601f0160208091040260200160405190810160405280929190818152602001828054611a1e906153e2565b8015611a6b5780601f10611a4057610100808354040283529160200191611a6b565b820191906000526020600020905b815481529060010190602001808311611a4e57829003601f168201915b505050505090806006018054611a80906153e2565b80601f0160208091040260200160405190810160405280929190818152602001828054611aac906153e2565b8015611af95780601f10611ace57610100808354040283529160200191611af9565b820191906000526020600020905b815481529060010190602001808311611adc57829003601f168201915b505050505090806007018054611b0e906153e2565b80601f0160208091040260200160405190810160405280929190818152602001828054611b3a906153e2565b8015611b875780601f10611b5c57610100808354040283529160200191611b87565b820191906000526020600020905b815481529060010190602001808311611b6a57829003601f168201915b5050505050908060080160009054906101000a900460ff1690806009015490508a565b601c60009054906101000a900460ff1681565b601860009054906101000a900473ffffffffffffffffffffffffffffffffffffffff1673ffffffffffffffffffffffffffffffffffffffff163373ffffffffffffffffffffffffffffffffffffffff1614611c4d576040517f08c379a0000000000000000000000000000000000000000000000000000000008152600401611c4490615777565b60405180910390fd5b600481604051611c5d91906157c8565b908152602001604051809103902060008082016000611c7c9190614788565b600182016000611c8c9190614788565b600282016000611c9c9190614788565b600382016000611cac9190614788565b6004820160009055600582016000611cc49190614788565b600682016000611cd49190614788565b600782016000611ce49190614788565b6008820160006101000a81549060ff02191690556009820160009055505060005b600980549050811015611e2257818051906020012060098281548110611d2e57611d2d6154eb565b5b90600052602060002001604051611d459190615677565b604051809103902003611e0f5760008190505b6001600980549050611d6a91906157df565b811015611dd9576009600182611d809190615813565b81548110611d9157611d906154eb565b5b9060005260206000200160098281548110611daf57611dae6154eb565b5b906000526020600020019081611dc59190615a09565b508080611dd1906156bd565b915050611d58565b506009805480611dec57611deb615af1565b5b600190038181906000526020600020016000611e089190614788565b9055611e22565b8080611e1a906156bd565b915050611d05565b5050565b600a8181548110611e3657600080fd5b906000526020600020016000915090508054611e51906153e2565b80601f0160208091040260200160405190810160405280929190818152602001828054611e7d906153e2565b8015611eca5780601f10611e9f57610100808354040283529160200191611eca565b820191906000526020600020905b815481529060010190602001808311611ead57829003601f168201915b505050505081565b601460003373ffffffffffffffffffffffffffffffffffffffff1673ffffffffffffffffffffffffffffffffffffffff168152602001908152602001600020600a0160009054906101000a900460ff16611f61576040517f08c379a0000000000000000000000000000000000000000000000000000000008152600401611f5890615b6c565b60405180910390fd5b600181604051611f7191906157c8565b908152602001604051809103902060009054906101000a900460ff16611fcc576040517f08c379a0000000000000000000000000000000000000000000000000000000008152600401611fc390615bd8565b60405180910390fd5b600760003373ffffffffffffffffffffffffffffffffffffffff1673ffffffffffffffffffffffffffffffffffffffff16815260200190815260200160002060009054906101000a900460ff1615612059576040517f08c379a000000000000000000000000000000000000000000000000000000000815260040161205090615c6a565b60405180910390fd5b6001600760003373ffffffffffffffffffffffffffffffffffffffff1673ffffffffffffffffffffffffffffffffffffffff16815260200190815260200160002060006101000a81548160ff02191690831515021790555060006004826040516120c391906157c8565b9081526020016040518091039020604051806101400160405290816000820180546120ed906153e2565b80601f0160208091040260200160405190810160405280929190818152602001828054612119906153e2565b80156121665780601f1061213b57610100808354040283529160200191612166565b820191906000526020600020905b81548152906001019060200180831161214957829003601f168201915b5050505050815260200160018201805461217f906153e2565b80601f01602080910402602001604051908101604052809291908181526020018280546121ab906153e2565b80156121f85780601f106121cd576101008083540402835291602001916121f8565b820191906000526020600020905b8154815290600101906020018083116121db57829003601f168201915b50505050508152602001600282018054612211906153e2565b80601f016020809104026020016040519081016040528092919081815260200182805461223d906153e2565b801561228a5780601f1061225f5761010080835404028352916020019161228a565b820191906000526020600020905b81548152906001019060200180831161226d57829003601f168201915b505050505081526020016003820180546122a3906153e2565b80601f01602080910402602001604051908101604052809291908181526020018280546122cf906153e2565b801561231c5780601f106122f15761010080835404028352916020019161231c565b820191906000526020600020905b8154815290600101906020018083116122ff57829003601f168201915b505050505081526020016004820154815260200160058201805461233f906153e2565b80601f016020809104026020016040519081016040528092919081815260200182805461236b906153e2565b80156123b85780601f1061238d576101008083540402835291602001916123b8565b820191906000526020600020905b81548152906001019060200180831161239b57829003601f168201915b505050505081526020016006820180546123d1906153e2565b80601f01602080910402602001604051908101604052809291908181526020018280546123fd906153e2565b801561244a5780601f1061241f5761010080835404028352916020019161244a565b820191906000526020600020905b81548152906001019060200180831161242d57829003601f168201915b50505050508152602001600782018054612463906153e2565b80601f016020809104026020016040519081016040528092919081815260200182805461248f906153e2565b80156124dc5780601f106124b1576101008083540402835291602001916124dc565b820191906000526020600020905b8154815290600101906020018083116124bf57829003601f168201915b505050505081526020016008820160009054906101000a900460ff1615151515815260200160098201548152505090508061012001805180919061251f906156bd565b81525050600080815480929190612535906156bd565b91905055505050565b6016602052806000526040600020600091509050805461255d906153e2565b80601f0160208091040260200160405190810160405280929190818152602001828054612589906153e2565b80156125d65780601f106125ab576101008083540402835291602001916125d6565b820191906000526020600020905b8154815290600101906020018083116125b957829003601f168201915b505050505081565b60056020528060005260406000206000915054906101000a900460ff1681565b6017818154811061260e57600080fd5b906000526020600020016000915054906101000a900473ffffffffffffffffffffffffffffffffffffffff1681565b601860009054906101000a900473ffffffffffffffffffffffffffffffffffffffff1673ffffffffffffffffffffffffffffffffffffffff163373ffffffffffffffffffffffffffffffffffffffff16146126cd576040517f08c379a00000000000000000000000000000000000000000000000000000000081526004016126c490615777565b60405180910390fd5b80601860006101000a81548173ffffffffffffffffffffffffffffffffffffffff021916908373ffffffffffffffffffffffffffffffffffffffff16021790555050565b6060806060806000606080606060008060048b60405161273191906157c8565b90815260200160405180910390206040518061014001604052908160008201805461275b906153e2565b80601f0160208091040260200160405190810160405280929190818152602001828054612787906153e2565b80156127d45780601f106127a9576101008083540402835291602001916127d4565b820191906000526020600020905b8154815290600101906020018083116127b757829003601f168201915b505050505081526020016001820180546127ed906153e2565b80601f0160208091040260200160405190810160405280929190818152602001828054612819906153e2565b80156128665780601f1061283b57610100808354040283529160200191612866565b820191906000526020600020905b81548152906001019060200180831161284957829003601f168201915b5050505050815260200160028201805461287f906153e2565b80601f01602080910402602001604051908101604052809291908181526020018280546128ab906153e2565b80156128f85780601f106128cd576101008083540402835291602001916128f8565b820191906000526020600020905b8154815290600101906020018083116128db57829003601f168201915b50505050508152602001600382018054612911906153e2565b80601f016020809104026020016040519081016040528092919081815260200182805461293d906153e2565b801561298a5780601f1061295f5761010080835404028352916020019161298a565b820191906000526020600020905b81548152906001019060200180831161296d57829003601f168201915b50505050508152602001600482015481526020016005820180546129ad906153e2565b80601f01602080910402602001604051908101604052809291908181526020018280546129d9906153e2565b8015612a265780601f106129fb57610100808354040283529160200191612a26565b820191906000526020600020905b815481529060010190602001808311612a0957829003601f168201915b50505050508152602001600682018054612a3f906153e2565b80601f0160208091040260200160405190810160405280929190818152602001828054612a6b906153e2565b8015612ab85780601f10612a8d57610100808354040283529160200191612ab8565b820191906000526020600020905b815481529060010190602001808311612a9b57829003601f168201915b50505050508152602001600782018054612ad1906153e2565b80601f0160208091040260200160405190810160405280929190818152602001828054612afd906153e2565b8015612b4a5780601f10612b1f57610100808354040283529160200191612b4a565b820191906000526020600020905b815481529060010190602001808311612b2d57829003601f168201915b505050505081526020016008820160009054906101000a900460ff16151515158152602001600982015481525050905080600001519950806020015198508060400151975080606001519650806080015195508060a0015194508060c0015193508060e0015192508061012001519150509193959799909294969850565b60066020528060005260406000206000915054906101000a900460ff1681565b60146020528060005260406000206000915090508060000160009054906101000a900473ffffffffffffffffffffffffffffffffffffffff1690806001018054612c31906153e2565b80601f0160208091040260200160405190810160405280929190818152602001828054612c5d906153e2565b8015612caa5780601f10612c7f57610100808354040283529160200191612caa565b820191906000526020600020905b815481529060010190602001808311612c8d57829003601f168201915b505050505090806002018054612cbf906153e2565b80601f0160208091040260200160405190810160405280929190818152602001828054612ceb906153e2565b8015612d385780601f10612d0d57610100808354040283529160200191612d38565b820191906000526020600020905b815481529060010190602001808311612d1b57829003601f168201915b505050505090806003018054612d4d906153e2565b80601f0160208091040260200160405190810160405280929190818152602001828054612d79906153e2565b8015612dc65780601f10612d9b57610100808354040283529160200191612dc6565b820191906000526020600020905b815481529060010190602001808311612da957829003601f168201915b505050505090806004018054612ddb906153e2565b80601f0160208091040260200160405190810160405280929190818152602001828054612e07906153e2565b8015612e545780601f10612e2957610100808354040283529160200191612e54565b820191906000526020600020905b815481529060010190602001808311612e3757829003601f168201915b505050505090806005015490806006018054612e6f906153e2565b80601f0160208091040260200160405190810160405280929190818152602001828054612e9b906153e2565b8015612ee85780601f10612ebd57610100808354040283529160200191612ee8565b820191906000526020600020905b815481529060010190602001808311612ecb57829003601f168201915b505050505090806007018054612efd906153e2565b80601f0160208091040260200160405190810160405280929190818152602001828054612f29906153e2565b8015612f765780601f10612f4b57610100808354040283529160200191612f76565b820191906000526020600020905b815481529060010190602001808311612f5957829003601f168201915b505050505090806008018054612f8b906153e2565b80601f0160208091040260200160405190810160405280929190818152602001828054612fb7906153e2565b80156130045780601f10612fd957610100808354040283529160200191613004565b820191906000526020600020905b815481529060010190602001808311612fe757829003601f168201915b505050505090806009018054613019906153e2565b80601f0160208091040260200160405190810160405280929190818152602001828054613045906153e2565b80156130925780601f1061306757610100808354040283529160200191613092565b820191906000526020600020905b81548152906001019060200180831161307557829003601f168201915b50505050509080600a0160009054906101000a900460ff169080600a0160019054906101000a900460ff1690508c565b60606000601460008473ffffffffffffffffffffffffffffffffffffffff1673ffffffffffffffffffffffffffffffffffffffff168152602001908152602001600020604051806101800160405290816000820160009054906101000a900473ffffffffffffffffffffffffffffffffffffffff1673ffffffffffffffffffffffffffffffffffffffff1673ffffffffffffffffffffffffffffffffffffffff168152602001600182018054613177906153e2565b80601f01602080910402602001604051908101604052809291908181526020018280546131a3906153e2565b80156131f05780601f106131c5576101008083540402835291602001916131f0565b820191906000526020600020905b8154815290600101906020018083116131d357829003601f168201915b50505050508152602001600282018054613209906153e2565b80601f0160208091040260200160405190810160405280929190818152602001828054613235906153e2565b80156132825780601f1061325757610100808354040283529160200191613282565b820191906000526020600020905b81548152906001019060200180831161326557829003601f168201915b5050505050815260200160038201805461329b906153e2565b80601f01602080910402602001604051908101604052809291908181526020018280546132c7906153e2565b80156133145780601f106132e957610100808354040283529160200191613314565b820191906000526020600020905b8154815290600101906020018083116132f757829003601f168201915b5050505050815260200160048201805461332d906153e2565b80601f0160208091040260200160405190810160405280929190818152602001828054613359906153e2565b80156133a65780601f1061337b576101008083540402835291602001916133a6565b820191906000526020600020905b81548152906001019060200180831161338957829003601f168201915b50505050508152602001600582015481526020016006820180546133c9906153e2565b80601f01602080910402602001604051908101604052809291908181526020018280546133f5906153e2565b80156134425780601f1061341757610100808354040283529160200191613442565b820191906000526020600020905b81548152906001019060200180831161342557829003601f168201915b5050505050815260200160078201805461345b906153e2565b80601f0160208091040260200160405190810160405280929190818152602001828054613487906153e2565b80156134d45780601f106134a9576101008083540402835291602001916134d4565b820191906000526020600020905b8154815290600101906020018083116134b757829003601f168201915b505050505081526020016008820180546134ed906153e2565b80601f0160208091040260200160405190810160405280929190818152602001828054613519906153e2565b80156135665780601f1061353b57610100808354040283529160200191613566565b820191906000526020600020905b81548152906001019060200180831161354957829003601f168201915b5050505050815260200160098201805461357f906153e2565b80601f01602080910402602001604051908101604052809291908181526020018280546135ab906153e2565b80156135f85780601f106135cd576101008083540402835291602001916135f8565b820191906000526020600020905b8154815290600101906020018083116135db57829003601f168201915b50505050508152602001600a820160009054906101000a900460ff16151515158152602001600a820160019054906101000a900460ff161515151581525050905060008160600151905060008260e0015190506000600a8054905067ffffffffffffffff81111561366c5761366b6149d9565b5b6040519080825280602002602001820160405280156136a557816020015b613692614733565b81526020019060019003908161368a5790505b5090506000600a805480602002602001604051908101604052809291908181526020016000905b828210156137785783829060005260206000200180546136eb906153e2565b80601f0160208091040260200160405190810160405280929190818152602001828054613717906153e2565b80156137645780601f1061373957610100808354040283529160200191613764565b820191906000526020600020905b81548152906001019060200180831161374757829003601f168201915b5050505050815260200190600101906136cc565b5050505090506000805b8251811015613cfb57858051906020012060048483815181106137a8576137a76154eb565b5b60200260200101516040516137bd91906157c8565b90815260200160405180910390206002016040516137db9190615677565b6040518091039020148015613845575084805190602001206004848381518110613808576138076154eb565b5b602002602001015160405161381d91906157c8565b908152602001604051809103902060060160405161383b9190615677565b6040518091039020145b15613ce857600483828151811061385f5761385e6154eb565b5b602002602001015160405161387491906157c8565b90815260200160405180910390206040518061014001604052908160008201805461389e906153e2565b80601f01602080910402602001604051908101604052809291908181526020018280546138ca906153e2565b80156139175780601f106138ec57610100808354040283529160200191613917565b820191906000526020600020905b8154815290600101906020018083116138fa57829003601f168201915b50505050508152602001600182018054613930906153e2565b80601f016020809104026020016040519081016040528092919081815260200182805461395c906153e2565b80156139a95780601f1061397e576101008083540402835291602001916139a9565b820191906000526020600020905b81548152906001019060200180831161398c57829003601f168201915b505050505081526020016002820180546139c2906153e2565b80601f01602080910402602001604051908101604052809291908181526020018280546139ee906153e2565b8015613a3b5780601f10613a1057610100808354040283529160200191613a3b565b820191906000526020600020905b815481529060010190602001808311613a1e57829003601f168201915b50505050508152602001600382018054613a54906153e2565b80601f0160208091040260200160405190810160405280929190818152602001828054613a80906153e2565b8015613acd5780601f10613aa257610100808354040283529160200191613acd565b820191906000526020600020905b815481529060010190602001808311613ab057829003601f168201915b5050505050815260200160048201548152602001600582018054613af0906153e2565b80601f0160208091040260200160405190810160405280929190818152602001828054613b1c906153e2565b8015613b695780601f10613b3e57610100808354040283529160200191613b69565b820191906000526020600020905b815481529060010190602001808311613b4c57829003601f168201915b50505050508152602001600682018054613b82906153e2565b80601f0160208091040260200160405190810160405280929190818152602001828054613bae906153e2565b8015613bfb5780601f10613bd057610100808354040283529160200191613bfb565b820191906000526020600020905b815481529060010190602001808311613bde57829003601f168201915b50505050508152602001600782018054613c14906153e2565b80601f0160208091040260200160405190810160405280929190818152602001828054613c40906153e2565b8015613c8d5780601f10613c6257610100808354040283529160200191613c8d565b820191906000526020600020905b815481529060010190602001808311613c7057829003601f168201915b505050505081526020016008820160009054906101000a900460ff16151515158152602001600982015481525050848381518110613cce57613ccd6154eb565b5b60200260200101819052508180613ce4906156bd565b9250505b8080613cf3906156bd565b915050613782565b50808352829650505050505050919050565b60156020528060005260406000206000915054906101000a900460ff1681565b6001818051602081018201805184825260208301602085012081835280955050505050506000915054906101000a900460ff1681565b600b5481565b60088181548110613d7957600080fd5b906000526020600020016000915090508054613d94906153e2565b80601f0160208091040260200160405190810160405280929190818152602001828054613dc0906153e2565b8015613e0d5780601f10613de257610100808354040283529160200191613e0d565b820191906000526020600020905b815481529060010190602001808311613df057829003601f168201915b505050505081565b600c8160078110613e2557600080fd5b016000915090505481565b601860009054906101000a900473ffffffffffffffffffffffffffffffffffffffff1673ffffffffffffffffffffffffffffffffffffffff163373ffffffffffffffffffffffffffffffffffffffff1614613ec0576040517f08c379a0000000000000000000000000000000000000000000000000000000008152600401613eb790615777565b60405180910390fd5b601c60009054906101000a900460ff1615613f10576040517f08c379a0000000000000000000000000000000000000000000000000000000008152600401613f0790615cd6565b60405180910390fd5b6000838051906020012050602060ff16118015613f3a57506000888051906020012050602060ff16115b8015613f5357506000868051906020012050602060ff16115b8015613f6c57506000858051906020012050602060ff16115b8015613f8557506000828051906020012050602060ff16115b8015613f9e57506000818051906020012050602060ff16115b613fdd576040517f08c379a0000000000000000000000000000000000000000000000000000000008152600401613fd490615d68565b60405180910390fd5b600183604051613fed91906157c8565b908152602001604051809103902060009054906101000a900460ff1615614049576040517f08c379a000000000000000000000000000000000000000000000000000000000815260040161404090615dd4565b60405180910390fd5b60006040518061014001604052808a815260200189815260200188815260200187815260200186815260200185815260200184815260200183815260200160001515815260200160008152509050806004856040516140a891906157c8565b908152602001604051809103902060008201518160000190816140cb9190615df4565b5060208201518160010190816140e19190615df4565b5060408201518160020190816140f79190615df4565b50606082015181600301908161410d9190615df4565b506080820151816004015560a082015181600501908161412d9190615df4565b5060c08201518160060190816141439190615df4565b5060e08201518160070190816141599190615df4565b506101008201518160080160006101000a81548160ff0219169083151502179055506101208201518160090155905050600a849080600181540180825580915050600190039060005260206000200160009091909190915090816141bd9190615df4565b50600180856040516141cf91906157c8565b908152602001604051809103902060006101000a81548160ff021916908315150217905550505050505050505050565b600381805160208101820180518482526020830160208501208183528095505050505050600091509050806000018054614238906153e2565b80601f0160208091040260200160405190810160405280929190818152602001828054614264906153e2565b80156142b15780601f10614286576101008083540402835291602001916142b1565b820191906000526020600020905b81548152906001019060200180831161429457829003601f168201915b5050505050908060010180546142c6906153e2565b80601f01602080910402602001604051908101604052809291908181526020018280546142f2906153e2565b801561433f5780601f106143145761010080835404028352916020019161433f565b820191906000526020600020905b81548152906001019060200180831161432257829003601f168201915b505050505090806002018054614354906153e2565b80601f0160208091040260200160405190810160405280929190818152602001828054614380906153e2565b80156143cd5780601f106143a2576101008083540402835291602001916143cd565b820191906000526020600020905b8154815290600101906020018083116143b057829003601f168201915b5050505050908060030180546143e2906153e2565b80601f016020809104026020016040519081016040528092919081815260200182805461440e906153e2565b801561445b5780601f106144305761010080835404028352916020019161445b565b820191906000526020600020905b81548152906001019060200180831161443e57829003601f168201915b505050505090806004015490806005018054614476906153e2565b80601f01602080910402602001604051908101604052809291908181526020018280546144a2906153e2565b80156144ef5780601f106144c4576101008083540402835291602001916144ef565b820191906000526020600020905b8154815290600101906020018083116144d257829003601f168201915b505050505090806006018054614504906153e2565b80601f0160208091040260200160405190810160405280929190818152602001828054614530906153e2565b801561457d5780601f106145525761010080835404028352916020019161457d565b820191906000526020600020905b81548152906001019060200180831161456057829003601f168201915b505050505090806007018054614592906153e2565b80601f01602080910402602001604051908101604052809291908181526020018280546145be906153e2565b801561460b5780601f106145e05761010080835404028352916020019161460b565b820191906000526020600020905b8154815290600101906020018083116145ee57829003601f168201915b5050505050908060080160009054906101000a900460ff1690806009015490508a565b60135481565b601860009054906101000a900473ffffffffffffffffffffffffffffffffffffffff1681565b6060600a805480602002602001604051908101604052809291908181526020016000905b8282101561472a57838290600052602060002001805461469d906153e2565b80601f01602080910402602001604051908101604052809291908181526020018280546146c9906153e2565b80156147165780601f106146eb57610100808354040283529160200191614716565b820191906000526020600020905b8154815290600101906020018083116146f957829003601f168201915b50505050508152602001906001019061467e565b50505050905090565b6040518061014001604052806060815260200160608152602001606081526020016060815260200160008152602001606081526020016060815260200160608152602001600015158152602001600081525090565b508054614794906153e2565b6000825580601f106147a657506147c5565b601f0160209004906000526020600020908101906147c491906147c8565b5b50565b5b808211156147e15760008160009055506001016147c9565b5090565b6000604051905090565b600080fd5b600080fd5b6000819050919050565b61480c816147f9565b811461481757600080fd5b50565b60008135905061482981614803565b92915050565b600060208284031215614845576148446147ef565b5b60006148538482850161481a565b91505092915050565b600081519050919050565b600082825260208201905092915050565b60005b8381101561489657808201518184015260208101905061487b565b60008484015250505050565b6000601f19601f8301169050919050565b60006148be8261485c565b6148c88185614867565b93506148d8818560208601614878565b6148e1816148a2565b840191505092915050565b6000602082019050818103600083015261490681846148b3565b905092915050565b600073ffffffffffffffffffffffffffffffffffffffff82169050919050565b60006149398261490e565b9050919050565b6149498161492e565b811461495457600080fd5b50565b60008135905061496681614940565b92915050565b600060208284031215614982576149816147ef565b5b600061499084828501614957565b91505092915050565b60008115159050919050565b6149ae81614999565b82525050565b60006020820190506149c960008301846149a5565b92915050565b600080fd5b600080fd5b7f4e487b7100000000000000000000000000000000000000000000000000000000600052604160045260246000fd5b614a11826148a2565b810181811067ffffffffffffffff82111715614a3057614a2f6149d9565b5b80604052505050565b6000614a436147e5565b9050614a4f8282614a08565b919050565b600067ffffffffffffffff821115614a6f57614a6e6149d9565b5b614a78826148a2565b9050602081019050919050565b82818337600083830152505050565b6000614aa7614aa284614a54565b614a39565b905082815260208101848484011115614ac357614ac26149d4565b5b614ace848285614a85565b509392505050565b600082601f830112614aeb57614aea6149cf565b5b8135614afb848260208601614a94565b91505092915050565b60008060408385031215614b1b57614b1a6147ef565b5b600083013567ffffffffffffffff811115614b3957614b386147f4565b5b614b4585828601614ad6565b925050602083013567ffffffffffffffff811115614b6657614b656147f4565b5b614b7285828601614ad6565b9150509250929050565b600081519050919050565b600082825260208201905092915050565b6000819050602082019050919050565b600082825260208201905092915050565b6000614bc48261485c565b614bce8185614ba8565b9350614bde818560208601614878565b614be7816148a2565b840191505092915050565b614bfb816147f9565b82525050565b614c0a81614999565b82525050565b6000610140830160008301518482036000860152614c2e8282614bb9565b91505060208301518482036020860152614c488282614bb9565b91505060408301518482036040860152614c628282614bb9565b91505060608301518482036060860152614c7c8282614bb9565b9150506080830151614c916080860182614bf2565b5060a083015184820360a0860152614ca98282614bb9565b91505060c083015184820360c0860152614cc38282614bb9565b91505060e083015184820360e0860152614cdd8282614bb9565b915050610100830151614cf4610100860182614c01565b50610120830151614d09610120860182614bf2565b508091505092915050565b6000614d208383614c10565b905092915050565b6000602082019050919050565b6000614d4082614b7c565b614d4a8185614b87565b935083602082028501614d5c85614b98565b8060005b85811015614d985784840389528151614d798582614d14565b9450614d8483614d28565b925060208a01995050600181019050614d60565b50829750879550505050505092915050565b60006020820190508181036000830152614dc48184614d35565b905092915050565b614dd5816147f9565b82525050565b6000602082019050614df06000830184614dcc565b92915050565b600060208284031215614e0c57614e0b6147ef565b5b600082013567ffffffffffffffff811115614e2a57614e296147f4565b5b614e3684828501614ad6565b91505092915050565b6000610140820190508181036000830152614e5a818d6148b3565b90508181036020830152614e6e818c6148b3565b90508181036040830152614e82818b6148b3565b90508181036060830152614e96818a6148b3565b9050614ea56080830189614dcc565b81810360a0830152614eb781886148b3565b905081810360c0830152614ecb81876148b3565b905081810360e0830152614edf81866148b3565b9050614eef6101008301856149a5565b614efd610120830184614dcc565b9b9a5050505050505050505050565b600060a0820190508181036000830152614f2681886148b3565b90508181036020830152614f3a81876148b3565b90508181036040830152614f4e81866148b3565b90508181036060830152614f6281856148b3565b9050614f716080830184614dcc565b9695505050505050565b614f848161492e565b82525050565b6000602082019050614f9f6000830184614f7b565b92915050565b6000610120820190508181036000830152614fc0818c6148b3565b90508181036020830152614fd4818b6148b3565b90508181036040830152614fe8818a6148b3565b90508181036060830152614ffc81896148b3565b905061500b6080830188614dcc565b81810360a083015261501d81876148b3565b905081810360c083015261503181866148b3565b905081810360e083015261504581856148b3565b9050615055610100830184614dcc565b9a9950505050505050505050565b600061018082019050615079600083018f614f7b565b818103602083015261508b818e6148b3565b9050818103604083015261509f818d6148b3565b905081810360608301526150b3818c6148b3565b905081810360808301526150c7818b6148b3565b90506150d660a083018a614dcc565b81810360c08301526150e881896148b3565b905081810360e08301526150fc81886148b3565b905081810361010083015261511181876148b3565b905081810361012083015261512681866148b3565b90506151366101408301856149a5565b6151446101608301846149a5565b9d9c50505050505050505050505050565b600080600080600080600080610100898b031215615176576151756147ef565b5b600089013567ffffffffffffffff811115615194576151936147f4565b5b6151a08b828c01614ad6565b985050602089013567ffffffffffffffff8111156151c1576151c06147f4565b5b6151cd8b828c01614ad6565b975050604089013567ffffffffffffffff8111156151ee576151ed6147f4565b5b6151fa8b828c01614ad6565b965050606089013567ffffffffffffffff81111561521b5761521a6147f4565b5b6152278b828c01614ad6565b95505060806152388b828c0161481a565b94505060a089013567ffffffffffffffff811115615259576152586147f4565b5b6152658b828c01614ad6565b93505060c089013567ffffffffffffffff811115615286576152856147f4565b5b6152928b828c01614ad6565b92505060e089013567ffffffffffffffff8111156152b3576152b26147f4565b5b6152bf8b828c01614ad6565b9150509295985092959890939650565b600081519050919050565b600082825260208201905092915050565b6000819050602082019050919050565b60006153078383614bb9565b905092915050565b6000602082019050919050565b6000615327826152cf565b61533181856152da565b935083602082028501615343856152eb565b8060005b8581101561537f578484038952815161536085826152fb565b945061536b8361530f565b925060208a01995050600181019050615347565b50829750879550505050505092915050565b600060208201905081810360008301526153ab818461531c565b905092915050565b7f4e487b7100000000000000000000000000000000000000000000000000000000600052602260045260246000fd5b600060028204905060018216806153fa57607f821691505b60208210810361540d5761540c6153b3565b5b50919050565b7f566f74696e67206973206e6f742063757272656e746c79206f70656e00000000600082015250565b6000615449601c83614867565b915061545482615413565b602082019050919050565b600060208201905081810360008301526154788161543c565b9050919050565b7f566f74696e672073657373696f6e206578706972656400000000000000000000600082015250565b60006154b5601683614867565b91506154c08261547f565b602082019050919050565b600060208201905081810360008301526154e4816154a8565b9050919050565b7f4e487b7100000000000000000000000000000000000000000000000000000000600052603260045260246000fd5b600081905092915050565b60008190508160005260206000209050919050565b60008154615547816153e2565b615551818661551a565b9450600182166000811461556c5760018114615581576155b4565b60ff19831686528115158202860193506155b4565b61558a85615525565b60005b838110156155ac5781548189015260018201915060208101905061558d565b838801955050505b50505092915050565b60006155c9828461553a565b915081905092915050565b600081905092915050565b60008190508160005260206000209050919050565b60008154615601816153e2565b61560b81866155d4565b94506001821660008114615626576001811461563b5761566e565b60ff198316865281151582028601935061566e565b615644856155df565b60005b8381101561566657815481890152600182019150602081019050615647565b838801955050505b50505092915050565b600061568382846155f4565b915081905092915050565b7f4e487b7100000000000000000000000000000000000000000000000000000000600052601160045260246000fd5b60006156c8826147f9565b91507fffffffffffffffffffffffffffffffffffffffffffffffffffffffffffffffff82036156fa576156f961568e565b5b600182019050919050565b7f4f6e6c792061646d696e2063616e20706572666f726d2074686973206163746960008201527f6f6e000000000000000000000000000000000000000000000000000000000000602082015250565b6000615761602283614867565b915061576c82615705565b604082019050919050565b6000602082019050818103600083015261579081615754565b9050919050565b60006157a28261485c565b6157ac818561551a565b93506157bc818560208601614878565b80840191505092915050565b60006157d48284615797565b915081905092915050565b60006157ea826147f9565b91506157f5836147f9565b925082820390508181111561580d5761580c61568e565b5b92915050565b600061581e826147f9565b9150615829836147f9565b92508282019050808211156158415761584061568e565b5b92915050565b600081549050615856816153e2565b9050919050565b60008190508160005260206000209050919050565b60006020601f8301049050919050565b600082821b905092915050565b6000600883026158bf7fffffffffffffffffffffffffffffffffffffffffffffffffffffffffffffffff82615882565b6158c98683615882565b95508019841693508086168417925050509392505050565b6000819050919050565b60006159066159016158fc846147f9565b6158e1565b6147f9565b9050919050565b6000819050919050565b615920836158eb565b61593461592c8261590d565b84845461588f565b825550505050565b600090565b61594961593c565b615954818484615917565b505050565b5b818110156159785761596d600082615941565b60018101905061595a565b5050565b601f8211156159bd5761598e81615525565b61599784615872565b810160208510156159a6578190505b6159ba6159b285615872565b830182615959565b50505b505050565b600082821c905092915050565b60006159e0600019846008026159c2565b1980831691505092915050565b60006159f983836159cf565b9150826002028217905092915050565b818103615a17575050615aef565b615a2082615847565b67ffffffffffffffff811115615a3957615a386149d9565b5b615a4382546153e2565b615a4e82828561597c565b6000601f831160018114615a7d5760008415615a6b578287015490505b615a7585826159ed565b865550615ae8565b601f198416615a8b8761585d565b9650615a9686615525565b60005b82811015615abe57848901548255600182019150600185019450602081019050615a99565b86831015615adb5784890154615ad7601f8916826159cf565b8355505b6001600288020188555050505b5050505050505b565b7f4e487b7100000000000000000000000000000000000000000000000000000000600052603160045260246000fd5b7f566f746572206973206e6f742072656769737465726564000000000000000000600082015250565b6000615b56601783614867565b9150615b6182615b20565b602082019050919050565b60006020820190508181036000830152615b8581615b49565b9050919050565b7f496e76616c69642063616e646964617465000000000000000000000000000000600082015250565b6000615bc2601183614867565b9150615bcd82615b8c565b602082019050919050565b60006020820190508181036000830152615bf181615bb5565b9050919050565b7f416c7265616479206361737420766f746520666f7220426c6f636b4c6561646560008201527f7220706f736974696f6e00000000000000000000000000000000000000000000602082015250565b6000615c54602a83614867565b9150615c5f82615bf8565b604082019050919050565b60006020820190508181036000830152615c8381615c47565b9050919050565b7f566f74696e672070726f6365737320616c726561647920737461727465640000600082015250565b6000615cc0601e83614867565b9150615ccb82615c8a565b602082019050919050565b60006020820190508181036000830152615cef81615cb3565b9050919050565b7f4d616b652073757265206576657279206669656c642063616e6e6f742062652060008201527f656d707479000000000000000000000000000000000000000000000000000000602082015250565b6000615d52602583614867565b9150615d5d82615cf6565b604082019050919050565b60006020820190508181036000830152615d8181615d45565b9050919050565b7f63616e64696461746520697320616c7265616479207265676973746572656421600082015250565b6000615dbe602083614867565b9150615dc982615d88565b602082019050919050565b60006020820190508181036000830152615ded81615db1565b9050919050565b615dfd8261485c565b67ffffffffffffffff811115615e1657615e156149d9565b5b615e2082546153e2565b615e2b82828561597c565b600060209050601f831160018114615e5e5760008415615e4c578287015190505b615e5685826159ed565b865550615ebe565b601f198416615e6c86615525565b60005b82811015615e9457848901518255600182019150602085019450602081019050615e6f565b86831015615eb15784890151615ead601f8916826159cf565b8355505b6001600288020188555050505b50505050505056fea2646970667358221220f0abdcc468c94074bf9beade65f1364c7ad81629a23d9ca0f5ac330c91a56ebb64736f6c63430008130033",
  "immutableReferences": {},
  "source": "// SPDX-License-Identifier: MIT\npragma solidity ^0.8.0;\nimport \"./CandidateStructure.sol\";\nimport \"./VoterStructure.sol\";\nimport \"./AccessControl.sol\";\nimport \"./TimeStructure.sol\";\n\ncontract CandidateBlockLeader is CandidateStructure,VoterStructure, AccessControl, TimeStructure{\n\n    event NewBlockLeaderRegistered(string firstName, string lastName, string collegeName, string programName, uint256 yearOfStudy, string regNo, string blockNumber, string gender);\n\n    function registerBlockLeader(string memory _firstName, string memory _lastName, string memory _collegeName,string memory _programName, uint256 _yearOfStudy, string memory _regNo, string memory _blockNumber, string memory _gender) public onlyAdmin{\n        require(!isInitiated, \"Voting process already started\");\n        require(keccak256(bytes(_regNo)).length > 0 && keccak256(bytes(_firstName)).length > 0 && keccak256(bytes(_collegeName)).length > 0\n        && keccak256(bytes(_programName)).length > 0 && keccak256(bytes(_blockNumber)).length > 0\n        && keccak256(bytes(_gender)).length > 0, \"Make sure every field cannot be empty\");\n        // if(keccak256(bytes(_collegeName)) == keccak256(bytes(\"TIBA\"))){\n        //     require(_yearOfStudy > 0 && _yearOfStudy < 5, \"Invalid year of Study\");\n        // }else{\n        //     require(_yearOfStudy > 0 && _yearOfStudy < 4, \"Invalid year of Study\");\n        // }        \n        require(!isRegistered[_regNo], \"candidate is already registered!\");\n        // require(numberOfPresident < 2, \"The registered BlockLeader is enough!\");\n        Candidate memory newCandidate = Candidate({\n            firstName: _firstName,\n            lastName: _lastName,       \n            collegeName: _collegeName,\n            programName: _programName,\n            yearOfStudy: _yearOfStudy, \n            regNo: _regNo, \n            blockNumber: _blockNumber,\n            gender: _gender, \n            isWinner: false, \n            voteCount: 0\n        });\n        candidateBlockLeader[_regNo] = newCandidate;\n        blockLeaderList.push(_regNo);\n        isRegistered[_regNo] = true;\n\n        // emit NewBlockLeaderRegistered(_firstName, _collegeName, _programName, _yearOfStudy, _regNo, _blockNumber, _gender);\n    }\n\n    function getBlockLeaderRegNumber() public view returns (string[] memory){\n        return blockLeaderList;\n    }\n\n    //Admin view candidates for a specific position of vote\n\n    function adminViewBlockLeaders(string memory _regNo) public view returns(string memory firstName,string memory lastName, \n        string memory collegeName, string memory programName, uint256 yearOfStudy, string memory regNo, string memory blockNumber, string memory gender,uint256 voteCount){\n        Candidate memory candidateBL = candidateBlockLeader[_regNo];\n        firstName = candidateBL.firstName;\n        lastName = candidateBL.lastName;\n        collegeName = candidateBL.collegeName;\n        programName = candidateBL.programName;\n        yearOfStudy = candidateBL.yearOfStudy;\n        regNo = candidateBL.regNo;\n        blockNumber = candidateBL.blockNumber;\n        gender = candidateBL.gender;\n        voteCount = candidateBL.voteCount;\n    }\n\n    function viewBlockLeader(string memory _collegeName, string memory _blockNumber) public onlyDuringVotingPeriod view returns(Candidate[] memory){\n        Candidate[] memory result = new Candidate[](blockLeaderList.length);        \n        for(uint i = 0; i < blockLeaderList.length; i++){\n            if(keccak256(bytes(candidateBlockLeader[blockLeaderList[i]].collegeName)) == keccak256(bytes(_collegeName)) && keccak256(bytes(candidateBlockLeader[blockLeaderList[i]].blockNumber)) == keccak256(bytes(_blockNumber))){\n                result[i] = candidateGovernor[blockLeaderList[i]];  \n            }            \n        }\n        return result;\n    }\n\n\n    function voterViewBlockLeaders(address addressVoter) public view returns (Candidate[] memory) {\n        Voter memory newVoter = voters[addressVoter];\n        string memory voterCollege = newVoter.collegeName;\n        string memory voterBlockNumber = newVoter.blockNumber;\n\n        Candidate[] memory result = new Candidate[](blockLeaderList.length);\n        string[] memory blockLeaderLst = blockLeaderList;\n        uint256 count = 0; // Index for adding candidates to the result array\n\n        for (uint256 i = 0; i < blockLeaderLst.length; i++) {\n            if (keccak256(bytes(candidateBlockLeader[blockLeaderLst[i]].collegeName)) == keccak256(bytes(voterCollege)) && keccak256(bytes(candidateBlockLeader[blockLeaderLst[i]].blockNumber)) == keccak256(bytes(voterBlockNumber))) {\n                result[count] = candidateBlockLeader[blockLeaderLst[i]];\n                count++;\n            }\n        }\n        // Resize the result array to remove any empty elements\n        assembly {\n            mstore(result, count)\n        }\n        return result;\n    }\n    \n\n    function deleteBlockLeader(string memory _presidentRegNo) public onlyAdmin{\n        delete candidateBlockLeader[_presidentRegNo];\n         for (uint256 i = 0; i < governorList.length; i++) {\n            if (keccak256(bytes(governorList[i])) == keccak256(bytes(_presidentRegNo))) {\n                for (uint256 j = i; j < governorList.length - 1; j++) {\n                    governorList[j] = governorList[j + 1];\n                }\n                governorList.pop();\n                break;\n            }\n        }\n    }\n\n\n    function castVoteBlockLeader( string memory _blockLeaderRegNo ) external {\n        require(voters[msg.sender].isRegistered, \"Voter is not registered\");    \n        require(isRegistered[_blockLeaderRegNo], \"Invalid candidate\");\n        // require(keccak256(bytes(voters[msg.sender].collegeName)) == keccak256(bytes(candidateBlockLeader[_blockLeaderRegNo].collegeName)), \"Your Not member of a valid college\");    \n        // require(keccak256(bytes(voters[msg.sender].blockNumber)) == keccak256(bytes(candidateBlockLeader[_blockLeaderRegNo].blockNumber)), \"Your Not member of a valid block\");  \n        require(!blockLeaderVoted[msg.sender], \"Already cast vote for BlockLeader position\");\n        blockLeaderVoted[msg.sender] = true;\n        \n        Candidate memory candidate = candidateBlockLeader[_blockLeaderRegNo];\n        candidate.voteCount++;\n        totalVotes++;\n\n        // emit VoteCast(candidate.voteCount, candidate.regNo);\n    }\n\n    function getWinnerBlockLeader() public view returns (string memory firstName, string memory regNo, string memory collegeName, string memory programName, uint256 voteCount){  \n        uint256 winningBlockLeaderVoteCount = 0;\n        uint256 winningBlockLeaderIndex = 0;    \n        for (uint256 i = 0; i < blockLeaderList.length; i++) {\n            if (candidateGovernor[blockLeaderList[i]].voteCount > winningBlockLeaderVoteCount) {\n                winningBlockLeaderVoteCount = candidateGovernor[blockLeaderList[i]].voteCount;\n                winningBlockLeaderIndex = i;\n            }\n        }\n        Candidate memory winner = candidateGovernor[blockLeaderList[winningBlockLeaderIndex]];\n\n        firstName = winner.firstName;\n        regNo = winner.regNo;\n        collegeName = winner.collegeName;\n        programName = winner.programName;\n        voteCount = winner.voteCount;\n        // emit getTheWinner(winner.firstName, winner.regNo, winner.collegeName, winner.programName, winner.voteCount);\n        // return (winner.firstName, winner.regNo, winner.collegeName, winner.programName, winner.voteCount);\n    }\n}",
  "sourcePath": "/home/temba/Documents/SmartContract/client/contracts/CandidateBlockLeader.sol",
  "compiler": {
    "name": "solc",
    "version": "0.8.19+commit.7dd6d404.Emscripten.clang"
  },
  "schemaVersion": "3.4.14",
  "updatedAt": "2023-06-20T14:50:19.312Z",
  "networkType": "ethereum",
  "devdoc": {
    "kind": "dev",
    "methods": {},
    "version": 1
  },
  "userdoc": {
    "kind": "user",
    "methods": {},
    "version": 1
  }
}