{
  "contractName": "CandidateRegistry",
  "abi": [
    {
      "anonymous": false,
      "inputs": [
        {
          "indexed": false,
          "internalType": "string",
          "name": "firstName",
          "type": "string"
        },
        {
          "indexed": false,
          "internalType": "string",
          "name": "lastName",
          "type": "string"
        },
        {
          "indexed": false,
          "internalType": "string",
          "name": "collegeName",
          "type": "string"
        },
        {
          "indexed": false,
          "internalType": "string",
          "name": "programName",
          "type": "string"
        },
        {
          "indexed": false,
          "internalType": "uint256",
          "name": "yearOfStudy",
          "type": "uint256"
        },
        {
          "indexed": false,
          "internalType": "string",
          "name": "regNo",
          "type": "string"
        },
        {
          "indexed": false,
          "internalType": "string",
          "name": "blockNumber",
          "type": "string"
        },
        {
          "indexed": false,
          "internalType": "string",
          "name": "gender",
          "type": "string"
        }
      ],
      "name": "NewBlockLeaderRegistered",
      "type": "event"
    },
    {
      "anonymous": false,
      "inputs": [
        {
          "indexed": false,
          "internalType": "string",
          "name": "firstName",
          "type": "string"
        },
        {
          "indexed": false,
          "internalType": "string",
          "name": "lastName",
          "type": "string"
        },
        {
          "indexed": false,
          "internalType": "string",
          "name": "collegeName",
          "type": "string"
        },
        {
          "indexed": false,
          "internalType": "string",
          "name": "programName",
          "type": "string"
        },
        {
          "indexed": false,
          "internalType": "uint256",
          "name": "yearOfStudy",
          "type": "uint256"
        },
        {
          "indexed": false,
          "internalType": "string",
          "name": "regNo",
          "type": "string"
        },
        {
          "indexed": false,
          "internalType": "string",
          "name": "blockNumber",
          "type": "string"
        },
        {
          "indexed": false,
          "internalType": "string",
          "name": "gender",
          "type": "string"
        }
      ],
      "name": "NewGovernorRegistered",
      "type": "event"
    },
    {
      "anonymous": false,
      "inputs": [
        {
          "indexed": false,
          "internalType": "string",
          "name": "firstName",
          "type": "string"
        },
        {
          "indexed": false,
          "internalType": "string",
          "name": "lastName",
          "type": "string"
        },
        {
          "indexed": false,
          "internalType": "string",
          "name": "collegeName",
          "type": "string"
        },
        {
          "indexed": false,
          "internalType": "string",
          "name": "programName",
          "type": "string"
        },
        {
          "indexed": false,
          "internalType": "uint256",
          "name": "yearOfStudy",
          "type": "uint256"
        },
        {
          "indexed": false,
          "internalType": "string",
          "name": "regNo",
          "type": "string"
        },
        {
          "indexed": false,
          "internalType": "string",
          "name": "blockNumber",
          "type": "string"
        },
        {
          "indexed": false,
          "internalType": "string",
          "name": "gender",
          "type": "string"
        }
      ],
      "name": "NewPresidentRegistered",
      "type": "event"
    },
    {
      "inputs": [],
      "name": "admin",
      "outputs": [
        {
          "internalType": "address",
          "name": "",
          "type": "address"
        }
      ],
      "stateMutability": "view",
      "type": "function"
    },
    {
      "inputs": [
        {
          "internalType": "uint256",
          "name": "",
          "type": "uint256"
        }
      ],
      "name": "blockLeaderList",
      "outputs": [
        {
          "internalType": "string",
          "name": "",
          "type": "string"
        }
      ],
      "stateMutability": "view",
      "type": "function"
    },
    {
      "inputs": [
        {
          "internalType": "address",
          "name": "",
          "type": "address"
        }
      ],
      "name": "blockLeaderVoted",
      "outputs": [
        {
          "internalType": "bool",
          "name": "",
          "type": "bool"
        }
      ],
      "stateMutability": "view",
      "type": "function"
    },
    {
      "inputs": [
        {
          "internalType": "string",
          "name": "",
          "type": "string"
        }
      ],
      "name": "candidateBlockLeader",
      "outputs": [
        {
          "internalType": "string",
          "name": "firstName",
          "type": "string"
        },
        {
          "internalType": "string",
          "name": "lastName",
          "type": "string"
        },
        {
          "internalType": "string",
          "name": "collegeName",
          "type": "string"
        },
        {
          "internalType": "string",
          "name": "programName",
          "type": "string"
        },
        {
          "internalType": "uint256",
          "name": "yearOfStudy",
          "type": "uint256"
        },
        {
          "internalType": "string",
          "name": "regNo",
          "type": "string"
        },
        {
          "internalType": "string",
          "name": "blockNumber",
          "type": "string"
        },
        {
          "internalType": "string",
          "name": "gender",
          "type": "string"
        },
        {
          "internalType": "bool",
          "name": "isWinner",
          "type": "bool"
        },
        {
          "internalType": "uint256",
          "name": "voteCount",
          "type": "uint256"
        }
      ],
      "stateMutability": "view",
      "type": "function"
    },
    {
      "inputs": [
        {
          "internalType": "string",
          "name": "",
          "type": "string"
        }
      ],
      "name": "candidateGovernor",
      "outputs": [
        {
          "internalType": "string",
          "name": "firstName",
          "type": "string"
        },
        {
          "internalType": "string",
          "name": "lastName",
          "type": "string"
        },
        {
          "internalType": "string",
          "name": "collegeName",
          "type": "string"
        },
        {
          "internalType": "string",
          "name": "programName",
          "type": "string"
        },
        {
          "internalType": "uint256",
          "name": "yearOfStudy",
          "type": "uint256"
        },
        {
          "internalType": "string",
          "name": "regNo",
          "type": "string"
        },
        {
          "internalType": "string",
          "name": "blockNumber",
          "type": "string"
        },
        {
          "internalType": "string",
          "name": "gender",
          "type": "string"
        },
        {
          "internalType": "bool",
          "name": "isWinner",
          "type": "bool"
        },
        {
          "internalType": "uint256",
          "name": "voteCount",
          "type": "uint256"
        }
      ],
      "stateMutability": "view",
      "type": "function"
    },
    {
      "inputs": [
        {
          "internalType": "string",
          "name": "",
          "type": "string"
        }
      ],
      "name": "candidatePresident",
      "outputs": [
        {
          "internalType": "string",
          "name": "firstName",
          "type": "string"
        },
        {
          "internalType": "string",
          "name": "lastName",
          "type": "string"
        },
        {
          "internalType": "string",
          "name": "collegeName",
          "type": "string"
        },
        {
          "internalType": "string",
          "name": "programName",
          "type": "string"
        },
        {
          "internalType": "uint256",
          "name": "yearOfStudy",
          "type": "uint256"
        },
        {
          "internalType": "string",
          "name": "regNo",
          "type": "string"
        },
        {
          "internalType": "string",
          "name": "blockNumber",
          "type": "string"
        },
        {
          "internalType": "string",
          "name": "gender",
          "type": "string"
        },
        {
          "internalType": "bool",
          "name": "isWinner",
          "type": "bool"
        },
        {
          "internalType": "uint256",
          "name": "voteCount",
          "type": "uint256"
        }
      ],
      "stateMutability": "view",
      "type": "function"
    },
    {
      "inputs": [
        {
          "internalType": "uint256",
          "name": "",
          "type": "uint256"
        }
      ],
      "name": "governorList",
      "outputs": [
        {
          "internalType": "string",
          "name": "",
          "type": "string"
        }
      ],
      "stateMutability": "view",
      "type": "function"
    },
    {
      "inputs": [
        {
          "internalType": "address",
          "name": "",
          "type": "address"
        }
      ],
      "name": "governorVoted",
      "outputs": [
        {
          "internalType": "bool",
          "name": "",
          "type": "bool"
        }
      ],
      "stateMutability": "view",
      "type": "function"
    },
    {
      "inputs": [],
      "name": "isInitiated",
      "outputs": [
        {
          "internalType": "bool",
          "name": "",
          "type": "bool"
        }
      ],
      "stateMutability": "view",
      "type": "function"
    },
    {
      "inputs": [
        {
          "internalType": "string",
          "name": "",
          "type": "string"
        }
      ],
      "name": "isRegistered",
      "outputs": [
        {
          "internalType": "bool",
          "name": "",
          "type": "bool"
        }
      ],
      "stateMutability": "view",
      "type": "function"
    },
    {
      "inputs": [],
      "name": "numberOfBlockLeader",
      "outputs": [
        {
          "internalType": "uint256",
          "name": "",
          "type": "uint256"
        }
      ],
      "stateMutability": "view",
      "type": "function"
    },
    {
      "inputs": [
        {
          "internalType": "uint256",
          "name": "",
          "type": "uint256"
        }
      ],
      "name": "numberOfGovernor",
      "outputs": [
        {
          "internalType": "uint256",
          "name": "",
          "type": "uint256"
        }
      ],
      "stateMutability": "view",
      "type": "function"
    },
    {
      "inputs": [],
      "name": "numberOfPresident",
      "outputs": [
        {
          "internalType": "uint256",
          "name": "",
          "type": "uint256"
        }
      ],
      "stateMutability": "view",
      "type": "function"
    },
    {
      "inputs": [
        {
          "internalType": "uint256",
          "name": "",
          "type": "uint256"
        }
      ],
      "name": "presidentList",
      "outputs": [
        {
          "internalType": "string",
          "name": "",
          "type": "string"
        }
      ],
      "stateMutability": "view",
      "type": "function"
    },
    {
      "inputs": [
        {
          "internalType": "address",
          "name": "",
          "type": "address"
        }
      ],
      "name": "presidentVoted",
      "outputs": [
        {
          "internalType": "bool",
          "name": "",
          "type": "bool"
        }
      ],
      "stateMutability": "view",
      "type": "function"
    },
    {
      "inputs": [],
      "name": "totalVotes",
      "outputs": [
        {
          "internalType": "uint256",
          "name": "",
          "type": "uint256"
        }
      ],
      "stateMutability": "view",
      "type": "function"
    },
    {
      "inputs": [
        {
          "internalType": "address",
          "name": "newAdmin",
          "type": "address"
        }
      ],
      "name": "transferAdmin",
      "outputs": [],
      "stateMutability": "nonpayable",
      "type": "function"
    },
    {
      "inputs": [
        {
          "internalType": "string",
          "name": "_firstName",
          "type": "string"
        },
        {
          "internalType": "string",
          "name": "_lastName",
          "type": "string"
        },
        {
          "internalType": "string",
          "name": "_collegeName",
          "type": "string"
        },
        {
          "internalType": "string",
          "name": "_programName",
          "type": "string"
        },
        {
          "internalType": "uint256",
          "name": "_yearOfStudy",
          "type": "uint256"
        },
        {
          "internalType": "string",
          "name": "_regNo",
          "type": "string"
        },
        {
          "internalType": "string",
          "name": "_blockNumber",
          "type": "string"
        },
        {
          "internalType": "string",
          "name": "_gender",
          "type": "string"
        }
      ],
      "name": "registerPresident",
      "outputs": [],
      "stateMutability": "nonpayable",
      "type": "function"
    },
    {
      "inputs": [
        {
          "internalType": "string",
          "name": "_firstName",
          "type": "string"
        },
        {
          "internalType": "string",
          "name": "_lastName",
          "type": "string"
        },
        {
          "internalType": "string",
          "name": "_collegeName",
          "type": "string"
        },
        {
          "internalType": "string",
          "name": "_programName",
          "type": "string"
        },
        {
          "internalType": "uint256",
          "name": "_yearOfStudy",
          "type": "uint256"
        },
        {
          "internalType": "string",
          "name": "_regNo",
          "type": "string"
        },
        {
          "internalType": "string",
          "name": "_blockNumber",
          "type": "string"
        },
        {
          "internalType": "string",
          "name": "_gender",
          "type": "string"
        }
      ],
      "name": "registerGovernor",
      "outputs": [],
      "stateMutability": "nonpayable",
      "type": "function"
    },
    {
      "inputs": [
        {
          "internalType": "string",
          "name": "_firstName",
          "type": "string"
        },
        {
          "internalType": "string",
          "name": "_lastName",
          "type": "string"
        },
        {
          "internalType": "string",
          "name": "_collegeName",
          "type": "string"
        },
        {
          "internalType": "string",
          "name": "_programName",
          "type": "string"
        },
        {
          "internalType": "uint256",
          "name": "_yearOfStudy",
          "type": "uint256"
        },
        {
          "internalType": "string",
          "name": "_regNo",
          "type": "string"
        },
        {
          "internalType": "string",
          "name": "_blockNumber",
          "type": "string"
        },
        {
          "internalType": "string",
          "name": "_gender",
          "type": "string"
        }
      ],
      "name": "registerBlockLeader",
      "outputs": [],
      "stateMutability": "nonpayable",
      "type": "function"
    },
    {
      "inputs": [],
      "name": "getPresidentRegNumber",
      "outputs": [
        {
          "internalType": "string[]",
          "name": "",
          "type": "string[]"
        }
      ],
      "stateMutability": "view",
      "type": "function"
    },
    {
      "inputs": [],
      "name": "getGovernorRegNumber",
      "outputs": [
        {
          "internalType": "string[]",
          "name": "",
          "type": "string[]"
        }
      ],
      "stateMutability": "view",
      "type": "function"
    },
    {
      "inputs": [],
      "name": "getBlockLeaderRegNumber",
      "outputs": [
        {
          "internalType": "string[]",
          "name": "",
          "type": "string[]"
        }
      ],
      "stateMutability": "view",
      "type": "function"
    },
    {
      "inputs": [
        {
          "internalType": "string",
          "name": "_regNo",
          "type": "string"
        }
      ],
      "name": "adminViewGovernors",
      "outputs": [
        {
          "internalType": "string",
          "name": "firstName",
          "type": "string"
        },
        {
          "internalType": "string",
          "name": "lastName",
          "type": "string"
        },
        {
          "internalType": "string",
          "name": "collegeName",
          "type": "string"
        },
        {
          "internalType": "string",
          "name": "programName",
          "type": "string"
        },
        {
          "internalType": "uint256",
          "name": "yearOfStudy",
          "type": "uint256"
        },
        {
          "internalType": "string",
          "name": "regNo",
          "type": "string"
        },
        {
          "internalType": "string",
          "name": "blockNumber",
          "type": "string"
        },
        {
          "internalType": "string",
          "name": "gender",
          "type": "string"
        },
        {
          "internalType": "uint256",
          "name": "voteCount",
          "type": "uint256"
        }
      ],
      "stateMutability": "view",
      "type": "function"
    },
    {
      "inputs": [
        {
          "internalType": "string",
          "name": "_collegeName",
          "type": "string"
        }
      ],
      "name": "voterViewGovernors",
      "outputs": [
        {
          "components": [
            {
              "internalType": "string",
              "name": "firstName",
              "type": "string"
            },
            {
              "internalType": "string",
              "name": "lastName",
              "type": "string"
            },
            {
              "internalType": "string",
              "name": "collegeName",
              "type": "string"
            },
            {
              "internalType": "string",
              "name": "programName",
              "type": "string"
            },
            {
              "internalType": "uint256",
              "name": "yearOfStudy",
              "type": "uint256"
            },
            {
              "internalType": "string",
              "name": "regNo",
              "type": "string"
            },
            {
              "internalType": "string",
              "name": "blockNumber",
              "type": "string"
            },
            {
              "internalType": "string",
              "name": "gender",
              "type": "string"
            },
            {
              "internalType": "bool",
              "name": "isWinner",
              "type": "bool"
            },
            {
              "internalType": "uint256",
              "name": "voteCount",
              "type": "uint256"
            }
          ],
          "internalType": "struct CandidateStructure.Candidate[]",
          "name": "",
          "type": "tuple[]"
        }
      ],
      "stateMutability": "view",
      "type": "function"
    }
  ],
  "bytecode": "0x608060405234801561001057600080fd5b5033601460006101000a81548173ffffffffffffffffffffffffffffffffffffffff021916908373ffffffffffffffffffffffffffffffffffffffff16021790555061551a806100616000396000f3fe608060405234801561001057600080fd5b50600436106101735760003560e01c8063828d95f2116100de578063e316db4e11610097578063f644502611610071578063f6445026146104d8578063f6ffc11714610511578063f851a4401461052f578063f9c120091461054d57610173565b8063e316db4e1461045c578063e6b52a331461048c578063f19c8802146104bc57610173565b8063828d95f21461036c578063a0b0df95146103a4578063b339eb16146103d4578063c184e778146103f2578063c822d7f01461040e578063dccea1891461043e57610173565b806342874c8e1161013057806342874c8e1461028657806345a8a2be146102b65780634b20c243146102e65780634c1e63c2146103045780635f8b99721461032057806375829def1461035057610173565b806302aac7b214610178578063052fbf8c146101a85780630d15fd77146101d8578063166b4722146101f65780631ac45f521461022f5780631cb5991414610268575b600080fd5b610192600480360381019061018d9190613fe8565b61056b565b60405161019f91906140a5565b60405180910390f35b6101c260048036038101906101bd9190614125565b610617565b6040516101cf919061416d565b60405180910390f35b6101e0610637565b6040516101ed9190614197565b60405180910390f35b610210600480360381019061020b91906142e7565b61063d565b6040516102269a99989796959493929190614330565b60405180910390f35b610249600480360381019061024491906142e7565b610a6c565b60405161025f9a99989796959493929190614330565b60405180910390f35b610270610e9b565b60405161027d919061416d565b60405180910390f35b6102a0600480360381019061029b91906142e7565b610eae565b6040516102ad919061462b565b60405180910390f35b6102d060048036038101906102cb9190613fe8565b611508565b6040516102dd91906140a5565b60405180910390f35b6102ee6115b4565b6040516102fb919061470f565b60405180910390f35b61031e60048036038101906103199190614731565b61168d565b005b61033a60048036038101906103359190614125565b611b05565b604051610347919061416d565b60405180910390f35b61036a60048036038101906103659190614125565b611b25565b005b610386600480360381019061038191906142e7565b611bf9565b60405161039b999897969594939291906148ab565b60405180910390f35b6103be60048036038101906103b99190614125565b6120b0565b6040516103cb919061416d565b60405180910390f35b6103dc6120d0565b6040516103e9919061470f565b60405180910390f35b61040c60048036038101906104079190614731565b6121a9565b005b610428600480360381019061042391906142e7565b6135e5565b604051610435919061416d565b60405180910390f35b61044661361b565b6040516104539190614197565b60405180910390f35b61047660048036038101906104719190613fe8565b613621565b60405161048391906140a5565b60405180910390f35b6104a660048036038101906104a19190613fe8565b6136cd565b6040516104b39190614197565b60405180910390f35b6104d660048036038101906104d19190614731565b6136e8565b005b6104f260048036038101906104ed91906142e7565b613a15565b6040516105089a99989796959493929190614330565b60405180910390f35b610519613e44565b6040516105269190614197565b60405180910390f35b610537613e4a565b6040516105449190614978565b60405180910390f35b610555613e70565b604051610562919061470f565b60405180910390f35b6009818154811061057b57600080fd5b906000526020600020016000915090508054610596906149c2565b80601f01602080910402602001604051908101604052809291908181526020018280546105c2906149c2565b801561060f5780601f106105e45761010080835404028352916020019161060f565b820191906000526020600020905b8154815290600101906020018083116105f257829003601f168201915b505050505081565b60076020528060005260406000206000915054906101000a900460ff1681565b60005481565b600281805160208101820180518482526020830160208501208183528095505050505050600091509050806000018054610676906149c2565b80601f01602080910402602001604051908101604052809291908181526020018280546106a2906149c2565b80156106ef5780601f106106c4576101008083540402835291602001916106ef565b820191906000526020600020905b8154815290600101906020018083116106d257829003601f168201915b505050505090806001018054610704906149c2565b80601f0160208091040260200160405190810160405280929190818152602001828054610730906149c2565b801561077d5780601f106107525761010080835404028352916020019161077d565b820191906000526020600020905b81548152906001019060200180831161076057829003601f168201915b505050505090806002018054610792906149c2565b80601f01602080910402602001604051908101604052809291908181526020018280546107be906149c2565b801561080b5780601f106107e05761010080835404028352916020019161080b565b820191906000526020600020905b8154815290600101906020018083116107ee57829003601f168201915b505050505090806003018054610820906149c2565b80601f016020809104026020016040519081016040528092919081815260200182805461084c906149c2565b80156108995780601f1061086e57610100808354040283529160200191610899565b820191906000526020600020905b81548152906001019060200180831161087c57829003601f168201915b5050505050908060040154908060050180546108b4906149c2565b80601f01602080910402602001604051908101604052809291908181526020018280546108e0906149c2565b801561092d5780601f106109025761010080835404028352916020019161092d565b820191906000526020600020905b81548152906001019060200180831161091057829003601f168201915b505050505090806006018054610942906149c2565b80601f016020809104026020016040519081016040528092919081815260200182805461096e906149c2565b80156109bb5780601f10610990576101008083540402835291602001916109bb565b820191906000526020600020905b81548152906001019060200180831161099e57829003601f168201915b5050505050908060070180546109d0906149c2565b80601f01602080910402602001604051908101604052809291908181526020018280546109fc906149c2565b8015610a495780601f10610a1e57610100808354040283529160200191610a49565b820191906000526020600020905b815481529060010190602001808311610a2c57829003601f168201915b5050505050908060080160009054906101000a900460ff1690806009015490508a565b600481805160208101820180518482526020830160208501208183528095505050505050600091509050806000018054610aa5906149c2565b80601f0160208091040260200160405190810160405280929190818152602001828054610ad1906149c2565b8015610b1e5780601f10610af357610100808354040283529160200191610b1e565b820191906000526020600020905b815481529060010190602001808311610b0157829003601f168201915b505050505090806001018054610b33906149c2565b80601f0160208091040260200160405190810160405280929190818152602001828054610b5f906149c2565b8015610bac5780601f10610b8157610100808354040283529160200191610bac565b820191906000526020600020905b815481529060010190602001808311610b8f57829003601f168201915b505050505090806002018054610bc1906149c2565b80601f0160208091040260200160405190810160405280929190818152602001828054610bed906149c2565b8015610c3a5780601f10610c0f57610100808354040283529160200191610c3a565b820191906000526020600020905b815481529060010190602001808311610c1d57829003601f168201915b505050505090806003018054610c4f906149c2565b80601f0160208091040260200160405190810160405280929190818152602001828054610c7b906149c2565b8015610cc85780601f10610c9d57610100808354040283529160200191610cc8565b820191906000526020600020905b815481529060010190602001808311610cab57829003601f168201915b505050505090806004015490806005018054610ce3906149c2565b80601f0160208091040260200160405190810160405280929190818152602001828054610d0f906149c2565b8015610d5c5780601f10610d3157610100808354040283529160200191610d5c565b820191906000526020600020905b815481529060010190602001808311610d3f57829003601f168201915b505050505090806006018054610d71906149c2565b80601f0160208091040260200160405190810160405280929190818152602001828054610d9d906149c2565b8015610dea5780601f10610dbf57610100808354040283529160200191610dea565b820191906000526020600020905b815481529060010190602001808311610dcd57829003601f168201915b505050505090806007018054610dff906149c2565b80601f0160208091040260200160405190810160405280929190818152602001828054610e2b906149c2565b8015610e785780601f10610e4d57610100808354040283529160200191610e78565b820191906000526020600020905b815481529060010190602001808311610e5b57829003601f168201915b5050505050908060080160009054906101000a900460ff1690806009015490508a565b601860009054906101000a900460ff1681565b6060600060098054905067ffffffffffffffff811115610ed157610ed06141bc565b5b604051908082528060200260200182016040528015610f0a57816020015b610ef7613f49565b815260200190600190039081610eef5790505b50905060006009805480602002602001604051908101604052809291908181526020016000905b82821015610fdd578382906000526020600020018054610f50906149c2565b80601f0160208091040260200160405190810160405280929190818152602001828054610f7c906149c2565b8015610fc95780601f10610f9e57610100808354040283529160200191610fc9565b820191906000526020600020905b815481529060010190602001808311610fac57829003601f168201915b505050505081526020019060010190610f31565b5050505090506000805b82518110156114fc578580519060200120600384838151811061100d5761100c6149f3565b5b60200260200101516040516110229190614a5e565b90815260200160405180910390206002016040516110409190614b18565b6040518091039020036114e9576003838281518110611062576110616149f3565b5b60200260200101516040516110779190614a5e565b9081526020016040518091039020604051806101400160405290816000820180546110a1906149c2565b80601f01602080910402602001604051908101604052809291908181526020018280546110cd906149c2565b801561111a5780601f106110ef5761010080835404028352916020019161111a565b820191906000526020600020905b8154815290600101906020018083116110fd57829003601f168201915b50505050508152602001600182018054611133906149c2565b80601f016020809104026020016040519081016040528092919081815260200182805461115f906149c2565b80156111ac5780601f10611181576101008083540402835291602001916111ac565b820191906000526020600020905b81548152906001019060200180831161118f57829003601f168201915b505050505081526020016002820180546111c5906149c2565b80601f01602080910402602001604051908101604052809291908181526020018280546111f1906149c2565b801561123e5780601f106112135761010080835404028352916020019161123e565b820191906000526020600020905b81548152906001019060200180831161122157829003601f168201915b50505050508152602001600382018054611257906149c2565b80601f0160208091040260200160405190810160405280929190818152602001828054611283906149c2565b80156112d05780601f106112a5576101008083540402835291602001916112d0565b820191906000526020600020905b8154815290600101906020018083116112b357829003601f168201915b50505050508152602001600482015481526020016005820180546112f3906149c2565b80601f016020809104026020016040519081016040528092919081815260200182805461131f906149c2565b801561136c5780601f106113415761010080835404028352916020019161136c565b820191906000526020600020905b81548152906001019060200180831161134f57829003601f168201915b50505050508152602001600682018054611385906149c2565b80601f01602080910402602001604051908101604052809291908181526020018280546113b1906149c2565b80156113fe5780601f106113d3576101008083540402835291602001916113fe565b820191906000526020600020905b8154815290600101906020018083116113e157829003601f168201915b50505050508152602001600782018054611417906149c2565b80601f0160208091040260200160405190810160405280929190818152602001828054611443906149c2565b80156114905780601f1061146557610100808354040283529160200191611490565b820191906000526020600020905b81548152906001019060200180831161147357829003601f168201915b505050505081526020016008820160009054906101000a900460ff16151515158152602001600982015481525050846001846114cc9190614b5e565b815181106114dd576114dc6149f3565b5b60200260200101819052505b80806114f490614b92565b915050610fe7565b50829350505050919050565b600a818154811061151857600080fd5b906000526020600020016000915090508054611533906149c2565b80601f016020809104026020016040519081016040528092919081815260200182805461155f906149c2565b80156115ac5780601f10611581576101008083540402835291602001916115ac565b820191906000526020600020905b81548152906001019060200180831161158f57829003601f168201915b505050505081565b60606008805480602002602001604051908101604052809291908181526020016000905b828210156116845783829060005260206000200180546115f7906149c2565b80601f0160208091040260200160405190810160405280929190818152602001828054611623906149c2565b80156116705780601f1061164557610100808354040283529160200191611670565b820191906000526020600020905b81548152906001019060200180831161165357829003601f168201915b5050505050815260200190600101906115d8565b50505050905090565b601460009054906101000a900473ffffffffffffffffffffffffffffffffffffffff1673ffffffffffffffffffffffffffffffffffffffff163373ffffffffffffffffffffffffffffffffffffffff161461171d576040517f08c379a000000000000000000000000000000000000000000000000000000000815260040161171490614c4c565b60405180910390fd5b601860009054906101000a900460ff161561176d576040517f08c379a000000000000000000000000000000000000000000000000000000000815260040161176490614cb8565b60405180910390fd5b6000838051906020012050602060ff1611801561179757506000888051906020012050602060ff16115b80156117b057506000868051906020012050602060ff16115b80156117c957506000858051906020012050602060ff16115b80156117e257506000828051906020012050602060ff16115b80156117fb57506000818051906020012050602060ff16115b61183a576040517f08c379a000000000000000000000000000000000000000000000000000000000815260040161183190614d4a565b60405180910390fd5b6040518060400160405280600481526020017f5449424100000000000000000000000000000000000000000000000000000000815250805190602001208680519060200120036118d8576000841180156118945750600584105b6118d3576040517f08c379a00000000000000000000000000000000000000000000000000000000081526004016118ca90614db6565b60405180910390fd5b611928565b6000841180156118e85750600484105b611927576040517f08c379a000000000000000000000000000000000000000000000000000000000815260040161191e90614db6565b60405180910390fd5b5b6002600b541061196d576040517f08c379a000000000000000000000000000000000000000000000000000000000815260040161196490614e48565b60405180910390fd5b60006040518061014001604052808a815260200189815260200188815260200187815260200186815260200185815260200184815260200183815260200160001515815260200160008152509050806002856040516119cc9190614a5e565b908152602001604051809103902060008201518160000190816119ef9190615014565b506020820151816001019081611a059190615014565b506040820151816002019081611a1b9190615014565b506060820151816003019081611a319190615014565b506080820151816004015560a0820151816005019081611a519190615014565b5060c0820151816006019081611a679190615014565b5060e0820151816007019081611a7d9190615014565b506101008201518160080160006101000a81548160ff0219169083151502179055506101208201518160090155905050600884908060018154018082558091505060019003906000526020600020016000909190919091509081611ae19190615014565b50600b6000815480929190611af590614b92565b9190505550505050505050505050565b60056020528060005260406000206000915054906101000a900460ff1681565b601460009054906101000a900473ffffffffffffffffffffffffffffffffffffffff1673ffffffffffffffffffffffffffffffffffffffff163373ffffffffffffffffffffffffffffffffffffffff1614611bb5576040517f08c379a0000000000000000000000000000000000000000000000000000000008152600401611bac90614c4c565b60405180910390fd5b80601460006101000a81548173ffffffffffffffffffffffffffffffffffffffff021916908373ffffffffffffffffffffffffffffffffffffffff16021790555050565b6060806060806000606080606060008060038b604051611c199190614a5e565b908152602001604051809103902060405180610140016040529081600082018054611c43906149c2565b80601f0160208091040260200160405190810160405280929190818152602001828054611c6f906149c2565b8015611cbc5780601f10611c9157610100808354040283529160200191611cbc565b820191906000526020600020905b815481529060010190602001808311611c9f57829003601f168201915b50505050508152602001600182018054611cd5906149c2565b80601f0160208091040260200160405190810160405280929190818152602001828054611d01906149c2565b8015611d4e5780601f10611d2357610100808354040283529160200191611d4e565b820191906000526020600020905b815481529060010190602001808311611d3157829003601f168201915b50505050508152602001600282018054611d67906149c2565b80601f0160208091040260200160405190810160405280929190818152602001828054611d93906149c2565b8015611de05780601f10611db557610100808354040283529160200191611de0565b820191906000526020600020905b815481529060010190602001808311611dc357829003601f168201915b50505050508152602001600382018054611df9906149c2565b80601f0160208091040260200160405190810160405280929190818152602001828054611e25906149c2565b8015611e725780601f10611e4757610100808354040283529160200191611e72565b820191906000526020600020905b815481529060010190602001808311611e5557829003601f168201915b5050505050815260200160048201548152602001600582018054611e95906149c2565b80601f0160208091040260200160405190810160405280929190818152602001828054611ec1906149c2565b8015611f0e5780601f10611ee357610100808354040283529160200191611f0e565b820191906000526020600020905b815481529060010190602001808311611ef157829003601f168201915b50505050508152602001600682018054611f27906149c2565b80601f0160208091040260200160405190810160405280929190818152602001828054611f53906149c2565b8015611fa05780601f10611f7557610100808354040283529160200191611fa0565b820191906000526020600020905b815481529060010190602001808311611f8357829003601f168201915b50505050508152602001600782018054611fb9906149c2565b80601f0160208091040260200160405190810160405280929190818152602001828054611fe5906149c2565b80156120325780601f1061200757610100808354040283529160200191612032565b820191906000526020600020905b81548152906001019060200180831161201557829003601f168201915b505050505081526020016008820160009054906101000a900460ff16151515158152602001600982015481525050905080600001519950806020015198508060400151975080606001519650806080015195508060a0015194508060c0015193508060e0015192508061012001519150509193959799909294969850565b60066020528060005260406000206000915054906101000a900460ff1681565b60606009805480602002602001604051908101604052809291908181526020016000905b828210156121a0578382906000526020600020018054612113906149c2565b80601f016020809104026020016040519081016040528092919081815260200182805461213f906149c2565b801561218c5780601f106121615761010080835404028352916020019161218c565b820191906000526020600020905b81548152906001019060200180831161216f57829003601f168201915b5050505050815260200190600101906120f4565b50505050905090565b601460009054906101000a900473ffffffffffffffffffffffffffffffffffffffff1673ffffffffffffffffffffffffffffffffffffffff163373ffffffffffffffffffffffffffffffffffffffff1614612239576040517f08c379a000000000000000000000000000000000000000000000000000000000815260040161223090614c4c565b60405180910390fd5b601860009054906101000a900460ff1615612289576040517f08c379a000000000000000000000000000000000000000000000000000000000815260040161228090614cb8565b60405180910390fd5b6000838051906020012050602060ff161180156122b357506000888051906020012050602060ff16115b80156122cc57506000868051906020012050602060ff16115b80156122e557506000858051906020012050602060ff16115b80156122fe57506000828051906020012050602060ff16115b801561231757506000818051906020012050602060ff16115b612356576040517f08c379a000000000000000000000000000000000000000000000000000000000815260040161234d90614d4a565b60405180910390fd5b6040518060400160405280600481526020017f434e4d5300000000000000000000000000000000000000000000000000000000815250805190602001208680519060200120036125ef576000841180156123b05750600584105b6123ef576040517f08c379a00000000000000000000000000000000000000000000000000000000081526004016123e690614db6565b60405180910390fd5b6002600c600660078110612406576124056149f3565b5b015410612448576040517f08c379a000000000000000000000000000000000000000000000000000000000815260040161243f90615158565b60405180910390fd5b60006040518061014001604052808a815260200189815260200188815260200187815260200186815260200185815260200184815260200183815260200160001515815260200160008152509050806003856040516124a79190614a5e565b908152602001604051809103902060008201518160000190816124ca9190615014565b5060208201518160010190816124e09190615014565b5060408201518160020190816124f69190615014565b50606082015181600301908161250c9190615014565b506080820151816004015560a082015181600501908161252c9190615014565b5060c08201518160060190816125429190615014565b5060e08201518160070190816125589190615014565b506101008201518160080160006101000a81548160ff02191690831515021790555061012082015181600901559050506009849080600181540180825580915050600190039060005260206000200160009091909190915090816125bc9190615014565b50600c6006600781106125d2576125d16149f3565b5b0160008154809291906125e490614b92565b9190505550506135db565b6040518060400160405280600481526020017f434956450000000000000000000000000000000000000000000000000000000081525080519060200120868051906020012003612888576000841180156126495750600484105b612688576040517f08c379a000000000000000000000000000000000000000000000000000000000815260040161267f90614db6565b60405180910390fd5b6002600c60006007811061269f5761269e6149f3565b5b0154106126e1576040517f08c379a00000000000000000000000000000000000000000000000000000000081526004016126d8906151ea565b60405180910390fd5b60006040518061014001604052808a815260200189815260200188815260200187815260200186815260200185815260200184815260200183815260200160001515815260200160008152509050806003856040516127409190614a5e565b908152602001604051809103902060008201518160000190816127639190615014565b5060208201518160010190816127799190615014565b50604082015181600201908161278f9190615014565b5060608201518160030190816127a59190615014565b506080820151816004015560a08201518160050190816127c59190615014565b5060c08201518160060190816127db9190615014565b5060e08201518160070190816127f19190615014565b506101008201518160080160006101000a81548160ff02191690831515021790555061012082015181600901559050506009849080600181540180825580915050600190039060005260206000200160009091909190915090816128559190615014565b50600c60006007811061286b5761286a6149f3565b5b01600081548092919061287d90614b92565b9190505550506135da565b6040518060400160405280600481526020017f544942410000000000000000000000000000000000000000000000000000000081525080519060200120868051906020012003612b21576000841180156128e25750600484105b612921576040517f08c379a000000000000000000000000000000000000000000000000000000000815260040161291890614db6565b60405180910390fd5b6002600c600160078110612938576129376149f3565b5b01541061297a576040517f08c379a00000000000000000000000000000000000000000000000000000000081526004016129719061527c565b60405180910390fd5b60006040518061014001604052808a815260200189815260200188815260200187815260200186815260200185815260200184815260200183815260200160001515815260200160008152509050806003856040516129d99190614a5e565b908152602001604051809103902060008201518160000190816129fc9190615014565b506020820151816001019081612a129190615014565b506040820151816002019081612a289190615014565b506060820151816003019081612a3e9190615014565b506080820151816004015560a0820151816005019081612a5e9190615014565b5060c0820151816006019081612a749190615014565b5060e0820151816007019081612a8a9190615014565b506101008201518160080160006101000a81548160ff0219169083151502179055506101208201518160090155905050600984908060018154018082558091505060019003906000526020600020016000909190919091509081612aee9190615014565b50600c600160078110612b0457612b036149f3565b5b016000815480929190612b1690614b92565b9190505550506135d9565b6040518060400160405280600481526020017f434f45440000000000000000000000000000000000000000000000000000000081525080519060200120868051906020012003612dba57600084118015612b7b5750600484105b612bba576040517f08c379a0000000000000000000000000000000000000000000000000000000008152600401612bb190614db6565b60405180910390fd5b6002600c600260078110612bd157612bd06149f3565b5b015410612c13576040517f08c379a0000000000000000000000000000000000000000000000000000000008152600401612c0a9061530e565b60405180910390fd5b60006040518061014001604052808a81526020018981526020018881526020018781526020018681526020018581526020018481526020018381526020016000151581526020016000815250905080600385604051612c729190614a5e565b90815260200160405180910390206000820151816000019081612c959190615014565b506020820151816001019081612cab9190615014565b506040820151816002019081612cc19190615014565b506060820151816003019081612cd79190615014565b506080820151816004015560a0820151816005019081612cf79190615014565b5060c0820151816006019081612d0d9190615014565b5060e0820151816007019081612d239190615014565b506101008201518160080160006101000a81548160ff0219169083151502179055506101208201518160090155905050600984908060018154018082558091505060019003906000526020600020016000909190919091509081612d879190615014565b50600c600260078110612d9d57612d9c6149f3565b5b016000815480929190612daf90614b92565b9190505550506135d8565b6040518060400160405280600481526020017f434f4553000000000000000000000000000000000000000000000000000000008152508051906020012086805190602001200361305357600084118015612e145750600484105b612e53576040517f08c379a0000000000000000000000000000000000000000000000000000000008152600401612e4a90614db6565b60405180910390fd5b6002600c600360078110612e6a57612e696149f3565b5b015410612eac576040517f08c379a0000000000000000000000000000000000000000000000000000000008152600401612ea3906153a0565b60405180910390fd5b60006040518061014001604052808a81526020018981526020018881526020018781526020018681526020018581526020018481526020018381526020016000151581526020016000815250905080600385604051612f0b9190614a5e565b90815260200160405180910390206000820151816000019081612f2e9190615014565b506020820151816001019081612f449190615014565b506040820151816002019081612f5a9190615014565b506060820151816003019081612f709190615014565b506080820151816004015560a0820151816005019081612f909190615014565b5060c0820151816006019081612fa69190615014565b5060e0820151816007019081612fbc9190615014565b506101008201518160080160006101000a81548160ff02191690831515021790555061012082015181600901559050506009849080600181540180825580915050600190039060005260206000200160009091909190915090816130209190615014565b50600c600360078110613036576130356149f3565b5b01600081548092919061304890614b92565b9190505550506135d7565b6040518060400160405280600481526020017f4353424c00000000000000000000000000000000000000000000000000000000815250805190602001208680519060200120036132ec576000841180156130ad5750600484105b6130ec576040517f08c379a00000000000000000000000000000000000000000000000000000000081526004016130e390614db6565b60405180910390fd5b6002600c600460078110613103576131026149f3565b5b015410613145576040517f08c379a000000000000000000000000000000000000000000000000000000000815260040161313c90615432565b60405180910390fd5b60006040518061014001604052808a815260200189815260200188815260200187815260200186815260200185815260200184815260200183815260200160001515815260200160008152509050806003856040516131a49190614a5e565b908152602001604051809103902060008201518160000190816131c79190615014565b5060208201518160010190816131dd9190615014565b5060408201518160020190816131f39190615014565b5060608201518160030190816132099190615014565b506080820151816004015560a08201518160050190816132299190615014565b5060c082015181600601908161323f9190615014565b5060e08201518160070190816132559190615014565b506101008201518160080160006101000a81548160ff02191690831515021790555061012082015181600901559050506009849080600181540180825580915050600190039060005260206000200160009091909190915090816132b99190615014565b50600c6004600781106132cf576132ce6149f3565b5b0160008154809291906132e190614b92565b9190505550506135d6565b6040518060400160405280600481526020017f434853530000000000000000000000000000000000000000000000000000000081525080519060200120868051906020012003613585576000841180156133465750600484105b613385576040517f08c379a000000000000000000000000000000000000000000000000000000000815260040161337c90614db6565b60405180910390fd5b6002600c60056007811061339c5761339b6149f3565b5b0154106133de576040517f08c379a00000000000000000000000000000000000000000000000000000000081526004016133d5906154c4565b60405180910390fd5b60006040518061014001604052808a8152602001898152602001888152602001878152602001868152602001858152602001848152602001838152602001600015158152602001600081525090508060038560405161343d9190614a5e565b908152602001604051809103902060008201518160000190816134609190615014565b5060208201518160010190816134769190615014565b50604082015181600201908161348c9190615014565b5060608201518160030190816134a29190615014565b506080820151816004015560a08201518160050190816134c29190615014565b5060c08201518160060190816134d89190615014565b5060e08201518160070190816134ee9190615014565b506101008201518160080160006101000a81548160ff02191690831515021790555061012082015181600901559050506009849080600181540180825580915050600190039060005260206000200160009091909190915090816135529190615014565b50600c600560078110613568576135676149f3565b5b01600081548092919061357a90614b92565b9190505550506135d5565b6000841180156135955750600484105b6135d4576040517f08c379a00000000000000000000000000000000000000000000000000000000081526004016135cb90614db6565b60405180910390fd5b5b5b5b5b5b5b5b5050505050505050565b6001818051602081018201805184825260208301602085012081835280955050505050506000915054906101000a900460ff1681565b600b5481565b6008818154811061363157600080fd5b90600052602060002001600091509050805461364c906149c2565b80601f0160208091040260200160405190810160405280929190818152602001828054613678906149c2565b80156136c55780601f1061369a576101008083540402835291602001916136c5565b820191906000526020600020905b8154815290600101906020018083116136a857829003601f168201915b505050505081565b600c81600781106136dd57600080fd5b016000915090505481565b601460009054906101000a900473ffffffffffffffffffffffffffffffffffffffff1673ffffffffffffffffffffffffffffffffffffffff163373ffffffffffffffffffffffffffffffffffffffff1614613778576040517f08c379a000000000000000000000000000000000000000000000000000000000815260040161376f90614c4c565b60405180910390fd5b601860009054906101000a900460ff16156137c8576040517f08c379a00000000000000000000000000000000000000000000000000000000081526004016137bf90614cb8565b60405180910390fd5b6000838051906020012050602060ff161180156137f257506000888051906020012050602060ff16115b801561380b57506000868051906020012050602060ff16115b801561382457506000858051906020012050602060ff16115b801561383d57506000828051906020012050602060ff16115b801561385657506000818051906020012050602060ff16115b613895576040517f08c379a000000000000000000000000000000000000000000000000000000000815260040161388c90614d4a565b60405180910390fd5b60006040518061014001604052808a815260200189815260200188815260200187815260200186815260200185815260200184815260200183815260200160001515815260200160008152509050806004856040516138f49190614a5e565b908152602001604051809103902060008201518160000190816139179190615014565b50602082015181600101908161392d9190615014565b5060408201518160020190816139439190615014565b5060608201518160030190816139599190615014565b506080820151816004015560a08201518160050190816139799190615014565b5060c082015181600601908161398f9190615014565b5060e08201518160070190816139a59190615014565b506101008201518160080160006101000a81548160ff0219169083151502179055506101208201518160090155905050600a84908060018154018082558091505060019003906000526020600020016000909190919091509081613a099190615014565b50505050505050505050565b600381805160208101820180518482526020830160208501208183528095505050505050600091509050806000018054613a4e906149c2565b80601f0160208091040260200160405190810160405280929190818152602001828054613a7a906149c2565b8015613ac75780601f10613a9c57610100808354040283529160200191613ac7565b820191906000526020600020905b815481529060010190602001808311613aaa57829003601f168201915b505050505090806001018054613adc906149c2565b80601f0160208091040260200160405190810160405280929190818152602001828054613b08906149c2565b8015613b555780601f10613b2a57610100808354040283529160200191613b55565b820191906000526020600020905b815481529060010190602001808311613b3857829003601f168201915b505050505090806002018054613b6a906149c2565b80601f0160208091040260200160405190810160405280929190818152602001828054613b96906149c2565b8015613be35780601f10613bb857610100808354040283529160200191613be3565b820191906000526020600020905b815481529060010190602001808311613bc657829003601f168201915b505050505090806003018054613bf8906149c2565b80601f0160208091040260200160405190810160405280929190818152602001828054613c24906149c2565b8015613c715780601f10613c4657610100808354040283529160200191613c71565b820191906000526020600020905b815481529060010190602001808311613c5457829003601f168201915b505050505090806004015490806005018054613c8c906149c2565b80601f0160208091040260200160405190810160405280929190818152602001828054613cb8906149c2565b8015613d055780601f10613cda57610100808354040283529160200191613d05565b820191906000526020600020905b815481529060010190602001808311613ce857829003601f168201915b505050505090806006018054613d1a906149c2565b80601f0160208091040260200160405190810160405280929190818152602001828054613d46906149c2565b8015613d935780601f10613d6857610100808354040283529160200191613d93565b820191906000526020600020905b815481529060010190602001808311613d7657829003601f168201915b505050505090806007018054613da8906149c2565b80601f0160208091040260200160405190810160405280929190818152602001828054613dd4906149c2565b8015613e215780601f10613df657610100808354040283529160200191613e21565b820191906000526020600020905b815481529060010190602001808311613e0457829003601f168201915b5050505050908060080160009054906101000a900460ff1690806009015490508a565b60135481565b601460009054906101000a900473ffffffffffffffffffffffffffffffffffffffff1681565b6060600a805480602002602001604051908101604052809291908181526020016000905b82821015613f40578382906000526020600020018054613eb3906149c2565b80601f0160208091040260200160405190810160405280929190818152602001828054613edf906149c2565b8015613f2c5780601f10613f0157610100808354040283529160200191613f2c565b820191906000526020600020905b815481529060010190602001808311613f0f57829003601f168201915b505050505081526020019060010190613e94565b50505050905090565b6040518061014001604052806060815260200160608152602001606081526020016060815260200160008152602001606081526020016060815260200160608152602001600015158152602001600081525090565b6000604051905090565b600080fd5b600080fd5b6000819050919050565b613fc581613fb2565b8114613fd057600080fd5b50565b600081359050613fe281613fbc565b92915050565b600060208284031215613ffe57613ffd613fa8565b5b600061400c84828501613fd3565b91505092915050565b600081519050919050565b600082825260208201905092915050565b60005b8381101561404f578082015181840152602081019050614034565b60008484015250505050565b6000601f19601f8301169050919050565b600061407782614015565b6140818185614020565b9350614091818560208601614031565b61409a8161405b565b840191505092915050565b600060208201905081810360008301526140bf818461406c565b905092915050565b600073ffffffffffffffffffffffffffffffffffffffff82169050919050565b60006140f2826140c7565b9050919050565b614102816140e7565b811461410d57600080fd5b50565b60008135905061411f816140f9565b92915050565b60006020828403121561413b5761413a613fa8565b5b600061414984828501614110565b91505092915050565b60008115159050919050565b61416781614152565b82525050565b6000602082019050614182600083018461415e565b92915050565b61419181613fb2565b82525050565b60006020820190506141ac6000830184614188565b92915050565b600080fd5b600080fd5b7f4e487b7100000000000000000000000000000000000000000000000000000000600052604160045260246000fd5b6141f48261405b565b810181811067ffffffffffffffff82111715614213576142126141bc565b5b80604052505050565b6000614226613f9e565b905061423282826141eb565b919050565b600067ffffffffffffffff821115614252576142516141bc565b5b61425b8261405b565b9050602081019050919050565b82818337600083830152505050565b600061428a61428584614237565b61421c565b9050828152602081018484840111156142a6576142a56141b7565b5b6142b1848285614268565b509392505050565b600082601f8301126142ce576142cd6141b2565b5b81356142de848260208601614277565b91505092915050565b6000602082840312156142fd576142fc613fa8565b5b600082013567ffffffffffffffff81111561431b5761431a613fad565b5b614327848285016142b9565b91505092915050565b600061014082019050818103600083015261434b818d61406c565b9050818103602083015261435f818c61406c565b90508181036040830152614373818b61406c565b90508181036060830152614387818a61406c565b90506143966080830189614188565b81810360a08301526143a8818861406c565b905081810360c08301526143bc818761406c565b905081810360e08301526143d0818661406c565b90506143e061010083018561415e565b6143ee610120830184614188565b9b9a5050505050505050505050565b600081519050919050565b600082825260208201905092915050565b6000819050602082019050919050565b600082825260208201905092915050565b600061444582614015565b61444f8185614429565b935061445f818560208601614031565b6144688161405b565b840191505092915050565b61447c81613fb2565b82525050565b61448b81614152565b82525050565b60006101408301600083015184820360008601526144af828261443a565b915050602083015184820360208601526144c9828261443a565b915050604083015184820360408601526144e3828261443a565b915050606083015184820360608601526144fd828261443a565b91505060808301516145126080860182614473565b5060a083015184820360a086015261452a828261443a565b91505060c083015184820360c0860152614544828261443a565b91505060e083015184820360e086015261455e828261443a565b915050610100830151614575610100860182614482565b5061012083015161458a610120860182614473565b508091505092915050565b60006145a18383614491565b905092915050565b6000602082019050919050565b60006145c1826143fd565b6145cb8185614408565b9350836020820285016145dd85614419565b8060005b8581101561461957848403895281516145fa8582614595565b9450614605836145a9565b925060208a019950506001810190506145e1565b50829750879550505050505092915050565b6000602082019050818103600083015261464581846145b6565b905092915050565b600081519050919050565b600082825260208201905092915050565b6000819050602082019050919050565b6000614685838361443a565b905092915050565b6000602082019050919050565b60006146a58261464d565b6146af8185614658565b9350836020820285016146c185614669565b8060005b858110156146fd57848403895281516146de8582614679565b94506146e98361468d565b925060208a019950506001810190506146c5565b50829750879550505050505092915050565b60006020820190508181036000830152614729818461469a565b905092915050565b600080600080600080600080610100898b03121561475257614751613fa8565b5b600089013567ffffffffffffffff8111156147705761476f613fad565b5b61477c8b828c016142b9565b985050602089013567ffffffffffffffff81111561479d5761479c613fad565b5b6147a98b828c016142b9565b975050604089013567ffffffffffffffff8111156147ca576147c9613fad565b5b6147d68b828c016142b9565b965050606089013567ffffffffffffffff8111156147f7576147f6613fad565b5b6148038b828c016142b9565b95505060806148148b828c01613fd3565b94505060a089013567ffffffffffffffff81111561483557614834613fad565b5b6148418b828c016142b9565b93505060c089013567ffffffffffffffff81111561486257614861613fad565b5b61486e8b828c016142b9565b92505060e089013567ffffffffffffffff81111561488f5761488e613fad565b5b61489b8b828c016142b9565b9150509295985092959890939650565b60006101208201905081810360008301526148c6818c61406c565b905081810360208301526148da818b61406c565b905081810360408301526148ee818a61406c565b90508181036060830152614902818961406c565b90506149116080830188614188565b81810360a0830152614923818761406c565b905081810360c0830152614937818661406c565b905081810360e083015261494b818561406c565b905061495b610100830184614188565b9a9950505050505050505050565b614972816140e7565b82525050565b600060208201905061498d6000830184614969565b92915050565b7f4e487b7100000000000000000000000000000000000000000000000000000000600052602260045260246000fd5b600060028204905060018216806149da57607f821691505b6020821081036149ed576149ec614993565b5b50919050565b7f4e487b7100000000000000000000000000000000000000000000000000000000600052603260045260246000fd5b600081905092915050565b6000614a3882614015565b614a428185614a22565b9350614a52818560208601614031565b80840191505092915050565b6000614a6a8284614a2d565b915081905092915050565b600081905092915050565b60008190508160005260206000209050919050565b60008154614aa2816149c2565b614aac8186614a75565b94506001821660008114614ac75760018114614adc57614b0f565b60ff1983168652811515820286019350614b0f565b614ae585614a80565b60005b83811015614b0757815481890152600182019150602081019050614ae8565b838801955050505b50505092915050565b6000614b248284614a95565b915081905092915050565b7f4e487b7100000000000000000000000000000000000000000000000000000000600052601160045260246000fd5b6000614b6982613fb2565b9150614b7483613fb2565b9250828201905080821115614b8c57614b8b614b2f565b5b92915050565b6000614b9d82613fb2565b91507fffffffffffffffffffffffffffffffffffffffffffffffffffffffffffffffff8203614bcf57614bce614b2f565b5b600182019050919050565b7f4f6e6c792061646d696e2063616e20706572666f726d2074686973206163746960008201527f6f6e000000000000000000000000000000000000000000000000000000000000602082015250565b6000614c36602283614020565b9150614c4182614bda565b604082019050919050565b60006020820190508181036000830152614c6581614c29565b9050919050565b7f566f74696e672070726f6365737320616c726561647920737461727465640000600082015250565b6000614ca2601e83614020565b9150614cad82614c6c565b602082019050919050565b60006020820190508181036000830152614cd181614c95565b9050919050565b7f4d616b652073757265206576657279206669656c642063616e6e6f742062652060008201527f656d707479000000000000000000000000000000000000000000000000000000602082015250565b6000614d34602583614020565b9150614d3f82614cd8565b604082019050919050565b60006020820190508181036000830152614d6381614d27565b9050919050565b7f496e76616c69642079656172206f662053747564790000000000000000000000600082015250565b6000614da0601583614020565b9150614dab82614d6a565b602082019050919050565b60006020820190508181036000830152614dcf81614d93565b9050919050565b7f546865207265676973746572656420707265736964656e7420697320656e6f7560008201527f6768210000000000000000000000000000000000000000000000000000000000602082015250565b6000614e32602383614020565b9150614e3d82614dd6565b604082019050919050565b60006020820190508181036000830152614e6181614e25565b9050919050565b60008190508160005260206000209050919050565b60006020601f8301049050919050565b600082821b905092915050565b600060088302614eca7fffffffffffffffffffffffffffffffffffffffffffffffffffffffffffffffff82614e8d565b614ed48683614e8d565b95508019841693508086168417925050509392505050565b6000819050919050565b6000614f11614f0c614f0784613fb2565b614eec565b613fb2565b9050919050565b6000819050919050565b614f2b83614ef6565b614f3f614f3782614f18565b848454614e9a565b825550505050565b600090565b614f54614f47565b614f5f818484614f22565b505050565b5b81811015614f8357614f78600082614f4c565b600181019050614f65565b5050565b601f821115614fc857614f9981614e68565b614fa284614e7d565b81016020851015614fb1578190505b614fc5614fbd85614e7d565b830182614f64565b50505b505050565b600082821c905092915050565b6000614feb60001984600802614fcd565b1980831691505092915050565b60006150048383614fda565b9150826002028217905092915050565b61501d82614015565b67ffffffffffffffff811115615036576150356141bc565b5b61504082546149c2565b61504b828285614f87565b600060209050601f83116001811461507e576000841561506c578287015190505b6150768582614ff8565b8655506150de565b601f19841661508c86614e68565b60005b828110156150b45784890151825560018201915060208501945060208101905061508f565b868310156150d157848901516150cd601f891682614fda565b8355505b6001600288020188555050505b505050505050565b7f546865207265676973746572656420476f7665726e6f7220617420434e4d532060008201527f636f6c6c65676520697320656e6f756768210000000000000000000000000000602082015250565b6000615142603283614020565b915061514d826150e6565b604082019050919050565b6000602082019050818103600083015261517181615135565b9050919050565b7f546865207265676973746572656420676f7665726e6f7220617420434956452060008201527f636f6c6c65676520697320656e6f756768210000000000000000000000000000602082015250565b60006151d4603283614020565b91506151df82615178565b604082019050919050565b60006020820190508181036000830152615203816151c7565b9050919050565b7f546865207265676973746572656420676f7665726e6f7220617420544942412060008201527f636f6c6c65676520697320656e6f756768210000000000000000000000000000602082015250565b6000615266603283614020565b91506152718261520a565b604082019050919050565b6000602082019050818103600083015261529581615259565b9050919050565b7f546865207265676973746572656420676f7665726e6f7220617420434f45442060008201527f636f6c6c65676520697320656e6f756768210000000000000000000000000000602082015250565b60006152f8603283614020565b91506153038261529c565b604082019050919050565b60006020820190508181036000830152615327816152eb565b9050919050565b7f546865207265676973746572656420676f7665726e6f7220617420434f45532060008201527f636f6c6c65676520697320656e6f756768210000000000000000000000000000602082015250565b600061538a603283614020565b91506153958261532e565b604082019050919050565b600060208201905081810360008301526153b98161537d565b9050919050565b7f546865207265676973746572656420676f7665726e6f72206174204353424c2060008201527f636f6c6c65676520697320656e6f756768210000000000000000000000000000602082015250565b600061541c603283614020565b9150615427826153c0565b604082019050919050565b6000602082019050818103600083015261544b8161540f565b9050919050565b7f546865207265676973746572656420676f7665726e6f7220617420434853532060008201527f636f6c6c65676520697320656e6f756768210000000000000000000000000000602082015250565b60006154ae603283614020565b91506154b982615452565b604082019050919050565b600060208201905081810360008301526154dd816154a1565b905091905056fea2646970667358221220b436eb1dce1780e093d8f46daf3be7457cb4f822b593dd4dfe823282ce8ec0a464736f6c63430008130033",
  "immutableReferences": {},
  "source": "// SPDX-License-Identifier: MIT\npragma solidity ^0.8.0;\nimport \"./CandidateStructure.sol\";\nimport \"./AccessControl.sol\";\nimport \"./TimeStructure.sol\";\n\ncontract CandidateRegistry is CandidateStructure, AccessControl, TimeStructure{\n\n    event NewPresidentRegistered(string firstName, string lastName, string collegeName, string programName, uint256 yearOfStudy, string regNo, string blockNumber, string gender);\n    event NewGovernorRegistered(string firstName, string lastName, string collegeName, string programName, uint256 yearOfStudy, string regNo, string blockNumber, string gender);\n    event NewBlockLeaderRegistered(string firstName, string lastName, string collegeName, string programName, uint256 yearOfStudy, string regNo, string blockNumber, string gender);\n\n    function registerPresident(string memory _firstName, string memory _lastName, string memory _collegeName,string memory _programName, uint256 _yearOfStudy, string memory _regNo, string memory _blockNumber, string memory _gender) public onlyAdmin{\n        require(!isInitiated, \"Voting process already started\");\n        require(keccak256(bytes(_regNo)).length > 0 && keccak256(bytes(_firstName)).length > 0 && keccak256(bytes(_collegeName)).length > 0\n        && keccak256(bytes(_programName)).length > 0 && keccak256(bytes(_blockNumber)).length > 0 \n        && keccak256(bytes(_gender)).length > 0, \"Make sure every field cannot be empty\");\n        if(keccak256(bytes(_collegeName)) == keccak256(bytes(\"TIBA\"))){\n            require(_yearOfStudy > 0 && _yearOfStudy < 5, \"Invalid year of Study\");\n        }else{\n            require(_yearOfStudy > 0 && _yearOfStudy < 4, \"Invalid year of Study\");\n        } \n        // require(!candidatePresident[_regNo].isRegistered, \"You have already registered this President.\");\n        require(numberOfPresident < 2, \"The registered president is enough!\");\n        Candidate memory newCandidate = Candidate({\n            firstName: _firstName,\n            lastName: _lastName,       \n            collegeName: _collegeName,\n            programName: _programName,\n            yearOfStudy: _yearOfStudy, \n            regNo: _regNo, \n            blockNumber: _blockNumber,\n            gender: _gender, \n            isWinner: false, \n            \n            voteCount: 0\n        });\n        candidatePresident[_regNo] = newCandidate;\n        presidentList.push(_regNo);\n        numberOfPresident++;\n\n        // emit NewPresidentRegistered(_firstName, _collegeName, _programName, _yearOfStudy, _regNo, _blockNumber, _gender);\n    }\n\n    function registerGovernor(string memory _firstName, string memory _lastName, string memory _collegeName,string memory _programName, uint256 _yearOfStudy, string memory _regNo, string memory _blockNumber, string memory _gender) public onlyAdmin{\n        require(!isInitiated, \"Voting process already started\");\n        require(keccak256(bytes(_regNo)).length > 0 && keccak256(bytes(_firstName)).length > 0 && keccak256(bytes(_collegeName)).length > 0\n        && keccak256(bytes(_programName)).length > 0 && keccak256(bytes(_blockNumber)).length > 0 \n        && keccak256(bytes(_gender)).length > 0, \"Make sure every field cannot be empty\");\n        // require(!candidateGovernor[_regNo].isRegistered, \"You have already registered this Governor.\");\n        if(keccak256(bytes(_collegeName)) == keccak256(bytes(\"CNMS\"))){\n            require(_yearOfStudy > 0 && _yearOfStudy < 5, \"Invalid year of Study\");\n            require(numberOfGovernor[6] < 2, \"The registered Governor at CNMS college is enough!\");\n            Candidate memory newCandidate = Candidate({firstName: _firstName, lastName: _lastName, collegeName: _collegeName,programName: _programName, yearOfStudy: _yearOfStudy, \n            regNo: _regNo, blockNumber: _blockNumber,gender: _gender, isWinner: false, voteCount: 0\n            });\n            candidateGovernor[_regNo] = newCandidate;\n            // candidateGovernorCnms[_regNo] = newCandidate;\n            governorList.push(_regNo);\n            numberOfGovernor[6]++;\n\n            // emit NewGovernorRegistered(_firstName, _collegeName, _programName, _yearOfStudy, _regNo, _blockNumber, _gender);\n        }\n        else if(keccak256(bytes(_collegeName)) == keccak256(bytes(\"CIVE\"))){\n            require(_yearOfStudy > 0 && _yearOfStudy < 4, \"Invalid year of Study\");\n            require(numberOfGovernor[0] < 2, \"The registered governor at CIVE college is enough!\");\n            Candidate memory newCandidate = Candidate({firstName: _firstName, lastName: _lastName, collegeName: _collegeName,programName: _programName, yearOfStudy: _yearOfStudy, \n            regNo: _regNo, blockNumber: _blockNumber,gender: _gender, isWinner: false, voteCount: 0\n            });\n            candidateGovernor[_regNo] = newCandidate;\n            governorList.push(_regNo);\n            numberOfGovernor[0]++;\n\n            // emit NewGovernorRegistered(_firstName, _collegeName, _programName, _yearOfStudy, _regNo, _blockNumber, _gender);\n        }\n        else if(keccak256(bytes(_collegeName)) == keccak256(bytes(\"TIBA\"))){\n            require(_yearOfStudy > 0 && _yearOfStudy < 4, \"Invalid year of Study\");\n            require(numberOfGovernor[1] < 2, \"The registered governor at TIBA college is enough!\");\n            Candidate memory newCandidate = Candidate({firstName: _firstName, lastName: _lastName, collegeName: _collegeName,programName: _programName, yearOfStudy: _yearOfStudy, \n            regNo: _regNo, blockNumber: _blockNumber,gender: _gender, isWinner: false, voteCount: 0\n            });\n            candidateGovernor[_regNo] = newCandidate;\n            // candidateGovernorTiba[_regNo] = newCandidate;\n            governorList.push(_regNo);\n            numberOfGovernor[1]++;\n\n            // emit NewGovernorRegistered(_firstName, _collegeName, _programName, _yearOfStudy, _regNo, _blockNumber, _gender);\n        }\n        else if(keccak256(bytes(_collegeName)) == keccak256(bytes(\"COED\"))){\n            require(_yearOfStudy > 0 && _yearOfStudy < 4, \"Invalid year of Study\");\n            require(numberOfGovernor[2] < 2, \"The registered governor at COED college is enough!\");\n            Candidate memory newCandidate = Candidate({firstName: _firstName, lastName: _lastName, collegeName: _collegeName,programName: _programName, yearOfStudy: _yearOfStudy, \n            regNo: _regNo, blockNumber: _blockNumber,gender: _gender, isWinner: false, voteCount: 0\n            });\n            candidateGovernor[_regNo] = newCandidate;\n            // candidateGovernorCoed[_regNo] = newCandidate;\n            governorList.push(_regNo);\n            numberOfGovernor[2]++;\n\n            // emit NewGovernorRegistered(_firstName, _collegeName, _programName, _yearOfStudy, _regNo, _blockNumber, _gender);\n        }\n        else if(keccak256(bytes(_collegeName)) == keccak256(bytes(\"COES\"))){\n            require(_yearOfStudy > 0 && _yearOfStudy < 4, \"Invalid year of Study\");\n            require(numberOfGovernor[3] < 2, \"The registered governor at COES college is enough!\");\n            Candidate memory newCandidate = Candidate({firstName: _firstName, lastName: _lastName, collegeName: _collegeName,programName: _programName, yearOfStudy: _yearOfStudy, \n            regNo: _regNo, blockNumber: _blockNumber,gender: _gender, isWinner: false, voteCount: 0\n            });\n            candidateGovernor[_regNo] = newCandidate;\n            // candidateGovernorCoes[_regNo] = newCandidate;\n            governorList.push(_regNo);\n            numberOfGovernor[3]++;\n\n            // emit NewGovernorRegistered(_firstName, _collegeName, _programName, _yearOfStudy, _regNo, _blockNumber, _gender);\n        }\n        else if(keccak256(bytes(_collegeName)) == keccak256(bytes(\"CSBL\"))){\n            require(_yearOfStudy > 0 && _yearOfStudy < 4, \"Invalid year of Study\");\n            require(numberOfGovernor[4] < 2, \"The registered governor at CSBL college is enough!\");\n            Candidate memory newCandidate = Candidate({firstName: _firstName, lastName: _lastName, collegeName: _collegeName,programName: _programName, yearOfStudy: _yearOfStudy, \n            regNo: _regNo, blockNumber: _blockNumber,gender: _gender, isWinner: false, voteCount: 0\n            });\n            candidateGovernor[_regNo] = newCandidate;\n            // candidateGovernorCsbl[_regNo] = newCandidate;\n            governorList.push(_regNo);\n            numberOfGovernor[4]++;\n\n            // emit NewGovernorRegistered(_firstName, _collegeName, _programName, _yearOfStudy, _regNo, _blockNumber, _gender);\n        }\n        else if(keccak256(bytes(_collegeName)) == keccak256(bytes(\"CHSS\"))){\n            require(_yearOfStudy > 0 && _yearOfStudy < 4, \"Invalid year of Study\");\n            require(numberOfGovernor[5] < 2, \"The registered governor at CHSS college is enough!\");\n            Candidate memory newCandidate = Candidate({firstName: _firstName, lastName: _lastName, collegeName: _collegeName,programName: _programName, yearOfStudy: _yearOfStudy, \n            regNo: _regNo, blockNumber: _blockNumber,gender: _gender, isWinner: false, voteCount: 0\n            });\n            candidateGovernor[_regNo] = newCandidate;\n            governorList.push(_regNo);\n            numberOfGovernor[5]++;\n\n            // emit NewGovernorRegistered(_firstName, _collegeName, _programName, _yearOfStudy, _regNo, _blockNumber, _gender);\n        }\n\n        else{\n            require(_yearOfStudy > 0 && _yearOfStudy < 4, \"Invalid year of Study\");\n        }       \n    }\n\n    function registerBlockLeader(string memory _firstName, string memory _lastName, string memory _collegeName,string memory _programName, uint256 _yearOfStudy, string memory _regNo, string memory _blockNumber, string memory _gender) public onlyAdmin{\n        require(!isInitiated, \"Voting process already started\");\n        require(keccak256(bytes(_regNo)).length > 0 && keccak256(bytes(_firstName)).length > 0 && keccak256(bytes(_collegeName)).length > 0\n        && keccak256(bytes(_programName)).length > 0 && keccak256(bytes(_blockNumber)).length > 0\n        && keccak256(bytes(_gender)).length > 0, \"Make sure every field cannot be empty\");\n        // if(keccak256(bytes(_collegeName)) == keccak256(bytes(\"TIBA\"))){\n        //     require(_yearOfStudy > 0 && _yearOfStudy < 5, \"Invalid year of Study\");\n        // }else{\n        //     require(_yearOfStudy > 0 && _yearOfStudy < 4, \"Invalid year of Study\");\n        // }        \n        // require(!candidateBlockLeader[_regNo].isRegistered, \"You have already registered this blockLeader.\");\n        // require(numberOfPresident < 2, \"The registered BlockLeader is enough!\");\n        Candidate memory newCandidate = Candidate({\n            firstName: _firstName,\n            lastName: _lastName,       \n            collegeName: _collegeName,\n            programName: _programName,\n            yearOfStudy: _yearOfStudy, \n            regNo: _regNo, \n            blockNumber: _blockNumber,\n            gender: _gender, \n            isWinner: false, \n            voteCount: 0\n        });\n        candidateBlockLeader[_regNo] = newCandidate;\n        blockLeaderList.push(_regNo);\n\n        // emit NewBlockLeaderRegistered(_firstName, _collegeName, _programName, _yearOfStudy, _regNo, _blockNumber, _gender);\n    }\n\n    \n\n    //return the registration number for the candidates for each position\n    function getPresidentRegNumber() public view returns (string[] memory){\n        return presidentList;\n    }\n\n    function getGovernorRegNumber() public view returns (string[] memory){\n        return governorList;\n    }\n\n    function getBlockLeaderRegNumber() public view returns (string[] memory){\n        return blockLeaderList;\n    }\n\n    //Admin view candidates for a specific position of vote\n\n    // function viewPresident(string memory _regNo) public view returns(string memory firstName,string memory lastName, \n    //     string memory collegeName, string memory programName, uint256 yearOfStudy, string memory regNo, string memory blockNumber, string memory gender,uint256 voteCount){\n    //     Candidate memory candidatePres = candidatePresident[_regNo];\n    //     firstName = candidatePres.firstName;\n    //     lastName = candidatePres.lastName;\n    //     collegeName = candidatePres.collegeName;\n    //     programName = candidatePres.programName;\n    //     yearOfStudy = candidatePres.yearOfStudy;\n    //     regNo = candidatePres.regNo;\n    //     blockNumber = candidatePres.blockNumber;\n    //     gender = candidatePres.gender;\n    //     voteCount = candidatePres.voteCount;\n    // }\n    \n\n    function adminViewGovernors(string memory _regNo) public view returns(string memory firstName,string memory lastName, \n        string memory collegeName, string memory programName, uint256 yearOfStudy, string memory regNo, string memory blockNumber, string memory gender,uint256 voteCount){\n        Candidate memory candidateGov = candidateGovernor[_regNo];\n        firstName = candidateGov.firstName;\n        lastName = candidateGov.lastName;\n        collegeName = candidateGov.collegeName;\n        programName = candidateGov.programName;\n        yearOfStudy = candidateGov.yearOfStudy;\n        regNo = candidateGov.regNo;\n        blockNumber = candidateGov.blockNumber;\n        gender = candidateGov.gender;\n        voteCount = candidateGov.voteCount;\n    }\n\n    function voterViewGovernors(string memory _collegeName) public view returns(Candidate[] memory){\n        Candidate[] memory result = new Candidate[](governorList.length);\n        string[] memory governorLst = governorList;  \n        uint j=0;      \n        for(uint i = 0; i < governorLst.length; i++){\n            if(keccak256(bytes(candidateGovernor[governorLst[i]].collegeName)) == keccak256(bytes(_collegeName))){\n                result[j+1] = candidateGovernor[governorLst[i]];  \n            }            \n        }\n        return result;\n    }\n\n     // function viewGovernors(string memory _collegeName) public view onlyDuringVotingPeriod returns(Candidate[] memory){\n    //     Candidate[] memory result = new Candidate[](governorList.length);\n    //     string[] memory governorLst = governorList;        \n    //     for(uint i = 0; i < governorLst.length; i++){\n    //         if(keccak256(bytes(candidateGovernor[governorLst[i]].collegeName)) == keccak256(bytes(_collegeName))){\n    //             result[i] = candidateGovernor[governorLst[i]];  \n    //         }            \n    //     }\n    //     return result;\n    // }\n\n    // function adminViewBlockLeaders(string memory _regNo) public view returns(string memory firstName,string memory lastName, \n    //     string memory collegeName, string memory programName, uint256 yearOfStudy, string memory regNo, string memory blockNumber, string memory gender,uint256 voteCount){\n    //     Candidate memory candidateBL = candidateBlockLeader[_regNo];\n    //     firstName = candidateBL.firstName;\n    //     lastName = candidateBL.lastName;\n    //     collegeName = candidateBL.collegeName;\n    //     programName = candidateBL.programName;\n    //     yearOfStudy = candidateBL.yearOfStudy;\n    //     regNo = candidateBL.regNo;\n    //     blockNumber = candidateBL.blockNumber;\n    //     gender = candidateBL.gender;\n    //     voteCount = candidateBL.voteCount;\n    // }\n\n}",
  "sourcePath": "/home/temba/Documents/SmartContract/client/contracts/CandidateRegistry.sol",
  "compiler": {
    "name": "solc",
    "version": "0.8.19+commit.7dd6d404.Emscripten.clang"
  },
  "schemaVersion": "3.4.14",
  "updatedAt": "2023-06-20T14:55:58.022Z",
  "devdoc": {
    "kind": "dev",
    "methods": {},
    "version": 1
  },
  "userdoc": {
    "kind": "user",
    "methods": {},
    "version": 1
  }
}