{
  "contractName": "CandidatePresident",
  "abi": [
    {
      "anonymous": false,
      "inputs": [
        {
          "indexed": false,
          "internalType": "string",
          "name": "firstName",
          "type": "string"
        },
        {
          "indexed": false,
          "internalType": "string",
          "name": "lastName",
          "type": "string"
        },
        {
          "indexed": false,
          "internalType": "string",
          "name": "collegeName",
          "type": "string"
        },
        {
          "indexed": false,
          "internalType": "string",
          "name": "programName",
          "type": "string"
        },
        {
          "indexed": false,
          "internalType": "uint256",
          "name": "yearOfStudy",
          "type": "uint256"
        },
        {
          "indexed": false,
          "internalType": "string",
          "name": "regNo",
          "type": "string"
        },
        {
          "indexed": false,
          "internalType": "string",
          "name": "blockNumber",
          "type": "string"
        },
        {
          "indexed": false,
          "internalType": "string",
          "name": "gender",
          "type": "string"
        }
      ],
      "name": "NewPresidentRegistered",
      "type": "event"
    },
    {
      "inputs": [],
      "name": "admin",
      "outputs": [
        {
          "internalType": "address",
          "name": "",
          "type": "address"
        }
      ],
      "stateMutability": "view",
      "type": "function"
    },
    {
      "inputs": [
        {
          "internalType": "uint256",
          "name": "",
          "type": "uint256"
        }
      ],
      "name": "blockLeaderList",
      "outputs": [
        {
          "internalType": "string",
          "name": "",
          "type": "string"
        }
      ],
      "stateMutability": "view",
      "type": "function"
    },
    {
      "inputs": [
        {
          "internalType": "address",
          "name": "",
          "type": "address"
        }
      ],
      "name": "blockLeaderVoted",
      "outputs": [
        {
          "internalType": "bool",
          "name": "",
          "type": "bool"
        }
      ],
      "stateMutability": "view",
      "type": "function"
    },
    {
      "inputs": [
        {
          "internalType": "string",
          "name": "",
          "type": "string"
        }
      ],
      "name": "candidateBlockLeader",
      "outputs": [
        {
          "internalType": "string",
          "name": "firstName",
          "type": "string"
        },
        {
          "internalType": "string",
          "name": "lastName",
          "type": "string"
        },
        {
          "internalType": "string",
          "name": "collegeName",
          "type": "string"
        },
        {
          "internalType": "string",
          "name": "programName",
          "type": "string"
        },
        {
          "internalType": "uint256",
          "name": "yearOfStudy",
          "type": "uint256"
        },
        {
          "internalType": "string",
          "name": "regNo",
          "type": "string"
        },
        {
          "internalType": "string",
          "name": "blockNumber",
          "type": "string"
        },
        {
          "internalType": "string",
          "name": "gender",
          "type": "string"
        },
        {
          "internalType": "bool",
          "name": "isWinner",
          "type": "bool"
        },
        {
          "internalType": "uint256",
          "name": "voteCount",
          "type": "uint256"
        }
      ],
      "stateMutability": "view",
      "type": "function"
    },
    {
      "inputs": [
        {
          "internalType": "string",
          "name": "",
          "type": "string"
        }
      ],
      "name": "candidateGovernor",
      "outputs": [
        {
          "internalType": "string",
          "name": "firstName",
          "type": "string"
        },
        {
          "internalType": "string",
          "name": "lastName",
          "type": "string"
        },
        {
          "internalType": "string",
          "name": "collegeName",
          "type": "string"
        },
        {
          "internalType": "string",
          "name": "programName",
          "type": "string"
        },
        {
          "internalType": "uint256",
          "name": "yearOfStudy",
          "type": "uint256"
        },
        {
          "internalType": "string",
          "name": "regNo",
          "type": "string"
        },
        {
          "internalType": "string",
          "name": "blockNumber",
          "type": "string"
        },
        {
          "internalType": "string",
          "name": "gender",
          "type": "string"
        },
        {
          "internalType": "bool",
          "name": "isWinner",
          "type": "bool"
        },
        {
          "internalType": "uint256",
          "name": "voteCount",
          "type": "uint256"
        }
      ],
      "stateMutability": "view",
      "type": "function"
    },
    {
      "inputs": [
        {
          "internalType": "string",
          "name": "",
          "type": "string"
        }
      ],
      "name": "candidatePresident",
      "outputs": [
        {
          "internalType": "string",
          "name": "firstName",
          "type": "string"
        },
        {
          "internalType": "string",
          "name": "lastName",
          "type": "string"
        },
        {
          "internalType": "string",
          "name": "collegeName",
          "type": "string"
        },
        {
          "internalType": "string",
          "name": "programName",
          "type": "string"
        },
        {
          "internalType": "uint256",
          "name": "yearOfStudy",
          "type": "uint256"
        },
        {
          "internalType": "string",
          "name": "regNo",
          "type": "string"
        },
        {
          "internalType": "string",
          "name": "blockNumber",
          "type": "string"
        },
        {
          "internalType": "string",
          "name": "gender",
          "type": "string"
        },
        {
          "internalType": "bool",
          "name": "isWinner",
          "type": "bool"
        },
        {
          "internalType": "uint256",
          "name": "voteCount",
          "type": "uint256"
        }
      ],
      "stateMutability": "view",
      "type": "function"
    },
    {
      "inputs": [
        {
          "internalType": "uint256",
          "name": "",
          "type": "uint256"
        }
      ],
      "name": "governorList",
      "outputs": [
        {
          "internalType": "string",
          "name": "",
          "type": "string"
        }
      ],
      "stateMutability": "view",
      "type": "function"
    },
    {
      "inputs": [
        {
          "internalType": "address",
          "name": "",
          "type": "address"
        }
      ],
      "name": "governorVoted",
      "outputs": [
        {
          "internalType": "bool",
          "name": "",
          "type": "bool"
        }
      ],
      "stateMutability": "view",
      "type": "function"
    },
    {
      "inputs": [
        {
          "internalType": "address",
          "name": "",
          "type": "address"
        }
      ],
      "name": "hasLogedin",
      "outputs": [
        {
          "internalType": "bool",
          "name": "",
          "type": "bool"
        }
      ],
      "stateMutability": "view",
      "type": "function"
    },
    {
      "inputs": [],
      "name": "isInitiated",
      "outputs": [
        {
          "internalType": "bool",
          "name": "",
          "type": "bool"
        }
      ],
      "stateMutability": "view",
      "type": "function"
    },
    {
      "inputs": [
        {
          "internalType": "string",
          "name": "",
          "type": "string"
        }
      ],
      "name": "isRegistered",
      "outputs": [
        {
          "internalType": "bool",
          "name": "",
          "type": "bool"
        }
      ],
      "stateMutability": "view",
      "type": "function"
    },
    {
      "inputs": [],
      "name": "numberOfBlockLeader",
      "outputs": [
        {
          "internalType": "uint256",
          "name": "",
          "type": "uint256"
        }
      ],
      "stateMutability": "view",
      "type": "function"
    },
    {
      "inputs": [
        {
          "internalType": "uint256",
          "name": "",
          "type": "uint256"
        }
      ],
      "name": "numberOfGovernor",
      "outputs": [
        {
          "internalType": "uint256",
          "name": "",
          "type": "uint256"
        }
      ],
      "stateMutability": "view",
      "type": "function"
    },
    {
      "inputs": [],
      "name": "numberOfPresident",
      "outputs": [
        {
          "internalType": "uint256",
          "name": "",
          "type": "uint256"
        }
      ],
      "stateMutability": "view",
      "type": "function"
    },
    {
      "inputs": [
        {
          "internalType": "uint256",
          "name": "",
          "type": "uint256"
        }
      ],
      "name": "presidentList",
      "outputs": [
        {
          "internalType": "string",
          "name": "",
          "type": "string"
        }
      ],
      "stateMutability": "view",
      "type": "function"
    },
    {
      "inputs": [
        {
          "internalType": "address",
          "name": "",
          "type": "address"
        }
      ],
      "name": "presidentVoted",
      "outputs": [
        {
          "internalType": "bool",
          "name": "",
          "type": "bool"
        }
      ],
      "stateMutability": "view",
      "type": "function"
    },
    {
      "inputs": [],
      "name": "totalVotes",
      "outputs": [
        {
          "internalType": "uint256",
          "name": "",
          "type": "uint256"
        }
      ],
      "stateMutability": "view",
      "type": "function"
    },
    {
      "inputs": [
        {
          "internalType": "address",
          "name": "newAdmin",
          "type": "address"
        }
      ],
      "name": "transferAdmin",
      "outputs": [],
      "stateMutability": "nonpayable",
      "type": "function"
    },
    {
      "inputs": [
        {
          "internalType": "uint256",
          "name": "",
          "type": "uint256"
        }
      ],
      "name": "voterAddressArray",
      "outputs": [
        {
          "internalType": "address",
          "name": "",
          "type": "address"
        }
      ],
      "stateMutability": "view",
      "type": "function"
    },
    {
      "inputs": [
        {
          "internalType": "address",
          "name": "",
          "type": "address"
        }
      ],
      "name": "voterSession",
      "outputs": [
        {
          "internalType": "string",
          "name": "",
          "type": "string"
        }
      ],
      "stateMutability": "view",
      "type": "function"
    },
    {
      "inputs": [
        {
          "internalType": "address",
          "name": "",
          "type": "address"
        }
      ],
      "name": "voters",
      "outputs": [
        {
          "internalType": "address",
          "name": "voterAddress",
          "type": "address"
        },
        {
          "internalType": "string",
          "name": "firstName",
          "type": "string"
        },
        {
          "internalType": "string",
          "name": "lastName",
          "type": "string"
        },
        {
          "internalType": "string",
          "name": "collegeName",
          "type": "string"
        },
        {
          "internalType": "string",
          "name": "programName",
          "type": "string"
        },
        {
          "internalType": "uint256",
          "name": "yearOfStudy",
          "type": "uint256"
        },
        {
          "internalType": "string",
          "name": "regNo",
          "type": "string"
        },
        {
          "internalType": "string",
          "name": "blockNumber",
          "type": "string"
        },
        {
          "internalType": "string",
          "name": "password",
          "type": "string"
        },
        {
          "internalType": "string",
          "name": "gender",
          "type": "string"
        },
        {
          "internalType": "bool",
          "name": "isRegistered",
          "type": "bool"
        },
        {
          "internalType": "bool",
          "name": "voted",
          "type": "bool"
        }
      ],
      "stateMutability": "view",
      "type": "function"
    },
    {
      "inputs": [
        {
          "internalType": "string",
          "name": "_firstName",
          "type": "string"
        },
        {
          "internalType": "string",
          "name": "_lastName",
          "type": "string"
        },
        {
          "internalType": "string",
          "name": "_collegeName",
          "type": "string"
        },
        {
          "internalType": "string",
          "name": "_programName",
          "type": "string"
        },
        {
          "internalType": "uint256",
          "name": "_yearOfStudy",
          "type": "uint256"
        },
        {
          "internalType": "string",
          "name": "_regNo",
          "type": "string"
        },
        {
          "internalType": "string",
          "name": "_blockNumber",
          "type": "string"
        },
        {
          "internalType": "string",
          "name": "_gender",
          "type": "string"
        }
      ],
      "name": "registerPresident",
      "outputs": [],
      "stateMutability": "nonpayable",
      "type": "function"
    },
    {
      "inputs": [],
      "name": "getPresidentRegNumber",
      "outputs": [
        {
          "internalType": "string[]",
          "name": "",
          "type": "string[]"
        }
      ],
      "stateMutability": "view",
      "type": "function"
    },
    {
      "inputs": [
        {
          "internalType": "string",
          "name": "_regNo",
          "type": "string"
        }
      ],
      "name": "viewPresident",
      "outputs": [
        {
          "internalType": "string",
          "name": "firstName",
          "type": "string"
        },
        {
          "internalType": "string",
          "name": "lastName",
          "type": "string"
        },
        {
          "internalType": "string",
          "name": "collegeName",
          "type": "string"
        },
        {
          "internalType": "string",
          "name": "programName",
          "type": "string"
        },
        {
          "internalType": "uint256",
          "name": "yearOfStudy",
          "type": "uint256"
        },
        {
          "internalType": "string",
          "name": "regNo",
          "type": "string"
        },
        {
          "internalType": "string",
          "name": "blockNumber",
          "type": "string"
        },
        {
          "internalType": "string",
          "name": "gender",
          "type": "string"
        },
        {
          "internalType": "uint256",
          "name": "voteCount",
          "type": "uint256"
        }
      ],
      "stateMutability": "view",
      "type": "function"
    },
    {
      "inputs": [
        {
          "internalType": "string",
          "name": "_presidentRegNo",
          "type": "string"
        }
      ],
      "name": "deletePresident",
      "outputs": [],
      "stateMutability": "nonpayable",
      "type": "function"
    },
    {
      "inputs": [],
      "name": "getWinnerPresident",
      "outputs": [
        {
          "internalType": "string",
          "name": "firstName",
          "type": "string"
        },
        {
          "internalType": "string",
          "name": "regNo",
          "type": "string"
        },
        {
          "internalType": "string",
          "name": "collegeName",
          "type": "string"
        },
        {
          "internalType": "string",
          "name": "programName",
          "type": "string"
        },
        {
          "internalType": "uint256",
          "name": "voteCount",
          "type": "uint256"
        }
      ],
      "stateMutability": "view",
      "type": "function"
    }
  ],
  "bytecode": "0x608060405234801561001057600080fd5b5033601860006101000a81548173ffffffffffffffffffffffffffffffffffffffff021916908373ffffffffffffffffffffffffffffffffffffffff16021790555061424d806100616000396000f3fe608060405234801561001057600080fd5b506004361061018e5760003560e01c8063788cbe84116100de578063daa4348f11610097578063e6b52a3311610071578063e6b52a3314610546578063f644502614610576578063f6ffc117146105af578063f851a440146105cd5761018e565b8063daa4348f146104d6578063dccea189146104f8578063e316db4e146105165761018e565b8063788cbe84146103b75780637bca09ed146103ef578063a0b0df951461040b578063a3ec138d1461043b578063bf08128f14610476578063c822d7f0146104a65761018e565b806345a8a2be1161014b5780635b6e990c116101255780635b6e990c1461030b5780635f8b99721461033b57806371b7ddb81461036b57806375829def1461039b5761018e565b806345a8a2be146102a15780634b20c243146102d15780634c1e63c2146102ef5761018e565b806302aac7b214610193578063052fbf8c146101c35780630d15fd77146101f3578063166b4722146102115780631ac45f521461024a5780631cb5991414610283575b600080fd5b6101ad60048036038101906101a89190612f42565b6105eb565b6040516101ba9190612fff565b60405180910390f35b6101dd60048036038101906101d8919061307f565b610697565b6040516101ea91906130c7565b60405180910390f35b6101fb6106b7565b60405161020891906130f1565b60405180910390f35b61022b60048036038101906102269190613241565b6106bd565b6040516102419a9998979695949392919061328a565b60405180910390f35b610264600480360381019061025f9190613241565b610aec565b60405161027a9a9998979695949392919061328a565b60405180910390f35b61028b610f1b565b60405161029891906130c7565b60405180910390f35b6102bb60048036038101906102b69190612f42565b610f2e565b6040516102c89190612fff565b60405180910390f35b6102d9610fda565b6040516102e69190613463565b60405180910390f35b61030960048036038101906103049190613485565b6110b3565b005b6103256004803603810190610320919061307f565b6115cd565b6040516103329190612fff565b60405180910390f35b6103556004803603810190610350919061307f565b61166d565b60405161036291906130c7565b60405180910390f35b61038560048036038101906103809190612f42565b61168d565b604051610392919061360e565b60405180910390f35b6103b560048036038101906103b0919061307f565b6116cc565b005b6103d160048036038101906103cc9190613241565b6117a0565b6040516103e699989796959493929190613629565b60405180910390f35b61040960048036038101906104049190613241565b611c57565b005b6104256004803603810190610420919061307f565b611ec0565b60405161043291906130c7565b60405180910390f35b6104556004803603810190610450919061307f565b611ee0565b60405161046d9c9b9a999897969594939291906136e7565b60405180910390f35b610490600480360381019061048b919061307f565b6123ba565b60405161049d91906130c7565b60405180910390f35b6104c060048036038101906104bb9190613241565b6123da565b6040516104cd91906130c7565b60405180910390f35b6104de612410565b6040516104ef9594939291906137d9565b60405180910390f35b610500612973565b60405161050d91906130f1565b60405180910390f35b610530600480360381019061052b9190612f42565b612979565b60405161053d9190612fff565b60405180910390f35b610560600480360381019061055b9190612f42565b612a25565b60405161056d91906130f1565b60405180910390f35b610590600480360381019061058b9190613241565b612a40565b6040516105a69a9998979695949392919061328a565b60405180910390f35b6105b7612e6f565b6040516105c491906130f1565b60405180910390f35b6105d5612e75565b6040516105e2919061360e565b60405180910390f35b600981815481106105fb57600080fd5b90600052602060002001600091509050805461061690613877565b80601f016020809104026020016040519081016040528092919081815260200182805461064290613877565b801561068f5780601f106106645761010080835404028352916020019161068f565b820191906000526020600020905b81548152906001019060200180831161067257829003601f168201915b505050505081565b60076020528060005260406000206000915054906101000a900460ff1681565b60005481565b6002818051602081018201805184825260208301602085012081835280955050505050506000915090508060000180546106f690613877565b80601f016020809104026020016040519081016040528092919081815260200182805461072290613877565b801561076f5780601f106107445761010080835404028352916020019161076f565b820191906000526020600020905b81548152906001019060200180831161075257829003601f168201915b50505050509080600101805461078490613877565b80601f01602080910402602001604051908101604052809291908181526020018280546107b090613877565b80156107fd5780601f106107d2576101008083540402835291602001916107fd565b820191906000526020600020905b8154815290600101906020018083116107e057829003601f168201915b50505050509080600201805461081290613877565b80601f016020809104026020016040519081016040528092919081815260200182805461083e90613877565b801561088b5780601f106108605761010080835404028352916020019161088b565b820191906000526020600020905b81548152906001019060200180831161086e57829003601f168201915b5050505050908060030180546108a090613877565b80601f01602080910402602001604051908101604052809291908181526020018280546108cc90613877565b80156109195780601f106108ee57610100808354040283529160200191610919565b820191906000526020600020905b8154815290600101906020018083116108fc57829003601f168201915b50505050509080600401549080600501805461093490613877565b80601f016020809104026020016040519081016040528092919081815260200182805461096090613877565b80156109ad5780601f10610982576101008083540402835291602001916109ad565b820191906000526020600020905b81548152906001019060200180831161099057829003601f168201915b5050505050908060060180546109c290613877565b80601f01602080910402602001604051908101604052809291908181526020018280546109ee90613877565b8015610a3b5780601f10610a1057610100808354040283529160200191610a3b565b820191906000526020600020905b815481529060010190602001808311610a1e57829003601f168201915b505050505090806007018054610a5090613877565b80601f0160208091040260200160405190810160405280929190818152602001828054610a7c90613877565b8015610ac95780601f10610a9e57610100808354040283529160200191610ac9565b820191906000526020600020905b815481529060010190602001808311610aac57829003601f168201915b5050505050908060080160009054906101000a900460ff1690806009015490508a565b600481805160208101820180518482526020830160208501208183528095505050505050600091509050806000018054610b2590613877565b80601f0160208091040260200160405190810160405280929190818152602001828054610b5190613877565b8015610b9e5780601f10610b7357610100808354040283529160200191610b9e565b820191906000526020600020905b815481529060010190602001808311610b8157829003601f168201915b505050505090806001018054610bb390613877565b80601f0160208091040260200160405190810160405280929190818152602001828054610bdf90613877565b8015610c2c5780601f10610c0157610100808354040283529160200191610c2c565b820191906000526020600020905b815481529060010190602001808311610c0f57829003601f168201915b505050505090806002018054610c4190613877565b80601f0160208091040260200160405190810160405280929190818152602001828054610c6d90613877565b8015610cba5780601f10610c8f57610100808354040283529160200191610cba565b820191906000526020600020905b815481529060010190602001808311610c9d57829003601f168201915b505050505090806003018054610ccf90613877565b80601f0160208091040260200160405190810160405280929190818152602001828054610cfb90613877565b8015610d485780601f10610d1d57610100808354040283529160200191610d48565b820191906000526020600020905b815481529060010190602001808311610d2b57829003601f168201915b505050505090806004015490806005018054610d6390613877565b80601f0160208091040260200160405190810160405280929190818152602001828054610d8f90613877565b8015610ddc5780601f10610db157610100808354040283529160200191610ddc565b820191906000526020600020905b815481529060010190602001808311610dbf57829003601f168201915b505050505090806006018054610df190613877565b80601f0160208091040260200160405190810160405280929190818152602001828054610e1d90613877565b8015610e6a5780601f10610e3f57610100808354040283529160200191610e6a565b820191906000526020600020905b815481529060010190602001808311610e4d57829003601f168201915b505050505090806007018054610e7f90613877565b80601f0160208091040260200160405190810160405280929190818152602001828054610eab90613877565b8015610ef85780601f10610ecd57610100808354040283529160200191610ef8565b820191906000526020600020905b815481529060010190602001808311610edb57829003601f168201915b5050505050908060080160009054906101000a900460ff1690806009015490508a565b601c60009054906101000a900460ff1681565b600a8181548110610f3e57600080fd5b906000526020600020016000915090508054610f5990613877565b80601f0160208091040260200160405190810160405280929190818152602001828054610f8590613877565b8015610fd25780601f10610fa757610100808354040283529160200191610fd2565b820191906000526020600020905b815481529060010190602001808311610fb557829003601f168201915b505050505081565b60606008805480602002602001604051908101604052809291908181526020016000905b828210156110aa57838290600052602060002001805461101d90613877565b80601f016020809104026020016040519081016040528092919081815260200182805461104990613877565b80156110965780601f1061106b57610100808354040283529160200191611096565b820191906000526020600020905b81548152906001019060200180831161107957829003601f168201915b505050505081526020019060010190610ffe565b50505050905090565b601860009054906101000a900473ffffffffffffffffffffffffffffffffffffffff1673ffffffffffffffffffffffffffffffffffffffff163373ffffffffffffffffffffffffffffffffffffffff1614611143576040517f08c379a000000000000000000000000000000000000000000000000000000000815260040161113a9061391a565b60405180910390fd5b601c60009054906101000a900460ff1615611193576040517f08c379a000000000000000000000000000000000000000000000000000000000815260040161118a90613986565b60405180910390fd5b6000838051906020012050602060ff161180156111bd57506000888051906020012050602060ff16115b80156111d657506000868051906020012050602060ff16115b80156111ef57506000858051906020012050602060ff16115b801561120857506000828051906020012050602060ff16115b801561122157506000818051906020012050602060ff16115b611260576040517f08c379a000000000000000000000000000000000000000000000000000000000815260040161125790613a18565b60405180910390fd5b6040518060400160405280600481526020017f5449424100000000000000000000000000000000000000000000000000000000815250805190602001208680519060200120036112fe576000841180156112ba5750600584105b6112f9576040517f08c379a00000000000000000000000000000000000000000000000000000000081526004016112f090613a84565b60405180910390fd5b61134e565b60008411801561130e5750600484105b61134d576040517f08c379a000000000000000000000000000000000000000000000000000000000815260040161134490613a84565b60405180910390fd5b5b60018360405161135e9190613ae0565b908152602001604051809103902060009054906101000a900460ff16156113ba576040517f08c379a00000000000000000000000000000000000000000000000000000000081526004016113b190613b43565b60405180910390fd5b6002600b54106113ff576040517f08c379a00000000000000000000000000000000000000000000000000000000081526004016113f690613bd5565b60405180910390fd5b60006040518061014001604052808a8152602001898152602001888152602001878152602001868152602001858152602001848152602001838152602001600015158152602001600081525090508060028560405161145e9190613ae0565b908152602001604051809103902060008201518160000190816114819190613da1565b5060208201518160010190816114979190613da1565b5060408201518160020190816114ad9190613da1565b5060608201518160030190816114c39190613da1565b506080820151816004015560a08201518160050190816114e39190613da1565b5060c08201518160060190816114f99190613da1565b5060e082015181600701908161150f9190613da1565b506101008201518160080160006101000a81548160ff02191690831515021790555061012082015181600901559050506008849080600181540180825580915050600190039060005260206000200160009091909190915090816115739190613da1565b50600b600081548092919061158790613ea2565b91905055506001808560405161159d9190613ae0565b908152602001604051809103902060006101000a81548160ff021916908315150217905550505050505050505050565b601660205280600052604060002060009150905080546115ec90613877565b80601f016020809104026020016040519081016040528092919081815260200182805461161890613877565b80156116655780601f1061163a57610100808354040283529160200191611665565b820191906000526020600020905b81548152906001019060200180831161164857829003601f168201915b505050505081565b60056020528060005260406000206000915054906101000a900460ff1681565b6017818154811061169d57600080fd5b906000526020600020016000915054906101000a900473ffffffffffffffffffffffffffffffffffffffff1681565b601860009054906101000a900473ffffffffffffffffffffffffffffffffffffffff1673ffffffffffffffffffffffffffffffffffffffff163373ffffffffffffffffffffffffffffffffffffffff161461175c576040517f08c379a00000000000000000000000000000000000000000000000000000000081526004016117539061391a565b60405180910390fd5b80601860006101000a81548173ffffffffffffffffffffffffffffffffffffffff021916908373ffffffffffffffffffffffffffffffffffffffff16021790555050565b6060806060806000606080606060008060028b6040516117c09190613ae0565b9081526020016040518091039020604051806101400160405290816000820180546117ea90613877565b80601f016020809104026020016040519081016040528092919081815260200182805461181690613877565b80156118635780601f1061183857610100808354040283529160200191611863565b820191906000526020600020905b81548152906001019060200180831161184657829003601f168201915b5050505050815260200160018201805461187c90613877565b80601f01602080910402602001604051908101604052809291908181526020018280546118a890613877565b80156118f55780601f106118ca576101008083540402835291602001916118f5565b820191906000526020600020905b8154815290600101906020018083116118d857829003601f168201915b5050505050815260200160028201805461190e90613877565b80601f016020809104026020016040519081016040528092919081815260200182805461193a90613877565b80156119875780601f1061195c57610100808354040283529160200191611987565b820191906000526020600020905b81548152906001019060200180831161196a57829003601f168201915b505050505081526020016003820180546119a090613877565b80601f01602080910402602001604051908101604052809291908181526020018280546119cc90613877565b8015611a195780601f106119ee57610100808354040283529160200191611a19565b820191906000526020600020905b8154815290600101906020018083116119fc57829003601f168201915b5050505050815260200160048201548152602001600582018054611a3c90613877565b80601f0160208091040260200160405190810160405280929190818152602001828054611a6890613877565b8015611ab55780601f10611a8a57610100808354040283529160200191611ab5565b820191906000526020600020905b815481529060010190602001808311611a9857829003601f168201915b50505050508152602001600682018054611ace90613877565b80601f0160208091040260200160405190810160405280929190818152602001828054611afa90613877565b8015611b475780601f10611b1c57610100808354040283529160200191611b47565b820191906000526020600020905b815481529060010190602001808311611b2a57829003601f168201915b50505050508152602001600782018054611b6090613877565b80601f0160208091040260200160405190810160405280929190818152602001828054611b8c90613877565b8015611bd95780601f10611bae57610100808354040283529160200191611bd9565b820191906000526020600020905b815481529060010190602001808311611bbc57829003601f168201915b505050505081526020016008820160009054906101000a900460ff16151515158152602001600982015481525050905080600001519950806020015198508060400151975080606001519650806080015195508060a0015194508060c0015193508060e0015192508061012001519150509193959799909294969850565b601860009054906101000a900473ffffffffffffffffffffffffffffffffffffffff1673ffffffffffffffffffffffffffffffffffffffff163373ffffffffffffffffffffffffffffffffffffffff1614611ce7576040517f08c379a0000000000000000000000000000000000000000000000000000000008152600401611cde9061391a565b60405180910390fd5b600281604051611cf79190613ae0565b908152602001604051809103902060008082016000611d169190612e9b565b600182016000611d269190612e9b565b600282016000611d369190612e9b565b600382016000611d469190612e9b565b6004820160009055600582016000611d5e9190612e9b565b600682016000611d6e9190612e9b565b600782016000611d7e9190612e9b565b6008820160006101000a81549060ff02191690556009820160009055505060005b600880549050811015611ebc57818051906020012060088281548110611dc857611dc7613eea565b5b90600052602060002001604051611ddf9190613fbc565b604051809103902003611ea95760008190505b6001600880549050611e049190613fd3565b811015611e73576008600182611e1a9190614007565b81548110611e2b57611e2a613eea565b5b9060005260206000200160088281548110611e4957611e48613eea565b5b906000526020600020019081611e5f9190614066565b508080611e6b90613ea2565b915050611df2565b506008805480611e8657611e8561414e565b5b600190038181906000526020600020016000611ea29190612e9b565b9055611ebc565b8080611eb490613ea2565b915050611d9f565b5050565b60066020528060005260406000206000915054906101000a900460ff1681565b60146020528060005260406000206000915090508060000160009054906101000a900473ffffffffffffffffffffffffffffffffffffffff1690806001018054611f2990613877565b80601f0160208091040260200160405190810160405280929190818152602001828054611f5590613877565b8015611fa25780601f10611f7757610100808354040283529160200191611fa2565b820191906000526020600020905b815481529060010190602001808311611f8557829003601f168201915b505050505090806002018054611fb790613877565b80601f0160208091040260200160405190810160405280929190818152602001828054611fe390613877565b80156120305780601f1061200557610100808354040283529160200191612030565b820191906000526020600020905b81548152906001019060200180831161201357829003601f168201915b50505050509080600301805461204590613877565b80601f016020809104026020016040519081016040528092919081815260200182805461207190613877565b80156120be5780601f10612093576101008083540402835291602001916120be565b820191906000526020600020905b8154815290600101906020018083116120a157829003601f168201915b5050505050908060040180546120d390613877565b80601f01602080910402602001604051908101604052809291908181526020018280546120ff90613877565b801561214c5780601f106121215761010080835404028352916020019161214c565b820191906000526020600020905b81548152906001019060200180831161212f57829003601f168201915b50505050509080600501549080600601805461216790613877565b80601f016020809104026020016040519081016040528092919081815260200182805461219390613877565b80156121e05780601f106121b5576101008083540402835291602001916121e0565b820191906000526020600020905b8154815290600101906020018083116121c357829003601f168201915b5050505050908060070180546121f590613877565b80601f016020809104026020016040519081016040528092919081815260200182805461222190613877565b801561226e5780601f106122435761010080835404028352916020019161226e565b820191906000526020600020905b81548152906001019060200180831161225157829003601f168201915b50505050509080600801805461228390613877565b80601f01602080910402602001604051908101604052809291908181526020018280546122af90613877565b80156122fc5780601f106122d1576101008083540402835291602001916122fc565b820191906000526020600020905b8154815290600101906020018083116122df57829003601f168201915b50505050509080600901805461231190613877565b80601f016020809104026020016040519081016040528092919081815260200182805461233d90613877565b801561238a5780601f1061235f5761010080835404028352916020019161238a565b820191906000526020600020905b81548152906001019060200180831161236d57829003601f168201915b50505050509080600a0160009054906101000a900460ff169080600a0160019054906101000a900460ff1690508c565b60156020528060005260406000206000915054906101000a900460ff1681565b6001818051602081018201805184825260208301602085012081835280955050505050506000915054906101000a900460ff1681565b606080606080600080600090506000805b6008805490508110156124cc578260026008838154811061244557612444613eea565b5b9060005260206000200160405161245c9190614200565b90815260200160405180910390206009015411156124b95760026008828154811061248a57612489613eea565b5b906000526020600020016040516124a19190614200565b90815260200160405180910390206009015492508091505b80806124c490613ea2565b915050612421565b5060006002600883815481106124e5576124e4613eea565b5b906000526020600020016040516124fc9190614200565b90815260200160405180910390206040518061014001604052908160008201805461252690613877565b80601f016020809104026020016040519081016040528092919081815260200182805461255290613877565b801561259f5780601f106125745761010080835404028352916020019161259f565b820191906000526020600020905b81548152906001019060200180831161258257829003601f168201915b505050505081526020016001820180546125b890613877565b80601f01602080910402602001604051908101604052809291908181526020018280546125e490613877565b80156126315780601f1061260657610100808354040283529160200191612631565b820191906000526020600020905b81548152906001019060200180831161261457829003601f168201915b5050505050815260200160028201805461264a90613877565b80601f016020809104026020016040519081016040528092919081815260200182805461267690613877565b80156126c35780601f10612698576101008083540402835291602001916126c3565b820191906000526020600020905b8154815290600101906020018083116126a657829003601f168201915b505050505081526020016003820180546126dc90613877565b80601f016020809104026020016040519081016040528092919081815260200182805461270890613877565b80156127555780601f1061272a57610100808354040283529160200191612755565b820191906000526020600020905b81548152906001019060200180831161273857829003601f168201915b505050505081526020016004820154815260200160058201805461277890613877565b80601f01602080910402602001604051908101604052809291908181526020018280546127a490613877565b80156127f15780601f106127c6576101008083540402835291602001916127f1565b820191906000526020600020905b8154815290600101906020018083116127d457829003601f168201915b5050505050815260200160068201805461280a90613877565b80601f016020809104026020016040519081016040528092919081815260200182805461283690613877565b80156128835780601f1061285857610100808354040283529160200191612883565b820191906000526020600020905b81548152906001019060200180831161286657829003601f168201915b5050505050815260200160078201805461289c90613877565b80601f01602080910402602001604051908101604052809291908181526020018280546128c890613877565b80156129155780601f106128ea57610100808354040283529160200191612915565b820191906000526020600020905b8154815290600101906020018083116128f857829003601f168201915b505050505081526020016008820160009054906101000a900460ff161515151581526020016009820154815250509050806000015197508060a001519650806040015195508060600151945080610120015193505050509091929394565b600b5481565b6008818154811061298957600080fd5b9060005260206000200160009150905080546129a490613877565b80601f01602080910402602001604051908101604052809291908181526020018280546129d090613877565b8015612a1d5780601f106129f257610100808354040283529160200191612a1d565b820191906000526020600020905b815481529060010190602001808311612a0057829003601f168201915b505050505081565b600c8160078110612a3557600080fd5b016000915090505481565b600381805160208101820180518482526020830160208501208183528095505050505050600091509050806000018054612a7990613877565b80601f0160208091040260200160405190810160405280929190818152602001828054612aa590613877565b8015612af25780601f10612ac757610100808354040283529160200191612af2565b820191906000526020600020905b815481529060010190602001808311612ad557829003601f168201915b505050505090806001018054612b0790613877565b80601f0160208091040260200160405190810160405280929190818152602001828054612b3390613877565b8015612b805780601f10612b5557610100808354040283529160200191612b80565b820191906000526020600020905b815481529060010190602001808311612b6357829003601f168201915b505050505090806002018054612b9590613877565b80601f0160208091040260200160405190810160405280929190818152602001828054612bc190613877565b8015612c0e5780601f10612be357610100808354040283529160200191612c0e565b820191906000526020600020905b815481529060010190602001808311612bf157829003601f168201915b505050505090806003018054612c2390613877565b80601f0160208091040260200160405190810160405280929190818152602001828054612c4f90613877565b8015612c9c5780601f10612c7157610100808354040283529160200191612c9c565b820191906000526020600020905b815481529060010190602001808311612c7f57829003601f168201915b505050505090806004015490806005018054612cb790613877565b80601f0160208091040260200160405190810160405280929190818152602001828054612ce390613877565b8015612d305780601f10612d0557610100808354040283529160200191612d30565b820191906000526020600020905b815481529060010190602001808311612d1357829003601f168201915b505050505090806006018054612d4590613877565b80601f0160208091040260200160405190810160405280929190818152602001828054612d7190613877565b8015612dbe5780601f10612d9357610100808354040283529160200191612dbe565b820191906000526020600020905b815481529060010190602001808311612da157829003601f168201915b505050505090806007018054612dd390613877565b80601f0160208091040260200160405190810160405280929190818152602001828054612dff90613877565b8015612e4c5780601f10612e2157610100808354040283529160200191612e4c565b820191906000526020600020905b815481529060010190602001808311612e2f57829003601f168201915b5050505050908060080160009054906101000a900460ff1690806009015490508a565b60135481565b601860009054906101000a900473ffffffffffffffffffffffffffffffffffffffff1681565b508054612ea790613877565b6000825580601f10612eb95750612ed8565b601f016020900490600052602060002090810190612ed79190612edb565b5b50565b5b80821115612ef4576000816000905550600101612edc565b5090565b6000604051905090565b600080fd5b600080fd5b6000819050919050565b612f1f81612f0c565b8114612f2a57600080fd5b50565b600081359050612f3c81612f16565b92915050565b600060208284031215612f5857612f57612f02565b5b6000612f6684828501612f2d565b91505092915050565b600081519050919050565b600082825260208201905092915050565b60005b83811015612fa9578082015181840152602081019050612f8e565b60008484015250505050565b6000601f19601f8301169050919050565b6000612fd182612f6f565b612fdb8185612f7a565b9350612feb818560208601612f8b565b612ff481612fb5565b840191505092915050565b600060208201905081810360008301526130198184612fc6565b905092915050565b600073ffffffffffffffffffffffffffffffffffffffff82169050919050565b600061304c82613021565b9050919050565b61305c81613041565b811461306757600080fd5b50565b60008135905061307981613053565b92915050565b60006020828403121561309557613094612f02565b5b60006130a38482850161306a565b91505092915050565b60008115159050919050565b6130c1816130ac565b82525050565b60006020820190506130dc60008301846130b8565b92915050565b6130eb81612f0c565b82525050565b600060208201905061310660008301846130e2565b92915050565b600080fd5b600080fd5b7f4e487b7100000000000000000000000000000000000000000000000000000000600052604160045260246000fd5b61314e82612fb5565b810181811067ffffffffffffffff8211171561316d5761316c613116565b5b80604052505050565b6000613180612ef8565b905061318c8282613145565b919050565b600067ffffffffffffffff8211156131ac576131ab613116565b5b6131b582612fb5565b9050602081019050919050565b82818337600083830152505050565b60006131e46131df84613191565b613176565b905082815260208101848484011115613200576131ff613111565b5b61320b8482856131c2565b509392505050565b600082601f8301126132285761322761310c565b5b81356132388482602086016131d1565b91505092915050565b60006020828403121561325757613256612f02565b5b600082013567ffffffffffffffff81111561327557613274612f07565b5b61328184828501613213565b91505092915050565b60006101408201905081810360008301526132a5818d612fc6565b905081810360208301526132b9818c612fc6565b905081810360408301526132cd818b612fc6565b905081810360608301526132e1818a612fc6565b90506132f060808301896130e2565b81810360a08301526133028188612fc6565b905081810360c08301526133168187612fc6565b905081810360e083015261332a8186612fc6565b905061333a6101008301856130b8565b6133486101208301846130e2565b9b9a5050505050505050505050565b600081519050919050565b600082825260208201905092915050565b6000819050602082019050919050565b600082825260208201905092915050565b600061339f82612f6f565b6133a98185613383565b93506133b9818560208601612f8b565b6133c281612fb5565b840191505092915050565b60006133d98383613394565b905092915050565b6000602082019050919050565b60006133f982613357565b6134038185613362565b93508360208202850161341585613373565b8060005b85811015613451578484038952815161343285826133cd565b945061343d836133e1565b925060208a01995050600181019050613419565b50829750879550505050505092915050565b6000602082019050818103600083015261347d81846133ee565b905092915050565b600080600080600080600080610100898b0312156134a6576134a5612f02565b5b600089013567ffffffffffffffff8111156134c4576134c3612f07565b5b6134d08b828c01613213565b985050602089013567ffffffffffffffff8111156134f1576134f0612f07565b5b6134fd8b828c01613213565b975050604089013567ffffffffffffffff81111561351e5761351d612f07565b5b61352a8b828c01613213565b965050606089013567ffffffffffffffff81111561354b5761354a612f07565b5b6135578b828c01613213565b95505060806135688b828c01612f2d565b94505060a089013567ffffffffffffffff81111561358957613588612f07565b5b6135958b828c01613213565b93505060c089013567ffffffffffffffff8111156135b6576135b5612f07565b5b6135c28b828c01613213565b92505060e089013567ffffffffffffffff8111156135e3576135e2612f07565b5b6135ef8b828c01613213565b9150509295985092959890939650565b61360881613041565b82525050565b600060208201905061362360008301846135ff565b92915050565b6000610120820190508181036000830152613644818c612fc6565b90508181036020830152613658818b612fc6565b9050818103604083015261366c818a612fc6565b905081810360608301526136808189612fc6565b905061368f60808301886130e2565b81810360a08301526136a18187612fc6565b905081810360c08301526136b58186612fc6565b905081810360e08301526136c98185612fc6565b90506136d96101008301846130e2565b9a9950505050505050505050565b6000610180820190506136fd600083018f6135ff565b818103602083015261370f818e612fc6565b90508181036040830152613723818d612fc6565b90508181036060830152613737818c612fc6565b9050818103608083015261374b818b612fc6565b905061375a60a083018a6130e2565b81810360c083015261376c8189612fc6565b905081810360e08301526137808188612fc6565b90508181036101008301526137958187612fc6565b90508181036101208301526137aa8186612fc6565b90506137ba6101408301856130b8565b6137c86101608301846130b8565b9d9c50505050505050505050505050565b600060a08201905081810360008301526137f38188612fc6565b905081810360208301526138078187612fc6565b9050818103604083015261381b8186612fc6565b9050818103606083015261382f8185612fc6565b905061383e60808301846130e2565b9695505050505050565b7f4e487b7100000000000000000000000000000000000000000000000000000000600052602260045260246000fd5b6000600282049050600182168061388f57607f821691505b6020821081036138a2576138a1613848565b5b50919050565b7f4f6e6c792061646d696e2063616e20706572666f726d2074686973206163746960008201527f6f6e000000000000000000000000000000000000000000000000000000000000602082015250565b6000613904602283612f7a565b915061390f826138a8565b604082019050919050565b60006020820190508181036000830152613933816138f7565b9050919050565b7f566f74696e672070726f6365737320616c726561647920737461727465640000600082015250565b6000613970601e83612f7a565b915061397b8261393a565b602082019050919050565b6000602082019050818103600083015261399f81613963565b9050919050565b7f4d616b652073757265206576657279206669656c642063616e6e6f742062652060008201527f656d707479000000000000000000000000000000000000000000000000000000602082015250565b6000613a02602583612f7a565b9150613a0d826139a6565b604082019050919050565b60006020820190508181036000830152613a31816139f5565b9050919050565b7f496e76616c69642079656172206f662053747564790000000000000000000000600082015250565b6000613a6e601583612f7a565b9150613a7982613a38565b602082019050919050565b60006020820190508181036000830152613a9d81613a61565b9050919050565b600081905092915050565b6000613aba82612f6f565b613ac48185613aa4565b9350613ad4818560208601612f8b565b80840191505092915050565b6000613aec8284613aaf565b915081905092915050565b7f63616e64696461746520697320616c7265616479207265676973746572656421600082015250565b6000613b2d602083612f7a565b9150613b3882613af7565b602082019050919050565b60006020820190508181036000830152613b5c81613b20565b9050919050565b7f546865207265676973746572656420707265736964656e7420697320656e6f7560008201527f6768210000000000000000000000000000000000000000000000000000000000602082015250565b6000613bbf602383612f7a565b9150613bca82613b63565b604082019050919050565b60006020820190508181036000830152613bee81613bb2565b9050919050565b60008190508160005260206000209050919050565b60006020601f8301049050919050565b600082821b905092915050565b600060088302613c577fffffffffffffffffffffffffffffffffffffffffffffffffffffffffffffffff82613c1a565b613c618683613c1a565b95508019841693508086168417925050509392505050565b6000819050919050565b6000613c9e613c99613c9484612f0c565b613c79565b612f0c565b9050919050565b6000819050919050565b613cb883613c83565b613ccc613cc482613ca5565b848454613c27565b825550505050565b600090565b613ce1613cd4565b613cec818484613caf565b505050565b5b81811015613d1057613d05600082613cd9565b600181019050613cf2565b5050565b601f821115613d5557613d2681613bf5565b613d2f84613c0a565b81016020851015613d3e578190505b613d52613d4a85613c0a565b830182613cf1565b50505b505050565b600082821c905092915050565b6000613d7860001984600802613d5a565b1980831691505092915050565b6000613d918383613d67565b9150826002028217905092915050565b613daa82612f6f565b67ffffffffffffffff811115613dc357613dc2613116565b5b613dcd8254613877565b613dd8828285613d14565b600060209050601f831160018114613e0b5760008415613df9578287015190505b613e038582613d85565b865550613e6b565b601f198416613e1986613bf5565b60005b82811015613e4157848901518255600182019150602085019450602081019050613e1c565b86831015613e5e5784890151613e5a601f891682613d67565b8355505b6001600288020188555050505b505050505050565b7f4e487b7100000000000000000000000000000000000000000000000000000000600052601160045260246000fd5b6000613ead82612f0c565b91507fffffffffffffffffffffffffffffffffffffffffffffffffffffffffffffffff8203613edf57613ede613e73565b5b600182019050919050565b7f4e487b7100000000000000000000000000000000000000000000000000000000600052603260045260246000fd5b600081905092915050565b60008190508160005260206000209050919050565b60008154613f4681613877565b613f508186613f19565b94506001821660008114613f6b5760018114613f8057613fb3565b60ff1983168652811515820286019350613fb3565b613f8985613f24565b60005b83811015613fab57815481890152600182019150602081019050613f8c565b838801955050505b50505092915050565b6000613fc88284613f39565b915081905092915050565b6000613fde82612f0c565b9150613fe983612f0c565b925082820390508181111561400157614000613e73565b5b92915050565b600061401282612f0c565b915061401d83612f0c565b925082820190508082111561403557614034613e73565b5b92915050565b60008154905061404a81613877565b9050919050565b60008190508160005260206000209050919050565b81810361407457505061414c565b61407d8261403b565b67ffffffffffffffff81111561409657614095613116565b5b6140a08254613877565b6140ab828285613d14565b6000601f8311600181146140da57600084156140c8578287015490505b6140d28582613d85565b865550614145565b601f1984166140e887614051565b96506140f386613bf5565b60005b8281101561411b578489015482556001820191506001850194506020810190506140f6565b868310156141385784890154614134601f891682613d67565b8355505b6001600288020188555050505b5050505050505b565b7f4e487b7100000000000000000000000000000000000000000000000000000000600052603160045260246000fd5b6000815461418a81613877565b6141948186613aa4565b945060018216600081146141af57600181146141c4576141f7565b60ff19831686528115158202860193506141f7565b6141cd85613bf5565b60005b838110156141ef578154818901526001820191506020810190506141d0565b838801955050505b50505092915050565b600061420c828461417d565b91508190509291505056fea2646970667358221220f8afea27f29e11f0066c78517d756597dba55b88314b5435a988f887fd77507e64736f6c63430008130033",
  "immutableReferences": {},
  "source": "// SPDX-License-Identifier: MIT\npragma solidity ^0.8.0;\nimport \"./CandidateStructure.sol\";\nimport \"./VoterStructure.sol\";\nimport \"./VoterRegistry.sol\";\nimport \"./AccessControl.sol\";\nimport \"./TimeStructure.sol\";\n\ncontract CandidatePresident is CandidateStructure, VoterStructure, AccessControl, TimeStructure {\n    // VoterRegistry voterObj = new VoterRegistry();\n\n    event NewPresidentRegistered(string firstName, string lastName, string collegeName, string programName, uint256 yearOfStudy, string regNo, string blockNumber, string gender);\n   \n    function registerPresident(string memory _firstName, string memory _lastName, string memory _collegeName,string memory _programName, uint256 _yearOfStudy, string memory _regNo, string memory _blockNumber, string memory _gender) public onlyAdmin{\n        require(!isInitiated, \"Voting process already started\");\n        require(keccak256(bytes(_regNo)).length > 0 && keccak256(bytes(_firstName)).length > 0 && keccak256(bytes(_collegeName)).length > 0\n        && keccak256(bytes(_programName)).length > 0 && keccak256(bytes(_blockNumber)).length > 0 \n        && keccak256(bytes(_gender)).length > 0, \"Make sure every field cannot be empty\");\n        if(keccak256(bytes(_collegeName)) == keccak256(bytes(\"TIBA\"))){\n            require(_yearOfStudy > 0 && _yearOfStudy < 5, \"Invalid year of Study\");\n        }else{\n            require(_yearOfStudy > 0 && _yearOfStudy < 4, \"Invalid year of Study\");\n        } \n        require(!isRegistered[_regNo], \"candidate is already registered!\");\n        require(numberOfPresident < 2, \"The registered president is enough!\");\n        Candidate memory newCandidate = Candidate({\n            firstName: _firstName,\n            lastName: _lastName,       \n            collegeName: _collegeName,\n            programName: _programName,\n            yearOfStudy: _yearOfStudy, \n            regNo: _regNo, \n            blockNumber: _blockNumber,\n            gender: _gender, \n            isWinner: false, \n            voteCount: 0\n        });\n        candidatePresident[_regNo] = newCandidate;\n        presidentList.push(_regNo);\n        numberOfPresident++;\n        isRegistered[_regNo]= true;\n\n        // emit NewPresidentRegistered(_firstName, _collegeName, _programName, _yearOfStudy, _regNo, _blockNumber, _gender);\n    }\n\n    \n\n    //return the registration number for the candidates for each position\n    function getPresidentRegNumber() public view returns (string[] memory){\n        return presidentList;\n    }\n\n\n    //Admin view candidates for a specific position of vote\n\n    function viewPresident(string memory _regNo) public view returns(string memory firstName,string memory lastName, \n        string memory collegeName, string memory programName, uint256 yearOfStudy, string memory regNo, string memory blockNumber, string memory gender,uint256 voteCount){\n        Candidate memory candidatePres = candidatePresident[_regNo];\n        firstName = candidatePres.firstName;\n        lastName = candidatePres.lastName;\n        collegeName = candidatePres.collegeName;\n        programName = candidatePres.programName;\n        yearOfStudy = candidatePres.yearOfStudy;\n        regNo = candidatePres.regNo;\n        blockNumber = candidatePres.blockNumber;\n        gender = candidatePres.gender;\n        voteCount = candidatePres.voteCount;\n    }\n\n    function deletePresident(string memory _presidentRegNo) public onlyAdmin{\n        delete candidatePresident[_presidentRegNo];\n         for (uint256 i = 0; i < presidentList.length; i++) {\n            if (keccak256(bytes(presidentList[i])) == keccak256(bytes(_presidentRegNo))) {\n                for (uint256 j = i; j < presidentList.length - 1; j++) {\n                    presidentList[j] = presidentList[j + 1];\n                }\n                presidentList.pop();\n                break;\n            }\n        }\n    }\n\n    // function castVotePresident( string memory _presidentRegNo) public {\n    //     require(voters[msg.sender].isRegistered, \"Voter is not registered\");\n    //     require(!voters[msg.sender].voted, \"You have already voted for President!!!\");\n    //     require(!presidentVoted[msg.sender], \"Already voted for President position\");\n    //     Candidate memory candidate = candidatePresident[_presidentRegNo];\n    //     candidate.voteCount++;\n    //     presidentVoted[msg.sender] = true;\n\n    //     totalVotes++;\n\n    //     // emit VoteCast(candidate.voteCount, candidate.regNo);\n    // }\n\n    function getWinnerPresident() public view returns( string memory firstName, string memory regNo, string memory collegeName, string memory programName, uint256 voteCount){\n        uint256 winningPresidentVoteCount = 0;\n        uint256 winningPresidentIndex = 0;\n        for (uint256 i = 0; i < presidentList.length; i++) {\n            if (candidatePresident[presidentList[i]].voteCount > winningPresidentVoteCount) {\n                winningPresidentVoteCount = candidatePresident[presidentList[i]].voteCount;\n                winningPresidentIndex = i;\n            }\n        }\n        Candidate memory winner = candidatePresident[presidentList[winningPresidentIndex]];\n\n        firstName = winner.firstName;\n        regNo = winner.regNo;\n        collegeName = winner.collegeName;\n        programName = winner.programName;\n        voteCount = winner.voteCount;\n        // emit getTheWinner(winner.firstName, winner.regNo, winner.collegeName, winner.programName, winner.voteCount);\n        // return (winner.firstName, winner.regNo, winner.collegeName, winner.programName, winner.voteCount);\n    }\n\n}",
  "sourcePath": "/home/temba/Documents/SmartContract/client/contracts/CandidatePresident.sol",
  "compiler": {
    "name": "solc",
    "version": "0.8.19+commit.7dd6d404.Emscripten.clang"
  },
  "schemaVersion": "3.4.14",
  "updatedAt": "2023-06-21T10:05:21.571Z",
  "devdoc": {
    "kind": "dev",
    "methods": {},
    "version": 1
  },
  "userdoc": {
    "kind": "user",
    "methods": {},
    "version": 1
  }
}