{
  "contractName": "CandidateWinner",
  "abi": [
    {
      "inputs": [],
      "name": "admin",
      "outputs": [
        {
          "internalType": "address",
          "name": "",
          "type": "address"
        }
      ],
      "stateMutability": "view",
      "type": "function"
    },
    {
      "inputs": [],
      "name": "isInitiated",
      "outputs": [
        {
          "internalType": "bool",
          "name": "",
          "type": "bool"
        }
      ],
      "stateMutability": "view",
      "type": "function"
    },
    {
      "inputs": [
        {
          "internalType": "address",
          "name": "newAdmin",
          "type": "address"
        }
      ],
      "name": "transferAdmin",
      "outputs": [],
      "stateMutability": "nonpayable",
      "type": "function"
    }
  ],
  "bytecode": "0x608060405234801561001057600080fd5b50336000806101000a81548173ffffffffffffffffffffffffffffffffffffffff021916908373ffffffffffffffffffffffffffffffffffffffff16021790555061036f806100606000396000f3fe608060405234801561001057600080fd5b50600436106100415760003560e01c80631cb599141461004657806375829def14610064578063f851a44014610080575b600080fd5b61004e61009e565b60405161005b91906101c1565b60405180910390f35b61007e6004803603810190610079919061023f565b6100b1565b005b610088610182565b604051610095919061027b565b60405180910390f35b600460009054906101000a900460ff1681565b60008054906101000a900473ffffffffffffffffffffffffffffffffffffffff1673ffffffffffffffffffffffffffffffffffffffff163373ffffffffffffffffffffffffffffffffffffffff161461013f576040517f08c379a000000000000000000000000000000000000000000000000000000000815260040161013690610319565b60405180910390fd5b806000806101000a81548173ffffffffffffffffffffffffffffffffffffffff021916908373ffffffffffffffffffffffffffffffffffffffff16021790555050565b60008054906101000a900473ffffffffffffffffffffffffffffffffffffffff1681565b60008115159050919050565b6101bb816101a6565b82525050565b60006020820190506101d660008301846101b2565b92915050565b600080fd5b600073ffffffffffffffffffffffffffffffffffffffff82169050919050565b600061020c826101e1565b9050919050565b61021c81610201565b811461022757600080fd5b50565b60008135905061023981610213565b92915050565b600060208284031215610255576102546101dc565b5b60006102638482850161022a565b91505092915050565b61027581610201565b82525050565b6000602082019050610290600083018461026c565b92915050565b600082825260208201905092915050565b7f4f6e6c792061646d696e2063616e20706572666f726d2074686973206163746960008201527f6f6e000000000000000000000000000000000000000000000000000000000000602082015250565b6000610303602283610296565b915061030e826102a7565b604082019050919050565b60006020820190508181036000830152610332816102f6565b905091905056fea2646970667358221220242ad516c70f37ccb38c6b533acdbd7fd5773866f1555a039f242f768efa532264736f6c63430008130033",
  "immutableReferences": {},
  "source": "// SPDX-License-Identifier: MIT\npragma solidity ^0.8.0;\nimport \"./VoterContract.sol\";\nimport \"./AccessControl.sol\";\nimport \"./TimeStructure.sol\";\nimport \"./CandidateContract.sol\";\n\ncontract CandidateWinner is AccessControl, TimeStructure{\n\n    // function getWinnerPresident(address candidateContractAddress) public view returns ( string memory, string memory, string memory, string memory, string memory, uint256){\n    //     uint256 winningPresidentVoteCount = 0;\n    //     uint256 winningPresidentIndex = 0;\n\n    //     CandidateContract cWinner = CandidateContract(candidateContractAddress);\n\n    //     for (uint256 i = 0; i < cWinner.getGovernorList().length; i++) {\n    //         if (cWinner.candidatePresident[cWinner.presidentList[i]].voteCount > winningPresidentVoteCount) {\n    //             winningPresidentVoteCount = cWinner.candidatePresident[cWinner.presidentList[i]].voteCount;\n    //             winningPresidentIndex = i;\n    //         }\n    //     }\n    //     // cWinner.Candidate memory winner = candidatePresident[presidentList[winningPresidentIndex]];\n    //     CandidateContract.Candidate memory winner = cWinner.candidatePresident[cWinner.presidentList[winningPresidentIndex]];\n\n    //     // emit getTheWinner(winner.firstName, winner.regNo, winner.collegeName, winner.programName, winner.voteCount);\n    //     return (winner.firstName, winner.lastName, winner.regNo, winner.collegeName, winner.position, winner.voteCount);\n    // }\n\n    // function getWinnerGovernor(address candidateContractAddress) public view returns (string memory, string memory, string memory, string memory, string memory, uint256){  \n    //     uint256 winningGovernorVoteCount = 0;\n    //     uint256 winningGovernorIndex = 0;    \n\n    //     CandidateContract cWinner = CandidateContract(candidateContractAddress);\n    //     for (uint256 i = 0; i < cWinner.governorList.length; i++) {\n    //         if (cWinner.candidateGovernor[cWinner.governorList[i]].voteCount > winningGovernorVoteCount) {\n    //             winningGovernorVoteCount = cWinner.candidateGovernor[cWinner.governorList[i]].voteCount;\n    //             winningGovernorIndex = i;\n    //         }\n    //     }\n    //     CandidateContract.Candidate memory winner = cWinner.candidateGovernor[cWinner.governorList[winningGovernorIndex]];\n    //     // emit getTheWinner(winner.firstName, winner.regNo, winner.collegeName, winner.programName, winner.voteCount);\n    //     return (winner.firstName, winner.lastName, winner.regNo, winner.collegeName, winner.position, winner.voteCount);\n    // }\n\n    // function getWinnerBlockLeader(address candidateContractAddress) public view returns (string memory, string memory, string memory, string memory, string memory, uint256){  \n    //     uint256 winningBlockLeaderVoteCount = 0;\n    //     uint256 winningBlockLeaderIndex = 0;\n\n    //     CandidateContract cWinner = CandidateContract(candidateContractAddress);    \n    //     for (uint256 i = 0; i < cWinner.blockLeaderList.length; i++) {\n    //         if (cWinner.candidateBlockLeader[cWinner.blockLeaderList[i]].voteCount > winningBlockLeaderVoteCount) {\n    //             winningBlockLeaderVoteCount = cWinner.candidateBlockLeader[cWinner.blockLeaderList[i]].voteCount;\n    //             winningBlockLeaderIndex = i;\n    //         }\n    //     }\n    //     CandidateContract.Candidate memory winner = cWinner.candidateBlockLeader[cWinner.blockLeaderList[winningBlockLeaderIndex]];\n    //     // emit getTheWinner(winner.firstName, winner.regNo, winner.collegeName, winner.programName, winner.voteCount);\n    //    return (winner.firstName, winner.lastName, winner.regNo, winner.collegeName, winner.position, winner.voteCount);\n    // }\n}",
  "sourcePath": "/home/temba/Documents/SmartContract/client/contracts/CandidateWinner.sol",
  "compiler": {
    "name": "solc",
    "version": "0.8.19+commit.7dd6d404.Emscripten.clang"
  },
  "schemaVersion": "3.4.14",
  "updatedAt": "2023-06-21T10:05:21.733Z",
  "devdoc": {
    "kind": "dev",
    "methods": {},
    "version": 1
  },
  "userdoc": {
    "kind": "user",
    "methods": {},
    "version": 1
  }
}