{
  "contractName": "CandidateViews",
  "abi": [
    {
      "inputs": [],
      "name": "admin",
      "outputs": [
        {
          "internalType": "address",
          "name": "",
          "type": "address"
        }
      ],
      "stateMutability": "view",
      "type": "function"
    },
    {
      "inputs": [
        {
          "internalType": "uint256",
          "name": "",
          "type": "uint256"
        }
      ],
      "name": "blockLeaderList",
      "outputs": [
        {
          "internalType": "string",
          "name": "",
          "type": "string"
        }
      ],
      "stateMutability": "view",
      "type": "function"
    },
    {
      "inputs": [
        {
          "internalType": "address",
          "name": "",
          "type": "address"
        }
      ],
      "name": "blockLeaderVoted",
      "outputs": [
        {
          "internalType": "bool",
          "name": "",
          "type": "bool"
        }
      ],
      "stateMutability": "view",
      "type": "function"
    },
    {
      "inputs": [
        {
          "internalType": "string",
          "name": "",
          "type": "string"
        }
      ],
      "name": "candidateBlockLeader",
      "outputs": [
        {
          "internalType": "string",
          "name": "firstName",
          "type": "string"
        },
        {
          "internalType": "string",
          "name": "lastName",
          "type": "string"
        },
        {
          "internalType": "string",
          "name": "collegeName",
          "type": "string"
        },
        {
          "internalType": "string",
          "name": "programName",
          "type": "string"
        },
        {
          "internalType": "uint256",
          "name": "yearOfStudy",
          "type": "uint256"
        },
        {
          "internalType": "string",
          "name": "regNo",
          "type": "string"
        },
        {
          "internalType": "string",
          "name": "blockNumber",
          "type": "string"
        },
        {
          "internalType": "string",
          "name": "gender",
          "type": "string"
        },
        {
          "internalType": "bool",
          "name": "isWinner",
          "type": "bool"
        },
        {
          "internalType": "uint256",
          "name": "voteCount",
          "type": "uint256"
        }
      ],
      "stateMutability": "view",
      "type": "function"
    },
    {
      "inputs": [
        {
          "internalType": "string",
          "name": "",
          "type": "string"
        }
      ],
      "name": "candidateGovernor",
      "outputs": [
        {
          "internalType": "string",
          "name": "firstName",
          "type": "string"
        },
        {
          "internalType": "string",
          "name": "lastName",
          "type": "string"
        },
        {
          "internalType": "string",
          "name": "collegeName",
          "type": "string"
        },
        {
          "internalType": "string",
          "name": "programName",
          "type": "string"
        },
        {
          "internalType": "uint256",
          "name": "yearOfStudy",
          "type": "uint256"
        },
        {
          "internalType": "string",
          "name": "regNo",
          "type": "string"
        },
        {
          "internalType": "string",
          "name": "blockNumber",
          "type": "string"
        },
        {
          "internalType": "string",
          "name": "gender",
          "type": "string"
        },
        {
          "internalType": "bool",
          "name": "isWinner",
          "type": "bool"
        },
        {
          "internalType": "uint256",
          "name": "voteCount",
          "type": "uint256"
        }
      ],
      "stateMutability": "view",
      "type": "function"
    },
    {
      "inputs": [
        {
          "internalType": "string",
          "name": "",
          "type": "string"
        }
      ],
      "name": "candidatePresident",
      "outputs": [
        {
          "internalType": "string",
          "name": "firstName",
          "type": "string"
        },
        {
          "internalType": "string",
          "name": "lastName",
          "type": "string"
        },
        {
          "internalType": "string",
          "name": "collegeName",
          "type": "string"
        },
        {
          "internalType": "string",
          "name": "programName",
          "type": "string"
        },
        {
          "internalType": "uint256",
          "name": "yearOfStudy",
          "type": "uint256"
        },
        {
          "internalType": "string",
          "name": "regNo",
          "type": "string"
        },
        {
          "internalType": "string",
          "name": "blockNumber",
          "type": "string"
        },
        {
          "internalType": "string",
          "name": "gender",
          "type": "string"
        },
        {
          "internalType": "bool",
          "name": "isWinner",
          "type": "bool"
        },
        {
          "internalType": "uint256",
          "name": "voteCount",
          "type": "uint256"
        }
      ],
      "stateMutability": "view",
      "type": "function"
    },
    {
      "inputs": [],
      "name": "getRemainingTime",
      "outputs": [
        {
          "internalType": "uint256",
          "name": "",
          "type": "uint256"
        }
      ],
      "stateMutability": "view",
      "type": "function"
    },
    {
      "inputs": [],
      "name": "getTime",
      "outputs": [
        {
          "internalType": "uint256",
          "name": "startTime",
          "type": "uint256"
        },
        {
          "internalType": "uint256",
          "name": "endTime",
          "type": "uint256"
        }
      ],
      "stateMutability": "view",
      "type": "function"
    },
    {
      "inputs": [
        {
          "internalType": "uint256",
          "name": "",
          "type": "uint256"
        }
      ],
      "name": "governorList",
      "outputs": [
        {
          "internalType": "string",
          "name": "",
          "type": "string"
        }
      ],
      "stateMutability": "view",
      "type": "function"
    },
    {
      "inputs": [
        {
          "internalType": "address",
          "name": "",
          "type": "address"
        }
      ],
      "name": "governorVoted",
      "outputs": [
        {
          "internalType": "bool",
          "name": "",
          "type": "bool"
        }
      ],
      "stateMutability": "view",
      "type": "function"
    },
    {
      "inputs": [],
      "name": "isInitiated",
      "outputs": [
        {
          "internalType": "bool",
          "name": "",
          "type": "bool"
        }
      ],
      "stateMutability": "view",
      "type": "function"
    },
    {
      "inputs": [
        {
          "internalType": "string",
          "name": "",
          "type": "string"
        }
      ],
      "name": "isRegistered",
      "outputs": [
        {
          "internalType": "bool",
          "name": "",
          "type": "bool"
        }
      ],
      "stateMutability": "view",
      "type": "function"
    },
    {
      "inputs": [],
      "name": "numberOfBlockLeader",
      "outputs": [
        {
          "internalType": "uint256",
          "name": "",
          "type": "uint256"
        }
      ],
      "stateMutability": "view",
      "type": "function"
    },
    {
      "inputs": [
        {
          "internalType": "uint256",
          "name": "",
          "type": "uint256"
        }
      ],
      "name": "numberOfGovernor",
      "outputs": [
        {
          "internalType": "uint256",
          "name": "",
          "type": "uint256"
        }
      ],
      "stateMutability": "view",
      "type": "function"
    },
    {
      "inputs": [],
      "name": "numberOfPresident",
      "outputs": [
        {
          "internalType": "uint256",
          "name": "",
          "type": "uint256"
        }
      ],
      "stateMutability": "view",
      "type": "function"
    },
    {
      "inputs": [
        {
          "internalType": "uint256",
          "name": "",
          "type": "uint256"
        }
      ],
      "name": "presidentList",
      "outputs": [
        {
          "internalType": "string",
          "name": "",
          "type": "string"
        }
      ],
      "stateMutability": "view",
      "type": "function"
    },
    {
      "inputs": [
        {
          "internalType": "address",
          "name": "",
          "type": "address"
        }
      ],
      "name": "presidentVoted",
      "outputs": [
        {
          "internalType": "bool",
          "name": "",
          "type": "bool"
        }
      ],
      "stateMutability": "view",
      "type": "function"
    },
    {
      "inputs": [
        {
          "internalType": "uint256",
          "name": "_startTime",
          "type": "uint256"
        },
        {
          "internalType": "uint256",
          "name": "_endTime",
          "type": "uint256"
        }
      ],
      "name": "setVotingPeriod",
      "outputs": [],
      "stateMutability": "nonpayable",
      "type": "function"
    },
    {
      "inputs": [],
      "name": "totalVotes",
      "outputs": [
        {
          "internalType": "uint256",
          "name": "",
          "type": "uint256"
        }
      ],
      "stateMutability": "view",
      "type": "function"
    },
    {
      "inputs": [
        {
          "internalType": "address",
          "name": "newAdmin",
          "type": "address"
        }
      ],
      "name": "transferAdmin",
      "outputs": [],
      "stateMutability": "nonpayable",
      "type": "function"
    },
    {
      "inputs": [],
      "name": "getPresidentRegNumber",
      "outputs": [
        {
          "internalType": "string[]",
          "name": "",
          "type": "string[]"
        }
      ],
      "stateMutability": "view",
      "type": "function"
    },
    {
      "inputs": [],
      "name": "getGovernorRegNumber",
      "outputs": [
        {
          "internalType": "string[]",
          "name": "",
          "type": "string[]"
        }
      ],
      "stateMutability": "view",
      "type": "function"
    },
    {
      "inputs": [],
      "name": "getBlockLeaderRegNumber",
      "outputs": [
        {
          "internalType": "string[]",
          "name": "",
          "type": "string[]"
        }
      ],
      "stateMutability": "view",
      "type": "function"
    },
    {
      "inputs": [
        {
          "internalType": "string",
          "name": "_regNo",
          "type": "string"
        }
      ],
      "name": "viewPresident",
      "outputs": [
        {
          "internalType": "string",
          "name": "firstName",
          "type": "string"
        },
        {
          "internalType": "string",
          "name": "lastName",
          "type": "string"
        },
        {
          "internalType": "string",
          "name": "collegeName",
          "type": "string"
        },
        {
          "internalType": "string",
          "name": "programName",
          "type": "string"
        },
        {
          "internalType": "uint256",
          "name": "yearOfStudy",
          "type": "uint256"
        },
        {
          "internalType": "string",
          "name": "regNo",
          "type": "string"
        },
        {
          "internalType": "string",
          "name": "blockNumber",
          "type": "string"
        },
        {
          "internalType": "string",
          "name": "gender",
          "type": "string"
        },
        {
          "internalType": "uint256",
          "name": "voteCount",
          "type": "uint256"
        }
      ],
      "stateMutability": "view",
      "type": "function"
    },
    {
      "inputs": [
        {
          "internalType": "string",
          "name": "_regNo",
          "type": "string"
        }
      ],
      "name": "adminViewGovernors",
      "outputs": [
        {
          "internalType": "string",
          "name": "firstName",
          "type": "string"
        },
        {
          "internalType": "string",
          "name": "lastName",
          "type": "string"
        },
        {
          "internalType": "string",
          "name": "collegeName",
          "type": "string"
        },
        {
          "internalType": "string",
          "name": "programName",
          "type": "string"
        },
        {
          "internalType": "uint256",
          "name": "yearOfStudy",
          "type": "uint256"
        },
        {
          "internalType": "string",
          "name": "regNo",
          "type": "string"
        },
        {
          "internalType": "string",
          "name": "blockNumber",
          "type": "string"
        },
        {
          "internalType": "string",
          "name": "gender",
          "type": "string"
        },
        {
          "internalType": "uint256",
          "name": "voteCount",
          "type": "uint256"
        }
      ],
      "stateMutability": "view",
      "type": "function"
    },
    {
      "inputs": [
        {
          "internalType": "string",
          "name": "_regNo",
          "type": "string"
        }
      ],
      "name": "adminViewBlockLeaders",
      "outputs": [
        {
          "internalType": "string",
          "name": "firstName",
          "type": "string"
        },
        {
          "internalType": "string",
          "name": "lastName",
          "type": "string"
        },
        {
          "internalType": "string",
          "name": "collegeName",
          "type": "string"
        },
        {
          "internalType": "string",
          "name": "programName",
          "type": "string"
        },
        {
          "internalType": "uint256",
          "name": "yearOfStudy",
          "type": "uint256"
        },
        {
          "internalType": "string",
          "name": "regNo",
          "type": "string"
        },
        {
          "internalType": "string",
          "name": "blockNumber",
          "type": "string"
        },
        {
          "internalType": "string",
          "name": "gender",
          "type": "string"
        },
        {
          "internalType": "uint256",
          "name": "voteCount",
          "type": "uint256"
        }
      ],
      "stateMutability": "view",
      "type": "function"
    }
  ],
  "bytecode": "0x608060405234801561001057600080fd5b5033601460006101000a81548173ffffffffffffffffffffffffffffffffffffffff021916908373ffffffffffffffffffffffffffffffffffffffff160217905550613356806100616000396000f3fe608060405234801561001057600080fd5b506004361061018e5760003560e01c8063828d95f2116100de578063e316db4e11610097578063f644502611610071578063f644502614610538578063f6ffc11714610571578063f851a4401461058f578063f9c12009146105ad5761018e565b8063e316db4e146104ba578063e6b52a33146104ea578063efb98bcf1461051a5761018e565b8063828d95f2146103ca578063a0b0df9514610402578063a15a36c714610432578063b339eb161461044e578063c822d7f01461046c578063dccea1891461049c5761018e565b806345a8a2be1161014b5780635f8b9972116101255780635f8b99721461030e57806375829def1461033e578063788cbe841461035a5780637f8bbbc5146103925761018e565b806345a8a2be146102a15780634b20c243146102d1578063557ed1ba146102ef5761018e565b806302aac7b214610193578063052fbf8c146101c35780630d15fd77146101f3578063166b4722146102115780631ac45f521461024a5780631cb5991414610283575b600080fd5b6101ad60048036038101906101a89190612970565b6105cb565b6040516101ba9190612a2d565b60405180910390f35b6101dd60048036038101906101d89190612aad565b610677565b6040516101ea9190612af5565b60405180910390f35b6101fb610697565b6040516102089190612b1f565b60405180910390f35b61022b60048036038101906102269190612c6f565b61069d565b6040516102419a99989796959493929190612cb8565b60405180910390f35b610264600480360381019061025f9190612c6f565b610acc565b60405161027a9a99989796959493929190612cb8565b60405180910390f35b61028b610efb565b6040516102989190612af5565b60405180910390f35b6102bb60048036038101906102b69190612970565b610f0e565b6040516102c89190612a2d565b60405180910390f35b6102d9610fba565b6040516102e69190612e91565b60405180910390f35b6102f7611093565b604051610305929190612eb3565b60405180910390f35b61032860048036038101906103239190612aad565b61112a565b6040516103359190612af5565b60405180910390f35b61035860048036038101906103539190612aad565b61114a565b005b610374600480360381019061036f9190612c6f565b61121e565b60405161038999989796959493929190612edc565b60405180910390f35b6103ac60048036038101906103a79190612c6f565b6116d5565b6040516103c199989796959493929190612edc565b60405180910390f35b6103e460048036038101906103df9190612c6f565b611b8c565b6040516103f999989796959493929190612edc565b60405180910390f35b61041c60048036038101906104179190612aad565b612043565b6040516104299190612af5565b60405180910390f35b61044c60048036038101906104479190612f9a565b612063565b005b6104566121a8565b6040516104639190612e91565b60405180910390f35b61048660048036038101906104819190612c6f565b612281565b6040516104939190612af5565b60405180910390f35b6104a46122b7565b6040516104b19190612b1f565b60405180910390f35b6104d460048036038101906104cf9190612970565b6122bd565b6040516104e19190612a2d565b60405180910390f35b61050460048036038101906104ff9190612970565b612369565b6040516105119190612b1f565b60405180910390f35b610522612384565b60405161052f9190612b1f565b60405180910390f35b610552600480360381019061054d9190612c6f565b6123f2565b6040516105689a99989796959493929190612cb8565b60405180910390f35b610579612821565b6040516105869190612b1f565b60405180910390f35b610597612827565b6040516105a49190612fe9565b60405180910390f35b6105b561284d565b6040516105c29190612e91565b60405180910390f35b600981815481106105db57600080fd5b9060005260206000200160009150905080546105f690613033565b80601f016020809104026020016040519081016040528092919081815260200182805461062290613033565b801561066f5780601f106106445761010080835404028352916020019161066f565b820191906000526020600020905b81548152906001019060200180831161065257829003601f168201915b505050505081565b60076020528060005260406000206000915054906101000a900460ff1681565b60005481565b6002818051602081018201805184825260208301602085012081835280955050505050506000915090508060000180546106d690613033565b80601f016020809104026020016040519081016040528092919081815260200182805461070290613033565b801561074f5780601f106107245761010080835404028352916020019161074f565b820191906000526020600020905b81548152906001019060200180831161073257829003601f168201915b50505050509080600101805461076490613033565b80601f016020809104026020016040519081016040528092919081815260200182805461079090613033565b80156107dd5780601f106107b2576101008083540402835291602001916107dd565b820191906000526020600020905b8154815290600101906020018083116107c057829003601f168201915b5050505050908060020180546107f290613033565b80601f016020809104026020016040519081016040528092919081815260200182805461081e90613033565b801561086b5780601f106108405761010080835404028352916020019161086b565b820191906000526020600020905b81548152906001019060200180831161084e57829003601f168201915b50505050509080600301805461088090613033565b80601f01602080910402602001604051908101604052809291908181526020018280546108ac90613033565b80156108f95780601f106108ce576101008083540402835291602001916108f9565b820191906000526020600020905b8154815290600101906020018083116108dc57829003601f168201915b50505050509080600401549080600501805461091490613033565b80601f016020809104026020016040519081016040528092919081815260200182805461094090613033565b801561098d5780601f106109625761010080835404028352916020019161098d565b820191906000526020600020905b81548152906001019060200180831161097057829003601f168201915b5050505050908060060180546109a290613033565b80601f01602080910402602001604051908101604052809291908181526020018280546109ce90613033565b8015610a1b5780601f106109f057610100808354040283529160200191610a1b565b820191906000526020600020905b8154815290600101906020018083116109fe57829003601f168201915b505050505090806007018054610a3090613033565b80601f0160208091040260200160405190810160405280929190818152602001828054610a5c90613033565b8015610aa95780601f10610a7e57610100808354040283529160200191610aa9565b820191906000526020600020905b815481529060010190602001808311610a8c57829003601f168201915b5050505050908060080160009054906101000a900460ff1690806009015490508a565b600481805160208101820180518482526020830160208501208183528095505050505050600091509050806000018054610b0590613033565b80601f0160208091040260200160405190810160405280929190818152602001828054610b3190613033565b8015610b7e5780601f10610b5357610100808354040283529160200191610b7e565b820191906000526020600020905b815481529060010190602001808311610b6157829003601f168201915b505050505090806001018054610b9390613033565b80601f0160208091040260200160405190810160405280929190818152602001828054610bbf90613033565b8015610c0c5780601f10610be157610100808354040283529160200191610c0c565b820191906000526020600020905b815481529060010190602001808311610bef57829003601f168201915b505050505090806002018054610c2190613033565b80601f0160208091040260200160405190810160405280929190818152602001828054610c4d90613033565b8015610c9a5780601f10610c6f57610100808354040283529160200191610c9a565b820191906000526020600020905b815481529060010190602001808311610c7d57829003601f168201915b505050505090806003018054610caf90613033565b80601f0160208091040260200160405190810160405280929190818152602001828054610cdb90613033565b8015610d285780601f10610cfd57610100808354040283529160200191610d28565b820191906000526020600020905b815481529060010190602001808311610d0b57829003601f168201915b505050505090806004015490806005018054610d4390613033565b80601f0160208091040260200160405190810160405280929190818152602001828054610d6f90613033565b8015610dbc5780601f10610d9157610100808354040283529160200191610dbc565b820191906000526020600020905b815481529060010190602001808311610d9f57829003601f168201915b505050505090806006018054610dd190613033565b80601f0160208091040260200160405190810160405280929190818152602001828054610dfd90613033565b8015610e4a5780601f10610e1f57610100808354040283529160200191610e4a565b820191906000526020600020905b815481529060010190602001808311610e2d57829003601f168201915b505050505090806007018054610e5f90613033565b80601f0160208091040260200160405190810160405280929190818152602001828054610e8b90613033565b8015610ed85780601f10610ead57610100808354040283529160200191610ed8565b820191906000526020600020905b815481529060010190602001808311610ebb57829003601f168201915b5050505050908060080160009054906101000a900460ff1690806009015490508a565b601860009054906101000a900460ff1681565b600a8181548110610f1e57600080fd5b906000526020600020016000915090508054610f3990613033565b80601f0160208091040260200160405190810160405280929190818152602001828054610f6590613033565b8015610fb25780601f10610f8757610100808354040283529160200191610fb2565b820191906000526020600020905b815481529060010190602001808311610f9557829003601f168201915b505050505081565b60606008805480602002602001604051908101604052809291908181526020016000905b8282101561108a578382906000526020600020018054610ffd90613033565b80601f016020809104026020016040519081016040528092919081815260200182805461102990613033565b80156110765780601f1061104b57610100808354040283529160200191611076565b820191906000526020600020905b81548152906001019060200180831161105957829003601f168201915b505050505081526020019060010190610fde565b50505050905090565b600080601460009054906101000a900473ffffffffffffffffffffffffffffffffffffffff1673ffffffffffffffffffffffffffffffffffffffff163373ffffffffffffffffffffffffffffffffffffffff1614611126576040517f08c379a000000000000000000000000000000000000000000000000000000000815260040161111d906130d6565b60405180910390fd5b9091565b60056020528060005260406000206000915054906101000a900460ff1681565b601460009054906101000a900473ffffffffffffffffffffffffffffffffffffffff1673ffffffffffffffffffffffffffffffffffffffff163373ffffffffffffffffffffffffffffffffffffffff16146111da576040517f08c379a00000000000000000000000000000000000000000000000000000000081526004016111d1906130d6565b60405180910390fd5b80601460006101000a81548173ffffffffffffffffffffffffffffffffffffffff021916908373ffffffffffffffffffffffffffffffffffffffff16021790555050565b6060806060806000606080606060008060028b60405161123e9190613132565b90815260200160405180910390206040518061014001604052908160008201805461126890613033565b80601f016020809104026020016040519081016040528092919081815260200182805461129490613033565b80156112e15780601f106112b6576101008083540402835291602001916112e1565b820191906000526020600020905b8154815290600101906020018083116112c457829003601f168201915b505050505081526020016001820180546112fa90613033565b80601f016020809104026020016040519081016040528092919081815260200182805461132690613033565b80156113735780601f1061134857610100808354040283529160200191611373565b820191906000526020600020905b81548152906001019060200180831161135657829003601f168201915b5050505050815260200160028201805461138c90613033565b80601f01602080910402602001604051908101604052809291908181526020018280546113b890613033565b80156114055780601f106113da57610100808354040283529160200191611405565b820191906000526020600020905b8154815290600101906020018083116113e857829003601f168201915b5050505050815260200160038201805461141e90613033565b80601f016020809104026020016040519081016040528092919081815260200182805461144a90613033565b80156114975780601f1061146c57610100808354040283529160200191611497565b820191906000526020600020905b81548152906001019060200180831161147a57829003601f168201915b50505050508152602001600482015481526020016005820180546114ba90613033565b80601f01602080910402602001604051908101604052809291908181526020018280546114e690613033565b80156115335780601f1061150857610100808354040283529160200191611533565b820191906000526020600020905b81548152906001019060200180831161151657829003601f168201915b5050505050815260200160068201805461154c90613033565b80601f016020809104026020016040519081016040528092919081815260200182805461157890613033565b80156115c55780601f1061159a576101008083540402835291602001916115c5565b820191906000526020600020905b8154815290600101906020018083116115a857829003601f168201915b505050505081526020016007820180546115de90613033565b80601f016020809104026020016040519081016040528092919081815260200182805461160a90613033565b80156116575780601f1061162c57610100808354040283529160200191611657565b820191906000526020600020905b81548152906001019060200180831161163a57829003601f168201915b505050505081526020016008820160009054906101000a900460ff16151515158152602001600982015481525050905080600001519950806020015198508060400151975080606001519650806080015195508060a0015194508060c0015193508060e0015192508061012001519150509193959799909294969850565b6060806060806000606080606060008060048b6040516116f59190613132565b90815260200160405180910390206040518061014001604052908160008201805461171f90613033565b80601f016020809104026020016040519081016040528092919081815260200182805461174b90613033565b80156117985780601f1061176d57610100808354040283529160200191611798565b820191906000526020600020905b81548152906001019060200180831161177b57829003601f168201915b505050505081526020016001820180546117b190613033565b80601f01602080910402602001604051908101604052809291908181526020018280546117dd90613033565b801561182a5780601f106117ff5761010080835404028352916020019161182a565b820191906000526020600020905b81548152906001019060200180831161180d57829003601f168201915b5050505050815260200160028201805461184390613033565b80601f016020809104026020016040519081016040528092919081815260200182805461186f90613033565b80156118bc5780601f10611891576101008083540402835291602001916118bc565b820191906000526020600020905b81548152906001019060200180831161189f57829003601f168201915b505050505081526020016003820180546118d590613033565b80601f016020809104026020016040519081016040528092919081815260200182805461190190613033565b801561194e5780601f106119235761010080835404028352916020019161194e565b820191906000526020600020905b81548152906001019060200180831161193157829003601f168201915b505050505081526020016004820154815260200160058201805461197190613033565b80601f016020809104026020016040519081016040528092919081815260200182805461199d90613033565b80156119ea5780601f106119bf576101008083540402835291602001916119ea565b820191906000526020600020905b8154815290600101906020018083116119cd57829003601f168201915b50505050508152602001600682018054611a0390613033565b80601f0160208091040260200160405190810160405280929190818152602001828054611a2f90613033565b8015611a7c5780601f10611a5157610100808354040283529160200191611a7c565b820191906000526020600020905b815481529060010190602001808311611a5f57829003601f168201915b50505050508152602001600782018054611a9590613033565b80601f0160208091040260200160405190810160405280929190818152602001828054611ac190613033565b8015611b0e5780601f10611ae357610100808354040283529160200191611b0e565b820191906000526020600020905b815481529060010190602001808311611af157829003601f168201915b505050505081526020016008820160009054906101000a900460ff16151515158152602001600982015481525050905080600001519950806020015198508060400151975080606001519650806080015195508060a0015194508060c0015193508060e0015192508061012001519150509193959799909294969850565b6060806060806000606080606060008060038b604051611bac9190613132565b908152602001604051809103902060405180610140016040529081600082018054611bd690613033565b80601f0160208091040260200160405190810160405280929190818152602001828054611c0290613033565b8015611c4f5780601f10611c2457610100808354040283529160200191611c4f565b820191906000526020600020905b815481529060010190602001808311611c3257829003601f168201915b50505050508152602001600182018054611c6890613033565b80601f0160208091040260200160405190810160405280929190818152602001828054611c9490613033565b8015611ce15780601f10611cb657610100808354040283529160200191611ce1565b820191906000526020600020905b815481529060010190602001808311611cc457829003601f168201915b50505050508152602001600282018054611cfa90613033565b80601f0160208091040260200160405190810160405280929190818152602001828054611d2690613033565b8015611d735780601f10611d4857610100808354040283529160200191611d73565b820191906000526020600020905b815481529060010190602001808311611d5657829003601f168201915b50505050508152602001600382018054611d8c90613033565b80601f0160208091040260200160405190810160405280929190818152602001828054611db890613033565b8015611e055780601f10611dda57610100808354040283529160200191611e05565b820191906000526020600020905b815481529060010190602001808311611de857829003601f168201915b5050505050815260200160048201548152602001600582018054611e2890613033565b80601f0160208091040260200160405190810160405280929190818152602001828054611e5490613033565b8015611ea15780601f10611e7657610100808354040283529160200191611ea1565b820191906000526020600020905b815481529060010190602001808311611e8457829003601f168201915b50505050508152602001600682018054611eba90613033565b80601f0160208091040260200160405190810160405280929190818152602001828054611ee690613033565b8015611f335780601f10611f0857610100808354040283529160200191611f33565b820191906000526020600020905b815481529060010190602001808311611f1657829003601f168201915b50505050508152602001600782018054611f4c90613033565b80601f0160208091040260200160405190810160405280929190818152602001828054611f7890613033565b8015611fc55780601f10611f9a57610100808354040283529160200191611fc5565b820191906000526020600020905b815481529060010190602001808311611fa857829003601f168201915b505050505081526020016008820160009054906101000a900460ff16151515158152602001600982015481525050905080600001519950806020015198508060400151975080606001519650806080015195508060a0015194508060c0015193508060e0015192508061012001519150509193959799909294969850565b60066020528060005260406000206000915054906101000a900460ff1681565b601460009054906101000a900473ffffffffffffffffffffffffffffffffffffffff1673ffffffffffffffffffffffffffffffffffffffff163373ffffffffffffffffffffffffffffffffffffffff16146120f3576040517f08c379a00000000000000000000000000000000000000000000000000000000081526004016120ea906130d6565b60405180910390fd5b818111612135576040517f08c379a000000000000000000000000000000000000000000000000000000000815260040161212c90613195565b60405180910390fd5b6000828261214391906131e4565b90506001601860006101000a81548160ff02191690831515021790555060018361216d9190613218565b42612178919061325a565b60158190555060018261218b9190613218565b42612196919061325a565b60168190555080601781905550505050565b60606009805480602002602001604051908101604052809291908181526020016000905b828210156122785783829060005260206000200180546121eb90613033565b80601f016020809104026020016040519081016040528092919081815260200182805461221790613033565b80156122645780601f1061223957610100808354040283529160200191612264565b820191906000526020600020905b81548152906001019060200180831161224757829003601f168201915b5050505050815260200190600101906121cc565b50505050905090565b6001818051602081018201805184825260208301602085012081835280955050505050506000915054906101000a900460ff1681565b600b5481565b600881815481106122cd57600080fd5b9060005260206000200160009150905080546122e890613033565b80601f016020809104026020016040519081016040528092919081815260200182805461231490613033565b80156123615780601f1061233657610100808354040283529160200191612361565b820191906000526020600020905b81548152906001019060200180831161234457829003601f168201915b505050505081565b600c816007811061237957600080fd5b016000915090505481565b60006015544210156123cb576040517f08c379a00000000000000000000000000000000000000000000000000000000081526004016123c290613300565b60405180910390fd5b6016544210156123ea57426016546123e391906131e4565b90506123ef565b600090505b90565b60038180516020810182018051848252602083016020850120818352809550505050505060009150905080600001805461242b90613033565b80601f016020809104026020016040519081016040528092919081815260200182805461245790613033565b80156124a45780601f10612479576101008083540402835291602001916124a4565b820191906000526020600020905b81548152906001019060200180831161248757829003601f168201915b5050505050908060010180546124b990613033565b80601f01602080910402602001604051908101604052809291908181526020018280546124e590613033565b80156125325780601f1061250757610100808354040283529160200191612532565b820191906000526020600020905b81548152906001019060200180831161251557829003601f168201915b50505050509080600201805461254790613033565b80601f016020809104026020016040519081016040528092919081815260200182805461257390613033565b80156125c05780601f10612595576101008083540402835291602001916125c0565b820191906000526020600020905b8154815290600101906020018083116125a357829003601f168201915b5050505050908060030180546125d590613033565b80601f016020809104026020016040519081016040528092919081815260200182805461260190613033565b801561264e5780601f106126235761010080835404028352916020019161264e565b820191906000526020600020905b81548152906001019060200180831161263157829003601f168201915b50505050509080600401549080600501805461266990613033565b80601f016020809104026020016040519081016040528092919081815260200182805461269590613033565b80156126e25780601f106126b7576101008083540402835291602001916126e2565b820191906000526020600020905b8154815290600101906020018083116126c557829003601f168201915b5050505050908060060180546126f790613033565b80601f016020809104026020016040519081016040528092919081815260200182805461272390613033565b80156127705780601f1061274557610100808354040283529160200191612770565b820191906000526020600020905b81548152906001019060200180831161275357829003601f168201915b50505050509080600701805461278590613033565b80601f01602080910402602001604051908101604052809291908181526020018280546127b190613033565b80156127fe5780601f106127d3576101008083540402835291602001916127fe565b820191906000526020600020905b8154815290600101906020018083116127e157829003601f168201915b5050505050908060080160009054906101000a900460ff1690806009015490508a565b60135481565b601460009054906101000a900473ffffffffffffffffffffffffffffffffffffffff1681565b6060600a805480602002602001604051908101604052809291908181526020016000905b8282101561291d57838290600052602060002001805461289090613033565b80601f01602080910402602001604051908101604052809291908181526020018280546128bc90613033565b80156129095780601f106128de57610100808354040283529160200191612909565b820191906000526020600020905b8154815290600101906020018083116128ec57829003601f168201915b505050505081526020019060010190612871565b50505050905090565b6000604051905090565b600080fd5b600080fd5b6000819050919050565b61294d8161293a565b811461295857600080fd5b50565b60008135905061296a81612944565b92915050565b60006020828403121561298657612985612930565b5b60006129948482850161295b565b91505092915050565b600081519050919050565b600082825260208201905092915050565b60005b838110156129d75780820151818401526020810190506129bc565b60008484015250505050565b6000601f19601f8301169050919050565b60006129ff8261299d565b612a0981856129a8565b9350612a198185602086016129b9565b612a22816129e3565b840191505092915050565b60006020820190508181036000830152612a4781846129f4565b905092915050565b600073ffffffffffffffffffffffffffffffffffffffff82169050919050565b6000612a7a82612a4f565b9050919050565b612a8a81612a6f565b8114612a9557600080fd5b50565b600081359050612aa781612a81565b92915050565b600060208284031215612ac357612ac2612930565b5b6000612ad184828501612a98565b91505092915050565b60008115159050919050565b612aef81612ada565b82525050565b6000602082019050612b0a6000830184612ae6565b92915050565b612b198161293a565b82525050565b6000602082019050612b346000830184612b10565b92915050565b600080fd5b600080fd5b7f4e487b7100000000000000000000000000000000000000000000000000000000600052604160045260246000fd5b612b7c826129e3565b810181811067ffffffffffffffff82111715612b9b57612b9a612b44565b5b80604052505050565b6000612bae612926565b9050612bba8282612b73565b919050565b600067ffffffffffffffff821115612bda57612bd9612b44565b5b612be3826129e3565b9050602081019050919050565b82818337600083830152505050565b6000612c12612c0d84612bbf565b612ba4565b905082815260208101848484011115612c2e57612c2d612b3f565b5b612c39848285612bf0565b509392505050565b600082601f830112612c5657612c55612b3a565b5b8135612c66848260208601612bff565b91505092915050565b600060208284031215612c8557612c84612930565b5b600082013567ffffffffffffffff811115612ca357612ca2612935565b5b612caf84828501612c41565b91505092915050565b6000610140820190508181036000830152612cd3818d6129f4565b90508181036020830152612ce7818c6129f4565b90508181036040830152612cfb818b6129f4565b90508181036060830152612d0f818a6129f4565b9050612d1e6080830189612b10565b81810360a0830152612d3081886129f4565b905081810360c0830152612d4481876129f4565b905081810360e0830152612d5881866129f4565b9050612d68610100830185612ae6565b612d76610120830184612b10565b9b9a5050505050505050505050565b600081519050919050565b600082825260208201905092915050565b6000819050602082019050919050565b600082825260208201905092915050565b6000612dcd8261299d565b612dd78185612db1565b9350612de78185602086016129b9565b612df0816129e3565b840191505092915050565b6000612e078383612dc2565b905092915050565b6000602082019050919050565b6000612e2782612d85565b612e318185612d90565b935083602082028501612e4385612da1565b8060005b85811015612e7f5784840389528151612e608582612dfb565b9450612e6b83612e0f565b925060208a01995050600181019050612e47565b50829750879550505050505092915050565b60006020820190508181036000830152612eab8184612e1c565b905092915050565b6000604082019050612ec86000830185612b10565b612ed56020830184612b10565b9392505050565b6000610120820190508181036000830152612ef7818c6129f4565b90508181036020830152612f0b818b6129f4565b90508181036040830152612f1f818a6129f4565b90508181036060830152612f3381896129f4565b9050612f426080830188612b10565b81810360a0830152612f5481876129f4565b905081810360c0830152612f6881866129f4565b905081810360e0830152612f7c81856129f4565b9050612f8c610100830184612b10565b9a9950505050505050505050565b60008060408385031215612fb157612fb0612930565b5b6000612fbf8582860161295b565b9250506020612fd08582860161295b565b9150509250929050565b612fe381612a6f565b82525050565b6000602082019050612ffe6000830184612fda565b92915050565b7f4e487b7100000000000000000000000000000000000000000000000000000000600052602260045260246000fd5b6000600282049050600182168061304b57607f821691505b60208210810361305e5761305d613004565b5b50919050565b7f4f6e6c792061646d696e2063616e20706572666f726d2074686973206163746960008201527f6f6e000000000000000000000000000000000000000000000000000000000000602082015250565b60006130c06022836129a8565b91506130cb82613064565b604082019050919050565b600060208201905081810360008301526130ef816130b3565b9050919050565b600081905092915050565b600061310c8261299d565b61311681856130f6565b93506131268185602086016129b9565b80840191505092915050565b600061313e8284613101565b915081905092915050565b7f496e76616c696420766f74696e6720706572696f640000000000000000000000600082015250565b600061317f6015836129a8565b915061318a82613149565b602082019050919050565b600060208201905081810360008301526131ae81613172565b9050919050565b7f4e487b7100000000000000000000000000000000000000000000000000000000600052601160045260246000fd5b60006131ef8261293a565b91506131fa8361293a565b9250828203905081811115613212576132116131b5565b5b92915050565b60006132238261293a565b915061322e8361293a565b925082820261323c8161293a565b91508282048414831517613253576132526131b5565b5b5092915050565b60006132658261293a565b91506132708361293a565b9250828201905080821115613288576132876131b5565b5b92915050565b7f766f74696e6720686173206e6f742073746172746564207965742121212c205060008201527f6c65617365207761697400000000000000000000000000000000000000000000602082015250565b60006132ea602a836129a8565b91506132f58261328e565b604082019050919050565b60006020820190508181036000830152613319816132dd565b905091905056fea2646970667358221220446e6ac95a9652950b80959725493986a41b33e9e3d83c9c9a36acddba8dc55364736f6c63430008130033",
  "immutableReferences": {},
  "source": "// SPDX-License-Identifier: MIT\npragma solidity ^0.8.0;\nimport \"./CandidateRegistry.sol\";\nimport \"./CandidateStructure.sol\";\nimport \"./TimeControl.sol\";\n\ncontract CandidateViews is CandidateStructure, TimeControl {\n\n    //return the registration number for the candidates for each position\n    function getPresidentRegNumber() public view returns (string[] memory){\n        return presidentList;\n    }\n\n    function getGovernorRegNumber() public view returns (string[] memory){\n        return governorList;\n    }\n\n    function getBlockLeaderRegNumber() public view returns (string[] memory){\n        return blockLeaderList;\n    }\n\n    //Admin view candidates for a specific position of vote\n\n    function viewPresident(string memory _regNo) public view returns(string memory firstName,string memory lastName, \n        string memory collegeName, string memory programName, uint256 yearOfStudy, string memory regNo, string memory blockNumber, string memory gender,uint256 voteCount){\n        Candidate memory candidatePres = candidatePresident[_regNo];\n        firstName = candidatePres.firstName;\n        lastName = candidatePres.lastName;\n        collegeName = candidatePres.collegeName;\n        programName = candidatePres.programName;\n        yearOfStudy = candidatePres.yearOfStudy;\n        regNo = candidatePres.regNo;\n        blockNumber = candidatePres.blockNumber;\n        gender = candidatePres.gender;\n        voteCount = candidatePres.voteCount;\n    }\n\n    function adminViewGovernors(string memory _regNo) public view returns(string memory firstName,string memory lastName, \n        string memory collegeName, string memory programName, uint256 yearOfStudy, string memory regNo, string memory blockNumber, string memory gender,uint256 voteCount){\n        Candidate memory candidateGov = candidateGovernor[_regNo];\n        firstName = candidateGov.firstName;\n        lastName = candidateGov.lastName;\n        collegeName = candidateGov.collegeName;\n        programName = candidateGov.programName;\n        yearOfStudy = candidateGov.yearOfStudy;\n        regNo = candidateGov.regNo;\n        blockNumber = candidateGov.blockNumber;\n        gender = candidateGov.gender;\n        voteCount = candidateGov.voteCount;\n    }\n\n    function adminViewBlockLeaders(string memory _regNo) public view returns(string memory firstName,string memory lastName, \n        string memory collegeName, string memory programName, uint256 yearOfStudy, string memory regNo, string memory blockNumber, string memory gender,uint256 voteCount){\n        Candidate memory candidateBL = candidateBlockLeader[_regNo];\n        firstName = candidateBL.firstName;\n        lastName = candidateBL.lastName;\n        collegeName = candidateBL.collegeName;\n        programName = candidateBL.programName;\n        yearOfStudy = candidateBL.yearOfStudy;\n        regNo = candidateBL.regNo;\n        blockNumber = candidateBL.blockNumber;\n        gender = candidateBL.gender;\n        voteCount = candidateBL.voteCount;\n    }\n\n\n\n\n//voter can view candidate of the corresponding area of vote\n    // function viewPresident() public view returns(Candidate[] memory){\n    //     Candidate[] memory result = new Candidate[](presidentList.length);        \n    //     for(uint i=0; i < presidentList.length; i++){\n    //             result[i] = candidatePresident[presidentList[i]];       \n    //     }\n    //     return result;\n    // }\n\n    // function viewGovernors(string memory _collegeName) public view onlyDuringVotingPeriod returns(Candidate[] memory){\n    //     Candidate[] memory result = new Candidate[](governorList.length);\n    //     string[] memory governorLst = governorList;        \n    //     for(uint i = 0; i < governorLst.length; i++){\n    //         if(keccak256(bytes(candidateGovernor[governorLst[i]].collegeName)) == keccak256(bytes(_collegeName))){\n    //             result[i] = candidateGovernor[governorLst[i]];  \n    //         }            \n    //     }\n    //     return result;\n    // }\n\n    \n\n\n    // function viewBlockLeader(string memory _collegeName, string memory _blockNumber) public onlyDuringVotingPeriod view returns(Candidate[] memory){\n    //     Candidate[] memory result = new Candidate[](blockLeaderList.length);        \n    //     for(uint i = 0; i < blockLeaderList.length; i++){\n    //         if(keccak256(bytes(candidateBlockLeader[blockLeaderList[i]].collegeName)) == keccak256(bytes(_collegeName)) && keccak256(bytes(candidateBlockLeader[blockLeaderList[i]].blockNumber)) == keccak256(bytes(_blockNumber))){\n    //             result[i] = candidateGovernor[blockLeaderList[i]];  \n    //         }            \n    //     }\n    //     return result;\n    // }\n\n    // function adminViewPresident() public view onlyAdmin returns(Candidate[] memory){\n    //     Candidate[] memory result = new Candidate[](presidentList.length);        \n    //     for(uint i=0; i < presidentList.length; i++){\n    //             result[i] = candidatePresident[presidentList[i]];       \n    //     }\n    //     return result;\n    // }\n\n    // function adminViewGovernors() public view onlyAdmin returns(Candidate[] memory){\n    //     Candidate[] memory result = new Candidate[](governorList.length);        \n    //     for(uint i = 0; i < governorList.length; i++){\n    //         result[i] = candidateGovernor[governorList[i]];         \n    //     }\n    //     return result;\n    // }\n\n    // function adminViewBlockLeader() public view onlyAdmin returns(Candidate[] memory){\n    //     Candidate[] memory result = new Candidate[](blockLeaderList.length);        \n    //     for(uint i = 0; i < blockLeaderList.length; i++){\n    //         result[i] = candidateGovernor[blockLeaderList[i]];           \n    //     }\n    //     return result;\n    // }\n}",
  "sourcePath": "/home/temba/Documents/SmartContract/client/contracts/CandidateViews.sol",
  "compiler": {
    "name": "solc",
    "version": "0.8.19+commit.7dd6d404.Emscripten.clang"
  },
  "schemaVersion": "3.4.14",
  "updatedAt": "2023-06-20T14:55:58.121Z",
  "devdoc": {
    "kind": "dev",
    "methods": {},
    "version": 1
  },
  "userdoc": {
    "kind": "user",
    "methods": {},
    "version": 1
  }
}