{
  "contractName": "CandidateContract",
  "abi": [
    {
      "anonymous": false,
      "inputs": [
        {
          "indexed": false,
          "internalType": "string",
          "name": "firstName",
          "type": "string"
        },
        {
          "indexed": false,
          "internalType": "string",
          "name": "lastName",
          "type": "string"
        },
        {
          "indexed": false,
          "internalType": "string",
          "name": "collegeName",
          "type": "string"
        },
        {
          "indexed": false,
          "internalType": "string",
          "name": "programName",
          "type": "string"
        },
        {
          "indexed": false,
          "internalType": "uint256",
          "name": "yearOfStudy",
          "type": "uint256"
        },
        {
          "indexed": false,
          "internalType": "string",
          "name": "regNo",
          "type": "string"
        },
        {
          "indexed": false,
          "internalType": "string",
          "name": "blockNumber",
          "type": "string"
        },
        {
          "indexed": false,
          "internalType": "string",
          "name": "gender",
          "type": "string"
        }
      ],
      "name": "NewBlockLeaderRegistered",
      "type": "event"
    },
    {
      "anonymous": false,
      "inputs": [
        {
          "indexed": false,
          "internalType": "string",
          "name": "firstName",
          "type": "string"
        },
        {
          "indexed": false,
          "internalType": "string",
          "name": "lastName",
          "type": "string"
        },
        {
          "indexed": false,
          "internalType": "string",
          "name": "collegeName",
          "type": "string"
        },
        {
          "indexed": false,
          "internalType": "string",
          "name": "programName",
          "type": "string"
        },
        {
          "indexed": false,
          "internalType": "uint256",
          "name": "yearOfStudy",
          "type": "uint256"
        },
        {
          "indexed": false,
          "internalType": "string",
          "name": "regNo",
          "type": "string"
        },
        {
          "indexed": false,
          "internalType": "string",
          "name": "blockNumber",
          "type": "string"
        },
        {
          "indexed": false,
          "internalType": "string",
          "name": "gender",
          "type": "string"
        }
      ],
      "name": "NewGovernorRegistered",
      "type": "event"
    },
    {
      "anonymous": false,
      "inputs": [
        {
          "indexed": false,
          "internalType": "string",
          "name": "firstName",
          "type": "string"
        },
        {
          "indexed": false,
          "internalType": "string",
          "name": "lastName",
          "type": "string"
        },
        {
          "indexed": false,
          "internalType": "string",
          "name": "collegeName",
          "type": "string"
        },
        {
          "indexed": false,
          "internalType": "string",
          "name": "programName",
          "type": "string"
        },
        {
          "indexed": false,
          "internalType": "uint256",
          "name": "yearOfStudy",
          "type": "uint256"
        },
        {
          "indexed": false,
          "internalType": "string",
          "name": "regNo",
          "type": "string"
        },
        {
          "indexed": false,
          "internalType": "string",
          "name": "blockNumber",
          "type": "string"
        },
        {
          "indexed": false,
          "internalType": "string",
          "name": "gender",
          "type": "string"
        }
      ],
      "name": "NewPresidentRegistered",
      "type": "event"
    },
    {
      "inputs": [],
      "name": "admin",
      "outputs": [
        {
          "internalType": "address",
          "name": "",
          "type": "address"
        }
      ],
      "stateMutability": "view",
      "type": "function",
      "constant": true
    },
    {
      "inputs": [
        {
          "internalType": "uint256",
          "name": "",
          "type": "uint256"
        }
      ],
      "name": "blockLeaderList",
      "outputs": [
        {
          "internalType": "string",
          "name": "",
          "type": "string"
        }
      ],
      "stateMutability": "view",
      "type": "function",
      "constant": true
    },
    {
      "inputs": [
        {
          "internalType": "address",
          "name": "",
          "type": "address"
        }
      ],
      "name": "blockLeaderVoted",
      "outputs": [
        {
          "internalType": "bool",
          "name": "",
          "type": "bool"
        }
      ],
      "stateMutability": "view",
      "type": "function",
      "constant": true
    },
    {
      "inputs": [
        {
          "internalType": "string",
          "name": "",
          "type": "string"
        }
      ],
      "name": "candidateBlockLeader",
      "outputs": [
        {
          "internalType": "string",
          "name": "firstName",
          "type": "string"
        },
        {
          "internalType": "string",
          "name": "lastName",
          "type": "string"
        },
        {
          "internalType": "string",
          "name": "collegeName",
          "type": "string"
        },
        {
          "internalType": "string",
          "name": "programName",
          "type": "string"
        },
        {
          "internalType": "uint256",
          "name": "yearOfStudy",
          "type": "uint256"
        },
        {
          "internalType": "string",
          "name": "regNo",
          "type": "string"
        },
        {
          "internalType": "string",
          "name": "blockNumber",
          "type": "string"
        },
        {
          "internalType": "string",
          "name": "gender",
          "type": "string"
        },
        {
          "internalType": "bool",
          "name": "isWinner",
          "type": "bool"
        },
        {
          "internalType": "uint256",
          "name": "voteCount",
          "type": "uint256"
        }
      ],
      "stateMutability": "view",
      "type": "function",
      "constant": true
    },
    {
      "inputs": [
        {
          "internalType": "string",
          "name": "",
          "type": "string"
        }
      ],
      "name": "candidateGovernor",
      "outputs": [
        {
          "internalType": "string",
          "name": "firstName",
          "type": "string"
        },
        {
          "internalType": "string",
          "name": "lastName",
          "type": "string"
        },
        {
          "internalType": "string",
          "name": "collegeName",
          "type": "string"
        },
        {
          "internalType": "string",
          "name": "programName",
          "type": "string"
        },
        {
          "internalType": "uint256",
          "name": "yearOfStudy",
          "type": "uint256"
        },
        {
          "internalType": "string",
          "name": "regNo",
          "type": "string"
        },
        {
          "internalType": "string",
          "name": "blockNumber",
          "type": "string"
        },
        {
          "internalType": "string",
          "name": "gender",
          "type": "string"
        },
        {
          "internalType": "bool",
          "name": "isWinner",
          "type": "bool"
        },
        {
          "internalType": "uint256",
          "name": "voteCount",
          "type": "uint256"
        }
      ],
      "stateMutability": "view",
      "type": "function",
      "constant": true
    },
    {
      "inputs": [
        {
          "internalType": "string",
          "name": "",
          "type": "string"
        }
      ],
      "name": "candidatePresident",
      "outputs": [
        {
          "internalType": "string",
          "name": "firstName",
          "type": "string"
        },
        {
          "internalType": "string",
          "name": "lastName",
          "type": "string"
        },
        {
          "internalType": "string",
          "name": "collegeName",
          "type": "string"
        },
        {
          "internalType": "string",
          "name": "programName",
          "type": "string"
        },
        {
          "internalType": "uint256",
          "name": "yearOfStudy",
          "type": "uint256"
        },
        {
          "internalType": "string",
          "name": "regNo",
          "type": "string"
        },
        {
          "internalType": "string",
          "name": "blockNumber",
          "type": "string"
        },
        {
          "internalType": "string",
          "name": "gender",
          "type": "string"
        },
        {
          "internalType": "bool",
          "name": "isWinner",
          "type": "bool"
        },
        {
          "internalType": "uint256",
          "name": "voteCount",
          "type": "uint256"
        }
      ],
      "stateMutability": "view",
      "type": "function",
      "constant": true
    },
    {
      "inputs": [
        {
          "internalType": "uint256",
          "name": "",
          "type": "uint256"
        }
      ],
      "name": "governorList",
      "outputs": [
        {
          "internalType": "string",
          "name": "",
          "type": "string"
        }
      ],
      "stateMutability": "view",
      "type": "function",
      "constant": true
    },
    {
      "inputs": [
        {
          "internalType": "address",
          "name": "",
          "type": "address"
        }
      ],
      "name": "governorVoted",
      "outputs": [
        {
          "internalType": "bool",
          "name": "",
          "type": "bool"
        }
      ],
      "stateMutability": "view",
      "type": "function",
      "constant": true
    },
    {
      "inputs": [],
      "name": "isInitiated",
      "outputs": [
        {
          "internalType": "bool",
          "name": "",
          "type": "bool"
        }
      ],
      "stateMutability": "view",
      "type": "function",
      "constant": true
    },
    {
      "inputs": [
        {
          "internalType": "string",
          "name": "",
          "type": "string"
        }
      ],
      "name": "isRegistered",
      "outputs": [
        {
          "internalType": "bool",
          "name": "",
          "type": "bool"
        }
      ],
      "stateMutability": "view",
      "type": "function",
      "constant": true
    },
    {
      "inputs": [],
      "name": "numberOfBlockLeader",
      "outputs": [
        {
          "internalType": "uint256",
          "name": "",
          "type": "uint256"
        }
      ],
      "stateMutability": "view",
      "type": "function",
      "constant": true
    },
    {
      "inputs": [],
      "name": "numberOfGovernor",
      "outputs": [
        {
          "internalType": "uint256",
          "name": "",
          "type": "uint256"
        }
      ],
      "stateMutability": "view",
      "type": "function",
      "constant": true
    },
    {
      "inputs": [],
      "name": "numberOfPresident",
      "outputs": [
        {
          "internalType": "uint256",
          "name": "",
          "type": "uint256"
        }
      ],
      "stateMutability": "view",
      "type": "function",
      "constant": true
    },
    {
      "inputs": [
        {
          "internalType": "uint256",
          "name": "",
          "type": "uint256"
        }
      ],
      "name": "presidentList",
      "outputs": [
        {
          "internalType": "string",
          "name": "",
          "type": "string"
        }
      ],
      "stateMutability": "view",
      "type": "function",
      "constant": true
    },
    {
      "inputs": [
        {
          "internalType": "address",
          "name": "",
          "type": "address"
        }
      ],
      "name": "presidentVoted",
      "outputs": [
        {
          "internalType": "bool",
          "name": "",
          "type": "bool"
        }
      ],
      "stateMutability": "view",
      "type": "function",
      "constant": true
    },
    {
      "inputs": [],
      "name": "totalVotes",
      "outputs": [
        {
          "internalType": "uint256",
          "name": "",
          "type": "uint256"
        }
      ],
      "stateMutability": "view",
      "type": "function",
      "constant": true
    },
    {
      "inputs": [
        {
          "internalType": "address",
          "name": "newAdmin",
          "type": "address"
        }
      ],
      "name": "transferAdmin",
      "outputs": [],
      "stateMutability": "nonpayable",
      "type": "function"
    },
    {
      "inputs": [
        {
          "internalType": "string",
          "name": "_firstName",
          "type": "string"
        },
        {
          "internalType": "string",
          "name": "_lastName",
          "type": "string"
        },
        {
          "internalType": "string",
          "name": "_collegeName",
          "type": "string"
        },
        {
          "internalType": "string",
          "name": "_programName",
          "type": "string"
        },
        {
          "internalType": "uint256",
          "name": "_yearOfStudy",
          "type": "uint256"
        },
        {
          "internalType": "string",
          "name": "_regNo",
          "type": "string"
        },
        {
          "internalType": "string",
          "name": "_blockNumber",
          "type": "string"
        },
        {
          "internalType": "string",
          "name": "_gender",
          "type": "string"
        }
      ],
      "name": "registerPresident",
      "outputs": [],
      "stateMutability": "nonpayable",
      "type": "function"
    },
    {
      "inputs": [
        {
          "internalType": "string",
          "name": "_firstName",
          "type": "string"
        },
        {
          "internalType": "string",
          "name": "_lastName",
          "type": "string"
        },
        {
          "internalType": "string",
          "name": "_collegeName",
          "type": "string"
        },
        {
          "internalType": "string",
          "name": "_programName",
          "type": "string"
        },
        {
          "internalType": "uint256",
          "name": "_yearOfStudy",
          "type": "uint256"
        },
        {
          "internalType": "string",
          "name": "_regNo",
          "type": "string"
        },
        {
          "internalType": "string",
          "name": "_blockNumber",
          "type": "string"
        },
        {
          "internalType": "string",
          "name": "_gender",
          "type": "string"
        }
      ],
      "name": "registerGovernor",
      "outputs": [],
      "stateMutability": "nonpayable",
      "type": "function"
    },
    {
      "inputs": [
        {
          "internalType": "string",
          "name": "_firstName",
          "type": "string"
        },
        {
          "internalType": "string",
          "name": "_lastName",
          "type": "string"
        },
        {
          "internalType": "string",
          "name": "_collegeName",
          "type": "string"
        },
        {
          "internalType": "string",
          "name": "_programName",
          "type": "string"
        },
        {
          "internalType": "uint256",
          "name": "_yearOfStudy",
          "type": "uint256"
        },
        {
          "internalType": "string",
          "name": "_regNo",
          "type": "string"
        },
        {
          "internalType": "string",
          "name": "_blockNumber",
          "type": "string"
        },
        {
          "internalType": "string",
          "name": "_gender",
          "type": "string"
        }
      ],
      "name": "registerBlockLeader",
      "outputs": [],
      "stateMutability": "nonpayable",
      "type": "function"
    },
    {
      "inputs": [],
      "name": "getPresidentRegNumber",
      "outputs": [
        {
          "internalType": "string[]",
          "name": "",
          "type": "string[]"
        }
      ],
      "stateMutability": "view",
      "type": "function",
      "constant": true
    },
    {
      "inputs": [
        {
          "internalType": "string",
          "name": "_regNo",
          "type": "string"
        }
      ],
      "name": "viewPresident",
      "outputs": [
        {
          "internalType": "string",
          "name": "firstName",
          "type": "string"
        },
        {
          "internalType": "string",
          "name": "lastName",
          "type": "string"
        },
        {
          "internalType": "string",
          "name": "collegeName",
          "type": "string"
        },
        {
          "internalType": "string",
          "name": "programName",
          "type": "string"
        },
        {
          "internalType": "uint256",
          "name": "yearOfStudy",
          "type": "uint256"
        },
        {
          "internalType": "string",
          "name": "regNo",
          "type": "string"
        },
        {
          "internalType": "string",
          "name": "blockNumber",
          "type": "string"
        },
        {
          "internalType": "string",
          "name": "gender",
          "type": "string"
        },
        {
          "internalType": "uint256",
          "name": "voteCount",
          "type": "uint256"
        }
      ],
      "stateMutability": "view",
      "type": "function",
      "constant": true
    },
    {
      "inputs": [],
      "name": "getGovernorRegNumber",
      "outputs": [
        {
          "internalType": "string[]",
          "name": "",
          "type": "string[]"
        }
      ],
      "stateMutability": "view",
      "type": "function",
      "constant": true
    },
    {
      "inputs": [
        {
          "internalType": "string",
          "name": "_regNo",
          "type": "string"
        }
      ],
      "name": "adminViewGovernors",
      "outputs": [
        {
          "internalType": "string",
          "name": "firstName",
          "type": "string"
        },
        {
          "internalType": "string",
          "name": "lastName",
          "type": "string"
        },
        {
          "internalType": "string",
          "name": "collegeName",
          "type": "string"
        },
        {
          "internalType": "string",
          "name": "programName",
          "type": "string"
        },
        {
          "internalType": "uint256",
          "name": "yearOfStudy",
          "type": "uint256"
        },
        {
          "internalType": "string",
          "name": "regNo",
          "type": "string"
        },
        {
          "internalType": "string",
          "name": "blockNumber",
          "type": "string"
        },
        {
          "internalType": "string",
          "name": "gender",
          "type": "string"
        },
        {
          "internalType": "uint256",
          "name": "voteCount",
          "type": "uint256"
        }
      ],
      "stateMutability": "view",
      "type": "function",
      "constant": true
    },
    {
      "inputs": [],
      "name": "getBlockLeaderRegNumber",
      "outputs": [
        {
          "internalType": "string[]",
          "name": "",
          "type": "string[]"
        }
      ],
      "stateMutability": "view",
      "type": "function",
      "constant": true
    },
    {
      "inputs": [
        {
          "internalType": "string",
          "name": "_regNo",
          "type": "string"
        }
      ],
      "name": "adminViewBlockLeaders",
      "outputs": [
        {
          "internalType": "string",
          "name": "firstName",
          "type": "string"
        },
        {
          "internalType": "string",
          "name": "lastName",
          "type": "string"
        },
        {
          "internalType": "string",
          "name": "collegeName",
          "type": "string"
        },
        {
          "internalType": "string",
          "name": "programName",
          "type": "string"
        },
        {
          "internalType": "uint256",
          "name": "yearOfStudy",
          "type": "uint256"
        },
        {
          "internalType": "string",
          "name": "regNo",
          "type": "string"
        },
        {
          "internalType": "string",
          "name": "blockNumber",
          "type": "string"
        },
        {
          "internalType": "string",
          "name": "gender",
          "type": "string"
        },
        {
          "internalType": "uint256",
          "name": "voteCount",
          "type": "uint256"
        }
      ],
      "stateMutability": "view",
      "type": "function",
      "constant": true
    },
    {
      "inputs": [
        {
          "internalType": "string",
          "name": "_presidentRegNo",
          "type": "string"
        },
        {
          "internalType": "address",
          "name": "_candidateContractAddress",
          "type": "address"
        }
      ],
      "name": "castVotePresident",
      "outputs": [],
      "stateMutability": "nonpayable",
      "type": "function"
    },
    {
      "inputs": [
        {
          "internalType": "string",
          "name": "_governorRegNo",
          "type": "string"
        },
        {
          "internalType": "address",
          "name": "_candidateContractAddress",
          "type": "address"
        }
      ],
      "name": "castVoteGovernor",
      "outputs": [],
      "stateMutability": "nonpayable",
      "type": "function"
    },
    {
      "inputs": [
        {
          "internalType": "string",
          "name": "_blockLeaderRegNo",
          "type": "string"
        },
        {
          "internalType": "address",
          "name": "_candidateContractAddress",
          "type": "address"
        }
      ],
      "name": "castVoteBlockLeader",
      "outputs": [],
      "stateMutability": "nonpayable",
      "type": "function"
    },
    {
      "inputs": [],
      "name": "getWinnerPresident",
      "outputs": [
        {
          "internalType": "string",
          "name": "",
          "type": "string"
        },
        {
          "internalType": "string",
          "name": "",
          "type": "string"
        },
        {
          "internalType": "string",
          "name": "",
          "type": "string"
        },
        {
          "internalType": "string",
          "name": "",
          "type": "string"
        },
        {
          "internalType": "uint256",
          "name": "",
          "type": "uint256"
        }
      ],
      "stateMutability": "view",
      "type": "function",
      "constant": true
    },
    {
      "inputs": [],
      "name": "getWinnerGovernor",
      "outputs": [
        {
          "internalType": "string",
          "name": "",
          "type": "string"
        },
        {
          "internalType": "string",
          "name": "",
          "type": "string"
        },
        {
          "internalType": "string",
          "name": "",
          "type": "string"
        },
        {
          "internalType": "string",
          "name": "",
          "type": "string"
        },
        {
          "internalType": "uint256",
          "name": "",
          "type": "uint256"
        }
      ],
      "stateMutability": "view",
      "type": "function",
      "constant": true
    },
    {
      "inputs": [],
      "name": "getWinnerBlockLeader",
      "outputs": [
        {
          "internalType": "string",
          "name": "",
          "type": "string"
        },
        {
          "internalType": "string",
          "name": "",
          "type": "string"
        },
        {
          "internalType": "string",
          "name": "",
          "type": "string"
        },
        {
          "internalType": "string",
          "name": "",
          "type": "string"
        },
        {
          "internalType": "uint256",
          "name": "",
          "type": "uint256"
        }
      ],
      "stateMutability": "view",
      "type": "function",
      "constant": true
    }
  ],
  "bytecode": "0x608060405234801561001057600080fd5b50336000806101000a81548173ffffffffffffffffffffffffffffffffffffffff021916908373ffffffffffffffffffffffffffffffffffffffff160217905550615e7e80620000616000396000f3fe608060405234801561001057600080fd5b50600436106101ef5760003560e01c8063788cbe841161010f578063daa4348f116100a2578063f644502611610071578063f64450261461063c578063f6ffc11714610675578063f851a44014610693578063f9c12009146106b1576101ef565b8063daa4348f146105b0578063dccea189146105d2578063e316db4e146105f0578063f19c880214610620576101ef565b8063b339eb16116100de578063b339eb1614610528578063b8c597db14610546578063c184e77814610564578063c822d7f014610580576101ef565b8063788cbe84146104505780637f8bbbc514610488578063828d95f2146104c0578063a0b0df95146104f8576101ef565b80631ac45f52116101875780634c1e63c2116101565780634c1e63c2146103c65780635f8b9972146103e25780636d75f0de1461041257806375829def14610434576101ef565b80631ac45f52146103215780631cb599141461035a57806345a8a2be146103785780634b20c243146103a8576101ef565b80630a8b6c2d116101c35780630a8b6c2d1461028c5780630d15fd77146102a8578063166b4722146102c657806319fbf89f146102ff576101ef565b8062b9463b146101f457806302aac7b21461021057806304ecff8814610240578063052fbf8c1461025c575b600080fd5b61020e60048036038101906102099190614ac4565b6106cf565b005b61022a60048036038101906102259190614b56565b610941565b6040516102379190614c02565b60405180910390f35b61025a60048036038101906102559190614ac4565b6109ed565b005b61027660048036038101906102719190614c24565b610c5f565b6040516102839190614c6c565b60405180910390f35b6102a660048036038101906102a19190614ac4565b610c7f565b005b6102b0610ef1565b6040516102bd9190614c96565b60405180910390f35b6102e060048036038101906102db9190614cb1565b610ef7565b6040516102f69a99989796959493929190614cfa565b60405180910390f35b610307611326565b604051610318959493929190614dc7565b60405180910390f35b61033b60048036038101906103369190614cb1565b611889565b6040516103519a99989796959493929190614cfa565b60405180910390f35b610362611cb8565b60405161036f9190614c6c565b60405180910390f35b610392600480360381019061038d9190614b56565b611ccb565b60405161039f9190614c02565b60405180910390f35b6103b0611d77565b6040516103bd9190614f42565b60405180910390f35b6103e060048036038101906103db9190614f64565b611e50565b005b6103fc60048036038101906103f79190614c24565b6121ae565b6040516104099190614c6c565b60405180910390f35b61041a6121ce565b60405161042b959493929190614dc7565b60405180910390f35b61044e60048036038101906104499190614c24565b612731565b005b61046a60048036038101906104659190614cb1565b612802565b60405161047f999897969594939291906150de565b60405180910390f35b6104a2600480360381019061049d9190614cb1565b612cb9565b6040516104b7999897969594939291906150de565b60405180910390f35b6104da60048036038101906104d59190614cb1565b613170565b6040516104ef999897969594939291906150de565b60405180910390f35b610512600480360381019061050d9190614c24565b613627565b60405161051f9190614c6c565b60405180910390f35b610530613647565b60405161053d9190614f42565b60405180910390f35b61054e613720565b60405161055b9190614c96565b60405180910390f35b61057e60048036038101906105799190614f64565b613726565b005b61059a60048036038101906105959190614cb1565b613a8e565b6040516105a79190614c6c565b60405180910390f35b6105b8613ac4565b6040516105c9959493929190614dc7565b60405180910390f35b6105da614027565b6040516105e79190614c96565b60405180910390f35b61060a60048036038101906106059190614b56565b61402d565b6040516106179190614c02565b60405180910390f35b61063a60048036038101906106359190614f64565b6140d9565b005b61065660048036038101906106519190614cb1565b6143da565b60405161066c9a99989796959493929190614cfa565b60405180910390f35b61067d614809565b60405161068a9190614c96565b60405180910390f35b61069b61480f565b6040516106a891906151ab565b60405180910390f35b6106b9614833565b6040516106c69190614f42565b60405180910390f35b60008190508073ffffffffffffffffffffffffffffffffffffffff1663d4f50f98336040518263ffffffff1660e01b815260040161070d91906151ab565b600060405180830381865afa15801561072a573d6000803e3d6000fd5b505050506040513d6000823e3d601f19601f820116820180604052508101906107539190615498565b6101400151610797576040517f08c379a000000000000000000000000000000000000000000000000000000000815260040161078e9061552d565b60405180910390fd5b6006836040516107a79190615589565b908152602001604051809103902060009054906101000a900460ff16610802576040517f08c379a00000000000000000000000000000000000000000000000000000000081526004016107f9906155ec565b60405180910390fd5b600b60003373ffffffffffffffffffffffffffffffffffffffff1673ffffffffffffffffffffffffffffffffffffffff16815260200190815260200160002060009054906101000a900460ff161561088f576040517f08c379a00000000000000000000000000000000000000000000000000000000081526004016108869061567e565b60405180910390fd5b6001600b60003373ffffffffffffffffffffffffffffffffffffffff1673ffffffffffffffffffffffffffffffffffffffff16815260200190815260200160002060006101000a81548160ff02191690831515021790555060006008846040516108f99190615589565b9081526020016040518091039020905080600901600081548092919061091e906156cd565b919050555060056000815480929190610936906156cd565b919050555050505050565b600e818154811061095157600080fd5b90600052602060002001600091509050805461096c90615744565b80601f016020809104026020016040519081016040528092919081815260200182805461099890615744565b80156109e55780601f106109ba576101008083540402835291602001916109e5565b820191906000526020600020905b8154815290600101906020018083116109c857829003601f168201915b505050505081565b60008190508073ffffffffffffffffffffffffffffffffffffffff1663d4f50f98336040518263ffffffff1660e01b8152600401610a2b91906151ab565b600060405180830381865afa158015610a48573d6000803e3d6000fd5b505050506040513d6000823e3d601f19601f82011682018060405250810190610a719190615498565b6101400151610ab5576040517f08c379a0000000000000000000000000000000000000000000000000000000008152600401610aac9061552d565b60405180910390fd5b600683604051610ac59190615589565b908152602001604051809103902060009054906101000a900460ff16610b20576040517f08c379a0000000000000000000000000000000000000000000000000000000008152600401610b17906155ec565b60405180910390fd5b600c60003373ffffffffffffffffffffffffffffffffffffffff1673ffffffffffffffffffffffffffffffffffffffff16815260200190815260200160002060009054906101000a900460ff1615610bad576040517f08c379a0000000000000000000000000000000000000000000000000000000008152600401610ba4906157e7565b60405180910390fd5b6001600c60003373ffffffffffffffffffffffffffffffffffffffff1673ffffffffffffffffffffffffffffffffffffffff16815260200190815260200160002060006101000a81548160ff0219169083151502179055506000600984604051610c179190615589565b90815260200160405180910390209050806009016000815480929190610c3c906156cd565b919050555060056000815480929190610c54906156cd565b919050555050505050565b600c6020528060005260406000206000915054906101000a900460ff1681565b60008190508073ffffffffffffffffffffffffffffffffffffffff1663d4f50f98336040518263ffffffff1660e01b8152600401610cbd91906151ab565b600060405180830381865afa158015610cda573d6000803e3d6000fd5b505050506040513d6000823e3d601f19601f82011682018060405250810190610d039190615498565b6101400151610d47576040517f08c379a0000000000000000000000000000000000000000000000000000000008152600401610d3e9061552d565b60405180910390fd5b600683604051610d579190615589565b908152602001604051809103902060009054906101000a900460ff16610db2576040517f08c379a0000000000000000000000000000000000000000000000000000000008152600401610da9906155ec565b60405180910390fd5b600a60003373ffffffffffffffffffffffffffffffffffffffff1673ffffffffffffffffffffffffffffffffffffffff16815260200190815260200160002060009054906101000a900460ff1615610e3f576040517f08c379a0000000000000000000000000000000000000000000000000000000008152600401610e3690615879565b60405180910390fd5b6001600a60003373ffffffffffffffffffffffffffffffffffffffff1673ffffffffffffffffffffffffffffffffffffffff16815260200190815260200160002060006101000a81548160ff0219169083151502179055506000600784604051610ea99190615589565b90815260200160405180910390209050806009016000815480929190610ece906156cd565b919050555060056000815480929190610ee6906156cd565b919050555050505050565b60055481565b600781805160208101820180518482526020830160208501208183528095505050505050600091509050806000018054610f3090615744565b80601f0160208091040260200160405190810160405280929190818152602001828054610f5c90615744565b8015610fa95780601f10610f7e57610100808354040283529160200191610fa9565b820191906000526020600020905b815481529060010190602001808311610f8c57829003601f168201915b505050505090806001018054610fbe90615744565b80601f0160208091040260200160405190810160405280929190818152602001828054610fea90615744565b80156110375780601f1061100c57610100808354040283529160200191611037565b820191906000526020600020905b81548152906001019060200180831161101a57829003601f168201915b50505050509080600201805461104c90615744565b80601f016020809104026020016040519081016040528092919081815260200182805461107890615744565b80156110c55780601f1061109a576101008083540402835291602001916110c5565b820191906000526020600020905b8154815290600101906020018083116110a857829003601f168201915b5050505050908060030180546110da90615744565b80601f016020809104026020016040519081016040528092919081815260200182805461110690615744565b80156111535780601f1061112857610100808354040283529160200191611153565b820191906000526020600020905b81548152906001019060200180831161113657829003601f168201915b50505050509080600401549080600501805461116e90615744565b80601f016020809104026020016040519081016040528092919081815260200182805461119a90615744565b80156111e75780601f106111bc576101008083540402835291602001916111e7565b820191906000526020600020905b8154815290600101906020018083116111ca57829003601f168201915b5050505050908060060180546111fc90615744565b80601f016020809104026020016040519081016040528092919081815260200182805461122890615744565b80156112755780601f1061124a57610100808354040283529160200191611275565b820191906000526020600020905b81548152906001019060200180831161125857829003601f168201915b50505050509080600701805461128a90615744565b80601f01602080910402602001604051908101604052809291908181526020018280546112b690615744565b80156113035780601f106112d857610100808354040283529160200191611303565b820191906000526020600020905b8154815290600101906020018083116112e657829003601f168201915b5050505050908060080160009054906101000a900460ff1690806009015490508a565b606080606080600080600090506000805b600f805490508110156113e257826009600f838154811061135b5761135a615899565b5b906000526020600020016040516113729190615960565b90815260200160405180910390206009015411156113cf576009600f82815481106113a05761139f615899565b5b906000526020600020016040516113b79190615960565b90815260200160405180910390206009015492508091505b80806113da906156cd565b915050611337565b5060006009600f83815481106113fb576113fa615899565b5b906000526020600020016040516114129190615960565b90815260200160405180910390206040518061014001604052908160008201805461143c90615744565b80601f016020809104026020016040519081016040528092919081815260200182805461146890615744565b80156114b55780601f1061148a576101008083540402835291602001916114b5565b820191906000526020600020905b81548152906001019060200180831161149857829003601f168201915b505050505081526020016001820180546114ce90615744565b80601f01602080910402602001604051908101604052809291908181526020018280546114fa90615744565b80156115475780601f1061151c57610100808354040283529160200191611547565b820191906000526020600020905b81548152906001019060200180831161152a57829003601f168201915b5050505050815260200160028201805461156090615744565b80601f016020809104026020016040519081016040528092919081815260200182805461158c90615744565b80156115d95780601f106115ae576101008083540402835291602001916115d9565b820191906000526020600020905b8154815290600101906020018083116115bc57829003601f168201915b505050505081526020016003820180546115f290615744565b80601f016020809104026020016040519081016040528092919081815260200182805461161e90615744565b801561166b5780601f106116405761010080835404028352916020019161166b565b820191906000526020600020905b81548152906001019060200180831161164e57829003601f168201915b505050505081526020016004820154815260200160058201805461168e90615744565b80601f01602080910402602001604051908101604052809291908181526020018280546116ba90615744565b80156117075780601f106116dc57610100808354040283529160200191611707565b820191906000526020600020905b8154815290600101906020018083116116ea57829003601f168201915b5050505050815260200160068201805461172090615744565b80601f016020809104026020016040519081016040528092919081815260200182805461174c90615744565b80156117995780601f1061176e57610100808354040283529160200191611799565b820191906000526020600020905b81548152906001019060200180831161177c57829003601f168201915b505050505081526020016007820180546117b290615744565b80601f01602080910402602001604051908101604052809291908181526020018280546117de90615744565b801561182b5780601f106118005761010080835404028352916020019161182b565b820191906000526020600020905b81548152906001019060200180831161180e57829003601f168201915b505050505081526020016008820160009054906101000a900460ff1615151515815260200160098201548152505090508060000151816020015182604001518360600151846101200151975097509750975097505050509091929394565b6009818051602081018201805184825260208301602085012081835280955050505050506000915090508060000180546118c290615744565b80601f01602080910402602001604051908101604052809291908181526020018280546118ee90615744565b801561193b5780601f106119105761010080835404028352916020019161193b565b820191906000526020600020905b81548152906001019060200180831161191e57829003601f168201915b50505050509080600101805461195090615744565b80601f016020809104026020016040519081016040528092919081815260200182805461197c90615744565b80156119c95780601f1061199e576101008083540402835291602001916119c9565b820191906000526020600020905b8154815290600101906020018083116119ac57829003601f168201915b5050505050908060020180546119de90615744565b80601f0160208091040260200160405190810160405280929190818152602001828054611a0a90615744565b8015611a575780601f10611a2c57610100808354040283529160200191611a57565b820191906000526020600020905b815481529060010190602001808311611a3a57829003601f168201915b505050505090806003018054611a6c90615744565b80601f0160208091040260200160405190810160405280929190818152602001828054611a9890615744565b8015611ae55780601f10611aba57610100808354040283529160200191611ae5565b820191906000526020600020905b815481529060010190602001808311611ac857829003601f168201915b505050505090806004015490806005018054611b0090615744565b80601f0160208091040260200160405190810160405280929190818152602001828054611b2c90615744565b8015611b795780601f10611b4e57610100808354040283529160200191611b79565b820191906000526020600020905b815481529060010190602001808311611b5c57829003601f168201915b505050505090806006018054611b8e90615744565b80601f0160208091040260200160405190810160405280929190818152602001828054611bba90615744565b8015611c075780601f10611bdc57610100808354040283529160200191611c07565b820191906000526020600020905b815481529060010190602001808311611bea57829003601f168201915b505050505090806007018054611c1c90615744565b80601f0160208091040260200160405190810160405280929190818152602001828054611c4890615744565b8015611c955780601f10611c6a57610100808354040283529160200191611c95565b820191906000526020600020905b815481529060010190602001808311611c7857829003601f168201915b5050505050908060080160009054906101000a900460ff1690806009015490508a565b600460009054906101000a900460ff1681565b600f8181548110611cdb57600080fd5b906000526020600020016000915090508054611cf690615744565b80601f0160208091040260200160405190810160405280929190818152602001828054611d2290615744565b8015611d6f5780601f10611d4457610100808354040283529160200191611d6f565b820191906000526020600020905b815481529060010190602001808311611d5257829003601f168201915b505050505081565b6060600d805480602002602001604051908101604052809291908181526020016000905b82821015611e47578382906000526020600020018054611dba90615744565b80601f0160208091040260200160405190810160405280929190818152602001828054611de690615744565b8015611e335780601f10611e0857610100808354040283529160200191611e33565b820191906000526020600020905b815481529060010190602001808311611e1657829003601f168201915b505050505081526020019060010190611d9b565b50505050905090565b60008054906101000a900473ffffffffffffffffffffffffffffffffffffffff1673ffffffffffffffffffffffffffffffffffffffff163373ffffffffffffffffffffffffffffffffffffffff1614611ede576040517f08c379a0000000000000000000000000000000000000000000000000000000008152600401611ed5906159e9565b60405180910390fd5b600460009054906101000a900460ff1615611f2e576040517f08c379a0000000000000000000000000000000000000000000000000000000008152600401611f2590615a55565b60405180910390fd5b600683604051611f3e9190615589565b908152602001604051809103902060009054906101000a900460ff1615611f9a576040517f08c379a0000000000000000000000000000000000000000000000000000000008152600401611f9190615ac1565b60405180910390fd5b600260105410611fdf576040517f08c379a0000000000000000000000000000000000000000000000000000000008152600401611fd690615b53565b60405180910390fd5b60006040518061014001604052808a815260200189815260200188815260200187815260200186815260200185815260200184815260200183815260200160001515815260200160008152509050600160068560405161203f9190615589565b908152602001604051809103902060006101000a81548160ff021916908315150217905550806007856040516120759190615589565b908152602001604051809103902060008201518160000190816120989190615d0a565b5060208201518160010190816120ae9190615d0a565b5060408201518160020190816120c49190615d0a565b5060608201518160030190816120da9190615d0a565b506080820151816004015560a08201518160050190816120fa9190615d0a565b5060c08201518160060190816121109190615d0a565b5060e08201518160070190816121269190615d0a565b506101008201518160080160006101000a81548160ff0219169083151502179055506101208201518160090155905050600d8490806001815401808255809150506001900390600052602060002001600090919091909150908161218a9190615d0a565b506010600081548092919061219e906156cd565b9190505550505050505050505050565b600a6020528060005260406000206000915054906101000a900460ff1681565b606080606080600080600090506000805b600e8054905081101561228a57826008600e838154811061220357612202615899565b5b9060005260206000200160405161221a9190615960565b9081526020016040518091039020600901541115612277576008600e828154811061224857612247615899565b5b9060005260206000200160405161225f9190615960565b90815260200160405180910390206009015492508091505b8080612282906156cd565b9150506121df565b5060006008600e83815481106122a3576122a2615899565b5b906000526020600020016040516122ba9190615960565b9081526020016040518091039020604051806101400160405290816000820180546122e490615744565b80601f016020809104026020016040519081016040528092919081815260200182805461231090615744565b801561235d5780601f106123325761010080835404028352916020019161235d565b820191906000526020600020905b81548152906001019060200180831161234057829003601f168201915b5050505050815260200160018201805461237690615744565b80601f01602080910402602001604051908101604052809291908181526020018280546123a290615744565b80156123ef5780601f106123c4576101008083540402835291602001916123ef565b820191906000526020600020905b8154815290600101906020018083116123d257829003601f168201915b5050505050815260200160028201805461240890615744565b80601f016020809104026020016040519081016040528092919081815260200182805461243490615744565b80156124815780601f1061245657610100808354040283529160200191612481565b820191906000526020600020905b81548152906001019060200180831161246457829003601f168201915b5050505050815260200160038201805461249a90615744565b80601f01602080910402602001604051908101604052809291908181526020018280546124c690615744565b80156125135780601f106124e857610100808354040283529160200191612513565b820191906000526020600020905b8154815290600101906020018083116124f657829003601f168201915b505050505081526020016004820154815260200160058201805461253690615744565b80601f016020809104026020016040519081016040528092919081815260200182805461256290615744565b80156125af5780601f10612584576101008083540402835291602001916125af565b820191906000526020600020905b81548152906001019060200180831161259257829003601f168201915b505050505081526020016006820180546125c890615744565b80601f01602080910402602001604051908101604052809291908181526020018280546125f490615744565b80156126415780601f1061261657610100808354040283529160200191612641565b820191906000526020600020905b81548152906001019060200180831161262457829003601f168201915b5050505050815260200160078201805461265a90615744565b80601f016020809104026020016040519081016040528092919081815260200182805461268690615744565b80156126d35780601f106126a8576101008083540402835291602001916126d3565b820191906000526020600020905b8154815290600101906020018083116126b657829003601f168201915b505050505081526020016008820160009054906101000a900460ff1615151515815260200160098201548152505090508060000151816020015182604001518360600151846101200151975097509750975097505050509091929394565b60008054906101000a900473ffffffffffffffffffffffffffffffffffffffff1673ffffffffffffffffffffffffffffffffffffffff163373ffffffffffffffffffffffffffffffffffffffff16146127bf576040517f08c379a00000000000000000000000000000000000000000000000000000000081526004016127b6906159e9565b60405180910390fd5b806000806101000a81548173ffffffffffffffffffffffffffffffffffffffff021916908373ffffffffffffffffffffffffffffffffffffffff16021790555050565b6060806060806000606080606060008060078b6040516128229190615589565b90815260200160405180910390206040518061014001604052908160008201805461284c90615744565b80601f016020809104026020016040519081016040528092919081815260200182805461287890615744565b80156128c55780601f1061289a576101008083540402835291602001916128c5565b820191906000526020600020905b8154815290600101906020018083116128a857829003601f168201915b505050505081526020016001820180546128de90615744565b80601f016020809104026020016040519081016040528092919081815260200182805461290a90615744565b80156129575780601f1061292c57610100808354040283529160200191612957565b820191906000526020600020905b81548152906001019060200180831161293a57829003601f168201915b5050505050815260200160028201805461297090615744565b80601f016020809104026020016040519081016040528092919081815260200182805461299c90615744565b80156129e95780601f106129be576101008083540402835291602001916129e9565b820191906000526020600020905b8154815290600101906020018083116129cc57829003601f168201915b50505050508152602001600382018054612a0290615744565b80601f0160208091040260200160405190810160405280929190818152602001828054612a2e90615744565b8015612a7b5780601f10612a5057610100808354040283529160200191612a7b565b820191906000526020600020905b815481529060010190602001808311612a5e57829003601f168201915b5050505050815260200160048201548152602001600582018054612a9e90615744565b80601f0160208091040260200160405190810160405280929190818152602001828054612aca90615744565b8015612b175780601f10612aec57610100808354040283529160200191612b17565b820191906000526020600020905b815481529060010190602001808311612afa57829003601f168201915b50505050508152602001600682018054612b3090615744565b80601f0160208091040260200160405190810160405280929190818152602001828054612b5c90615744565b8015612ba95780601f10612b7e57610100808354040283529160200191612ba9565b820191906000526020600020905b815481529060010190602001808311612b8c57829003601f168201915b50505050508152602001600782018054612bc290615744565b80601f0160208091040260200160405190810160405280929190818152602001828054612bee90615744565b8015612c3b5780601f10612c1057610100808354040283529160200191612c3b565b820191906000526020600020905b815481529060010190602001808311612c1e57829003601f168201915b505050505081526020016008820160009054906101000a900460ff16151515158152602001600982015481525050905080600001519950806020015198508060400151975080606001519650806080015195508060a0015194508060c0015193508060e0015192508061012001519150509193959799909294969850565b6060806060806000606080606060008060098b604051612cd99190615589565b908152602001604051809103902060405180610140016040529081600082018054612d0390615744565b80601f0160208091040260200160405190810160405280929190818152602001828054612d2f90615744565b8015612d7c5780601f10612d5157610100808354040283529160200191612d7c565b820191906000526020600020905b815481529060010190602001808311612d5f57829003601f168201915b50505050508152602001600182018054612d9590615744565b80601f0160208091040260200160405190810160405280929190818152602001828054612dc190615744565b8015612e0e5780601f10612de357610100808354040283529160200191612e0e565b820191906000526020600020905b815481529060010190602001808311612df157829003601f168201915b50505050508152602001600282018054612e2790615744565b80601f0160208091040260200160405190810160405280929190818152602001828054612e5390615744565b8015612ea05780601f10612e7557610100808354040283529160200191612ea0565b820191906000526020600020905b815481529060010190602001808311612e8357829003601f168201915b50505050508152602001600382018054612eb990615744565b80601f0160208091040260200160405190810160405280929190818152602001828054612ee590615744565b8015612f325780601f10612f0757610100808354040283529160200191612f32565b820191906000526020600020905b815481529060010190602001808311612f1557829003601f168201915b5050505050815260200160048201548152602001600582018054612f5590615744565b80601f0160208091040260200160405190810160405280929190818152602001828054612f8190615744565b8015612fce5780601f10612fa357610100808354040283529160200191612fce565b820191906000526020600020905b815481529060010190602001808311612fb157829003601f168201915b50505050508152602001600682018054612fe790615744565b80601f016020809104026020016040519081016040528092919081815260200182805461301390615744565b80156130605780601f1061303557610100808354040283529160200191613060565b820191906000526020600020905b81548152906001019060200180831161304357829003601f168201915b5050505050815260200160078201805461307990615744565b80601f01602080910402602001604051908101604052809291908181526020018280546130a590615744565b80156130f25780601f106130c7576101008083540402835291602001916130f2565b820191906000526020600020905b8154815290600101906020018083116130d557829003601f168201915b505050505081526020016008820160009054906101000a900460ff16151515158152602001600982015481525050905080600001519950806020015198508060400151975080606001519650806080015195508060a0015194508060c0015193508060e0015192508061012001519150509193959799909294969850565b6060806060806000606080606060008060088b6040516131909190615589565b9081526020016040518091039020604051806101400160405290816000820180546131ba90615744565b80601f01602080910402602001604051908101604052809291908181526020018280546131e690615744565b80156132335780601f1061320857610100808354040283529160200191613233565b820191906000526020600020905b81548152906001019060200180831161321657829003601f168201915b5050505050815260200160018201805461324c90615744565b80601f016020809104026020016040519081016040528092919081815260200182805461327890615744565b80156132c55780601f1061329a576101008083540402835291602001916132c5565b820191906000526020600020905b8154815290600101906020018083116132a857829003601f168201915b505050505081526020016002820180546132de90615744565b80601f016020809104026020016040519081016040528092919081815260200182805461330a90615744565b80156133575780601f1061332c57610100808354040283529160200191613357565b820191906000526020600020905b81548152906001019060200180831161333a57829003601f168201915b5050505050815260200160038201805461337090615744565b80601f016020809104026020016040519081016040528092919081815260200182805461339c90615744565b80156133e95780601f106133be576101008083540402835291602001916133e9565b820191906000526020600020905b8154815290600101906020018083116133cc57829003601f168201915b505050505081526020016004820154815260200160058201805461340c90615744565b80601f016020809104026020016040519081016040528092919081815260200182805461343890615744565b80156134855780601f1061345a57610100808354040283529160200191613485565b820191906000526020600020905b81548152906001019060200180831161346857829003601f168201915b5050505050815260200160068201805461349e90615744565b80601f01602080910402602001604051908101604052809291908181526020018280546134ca90615744565b80156135175780601f106134ec57610100808354040283529160200191613517565b820191906000526020600020905b8154815290600101906020018083116134fa57829003601f168201915b5050505050815260200160078201805461353090615744565b80601f016020809104026020016040519081016040528092919081815260200182805461355c90615744565b80156135a95780601f1061357e576101008083540402835291602001916135a9565b820191906000526020600020905b81548152906001019060200180831161358c57829003601f168201915b505050505081526020016008820160009054906101000a900460ff16151515158152602001600982015481525050905080600001519950806020015198508060400151975080606001519650806080015195508060a0015194508060c0015193508060e0015192508061012001519150509193959799909294969850565b600b6020528060005260406000206000915054906101000a900460ff1681565b6060600e805480602002602001604051908101604052809291908181526020016000905b8282101561371757838290600052602060002001805461368a90615744565b80601f01602080910402602001604051908101604052809291908181526020018280546136b690615744565b80156137035780601f106136d857610100808354040283529160200191613703565b820191906000526020600020905b8154815290600101906020018083116136e657829003601f168201915b50505050508152602001906001019061366b565b50505050905090565b60115481565b60008054906101000a900473ffffffffffffffffffffffffffffffffffffffff1673ffffffffffffffffffffffffffffffffffffffff163373ffffffffffffffffffffffffffffffffffffffff16146137b4576040517f08c379a00000000000000000000000000000000000000000000000000000000081526004016137ab906159e9565b60405180910390fd5b600460009054906101000a900460ff1615613804576040517f08c379a00000000000000000000000000000000000000000000000000000000081526004016137fb90615a55565b60405180910390fd5b6006836040516138149190615589565b908152602001604051809103902060009054906101000a900460ff1615613870576040517f08c379a000000000000000000000000000000000000000000000000000000000815260040161386790615ac1565b60405180910390fd5b6000841180156138805750600584105b6138bf576040517f08c379a00000000000000000000000000000000000000000000000000000000081526004016138b690615e28565b60405180910390fd5b60006040518061014001604052808a815260200189815260200188815260200187815260200186815260200185815260200184815260200183815260200160001515815260200160008152509050600160068560405161391f9190615589565b908152602001604051809103902060006101000a81548160ff021916908315150217905550806008856040516139559190615589565b908152602001604051809103902060008201518160000190816139789190615d0a565b50602082015181600101908161398e9190615d0a565b5060408201518160020190816139a49190615d0a565b5060608201518160030190816139ba9190615d0a565b506080820151816004015560a08201518160050190816139da9190615d0a565b5060c08201518160060190816139f09190615d0a565b5060e0820151816007019081613a069190615d0a565b506101008201518160080160006101000a81548160ff0219169083151502179055506101208201518160090155905050600e84908060018154018082558091505060019003906000526020600020016000909190919091509081613a6a9190615d0a565b5060116000815480929190613a7e906156cd565b9190505550505050505050505050565b6006818051602081018201805184825260208301602085012081835280955050505050506000915054906101000a900460ff1681565b606080606080600080600090506000805b600d80549050811015613b8057826007600d8381548110613af957613af8615899565b5b90600052602060002001604051613b109190615960565b9081526020016040518091039020600901541115613b6d576007600d8281548110613b3e57613b3d615899565b5b90600052602060002001604051613b559190615960565b90815260200160405180910390206009015492508091505b8080613b78906156cd565b915050613ad5565b5060006007600d8381548110613b9957613b98615899565b5b90600052602060002001604051613bb09190615960565b908152602001604051809103902060405180610140016040529081600082018054613bda90615744565b80601f0160208091040260200160405190810160405280929190818152602001828054613c0690615744565b8015613c535780601f10613c2857610100808354040283529160200191613c53565b820191906000526020600020905b815481529060010190602001808311613c3657829003601f168201915b50505050508152602001600182018054613c6c90615744565b80601f0160208091040260200160405190810160405280929190818152602001828054613c9890615744565b8015613ce55780601f10613cba57610100808354040283529160200191613ce5565b820191906000526020600020905b815481529060010190602001808311613cc857829003601f168201915b50505050508152602001600282018054613cfe90615744565b80601f0160208091040260200160405190810160405280929190818152602001828054613d2a90615744565b8015613d775780601f10613d4c57610100808354040283529160200191613d77565b820191906000526020600020905b815481529060010190602001808311613d5a57829003601f168201915b50505050508152602001600382018054613d9090615744565b80601f0160208091040260200160405190810160405280929190818152602001828054613dbc90615744565b8015613e095780601f10613dde57610100808354040283529160200191613e09565b820191906000526020600020905b815481529060010190602001808311613dec57829003601f168201915b5050505050815260200160048201548152602001600582018054613e2c90615744565b80601f0160208091040260200160405190810160405280929190818152602001828054613e5890615744565b8015613ea55780601f10613e7a57610100808354040283529160200191613ea5565b820191906000526020600020905b815481529060010190602001808311613e8857829003601f168201915b50505050508152602001600682018054613ebe90615744565b80601f0160208091040260200160405190810160405280929190818152602001828054613eea90615744565b8015613f375780601f10613f0c57610100808354040283529160200191613f37565b820191906000526020600020905b815481529060010190602001808311613f1a57829003601f168201915b50505050508152602001600782018054613f5090615744565b80601f0160208091040260200160405190810160405280929190818152602001828054613f7c90615744565b8015613fc95780601f10613f9e57610100808354040283529160200191613fc9565b820191906000526020600020905b815481529060010190602001808311613fac57829003601f168201915b505050505081526020016008820160009054906101000a900460ff1615151515815260200160098201548152505090508060000151816020015182604001518360600151846101200151975097509750975097505050509091929394565b60105481565b600d818154811061403d57600080fd5b90600052602060002001600091509050805461405890615744565b80601f016020809104026020016040519081016040528092919081815260200182805461408490615744565b80156140d15780601f106140a6576101008083540402835291602001916140d1565b820191906000526020600020905b8154815290600101906020018083116140b457829003601f168201915b505050505081565b60008054906101000a900473ffffffffffffffffffffffffffffffffffffffff1673ffffffffffffffffffffffffffffffffffffffff163373ffffffffffffffffffffffffffffffffffffffff1614614167576040517f08c379a000000000000000000000000000000000000000000000000000000000815260040161415e906159e9565b60405180910390fd5b600460009054906101000a900460ff16156141b7576040517f08c379a00000000000000000000000000000000000000000000000000000000081526004016141ae90615a55565b60405180910390fd5b6006836040516141c79190615589565b908152602001604051809103902060009054906101000a900460ff1615614223576040517f08c379a000000000000000000000000000000000000000000000000000000000815260040161421a90615ac1565b60405180910390fd5b60006040518061014001604052808a81526020018981526020018881526020018781526020018681526020018581526020018481526020018381526020016000151581526020016000815250905060016006856040516142839190615589565b908152602001604051809103902060006101000a81548160ff021916908315150217905550806009856040516142b99190615589565b908152602001604051809103902060008201518160000190816142dc9190615d0a565b5060208201518160010190816142f29190615d0a565b5060408201518160020190816143089190615d0a565b50606082015181600301908161431e9190615d0a565b506080820151816004015560a082015181600501908161433e9190615d0a565b5060c08201518160060190816143549190615d0a565b5060e082015181600701908161436a9190615d0a565b506101008201518160080160006101000a81548160ff0219169083151502179055506101208201518160090155905050600f849080600181540180825580915050600190039060005260206000200160009091909190915090816143ce9190615d0a565b50505050505050505050565b60088180516020810182018051848252602083016020850120818352809550505050505060009150905080600001805461441390615744565b80601f016020809104026020016040519081016040528092919081815260200182805461443f90615744565b801561448c5780601f106144615761010080835404028352916020019161448c565b820191906000526020600020905b81548152906001019060200180831161446f57829003601f168201915b5050505050908060010180546144a190615744565b80601f01602080910402602001604051908101604052809291908181526020018280546144cd90615744565b801561451a5780601f106144ef5761010080835404028352916020019161451a565b820191906000526020600020905b8154815290600101906020018083116144fd57829003601f168201915b50505050509080600201805461452f90615744565b80601f016020809104026020016040519081016040528092919081815260200182805461455b90615744565b80156145a85780601f1061457d576101008083540402835291602001916145a8565b820191906000526020600020905b81548152906001019060200180831161458b57829003601f168201915b5050505050908060030180546145bd90615744565b80601f01602080910402602001604051908101604052809291908181526020018280546145e990615744565b80156146365780601f1061460b57610100808354040283529160200191614636565b820191906000526020600020905b81548152906001019060200180831161461957829003601f168201915b50505050509080600401549080600501805461465190615744565b80601f016020809104026020016040519081016040528092919081815260200182805461467d90615744565b80156146ca5780601f1061469f576101008083540402835291602001916146ca565b820191906000526020600020905b8154815290600101906020018083116146ad57829003601f168201915b5050505050908060060180546146df90615744565b80601f016020809104026020016040519081016040528092919081815260200182805461470b90615744565b80156147585780601f1061472d57610100808354040283529160200191614758565b820191906000526020600020905b81548152906001019060200180831161473b57829003601f168201915b50505050509080600701805461476d90615744565b80601f016020809104026020016040519081016040528092919081815260200182805461479990615744565b80156147e65780601f106147bb576101008083540402835291602001916147e6565b820191906000526020600020905b8154815290600101906020018083116147c957829003601f168201915b5050505050908060080160009054906101000a900460ff1690806009015490508a565b60125481565b60008054906101000a900473ffffffffffffffffffffffffffffffffffffffff1681565b6060600f805480602002602001604051908101604052809291908181526020016000905b8282101561490357838290600052602060002001805461487690615744565b80601f01602080910402602001604051908101604052809291908181526020018280546148a290615744565b80156148ef5780601f106148c4576101008083540402835291602001916148ef565b820191906000526020600020905b8154815290600101906020018083116148d257829003601f168201915b505050505081526020019060010190614857565b50505050905090565b6000604051905090565b600080fd5b600080fd5b600080fd5b600080fd5b6000601f19601f8301169050919050565b7f4e487b7100000000000000000000000000000000000000000000000000000000600052604160045260246000fd5b6149738261492a565b810181811067ffffffffffffffff821117156149925761499161493b565b5b80604052505050565b60006149a561490c565b90506149b1828261496a565b919050565b600067ffffffffffffffff8211156149d1576149d061493b565b5b6149da8261492a565b9050602081019050919050565b82818337600083830152505050565b6000614a09614a04846149b6565b61499b565b905082815260208101848484011115614a2557614a24614925565b5b614a308482856149e7565b509392505050565b600082601f830112614a4d57614a4c614920565b5b8135614a5d8482602086016149f6565b91505092915050565b600073ffffffffffffffffffffffffffffffffffffffff82169050919050565b6000614a9182614a66565b9050919050565b614aa181614a86565b8114614aac57600080fd5b50565b600081359050614abe81614a98565b92915050565b60008060408385031215614adb57614ada614916565b5b600083013567ffffffffffffffff811115614af957614af861491b565b5b614b0585828601614a38565b9250506020614b1685828601614aaf565b9150509250929050565b6000819050919050565b614b3381614b20565b8114614b3e57600080fd5b50565b600081359050614b5081614b2a565b92915050565b600060208284031215614b6c57614b6b614916565b5b6000614b7a84828501614b41565b91505092915050565b600081519050919050565b600082825260208201905092915050565b60005b83811015614bbd578082015181840152602081019050614ba2565b60008484015250505050565b6000614bd482614b83565b614bde8185614b8e565b9350614bee818560208601614b9f565b614bf78161492a565b840191505092915050565b60006020820190508181036000830152614c1c8184614bc9565b905092915050565b600060208284031215614c3a57614c39614916565b5b6000614c4884828501614aaf565b91505092915050565b60008115159050919050565b614c6681614c51565b82525050565b6000602082019050614c816000830184614c5d565b92915050565b614c9081614b20565b82525050565b6000602082019050614cab6000830184614c87565b92915050565b600060208284031215614cc757614cc6614916565b5b600082013567ffffffffffffffff811115614ce557614ce461491b565b5b614cf184828501614a38565b91505092915050565b6000610140820190508181036000830152614d15818d614bc9565b90508181036020830152614d29818c614bc9565b90508181036040830152614d3d818b614bc9565b90508181036060830152614d51818a614bc9565b9050614d606080830189614c87565b81810360a0830152614d728188614bc9565b905081810360c0830152614d868187614bc9565b905081810360e0830152614d9a8186614bc9565b9050614daa610100830185614c5d565b614db8610120830184614c87565b9b9a5050505050505050505050565b600060a0820190508181036000830152614de18188614bc9565b90508181036020830152614df58187614bc9565b90508181036040830152614e098186614bc9565b90508181036060830152614e1d8185614bc9565b9050614e2c6080830184614c87565b9695505050505050565b600081519050919050565b600082825260208201905092915050565b6000819050602082019050919050565b600082825260208201905092915050565b6000614e7e82614b83565b614e888185614e62565b9350614e98818560208601614b9f565b614ea18161492a565b840191505092915050565b6000614eb88383614e73565b905092915050565b6000602082019050919050565b6000614ed882614e36565b614ee28185614e41565b935083602082028501614ef485614e52565b8060005b85811015614f305784840389528151614f118582614eac565b9450614f1c83614ec0565b925060208a01995050600181019050614ef8565b50829750879550505050505092915050565b60006020820190508181036000830152614f5c8184614ecd565b905092915050565b600080600080600080600080610100898b031215614f8557614f84614916565b5b600089013567ffffffffffffffff811115614fa357614fa261491b565b5b614faf8b828c01614a38565b985050602089013567ffffffffffffffff811115614fd057614fcf61491b565b5b614fdc8b828c01614a38565b975050604089013567ffffffffffffffff811115614ffd57614ffc61491b565b5b6150098b828c01614a38565b965050606089013567ffffffffffffffff81111561502a5761502961491b565b5b6150368b828c01614a38565b95505060806150478b828c01614b41565b94505060a089013567ffffffffffffffff8111156150685761506761491b565b5b6150748b828c01614a38565b93505060c089013567ffffffffffffffff8111156150955761509461491b565b5b6150a18b828c01614a38565b92505060e089013567ffffffffffffffff8111156150c2576150c161491b565b5b6150ce8b828c01614a38565b9150509295985092959890939650565b60006101208201905081810360008301526150f9818c614bc9565b9050818103602083015261510d818b614bc9565b90508181036040830152615121818a614bc9565b905081810360608301526151358189614bc9565b90506151446080830188614c87565b81810360a08301526151568187614bc9565b905081810360c083015261516a8186614bc9565b905081810360e083015261517e8185614bc9565b905061518e610100830184614c87565b9a9950505050505050505050565b6151a581614a86565b82525050565b60006020820190506151c0600083018461519c565b92915050565b600080fd5b600080fd5b6000815190506151df81614a98565b92915050565b60006151f86151f3846149b6565b61499b565b90508281526020810184848401111561521457615213614925565b5b61521f848285614b9f565b509392505050565b600082601f83011261523c5761523b614920565b5b815161524c8482602086016151e5565b91505092915050565b60008151905061526481614b2a565b92915050565b61527381614c51565b811461527e57600080fd5b50565b6000815190506152908161526a565b92915050565b600061018082840312156152ad576152ac6151c6565b5b6152b861018061499b565b905060006152c8848285016151d0565b600083015250602082015167ffffffffffffffff8111156152ec576152eb6151cb565b5b6152f884828501615227565b602083015250604082015167ffffffffffffffff81111561531c5761531b6151cb565b5b61532884828501615227565b604083015250606082015167ffffffffffffffff81111561534c5761534b6151cb565b5b61535884828501615227565b606083015250608082015167ffffffffffffffff81111561537c5761537b6151cb565b5b61538884828501615227565b60808301525060a061539c84828501615255565b60a08301525060c082015167ffffffffffffffff8111156153c0576153bf6151cb565b5b6153cc84828501615227565b60c08301525060e082015167ffffffffffffffff8111156153f0576153ef6151cb565b5b6153fc84828501615227565b60e08301525061010082015167ffffffffffffffff811115615421576154206151cb565b5b61542d84828501615227565b6101008301525061012082015167ffffffffffffffff811115615453576154526151cb565b5b61545f84828501615227565b6101208301525061014061547584828501615281565b6101408301525061016061548b84828501615281565b6101608301525092915050565b6000602082840312156154ae576154ad614916565b5b600082015167ffffffffffffffff8111156154cc576154cb61491b565b5b6154d884828501615296565b91505092915050565b7f566f746572206973206e6f742072656769737465726564000000000000000000600082015250565b6000615517601783614b8e565b9150615522826154e1565b602082019050919050565b600060208201905081810360008301526155468161550a565b9050919050565b600081905092915050565b600061556382614b83565b61556d818561554d565b935061557d818560208601614b9f565b80840191505092915050565b60006155958284615558565b915081905092915050565b7f496e76616c69642063616e646964617465000000000000000000000000000000600082015250565b60006155d6601183614b8e565b91506155e1826155a0565b602082019050919050565b60006020820190508181036000830152615605816155c9565b9050919050565b7f596f75206861766520616c726561647920766f74656420666f7220476f76657260008201527f6e6f722121210000000000000000000000000000000000000000000000000000602082015250565b6000615668602683614b8e565b91506156738261560c565b604082019050919050565b600060208201905081810360008301526156978161565b565b9050919050565b7f4e487b7100000000000000000000000000000000000000000000000000000000600052601160045260246000fd5b60006156d882614b20565b91507fffffffffffffffffffffffffffffffffffffffffffffffffffffffffffffffff820361570a5761570961569e565b5b600182019050919050565b7f4e487b7100000000000000000000000000000000000000000000000000000000600052602260045260246000fd5b6000600282049050600182168061575c57607f821691505b60208210810361576f5761576e615715565b5b50919050565b7f416c7265616479206361737420766f746520666f7220426c6f636b4c6561646560008201527f7220706f736974696f6e00000000000000000000000000000000000000000000602082015250565b60006157d1602a83614b8e565b91506157dc82615775565b604082019050919050565b60006020820190508181036000830152615800816157c4565b9050919050565b7f416c726561647920766f74656420666f7220507265736964656e7420706f736960008201527f74696f6e00000000000000000000000000000000000000000000000000000000602082015250565b6000615863602483614b8e565b915061586e82615807565b604082019050919050565b6000602082019050818103600083015261589281615856565b9050919050565b7f4e487b7100000000000000000000000000000000000000000000000000000000600052603260045260246000fd5b60008190508160005260206000209050919050565b600081546158ea81615744565b6158f4818661554d565b9450600182166000811461590f576001811461592457615957565b60ff1983168652811515820286019350615957565b61592d856158c8565b60005b8381101561594f57815481890152600182019150602081019050615930565b838801955050505b50505092915050565b600061596c82846158dd565b915081905092915050565b7f4f6e6c792061646d696e2063616e20706572666f726d2074686973206163746960008201527f6f6e000000000000000000000000000000000000000000000000000000000000602082015250565b60006159d3602283614b8e565b91506159de82615977565b604082019050919050565b60006020820190508181036000830152615a02816159c6565b9050919050565b7f566f74696e672070726f6365737320616c726561647920737461727465640000600082015250565b6000615a3f601e83614b8e565b9150615a4a82615a09565b602082019050919050565b60006020820190508181036000830152615a6e81615a32565b9050919050565b7f63616e64696461746520697320616c7265616479207265676973746572656421600082015250565b6000615aab602083614b8e565b9150615ab682615a75565b602082019050919050565b60006020820190508181036000830152615ada81615a9e565b9050919050565b7f546865207265676973746572656420707265736964656e7420697320656e6f7560008201527f6768210000000000000000000000000000000000000000000000000000000000602082015250565b6000615b3d602383614b8e565b9150615b4882615ae1565b604082019050919050565b60006020820190508181036000830152615b6c81615b30565b9050919050565b60006020601f8301049050919050565b600082821b905092915050565b600060088302615bc07fffffffffffffffffffffffffffffffffffffffffffffffffffffffffffffffff82615b83565b615bca8683615b83565b95508019841693508086168417925050509392505050565b6000819050919050565b6000615c07615c02615bfd84614b20565b615be2565b614b20565b9050919050565b6000819050919050565b615c2183615bec565b615c35615c2d82615c0e565b848454615b90565b825550505050565b600090565b615c4a615c3d565b615c55818484615c18565b505050565b5b81811015615c7957615c6e600082615c42565b600181019050615c5b565b5050565b601f821115615cbe57615c8f816158c8565b615c9884615b73565b81016020851015615ca7578190505b615cbb615cb385615b73565b830182615c5a565b50505b505050565b600082821c905092915050565b6000615ce160001984600802615cc3565b1980831691505092915050565b6000615cfa8383615cd0565b9150826002028217905092915050565b615d1382614b83565b67ffffffffffffffff811115615d2c57615d2b61493b565b5b615d368254615744565b615d41828285615c7d565b600060209050601f831160018114615d745760008415615d62578287015190505b615d6c8582615cee565b865550615dd4565b601f198416615d82866158c8565b60005b82811015615daa57848901518255600182019150602085019450602081019050615d85565b86831015615dc75784890151615dc3601f891682615cd0565b8355505b6001600288020188555050505b505050505050565b7f496e76616c69642079656172206f662053747564790000000000000000000000600082015250565b6000615e12601583614b8e565b9150615e1d82615ddc565b602082019050919050565b60006020820190508181036000830152615e4181615e05565b905091905056fea26469706673582212208f4f6a2b7a9a11832ac857b0b98ab4e1004c090049beb1b879ed88d21fa0452064736f6c63430008130033",
  "immutableReferences": {},
  "source": "// SPDX-License-Identifier: MIT\npragma solidity ^0.8.0;\nimport \"./VoterContract.sol\";\nimport \"./AccessControl.sol\";\nimport \"./TimeStructure.sol\";\n\ncontract CandidateContract is AccessControl, TimeStructure{\n\n    struct Candidate {\n        string firstName;\n        string lastName;\n        string collegeName;\n        string programName;\n        uint256 yearOfStudy;\n        string regNo;\n        string blockNumber;\n        string gender;\n        bool isWinner;\n        uint256 voteCount;\n    }\n    uint public totalVotes;\n\n    mapping(string => bool) public isRegistered;\n\n    //President Registration\n    mapping(string => Candidate) public candidatePresident;\n\n    //Governor Registration\n    mapping(string => Candidate) public candidateGovernor;\n\n    //BlockLeader Registration\n    mapping(string => Candidate) public candidateBlockLeader;\n\n    mapping(address => bool) public presidentVoted;\n    mapping(address => bool) public governorVoted;\n    mapping(address => bool) public blockLeaderVoted;\n\n    string[] public presidentList;\n    string[] public governorList;\n    string[] public blockLeaderList;\n\n    //Number of candidate in a particular position\n    uint256 public numberOfPresident;\n    uint256 public numberOfGovernor;\n    uint256 public numberOfBlockLeader;\n\n    // function getGovernorList() public view returns (string memory)\n    // {\n    //     return governorList;\n    // }\n\n\n    event NewPresidentRegistered(string firstName, string lastName, string collegeName, string programName, uint256 yearOfStudy, string regNo, string blockNumber, string gender);\n    event NewGovernorRegistered(string firstName, string lastName, string collegeName, string programName, uint256 yearOfStudy, string regNo, string blockNumber, string gender);\n    event NewBlockLeaderRegistered(string firstName, string lastName, string collegeName, string programName, uint256 yearOfStudy, string regNo, string blockNumber, string gender);\n\n    function registerPresident(string memory _firstName, string memory _lastName, string memory _collegeName,string memory _programName, uint256 _yearOfStudy, string memory _regNo, string memory _blockNumber, string memory _gender) public onlyAdmin{\n        require(!isInitiated, \"Voting process already started\");\n        require(!isRegistered[_regNo], \"candidate is already registered!\");\n        require(numberOfPresident < 2, \"The registered president is enough!\");\n        Candidate memory newCandidate = Candidate({\n            firstName: _firstName,\n            lastName: _lastName,       \n            collegeName: _collegeName,\n            programName: _programName,\n            yearOfStudy: _yearOfStudy, \n            regNo: _regNo, \n            blockNumber: _blockNumber,\n            gender: _gender, \n            isWinner: false, \n            \n            voteCount: 0\n        });\n        isRegistered[_regNo]= true;\n        candidatePresident[_regNo] = newCandidate;\n        presidentList.push(_regNo);\n        numberOfPresident++;\n\n        // emit NewPresidentRegistered(_firstName, _collegeName, _programName, _yearOfStudy, _regNo, _blockNumber, _gender);\n    }\n\n    function registerGovernor(string memory _firstName, string memory _lastName, string memory _collegeName,string memory _programName, uint256 _yearOfStudy, string memory _regNo, string memory _blockNumber, string memory _gender) public onlyAdmin{\n        require(!isInitiated, \"Voting process already started\");\n        // require(!candidateGovernor[_regNo].isRegistered, \"You have already registered this Governor.\");\n        require(!isRegistered[_regNo], \"candidate is already registered!\");\n        require(_yearOfStudy > 0 && _yearOfStudy < 5, \"Invalid year of Study\");\n        Candidate memory newCandidate = Candidate({firstName: _firstName, lastName: _lastName, collegeName: _collegeName,programName: _programName, yearOfStudy: _yearOfStudy, \n        regNo: _regNo, blockNumber: _blockNumber,gender: _gender, isWinner: false, voteCount: 0\n        });\n        isRegistered[_regNo]= true;\n        candidateGovernor[_regNo] = newCandidate;\n        // candidateGovernorCnms[_regNo] = newCandidate;\n        governorList.push(_regNo);\n        numberOfGovernor++;\n        \n\n        // emit NewGovernorRegistered(_firstName, _collegeName, _programName, _yearOfStudy, _regNo, _blockNumber, _gender);      \n    }\n\n    function registerBlockLeader(string memory _firstName, string memory _lastName, string memory _collegeName,string memory _programName, uint256 _yearOfStudy, string memory _regNo, string memory _blockNumber, string memory _gender) public onlyAdmin{\n        require(!isInitiated, \"Voting process already started\");     \n        // require(!candidateBlockLeader[_regNo].isRegistered, \"You have already registered this blockLeader.\");\n        // require(numberOfPresident < 2, \"The registered BlockLeader is enough!\");\n        require(!isRegistered[_regNo], \"candidate is already registered!\");\n        Candidate memory newCandidate = Candidate({\n            firstName: _firstName,\n            lastName: _lastName,       \n            collegeName: _collegeName,\n            programName: _programName,\n            yearOfStudy: _yearOfStudy, \n            regNo: _regNo, \n            blockNumber: _blockNumber,\n            gender: _gender, \n            isWinner: false, \n            voteCount: 0\n        });\n        isRegistered[_regNo] = true;\n        candidateBlockLeader[_regNo] = newCandidate;\n        blockLeaderList.push(_regNo);\n        \n\n        // emit NewBlockLeaderRegistered(_firstName, _collegeName, _programName, _yearOfStudy, _regNo, _blockNumber, _gender);\n    }\n\n    \n\n    //return the registration number for the candidates for each position\n    function getPresidentRegNumber() public view returns (string[] memory){\n        return presidentList;\n    }\n\n\n    //Admin view candidates for a specific position of vote\n\n    function viewPresident(string memory _regNo) public view returns(string memory firstName,string memory lastName, \n        string memory collegeName, string memory programName, uint256 yearOfStudy, string memory regNo, string memory blockNumber, string memory gender,uint256 voteCount){\n        Candidate memory candidatePres = candidatePresident[_regNo];\n        firstName = candidatePres.firstName;\n        lastName = candidatePres.lastName;\n        collegeName = candidatePres.collegeName;\n        programName = candidatePres.programName;\n        yearOfStudy = candidatePres.yearOfStudy;\n        regNo = candidatePres.regNo;\n        blockNumber = candidatePres.blockNumber;\n        gender = candidatePres.gender;\n        voteCount = candidatePres.voteCount;\n    }\n\n    //return the registration number for the candidates for each position\n\n    function getGovernorRegNumber() public view returns (string[] memory){\n        return governorList;\n    }\n    \n    function adminViewGovernors(string memory _regNo) public view returns(string memory firstName,string memory lastName, \n        string memory collegeName, string memory programName, uint256 yearOfStudy, string memory regNo, string memory blockNumber, string memory gender,uint256 voteCount){\n        Candidate memory candidateGov = candidateGovernor[_regNo];\n        firstName = candidateGov.firstName;\n        lastName = candidateGov.lastName;\n        collegeName = candidateGov.collegeName;\n        programName = candidateGov.programName;\n        yearOfStudy = candidateGov.yearOfStudy;\n        regNo = candidateGov.regNo;\n        blockNumber = candidateGov.blockNumber;\n        gender = candidateGov.gender;\n        voteCount = candidateGov.voteCount;\n    }\n\n    function getBlockLeaderRegNumber() public view returns (string[] memory){\n        return blockLeaderList;\n    }\n\n    //Admin view candidates for a specific position of vote\n\n    function adminViewBlockLeaders(string memory _regNo) public view returns(string memory firstName,string memory lastName, \n        string memory collegeName, string memory programName, uint256 yearOfStudy, string memory regNo, string memory blockNumber, string memory gender,uint256 voteCount){\n        Candidate memory candidateBL = candidateBlockLeader[_regNo];\n        firstName = candidateBL.firstName;\n        lastName = candidateBL.lastName;\n        collegeName = candidateBL.collegeName;\n        programName = candidateBL.programName;\n        yearOfStudy = candidateBL.yearOfStudy;\n        regNo = candidateBL.regNo;\n        blockNumber = candidateBL.blockNumber;\n        gender = candidateBL.gender;\n        voteCount = candidateBL.voteCount;\n    }\n\n    function castVotePresident( string memory _presidentRegNo, address _candidateContractAddress) public {\n        VoterContract vc = VoterContract(_candidateContractAddress);\n        require(vc.getVoter(msg.sender).isRegistered, \"Voter is not registered\");\n        // require(!voters[msg.sender].voted, \"You have already voted for President!!!\");\n        require(isRegistered[_presidentRegNo], \"Invalid candidate\");\n        require(!presidentVoted[msg.sender], \"Already voted for President position\");\n        presidentVoted[msg.sender] = true;\n\n        Candidate storage candidate = candidatePresident[_presidentRegNo];\n        candidate.voteCount++;\n        totalVotes++;\n\n        // emit VoteCast(candidate.voteCount, candidate.regNo);\n    }\n    function castVoteGovernor( string memory _governorRegNo, address _candidateContractAddress ) public {\n        VoterContract vc = VoterContract(_candidateContractAddress);\n        require(vc.getVoter(msg.sender).isRegistered, \"Voter is not registered\");\n        require(isRegistered[_governorRegNo], \"Invalid candidate\");\n        // require(keccak256(bytes(voters[msg.sender].collegeName)) == keccak256(bytes(candidateGovernor[_governorRegNo].collegeName)), \"Your Not valid voter\");    \n        require(!governorVoted[msg.sender], \"You have already voted for Governor!!!\");\n        governorVoted[msg.sender] = true; \n        \n        Candidate storage candidate = candidateGovernor[_governorRegNo];\n        candidate.voteCount++;\n        totalVotes++;\n\n        // emit VoteCast(candidate.voteCount, candidate.regNo);\n    }\n\n    function castVoteBlockLeader( string memory _blockLeaderRegNo, address _candidateContractAddress ) public {\n        VoterContract vc = VoterContract(_candidateContractAddress);\n        require(vc.getVoter(msg.sender).isRegistered, \"Voter is not registered\");    \n        require(isRegistered[_blockLeaderRegNo], \"Invalid candidate\");\n        // require(keccak256(bytes(voters[msg.sender].collegeName)) == keccak256(bytes(candidateBlockLeader[_blockLeaderRegNo].collegeName)), \"Your Not member of a valid college\");    \n        // require(keccak256(bytes(voters[msg.sender].blockNumber)) == keccak256(bytes(candidateBlockLeader[_blockLeaderRegNo].blockNumber)), \"Your Not member of a valid block\");  \n        require(!blockLeaderVoted[msg.sender], \"Already cast vote for BlockLeader position\");\n        blockLeaderVoted[msg.sender] = true;\n        \n        Candidate storage candidate = candidateBlockLeader[_blockLeaderRegNo];\n        candidate.voteCount++;\n        totalVotes++;\n\n        // emit VoteCast(candidate.voteCount, candidate.regNo);\n    }\n\n    function getWinnerPresident() public view returns ( string memory, string memory, string memory, string memory, uint256 ){\n        uint256 winningPresidentVoteCount = 0;\n        uint256 winningPresidentIndex = 0;\n        for (uint256 i = 0; i < presidentList.length; i++) {\n            if (candidatePresident[presidentList[i]].voteCount > winningPresidentVoteCount) {\n                winningPresidentVoteCount = candidatePresident[presidentList[i]].voteCount;\n                winningPresidentIndex = i;\n            }\n        }\n        Candidate memory winner = candidatePresident[presidentList[winningPresidentIndex]];\n        // emit getTheWinner(winner.firstName, winner.regNo, winner.collegeName, winner.programName, winner.voteCount);\n        return (winner.firstName, winner.lastName, winner.collegeName, winner.programName, winner.voteCount);\n    }\n\n    function getWinnerGovernor() public view returns (string memory, string memory, string memory, string memory, uint256){  \n        uint256 winningGovernorVoteCount = 0;\n        uint256 winningGovernorIndex = 0;    \n        for (uint256 i = 0; i < governorList.length; i++) {\n            if (candidateGovernor[governorList[i]].voteCount > winningGovernorVoteCount) {\n                winningGovernorVoteCount = candidateGovernor[governorList[i]].voteCount;\n                winningGovernorIndex = i;\n            }\n        }\n        Candidate memory winner = candidateGovernor[governorList[winningGovernorIndex]];\n        // emit getTheWinner(winner.firstName, winner.regNo, winner.collegeName, winner.programName, winner.voteCount);\n        return (winner.firstName, winner.lastName, winner.collegeName, winner.programName, winner.voteCount);\n    }\n\n    function getWinnerBlockLeader() public view returns (string memory, string memory, string memory, string memory, uint256){  \n        uint256 winningBlockLeaderVoteCount = 0;\n        uint256 winningBlockLeaderIndex = 0;    \n        for (uint256 i = 0; i < blockLeaderList.length; i++) {\n            if (candidateBlockLeader[blockLeaderList[i]].voteCount > winningBlockLeaderVoteCount) {\n                winningBlockLeaderVoteCount = candidateBlockLeader[blockLeaderList[i]].voteCount;\n                winningBlockLeaderIndex = i;\n            }\n        }\n        Candidate memory winner = candidateBlockLeader[blockLeaderList[winningBlockLeaderIndex]];\n        // emit getTheWinner(winner.firstName, winner.lastName, winner.collegeName, winner.programName, winner.voteCount);\n        return (winner.firstName, winner.lastName, winner.collegeName, winner.programName, winner.voteCount);\n    }\n}",
  "sourcePath": "/home/temba/Documents/SmartContract/client/contracts/CandidateContract.sol",
  "compiler": {
    "name": "solc",
    "version": "0.8.19+commit.7dd6d404.Emscripten.clang"
  },
  "schemaVersion": "3.4.14",
  "updatedAt": "2023-06-21T10:05:41.767Z",
  "networkType": "ethereum",
  "devdoc": {
    "kind": "dev",
    "methods": {},
    "version": 1
  },
  "userdoc": {
    "kind": "user",
    "methods": {},
    "version": 1
  }
}