{
  "contractName": "DeleteCandidate",
  "abi": [
    {
      "inputs": [],
      "name": "admin",
      "outputs": [
        {
          "internalType": "address",
          "name": "",
          "type": "address"
        }
      ],
      "stateMutability": "view",
      "type": "function"
    },
    {
      "inputs": [
        {
          "internalType": "uint256",
          "name": "",
          "type": "uint256"
        }
      ],
      "name": "blockLeaderList",
      "outputs": [
        {
          "internalType": "string",
          "name": "",
          "type": "string"
        }
      ],
      "stateMutability": "view",
      "type": "function"
    },
    {
      "inputs": [
        {
          "internalType": "address",
          "name": "",
          "type": "address"
        }
      ],
      "name": "blockLeaderVoted",
      "outputs": [
        {
          "internalType": "bool",
          "name": "",
          "type": "bool"
        }
      ],
      "stateMutability": "view",
      "type": "function"
    },
    {
      "inputs": [
        {
          "internalType": "string",
          "name": "",
          "type": "string"
        }
      ],
      "name": "candidateBlockLeader",
      "outputs": [
        {
          "internalType": "string",
          "name": "firstName",
          "type": "string"
        },
        {
          "internalType": "string",
          "name": "lastName",
          "type": "string"
        },
        {
          "internalType": "string",
          "name": "collegeName",
          "type": "string"
        },
        {
          "internalType": "string",
          "name": "programName",
          "type": "string"
        },
        {
          "internalType": "uint256",
          "name": "yearOfStudy",
          "type": "uint256"
        },
        {
          "internalType": "string",
          "name": "regNo",
          "type": "string"
        },
        {
          "internalType": "string",
          "name": "blockNumber",
          "type": "string"
        },
        {
          "internalType": "string",
          "name": "gender",
          "type": "string"
        },
        {
          "internalType": "bool",
          "name": "isWinner",
          "type": "bool"
        },
        {
          "internalType": "uint256",
          "name": "voteCount",
          "type": "uint256"
        }
      ],
      "stateMutability": "view",
      "type": "function"
    },
    {
      "inputs": [
        {
          "internalType": "string",
          "name": "",
          "type": "string"
        }
      ],
      "name": "candidateGovernor",
      "outputs": [
        {
          "internalType": "string",
          "name": "firstName",
          "type": "string"
        },
        {
          "internalType": "string",
          "name": "lastName",
          "type": "string"
        },
        {
          "internalType": "string",
          "name": "collegeName",
          "type": "string"
        },
        {
          "internalType": "string",
          "name": "programName",
          "type": "string"
        },
        {
          "internalType": "uint256",
          "name": "yearOfStudy",
          "type": "uint256"
        },
        {
          "internalType": "string",
          "name": "regNo",
          "type": "string"
        },
        {
          "internalType": "string",
          "name": "blockNumber",
          "type": "string"
        },
        {
          "internalType": "string",
          "name": "gender",
          "type": "string"
        },
        {
          "internalType": "bool",
          "name": "isWinner",
          "type": "bool"
        },
        {
          "internalType": "uint256",
          "name": "voteCount",
          "type": "uint256"
        }
      ],
      "stateMutability": "view",
      "type": "function"
    },
    {
      "inputs": [
        {
          "internalType": "string",
          "name": "",
          "type": "string"
        }
      ],
      "name": "candidatePresident",
      "outputs": [
        {
          "internalType": "string",
          "name": "firstName",
          "type": "string"
        },
        {
          "internalType": "string",
          "name": "lastName",
          "type": "string"
        },
        {
          "internalType": "string",
          "name": "collegeName",
          "type": "string"
        },
        {
          "internalType": "string",
          "name": "programName",
          "type": "string"
        },
        {
          "internalType": "uint256",
          "name": "yearOfStudy",
          "type": "uint256"
        },
        {
          "internalType": "string",
          "name": "regNo",
          "type": "string"
        },
        {
          "internalType": "string",
          "name": "blockNumber",
          "type": "string"
        },
        {
          "internalType": "string",
          "name": "gender",
          "type": "string"
        },
        {
          "internalType": "bool",
          "name": "isWinner",
          "type": "bool"
        },
        {
          "internalType": "uint256",
          "name": "voteCount",
          "type": "uint256"
        }
      ],
      "stateMutability": "view",
      "type": "function"
    },
    {
      "inputs": [],
      "name": "getRemainingTime",
      "outputs": [
        {
          "internalType": "uint256",
          "name": "",
          "type": "uint256"
        }
      ],
      "stateMutability": "view",
      "type": "function"
    },
    {
      "inputs": [],
      "name": "getTime",
      "outputs": [
        {
          "internalType": "uint256",
          "name": "startTime",
          "type": "uint256"
        },
        {
          "internalType": "uint256",
          "name": "endTime",
          "type": "uint256"
        }
      ],
      "stateMutability": "view",
      "type": "function"
    },
    {
      "inputs": [
        {
          "internalType": "uint256",
          "name": "",
          "type": "uint256"
        }
      ],
      "name": "governorList",
      "outputs": [
        {
          "internalType": "string",
          "name": "",
          "type": "string"
        }
      ],
      "stateMutability": "view",
      "type": "function"
    },
    {
      "inputs": [
        {
          "internalType": "address",
          "name": "",
          "type": "address"
        }
      ],
      "name": "governorVoted",
      "outputs": [
        {
          "internalType": "bool",
          "name": "",
          "type": "bool"
        }
      ],
      "stateMutability": "view",
      "type": "function"
    },
    {
      "inputs": [],
      "name": "isInitiated",
      "outputs": [
        {
          "internalType": "bool",
          "name": "",
          "type": "bool"
        }
      ],
      "stateMutability": "view",
      "type": "function"
    },
    {
      "inputs": [
        {
          "internalType": "string",
          "name": "",
          "type": "string"
        }
      ],
      "name": "isRegistered",
      "outputs": [
        {
          "internalType": "bool",
          "name": "",
          "type": "bool"
        }
      ],
      "stateMutability": "view",
      "type": "function"
    },
    {
      "inputs": [],
      "name": "numberOfBlockLeader",
      "outputs": [
        {
          "internalType": "uint256",
          "name": "",
          "type": "uint256"
        }
      ],
      "stateMutability": "view",
      "type": "function"
    },
    {
      "inputs": [
        {
          "internalType": "uint256",
          "name": "",
          "type": "uint256"
        }
      ],
      "name": "numberOfGovernor",
      "outputs": [
        {
          "internalType": "uint256",
          "name": "",
          "type": "uint256"
        }
      ],
      "stateMutability": "view",
      "type": "function"
    },
    {
      "inputs": [],
      "name": "numberOfPresident",
      "outputs": [
        {
          "internalType": "uint256",
          "name": "",
          "type": "uint256"
        }
      ],
      "stateMutability": "view",
      "type": "function"
    },
    {
      "inputs": [
        {
          "internalType": "uint256",
          "name": "",
          "type": "uint256"
        }
      ],
      "name": "presidentList",
      "outputs": [
        {
          "internalType": "string",
          "name": "",
          "type": "string"
        }
      ],
      "stateMutability": "view",
      "type": "function"
    },
    {
      "inputs": [
        {
          "internalType": "address",
          "name": "",
          "type": "address"
        }
      ],
      "name": "presidentVoted",
      "outputs": [
        {
          "internalType": "bool",
          "name": "",
          "type": "bool"
        }
      ],
      "stateMutability": "view",
      "type": "function"
    },
    {
      "inputs": [
        {
          "internalType": "uint256",
          "name": "_startTime",
          "type": "uint256"
        },
        {
          "internalType": "uint256",
          "name": "_endTime",
          "type": "uint256"
        }
      ],
      "name": "setVotingPeriod",
      "outputs": [],
      "stateMutability": "nonpayable",
      "type": "function"
    },
    {
      "inputs": [],
      "name": "totalVotes",
      "outputs": [
        {
          "internalType": "uint256",
          "name": "",
          "type": "uint256"
        }
      ],
      "stateMutability": "view",
      "type": "function"
    },
    {
      "inputs": [
        {
          "internalType": "address",
          "name": "newAdmin",
          "type": "address"
        }
      ],
      "name": "transferAdmin",
      "outputs": [],
      "stateMutability": "nonpayable",
      "type": "function"
    },
    {
      "inputs": [
        {
          "internalType": "string",
          "name": "_presidentRegNo",
          "type": "string"
        }
      ],
      "name": "deletePresident",
      "outputs": [],
      "stateMutability": "nonpayable",
      "type": "function"
    },
    {
      "inputs": [
        {
          "internalType": "string",
          "name": "_presidentRegNo",
          "type": "string"
        }
      ],
      "name": "deleteGovernor",
      "outputs": [],
      "stateMutability": "nonpayable",
      "type": "function"
    },
    {
      "inputs": [
        {
          "internalType": "string",
          "name": "_presidentRegNo",
          "type": "string"
        }
      ],
      "name": "deleteBlockLeader",
      "outputs": [],
      "stateMutability": "nonpayable",
      "type": "function"
    }
  ],
  "bytecode": "0x608060405234801561001057600080fd5b5033601460006101000a81548173ffffffffffffffffffffffffffffffffffffffff021916908373ffffffffffffffffffffffffffffffffffffffff160217905550612b82806100616000396000f3fe608060405234801561001057600080fd5b506004361061014d5760003560e01c80637bca09ed116100c3578063e6b52a331161007c578063e6b52a33146103fd578063ebad7e791461042d578063efb98bcf14610449578063f644502614610467578063f6ffc117146104a0578063f851a440146104be5761014d565b80637bca09ed14610317578063a0b0df9514610333578063a15a36c714610363578063c822d7f01461037f578063dccea189146103af578063e316db4e146103cd5761014d565b80631cb59914116101155780631cb59914146102425780632c18a8841461026057806345a8a2be1461027c578063557ed1ba146102ac5780635f8b9972146102cb57806375829def146102fb5761014d565b806302aac7b214610152578063052fbf8c146101825780630d15fd77146101b2578063166b4722146101d05780631ac45f5214610209575b600080fd5b61016c60048036038101906101679190611f69565b6104dc565b6040516101799190612026565b60405180910390f35b61019c600480360381019061019791906120a6565b610588565b6040516101a991906120ee565b60405180910390f35b6101ba6105a8565b6040516101c79190612118565b60405180910390f35b6101ea60048036038101906101e59190612268565b6105ae565b6040516102009a999897969594939291906122b1565b60405180910390f35b610223600480360381019061021e9190612268565b6109dd565b6040516102399a999897969594939291906122b1565b60405180910390f35b61024a610e0c565b60405161025791906120ee565b60405180910390f35b61027a60048036038101906102759190612268565b610e1f565b005b61029660048036038101906102919190611f69565b611088565b6040516102a39190612026565b60405180910390f35b6102b4611134565b6040516102c292919061237e565b60405180910390f35b6102e560048036038101906102e091906120a6565b6111cb565b6040516102f291906120ee565b60405180910390f35b610315600480360381019061031091906120a6565b6111eb565b005b610331600480360381019061032c9190612268565b6112bf565b005b61034d600480360381019061034891906120a6565b611528565b60405161035a91906120ee565b60405180910390f35b61037d600480360381019061037891906123a7565b611548565b005b61039960048036038101906103949190612268565b61168d565b6040516103a691906120ee565b60405180910390f35b6103b76116c3565b6040516103c49190612118565b60405180910390f35b6103e760048036038101906103e29190611f69565b6116c9565b6040516103f49190612026565b60405180910390f35b61041760048036038101906104129190611f69565b611775565b6040516104249190612118565b60405180910390f35b61044760048036038101906104429190612268565b611790565b005b6104516119f9565b60405161045e9190612118565b60405180910390f35b610481600480360381019061047c9190612268565b611a67565b6040516104979a999897969594939291906122b1565b60405180910390f35b6104a8611e96565b6040516104b59190612118565b60405180910390f35b6104c6611e9c565b6040516104d391906123f6565b60405180910390f35b600981815481106104ec57600080fd5b90600052602060002001600091509050805461050790612440565b80601f016020809104026020016040519081016040528092919081815260200182805461053390612440565b80156105805780601f1061055557610100808354040283529160200191610580565b820191906000526020600020905b81548152906001019060200180831161056357829003601f168201915b505050505081565b60076020528060005260406000206000915054906101000a900460ff1681565b60005481565b6002818051602081018201805184825260208301602085012081835280955050505050506000915090508060000180546105e790612440565b80601f016020809104026020016040519081016040528092919081815260200182805461061390612440565b80156106605780601f1061063557610100808354040283529160200191610660565b820191906000526020600020905b81548152906001019060200180831161064357829003601f168201915b50505050509080600101805461067590612440565b80601f01602080910402602001604051908101604052809291908181526020018280546106a190612440565b80156106ee5780601f106106c3576101008083540402835291602001916106ee565b820191906000526020600020905b8154815290600101906020018083116106d157829003601f168201915b50505050509080600201805461070390612440565b80601f016020809104026020016040519081016040528092919081815260200182805461072f90612440565b801561077c5780601f106107515761010080835404028352916020019161077c565b820191906000526020600020905b81548152906001019060200180831161075f57829003601f168201915b50505050509080600301805461079190612440565b80601f01602080910402602001604051908101604052809291908181526020018280546107bd90612440565b801561080a5780601f106107df5761010080835404028352916020019161080a565b820191906000526020600020905b8154815290600101906020018083116107ed57829003601f168201915b50505050509080600401549080600501805461082590612440565b80601f016020809104026020016040519081016040528092919081815260200182805461085190612440565b801561089e5780601f106108735761010080835404028352916020019161089e565b820191906000526020600020905b81548152906001019060200180831161088157829003601f168201915b5050505050908060060180546108b390612440565b80601f01602080910402602001604051908101604052809291908181526020018280546108df90612440565b801561092c5780601f106109015761010080835404028352916020019161092c565b820191906000526020600020905b81548152906001019060200180831161090f57829003601f168201915b50505050509080600701805461094190612440565b80601f016020809104026020016040519081016040528092919081815260200182805461096d90612440565b80156109ba5780601f1061098f576101008083540402835291602001916109ba565b820191906000526020600020905b81548152906001019060200180831161099d57829003601f168201915b5050505050908060080160009054906101000a900460ff1690806009015490508a565b600481805160208101820180518482526020830160208501208183528095505050505050600091509050806000018054610a1690612440565b80601f0160208091040260200160405190810160405280929190818152602001828054610a4290612440565b8015610a8f5780601f10610a6457610100808354040283529160200191610a8f565b820191906000526020600020905b815481529060010190602001808311610a7257829003601f168201915b505050505090806001018054610aa490612440565b80601f0160208091040260200160405190810160405280929190818152602001828054610ad090612440565b8015610b1d5780601f10610af257610100808354040283529160200191610b1d565b820191906000526020600020905b815481529060010190602001808311610b0057829003601f168201915b505050505090806002018054610b3290612440565b80601f0160208091040260200160405190810160405280929190818152602001828054610b5e90612440565b8015610bab5780601f10610b8057610100808354040283529160200191610bab565b820191906000526020600020905b815481529060010190602001808311610b8e57829003601f168201915b505050505090806003018054610bc090612440565b80601f0160208091040260200160405190810160405280929190818152602001828054610bec90612440565b8015610c395780601f10610c0e57610100808354040283529160200191610c39565b820191906000526020600020905b815481529060010190602001808311610c1c57829003601f168201915b505050505090806004015490806005018054610c5490612440565b80601f0160208091040260200160405190810160405280929190818152602001828054610c8090612440565b8015610ccd5780601f10610ca257610100808354040283529160200191610ccd565b820191906000526020600020905b815481529060010190602001808311610cb057829003601f168201915b505050505090806006018054610ce290612440565b80601f0160208091040260200160405190810160405280929190818152602001828054610d0e90612440565b8015610d5b5780601f10610d3057610100808354040283529160200191610d5b565b820191906000526020600020905b815481529060010190602001808311610d3e57829003601f168201915b505050505090806007018054610d7090612440565b80601f0160208091040260200160405190810160405280929190818152602001828054610d9c90612440565b8015610de95780601f10610dbe57610100808354040283529160200191610de9565b820191906000526020600020905b815481529060010190602001808311610dcc57829003601f168201915b5050505050908060080160009054906101000a900460ff1690806009015490508a565b601860009054906101000a900460ff1681565b601460009054906101000a900473ffffffffffffffffffffffffffffffffffffffff1673ffffffffffffffffffffffffffffffffffffffff163373ffffffffffffffffffffffffffffffffffffffff1614610eaf576040517f08c379a0000000000000000000000000000000000000000000000000000000008152600401610ea6906124e3565b60405180910390fd5b600481604051610ebf919061253f565b908152602001604051809103902060008082016000610ede9190611ec2565b600182016000610eee9190611ec2565b600282016000610efe9190611ec2565b600382016000610f0e9190611ec2565b6004820160009055600582016000610f269190611ec2565b600682016000610f369190611ec2565b600782016000610f469190611ec2565b6008820160006101000a81549060ff02191690556009820160009055505060005b60098054905081101561108457818051906020012060098281548110610f9057610f8f612556565b5b90600052602060002001604051610fa79190612628565b6040518091039020036110715760008190505b6001600980549050610fcc919061266e565b81101561103b576009600182610fe291906126a2565b81548110610ff357610ff2612556565b5b906000526020600020016009828154811061101157611010612556565b5b90600052602060002001908161102791906128ad565b50808061103390612995565b915050610fba565b50600980548061104e5761104d6129dd565b5b60019003818190600052602060002001600061106a9190611ec2565b9055611084565b808061107c90612995565b915050610f67565b5050565b600a818154811061109857600080fd5b9060005260206000200160009150905080546110b390612440565b80601f01602080910402602001604051908101604052809291908181526020018280546110df90612440565b801561112c5780601f106111015761010080835404028352916020019161112c565b820191906000526020600020905b81548152906001019060200180831161110f57829003601f168201915b505050505081565b600080601460009054906101000a900473ffffffffffffffffffffffffffffffffffffffff1673ffffffffffffffffffffffffffffffffffffffff163373ffffffffffffffffffffffffffffffffffffffff16146111c7576040517f08c379a00000000000000000000000000000000000000000000000000000000081526004016111be906124e3565b60405180910390fd5b9091565b60056020528060005260406000206000915054906101000a900460ff1681565b601460009054906101000a900473ffffffffffffffffffffffffffffffffffffffff1673ffffffffffffffffffffffffffffffffffffffff163373ffffffffffffffffffffffffffffffffffffffff161461127b576040517f08c379a0000000000000000000000000000000000000000000000000000000008152600401611272906124e3565b60405180910390fd5b80601460006101000a81548173ffffffffffffffffffffffffffffffffffffffff021916908373ffffffffffffffffffffffffffffffffffffffff16021790555050565b601460009054906101000a900473ffffffffffffffffffffffffffffffffffffffff1673ffffffffffffffffffffffffffffffffffffffff163373ffffffffffffffffffffffffffffffffffffffff161461134f576040517f08c379a0000000000000000000000000000000000000000000000000000000008152600401611346906124e3565b60405180910390fd5b60028160405161135f919061253f565b90815260200160405180910390206000808201600061137e9190611ec2565b60018201600061138e9190611ec2565b60028201600061139e9190611ec2565b6003820160006113ae9190611ec2565b60048201600090556005820160006113c69190611ec2565b6006820160006113d69190611ec2565b6007820160006113e69190611ec2565b6008820160006101000a81549060ff02191690556009820160009055505060005b600880549050811015611524578180519060200120600882815481106114305761142f612556565b5b906000526020600020016040516114479190612628565b6040518091039020036115115760008190505b600160088054905061146c919061266e565b8110156114db57600860018261148291906126a2565b8154811061149357611492612556565b5b90600052602060002001600882815481106114b1576114b0612556565b5b9060005260206000200190816114c791906128ad565b5080806114d390612995565b91505061145a565b5060088054806114ee576114ed6129dd565b5b60019003818190600052602060002001600061150a9190611ec2565b9055611524565b808061151c90612995565b915050611407565b5050565b60066020528060005260406000206000915054906101000a900460ff1681565b601460009054906101000a900473ffffffffffffffffffffffffffffffffffffffff1673ffffffffffffffffffffffffffffffffffffffff163373ffffffffffffffffffffffffffffffffffffffff16146115d8576040517f08c379a00000000000000000000000000000000000000000000000000000000081526004016115cf906124e3565b60405180910390fd5b81811161161a576040517f08c379a000000000000000000000000000000000000000000000000000000000815260040161161190612a58565b60405180910390fd5b60008282611628919061266e565b90506001601860006101000a81548160ff0219169083151502179055506001836116529190612a78565b4261165d91906126a2565b6015819055506001826116709190612a78565b4261167b91906126a2565b60168190555080601781905550505050565b6001818051602081018201805184825260208301602085012081835280955050505050506000915054906101000a900460ff1681565b600b5481565b600881815481106116d957600080fd5b9060005260206000200160009150905080546116f490612440565b80601f016020809104026020016040519081016040528092919081815260200182805461172090612440565b801561176d5780601f106117425761010080835404028352916020019161176d565b820191906000526020600020905b81548152906001019060200180831161175057829003601f168201915b505050505081565b600c816007811061178557600080fd5b016000915090505481565b601460009054906101000a900473ffffffffffffffffffffffffffffffffffffffff1673ffffffffffffffffffffffffffffffffffffffff163373ffffffffffffffffffffffffffffffffffffffff1614611820576040517f08c379a0000000000000000000000000000000000000000000000000000000008152600401611817906124e3565b60405180910390fd5b600381604051611830919061253f565b90815260200160405180910390206000808201600061184f9190611ec2565b60018201600061185f9190611ec2565b60028201600061186f9190611ec2565b60038201600061187f9190611ec2565b60048201600090556005820160006118979190611ec2565b6006820160006118a79190611ec2565b6007820160006118b79190611ec2565b6008820160006101000a81549060ff02191690556009820160009055505060005b6009805490508110156119f55781805190602001206009828154811061190157611900612556565b5b906000526020600020016040516119189190612628565b6040518091039020036119e25760008190505b600160098054905061193d919061266e565b8110156119ac57600960018261195391906126a2565b8154811061196457611963612556565b5b906000526020600020016009828154811061198257611981612556565b5b90600052602060002001908161199891906128ad565b5080806119a490612995565b91505061192b565b5060098054806119bf576119be6129dd565b5b6001900381819060005260206000200160006119db9190611ec2565b90556119f5565b80806119ed90612995565b9150506118d8565b5050565b6000601554421015611a40576040517f08c379a0000000000000000000000000000000000000000000000000000000008152600401611a3790612b2c565b60405180910390fd5b601654421015611a5f5742601654611a58919061266e565b9050611a64565b600090505b90565b600381805160208101820180518482526020830160208501208183528095505050505050600091509050806000018054611aa090612440565b80601f0160208091040260200160405190810160405280929190818152602001828054611acc90612440565b8015611b195780601f10611aee57610100808354040283529160200191611b19565b820191906000526020600020905b815481529060010190602001808311611afc57829003601f168201915b505050505090806001018054611b2e90612440565b80601f0160208091040260200160405190810160405280929190818152602001828054611b5a90612440565b8015611ba75780601f10611b7c57610100808354040283529160200191611ba7565b820191906000526020600020905b815481529060010190602001808311611b8a57829003601f168201915b505050505090806002018054611bbc90612440565b80601f0160208091040260200160405190810160405280929190818152602001828054611be890612440565b8015611c355780601f10611c0a57610100808354040283529160200191611c35565b820191906000526020600020905b815481529060010190602001808311611c1857829003601f168201915b505050505090806003018054611c4a90612440565b80601f0160208091040260200160405190810160405280929190818152602001828054611c7690612440565b8015611cc35780601f10611c9857610100808354040283529160200191611cc3565b820191906000526020600020905b815481529060010190602001808311611ca657829003601f168201915b505050505090806004015490806005018054611cde90612440565b80601f0160208091040260200160405190810160405280929190818152602001828054611d0a90612440565b8015611d575780601f10611d2c57610100808354040283529160200191611d57565b820191906000526020600020905b815481529060010190602001808311611d3a57829003601f168201915b505050505090806006018054611d6c90612440565b80601f0160208091040260200160405190810160405280929190818152602001828054611d9890612440565b8015611de55780601f10611dba57610100808354040283529160200191611de5565b820191906000526020600020905b815481529060010190602001808311611dc857829003601f168201915b505050505090806007018054611dfa90612440565b80601f0160208091040260200160405190810160405280929190818152602001828054611e2690612440565b8015611e735780601f10611e4857610100808354040283529160200191611e73565b820191906000526020600020905b815481529060010190602001808311611e5657829003601f168201915b5050505050908060080160009054906101000a900460ff1690806009015490508a565b60135481565b601460009054906101000a900473ffffffffffffffffffffffffffffffffffffffff1681565b508054611ece90612440565b6000825580601f10611ee05750611eff565b601f016020900490600052602060002090810190611efe9190611f02565b5b50565b5b80821115611f1b576000816000905550600101611f03565b5090565b6000604051905090565b600080fd5b600080fd5b6000819050919050565b611f4681611f33565b8114611f5157600080fd5b50565b600081359050611f6381611f3d565b92915050565b600060208284031215611f7f57611f7e611f29565b5b6000611f8d84828501611f54565b91505092915050565b600081519050919050565b600082825260208201905092915050565b60005b83811015611fd0578082015181840152602081019050611fb5565b60008484015250505050565b6000601f19601f8301169050919050565b6000611ff882611f96565b6120028185611fa1565b9350612012818560208601611fb2565b61201b81611fdc565b840191505092915050565b600060208201905081810360008301526120408184611fed565b905092915050565b600073ffffffffffffffffffffffffffffffffffffffff82169050919050565b600061207382612048565b9050919050565b61208381612068565b811461208e57600080fd5b50565b6000813590506120a08161207a565b92915050565b6000602082840312156120bc576120bb611f29565b5b60006120ca84828501612091565b91505092915050565b60008115159050919050565b6120e8816120d3565b82525050565b600060208201905061210360008301846120df565b92915050565b61211281611f33565b82525050565b600060208201905061212d6000830184612109565b92915050565b600080fd5b600080fd5b7f4e487b7100000000000000000000000000000000000000000000000000000000600052604160045260246000fd5b61217582611fdc565b810181811067ffffffffffffffff821117156121945761219361213d565b5b80604052505050565b60006121a7611f1f565b90506121b3828261216c565b919050565b600067ffffffffffffffff8211156121d3576121d261213d565b5b6121dc82611fdc565b9050602081019050919050565b82818337600083830152505050565b600061220b612206846121b8565b61219d565b90508281526020810184848401111561222757612226612138565b5b6122328482856121e9565b509392505050565b600082601f83011261224f5761224e612133565b5b813561225f8482602086016121f8565b91505092915050565b60006020828403121561227e5761227d611f29565b5b600082013567ffffffffffffffff81111561229c5761229b611f2e565b5b6122a88482850161223a565b91505092915050565b60006101408201905081810360008301526122cc818d611fed565b905081810360208301526122e0818c611fed565b905081810360408301526122f4818b611fed565b90508181036060830152612308818a611fed565b90506123176080830189612109565b81810360a08301526123298188611fed565b905081810360c083015261233d8187611fed565b905081810360e08301526123518186611fed565b90506123616101008301856120df565b61236f610120830184612109565b9b9a5050505050505050505050565b60006040820190506123936000830185612109565b6123a06020830184612109565b9392505050565b600080604083850312156123be576123bd611f29565b5b60006123cc85828601611f54565b92505060206123dd85828601611f54565b9150509250929050565b6123f081612068565b82525050565b600060208201905061240b60008301846123e7565b92915050565b7f4e487b7100000000000000000000000000000000000000000000000000000000600052602260045260246000fd5b6000600282049050600182168061245857607f821691505b60208210810361246b5761246a612411565b5b50919050565b7f4f6e6c792061646d696e2063616e20706572666f726d2074686973206163746960008201527f6f6e000000000000000000000000000000000000000000000000000000000000602082015250565b60006124cd602283611fa1565b91506124d882612471565b604082019050919050565b600060208201905081810360008301526124fc816124c0565b9050919050565b600081905092915050565b600061251982611f96565b6125238185612503565b9350612533818560208601611fb2565b80840191505092915050565b600061254b828461250e565b915081905092915050565b7f4e487b7100000000000000000000000000000000000000000000000000000000600052603260045260246000fd5b600081905092915050565b60008190508160005260206000209050919050565b600081546125b281612440565b6125bc8186612585565b945060018216600081146125d757600181146125ec5761261f565b60ff198316865281151582028601935061261f565b6125f585612590565b60005b83811015612617578154818901526001820191506020810190506125f8565b838801955050505b50505092915050565b600061263482846125a5565b915081905092915050565b7f4e487b7100000000000000000000000000000000000000000000000000000000600052601160045260246000fd5b600061267982611f33565b915061268483611f33565b925082820390508181111561269c5761269b61263f565b5b92915050565b60006126ad82611f33565b91506126b883611f33565b92508282019050808211156126d0576126cf61263f565b5b92915050565b6000815490506126e581612440565b9050919050565b60008190508160005260206000209050919050565b60008190508160005260206000209050919050565b60006020601f8301049050919050565b600082821b905092915050565b6000600883026127637fffffffffffffffffffffffffffffffffffffffffffffffffffffffffffffffff82612726565b61276d8683612726565b95508019841693508086168417925050509392505050565b6000819050919050565b60006127aa6127a56127a084611f33565b612785565b611f33565b9050919050565b6000819050919050565b6127c48361278f565b6127d86127d0826127b1565b848454612733565b825550505050565b600090565b6127ed6127e0565b6127f88184846127bb565b505050565b5b8181101561281c576128116000826127e5565b6001810190506127fe565b5050565b601f82111561286157612832816126ec565b61283b84612716565b8101602085101561284a578190505b61285e61285685612716565b8301826127fd565b50505b505050565b600082821c905092915050565b600061288460001984600802612866565b1980831691505092915050565b600061289d8383612873565b9150826002028217905092915050565b8181036128bb575050612993565b6128c4826126d6565b67ffffffffffffffff8111156128dd576128dc61213d565b5b6128e78254612440565b6128f2828285612820565b6000601f831160018114612921576000841561290f578287015490505b6129198582612891565b86555061298c565b601f19841661292f87612701565b965061293a866126ec565b60005b828110156129625784890154825560018201915060018501945060208101905061293d565b8683101561297f578489015461297b601f891682612873565b8355505b6001600288020188555050505b5050505050505b565b60006129a082611f33565b91507fffffffffffffffffffffffffffffffffffffffffffffffffffffffffffffffff82036129d2576129d161263f565b5b600182019050919050565b7f4e487b7100000000000000000000000000000000000000000000000000000000600052603160045260246000fd5b7f496e76616c696420766f74696e6720706572696f640000000000000000000000600082015250565b6000612a42601583611fa1565b9150612a4d82612a0c565b602082019050919050565b60006020820190508181036000830152612a7181612a35565b9050919050565b6000612a8382611f33565b9150612a8e83611f33565b9250828202612a9c81611f33565b91508282048414831517612ab357612ab261263f565b5b5092915050565b7f766f74696e6720686173206e6f742073746172746564207965742121212c205060008201527f6c65617365207761697400000000000000000000000000000000000000000000602082015250565b6000612b16602a83611fa1565b9150612b2182612aba565b604082019050919050565b60006020820190508181036000830152612b4581612b09565b905091905056fea2646970667358221220a877de17d6ca7705316f3228d099ce248d2de8d11f19bfad8d90f1394236858964736f6c63430008130033",
  "immutableReferences": {},
  "source": "//SPDX-License-Identifier: MIT\npragma solidity ^0.8.0;\nimport \"./CandidateStructure.sol\";\nimport \"./AccessControl.sol\";\nimport \"./TimeControl.sol\";\n\ncontract DeleteCandidate is CandidateStructure, AccessControl, TimeControl {\n\n    function deletePresident(string memory _presidentRegNo) public onlyAdmin{\n        delete candidatePresident[_presidentRegNo];\n         for (uint256 i = 0; i < presidentList.length; i++) {\n            if (keccak256(bytes(presidentList[i])) == keccak256(bytes(_presidentRegNo))) {\n                for (uint256 j = i; j < presidentList.length - 1; j++) {\n                    presidentList[j] = presidentList[j + 1];\n                }\n                presidentList.pop();\n                break;\n            }\n        }\n    }\n\n    function deleteGovernor(string memory _presidentRegNo) public onlyAdmin{\n        delete candidateGovernor[_presidentRegNo];\n         for (uint256 i = 0; i < governorList.length; i++) {\n            if (keccak256(bytes(governorList[i])) == keccak256(bytes(_presidentRegNo))) {\n                for (uint256 j = i; j < governorList.length - 1; j++) {\n                    governorList[j] = governorList[j + 1];\n                }\n                governorList.pop();\n                break;\n            }\n        }\n    }\n\n    function deleteBlockLeader(string memory _presidentRegNo) public onlyAdmin{\n        delete candidateBlockLeader[_presidentRegNo];\n         for (uint256 i = 0; i < governorList.length; i++) {\n            if (keccak256(bytes(governorList[i])) == keccak256(bytes(_presidentRegNo))) {\n                for (uint256 j = i; j < governorList.length - 1; j++) {\n                    governorList[j] = governorList[j + 1];\n                }\n                governorList.pop();\n                break;\n            }\n        }\n    }\n}",
  "sourcePath": "/home/temba/Documents/SmartContract/client/contracts/DeleteCandidate.sol",
  "compiler": {
    "name": "solc",
    "version": "0.8.19+commit.7dd6d404.Emscripten.clang"
  },
  "schemaVersion": "3.4.14",
  "updatedAt": "2023-06-19T15:55:45.852Z",
  "devdoc": {
    "kind": "dev",
    "methods": {},
    "version": 1
  },
  "userdoc": {
    "kind": "user",
    "methods": {},
    "version": 1
  }
}