{
  "contractName": "DeleteVoter",
  "abi": [
    {
      "inputs": [],
      "name": "admin",
      "outputs": [
        {
          "internalType": "address",
          "name": "",
          "type": "address"
        }
      ],
      "stateMutability": "view",
      "type": "function"
    },
    {
      "inputs": [],
      "name": "getRemainingTime",
      "outputs": [
        {
          "internalType": "uint256",
          "name": "",
          "type": "uint256"
        }
      ],
      "stateMutability": "view",
      "type": "function"
    },
    {
      "inputs": [],
      "name": "getTime",
      "outputs": [
        {
          "internalType": "uint256",
          "name": "startTime",
          "type": "uint256"
        },
        {
          "internalType": "uint256",
          "name": "endTime",
          "type": "uint256"
        }
      ],
      "stateMutability": "view",
      "type": "function"
    },
    {
      "inputs": [
        {
          "internalType": "address",
          "name": "",
          "type": "address"
        }
      ],
      "name": "hasLogedin",
      "outputs": [
        {
          "internalType": "bool",
          "name": "",
          "type": "bool"
        }
      ],
      "stateMutability": "view",
      "type": "function"
    },
    {
      "inputs": [],
      "name": "isInitiated",
      "outputs": [
        {
          "internalType": "bool",
          "name": "",
          "type": "bool"
        }
      ],
      "stateMutability": "view",
      "type": "function"
    },
    {
      "inputs": [
        {
          "internalType": "uint256",
          "name": "_startTime",
          "type": "uint256"
        },
        {
          "internalType": "uint256",
          "name": "_endTime",
          "type": "uint256"
        }
      ],
      "name": "setVotingPeriod",
      "outputs": [],
      "stateMutability": "nonpayable",
      "type": "function"
    },
    {
      "inputs": [
        {
          "internalType": "address",
          "name": "newAdmin",
          "type": "address"
        }
      ],
      "name": "transferAdmin",
      "outputs": [],
      "stateMutability": "nonpayable",
      "type": "function"
    },
    {
      "inputs": [
        {
          "internalType": "uint256",
          "name": "",
          "type": "uint256"
        }
      ],
      "name": "voterAddressArray",
      "outputs": [
        {
          "internalType": "address",
          "name": "",
          "type": "address"
        }
      ],
      "stateMutability": "view",
      "type": "function"
    },
    {
      "inputs": [
        {
          "internalType": "address",
          "name": "",
          "type": "address"
        }
      ],
      "name": "voterSession",
      "outputs": [
        {
          "internalType": "string",
          "name": "",
          "type": "string"
        }
      ],
      "stateMutability": "view",
      "type": "function"
    },
    {
      "inputs": [
        {
          "internalType": "address",
          "name": "",
          "type": "address"
        }
      ],
      "name": "voters",
      "outputs": [
        {
          "internalType": "address",
          "name": "voterAddress",
          "type": "address"
        },
        {
          "internalType": "string",
          "name": "firstName",
          "type": "string"
        },
        {
          "internalType": "string",
          "name": "lastName",
          "type": "string"
        },
        {
          "internalType": "string",
          "name": "collegeName",
          "type": "string"
        },
        {
          "internalType": "string",
          "name": "programName",
          "type": "string"
        },
        {
          "internalType": "uint256",
          "name": "yearOfStudy",
          "type": "uint256"
        },
        {
          "internalType": "string",
          "name": "regNo",
          "type": "string"
        },
        {
          "internalType": "string",
          "name": "blockNumber",
          "type": "string"
        },
        {
          "internalType": "string",
          "name": "password",
          "type": "string"
        },
        {
          "internalType": "string",
          "name": "gender",
          "type": "string"
        },
        {
          "internalType": "bool",
          "name": "isRegistered",
          "type": "bool"
        },
        {
          "internalType": "bool",
          "name": "voted",
          "type": "bool"
        }
      ],
      "stateMutability": "view",
      "type": "function"
    },
    {
      "inputs": [
        {
          "internalType": "address",
          "name": "_voterAddress",
          "type": "address"
        }
      ],
      "name": "deleteVoter",
      "outputs": [],
      "stateMutability": "nonpayable",
      "type": "function"
    }
  ],
  "bytecode": "0x608060405234801561001057600080fd5b5033600460006101000a81548173ffffffffffffffffffffffffffffffffffffffff021916908373ffffffffffffffffffffffffffffffffffffffff1602179055506115d8806100616000396000f3fe608060405234801561001057600080fd5b50600436106100a95760003560e01c806388e1c7391161007157806388e1c73914610167578063a15a36c714610183578063a3ec138d1461019f578063bf08128f146101da578063efb98bcf1461020a578063f851a44014610228576100a9565b80631cb59914146100ae578063557ed1ba146100cc5780635b6e990c146100eb57806371b7ddb81461011b57806375829def1461014b575b600080fd5b6100b6610246565b6040516100c39190610ec4565b60405180910390f35b6100d4610259565b6040516100e2929190610ef8565b60405180910390f35b61010560048036038101906101009190610f84565b6102f0565b6040516101129190611041565b60405180910390f35b6101356004803603810190610130919061108f565b610390565b60405161014291906110cb565b60405180910390f35b61016560048036038101906101609190610f84565b6103cf565b005b610181600480360381019061017c9190610f84565b6104a3565b005b61019d600480360381019061019891906110e6565b610779565b005b6101b960048036038101906101b49190610f84565b6108be565b6040516101d19c9b9a99989796959493929190611126565b60405180910390f35b6101f460048036038101906101ef9190610f84565b610d98565b6040516102019190610ec4565b60405180910390f35b610212610db8565b60405161021f9190611218565b60405180910390f35b610230610e26565b60405161023d91906110cb565b60405180910390f35b600860009054906101000a900460ff1681565b600080600460009054906101000a900473ffffffffffffffffffffffffffffffffffffffff1673ffffffffffffffffffffffffffffffffffffffff163373ffffffffffffffffffffffffffffffffffffffff16146102ec576040517f08c379a00000000000000000000000000000000000000000000000000000000081526004016102e3906112a5565b60405180910390fd5b9091565b6002602052806000526040600020600091509050805461030f906112f4565b80601f016020809104026020016040519081016040528092919081815260200182805461033b906112f4565b80156103885780601f1061035d57610100808354040283529160200191610388565b820191906000526020600020905b81548152906001019060200180831161036b57829003601f168201915b505050505081565b600381815481106103a057600080fd5b906000526020600020016000915054906101000a900473ffffffffffffffffffffffffffffffffffffffff1681565b600460009054906101000a900473ffffffffffffffffffffffffffffffffffffffff1673ffffffffffffffffffffffffffffffffffffffff163373ffffffffffffffffffffffffffffffffffffffff161461045f576040517f08c379a0000000000000000000000000000000000000000000000000000000008152600401610456906112a5565b60405180910390fd5b80600460006101000a81548173ffffffffffffffffffffffffffffffffffffffff021916908373ffffffffffffffffffffffffffffffffffffffff16021790555050565b6000808273ffffffffffffffffffffffffffffffffffffffff1673ffffffffffffffffffffffffffffffffffffffff168152602001908152602001600020600080820160006101000a81549073ffffffffffffffffffffffffffffffffffffffff02191690556001820160006105199190610e4c565b6002820160006105299190610e4c565b6003820160006105399190610e4c565b6004820160006105499190610e4c565b60058201600090556006820160006105619190610e4c565b6007820160006105719190610e4c565b6008820160006105819190610e4c565b6009820160006105919190610e4c565b600a820160006101000a81549060ff0219169055600a820160016101000a81549060ff0219169055505060005b600380549050811015610775578173ffffffffffffffffffffffffffffffffffffffff16600382815481106105f6576105f5611325565b5b9060005260206000200160009054906101000a900473ffffffffffffffffffffffffffffffffffffffff1673ffffffffffffffffffffffffffffffffffffffff16036107625760008190505b60016003805490506106549190611383565b81101561071557600360018261066a91906113b7565b8154811061067b5761067a611325565b5b9060005260206000200160009054906101000a900473ffffffffffffffffffffffffffffffffffffffff16600382815481106106ba576106b9611325565b5b9060005260206000200160006101000a81548173ffffffffffffffffffffffffffffffffffffffff021916908373ffffffffffffffffffffffffffffffffffffffff160217905550808061070d906113eb565b915050610642565b50600380548061072857610727611433565b5b6001900381819060005260206000200160006101000a81549073ffffffffffffffffffffffffffffffffffffffff02191690559055610775565b808061076d906113eb565b9150506105be565b5050565b600460009054906101000a900473ffffffffffffffffffffffffffffffffffffffff1673ffffffffffffffffffffffffffffffffffffffff163373ffffffffffffffffffffffffffffffffffffffff1614610809576040517f08c379a0000000000000000000000000000000000000000000000000000000008152600401610800906112a5565b60405180910390fd5b81811161084b576040517f08c379a0000000000000000000000000000000000000000000000000000000008152600401610842906114ae565b60405180910390fd5b600082826108599190611383565b90506001600860006101000a81548160ff02191690831515021790555060018361088391906114ce565b4261088e91906113b7565b6005819055506001826108a191906114ce565b426108ac91906113b7565b60068190555080600781905550505050565b60006020528060005260406000206000915090508060000160009054906101000a900473ffffffffffffffffffffffffffffffffffffffff1690806001018054610907906112f4565b80601f0160208091040260200160405190810160405280929190818152602001828054610933906112f4565b80156109805780601f1061095557610100808354040283529160200191610980565b820191906000526020600020905b81548152906001019060200180831161096357829003601f168201915b505050505090806002018054610995906112f4565b80601f01602080910402602001604051908101604052809291908181526020018280546109c1906112f4565b8015610a0e5780601f106109e357610100808354040283529160200191610a0e565b820191906000526020600020905b8154815290600101906020018083116109f157829003601f168201915b505050505090806003018054610a23906112f4565b80601f0160208091040260200160405190810160405280929190818152602001828054610a4f906112f4565b8015610a9c5780601f10610a7157610100808354040283529160200191610a9c565b820191906000526020600020905b815481529060010190602001808311610a7f57829003601f168201915b505050505090806004018054610ab1906112f4565b80601f0160208091040260200160405190810160405280929190818152602001828054610add906112f4565b8015610b2a5780601f10610aff57610100808354040283529160200191610b2a565b820191906000526020600020905b815481529060010190602001808311610b0d57829003601f168201915b505050505090806005015490806006018054610b45906112f4565b80601f0160208091040260200160405190810160405280929190818152602001828054610b71906112f4565b8015610bbe5780601f10610b9357610100808354040283529160200191610bbe565b820191906000526020600020905b815481529060010190602001808311610ba157829003601f168201915b505050505090806007018054610bd3906112f4565b80601f0160208091040260200160405190810160405280929190818152602001828054610bff906112f4565b8015610c4c5780601f10610c2157610100808354040283529160200191610c4c565b820191906000526020600020905b815481529060010190602001808311610c2f57829003601f168201915b505050505090806008018054610c61906112f4565b80601f0160208091040260200160405190810160405280929190818152602001828054610c8d906112f4565b8015610cda5780601f10610caf57610100808354040283529160200191610cda565b820191906000526020600020905b815481529060010190602001808311610cbd57829003601f168201915b505050505090806009018054610cef906112f4565b80601f0160208091040260200160405190810160405280929190818152602001828054610d1b906112f4565b8015610d685780601f10610d3d57610100808354040283529160200191610d68565b820191906000526020600020905b815481529060010190602001808311610d4b57829003601f168201915b50505050509080600a0160009054906101000a900460ff169080600a0160019054906101000a900460ff1690508c565b60016020528060005260406000206000915054906101000a900460ff1681565b6000600554421015610dff576040517f08c379a0000000000000000000000000000000000000000000000000000000008152600401610df690611582565b60405180910390fd5b600654421015610e1e5742600654610e179190611383565b9050610e23565b600090505b90565b600460009054906101000a900473ffffffffffffffffffffffffffffffffffffffff1681565b508054610e58906112f4565b6000825580601f10610e6a5750610e89565b601f016020900490600052602060002090810190610e889190610e8c565b5b50565b5b80821115610ea5576000816000905550600101610e8d565b5090565b60008115159050919050565b610ebe81610ea9565b82525050565b6000602082019050610ed96000830184610eb5565b92915050565b6000819050919050565b610ef281610edf565b82525050565b6000604082019050610f0d6000830185610ee9565b610f1a6020830184610ee9565b9392505050565b600080fd5b600073ffffffffffffffffffffffffffffffffffffffff82169050919050565b6000610f5182610f26565b9050919050565b610f6181610f46565b8114610f6c57600080fd5b50565b600081359050610f7e81610f58565b92915050565b600060208284031215610f9a57610f99610f21565b5b6000610fa884828501610f6f565b91505092915050565b600081519050919050565b600082825260208201905092915050565b60005b83811015610feb578082015181840152602081019050610fd0565b60008484015250505050565b6000601f19601f8301169050919050565b600061101382610fb1565b61101d8185610fbc565b935061102d818560208601610fcd565b61103681610ff7565b840191505092915050565b6000602082019050818103600083015261105b8184611008565b905092915050565b61106c81610edf565b811461107757600080fd5b50565b60008135905061108981611063565b92915050565b6000602082840312156110a5576110a4610f21565b5b60006110b38482850161107a565b91505092915050565b6110c581610f46565b82525050565b60006020820190506110e060008301846110bc565b92915050565b600080604083850312156110fd576110fc610f21565b5b600061110b8582860161107a565b925050602061111c8582860161107a565b9150509250929050565b60006101808201905061113c600083018f6110bc565b818103602083015261114e818e611008565b90508181036040830152611162818d611008565b90508181036060830152611176818c611008565b9050818103608083015261118a818b611008565b905061119960a083018a610ee9565b81810360c08301526111ab8189611008565b905081810360e08301526111bf8188611008565b90508181036101008301526111d48187611008565b90508181036101208301526111e98186611008565b90506111f9610140830185610eb5565b611207610160830184610eb5565b9d9c50505050505050505050505050565b600060208201905061122d6000830184610ee9565b92915050565b7f4f6e6c792061646d696e2063616e20706572666f726d2074686973206163746960008201527f6f6e000000000000000000000000000000000000000000000000000000000000602082015250565b600061128f602283610fbc565b915061129a82611233565b604082019050919050565b600060208201905081810360008301526112be81611282565b9050919050565b7f4e487b7100000000000000000000000000000000000000000000000000000000600052602260045260246000fd5b6000600282049050600182168061130c57607f821691505b60208210810361131f5761131e6112c5565b5b50919050565b7f4e487b7100000000000000000000000000000000000000000000000000000000600052603260045260246000fd5b7f4e487b7100000000000000000000000000000000000000000000000000000000600052601160045260246000fd5b600061138e82610edf565b915061139983610edf565b92508282039050818111156113b1576113b0611354565b5b92915050565b60006113c282610edf565b91506113cd83610edf565b92508282019050808211156113e5576113e4611354565b5b92915050565b60006113f682610edf565b91507fffffffffffffffffffffffffffffffffffffffffffffffffffffffffffffffff820361142857611427611354565b5b600182019050919050565b7f4e487b7100000000000000000000000000000000000000000000000000000000600052603160045260246000fd5b7f496e76616c696420766f74696e6720706572696f640000000000000000000000600082015250565b6000611498601583610fbc565b91506114a382611462565b602082019050919050565b600060208201905081810360008301526114c78161148b565b9050919050565b60006114d982610edf565b91506114e483610edf565b92508282026114f281610edf565b9150828204841483151761150957611508611354565b5b5092915050565b7f766f74696e6720686173206e6f742073746172746564207965742121212c205060008201527f6c65617365207761697400000000000000000000000000000000000000000000602082015250565b600061156c602a83610fbc565b915061157782611510565b604082019050919050565b6000602082019050818103600083015261159b8161155f565b905091905056fea26469706673582212204b13cdfae0ca03b4d9a35f5ba84b1d83a6ed7953013310d01b0c061f39801b0c64736f6c63430008130033",
  "immutableReferences": {},
  "source": "//SPDX-License-Identifier: MIT\npragma solidity ^0.8.0;\nimport \"./VoterStructure.sol\";\nimport \"./AccessControl.sol\";\nimport \"./TimeControl.sol\";\n\ncontract DeleteVoter is VoterStructure, AccessControl, TimeControl {\n    function deleteVoter(address _voterAddress) public {\n        delete voters[_voterAddress];\n        for (uint256 i = 0; i < voterAddressArray.length; i++) {\n            if (voterAddressArray[i] == _voterAddress) {\n                for (uint256 j = i; j < voterAddressArray.length - 1; j++) {\n                    voterAddressArray[j] = voterAddressArray[j + 1];\n                }\n                voterAddressArray.pop();\n                break;\n            }\n        }\n    }\n}\n",
  "sourcePath": "/home/temba/Documents/SmartContract/client/contracts/DeleteVoter.sol",
  "compiler": {
    "name": "solc",
    "version": "0.8.19+commit.7dd6d404.Emscripten.clang"
  },
  "schemaVersion": "3.4.14",
  "updatedAt": "2023-06-19T15:55:45.867Z",
  "devdoc": {
    "kind": "dev",
    "methods": {},
    "version": 1
  },
  "userdoc": {
    "kind": "user",
    "methods": {},
    "version": 1
  }
}