{
  "contractName": "MyContract",
  "abi": [
    {
      "inputs": [
        {
          "internalType": "address",
          "name": "_voterAddress",
          "type": "address"
        },
        {
          "internalType": "string",
          "name": "_firstName",
          "type": "string"
        },
        {
          "internalType": "string",
          "name": "_lastName",
          "type": "string"
        },
        {
          "internalType": "string",
          "name": "_collegeName",
          "type": "string"
        },
        {
          "internalType": "string",
          "name": "_programName",
          "type": "string"
        },
        {
          "internalType": "uint256",
          "name": "_yearOfStudy",
          "type": "uint256"
        },
        {
          "internalType": "string",
          "name": "_regNo",
          "type": "string"
        },
        {
          "internalType": "string",
          "name": "_blockNumber",
          "type": "string"
        },
        {
          "internalType": "string",
          "name": "_password",
          "type": "string"
        },
        {
          "internalType": "string",
          "name": "_gender",
          "type": "string"
        }
      ],
      "name": "registerVoter",
      "outputs": [],
      "stateMutability": "nonpayable",
      "type": "function"
    },
    {
      "inputs": [
        {
          "internalType": "address",
          "name": "_voterAddress",
          "type": "address"
        }
      ],
      "name": "getVoterDetails",
      "outputs": [
        {
          "components": [
            {
              "internalType": "address",
              "name": "voterAddress",
              "type": "address"
            },
            {
              "internalType": "string",
              "name": "firstName",
              "type": "string"
            },
            {
              "internalType": "string",
              "name": "lastName",
              "type": "string"
            },
            {
              "internalType": "string",
              "name": "collegeName",
              "type": "string"
            },
            {
              "internalType": "string",
              "name": "programName",
              "type": "string"
            },
            {
              "internalType": "uint256",
              "name": "yearOfStudy",
              "type": "uint256"
            },
            {
              "internalType": "string",
              "name": "regNo",
              "type": "string"
            },
            {
              "internalType": "string",
              "name": "blockNumber",
              "type": "string"
            },
            {
              "internalType": "string",
              "name": "password",
              "type": "string"
            },
            {
              "internalType": "string",
              "name": "gender",
              "type": "string"
            },
            {
              "internalType": "bool",
              "name": "isRegistered",
              "type": "bool"
            },
            {
              "internalType": "bool",
              "name": "voted",
              "type": "bool"
            }
          ],
          "internalType": "struct VoterStructureLibrary.Voter",
          "name": "",
          "type": "tuple"
        }
      ],
      "stateMutability": "view",
      "type": "function"
    }
  ],
  "bytecode": "0x608060405234801561001057600080fd5b506112c2806100206000396000f3fe608060405234801561001057600080fd5b50600436106100365760003560e01c806390af20091461003b578063ba71bef014610057575b600080fd5b61005560048036038101906100509190610b11565b610087565b005b610071600480360381019061006c9190610cd0565b6102ea565b60405161007e9190610eea565b60405180910390f35b60008073__VoterStructureLibrary_________________63b32e68fa90918d6040518363ffffffff1660e01b81526004016100c4929190610f22565b602060405180830381865af41580156100e1573d6000803e3d6000fd5b505050506040513d601f19601f820116820180604052508101906101059190610f81565b90508a8160000160006101000a81548173ffffffffffffffffffffffffffffffffffffffff021916908373ffffffffffffffffffffffffffffffffffffffff1602179055508981600101908161015b91906111ba565b508881600201908161016d91906111ba565b508781600301908161017f91906111ba565b508681600401908161019191906111ba565b50858160050181905550848160060190816101ac91906111ba565b50838160070190816101be91906111ba565b50828160080190816101d091906111ba565b50818160090190816101e291906111ba565b50600181600a0160006101000a81548160ff021916908315150217905550600081600a0160016101000a81548160ff02191690831515021790555060008060010160008d73ffffffffffffffffffffffffffffffffffffffff1673ffffffffffffffffffffffffffffffffffffffff16815260200190815260200160002060006101000a81548160ff02191690831515021790555060006003018b9080600181540180825580915050600190039060005260206000200160009091909190916101000a81548173ffffffffffffffffffffffffffffffffffffffff021916908373ffffffffffffffffffffffffffffffffffffffff1602179055505050505050505050505050565b6102f26108a8565b600073__VoterStructureLibrary_________________63b32e68fa9091846040518363ffffffff1660e01b815260040161032e929190610f22565b602060405180830381865af415801561034b573d6000803e3d6000fd5b505050506040513d601f19601f8201168201806040525081019061036f9190610f81565b604051806101800160405290816000820160009054906101000a900473ffffffffffffffffffffffffffffffffffffffff1673ffffffffffffffffffffffffffffffffffffffff1673ffffffffffffffffffffffffffffffffffffffff1681526020016001820180546103e190610fdd565b80601f016020809104026020016040519081016040528092919081815260200182805461040d90610fdd565b801561045a5780601f1061042f5761010080835404028352916020019161045a565b820191906000526020600020905b81548152906001019060200180831161043d57829003601f168201915b5050505050815260200160028201805461047390610fdd565b80601f016020809104026020016040519081016040528092919081815260200182805461049f90610fdd565b80156104ec5780601f106104c1576101008083540402835291602001916104ec565b820191906000526020600020905b8154815290600101906020018083116104cf57829003601f168201915b5050505050815260200160038201805461050590610fdd565b80601f016020809104026020016040519081016040528092919081815260200182805461053190610fdd565b801561057e5780601f106105535761010080835404028352916020019161057e565b820191906000526020600020905b81548152906001019060200180831161056157829003601f168201915b5050505050815260200160048201805461059790610fdd565b80601f01602080910402602001604051908101604052809291908181526020018280546105c390610fdd565b80156106105780601f106105e557610100808354040283529160200191610610565b820191906000526020600020905b8154815290600101906020018083116105f357829003601f168201915b505050505081526020016005820154815260200160068201805461063390610fdd565b80601f016020809104026020016040519081016040528092919081815260200182805461065f90610fdd565b80156106ac5780601f10610681576101008083540402835291602001916106ac565b820191906000526020600020905b81548152906001019060200180831161068f57829003601f168201915b505050505081526020016007820180546106c590610fdd565b80601f01602080910402602001604051908101604052809291908181526020018280546106f190610fdd565b801561073e5780601f106107135761010080835404028352916020019161073e565b820191906000526020600020905b81548152906001019060200180831161072157829003601f168201915b5050505050815260200160088201805461075790610fdd565b80601f016020809104026020016040519081016040528092919081815260200182805461078390610fdd565b80156107d05780601f106107a5576101008083540402835291602001916107d0565b820191906000526020600020905b8154815290600101906020018083116107b357829003601f168201915b505050505081526020016009820180546107e990610fdd565b80601f016020809104026020016040519081016040528092919081815260200182805461081590610fdd565b80156108625780601f1061083757610100808354040283529160200191610862565b820191906000526020600020905b81548152906001019060200180831161084557829003601f168201915b50505050508152602001600a820160009054906101000a900460ff16151515158152602001600a820160019054906101000a900460ff1615151515815250509050919050565b604051806101800160405280600073ffffffffffffffffffffffffffffffffffffffff1681526020016060815260200160608152602001606081526020016060815260200160008152602001606081526020016060815260200160608152602001606081526020016000151581526020016000151581525090565b6000604051905090565b600080fd5b600080fd5b600073ffffffffffffffffffffffffffffffffffffffff82169050919050565b600061096282610937565b9050919050565b61097281610957565b811461097d57600080fd5b50565b60008135905061098f81610969565b92915050565b600080fd5b600080fd5b6000601f19601f8301169050919050565b7f4e487b7100000000000000000000000000000000000000000000000000000000600052604160045260246000fd5b6109e88261099f565b810181811067ffffffffffffffff82111715610a0757610a066109b0565b5b80604052505050565b6000610a1a610923565b9050610a2682826109df565b919050565b600067ffffffffffffffff821115610a4657610a456109b0565b5b610a4f8261099f565b9050602081019050919050565b82818337600083830152505050565b6000610a7e610a7984610a2b565b610a10565b905082815260208101848484011115610a9a57610a9961099a565b5b610aa5848285610a5c565b509392505050565b600082601f830112610ac257610ac1610995565b5b8135610ad2848260208601610a6b565b91505092915050565b6000819050919050565b610aee81610adb565b8114610af957600080fd5b50565b600081359050610b0b81610ae5565b92915050565b6000806000806000806000806000806101408b8d031215610b3557610b3461092d565b5b6000610b438d828e01610980565b9a505060208b013567ffffffffffffffff811115610b6457610b63610932565b5b610b708d828e01610aad565b99505060408b013567ffffffffffffffff811115610b9157610b90610932565b5b610b9d8d828e01610aad565b98505060608b013567ffffffffffffffff811115610bbe57610bbd610932565b5b610bca8d828e01610aad565b97505060808b013567ffffffffffffffff811115610beb57610bea610932565b5b610bf78d828e01610aad565b96505060a0610c088d828e01610afc565b95505060c08b013567ffffffffffffffff811115610c2957610c28610932565b5b610c358d828e01610aad565b94505060e08b013567ffffffffffffffff811115610c5657610c55610932565b5b610c628d828e01610aad565b9350506101008b013567ffffffffffffffff811115610c8457610c83610932565b5b610c908d828e01610aad565b9250506101208b013567ffffffffffffffff811115610cb257610cb1610932565b5b610cbe8d828e01610aad565b9150509295989b9194979a5092959850565b600060208284031215610ce657610ce561092d565b5b6000610cf484828501610980565b91505092915050565b610d0681610957565b82525050565b600081519050919050565b600082825260208201905092915050565b60005b83811015610d46578082015181840152602081019050610d2b565b60008484015250505050565b6000610d5d82610d0c565b610d678185610d17565b9350610d77818560208601610d28565b610d808161099f565b840191505092915050565b610d9481610adb565b82525050565b60008115159050919050565b610daf81610d9a565b82525050565b600061018083016000830151610dce6000860182610cfd565b5060208301518482036020860152610de68282610d52565b91505060408301518482036040860152610e008282610d52565b91505060608301518482036060860152610e1a8282610d52565b91505060808301518482036080860152610e348282610d52565b91505060a0830151610e4960a0860182610d8b565b5060c083015184820360c0860152610e618282610d52565b91505060e083015184820360e0860152610e7b8282610d52565b915050610100830151848203610100860152610e978282610d52565b915050610120830151848203610120860152610eb38282610d52565b915050610140830151610eca610140860182610da6565b50610160830151610edf610160860182610da6565b508091505092915050565b60006020820190508181036000830152610f048184610db5565b905092915050565b8082525050565b610f1c81610957565b82525050565b6000604082019050610f376000830185610f0c565b610f446020830184610f13565b9392505050565b6000819050919050565b610f5e81610f4b565b8114610f6957600080fd5b50565b600081519050610f7b81610f55565b92915050565b600060208284031215610f9757610f9661092d565b5b6000610fa584828501610f6c565b91505092915050565b7f4e487b7100000000000000000000000000000000000000000000000000000000600052602260045260246000fd5b60006002820490506001821680610ff557607f821691505b60208210810361100857611007610fae565b5b50919050565b60008190508160005260206000209050919050565b60006020601f8301049050919050565b600082821b905092915050565b6000600883026110707fffffffffffffffffffffffffffffffffffffffffffffffffffffffffffffffff82611033565b61107a8683611033565b95508019841693508086168417925050509392505050565b6000819050919050565b60006110b76110b26110ad84610adb565b611092565b610adb565b9050919050565b6000819050919050565b6110d18361109c565b6110e56110dd826110be565b848454611040565b825550505050565b600090565b6110fa6110ed565b6111058184846110c8565b505050565b5b818110156111295761111e6000826110f2565b60018101905061110b565b5050565b601f82111561116e5761113f8161100e565b61114884611023565b81016020851015611157578190505b61116b61116385611023565b83018261110a565b50505b505050565b600082821c905092915050565b600061119160001984600802611173565b1980831691505092915050565b60006111aa8383611180565b9150826002028217905092915050565b6111c382610d0c565b67ffffffffffffffff8111156111dc576111db6109b0565b5b6111e68254610fdd565b6111f182828561112d565b600060209050601f8311600181146112245760008415611212578287015190505b61121c858261119e565b865550611284565b601f1984166112328661100e565b60005b8281101561125a57848901518255600182019150602085019450602081019050611235565b868310156112775784890151611273601f891682611180565b8355505b6001600288020188555050505b50505050505056fea2646970667358221220a0690ffa09c737ff16daf018a47b23bbd11cc032d140056d0b7c7568c0501d8964736f6c63430008130033",
  "immutableReferences": {},
  "source": "// SPDX-License-Identifier: MIT\npragma solidity ^0.8.0;\n\nlibrary VoterStructureLibrary {\n    // Data structure for a voter\n    struct Voter {\n        address voterAddress;\n        string firstName;\n        string lastName;\n        string collegeName;\n        string programName;\n        uint256 yearOfStudy;\n        string regNo;\n        string blockNumber;\n        string password;\n        string gender;\n        bool isRegistered;\n        bool voted;\n    }\n\n    struct VoterStorage {\n        mapping(address => Voter) voters;\n        mapping(address => bool) hasLoggedIn;\n        mapping(address => string) voterSession;\n        address[] voterAddressArray;\n    }\n\n    //     function getCandidatePresident( string memory _regNo) public view returns (Candidate memory)\n    // {\n    //     return candidatePresident[_regNo];\n    // }\n    // function getGovernorList() public view returns (string[] memory)\n    // {\n    //     return governorList;\n    // }\n\n    function getVoter(VoterStorage storage self, address _voterAddress) public view returns (Voter storage)\n    {\n        return self.voters[_voterAddress];\n    }\n\n    function getHasLoggedIn(VoterStorage storage self, address _voterAddress) public view returns (bool)\n    {\n        return self.hasLoggedIn[_voterAddress];\n    }\n\n    function getVoterSession(VoterStorage storage self, address _voterAddress) public view returns (string storage)\n    {\n        return self.voterSession[_voterAddress];\n    }\n\n    function getVoterAddressArray(VoterStorage storage self) public view returns (address[] storage)\n    {\n        return self.voterAddressArray;\n    }\n}\n\n\n\n\ncontract MyContract {\n    using VoterStructureLibrary for VoterStructureLibrary.VoterStorage;\n    VoterStructureLibrary.VoterStorage private voters;\n\n    function registerVoter(\n        address _voterAddress,\n        string memory _firstName,\n        string memory _lastName,\n        string memory _collegeName,\n        string memory _programName,\n        uint256 _yearOfStudy,\n        string memory _regNo,\n        string memory _blockNumber,\n        string memory _password,\n        string memory _gender\n    ) external {\n        // Access the Voter data structure and storage functions\n        VoterStructureLibrary.Voter storage voter = voters.getVoter(_voterAddress);\n        voter.voterAddress = _voterAddress;\n        voter.firstName = _firstName;\n        voter.lastName = _lastName;\n        voter.collegeName = _collegeName;\n        voter.programName = _programName;\n        voter.yearOfStudy = _yearOfStudy;\n        voter.regNo = _regNo;\n        voter.blockNumber = _blockNumber;\n        voter.password = _password;\n        voter.gender = _gender;\n        voter.isRegistered = true;\n        voter.voted = false;\n\n        voters.hasLoggedIn[_voterAddress] = false;\n        voters.voterAddressArray.push(_voterAddress);\n    }\n\n    function getVoterDetails(address _voterAddress)\n        external\n        view\n        returns (VoterStructureLibrary.Voter memory)\n    {\n        // Access the Voter data structure\n        return voters.getVoter(_voterAddress);\n    }\n}\n\n\n// The contract you provided, VoterStructure, seems to define the necessary data structures and mappings \n// for storing voter information. However, based on the code snippet you shared, there are no functions that \n// handle the data transfer between contracts.\n\n// To address your issue of accessing empty data when one contract sends data to VoterStructure \n// and another contract tries to access it, there are a few potential reasons for this problem:\n\n// Incorrect data storage: Ensure that the data is being correctly stored in the VoterStructure contract.\n//  When the first contract sends data, verify that the data is actually being assigned to the appropriate \n//  mappings and arrays in the VoterStructure contract.\n\n// Synchronization of data: If multiple contracts are interacting with the VoterStructure contract, \n// you need to ensure that they are properly synchronized. For example, if one contract updates a value, \n// other contracts may need to wait until the transaction is mined and the data is updated before accessing it.\n\n// Contract deployment and address consistency: Verify that all contracts are deployed to the correct \n// addresses and that the correct instances of the VoterStructure contract are being used. If you are \n// interacting with multiple instances of the same contract, make sure you are referencing the correct \n// contract address.\n\n// To further diagnose the issue and provide more specific guidance, please provide more details about\n//  how the contracts interact, including the code snippets for the contracts that send data to VoterStructure\n//   and the contract that tries to access it\n\n\n\n\n\n\n// pragma solidity ^0.8.0;\n// import \"./VoterContract.sol\";\n// import \"./AccessControl.sol\";\n// import \"./TimeStructure.sol\";\n\n// contract CandidateContract is AccessControl, TimeStructure{\n\n//     struct Candidate {\n//         string firstName;\n//         string lastName;\n//         string collegeName;\n//         string programName;\n//         uint256 yearOfStudy;\n//         string regNo;\n//         string blockNumber;\n//         string gender;\n//         bool isWinner;\n//         uint256 voteCount;\n//         string position;\n//     }\n//     uint public totalVotes;\n\n//     mapping(string => bool) public isRegistered;\n\n//     //President Registration\n//     mapping(string => Candidate) public candidatePresident;\n\n//     //Governor Registration\n//     mapping(string => Candidate) public candidateGovernor;\n\n//     //BlockLeader Registration\n//     mapping(string => Candidate) public candidateBlockLeader;\n\n//     mapping(address => bool) public presidentVoted;\n//     mapping(address => bool) public governorVoted;\n//     mapping(address => bool) public blockLeaderVoted;\n\n//     string[] public presidentList;\n//     string[] public governorList;\n//     string[] public blockLeaderList;\n\n//     //Number of candidate in a particular position\n//     uint256 public numberOfPresident;\n//     uint256 public numberOfGovernor;\n//     uint256 public numberOfBlockLeader;\n\n//     function getCandidatePresident( string memory _regNo) public view returns (Candidate memory)\n//     {\n//         return candidatePresident[_regNo];\n//     }\n//     function getGovernorList() public view returns (string[] memory)\n//     {\n//         return governorList;\n//     }\n\n\n//     event NewPresidentRegistered(string firstName, string lastName, string collegeName, string programName, uint256 yearOfStudy, string regNo, string blockNumber, string gender);\n//     event NewGovernorRegistered(string firstName, string lastName, string collegeName, string programName, uint256 yearOfStudy, string regNo, string blockNumber, string gender);\n//     event NewBlockLeaderRegistered(string firstName, string lastName, string collegeName, string programName, uint256 yearOfStudy, string regNo, string blockNumber, string gender);\n\n//     function registerPresident(string memory _firstName, string memory _lastName, string memory _collegeName,string memory _programName, uint256 _yearOfStudy, string memory _regNo, string memory _blockNumber, string memory _gender) public onlyAdmin{\n//         require(!isInitiated, \"Voting process already started\");\n//         require(!isRegistered[_regNo], \"candidate is already registered!\");\n//         require(numberOfPresident < 2, \"The registered president is enough!\");\n//         Candidate memory newCandidate = Candidate({\n//             firstName: _firstName,\n//             lastName: _lastName,       \n//             collegeName: _collegeName,\n//             programName: _programName,\n//             yearOfStudy: _yearOfStudy, \n//             regNo: _regNo, \n//             blockNumber: _blockNumber,\n//             gender: _gender, \n//             isWinner: false,\n//             voteCount: 0,\n//             position: \"PRESIDENT\"\n//         });\n//         isRegistered[_regNo]= true;\n//         candidatePresident[_regNo] = newCandidate;\n//         presidentList.push(_regNo);\n//         numberOfPresident++;\n\n//         // emit NewPresidentRegistered(_firstName, _collegeName, _programName, _yearOfStudy, _regNo, _blockNumber, _gender);\n//     }\n\n//     function registerGovernor(string memory _firstName, string memory _lastName, string memory _collegeName,string memory _programName, uint256 _yearOfStudy, string memory _regNo, string memory _blockNumber, string memory _gender) public onlyAdmin{\n//         require(!isInitiated, \"Voting process already started\");\n//         // require(!candidateGovernor[_regNo].isRegistered, \"You have already registered this Governor.\");\n//         require(!isRegistered[_regNo], \"candidate is already registered!\");\n//         require(_yearOfStudy > 0 && _yearOfStudy < 5, \"Invalid year of Study\");\n//         Candidate memory newCandidate = Candidate({firstName: _firstName, lastName: _lastName, collegeName: _collegeName,programName: _programName, yearOfStudy: _yearOfStudy, \n//         regNo: _regNo, blockNumber: _blockNumber,gender: _gender, isWinner: false, voteCount: 0,position: \"GOVERNOR\"\n//         });\n//         isRegistered[_regNo]= true;\n//         candidateGovernor[_regNo] = newCandidate;\n//         // candidateGovernorCnms[_regNo] = newCandidate;\n//         governorList.push(_regNo);\n//         numberOfGovernor++;\n        \n\n//         // emit NewGovernorRegistered(_firstName, _collegeName, _programName, _yearOfStudy, _regNo, _blockNumber, _gender);      \n//     }\n\n//     function registerBlockLeader(string memory _firstName, string memory _lastName, string memory _collegeName,string memory _programName, uint256 _yearOfStudy, string memory _regNo, string memory _blockNumber, string memory _gender) public onlyAdmin{\n//         require(!isInitiated, \"Voting process already started\");     \n//         // require(!candidateBlockLeader[_regNo].isRegistered, \"You have already registered this blockLeader.\");\n//         // require(numberOfPresident < 2, \"The registered BlockLeader is enough!\");\n//         require(!isRegistered[_regNo], \"candidate is already registered!\");\n//         Candidate memory newCandidate = Candidate({\n//             firstName: _firstName,\n//             lastName: _lastName,       \n//             collegeName: _collegeName,\n//             programName: _programName,\n//             yearOfStudy: _yearOfStudy, \n//             regNo: _regNo, \n//             blockNumber: _blockNumber,\n//             gender: _gender, \n//             isWinner: false, \n//             voteCount: 0,\n//             position: \"BLOCK LEADER\"\n//         });\n//         isRegistered[_regNo] = true;\n//         candidateBlockLeader[_regNo] = newCandidate;\n//         blockLeaderList.push(_regNo);\n        \n\n//         // emit NewBlockLeaderRegistered(_firstName, _collegeName, _programName, _yearOfStudy, _regNo, _blockNumber, _gender);\n//     }\n\n    \n\n//     //return the registration number for the candidates for each position\n//     function getPresidentRegNumber() public view returns (string[] memory){\n//         return presidentList;\n//     }\n\n\n//     //Admin view candidates for a specific position of vote\n\n//     function viewPresident(string memory _regNo) public view returns(string memory firstName,string memory lastName, \n//         string memory collegeName, string memory programName, uint256 yearOfStudy, string memory regNo, string memory blockNumber, string memory gender,uint256 voteCount){\n//         Candidate memory candidatePres = candidatePresident[_regNo];\n//         firstName = candidatePres.firstName;\n//         lastName = candidatePres.lastName;\n//         collegeName = candidatePres.collegeName;\n//         programName = candidatePres.programName;\n//         yearOfStudy = candidatePres.yearOfStudy;\n//         regNo = candidatePres.regNo;\n//         blockNumber = candidatePres.blockNumber;\n//         gender = candidatePres.gender;\n//         voteCount = candidatePres.voteCount;\n//     }\n\n//     //return the registration number for the candidates for each position\n\n//     function getGovernorRegNumber() public view returns (string[] memory){\n//         return governorList;\n//     }\n    \n//     function adminViewGovernors(string memory _regNo) public view returns(string memory firstName,string memory lastName, \n//         string memory collegeName, string memory programName, uint256 yearOfStudy, string memory regNo, string memory blockNumber, string memory gender,uint256 voteCount){\n//         Candidate memory candidateGov = candidateGovernor[_regNo];\n//         firstName = candidateGov.firstName;\n//         lastName = candidateGov.lastName;\n//         collegeName = candidateGov.collegeName;\n//         programName = candidateGov.programName;\n//         yearOfStudy = candidateGov.yearOfStudy;\n//         regNo = candidateGov.regNo;\n//         blockNumber = candidateGov.blockNumber;\n//         gender = candidateGov.gender;\n//         voteCount = candidateGov.voteCount;\n//     }\n\n//     function getBlockLeaderRegNumber() public view returns (string[] memory){\n//         return blockLeaderList;\n//     }\n\n//     //Admin view candidates for a specific position of vote\n\n//     function adminViewBlockLeaders(string memory _regNo) public view returns(string memory firstName,string memory lastName, \n//         string memory collegeName, string memory programName, uint256 yearOfStudy, string memory regNo, string memory blockNumber, string memory gender,uint256 voteCount){\n//         Candidate memory candidateBL = candidateBlockLeader[_regNo];\n//         firstName = candidateBL.firstName;\n//         lastName = candidateBL.lastName;\n//         collegeName = candidateBL.collegeName;\n//         programName = candidateBL.programName;\n//         yearOfStudy = candidateBL.yearOfStudy;\n//         regNo = candidateBL.regNo;\n//         blockNumber = candidateBL.blockNumber;\n//         gender = candidateBL.gender;\n//         voteCount = candidateBL.voteCount;\n//     }\n\n//     function castVotePresident( string memory _presidentRegNo, address _candidateContractAddress) public {\n//         VoterContract vc = VoterContract(_candidateContractAddress);\n//         require(vc.getVoter(msg.sender).isRegistered, \"Voter is not registered\");\n//         // require(!voters[msg.sender].voted, \"You have already voted for President!!!\");\n//         require(isRegistered[_presidentRegNo], \"Invalid candidate\");\n//         require(!presidentVoted[msg.sender], \"Already voted for President position\");\n//         presidentVoted[msg.sender] = true;\n\n//         Candidate storage candidate = candidatePresident[_presidentRegNo];\n//         candidate.voteCount++;\n//         totalVotes++;\n\n//         // emit VoteCast(candidate.voteCount, candidate.regNo);\n//     }\n//     function castVoteGovernor( string memory _governorRegNo, address _candidateContractAddress ) public {\n//         VoterContract vc = VoterContract(_candidateContractAddress);\n//         require(vc.getVoter(msg.sender).isRegistered, \"Voter is not registered\");\n//         require(isRegistered[_governorRegNo], \"Invalid candidate\");\n//         // require(keccak256(bytes(voters[msg.sender].collegeName)) == keccak256(bytes(candidateGovernor[_governorRegNo].collegeName)), \"Your Not valid voter\");    \n//         require(!governorVoted[msg.sender], \"You have already voted for Governor!!!\");\n//         governorVoted[msg.sender] = true; \n        \n//         Candidate storage candidate = candidateGovernor[_governorRegNo];\n//         candidate.voteCount++;\n//         totalVotes++;\n\n//         // emit VoteCast(candidate.voteCount, candidate.regNo);\n//     }\n\n//     function castVoteBlockLeader( string memory _blockLeaderRegNo, address _candidateContractAddress ) public {\n//         VoterContract vc = VoterContract(_candidateContractAddress);\n//         require(vc.getVoter(msg.sender).isRegistered, \"Voter is not registered\");    \n//         require(isRegistered[_blockLeaderRegNo], \"Invalid candidate\");\n//         // require(keccak256(bytes(voters[msg.sender].collegeName)) == keccak256(bytes(candidateBlockLeader[_blockLeaderRegNo].collegeName)), \"Your Not member of a valid college\");    \n//         // require(keccak256(bytes(voters[msg.sender].blockNumber)) == keccak256(bytes(candidateBlockLeader[_blockLeaderRegNo].blockNumber)), \"Your Not member of a valid block\");  \n//         require(!blockLeaderVoted[msg.sender], \"Already cast vote for BlockLeader position\");\n//         blockLeaderVoted[msg.sender] = true;\n        \n//         Candidate storage candidate = candidateBlockLeader[_blockLeaderRegNo];\n//         candidate.voteCount++;\n//         totalVotes++;\n\n//         // emit VoteCast(candidate.voteCount, candidate.regNo);\n//     }\n\n//     function getWinnerPresident() public view returns ( string memory, string memory, string memory, string memory, uint256){\n//         uint256 winningPresidentVoteCount = 0;\n//         uint256 winningPresidentIndex = 0;\n//         for (uint256 i = 0; i < presidentList.length; i++) {\n//             if (candidatePresident[presidentList[i]].voteCount > winningPresidentVoteCount) {\n//                 winningPresidentVoteCount = candidatePresident[presidentList[i]].voteCount;\n//                 winningPresidentIndex = i;\n//             }\n//         }\n//         Candidate memory winner = candidatePresident[presidentList[winningPresidentIndex]];\n//         // emit getTheWinner(winner.firstName, winner.regNo, winner.collegeName, winner.programName, winner.voteCount);\n//         return (winner.firstName, winner.lastName, winner.collegeName, winner.position, winner.voteCount);\n//     }\n\n//     function getWinnerGovernor() public view returns (string memory, string memory, string memory, string memory, uint256){  \n//         uint256 winningGovernorVoteCount = 0;\n//         uint256 winningGovernorIndex = 0;    \n//         for (uint256 i = 0; i < governorList.length; i++) {\n//             if (candidateGovernor[governorList[i]].voteCount > winningGovernorVoteCount) {\n//                 winningGovernorVoteCount = candidateGovernor[governorList[i]].voteCount;\n//                 winningGovernorIndex = i;\n//             }\n//         }\n//         Candidate memory winner = candidateGovernor[governorList[winningGovernorIndex]];\n//         // emit getTheWinner(winner.firstName, winner.collegeName, winner.programName, winner.voteCount);\n//         return (winner.firstName, winner.lastName, winner.collegeName, winner.position, winner.voteCount);\n//     }\n\n//     function getWinnerBlockLeader() public view returns (string memory, string memory, string memory, string memory, uint256){  \n//         uint256 winningBlockLeaderVoteCount = 0;\n//         uint256 winningBlockLeaderIndex = 0;    \n//         for (uint256 i = 0; i < blockLeaderList.length; i++) {\n//             if (candidateBlockLeader[blockLeaderList[i]].voteCount > winningBlockLeaderVoteCount) {\n//                 winningBlockLeaderVoteCount = candidateBlockLeader[blockLeaderList[i]].voteCount;\n//                 winningBlockLeaderIndex = i;\n//             }\n//         }\n//         Candidate memory winner = candidateBlockLeader[blockLeaderList[winningBlockLeaderIndex]];\n//         // emit getTheWinner(winner.firstName, winner.regNo, winner.collegeName, winner.programName, winner.voteCount);\n//        return (winner.firstName, winner.lastName, winner.collegeName, winner.position, winner.voteCount);\n//     }\n// }",
  "sourcePath": "/home/temba/Documents/SmartContract/client/contracts/example.sol",
  "compiler": {
    "name": "solc",
    "version": "0.8.19+commit.7dd6d404.Emscripten.clang"
  },
  "schemaVersion": "3.4.14",
  "updatedAt": "2023-06-21T09:53:10.565Z",
  "devdoc": {
    "kind": "dev",
    "methods": {},
    "version": 1
  },
  "userdoc": {
    "kind": "user",
    "methods": {},
    "version": 1
  }
}