{
  "contractName": "TimeControl",
  "abi": [
    {
      "inputs": [],
      "name": "admin",
      "outputs": [
        {
          "internalType": "address",
          "name": "",
          "type": "address"
        }
      ],
      "stateMutability": "view",
      "type": "function",
      "constant": true
    },
    {
      "inputs": [],
      "name": "isInitiated",
      "outputs": [
        {
          "internalType": "bool",
          "name": "",
          "type": "bool"
        }
      ],
      "stateMutability": "view",
      "type": "function",
      "constant": true
    },
    {
      "inputs": [
        {
          "internalType": "address",
          "name": "newAdmin",
          "type": "address"
        }
      ],
      "name": "transferAdmin",
      "outputs": [],
      "stateMutability": "nonpayable",
      "type": "function"
    },
    {
      "inputs": [
        {
          "internalType": "uint256",
          "name": "_startTime",
          "type": "uint256"
        },
        {
          "internalType": "uint256",
          "name": "_endTime",
          "type": "uint256"
        }
      ],
      "name": "setVotingPeriod",
      "outputs": [],
      "stateMutability": "nonpayable",
      "type": "function"
    },
    {
      "inputs": [],
      "name": "getTime",
      "outputs": [
        {
          "internalType": "uint256",
          "name": "startTime",
          "type": "uint256"
        },
        {
          "internalType": "uint256",
          "name": "endTime",
          "type": "uint256"
        }
      ],
      "stateMutability": "view",
      "type": "function",
      "constant": true
    },
    {
      "inputs": [],
      "name": "getRemainingTime",
      "outputs": [
        {
          "internalType": "uint256",
          "name": "",
          "type": "uint256"
        }
      ],
      "stateMutability": "view",
      "type": "function",
      "constant": true
    }
  ],
  "bytecode": "0x608060405234801561001057600080fd5b50336000806101000a81548173ffffffffffffffffffffffffffffffffffffffff021916908373ffffffffffffffffffffffffffffffffffffffff1602179055506108cf806100606000396000f3fe608060405234801561001057600080fd5b50600436106100625760003560e01c80631cb5991414610067578063557ed1ba1461008557806375829def146100a4578063a15a36c7146100c0578063efb98bcf146100dc578063f851a440146100fa575b600080fd5b61006f610118565b60405161007c9190610481565b60405180910390f35b61008d61012b565b60405161009b9291906104b5565b60405180910390f35b6100be60048036038101906100b99190610541565b6101c0565b005b6100da60048036038101906100d5919061059a565b610291565b005b6100e46103d4565b6040516100f191906105da565b60405180910390f35b610102610442565b60405161010f9190610604565b60405180910390f35b600460009054906101000a900460ff1681565b60008060008054906101000a900473ffffffffffffffffffffffffffffffffffffffff1673ffffffffffffffffffffffffffffffffffffffff163373ffffffffffffffffffffffffffffffffffffffff16146101bc576040517f08c379a00000000000000000000000000000000000000000000000000000000081526004016101b3906106a2565b60405180910390fd5b9091565b60008054906101000a900473ffffffffffffffffffffffffffffffffffffffff1673ffffffffffffffffffffffffffffffffffffffff163373ffffffffffffffffffffffffffffffffffffffff161461024e576040517f08c379a0000000000000000000000000000000000000000000000000000000008152600401610245906106a2565b60405180910390fd5b806000806101000a81548173ffffffffffffffffffffffffffffffffffffffff021916908373ffffffffffffffffffffffffffffffffffffffff16021790555050565b60008054906101000a900473ffffffffffffffffffffffffffffffffffffffff1673ffffffffffffffffffffffffffffffffffffffff163373ffffffffffffffffffffffffffffffffffffffff161461031f576040517f08c379a0000000000000000000000000000000000000000000000000000000008152600401610316906106a2565b60405180910390fd5b818111610361576040517f08c379a00000000000000000000000000000000000000000000000000000000081526004016103589061070e565b60405180910390fd5b6000828261036f919061075d565b90506001600460006101000a81548160ff0219169083151502179055506001836103999190610791565b426103a491906107d3565b6001819055506001826103b79190610791565b426103c291906107d3565b60028190555080600381905550505050565b600060015442101561041b576040517f08c379a000000000000000000000000000000000000000000000000000000000815260040161041290610879565b60405180910390fd5b60025442101561043a5742600254610433919061075d565b905061043f565b600090505b90565b60008054906101000a900473ffffffffffffffffffffffffffffffffffffffff1681565b60008115159050919050565b61047b81610466565b82525050565b60006020820190506104966000830184610472565b92915050565b6000819050919050565b6104af8161049c565b82525050565b60006040820190506104ca60008301856104a6565b6104d760208301846104a6565b9392505050565b600080fd5b600073ffffffffffffffffffffffffffffffffffffffff82169050919050565b600061050e826104e3565b9050919050565b61051e81610503565b811461052957600080fd5b50565b60008135905061053b81610515565b92915050565b600060208284031215610557576105566104de565b5b60006105658482850161052c565b91505092915050565b6105778161049c565b811461058257600080fd5b50565b6000813590506105948161056e565b92915050565b600080604083850312156105b1576105b06104de565b5b60006105bf85828601610585565b92505060206105d085828601610585565b9150509250929050565b60006020820190506105ef60008301846104a6565b92915050565b6105fe81610503565b82525050565b600060208201905061061960008301846105f5565b92915050565b600082825260208201905092915050565b7f4f6e6c792061646d696e2063616e20706572666f726d2074686973206163746960008201527f6f6e000000000000000000000000000000000000000000000000000000000000602082015250565b600061068c60228361061f565b915061069782610630565b604082019050919050565b600060208201905081810360008301526106bb8161067f565b9050919050565b7f496e76616c696420766f74696e6720706572696f640000000000000000000000600082015250565b60006106f860158361061f565b9150610703826106c2565b602082019050919050565b60006020820190508181036000830152610727816106eb565b9050919050565b7f4e487b7100000000000000000000000000000000000000000000000000000000600052601160045260246000fd5b60006107688261049c565b91506107738361049c565b925082820390508181111561078b5761078a61072e565b5b92915050565b600061079c8261049c565b91506107a78361049c565b92508282026107b58161049c565b915082820484148315176107cc576107cb61072e565b5b5092915050565b60006107de8261049c565b91506107e98361049c565b92508282019050808211156108015761080061072e565b5b92915050565b7f766f74696e6720686173206e6f742073746172746564207965742121212c205060008201527f6c65617365207761697400000000000000000000000000000000000000000000602082015250565b6000610863602a8361061f565b915061086e82610807565b604082019050919050565b6000602082019050818103600083015261089281610856565b905091905056fea264697066735822122008344ea75a3df81f541ad444863761fbae6084b50ad7c632d01a1ae5952fcc2264736f6c63430008130033",
  "immutableReferences": {},
  "source": "//SPDX-License-Identifier: MIT\npragma solidity ^0.8.0;\nimport \"./AccessControl.sol\";\nimport \"./TimeStructure.sol\";\n\ncontract TimeControl is AccessControl, TimeStructure{\n\n    function setVotingPeriod(uint256 _startTime, uint256 _endTime) public onlyAdmin {\n        require(_endTime > _startTime, \"Invalid voting period\");\n        // require(isInitiated == false, \"The voting time is already initiated\");\n        uint256 _remainingTime = _endTime - _startTime;\n        // oTime.push(_startTime);\n        // oTime.push(_endTime);\n        isInitiated = true;\n        startTime = block.timestamp + (_startTime  * 1 seconds );\n        endTime = block.timestamp + (_endTime * 1 seconds );\n        remainingTime = _remainingTime;      \n    }\n\n    function getTime() public view onlyAdmin returns(uint256 startTime, uint256 endTime) {\n        // Time memory time = times[msg.sender];\n        startTime = startTime;\n        endTime = endTime;\n        // remainingTime = time.remainingTime;\n    }\n\n    // function getTime() public view returns(uint256[] memory){\n    //     return oTime;\n    // }\n\n    function getRemainingTime() public view returns(uint256)  {\n        require(block.timestamp >= startTime, \"voting has not started yet!!!, Please wait\");\n        if(block.timestamp < endTime){\n            return(endTime - block.timestamp);\n        }else{\n            return 0;\n        }\n    }\n}",
  "sourcePath": "/home/temba/Documents/SmartContract/client/contracts/TimeControl.sol",
  "compiler": {
    "name": "solc",
    "version": "0.8.19+commit.7dd6d404.Emscripten.clang"
  },
  "schemaVersion": "3.4.14",
  "updatedAt": "2023-06-21T10:05:41.686Z",
  "networkType": "ethereum",
  "devdoc": {
    "kind": "dev",
    "methods": {},
    "version": 1
  },
  "userdoc": {
    "kind": "user",
    "methods": {},
    "version": 1
  }
}