{
  "contractName": "ViewCandidates",
  "abi": [
    {
      "inputs": [],
      "name": "admin",
      "outputs": [
        {
          "internalType": "address",
          "name": "",
          "type": "address"
        }
      ],
      "stateMutability": "view",
      "type": "function",
      "constant": true
    },
    {
      "inputs": [
        {
          "internalType": "uint256",
          "name": "",
          "type": "uint256"
        }
      ],
      "name": "blockLeaderList",
      "outputs": [
        {
          "internalType": "string",
          "name": "",
          "type": "string"
        }
      ],
      "stateMutability": "view",
      "type": "function",
      "constant": true
    },
    {
      "inputs": [
        {
          "internalType": "string",
          "name": "",
          "type": "string"
        }
      ],
      "name": "candidateBlockLeader",
      "outputs": [
        {
          "internalType": "string",
          "name": "firstName",
          "type": "string"
        },
        {
          "internalType": "string",
          "name": "lastName",
          "type": "string"
        },
        {
          "internalType": "string",
          "name": "collegeName",
          "type": "string"
        },
        {
          "internalType": "string",
          "name": "programName",
          "type": "string"
        },
        {
          "internalType": "uint256",
          "name": "yearOfStudy",
          "type": "uint256"
        },
        {
          "internalType": "string",
          "name": "regNo",
          "type": "string"
        },
        {
          "internalType": "string",
          "name": "blockNumber",
          "type": "string"
        },
        {
          "internalType": "string",
          "name": "gender",
          "type": "string"
        },
        {
          "internalType": "bool",
          "name": "isWinner",
          "type": "bool"
        },
        {
          "internalType": "bool",
          "name": "isRegistered",
          "type": "bool"
        },
        {
          "internalType": "uint256",
          "name": "voteCount",
          "type": "uint256"
        }
      ],
      "stateMutability": "view",
      "type": "function",
      "constant": true
    },
    {
      "inputs": [
        {
          "internalType": "string",
          "name": "",
          "type": "string"
        }
      ],
      "name": "candidateGovernor",
      "outputs": [
        {
          "internalType": "string",
          "name": "firstName",
          "type": "string"
        },
        {
          "internalType": "string",
          "name": "lastName",
          "type": "string"
        },
        {
          "internalType": "string",
          "name": "collegeName",
          "type": "string"
        },
        {
          "internalType": "string",
          "name": "programName",
          "type": "string"
        },
        {
          "internalType": "uint256",
          "name": "yearOfStudy",
          "type": "uint256"
        },
        {
          "internalType": "string",
          "name": "regNo",
          "type": "string"
        },
        {
          "internalType": "string",
          "name": "blockNumber",
          "type": "string"
        },
        {
          "internalType": "string",
          "name": "gender",
          "type": "string"
        },
        {
          "internalType": "bool",
          "name": "isWinner",
          "type": "bool"
        },
        {
          "internalType": "bool",
          "name": "isRegistered",
          "type": "bool"
        },
        {
          "internalType": "uint256",
          "name": "voteCount",
          "type": "uint256"
        }
      ],
      "stateMutability": "view",
      "type": "function",
      "constant": true
    },
    {
      "inputs": [
        {
          "internalType": "string",
          "name": "",
          "type": "string"
        }
      ],
      "name": "candidatePresident",
      "outputs": [
        {
          "internalType": "string",
          "name": "firstName",
          "type": "string"
        },
        {
          "internalType": "string",
          "name": "lastName",
          "type": "string"
        },
        {
          "internalType": "string",
          "name": "collegeName",
          "type": "string"
        },
        {
          "internalType": "string",
          "name": "programName",
          "type": "string"
        },
        {
          "internalType": "uint256",
          "name": "yearOfStudy",
          "type": "uint256"
        },
        {
          "internalType": "string",
          "name": "regNo",
          "type": "string"
        },
        {
          "internalType": "string",
          "name": "blockNumber",
          "type": "string"
        },
        {
          "internalType": "string",
          "name": "gender",
          "type": "string"
        },
        {
          "internalType": "bool",
          "name": "isWinner",
          "type": "bool"
        },
        {
          "internalType": "bool",
          "name": "isRegistered",
          "type": "bool"
        },
        {
          "internalType": "uint256",
          "name": "voteCount",
          "type": "uint256"
        }
      ],
      "stateMutability": "view",
      "type": "function",
      "constant": true
    },
    {
      "inputs": [],
      "name": "getRemainingTime",
      "outputs": [
        {
          "internalType": "uint256",
          "name": "remainingTimee",
          "type": "uint256"
        }
      ],
      "stateMutability": "view",
      "type": "function",
      "constant": true
    },
    {
      "inputs": [],
      "name": "getTime",
      "outputs": [
        {
          "internalType": "uint256[]",
          "name": "",
          "type": "uint256[]"
        }
      ],
      "stateMutability": "view",
      "type": "function",
      "constant": true
    },
    {
      "inputs": [
        {
          "internalType": "uint256",
          "name": "",
          "type": "uint256"
        }
      ],
      "name": "governorList",
      "outputs": [
        {
          "internalType": "string",
          "name": "",
          "type": "string"
        }
      ],
      "stateMutability": "view",
      "type": "function",
      "constant": true
    },
    {
      "inputs": [],
      "name": "isInitiated",
      "outputs": [
        {
          "internalType": "bool",
          "name": "",
          "type": "bool"
        }
      ],
      "stateMutability": "view",
      "type": "function",
      "constant": true
    },
    {
      "inputs": [],
      "name": "numberOfBlockLeader",
      "outputs": [
        {
          "internalType": "uint256",
          "name": "",
          "type": "uint256"
        }
      ],
      "stateMutability": "view",
      "type": "function",
      "constant": true
    },
    {
      "inputs": [
        {
          "internalType": "uint256",
          "name": "",
          "type": "uint256"
        }
      ],
      "name": "numberOfGovernor",
      "outputs": [
        {
          "internalType": "uint256",
          "name": "",
          "type": "uint256"
        }
      ],
      "stateMutability": "view",
      "type": "function",
      "constant": true
    },
    {
      "inputs": [],
      "name": "numberOfPresident",
      "outputs": [
        {
          "internalType": "uint256",
          "name": "",
          "type": "uint256"
        }
      ],
      "stateMutability": "view",
      "type": "function",
      "constant": true
    },
    {
      "inputs": [
        {
          "internalType": "uint256",
          "name": "",
          "type": "uint256"
        }
      ],
      "name": "presidentList",
      "outputs": [
        {
          "internalType": "string",
          "name": "",
          "type": "string"
        }
      ],
      "stateMutability": "view",
      "type": "function",
      "constant": true
    },
    {
      "inputs": [
        {
          "internalType": "uint256",
          "name": "_startTime",
          "type": "uint256"
        },
        {
          "internalType": "uint256",
          "name": "_endTime",
          "type": "uint256"
        }
      ],
      "name": "setVotingPeriod",
      "outputs": [],
      "stateMutability": "nonpayable",
      "type": "function"
    },
    {
      "inputs": [
        {
          "internalType": "address",
          "name": "",
          "type": "address"
        }
      ],
      "name": "times",
      "outputs": [
        {
          "internalType": "uint256",
          "name": "startTime",
          "type": "uint256"
        },
        {
          "internalType": "uint256",
          "name": "endTime",
          "type": "uint256"
        },
        {
          "internalType": "uint256",
          "name": "remainingTime",
          "type": "uint256"
        }
      ],
      "stateMutability": "view",
      "type": "function",
      "constant": true
    },
    {
      "inputs": [
        {
          "internalType": "address",
          "name": "newAdmin",
          "type": "address"
        }
      ],
      "name": "transferAdmin",
      "outputs": [],
      "stateMutability": "nonpayable",
      "type": "function"
    },
    {
      "inputs": [],
      "name": "viewPresident",
      "outputs": [
        {
          "components": [
            {
              "internalType": "string",
              "name": "firstName",
              "type": "string"
            },
            {
              "internalType": "string",
              "name": "lastName",
              "type": "string"
            },
            {
              "internalType": "string",
              "name": "collegeName",
              "type": "string"
            },
            {
              "internalType": "string",
              "name": "programName",
              "type": "string"
            },
            {
              "internalType": "uint256",
              "name": "yearOfStudy",
              "type": "uint256"
            },
            {
              "internalType": "string",
              "name": "regNo",
              "type": "string"
            },
            {
              "internalType": "string",
              "name": "blockNumber",
              "type": "string"
            },
            {
              "internalType": "string",
              "name": "gender",
              "type": "string"
            },
            {
              "internalType": "bool",
              "name": "isWinner",
              "type": "bool"
            },
            {
              "internalType": "bool",
              "name": "isRegistered",
              "type": "bool"
            },
            {
              "internalType": "uint256",
              "name": "voteCount",
              "type": "uint256"
            }
          ],
          "internalType": "struct CandidateStructure.Candidate[]",
          "name": "",
          "type": "tuple[]"
        }
      ],
      "stateMutability": "view",
      "type": "function",
      "constant": true
    },
    {
      "inputs": [
        {
          "internalType": "string",
          "name": "_collegeName",
          "type": "string"
        }
      ],
      "name": "viewGovernors",
      "outputs": [
        {
          "components": [
            {
              "internalType": "string",
              "name": "firstName",
              "type": "string"
            },
            {
              "internalType": "string",
              "name": "lastName",
              "type": "string"
            },
            {
              "internalType": "string",
              "name": "collegeName",
              "type": "string"
            },
            {
              "internalType": "string",
              "name": "programName",
              "type": "string"
            },
            {
              "internalType": "uint256",
              "name": "yearOfStudy",
              "type": "uint256"
            },
            {
              "internalType": "string",
              "name": "regNo",
              "type": "string"
            },
            {
              "internalType": "string",
              "name": "blockNumber",
              "type": "string"
            },
            {
              "internalType": "string",
              "name": "gender",
              "type": "string"
            },
            {
              "internalType": "bool",
              "name": "isWinner",
              "type": "bool"
            },
            {
              "internalType": "bool",
              "name": "isRegistered",
              "type": "bool"
            },
            {
              "internalType": "uint256",
              "name": "voteCount",
              "type": "uint256"
            }
          ],
          "internalType": "struct CandidateStructure.Candidate[]",
          "name": "",
          "type": "tuple[]"
        }
      ],
      "stateMutability": "view",
      "type": "function",
      "constant": true
    },
    {
      "inputs": [
        {
          "internalType": "string",
          "name": "_collegeName",
          "type": "string"
        },
        {
          "internalType": "string",
          "name": "_blockNumber",
          "type": "string"
        }
      ],
      "name": "viewBlockLeader",
      "outputs": [
        {
          "components": [
            {
              "internalType": "string",
              "name": "firstName",
              "type": "string"
            },
            {
              "internalType": "string",
              "name": "lastName",
              "type": "string"
            },
            {
              "internalType": "string",
              "name": "collegeName",
              "type": "string"
            },
            {
              "internalType": "string",
              "name": "programName",
              "type": "string"
            },
            {
              "internalType": "uint256",
              "name": "yearOfStudy",
              "type": "uint256"
            },
            {
              "internalType": "string",
              "name": "regNo",
              "type": "string"
            },
            {
              "internalType": "string",
              "name": "blockNumber",
              "type": "string"
            },
            {
              "internalType": "string",
              "name": "gender",
              "type": "string"
            },
            {
              "internalType": "bool",
              "name": "isWinner",
              "type": "bool"
            },
            {
              "internalType": "bool",
              "name": "isRegistered",
              "type": "bool"
            },
            {
              "internalType": "uint256",
              "name": "voteCount",
              "type": "uint256"
            }
          ],
          "internalType": "struct CandidateStructure.Candidate[]",
          "name": "",
          "type": "tuple[]"
        }
      ],
      "stateMutability": "view",
      "type": "function",
      "constant": true
    },
    {
      "inputs": [],
      "name": "adminViewPresident",
      "outputs": [
        {
          "components": [
            {
              "internalType": "string",
              "name": "firstName",
              "type": "string"
            },
            {
              "internalType": "string",
              "name": "lastName",
              "type": "string"
            },
            {
              "internalType": "string",
              "name": "collegeName",
              "type": "string"
            },
            {
              "internalType": "string",
              "name": "programName",
              "type": "string"
            },
            {
              "internalType": "uint256",
              "name": "yearOfStudy",
              "type": "uint256"
            },
            {
              "internalType": "string",
              "name": "regNo",
              "type": "string"
            },
            {
              "internalType": "string",
              "name": "blockNumber",
              "type": "string"
            },
            {
              "internalType": "string",
              "name": "gender",
              "type": "string"
            },
            {
              "internalType": "bool",
              "name": "isWinner",
              "type": "bool"
            },
            {
              "internalType": "bool",
              "name": "isRegistered",
              "type": "bool"
            },
            {
              "internalType": "uint256",
              "name": "voteCount",
              "type": "uint256"
            }
          ],
          "internalType": "struct CandidateStructure.Candidate[]",
          "name": "",
          "type": "tuple[]"
        }
      ],
      "stateMutability": "view",
      "type": "function",
      "constant": true
    },
    {
      "inputs": [],
      "name": "adminViewGovernors",
      "outputs": [
        {
          "components": [
            {
              "internalType": "string",
              "name": "firstName",
              "type": "string"
            },
            {
              "internalType": "string",
              "name": "lastName",
              "type": "string"
            },
            {
              "internalType": "string",
              "name": "collegeName",
              "type": "string"
            },
            {
              "internalType": "string",
              "name": "programName",
              "type": "string"
            },
            {
              "internalType": "uint256",
              "name": "yearOfStudy",
              "type": "uint256"
            },
            {
              "internalType": "string",
              "name": "regNo",
              "type": "string"
            },
            {
              "internalType": "string",
              "name": "blockNumber",
              "type": "string"
            },
            {
              "internalType": "string",
              "name": "gender",
              "type": "string"
            },
            {
              "internalType": "bool",
              "name": "isWinner",
              "type": "bool"
            },
            {
              "internalType": "bool",
              "name": "isRegistered",
              "type": "bool"
            },
            {
              "internalType": "uint256",
              "name": "voteCount",
              "type": "uint256"
            }
          ],
          "internalType": "struct CandidateStructure.Candidate[]",
          "name": "",
          "type": "tuple[]"
        }
      ],
      "stateMutability": "view",
      "type": "function",
      "constant": true
    },
    {
      "inputs": [],
      "name": "adminViewBlockLeader",
      "outputs": [
        {
          "components": [
            {
              "internalType": "string",
              "name": "firstName",
              "type": "string"
            },
            {
              "internalType": "string",
              "name": "lastName",
              "type": "string"
            },
            {
              "internalType": "string",
              "name": "collegeName",
              "type": "string"
            },
            {
              "internalType": "string",
              "name": "programName",
              "type": "string"
            },
            {
              "internalType": "uint256",
              "name": "yearOfStudy",
              "type": "uint256"
            },
            {
              "internalType": "string",
              "name": "regNo",
              "type": "string"
            },
            {
              "internalType": "string",
              "name": "blockNumber",
              "type": "string"
            },
            {
              "internalType": "string",
              "name": "gender",
              "type": "string"
            },
            {
              "internalType": "bool",
              "name": "isWinner",
              "type": "bool"
            },
            {
              "internalType": "bool",
              "name": "isRegistered",
              "type": "bool"
            },
            {
              "internalType": "uint256",
              "name": "voteCount",
              "type": "uint256"
            }
          ],
          "internalType": "struct CandidateStructure.Candidate[]",
          "name": "",
          "type": "tuple[]"
        }
      ],
      "stateMutability": "view",
      "type": "function",
      "constant": true
    }
  ],
  "bytecode": "0x608060405234801561001057600080fd5b5033600f60006101000a81548173ffffffffffffffffffffffffffffffffffffffff021916908373ffffffffffffffffffffffffffffffffffffffff160217905550614c35806100616000396000f3fe608060405234801561001057600080fd5b50600436106101425760003560e01c806375829def116100b8578063e316db4e1161007c578063e316db4e146103b7578063e6b52a33146103e7578063efb98bcf14610417578063f644502614610435578063f6ffc1171461046f578063f851a4401461048d57610142565b806375829def146102ff578063a15a36c71461031b578063a279130214610337578063ce7992f914610367578063dccea1891461039957610142565b80631cb599141161010a5780631cb5991414610239578063454a0af11461025757806345a8a2be146102755780634c4c3bd9146102a5578063557ed1ba146102c35780635e1f2848146102e157610142565b806302aac7b21461014757806305420c751461017757806313769eb1146101a7578063166b4722146101c55780631ac45f52146101ff575b600080fd5b610161600480360381019061015c9190613dfa565b6104ab565b60405161016e9190613eb7565b60405180910390f35b610191600480360381019061018c919061400e565b610557565b60405161019e91906142d5565b60405180910390f35b6101af610c61565b6040516101bc91906142d5565b60405180910390f35b6101df60048036038101906101da91906142f7565b611228565b6040516101f69b9a9998979695949392919061435e565b60405180910390f35b610219600480360381019061021491906142f7565b61166a565b6040516102309b9a9998979695949392919061435e565b60405180910390f35b610241611aac565b60405161024e919061443a565b60405180910390f35b61025f611abf565b60405161026c91906142d5565b60405180910390f35b61028f600480360381019061028a9190613dfa565b612086565b60405161029c9190613eb7565b60405180910390f35b6102ad612132565b6040516102ba91906142d5565b60405180910390f35b6102cb6126f9565b6040516102d89190614504565b60405180910390f35b6102e9612751565b6040516102f691906142d5565b60405180910390f35b61031960048036038101906103149190614584565b612c88565b005b610335600480360381019061033091906145b1565b612d5c565b005b610351600480360381019061034c91906142f7565b612f97565b60405161035e91906142d5565b60405180910390f35b610381600480360381019061037c9190614584565b613708565b604051610390939291906145f1565b60405180910390f35b6103a1613732565b6040516103ae9190614628565b60405180910390f35b6103d160048036038101906103cc9190613dfa565b613738565b6040516103de9190613eb7565b60405180910390f35b61040160048036038101906103fc9190613dfa565b6137e4565b60405161040e9190614628565b60405180910390f35b61041f6137ff565b60405161042c9190614628565b60405180910390f35b61044f600480360381019061044a91906142f7565b6138e4565b6040516104669b9a9998979695949392919061435e565b60405180910390f35b610477613d26565b6040516104849190614628565b60405180910390f35b610495613d2c565b6040516104a29190614652565b60405180910390f35b600481815481106104bb57600080fd5b9060005260206000200160009150905080546104d69061469c565b80601f01602080910402602001604051908101604052809291908181526020018280546105029061469c565b801561054f5780601f106105245761010080835404028352916020019161054f565b820191906000526020600020905b81548152906001019060200180831161053257829003601f168201915b505050505081565b6060601060003373ffffffffffffffffffffffffffffffffffffffff1673ffffffffffffffffffffffffffffffffffffffff168152602001908152602001600020600001544210156105de576040517f08c379a00000000000000000000000000000000000000000000000000000000081526004016105d590614719565b60405180910390fd5b601060003373ffffffffffffffffffffffffffffffffffffffff1673ffffffffffffffffffffffffffffffffffffffff16815260200190815260200160002060010154421115610663576040517f08c379a000000000000000000000000000000000000000000000000000000000815260040161065a90614785565b60405180910390fd5b600060058054905067ffffffffffffffff81111561068457610683613ee3565b5b6040519080825280602002602001820160405280156106bd57816020015b6106aa613d52565b8152602001906001900390816106a25790505b50905060005b600580549050811015610c565784805190602001206002600583815481106106ee576106ed6147a5565b5b906000526020600020016040516107059190614877565b90815260200160405180910390206002016040516107239190614931565b604051809103902014801561079057508380519060200120600260058381548110610751576107506147a5565b5b906000526020600020016040516107689190614877565b90815260200160405180910390206006016040516107869190614931565b6040518091039020145b15610c43576001600582815481106107ab576107aa6147a5565b5b906000526020600020016040516107c29190614877565b9081526020016040518091039020604051806101600160405290816000820180546107ec9061469c565b80601f01602080910402602001604051908101604052809291908181526020018280546108189061469c565b80156108655780601f1061083a57610100808354040283529160200191610865565b820191906000526020600020905b81548152906001019060200180831161084857829003601f168201915b5050505050815260200160018201805461087e9061469c565b80601f01602080910402602001604051908101604052809291908181526020018280546108aa9061469c565b80156108f75780601f106108cc576101008083540402835291602001916108f7565b820191906000526020600020905b8154815290600101906020018083116108da57829003601f168201915b505050505081526020016002820180546109109061469c565b80601f016020809104026020016040519081016040528092919081815260200182805461093c9061469c565b80156109895780601f1061095e57610100808354040283529160200191610989565b820191906000526020600020905b81548152906001019060200180831161096c57829003601f168201915b505050505081526020016003820180546109a29061469c565b80601f01602080910402602001604051908101604052809291908181526020018280546109ce9061469c565b8015610a1b5780601f106109f057610100808354040283529160200191610a1b565b820191906000526020600020905b8154815290600101906020018083116109fe57829003601f168201915b5050505050815260200160048201548152602001600582018054610a3e9061469c565b80601f0160208091040260200160405190810160405280929190818152602001828054610a6a9061469c565b8015610ab75780601f10610a8c57610100808354040283529160200191610ab7565b820191906000526020600020905b815481529060010190602001808311610a9a57829003601f168201915b50505050508152602001600682018054610ad09061469c565b80601f0160208091040260200160405190810160405280929190818152602001828054610afc9061469c565b8015610b495780601f10610b1e57610100808354040283529160200191610b49565b820191906000526020600020905b815481529060010190602001808311610b2c57829003601f168201915b50505050508152602001600782018054610b629061469c565b80601f0160208091040260200160405190810160405280929190818152602001828054610b8e9061469c565b8015610bdb5780601f10610bb057610100808354040283529160200191610bdb565b820191906000526020600020905b815481529060010190602001808311610bbe57829003601f168201915b505050505081526020016008820160009054906101000a900460ff161515151581526020016008820160019054906101000a900460ff16151515158152602001600982015481525050828281518110610c3757610c366147a5565b5b60200260200101819052505b8080610c4e90614977565b9150506106c3565b508091505092915050565b6060600f60009054906101000a900473ffffffffffffffffffffffffffffffffffffffff1673ffffffffffffffffffffffffffffffffffffffff163373ffffffffffffffffffffffffffffffffffffffff1614610cf3576040517f08c379a0000000000000000000000000000000000000000000000000000000008152600401610cea90614a31565b60405180910390fd5b600060048054905067ffffffffffffffff811115610d1457610d13613ee3565b5b604051908082528060200260200182016040528015610d4d57816020015b610d3a613d52565b815260200190600190039081610d325790505b50905060005b60048054905081101561122057600160048281548110610d7657610d756147a5565b5b90600052602060002001604051610d8d9190614877565b908152602001604051809103902060405180610160016040529081600082018054610db79061469c565b80601f0160208091040260200160405190810160405280929190818152602001828054610de39061469c565b8015610e305780601f10610e0557610100808354040283529160200191610e30565b820191906000526020600020905b815481529060010190602001808311610e1357829003601f168201915b50505050508152602001600182018054610e499061469c565b80601f0160208091040260200160405190810160405280929190818152602001828054610e759061469c565b8015610ec25780601f10610e9757610100808354040283529160200191610ec2565b820191906000526020600020905b815481529060010190602001808311610ea557829003601f168201915b50505050508152602001600282018054610edb9061469c565b80601f0160208091040260200160405190810160405280929190818152602001828054610f079061469c565b8015610f545780601f10610f2957610100808354040283529160200191610f54565b820191906000526020600020905b815481529060010190602001808311610f3757829003601f168201915b50505050508152602001600382018054610f6d9061469c565b80601f0160208091040260200160405190810160405280929190818152602001828054610f999061469c565b8015610fe65780601f10610fbb57610100808354040283529160200191610fe6565b820191906000526020600020905b815481529060010190602001808311610fc957829003601f168201915b50505050508152602001600482015481526020016005820180546110099061469c565b80601f01602080910402602001604051908101604052809291908181526020018280546110359061469c565b80156110825780601f1061105757610100808354040283529160200191611082565b820191906000526020600020905b81548152906001019060200180831161106557829003601f168201915b5050505050815260200160068201805461109b9061469c565b80601f01602080910402602001604051908101604052809291908181526020018280546110c79061469c565b80156111145780601f106110e957610100808354040283529160200191611114565b820191906000526020600020905b8154815290600101906020018083116110f757829003601f168201915b5050505050815260200160078201805461112d9061469c565b80601f01602080910402602001604051908101604052809291908181526020018280546111599061469c565b80156111a65780601f1061117b576101008083540402835291602001916111a6565b820191906000526020600020905b81548152906001019060200180831161118957829003601f168201915b505050505081526020016008820160009054906101000a900460ff161515151581526020016008820160019054906101000a900460ff16151515158152602001600982015481525050828281518110611202576112016147a5565b5b6020026020010181905250808061121890614977565b915050610d53565b508091505090565b6000818051602081018201805184825260208301602085012081835280955050505050506000915090508060000180546112619061469c565b80601f016020809104026020016040519081016040528092919081815260200182805461128d9061469c565b80156112da5780601f106112af576101008083540402835291602001916112da565b820191906000526020600020905b8154815290600101906020018083116112bd57829003601f168201915b5050505050908060010180546112ef9061469c565b80601f016020809104026020016040519081016040528092919081815260200182805461131b9061469c565b80156113685780601f1061133d57610100808354040283529160200191611368565b820191906000526020600020905b81548152906001019060200180831161134b57829003601f168201915b50505050509080600201805461137d9061469c565b80601f01602080910402602001604051908101604052809291908181526020018280546113a99061469c565b80156113f65780601f106113cb576101008083540402835291602001916113f6565b820191906000526020600020905b8154815290600101906020018083116113d957829003601f168201915b50505050509080600301805461140b9061469c565b80601f01602080910402602001604051908101604052809291908181526020018280546114379061469c565b80156114845780601f1061145957610100808354040283529160200191611484565b820191906000526020600020905b81548152906001019060200180831161146757829003601f168201915b50505050509080600401549080600501805461149f9061469c565b80601f01602080910402602001604051908101604052809291908181526020018280546114cb9061469c565b80156115185780601f106114ed57610100808354040283529160200191611518565b820191906000526020600020905b8154815290600101906020018083116114fb57829003601f168201915b50505050509080600601805461152d9061469c565b80601f01602080910402602001604051908101604052809291908181526020018280546115599061469c565b80156115a65780601f1061157b576101008083540402835291602001916115a6565b820191906000526020600020905b81548152906001019060200180831161158957829003601f168201915b5050505050908060070180546115bb9061469c565b80601f01602080910402602001604051908101604052809291908181526020018280546115e79061469c565b80156116345780601f1061160957610100808354040283529160200191611634565b820191906000526020600020905b81548152906001019060200180831161161757829003601f168201915b5050505050908060080160009054906101000a900460ff16908060080160019054906101000a900460ff1690806009015490508b565b6002818051602081018201805184825260208301602085012081835280955050505050506000915090508060000180546116a39061469c565b80601f01602080910402602001604051908101604052809291908181526020018280546116cf9061469c565b801561171c5780601f106116f15761010080835404028352916020019161171c565b820191906000526020600020905b8154815290600101906020018083116116ff57829003601f168201915b5050505050908060010180546117319061469c565b80601f016020809104026020016040519081016040528092919081815260200182805461175d9061469c565b80156117aa5780601f1061177f576101008083540402835291602001916117aa565b820191906000526020600020905b81548152906001019060200180831161178d57829003601f168201915b5050505050908060020180546117bf9061469c565b80601f01602080910402602001604051908101604052809291908181526020018280546117eb9061469c565b80156118385780601f1061180d57610100808354040283529160200191611838565b820191906000526020600020905b81548152906001019060200180831161181b57829003601f168201915b50505050509080600301805461184d9061469c565b80601f01602080910402602001604051908101604052809291908181526020018280546118799061469c565b80156118c65780601f1061189b576101008083540402835291602001916118c6565b820191906000526020600020905b8154815290600101906020018083116118a957829003601f168201915b5050505050908060040154908060050180546118e19061469c565b80601f016020809104026020016040519081016040528092919081815260200182805461190d9061469c565b801561195a5780601f1061192f5761010080835404028352916020019161195a565b820191906000526020600020905b81548152906001019060200180831161193d57829003601f168201915b50505050509080600601805461196f9061469c565b80601f016020809104026020016040519081016040528092919081815260200182805461199b9061469c565b80156119e85780601f106119bd576101008083540402835291602001916119e8565b820191906000526020600020905b8154815290600101906020018083116119cb57829003601f168201915b5050505050908060070180546119fd9061469c565b80601f0160208091040260200160405190810160405280929190818152602001828054611a299061469c565b8015611a765780601f10611a4b57610100808354040283529160200191611a76565b820191906000526020600020905b815481529060010190602001808311611a5957829003601f168201915b5050505050908060080160009054906101000a900460ff16908060080160019054906101000a900460ff1690806009015490508b565b600f60149054906101000a900460ff1681565b6060600f60009054906101000a900473ffffffffffffffffffffffffffffffffffffffff1673ffffffffffffffffffffffffffffffffffffffff163373ffffffffffffffffffffffffffffffffffffffff1614611b51576040517f08c379a0000000000000000000000000000000000000000000000000000000008152600401611b4890614a31565b60405180910390fd5b600060038054905067ffffffffffffffff811115611b7257611b71613ee3565b5b604051908082528060200260200182016040528015611bab57816020015b611b98613d52565b815260200190600190039081611b905790505b50905060005b60038054905081101561207e57600060038281548110611bd457611bd36147a5565b5b90600052602060002001604051611beb9190614877565b908152602001604051809103902060405180610160016040529081600082018054611c159061469c565b80601f0160208091040260200160405190810160405280929190818152602001828054611c419061469c565b8015611c8e5780601f10611c6357610100808354040283529160200191611c8e565b820191906000526020600020905b815481529060010190602001808311611c7157829003601f168201915b50505050508152602001600182018054611ca79061469c565b80601f0160208091040260200160405190810160405280929190818152602001828054611cd39061469c565b8015611d205780601f10611cf557610100808354040283529160200191611d20565b820191906000526020600020905b815481529060010190602001808311611d0357829003601f168201915b50505050508152602001600282018054611d399061469c565b80601f0160208091040260200160405190810160405280929190818152602001828054611d659061469c565b8015611db25780601f10611d8757610100808354040283529160200191611db2565b820191906000526020600020905b815481529060010190602001808311611d9557829003601f168201915b50505050508152602001600382018054611dcb9061469c565b80601f0160208091040260200160405190810160405280929190818152602001828054611df79061469c565b8015611e445780601f10611e1957610100808354040283529160200191611e44565b820191906000526020600020905b815481529060010190602001808311611e2757829003601f168201915b5050505050815260200160048201548152602001600582018054611e679061469c565b80601f0160208091040260200160405190810160405280929190818152602001828054611e939061469c565b8015611ee05780601f10611eb557610100808354040283529160200191611ee0565b820191906000526020600020905b815481529060010190602001808311611ec357829003601f168201915b50505050508152602001600682018054611ef99061469c565b80601f0160208091040260200160405190810160405280929190818152602001828054611f259061469c565b8015611f725780601f10611f4757610100808354040283529160200191611f72565b820191906000526020600020905b815481529060010190602001808311611f5557829003601f168201915b50505050508152602001600782018054611f8b9061469c565b80601f0160208091040260200160405190810160405280929190818152602001828054611fb79061469c565b80156120045780601f10611fd957610100808354040283529160200191612004565b820191906000526020600020905b815481529060010190602001808311611fe757829003601f168201915b505050505081526020016008820160009054906101000a900460ff161515151581526020016008820160019054906101000a900460ff161515151581526020016009820154815250508282815181106120605761205f6147a5565b5b6020026020010181905250808061207690614977565b915050611bb1565b508091505090565b6005818154811061209657600080fd5b9060005260206000200160009150905080546120b19061469c565b80601f01602080910402602001604051908101604052809291908181526020018280546120dd9061469c565b801561212a5780601f106120ff5761010080835404028352916020019161212a565b820191906000526020600020905b81548152906001019060200180831161210d57829003601f168201915b505050505081565b6060600f60009054906101000a900473ffffffffffffffffffffffffffffffffffffffff1673ffffffffffffffffffffffffffffffffffffffff163373ffffffffffffffffffffffffffffffffffffffff16146121c4576040517f08c379a00000000000000000000000000000000000000000000000000000000081526004016121bb90614a31565b60405180910390fd5b600060058054905067ffffffffffffffff8111156121e5576121e4613ee3565b5b60405190808252806020026020018201604052801561221e57816020015b61220b613d52565b8152602001906001900390816122035790505b50905060005b6005805490508110156126f157600160058281548110612247576122466147a5565b5b9060005260206000200160405161225e9190614877565b9081526020016040518091039020604051806101600160405290816000820180546122889061469c565b80601f01602080910402602001604051908101604052809291908181526020018280546122b49061469c565b80156123015780601f106122d657610100808354040283529160200191612301565b820191906000526020600020905b8154815290600101906020018083116122e457829003601f168201915b5050505050815260200160018201805461231a9061469c565b80601f01602080910402602001604051908101604052809291908181526020018280546123469061469c565b80156123935780601f1061236857610100808354040283529160200191612393565b820191906000526020600020905b81548152906001019060200180831161237657829003601f168201915b505050505081526020016002820180546123ac9061469c565b80601f01602080910402602001604051908101604052809291908181526020018280546123d89061469c565b80156124255780601f106123fa57610100808354040283529160200191612425565b820191906000526020600020905b81548152906001019060200180831161240857829003601f168201915b5050505050815260200160038201805461243e9061469c565b80601f016020809104026020016040519081016040528092919081815260200182805461246a9061469c565b80156124b75780601f1061248c576101008083540402835291602001916124b7565b820191906000526020600020905b81548152906001019060200180831161249a57829003601f168201915b50505050508152602001600482015481526020016005820180546124da9061469c565b80601f01602080910402602001604051908101604052809291908181526020018280546125069061469c565b80156125535780601f1061252857610100808354040283529160200191612553565b820191906000526020600020905b81548152906001019060200180831161253657829003601f168201915b5050505050815260200160068201805461256c9061469c565b80601f01602080910402602001604051908101604052809291908181526020018280546125989061469c565b80156125e55780601f106125ba576101008083540402835291602001916125e5565b820191906000526020600020905b8154815290600101906020018083116125c857829003601f168201915b505050505081526020016007820180546125fe9061469c565b80601f016020809104026020016040519081016040528092919081815260200182805461262a9061469c565b80156126775780601f1061264c57610100808354040283529160200191612677565b820191906000526020600020905b81548152906001019060200180831161265a57829003601f168201915b505050505081526020016008820160009054906101000a900460ff161515151581526020016008820160019054906101000a900460ff161515151581526020016009820154815250508282815181106126d3576126d26147a5565b5b602002602001018190525080806126e990614977565b915050612224565b508091505090565b6060601180548060200260200160405190810160405280929190818152602001828054801561274757602002820191906000526020600020905b815481526020019060010190808311612733575b5050505050905090565b6060600060038054905067ffffffffffffffff81111561277457612773613ee3565b5b6040519080825280602002602001820160405280156127ad57816020015b61279a613d52565b8152602001906001900390816127925790505b50905060005b600380549050811015612c80576000600382815481106127d6576127d56147a5565b5b906000526020600020016040516127ed9190614877565b9081526020016040518091039020604051806101600160405290816000820180546128179061469c565b80601f01602080910402602001604051908101604052809291908181526020018280546128439061469c565b80156128905780601f1061286557610100808354040283529160200191612890565b820191906000526020600020905b81548152906001019060200180831161287357829003601f168201915b505050505081526020016001820180546128a99061469c565b80601f01602080910402602001604051908101604052809291908181526020018280546128d59061469c565b80156129225780601f106128f757610100808354040283529160200191612922565b820191906000526020600020905b81548152906001019060200180831161290557829003601f168201915b5050505050815260200160028201805461293b9061469c565b80601f01602080910402602001604051908101604052809291908181526020018280546129679061469c565b80156129b45780601f10612989576101008083540402835291602001916129b4565b820191906000526020600020905b81548152906001019060200180831161299757829003601f168201915b505050505081526020016003820180546129cd9061469c565b80601f01602080910402602001604051908101604052809291908181526020018280546129f99061469c565b8015612a465780601f10612a1b57610100808354040283529160200191612a46565b820191906000526020600020905b815481529060010190602001808311612a2957829003601f168201915b5050505050815260200160048201548152602001600582018054612a699061469c565b80601f0160208091040260200160405190810160405280929190818152602001828054612a959061469c565b8015612ae25780601f10612ab757610100808354040283529160200191612ae2565b820191906000526020600020905b815481529060010190602001808311612ac557829003601f168201915b50505050508152602001600682018054612afb9061469c565b80601f0160208091040260200160405190810160405280929190818152602001828054612b279061469c565b8015612b745780601f10612b4957610100808354040283529160200191612b74565b820191906000526020600020905b815481529060010190602001808311612b5757829003601f168201915b50505050508152602001600782018054612b8d9061469c565b80601f0160208091040260200160405190810160405280929190818152602001828054612bb99061469c565b8015612c065780601f10612bdb57610100808354040283529160200191612c06565b820191906000526020600020905b815481529060010190602001808311612be957829003601f168201915b505050505081526020016008820160009054906101000a900460ff161515151581526020016008820160019054906101000a900460ff16151515158152602001600982015481525050828281518110612c6257612c616147a5565b5b60200260200101819052508080612c7890614977565b9150506127b3565b508091505090565b600f60009054906101000a900473ffffffffffffffffffffffffffffffffffffffff1673ffffffffffffffffffffffffffffffffffffffff163373ffffffffffffffffffffffffffffffffffffffff1614612d18576040517f08c379a0000000000000000000000000000000000000000000000000000000008152600401612d0f90614a31565b60405180910390fd5b80600f60006101000a81548173ffffffffffffffffffffffffffffffffffffffff021916908373ffffffffffffffffffffffffffffffffffffffff16021790555050565b600f60009054906101000a900473ffffffffffffffffffffffffffffffffffffffff1673ffffffffffffffffffffffffffffffffffffffff163373ffffffffffffffffffffffffffffffffffffffff1614612dec576040517f08c379a0000000000000000000000000000000000000000000000000000000008152600401612de390614a31565b60405180910390fd5b818111612e2e576040517f08c379a0000000000000000000000000000000000000000000000000000000008152600401612e2590614a9d565b60405180910390fd5b60001515600f60149054906101000a900460ff16151514612e84576040517f08c379a0000000000000000000000000000000000000000000000000000000008152600401612e7b90614b2f565b60405180910390fd5b60008282612e929190614b4f565b90506011839080600181540180825580915050600190039060005260206000200160009091909190915055601182908060018154018082558091505060019003906000526020600020016000909190919091505560405180606001604052804285612efd9190614b83565b81526020014284612f0e9190614b83565b815260200182815250601060003373ffffffffffffffffffffffffffffffffffffffff1673ffffffffffffffffffffffffffffffffffffffff1681526020019081526020016000206000820151816000015560208201518160010155604082015181600201559050506001600f60146101000a81548160ff021916908315150217905550505050565b6060601060003373ffffffffffffffffffffffffffffffffffffffff1673ffffffffffffffffffffffffffffffffffffffff1681526020019081526020016000206000015442101561301e576040517f08c379a000000000000000000000000000000000000000000000000000000000815260040161301590614719565b60405180910390fd5b601060003373ffffffffffffffffffffffffffffffffffffffff1673ffffffffffffffffffffffffffffffffffffffff168152602001908152602001600020600101544211156130a3576040517f08c379a000000000000000000000000000000000000000000000000000000000815260040161309a90614785565b60405180910390fd5b600060048054905067ffffffffffffffff8111156130c4576130c3613ee3565b5b6040519080825280602002602001820160405280156130fd57816020015b6130ea613d52565b8152602001906001900390816130e25790505b50905060006004805480602002602001604051908101604052809291908181526020016000905b828210156131d05783829060005260206000200180546131439061469c565b80601f016020809104026020016040519081016040528092919081815260200182805461316f9061469c565b80156131bc5780601f10613191576101008083540402835291602001916131bc565b820191906000526020600020905b81548152906001019060200180831161319f57829003601f168201915b505050505081526020019060010190613124565b50505050905060005b81518110156136fd57848051906020012060018383815181106131ff576131fe6147a5565b5b60200260200101516040516132149190614be8565b90815260200160405180910390206002016040516132329190614931565b6040518091039020036136ea576001828281518110613254576132536147a5565b5b60200260200101516040516132699190614be8565b9081526020016040518091039020604051806101600160405290816000820180546132939061469c565b80601f01602080910402602001604051908101604052809291908181526020018280546132bf9061469c565b801561330c5780601f106132e15761010080835404028352916020019161330c565b820191906000526020600020905b8154815290600101906020018083116132ef57829003601f168201915b505050505081526020016001820180546133259061469c565b80601f01602080910402602001604051908101604052809291908181526020018280546133519061469c565b801561339e5780601f106133735761010080835404028352916020019161339e565b820191906000526020600020905b81548152906001019060200180831161338157829003601f168201915b505050505081526020016002820180546133b79061469c565b80601f01602080910402602001604051908101604052809291908181526020018280546133e39061469c565b80156134305780601f1061340557610100808354040283529160200191613430565b820191906000526020600020905b81548152906001019060200180831161341357829003601f168201915b505050505081526020016003820180546134499061469c565b80601f01602080910402602001604051908101604052809291908181526020018280546134759061469c565b80156134c25780601f10613497576101008083540402835291602001916134c2565b820191906000526020600020905b8154815290600101906020018083116134a557829003601f168201915b50505050508152602001600482015481526020016005820180546134e59061469c565b80601f01602080910402602001604051908101604052809291908181526020018280546135119061469c565b801561355e5780601f106135335761010080835404028352916020019161355e565b820191906000526020600020905b81548152906001019060200180831161354157829003601f168201915b505050505081526020016006820180546135779061469c565b80601f01602080910402602001604051908101604052809291908181526020018280546135a39061469c565b80156135f05780601f106135c5576101008083540402835291602001916135f0565b820191906000526020600020905b8154815290600101906020018083116135d357829003601f168201915b505050505081526020016007820180546136099061469c565b80601f01602080910402602001604051908101604052809291908181526020018280546136359061469c565b80156136825780601f1061365757610100808354040283529160200191613682565b820191906000526020600020905b81548152906001019060200180831161366557829003601f168201915b505050505081526020016008820160009054906101000a900460ff161515151581526020016008820160019054906101000a900460ff161515151581526020016009820154815250508382815181106136de576136dd6147a5565b5b60200260200101819052505b80806136f590614977565b9150506131d9565b508192505050919050565b60106020528060005260406000206000915090508060000154908060010154908060020154905083565b60065481565b6003818154811061374857600080fd5b9060005260206000200160009150905080546137639061469c565b80601f016020809104026020016040519081016040528092919081815260200182805461378f9061469c565b80156137dc5780601f106137b1576101008083540402835291602001916137dc565b820191906000526020600020905b8154815290600101906020018083116137bf57829003601f168201915b505050505081565b600781600781106137f457600080fd5b016000915090505481565b600080601060003373ffffffffffffffffffffffffffffffffffffffff1673ffffffffffffffffffffffffffffffffffffffff16815260200190815260200160002060405180606001604052908160008201548152602001600182015481526020016002820154815250509050806000015142101561389c57600042826000015161388a9190614b4f565b905080826040018181525050506138d9565b80602001514210156138cc5760004282602001516138ba9190614b4f565b905080826040018181525050506138d8565b60008160400181815250505b5b806040015191505090565b60018180516020810182018051848252602083016020850120818352809550505050505060009150905080600001805461391d9061469c565b80601f01602080910402602001604051908101604052809291908181526020018280546139499061469c565b80156139965780601f1061396b57610100808354040283529160200191613996565b820191906000526020600020905b81548152906001019060200180831161397957829003601f168201915b5050505050908060010180546139ab9061469c565b80601f01602080910402602001604051908101604052809291908181526020018280546139d79061469c565b8015613a245780601f106139f957610100808354040283529160200191613a24565b820191906000526020600020905b815481529060010190602001808311613a0757829003601f168201915b505050505090806002018054613a399061469c565b80601f0160208091040260200160405190810160405280929190818152602001828054613a659061469c565b8015613ab25780601f10613a8757610100808354040283529160200191613ab2565b820191906000526020600020905b815481529060010190602001808311613a9557829003601f168201915b505050505090806003018054613ac79061469c565b80601f0160208091040260200160405190810160405280929190818152602001828054613af39061469c565b8015613b405780601f10613b1557610100808354040283529160200191613b40565b820191906000526020600020905b815481529060010190602001808311613b2357829003601f168201915b505050505090806004015490806005018054613b5b9061469c565b80601f0160208091040260200160405190810160405280929190818152602001828054613b879061469c565b8015613bd45780601f10613ba957610100808354040283529160200191613bd4565b820191906000526020600020905b815481529060010190602001808311613bb757829003601f168201915b505050505090806006018054613be99061469c565b80601f0160208091040260200160405190810160405280929190818152602001828054613c159061469c565b8015613c625780601f10613c3757610100808354040283529160200191613c62565b820191906000526020600020905b815481529060010190602001808311613c4557829003601f168201915b505050505090806007018054613c779061469c565b80601f0160208091040260200160405190810160405280929190818152602001828054613ca39061469c565b8015613cf05780601f10613cc557610100808354040283529160200191613cf0565b820191906000526020600020905b815481529060010190602001808311613cd357829003601f168201915b5050505050908060080160009054906101000a900460ff16908060080160019054906101000a900460ff1690806009015490508b565b600e5481565b600f60009054906101000a900473ffffffffffffffffffffffffffffffffffffffff1681565b6040518061016001604052806060815260200160608152602001606081526020016060815260200160008152602001606081526020016060815260200160608152602001600015158152602001600015158152602001600081525090565b6000604051905090565b600080fd5b600080fd5b6000819050919050565b613dd781613dc4565b8114613de257600080fd5b50565b600081359050613df481613dce565b92915050565b600060208284031215613e1057613e0f613dba565b5b6000613e1e84828501613de5565b91505092915050565b600081519050919050565b600082825260208201905092915050565b60005b83811015613e61578082015181840152602081019050613e46565b60008484015250505050565b6000601f19601f8301169050919050565b6000613e8982613e27565b613e938185613e32565b9350613ea3818560208601613e43565b613eac81613e6d565b840191505092915050565b60006020820190508181036000830152613ed18184613e7e565b905092915050565b600080fd5b600080fd5b7f4e487b7100000000000000000000000000000000000000000000000000000000600052604160045260246000fd5b613f1b82613e6d565b810181811067ffffffffffffffff82111715613f3a57613f39613ee3565b5b80604052505050565b6000613f4d613db0565b9050613f598282613f12565b919050565b600067ffffffffffffffff821115613f7957613f78613ee3565b5b613f8282613e6d565b9050602081019050919050565b82818337600083830152505050565b6000613fb1613fac84613f5e565b613f43565b905082815260208101848484011115613fcd57613fcc613ede565b5b613fd8848285613f8f565b509392505050565b600082601f830112613ff557613ff4613ed9565b5b8135614005848260208601613f9e565b91505092915050565b6000806040838503121561402557614024613dba565b5b600083013567ffffffffffffffff81111561404357614042613dbf565b5b61404f85828601613fe0565b925050602083013567ffffffffffffffff8111156140705761406f613dbf565b5b61407c85828601613fe0565b9150509250929050565b600081519050919050565b600082825260208201905092915050565b6000819050602082019050919050565b600082825260208201905092915050565b60006140ce82613e27565b6140d881856140b2565b93506140e8818560208601613e43565b6140f181613e6d565b840191505092915050565b61410581613dc4565b82525050565b60008115159050919050565b6141208161410b565b82525050565b600061016083016000830151848203600086015261414482826140c3565b9150506020830151848203602086015261415e82826140c3565b9150506040830151848203604086015261417882826140c3565b9150506060830151848203606086015261419282826140c3565b91505060808301516141a760808601826140fc565b5060a083015184820360a08601526141bf82826140c3565b91505060c083015184820360c08601526141d982826140c3565b91505060e083015184820360e08601526141f382826140c3565b91505061010083015161420a610100860182614117565b5061012083015161421f610120860182614117565b506101408301516142346101408601826140fc565b508091505092915050565b600061424b8383614126565b905092915050565b6000602082019050919050565b600061426b82614086565b6142758185614091565b935083602082028501614287856140a2565b8060005b858110156142c357848403895281516142a4858261423f565b94506142af83614253565b925060208a0199505060018101905061428b565b50829750879550505050505092915050565b600060208201905081810360008301526142ef8184614260565b905092915050565b60006020828403121561430d5761430c613dba565b5b600082013567ffffffffffffffff81111561432b5761432a613dbf565b5b61433784828501613fe0565b91505092915050565b61434981613dc4565b82525050565b6143588161410b565b82525050565b6000610160820190508181036000830152614379818e613e7e565b9050818103602083015261438d818d613e7e565b905081810360408301526143a1818c613e7e565b905081810360608301526143b5818b613e7e565b90506143c4608083018a614340565b81810360a08301526143d68189613e7e565b905081810360c08301526143ea8188613e7e565b905081810360e08301526143fe8187613e7e565b905061440e61010083018661434f565b61441c61012083018561434f565b61442a610140830184614340565b9c9b505050505050505050505050565b600060208201905061444f600083018461434f565b92915050565b600081519050919050565b600082825260208201905092915050565b6000819050602082019050919050565b600061448d83836140fc565b60208301905092915050565b6000602082019050919050565b60006144b182614455565b6144bb8185614460565b93506144c683614471565b8060005b838110156144f75781516144de8882614481565b97506144e983614499565b9250506001810190506144ca565b5085935050505092915050565b6000602082019050818103600083015261451e81846144a6565b905092915050565b600073ffffffffffffffffffffffffffffffffffffffff82169050919050565b600061455182614526565b9050919050565b61456181614546565b811461456c57600080fd5b50565b60008135905061457e81614558565b92915050565b60006020828403121561459a57614599613dba565b5b60006145a88482850161456f565b91505092915050565b600080604083850312156145c8576145c7613dba565b5b60006145d685828601613de5565b92505060206145e785828601613de5565b9150509250929050565b60006060820190506146066000830186614340565b6146136020830185614340565b6146206040830184614340565b949350505050565b600060208201905061463d6000830184614340565b92915050565b61464c81614546565b82525050565b60006020820190506146676000830184614643565b92915050565b7f4e487b7100000000000000000000000000000000000000000000000000000000600052602260045260246000fd5b600060028204905060018216806146b457607f821691505b6020821081036146c7576146c661466d565b5b50919050565b7f566f74696e67206973206e6f742063757272656e746c79206f70656e00000000600082015250565b6000614703601c83613e32565b915061470e826146cd565b602082019050919050565b60006020820190508181036000830152614732816146f6565b9050919050565b7f566f74696e672073657373696f6e206578706972656400000000000000000000600082015250565b600061476f601683613e32565b915061477a82614739565b602082019050919050565b6000602082019050818103600083015261479e81614762565b9050919050565b7f4e487b7100000000000000000000000000000000000000000000000000000000600052603260045260246000fd5b600081905092915050565b60008190508160005260206000209050919050565b600081546148018161469c565b61480b81866147d4565b94506001821660008114614826576001811461483b5761486e565b60ff198316865281151582028601935061486e565b614844856147df565b60005b8381101561486657815481890152600182019150602081019050614847565b838801955050505b50505092915050565b600061488382846147f4565b915081905092915050565b600081905092915050565b60008190508160005260206000209050919050565b600081546148bb8161469c565b6148c5818661488e565b945060018216600081146148e057600181146148f557614928565b60ff1983168652811515820286019350614928565b6148fe85614899565b60005b8381101561492057815481890152600182019150602081019050614901565b838801955050505b50505092915050565b600061493d82846148ae565b915081905092915050565b7f4e487b7100000000000000000000000000000000000000000000000000000000600052601160045260246000fd5b600061498282613dc4565b91507fffffffffffffffffffffffffffffffffffffffffffffffffffffffffffffffff82036149b4576149b3614948565b5b600182019050919050565b7f4f6e6c792061646d696e2063616e20706572666f726d2074686973206163746960008201527f6f6e000000000000000000000000000000000000000000000000000000000000602082015250565b6000614a1b602283613e32565b9150614a26826149bf565b604082019050919050565b60006020820190508181036000830152614a4a81614a0e565b9050919050565b7f496e76616c696420766f74696e6720706572696f640000000000000000000000600082015250565b6000614a87601583613e32565b9150614a9282614a51565b602082019050919050565b60006020820190508181036000830152614ab681614a7a565b9050919050565b7f54686520766f74696e672074696d6520697320616c726561647920696e69746960008201527f6174656400000000000000000000000000000000000000000000000000000000602082015250565b6000614b19602483613e32565b9150614b2482614abd565b604082019050919050565b60006020820190508181036000830152614b4881614b0c565b9050919050565b6000614b5a82613dc4565b9150614b6583613dc4565b9250828203905081811115614b7d57614b7c614948565b5b92915050565b6000614b8e82613dc4565b9150614b9983613dc4565b9250828201905080821115614bb157614bb0614948565b5b92915050565b6000614bc282613e27565b614bcc81856147d4565b9350614bdc818560208601613e43565b80840191505092915050565b6000614bf48284614bb7565b91508190509291505056fea26469706673582212205eac767e1809fa9a220c396cc153d8ef4236bd58850a328056f4b63dbb473b7264736f6c63430008130033",
  "immutableReferences": {},
  "source": "// SPDX-License-Identifier: MIT\npragma solidity ^0.8.0;\nimport \"./CandidateRegistry.sol\";\nimport \"./CandidateStructure.sol\";\nimport \"./TimeControl.sol\";\n\ncontract ViewCandidates is CandidateStructure, TimeControl {\n        //voter can view candidate of the corresponding area of vote\n    function viewPresident() public view returns(Candidate[] memory){\n        Candidate[] memory result = new Candidate[](presidentList.length);        \n        for(uint i=0; i < presidentList.length; i++){\n                result[i] = candidatePresident[presidentList[i]];       \n        }\n        return result;\n    }\n\n    function viewGovernors(string memory _collegeName) public view onlyDuringVotingPeriod returns(Candidate[] memory){\n        Candidate[] memory result = new Candidate[](governorList.length);\n        string[] memory governorLst = governorList;        \n        for(uint i = 0; i < governorLst.length; i++){\n            if(keccak256(bytes(candidateGovernor[governorLst[i]].collegeName)) == keccak256(bytes(_collegeName))){\n                result[i] = candidateGovernor[governorLst[i]];  \n            }            \n        }\n        return result;\n    }\n\n    function viewBlockLeader(string memory _collegeName, string memory _blockNumber) public onlyDuringVotingPeriod view returns(Candidate[] memory){\n        Candidate[] memory result = new Candidate[](blockLeaderList.length);        \n        for(uint i = 0; i < blockLeaderList.length; i++){\n            if(keccak256(bytes(candidateBlockLeader[blockLeaderList[i]].collegeName)) == keccak256(bytes(_collegeName)) && keccak256(bytes(candidateBlockLeader[blockLeaderList[i]].blockNumber)) == keccak256(bytes(_blockNumber))){\n                result[i] = candidateGovernor[blockLeaderList[i]];  \n            }            \n        }\n        return result;\n    }\n\n\n    //Admin view candidates for a specific position of vote\n    function adminViewPresident() public view onlyAdmin returns(Candidate[] memory){\n        Candidate[] memory result = new Candidate[](presidentList.length);        \n        for(uint i=0; i < presidentList.length; i++){\n                result[i] = candidatePresident[presidentList[i]];       \n        }\n        return result;\n    }\n\n    function adminViewGovernors() public view onlyAdmin returns(Candidate[] memory){\n        Candidate[] memory result = new Candidate[](governorList.length);        \n        for(uint i = 0; i < governorList.length; i++){\n            result[i] = candidateGovernor[governorList[i]];         \n        }\n        return result;\n    }\n\n    function adminViewBlockLeader() public view onlyAdmin returns(Candidate[] memory){\n        Candidate[] memory result = new Candidate[](blockLeaderList.length);        \n        for(uint i = 0; i < blockLeaderList.length; i++){\n            result[i] = candidateGovernor[blockLeaderList[i]];           \n        }\n        return result;\n    }\n}",
  "sourcePath": "/home/temba/Documents/SmartContract/client/contracts/ViewCandidates.sol",
  "compiler": {
    "name": "solc",
    "version": "0.8.19+commit.7dd6d404.Emscripten.clang"
  },
  "schemaVersion": "3.4.14",
  "updatedAt": "2023-06-09T10:11:12.683Z",
  "networkType": "ethereum",
  "devdoc": {
    "kind": "dev",
    "methods": {},
    "version": 1
  },
  "userdoc": {
    "kind": "user",
    "methods": {},
    "version": 1
  }
}