{
  "contractName": "VoterStructure",
  "abi": [
    {
      "inputs": [
        {
          "internalType": "address",
          "name": "",
          "type": "address"
        }
      ],
      "name": "hasLogedin",
      "outputs": [
        {
          "internalType": "bool",
          "name": "",
          "type": "bool"
        }
      ],
      "stateMutability": "view",
      "type": "function",
      "constant": true
    },
    {
      "inputs": [
        {
          "internalType": "uint256",
          "name": "",
          "type": "uint256"
        }
      ],
      "name": "voterAddressArray",
      "outputs": [
        {
          "internalType": "address",
          "name": "",
          "type": "address"
        }
      ],
      "stateMutability": "view",
      "type": "function",
      "constant": true
    },
    {
      "inputs": [
        {
          "internalType": "address",
          "name": "",
          "type": "address"
        }
      ],
      "name": "voterSession",
      "outputs": [
        {
          "internalType": "string",
          "name": "",
          "type": "string"
        }
      ],
      "stateMutability": "view",
      "type": "function",
      "constant": true
    },
    {
      "inputs": [
        {
          "internalType": "address",
          "name": "",
          "type": "address"
        }
      ],
      "name": "voters",
      "outputs": [
        {
          "internalType": "address",
          "name": "voterAddress",
          "type": "address"
        },
        {
          "internalType": "string",
          "name": "firstName",
          "type": "string"
        },
        {
          "internalType": "string",
          "name": "lastName",
          "type": "string"
        },
        {
          "internalType": "string",
          "name": "collegeName",
          "type": "string"
        },
        {
          "internalType": "string",
          "name": "programName",
          "type": "string"
        },
        {
          "internalType": "uint256",
          "name": "yearOfStudy",
          "type": "uint256"
        },
        {
          "internalType": "string",
          "name": "regNo",
          "type": "string"
        },
        {
          "internalType": "string",
          "name": "blockNumber",
          "type": "string"
        },
        {
          "internalType": "string",
          "name": "password",
          "type": "string"
        },
        {
          "internalType": "string",
          "name": "gender",
          "type": "string"
        },
        {
          "internalType": "bool",
          "name": "isRegistered",
          "type": "bool"
        },
        {
          "internalType": "bool",
          "name": "voted",
          "type": "bool"
        }
      ],
      "stateMutability": "view",
      "type": "function",
      "constant": true
    }
  ],
  "bytecode": "0x608060405234801561001057600080fd5b50610a91806100206000396000f3fe608060405234801561001057600080fd5b506004361061004c5760003560e01c80635b6e990c1461005157806371b7ddb814610081578063a3ec138d146100b1578063bf08128f146100ec575b600080fd5b61006b60048036038101906100669190610758565b61011c565b6040516100789190610815565b60405180910390f35b61009b6004803603810190610096919061086d565b6101bc565b6040516100a891906108a9565b60405180910390f35b6100cb60048036038101906100c69190610758565b6101fb565b6040516100e39c9b9a999897969594939291906108ee565b60405180910390f35b61010660048036038101906101019190610758565b6106d5565b60405161011391906109e0565b60405180910390f35b6002602052806000526040600020600091509050805461013b90610a2a565b80601f016020809104026020016040519081016040528092919081815260200182805461016790610a2a565b80156101b45780601f10610189576101008083540402835291602001916101b4565b820191906000526020600020905b81548152906001019060200180831161019757829003601f168201915b505050505081565b600381815481106101cc57600080fd5b906000526020600020016000915054906101000a900473ffffffffffffffffffffffffffffffffffffffff1681565b60006020528060005260406000206000915090508060000160009054906101000a900473ffffffffffffffffffffffffffffffffffffffff169080600101805461024490610a2a565b80601f016020809104026020016040519081016040528092919081815260200182805461027090610a2a565b80156102bd5780601f10610292576101008083540402835291602001916102bd565b820191906000526020600020905b8154815290600101906020018083116102a057829003601f168201915b5050505050908060020180546102d290610a2a565b80601f01602080910402602001604051908101604052809291908181526020018280546102fe90610a2a565b801561034b5780601f106103205761010080835404028352916020019161034b565b820191906000526020600020905b81548152906001019060200180831161032e57829003601f168201915b50505050509080600301805461036090610a2a565b80601f016020809104026020016040519081016040528092919081815260200182805461038c90610a2a565b80156103d95780601f106103ae576101008083540402835291602001916103d9565b820191906000526020600020905b8154815290600101906020018083116103bc57829003601f168201915b5050505050908060040180546103ee90610a2a565b80601f016020809104026020016040519081016040528092919081815260200182805461041a90610a2a565b80156104675780601f1061043c57610100808354040283529160200191610467565b820191906000526020600020905b81548152906001019060200180831161044a57829003601f168201915b50505050509080600501549080600601805461048290610a2a565b80601f01602080910402602001604051908101604052809291908181526020018280546104ae90610a2a565b80156104fb5780601f106104d0576101008083540402835291602001916104fb565b820191906000526020600020905b8154815290600101906020018083116104de57829003601f168201915b50505050509080600701805461051090610a2a565b80601f016020809104026020016040519081016040528092919081815260200182805461053c90610a2a565b80156105895780601f1061055e57610100808354040283529160200191610589565b820191906000526020600020905b81548152906001019060200180831161056c57829003601f168201915b50505050509080600801805461059e90610a2a565b80601f01602080910402602001604051908101604052809291908181526020018280546105ca90610a2a565b80156106175780601f106105ec57610100808354040283529160200191610617565b820191906000526020600020905b8154815290600101906020018083116105fa57829003601f168201915b50505050509080600901805461062c90610a2a565b80601f016020809104026020016040519081016040528092919081815260200182805461065890610a2a565b80156106a55780601f1061067a576101008083540402835291602001916106a5565b820191906000526020600020905b81548152906001019060200180831161068857829003601f168201915b50505050509080600a0160009054906101000a900460ff169080600a0160019054906101000a900460ff1690508c565b60016020528060005260406000206000915054906101000a900460ff1681565b600080fd5b600073ffffffffffffffffffffffffffffffffffffffff82169050919050565b6000610725826106fa565b9050919050565b6107358161071a565b811461074057600080fd5b50565b6000813590506107528161072c565b92915050565b60006020828403121561076e5761076d6106f5565b5b600061077c84828501610743565b91505092915050565b600081519050919050565b600082825260208201905092915050565b60005b838110156107bf5780820151818401526020810190506107a4565b60008484015250505050565b6000601f19601f8301169050919050565b60006107e782610785565b6107f18185610790565b93506108018185602086016107a1565b61080a816107cb565b840191505092915050565b6000602082019050818103600083015261082f81846107dc565b905092915050565b6000819050919050565b61084a81610837565b811461085557600080fd5b50565b60008135905061086781610841565b92915050565b600060208284031215610883576108826106f5565b5b600061089184828501610858565b91505092915050565b6108a38161071a565b82525050565b60006020820190506108be600083018461089a565b92915050565b6108cd81610837565b82525050565b60008115159050919050565b6108e8816108d3565b82525050565b600061018082019050610904600083018f61089a565b8181036020830152610916818e6107dc565b9050818103604083015261092a818d6107dc565b9050818103606083015261093e818c6107dc565b90508181036080830152610952818b6107dc565b905061096160a083018a6108c4565b81810360c083015261097381896107dc565b905081810360e083015261098781886107dc565b905081810361010083015261099c81876107dc565b90508181036101208301526109b181866107dc565b90506109c16101408301856108df565b6109cf6101608301846108df565b9d9c50505050505050505050505050565b60006020820190506109f560008301846108df565b92915050565b7f4e487b7100000000000000000000000000000000000000000000000000000000600052602260045260246000fd5b60006002820490506001821680610a4257607f821691505b602082108103610a5557610a546109fb565b5b5091905056fea2646970667358221220abdb88e3a9264a307967edf3908565956dec9d997849aaf434e6d48f6698c8fc64736f6c63430008130033",
  "immutableReferences": {},
  "source": "// SPDX-License-Identifier: MIT\npragma solidity ^0.8.0;\n\ncontract VoterStructure {\n    // Data structure for a voter\n    struct Voter {   \n        address voterAddress; \n        string firstName; \n        string lastName;\n        string collegeName;\n        string programName;\n        uint256 yearOfStudy;\n        string regNo;\n        string blockNumber;\n        string password;\n        string gender;\n        bool isRegistered;\n        bool voted;\n    }\n\n    mapping(address => Voter) public voters;\n    mapping(address => bool) public hasLogedin;\n    mapping(address => string) public voterSession;\n    address[] public voterAddressArray;\n}",
  "sourcePath": "/home/temba/Documents/SmartContract/client/contracts/VoterStructure.sol",
  "compiler": {
    "name": "solc",
    "version": "0.8.19+commit.7dd6d404.Emscripten.clang"
  },
  "schemaVersion": "3.4.14",
  "updatedAt": "2023-06-21T10:05:41.668Z",
  "networkType": "ethereum",
  "devdoc": {
    "kind": "dev",
    "methods": {},
    "version": 1
  },
  "userdoc": {
    "kind": "user",
    "methods": {},
    "version": 1
  }
}