{
  "contractName": "VoterContract",
  "abi": [
    {
      "inputs": [],
      "name": "admin",
      "outputs": [
        {
          "internalType": "address",
          "name": "",
          "type": "address"
        }
      ],
      "stateMutability": "view",
      "type": "function",
      "constant": true
    },
    {
      "inputs": [
        {
          "internalType": "uint256",
          "name": "",
          "type": "uint256"
        }
      ],
      "name": "blockLeaderList",
      "outputs": [
        {
          "internalType": "string",
          "name": "",
          "type": "string"
        }
      ],
      "stateMutability": "view",
      "type": "function",
      "constant": true
    },
    {
      "inputs": [
        {
          "internalType": "address",
          "name": "",
          "type": "address"
        }
      ],
      "name": "blockLeaderVoted",
      "outputs": [
        {
          "internalType": "bool",
          "name": "",
          "type": "bool"
        }
      ],
      "stateMutability": "view",
      "type": "function",
      "constant": true
    },
    {
      "inputs": [
        {
          "internalType": "string",
          "name": "",
          "type": "string"
        }
      ],
      "name": "candidateBlockLeader",
      "outputs": [
        {
          "internalType": "string",
          "name": "firstName",
          "type": "string"
        },
        {
          "internalType": "string",
          "name": "lastName",
          "type": "string"
        },
        {
          "internalType": "string",
          "name": "collegeName",
          "type": "string"
        },
        {
          "internalType": "string",
          "name": "programName",
          "type": "string"
        },
        {
          "internalType": "uint256",
          "name": "yearOfStudy",
          "type": "uint256"
        },
        {
          "internalType": "string",
          "name": "regNo",
          "type": "string"
        },
        {
          "internalType": "string",
          "name": "blockNumber",
          "type": "string"
        },
        {
          "internalType": "string",
          "name": "gender",
          "type": "string"
        },
        {
          "internalType": "bool",
          "name": "isWinner",
          "type": "bool"
        },
        {
          "internalType": "uint256",
          "name": "voteCount",
          "type": "uint256"
        }
      ],
      "stateMutability": "view",
      "type": "function",
      "constant": true
    },
    {
      "inputs": [
        {
          "internalType": "string",
          "name": "",
          "type": "string"
        }
      ],
      "name": "candidateGovernor",
      "outputs": [
        {
          "internalType": "string",
          "name": "firstName",
          "type": "string"
        },
        {
          "internalType": "string",
          "name": "lastName",
          "type": "string"
        },
        {
          "internalType": "string",
          "name": "collegeName",
          "type": "string"
        },
        {
          "internalType": "string",
          "name": "programName",
          "type": "string"
        },
        {
          "internalType": "uint256",
          "name": "yearOfStudy",
          "type": "uint256"
        },
        {
          "internalType": "string",
          "name": "regNo",
          "type": "string"
        },
        {
          "internalType": "string",
          "name": "blockNumber",
          "type": "string"
        },
        {
          "internalType": "string",
          "name": "gender",
          "type": "string"
        },
        {
          "internalType": "bool",
          "name": "isWinner",
          "type": "bool"
        },
        {
          "internalType": "uint256",
          "name": "voteCount",
          "type": "uint256"
        }
      ],
      "stateMutability": "view",
      "type": "function",
      "constant": true
    },
    {
      "inputs": [
        {
          "internalType": "string",
          "name": "",
          "type": "string"
        }
      ],
      "name": "candidatePresident",
      "outputs": [
        {
          "internalType": "string",
          "name": "firstName",
          "type": "string"
        },
        {
          "internalType": "string",
          "name": "lastName",
          "type": "string"
        },
        {
          "internalType": "string",
          "name": "collegeName",
          "type": "string"
        },
        {
          "internalType": "string",
          "name": "programName",
          "type": "string"
        },
        {
          "internalType": "uint256",
          "name": "yearOfStudy",
          "type": "uint256"
        },
        {
          "internalType": "string",
          "name": "regNo",
          "type": "string"
        },
        {
          "internalType": "string",
          "name": "blockNumber",
          "type": "string"
        },
        {
          "internalType": "string",
          "name": "gender",
          "type": "string"
        },
        {
          "internalType": "bool",
          "name": "isWinner",
          "type": "bool"
        },
        {
          "internalType": "uint256",
          "name": "voteCount",
          "type": "uint256"
        }
      ],
      "stateMutability": "view",
      "type": "function",
      "constant": true
    },
    {
      "inputs": [
        {
          "internalType": "uint256",
          "name": "",
          "type": "uint256"
        }
      ],
      "name": "governorList",
      "outputs": [
        {
          "internalType": "string",
          "name": "",
          "type": "string"
        }
      ],
      "stateMutability": "view",
      "type": "function",
      "constant": true
    },
    {
      "inputs": [
        {
          "internalType": "address",
          "name": "",
          "type": "address"
        }
      ],
      "name": "governorVoted",
      "outputs": [
        {
          "internalType": "bool",
          "name": "",
          "type": "bool"
        }
      ],
      "stateMutability": "view",
      "type": "function",
      "constant": true
    },
    {
      "inputs": [
        {
          "internalType": "address",
          "name": "",
          "type": "address"
        }
      ],
      "name": "hasLogedin",
      "outputs": [
        {
          "internalType": "bool",
          "name": "",
          "type": "bool"
        }
      ],
      "stateMutability": "view",
      "type": "function",
      "constant": true
    },
    {
      "inputs": [],
      "name": "isInitiated",
      "outputs": [
        {
          "internalType": "bool",
          "name": "",
          "type": "bool"
        }
      ],
      "stateMutability": "view",
      "type": "function",
      "constant": true
    },
    {
      "inputs": [
        {
          "internalType": "string",
          "name": "",
          "type": "string"
        }
      ],
      "name": "isRegistered",
      "outputs": [
        {
          "internalType": "bool",
          "name": "",
          "type": "bool"
        }
      ],
      "stateMutability": "view",
      "type": "function",
      "constant": true
    },
    {
      "inputs": [],
      "name": "numberOfBlockLeader",
      "outputs": [
        {
          "internalType": "uint256",
          "name": "",
          "type": "uint256"
        }
      ],
      "stateMutability": "view",
      "type": "function",
      "constant": true
    },
    {
      "inputs": [
        {
          "internalType": "uint256",
          "name": "",
          "type": "uint256"
        }
      ],
      "name": "numberOfGovernor",
      "outputs": [
        {
          "internalType": "uint256",
          "name": "",
          "type": "uint256"
        }
      ],
      "stateMutability": "view",
      "type": "function",
      "constant": true
    },
    {
      "inputs": [],
      "name": "numberOfPresident",
      "outputs": [
        {
          "internalType": "uint256",
          "name": "",
          "type": "uint256"
        }
      ],
      "stateMutability": "view",
      "type": "function",
      "constant": true
    },
    {
      "inputs": [
        {
          "internalType": "uint256",
          "name": "",
          "type": "uint256"
        }
      ],
      "name": "presidentList",
      "outputs": [
        {
          "internalType": "string",
          "name": "",
          "type": "string"
        }
      ],
      "stateMutability": "view",
      "type": "function",
      "constant": true
    },
    {
      "inputs": [
        {
          "internalType": "address",
          "name": "",
          "type": "address"
        }
      ],
      "name": "presidentVoted",
      "outputs": [
        {
          "internalType": "bool",
          "name": "",
          "type": "bool"
        }
      ],
      "stateMutability": "view",
      "type": "function",
      "constant": true
    },
    {
      "inputs": [],
      "name": "totalVotes",
      "outputs": [
        {
          "internalType": "uint256",
          "name": "",
          "type": "uint256"
        }
      ],
      "stateMutability": "view",
      "type": "function",
      "constant": true
    },
    {
      "inputs": [
        {
          "internalType": "address",
          "name": "newAdmin",
          "type": "address"
        }
      ],
      "name": "transferAdmin",
      "outputs": [],
      "stateMutability": "nonpayable",
      "type": "function"
    },
    {
      "inputs": [
        {
          "internalType": "uint256",
          "name": "",
          "type": "uint256"
        }
      ],
      "name": "voterAddressArray",
      "outputs": [
        {
          "internalType": "address",
          "name": "",
          "type": "address"
        }
      ],
      "stateMutability": "view",
      "type": "function",
      "constant": true
    },
    {
      "inputs": [
        {
          "internalType": "address",
          "name": "",
          "type": "address"
        }
      ],
      "name": "voterSession",
      "outputs": [
        {
          "internalType": "string",
          "name": "",
          "type": "string"
        }
      ],
      "stateMutability": "view",
      "type": "function",
      "constant": true
    },
    {
      "inputs": [
        {
          "internalType": "address",
          "name": "",
          "type": "address"
        }
      ],
      "name": "voters",
      "outputs": [
        {
          "internalType": "address",
          "name": "voterAddress",
          "type": "address"
        },
        {
          "internalType": "string",
          "name": "firstName",
          "type": "string"
        },
        {
          "internalType": "string",
          "name": "lastName",
          "type": "string"
        },
        {
          "internalType": "string",
          "name": "collegeName",
          "type": "string"
        },
        {
          "internalType": "string",
          "name": "programName",
          "type": "string"
        },
        {
          "internalType": "uint256",
          "name": "yearOfStudy",
          "type": "uint256"
        },
        {
          "internalType": "string",
          "name": "regNo",
          "type": "string"
        },
        {
          "internalType": "string",
          "name": "blockNumber",
          "type": "string"
        },
        {
          "internalType": "string",
          "name": "password",
          "type": "string"
        },
        {
          "internalType": "string",
          "name": "gender",
          "type": "string"
        },
        {
          "internalType": "bool",
          "name": "isRegistered",
          "type": "bool"
        },
        {
          "internalType": "bool",
          "name": "voted",
          "type": "bool"
        }
      ],
      "stateMutability": "view",
      "type": "function",
      "constant": true
    },
    {
      "inputs": [
        {
          "internalType": "address",
          "name": "_voterAddress",
          "type": "address"
        }
      ],
      "name": "getVoter",
      "outputs": [
        {
          "components": [
            {
              "internalType": "address",
              "name": "voterAddress",
              "type": "address"
            },
            {
              "internalType": "string",
              "name": "firstName",
              "type": "string"
            },
            {
              "internalType": "string",
              "name": "lastName",
              "type": "string"
            },
            {
              "internalType": "string",
              "name": "collegeName",
              "type": "string"
            },
            {
              "internalType": "string",
              "name": "programName",
              "type": "string"
            },
            {
              "internalType": "uint256",
              "name": "yearOfStudy",
              "type": "uint256"
            },
            {
              "internalType": "string",
              "name": "regNo",
              "type": "string"
            },
            {
              "internalType": "string",
              "name": "blockNumber",
              "type": "string"
            },
            {
              "internalType": "string",
              "name": "password",
              "type": "string"
            },
            {
              "internalType": "string",
              "name": "gender",
              "type": "string"
            },
            {
              "internalType": "bool",
              "name": "isRegistered",
              "type": "bool"
            },
            {
              "internalType": "bool",
              "name": "voted",
              "type": "bool"
            }
          ],
          "internalType": "struct VoterContract.Voter",
          "name": "",
          "type": "tuple"
        }
      ],
      "stateMutability": "view",
      "type": "function",
      "constant": true
    },
    {
      "inputs": [],
      "name": "getVoterAddressArray",
      "outputs": [
        {
          "internalType": "address[]",
          "name": "",
          "type": "address[]"
        }
      ],
      "stateMutability": "view",
      "type": "function",
      "constant": true
    },
    {
      "inputs": [
        {
          "internalType": "string",
          "name": "_firstName",
          "type": "string"
        },
        {
          "internalType": "string",
          "name": "_lastName",
          "type": "string"
        },
        {
          "internalType": "string",
          "name": "_collegeName",
          "type": "string"
        },
        {
          "internalType": "string",
          "name": "_programName",
          "type": "string"
        },
        {
          "internalType": "uint256",
          "name": "_yearOfStudy",
          "type": "uint256"
        },
        {
          "internalType": "string",
          "name": "_regNo",
          "type": "string"
        },
        {
          "internalType": "string",
          "name": "_blockNumber",
          "type": "string"
        },
        {
          "internalType": "string",
          "name": "_password",
          "type": "string"
        },
        {
          "internalType": "string",
          "name": "_gender",
          "type": "string"
        }
      ],
      "name": "registerVoter",
      "outputs": [],
      "stateMutability": "nonpayable",
      "type": "function"
    },
    {
      "inputs": [],
      "name": "getVoterRegNumbers",
      "outputs": [
        {
          "internalType": "address[]",
          "name": "",
          "type": "address[]"
        }
      ],
      "stateMutability": "view",
      "type": "function",
      "constant": true
    },
    {
      "inputs": [
        {
          "internalType": "address",
          "name": "vtAddress",
          "type": "address"
        }
      ],
      "name": "viewVoter",
      "outputs": [
        {
          "internalType": "address",
          "name": "voterAddress",
          "type": "address"
        },
        {
          "internalType": "string",
          "name": "firstName",
          "type": "string"
        },
        {
          "internalType": "string",
          "name": "lastName",
          "type": "string"
        },
        {
          "internalType": "string",
          "name": "collegeName",
          "type": "string"
        },
        {
          "internalType": "string",
          "name": "programName",
          "type": "string"
        },
        {
          "internalType": "string",
          "name": "regNo",
          "type": "string"
        },
        {
          "internalType": "uint256",
          "name": "yearOfStudy",
          "type": "uint256"
        },
        {
          "internalType": "string",
          "name": "blockNumber",
          "type": "string"
        },
        {
          "internalType": "string",
          "name": "gender",
          "type": "string"
        }
      ],
      "stateMutability": "view",
      "type": "function",
      "constant": true
    },
    {
      "inputs": [
        {
          "internalType": "address",
          "name": "addressVoter",
          "type": "address"
        }
      ],
      "name": "voterViewBlockLeader",
      "outputs": [
        {
          "components": [
            {
              "internalType": "string",
              "name": "firstName",
              "type": "string"
            },
            {
              "internalType": "string",
              "name": "lastName",
              "type": "string"
            },
            {
              "internalType": "string",
              "name": "collegeName",
              "type": "string"
            },
            {
              "internalType": "string",
              "name": "programName",
              "type": "string"
            },
            {
              "internalType": "uint256",
              "name": "yearOfStudy",
              "type": "uint256"
            },
            {
              "internalType": "string",
              "name": "regNo",
              "type": "string"
            },
            {
              "internalType": "string",
              "name": "blockNumber",
              "type": "string"
            },
            {
              "internalType": "string",
              "name": "gender",
              "type": "string"
            },
            {
              "internalType": "bool",
              "name": "isWinner",
              "type": "bool"
            },
            {
              "internalType": "uint256",
              "name": "voteCount",
              "type": "uint256"
            }
          ],
          "internalType": "struct CandidateStructure.Candidate[]",
          "name": "",
          "type": "tuple[]"
        }
      ],
      "stateMutability": "view",
      "type": "function",
      "constant": true
    },
    {
      "inputs": [],
      "name": "getVotingStatus",
      "outputs": [
        {
          "internalType": "bool",
          "name": "",
          "type": "bool"
        }
      ],
      "stateMutability": "view",
      "type": "function",
      "constant": true
    },
    {
      "inputs": [
        {
          "internalType": "address",
          "name": "_voterAddress",
          "type": "address"
        }
      ],
      "name": "deleteVoter",
      "outputs": [],
      "stateMutability": "nonpayable",
      "type": "function"
    },
    {
      "inputs": [
        {
          "internalType": "string",
          "name": "_regNo",
          "type": "string"
        },
        {
          "internalType": "string",
          "name": "_password",
          "type": "string"
        }
      ],
      "name": "voterLogin",
      "outputs": [],
      "stateMutability": "nonpayable",
      "type": "function"
    },
    {
      "inputs": [],
      "name": "logout",
      "outputs": [],
      "stateMutability": "nonpayable",
      "type": "function"
    }
  ],
  "bytecode": "0x608060405234801561001057600080fd5b5033601460006101000a81548173ffffffffffffffffffffffffffffffffffffffff021916908373ffffffffffffffffffffffffffffffffffffffff1602179055506153b4806100616000396000f3fe608060405234801561001057600080fd5b50600436106101e55760003560e01c806388e1c7391161010f578063c822d7f0116100a2578063e6b52a3311610071578063e6b52a331461063d578063f64450261461066d578063f6ffc117146106a6578063f851a440146106c4576101e5565b8063c822d7f01461058f578063d4f50f98146105bf578063dccea189146105ef578063e316db4e1461060d576101e5565b8063a0b0df95116100de578063a0b0df95146104d8578063a3ec138d14610508578063b010b57414610543578063bf08128f1461055f576101e5565b806388e1c739146104525780638b2dc4561461046e57806399cab9da1461048c5780639d4f99d9146104a8576101e5565b80631f3c99c3116101875780635f8b9972116101565780635f8b9972146103b857806371b7ddb8146103e857806375829def146104185780637edf4f6d14610434576101e5565b80631f3c99c31461033057806345a8a2be1461033a578063581c281c1461036a5780635b6e990c14610388576101e5565b8063166b4722116101c3578063166b47221461026857806316d0b773146102a15780631ac45f52146102d95780631cb5991414610312576101e5565b806302aac7b2146101ea578063052fbf8c1461021a5780630d15fd771461024a575b600080fd5b61020460048036038101906101ff9190613e98565b6106e2565b6040516102119190613f55565b60405180910390f35b610234600480360381019061022f9190613fd5565b61078e565b604051610241919061401d565b60405180910390f35b6102526107ae565b60405161025f9190614047565b60405180910390f35b610282600480360381019061027d9190614197565b6107b4565b6040516102989a999897969594939291906141e0565b60405180910390f35b6102bb60048036038101906102b69190613fd5565b610be3565b6040516102d0999897969594939291906142bc565b60405180910390f35b6102f360048036038101906102ee9190614197565b61106f565b6040516103099a999897969594939291906141e0565b60405180910390f35b61031a61149e565b604051610327919061401d565b60405180910390f35b6103386114b1565b005b610354600480360381019061034f9190613e98565b611556565b6040516103619190613f55565b60405180910390f35b610372611602565b60405161037f919061401d565b60405180910390f35b6103a2600480360381019061039d9190613fd5565b61161d565b6040516103af9190613f55565b60405180910390f35b6103d260048036038101906103cd9190613fd5565b6116bd565b6040516103df919061401d565b60405180910390f35b61040260048036038101906103fd9190613e98565b6116dd565b60405161040f919061437a565b60405180910390f35b610432600480360381019061042d9190613fd5565b61171c565b005b61043c6117f0565b6040516104499190614453565b60405180910390f35b61046c60048036038101906104679190613fd5565b61187e565b005b610476611b55565b6040516104839190614453565b60405180910390f35b6104a660048036038101906104a19190614475565b611be3565b005b6104c260048036038101906104bd9190613fd5565b611ec2565b6040516104cf919061471b565b60405180910390f35b6104f260048036038101906104ed9190613fd5565b612a30565b6040516104ff919061401d565b60405180910390f35b610522600480360381019061051d9190613fd5565b612a50565b60405161053a9c9b9a9998979695949392919061473d565b60405180910390f35b61055d6004803603810190610558919061482f565b612f2a565b005b61057960048036038101906105749190613fd5565b613223565b604051610586919061401d565b60405180910390f35b6105a960048036038101906105a49190614197565b613243565b6040516105b6919061401d565b60405180910390f35b6105d960048036038101906105d49190613fd5565b613279565b6040516105e69190614b0e565b60405180910390f35b6105f76137f9565b6040516106049190614047565b60405180910390f35b61062760048036038101906106229190613e98565b6137ff565b6040516106349190613f55565b60405180910390f35b61065760048036038101906106529190613e98565b6138ab565b6040516106649190614047565b60405180910390f35b61068760048036038101906106829190614197565b6138c6565b60405161069d9a999897969594939291906141e0565b60405180910390f35b6106ae613cf5565b6040516106bb9190614047565b60405180910390f35b6106cc613cfb565b6040516106d9919061437a565b60405180910390f35b600981815481106106f257600080fd5b90600052602060002001600091509050805461070d90614b5f565b80601f016020809104026020016040519081016040528092919081815260200182805461073990614b5f565b80156107865780601f1061075b57610100808354040283529160200191610786565b820191906000526020600020905b81548152906001019060200180831161076957829003601f168201915b505050505081565b60076020528060005260406000206000915054906101000a900460ff1681565b60005481565b6002818051602081018201805184825260208301602085012081835280955050505050506000915090508060000180546107ed90614b5f565b80601f016020809104026020016040519081016040528092919081815260200182805461081990614b5f565b80156108665780601f1061083b57610100808354040283529160200191610866565b820191906000526020600020905b81548152906001019060200180831161084957829003601f168201915b50505050509080600101805461087b90614b5f565b80601f01602080910402602001604051908101604052809291908181526020018280546108a790614b5f565b80156108f45780601f106108c9576101008083540402835291602001916108f4565b820191906000526020600020905b8154815290600101906020018083116108d757829003601f168201915b50505050509080600201805461090990614b5f565b80601f016020809104026020016040519081016040528092919081815260200182805461093590614b5f565b80156109825780601f1061095757610100808354040283529160200191610982565b820191906000526020600020905b81548152906001019060200180831161096557829003601f168201915b50505050509080600301805461099790614b5f565b80601f01602080910402602001604051908101604052809291908181526020018280546109c390614b5f565b8015610a105780601f106109e557610100808354040283529160200191610a10565b820191906000526020600020905b8154815290600101906020018083116109f357829003601f168201915b505050505090806004015490806005018054610a2b90614b5f565b80601f0160208091040260200160405190810160405280929190818152602001828054610a5790614b5f565b8015610aa45780601f10610a7957610100808354040283529160200191610aa4565b820191906000526020600020905b815481529060010190602001808311610a8757829003601f168201915b505050505090806006018054610ab990614b5f565b80601f0160208091040260200160405190810160405280929190818152602001828054610ae590614b5f565b8015610b325780601f10610b0757610100808354040283529160200191610b32565b820191906000526020600020905b815481529060010190602001808311610b1557829003601f168201915b505050505090806007018054610b4790614b5f565b80601f0160208091040260200160405190810160405280929190818152602001828054610b7390614b5f565b8015610bc05780601f10610b9557610100808354040283529160200191610bc0565b820191906000526020600020905b815481529060010190602001808311610ba357829003601f168201915b5050505050908060080160009054906101000a900460ff1690806009015490508a565b6000606080606080606060006060806000601960008c73ffffffffffffffffffffffffffffffffffffffff1673ffffffffffffffffffffffffffffffffffffffff16815260200190815260200160002090508060000160009054906101000a900473ffffffffffffffffffffffffffffffffffffffff16816001018260020183600301846004018560060186600501548760070188600901878054610c8790614b5f565b80601f0160208091040260200160405190810160405280929190818152602001828054610cb390614b5f565b8015610d005780601f10610cd557610100808354040283529160200191610d00565b820191906000526020600020905b815481529060010190602001808311610ce357829003601f168201915b50505050509750868054610d1390614b5f565b80601f0160208091040260200160405190810160405280929190818152602001828054610d3f90614b5f565b8015610d8c5780601f10610d6157610100808354040283529160200191610d8c565b820191906000526020600020905b815481529060010190602001808311610d6f57829003601f168201915b50505050509650858054610d9f90614b5f565b80601f0160208091040260200160405190810160405280929190818152602001828054610dcb90614b5f565b8015610e185780601f10610ded57610100808354040283529160200191610e18565b820191906000526020600020905b815481529060010190602001808311610dfb57829003601f168201915b50505050509550848054610e2b90614b5f565b80601f0160208091040260200160405190810160405280929190818152602001828054610e5790614b5f565b8015610ea45780601f10610e7957610100808354040283529160200191610ea4565b820191906000526020600020905b815481529060010190602001808311610e8757829003601f168201915b50505050509450838054610eb790614b5f565b80601f0160208091040260200160405190810160405280929190818152602001828054610ee390614b5f565b8015610f305780601f10610f0557610100808354040283529160200191610f30565b820191906000526020600020905b815481529060010190602001808311610f1357829003601f168201915b50505050509350818054610f4390614b5f565b80601f0160208091040260200160405190810160405280929190818152602001828054610f6f90614b5f565b8015610fbc5780601f10610f9157610100808354040283529160200191610fbc565b820191906000526020600020905b815481529060010190602001808311610f9f57829003601f168201915b50505050509150808054610fcf90614b5f565b80601f0160208091040260200160405190810160405280929190818152602001828054610ffb90614b5f565b80156110485780601f1061101d57610100808354040283529160200191611048565b820191906000526020600020905b81548152906001019060200180831161102b57829003601f168201915b50505050509050995099509950995099509950995099509950509193959799909294969850565b6004818051602081018201805184825260208301602085012081835280955050505050506000915090508060000180546110a890614b5f565b80601f01602080910402602001604051908101604052809291908181526020018280546110d490614b5f565b80156111215780601f106110f657610100808354040283529160200191611121565b820191906000526020600020905b81548152906001019060200180831161110457829003601f168201915b50505050509080600101805461113690614b5f565b80601f016020809104026020016040519081016040528092919081815260200182805461116290614b5f565b80156111af5780601f10611184576101008083540402835291602001916111af565b820191906000526020600020905b81548152906001019060200180831161119257829003601f168201915b5050505050908060020180546111c490614b5f565b80601f01602080910402602001604051908101604052809291908181526020018280546111f090614b5f565b801561123d5780601f106112125761010080835404028352916020019161123d565b820191906000526020600020905b81548152906001019060200180831161122057829003601f168201915b50505050509080600301805461125290614b5f565b80601f016020809104026020016040519081016040528092919081815260200182805461127e90614b5f565b80156112cb5780601f106112a0576101008083540402835291602001916112cb565b820191906000526020600020905b8154815290600101906020018083116112ae57829003601f168201915b5050505050908060040154908060050180546112e690614b5f565b80601f016020809104026020016040519081016040528092919081815260200182805461131290614b5f565b801561135f5780601f106113345761010080835404028352916020019161135f565b820191906000526020600020905b81548152906001019060200180831161134257829003601f168201915b50505050509080600601805461137490614b5f565b80601f01602080910402602001604051908101604052809291908181526020018280546113a090614b5f565b80156113ed5780601f106113c2576101008083540402835291602001916113ed565b820191906000526020600020905b8154815290600101906020018083116113d057829003601f168201915b50505050509080600701805461140290614b5f565b80601f016020809104026020016040519081016040528092919081815260200182805461142e90614b5f565b801561147b5780601f106114505761010080835404028352916020019161147b565b820191906000526020600020905b81548152906001019060200180831161145e57829003601f168201915b5050505050908060080160009054906101000a900460ff1690806009015490508a565b601860009054906101000a900460ff1681565b6000601a60003373ffffffffffffffffffffffffffffffffffffffff1673ffffffffffffffffffffffffffffffffffffffff16815260200190815260200160002060006101000a81548160ff021916908315150217905550601b60003373ffffffffffffffffffffffffffffffffffffffff1673ffffffffffffffffffffffffffffffffffffffff16815260200190815260200160002060006115549190613d21565b565b600a818154811061156657600080fd5b90600052602060002001600091509050805461158190614b5f565b80601f01602080910402602001604051908101604052809291908181526020018280546115ad90614b5f565b80156115fa5780601f106115cf576101008083540402835291602001916115fa565b820191906000526020600020905b8154815290600101906020018083116115dd57829003601f168201915b505050505081565b6000601554421015801561161857506016544211155b905090565b601b602052806000526040600020600091509050805461163c90614b5f565b80601f016020809104026020016040519081016040528092919081815260200182805461166890614b5f565b80156116b55780601f1061168a576101008083540402835291602001916116b5565b820191906000526020600020905b81548152906001019060200180831161169857829003601f168201915b505050505081565b60056020528060005260406000206000915054906101000a900460ff1681565b601c81815481106116ed57600080fd5b906000526020600020016000915054906101000a900473ffffffffffffffffffffffffffffffffffffffff1681565b601460009054906101000a900473ffffffffffffffffffffffffffffffffffffffff1673ffffffffffffffffffffffffffffffffffffffff163373ffffffffffffffffffffffffffffffffffffffff16146117ac576040517f08c379a00000000000000000000000000000000000000000000000000000000081526004016117a390614c02565b60405180910390fd5b80601460006101000a81548173ffffffffffffffffffffffffffffffffffffffff021916908373ffffffffffffffffffffffffffffffffffffffff16021790555050565b6060601c80548060200260200160405190810160405280929190818152602001828054801561187457602002820191906000526020600020905b8160009054906101000a900473ffffffffffffffffffffffffffffffffffffffff1673ffffffffffffffffffffffffffffffffffffffff168152602001906001019080831161182a575b5050505050905090565b601960008273ffffffffffffffffffffffffffffffffffffffff1673ffffffffffffffffffffffffffffffffffffffff168152602001908152602001600020600080820160006101000a81549073ffffffffffffffffffffffffffffffffffffffff02191690556001820160006118f59190613d21565b6002820160006119059190613d21565b6003820160006119159190613d21565b6004820160006119259190613d21565b600582016000905560068201600061193d9190613d21565b60078201600061194d9190613d21565b60088201600061195d9190613d21565b60098201600061196d9190613d21565b600a820160006101000a81549060ff0219169055600a820160016101000a81549060ff0219169055505060005b601c80549050811015611b51578173ffffffffffffffffffffffffffffffffffffffff16601c82815481106119d2576119d1614c22565b5b9060005260206000200160009054906101000a900473ffffffffffffffffffffffffffffffffffffffff1673ffffffffffffffffffffffffffffffffffffffff1603611b3e5760008190505b6001601c80549050611a309190614c80565b811015611af157601c600182611a469190614cb4565b81548110611a5757611a56614c22565b5b9060005260206000200160009054906101000a900473ffffffffffffffffffffffffffffffffffffffff16601c8281548110611a9657611a95614c22565b5b9060005260206000200160006101000a81548173ffffffffffffffffffffffffffffffffffffffff021916908373ffffffffffffffffffffffffffffffffffffffff1602179055508080611ae990614ce8565b915050611a1e565b50601c805480611b0457611b03614d30565b5b6001900381819060005260206000200160006101000a81549073ffffffffffffffffffffffffffffffffffffffff02191690559055611b51565b8080611b4990614ce8565b91505061199a565b5050565b6060601c805480602002602001604051908101604052809291908181526020018280548015611bd957602002820191906000526020600020905b8160009054906101000a900473ffffffffffffffffffffffffffffffffffffffff1673ffffffffffffffffffffffffffffffffffffffff1681526020019060010190808311611b8f575b5050505050905090565b601960003373ffffffffffffffffffffffffffffffffffffffff1673ffffffffffffffffffffffffffffffffffffffff168152602001908152602001600020600a0160009054906101000a900460ff16611c72576040517f08c379a0000000000000000000000000000000000000000000000000000000008152600401611c6990614dab565b60405180910390fd5b6000828051906020012050602060ff16118015611c9c57506000818051906020012050602060ff16115b611cdb576040517f08c379a0000000000000000000000000000000000000000000000000000000008152600401611cd290614e3d565b60405180910390fd5b8180519060200120601960003373ffffffffffffffffffffffffffffffffffffffff1673ffffffffffffffffffffffffffffffffffffffff168152602001908152602001600020600601604051611d329190614f00565b604051809103902014611d7a576040517f08c379a0000000000000000000000000000000000000000000000000000000008152600401611d7190614f63565b60405180910390fd5b8080519060200120601960003373ffffffffffffffffffffffffffffffffffffffff1673ffffffffffffffffffffffffffffffffffffffff168152602001908152602001600020600801604051611dd19190614f00565b604051809103902014611e19576040517f08c379a0000000000000000000000000000000000000000000000000000000008152600401611e1090614fcf565b60405180910390fd5b6001601a60003373ffffffffffffffffffffffffffffffffffffffff1673ffffffffffffffffffffffffffffffffffffffff16815260200190815260200160002060006101000a81548160ff02191690831515021790555081601b60003373ffffffffffffffffffffffffffffffffffffffff1673ffffffffffffffffffffffffffffffffffffffff1681526020019081526020016000209081611ebd919061519b565b505050565b60606000601960008473ffffffffffffffffffffffffffffffffffffffff1673ffffffffffffffffffffffffffffffffffffffff168152602001908152602001600020604051806101800160405290816000820160009054906101000a900473ffffffffffffffffffffffffffffffffffffffff1673ffffffffffffffffffffffffffffffffffffffff1673ffffffffffffffffffffffffffffffffffffffff168152602001600182018054611f7790614b5f565b80601f0160208091040260200160405190810160405280929190818152602001828054611fa390614b5f565b8015611ff05780601f10611fc557610100808354040283529160200191611ff0565b820191906000526020600020905b815481529060010190602001808311611fd357829003601f168201915b5050505050815260200160028201805461200990614b5f565b80601f016020809104026020016040519081016040528092919081815260200182805461203590614b5f565b80156120825780601f1061205757610100808354040283529160200191612082565b820191906000526020600020905b81548152906001019060200180831161206557829003601f168201915b5050505050815260200160038201805461209b90614b5f565b80601f01602080910402602001604051908101604052809291908181526020018280546120c790614b5f565b80156121145780601f106120e957610100808354040283529160200191612114565b820191906000526020600020905b8154815290600101906020018083116120f757829003601f168201915b5050505050815260200160048201805461212d90614b5f565b80601f016020809104026020016040519081016040528092919081815260200182805461215990614b5f565b80156121a65780601f1061217b576101008083540402835291602001916121a6565b820191906000526020600020905b81548152906001019060200180831161218957829003601f168201915b50505050508152602001600582015481526020016006820180546121c990614b5f565b80601f01602080910402602001604051908101604052809291908181526020018280546121f590614b5f565b80156122425780601f1061221757610100808354040283529160200191612242565b820191906000526020600020905b81548152906001019060200180831161222557829003601f168201915b5050505050815260200160078201805461225b90614b5f565b80601f016020809104026020016040519081016040528092919081815260200182805461228790614b5f565b80156122d45780601f106122a9576101008083540402835291602001916122d4565b820191906000526020600020905b8154815290600101906020018083116122b757829003601f168201915b505050505081526020016008820180546122ed90614b5f565b80601f016020809104026020016040519081016040528092919081815260200182805461231990614b5f565b80156123665780601f1061233b57610100808354040283529160200191612366565b820191906000526020600020905b81548152906001019060200180831161234957829003601f168201915b5050505050815260200160098201805461237f90614b5f565b80601f01602080910402602001604051908101604052809291908181526020018280546123ab90614b5f565b80156123f85780601f106123cd576101008083540402835291602001916123f8565b820191906000526020600020905b8154815290600101906020018083116123db57829003601f168201915b50505050508152602001600a820160009054906101000a900460ff16151515158152602001600a820160019054906101000a900460ff161515151581525050905060008160600151905060008260e0015190506000600a8054905067ffffffffffffffff81111561246c5761246b61406c565b5b6040519080825280602002602001820160405280156124a557816020015b612492613d61565b81526020019060019003908161248a5790505b50905060005b600a80549050811015612a235783805190602001206004600a83815481106124d6576124d5614c22565b5b906000526020600020016040516124ed91906152fb565b908152602001604051809103902060020160405161250b9190614f00565b6040518091039020148015612578575082805190602001206004600a838154811061253957612538614c22565b5b9060005260206000200160405161255091906152fb565b908152602001604051809103902060060160405161256e9190614f00565b6040518091039020145b15612a10576003600a828154811061259357612592614c22565b5b906000526020600020016040516125aa91906152fb565b9081526020016040518091039020604051806101400160405290816000820180546125d490614b5f565b80601f016020809104026020016040519081016040528092919081815260200182805461260090614b5f565b801561264d5780601f106126225761010080835404028352916020019161264d565b820191906000526020600020905b81548152906001019060200180831161263057829003601f168201915b5050505050815260200160018201805461266690614b5f565b80601f016020809104026020016040519081016040528092919081815260200182805461269290614b5f565b80156126df5780601f106126b4576101008083540402835291602001916126df565b820191906000526020600020905b8154815290600101906020018083116126c257829003601f168201915b505050505081526020016002820180546126f890614b5f565b80601f016020809104026020016040519081016040528092919081815260200182805461272490614b5f565b80156127715780601f1061274657610100808354040283529160200191612771565b820191906000526020600020905b81548152906001019060200180831161275457829003601f168201915b5050505050815260200160038201805461278a90614b5f565b80601f01602080910402602001604051908101604052809291908181526020018280546127b690614b5f565b80156128035780601f106127d857610100808354040283529160200191612803565b820191906000526020600020905b8154815290600101906020018083116127e657829003601f168201915b505050505081526020016004820154815260200160058201805461282690614b5f565b80601f016020809104026020016040519081016040528092919081815260200182805461285290614b5f565b801561289f5780601f106128745761010080835404028352916020019161289f565b820191906000526020600020905b81548152906001019060200180831161288257829003601f168201915b505050505081526020016006820180546128b890614b5f565b80601f01602080910402602001604051908101604052809291908181526020018280546128e490614b5f565b80156129315780601f1061290657610100808354040283529160200191612931565b820191906000526020600020905b81548152906001019060200180831161291457829003601f168201915b5050505050815260200160078201805461294a90614b5f565b80601f016020809104026020016040519081016040528092919081815260200182805461297690614b5f565b80156129c35780601f10612998576101008083540402835291602001916129c3565b820191906000526020600020905b8154815290600101906020018083116129a657829003601f168201915b505050505081526020016008820160009054906101000a900460ff16151515158152602001600982015481525050828281518110612a0457612a03614c22565b5b60200260200101819052505b8080612a1b90614ce8565b9150506124ab565b5080945050505050919050565b60066020528060005260406000206000915054906101000a900460ff1681565b60196020528060005260406000206000915090508060000160009054906101000a900473ffffffffffffffffffffffffffffffffffffffff1690806001018054612a9990614b5f565b80601f0160208091040260200160405190810160405280929190818152602001828054612ac590614b5f565b8015612b125780601f10612ae757610100808354040283529160200191612b12565b820191906000526020600020905b815481529060010190602001808311612af557829003601f168201915b505050505090806002018054612b2790614b5f565b80601f0160208091040260200160405190810160405280929190818152602001828054612b5390614b5f565b8015612ba05780601f10612b7557610100808354040283529160200191612ba0565b820191906000526020600020905b815481529060010190602001808311612b8357829003601f168201915b505050505090806003018054612bb590614b5f565b80601f0160208091040260200160405190810160405280929190818152602001828054612be190614b5f565b8015612c2e5780601f10612c0357610100808354040283529160200191612c2e565b820191906000526020600020905b815481529060010190602001808311612c1157829003601f168201915b505050505090806004018054612c4390614b5f565b80601f0160208091040260200160405190810160405280929190818152602001828054612c6f90614b5f565b8015612cbc5780601f10612c9157610100808354040283529160200191612cbc565b820191906000526020600020905b815481529060010190602001808311612c9f57829003601f168201915b505050505090806005015490806006018054612cd790614b5f565b80601f0160208091040260200160405190810160405280929190818152602001828054612d0390614b5f565b8015612d505780601f10612d2557610100808354040283529160200191612d50565b820191906000526020600020905b815481529060010190602001808311612d3357829003601f168201915b505050505090806007018054612d6590614b5f565b80601f0160208091040260200160405190810160405280929190818152602001828054612d9190614b5f565b8015612dde5780601f10612db357610100808354040283529160200191612dde565b820191906000526020600020905b815481529060010190602001808311612dc157829003601f168201915b505050505090806008018054612df390614b5f565b80601f0160208091040260200160405190810160405280929190818152602001828054612e1f90614b5f565b8015612e6c5780601f10612e4157610100808354040283529160200191612e6c565b820191906000526020600020905b815481529060010190602001808311612e4f57829003601f168201915b505050505090806009018054612e8190614b5f565b80601f0160208091040260200160405190810160405280929190818152602001828054612ead90614b5f565b8015612efa5780601f10612ecf57610100808354040283529160200191612efa565b820191906000526020600020905b815481529060010190602001808311612edd57829003601f168201915b50505050509080600a0160009054906101000a900460ff169080600a0160019054906101000a900460ff1690508c565b601960003373ffffffffffffffffffffffffffffffffffffffff1673ffffffffffffffffffffffffffffffffffffffff168152602001908152602001600020600a0160009054906101000a900460ff1615612fba576040517f08c379a0000000000000000000000000000000000000000000000000000000008152600401612fb19061535e565b60405180910390fd5b60006040518061018001604052803373ffffffffffffffffffffffffffffffffffffffff1681526020018b81526020018a815260200189815260200188815260200187815260200186815260200185815260200184815260200183815260200160011515815260200160001515815250905080601960003373ffffffffffffffffffffffffffffffffffffffff1673ffffffffffffffffffffffffffffffffffffffff16815260200190815260200160002060008201518160000160006101000a81548173ffffffffffffffffffffffffffffffffffffffff021916908373ffffffffffffffffffffffffffffffffffffffff16021790555060208201518160010190816130c8919061519b565b5060408201518160020190816130de919061519b565b5060608201518160030190816130f4919061519b565b50608082015181600401908161310a919061519b565b5060a0820151816005015560c082015181600601908161312a919061519b565b5060e0820151816007019081613140919061519b565b50610100820151816008019081613157919061519b565b5061012082015181600901908161316e919061519b565b5061014082015181600a0160006101000a81548160ff02191690831515021790555061016082015181600a0160016101000a81548160ff021916908315150217905550905050601c339080600181540180825580915050600190039060005260206000200160009091909190916101000a81548173ffffffffffffffffffffffffffffffffffffffff021916908373ffffffffffffffffffffffffffffffffffffffff16021790555050505050505050505050565b601a6020528060005260406000206000915054906101000a900460ff1681565b6001818051602081018201805184825260208301602085012081835280955050505050506000915054906101000a900460ff1681565b613281613db6565b601960008373ffffffffffffffffffffffffffffffffffffffff1673ffffffffffffffffffffffffffffffffffffffff168152602001908152602001600020604051806101800160405290816000820160009054906101000a900473ffffffffffffffffffffffffffffffffffffffff1673ffffffffffffffffffffffffffffffffffffffff1673ffffffffffffffffffffffffffffffffffffffff16815260200160018201805461333290614b5f565b80601f016020809104026020016040519081016040528092919081815260200182805461335e90614b5f565b80156133ab5780601f10613380576101008083540402835291602001916133ab565b820191906000526020600020905b81548152906001019060200180831161338e57829003601f168201915b505050505081526020016002820180546133c490614b5f565b80601f01602080910402602001604051908101604052809291908181526020018280546133f090614b5f565b801561343d5780601f106134125761010080835404028352916020019161343d565b820191906000526020600020905b81548152906001019060200180831161342057829003601f168201915b5050505050815260200160038201805461345690614b5f565b80601f016020809104026020016040519081016040528092919081815260200182805461348290614b5f565b80156134cf5780601f106134a4576101008083540402835291602001916134cf565b820191906000526020600020905b8154815290600101906020018083116134b257829003601f168201915b505050505081526020016004820180546134e890614b5f565b80601f016020809104026020016040519081016040528092919081815260200182805461351490614b5f565b80156135615780601f1061353657610100808354040283529160200191613561565b820191906000526020600020905b81548152906001019060200180831161354457829003601f168201915b505050505081526020016005820154815260200160068201805461358490614b5f565b80601f01602080910402602001604051908101604052809291908181526020018280546135b090614b5f565b80156135fd5780601f106135d2576101008083540402835291602001916135fd565b820191906000526020600020905b8154815290600101906020018083116135e057829003601f168201915b5050505050815260200160078201805461361690614b5f565b80601f016020809104026020016040519081016040528092919081815260200182805461364290614b5f565b801561368f5780601f106136645761010080835404028352916020019161368f565b820191906000526020600020905b81548152906001019060200180831161367257829003601f168201915b505050505081526020016008820180546136a890614b5f565b80601f01602080910402602001604051908101604052809291908181526020018280546136d490614b5f565b80156137215780601f106136f657610100808354040283529160200191613721565b820191906000526020600020905b81548152906001019060200180831161370457829003601f168201915b5050505050815260200160098201805461373a90614b5f565b80601f016020809104026020016040519081016040528092919081815260200182805461376690614b5f565b80156137b35780601f10613788576101008083540402835291602001916137b3565b820191906000526020600020905b81548152906001019060200180831161379657829003601f168201915b50505050508152602001600a820160009054906101000a900460ff16151515158152602001600a820160019054906101000a900460ff1615151515815250509050919050565b600b5481565b6008818154811061380f57600080fd5b90600052602060002001600091509050805461382a90614b5f565b80601f016020809104026020016040519081016040528092919081815260200182805461385690614b5f565b80156138a35780601f10613878576101008083540402835291602001916138a3565b820191906000526020600020905b81548152906001019060200180831161388657829003601f168201915b505050505081565b600c81600781106138bb57600080fd5b016000915090505481565b6003818051602081018201805184825260208301602085012081835280955050505050506000915090508060000180546138ff90614b5f565b80601f016020809104026020016040519081016040528092919081815260200182805461392b90614b5f565b80156139785780601f1061394d57610100808354040283529160200191613978565b820191906000526020600020905b81548152906001019060200180831161395b57829003601f168201915b50505050509080600101805461398d90614b5f565b80601f01602080910402602001604051908101604052809291908181526020018280546139b990614b5f565b8015613a065780601f106139db57610100808354040283529160200191613a06565b820191906000526020600020905b8154815290600101906020018083116139e957829003601f168201915b505050505090806002018054613a1b90614b5f565b80601f0160208091040260200160405190810160405280929190818152602001828054613a4790614b5f565b8015613a945780601f10613a6957610100808354040283529160200191613a94565b820191906000526020600020905b815481529060010190602001808311613a7757829003601f168201915b505050505090806003018054613aa990614b5f565b80601f0160208091040260200160405190810160405280929190818152602001828054613ad590614b5f565b8015613b225780601f10613af757610100808354040283529160200191613b22565b820191906000526020600020905b815481529060010190602001808311613b0557829003601f168201915b505050505090806004015490806005018054613b3d90614b5f565b80601f0160208091040260200160405190810160405280929190818152602001828054613b6990614b5f565b8015613bb65780601f10613b8b57610100808354040283529160200191613bb6565b820191906000526020600020905b815481529060010190602001808311613b9957829003601f168201915b505050505090806006018054613bcb90614b5f565b80601f0160208091040260200160405190810160405280929190818152602001828054613bf790614b5f565b8015613c445780601f10613c1957610100808354040283529160200191613c44565b820191906000526020600020905b815481529060010190602001808311613c2757829003601f168201915b505050505090806007018054613c5990614b5f565b80601f0160208091040260200160405190810160405280929190818152602001828054613c8590614b5f565b8015613cd25780601f10613ca757610100808354040283529160200191613cd2565b820191906000526020600020905b815481529060010190602001808311613cb557829003601f168201915b5050505050908060080160009054906101000a900460ff1690806009015490508a565b60135481565b601460009054906101000a900473ffffffffffffffffffffffffffffffffffffffff1681565b508054613d2d90614b5f565b6000825580601f10613d3f5750613d5e565b601f016020900490600052602060002090810190613d5d9190613e31565b5b50565b6040518061014001604052806060815260200160608152602001606081526020016060815260200160008152602001606081526020016060815260200160608152602001600015158152602001600081525090565b604051806101800160405280600073ffffffffffffffffffffffffffffffffffffffff1681526020016060815260200160608152602001606081526020016060815260200160008152602001606081526020016060815260200160608152602001606081526020016000151581526020016000151581525090565b5b80821115613e4a576000816000905550600101613e32565b5090565b6000604051905090565b600080fd5b600080fd5b6000819050919050565b613e7581613e62565b8114613e8057600080fd5b50565b600081359050613e9281613e6c565b92915050565b600060208284031215613eae57613ead613e58565b5b6000613ebc84828501613e83565b91505092915050565b600081519050919050565b600082825260208201905092915050565b60005b83811015613eff578082015181840152602081019050613ee4565b60008484015250505050565b6000601f19601f8301169050919050565b6000613f2782613ec5565b613f318185613ed0565b9350613f41818560208601613ee1565b613f4a81613f0b565b840191505092915050565b60006020820190508181036000830152613f6f8184613f1c565b905092915050565b600073ffffffffffffffffffffffffffffffffffffffff82169050919050565b6000613fa282613f77565b9050919050565b613fb281613f97565b8114613fbd57600080fd5b50565b600081359050613fcf81613fa9565b92915050565b600060208284031215613feb57613fea613e58565b5b6000613ff984828501613fc0565b91505092915050565b60008115159050919050565b61401781614002565b82525050565b6000602082019050614032600083018461400e565b92915050565b61404181613e62565b82525050565b600060208201905061405c6000830184614038565b92915050565b600080fd5b600080fd5b7f4e487b7100000000000000000000000000000000000000000000000000000000600052604160045260246000fd5b6140a482613f0b565b810181811067ffffffffffffffff821117156140c3576140c261406c565b5b80604052505050565b60006140d6613e4e565b90506140e2828261409b565b919050565b600067ffffffffffffffff8211156141025761410161406c565b5b61410b82613f0b565b9050602081019050919050565b82818337600083830152505050565b600061413a614135846140e7565b6140cc565b90508281526020810184848401111561415657614155614067565b5b614161848285614118565b509392505050565b600082601f83011261417e5761417d614062565b5b813561418e848260208601614127565b91505092915050565b6000602082840312156141ad576141ac613e58565b5b600082013567ffffffffffffffff8111156141cb576141ca613e5d565b5b6141d784828501614169565b91505092915050565b60006101408201905081810360008301526141fb818d613f1c565b9050818103602083015261420f818c613f1c565b90508181036040830152614223818b613f1c565b90508181036060830152614237818a613f1c565b90506142466080830189614038565b81810360a08301526142588188613f1c565b905081810360c083015261426c8187613f1c565b905081810360e08301526142808186613f1c565b905061429061010083018561400e565b61429e610120830184614038565b9b9a5050505050505050505050565b6142b681613f97565b82525050565b6000610120820190506142d2600083018c6142ad565b81810360208301526142e4818b613f1c565b905081810360408301526142f8818a613f1c565b9050818103606083015261430c8189613f1c565b905081810360808301526143208188613f1c565b905081810360a08301526143348187613f1c565b905061434360c0830186614038565b81810360e08301526143558185613f1c565b905081810361010083015261436a8184613f1c565b90509a9950505050505050505050565b600060208201905061438f60008301846142ad565b92915050565b600081519050919050565b600082825260208201905092915050565b6000819050602082019050919050565b6143ca81613f97565b82525050565b60006143dc83836143c1565b60208301905092915050565b6000602082019050919050565b600061440082614395565b61440a81856143a0565b9350614415836143b1565b8060005b8381101561444657815161442d88826143d0565b9750614438836143e8565b925050600181019050614419565b5085935050505092915050565b6000602082019050818103600083015261446d81846143f5565b905092915050565b6000806040838503121561448c5761448b613e58565b5b600083013567ffffffffffffffff8111156144aa576144a9613e5d565b5b6144b685828601614169565b925050602083013567ffffffffffffffff8111156144d7576144d6613e5d565b5b6144e385828601614169565b9150509250929050565b600081519050919050565b600082825260208201905092915050565b6000819050602082019050919050565b600082825260208201905092915050565b600061453582613ec5565b61453f8185614519565b935061454f818560208601613ee1565b61455881613f0b565b840191505092915050565b61456c81613e62565b82525050565b61457b81614002565b82525050565b600061014083016000830151848203600086015261459f828261452a565b915050602083015184820360208601526145b9828261452a565b915050604083015184820360408601526145d3828261452a565b915050606083015184820360608601526145ed828261452a565b91505060808301516146026080860182614563565b5060a083015184820360a086015261461a828261452a565b91505060c083015184820360c0860152614634828261452a565b91505060e083015184820360e086015261464e828261452a565b915050610100830151614665610100860182614572565b5061012083015161467a610120860182614563565b508091505092915050565b60006146918383614581565b905092915050565b6000602082019050919050565b60006146b1826144ed565b6146bb81856144f8565b9350836020820285016146cd85614509565b8060005b8581101561470957848403895281516146ea8582614685565b94506146f583614699565b925060208a019950506001810190506146d1565b50829750879550505050505092915050565b6000602082019050818103600083015261473581846146a6565b905092915050565b600061018082019050614753600083018f6142ad565b8181036020830152614765818e613f1c565b90508181036040830152614779818d613f1c565b9050818103606083015261478d818c613f1c565b905081810360808301526147a1818b613f1c565b90506147b060a083018a614038565b81810360c08301526147c28189613f1c565b905081810360e08301526147d68188613f1c565b90508181036101008301526147eb8187613f1c565b90508181036101208301526148008186613f1c565b905061481061014083018561400e565b61481e61016083018461400e565b9d9c50505050505050505050505050565b60008060008060008060008060006101208a8c03121561485257614851613e58565b5b60008a013567ffffffffffffffff8111156148705761486f613e5d565b5b61487c8c828d01614169565b99505060208a013567ffffffffffffffff81111561489d5761489c613e5d565b5b6148a98c828d01614169565b98505060408a013567ffffffffffffffff8111156148ca576148c9613e5d565b5b6148d68c828d01614169565b97505060608a013567ffffffffffffffff8111156148f7576148f6613e5d565b5b6149038c828d01614169565b96505060806149148c828d01613e83565b95505060a08a013567ffffffffffffffff81111561493557614934613e5d565b5b6149418c828d01614169565b94505060c08a013567ffffffffffffffff81111561496257614961613e5d565b5b61496e8c828d01614169565b93505060e08a013567ffffffffffffffff81111561498f5761498e613e5d565b5b61499b8c828d01614169565b9250506101008a013567ffffffffffffffff8111156149bd576149bc613e5d565b5b6149c98c828d01614169565b9150509295985092959850929598565b6000610180830160008301516149f260008601826143c1565b5060208301518482036020860152614a0a828261452a565b91505060408301518482036040860152614a24828261452a565b91505060608301518482036060860152614a3e828261452a565b91505060808301518482036080860152614a58828261452a565b91505060a0830151614a6d60a0860182614563565b5060c083015184820360c0860152614a85828261452a565b91505060e083015184820360e0860152614a9f828261452a565b915050610100830151848203610100860152614abb828261452a565b915050610120830151848203610120860152614ad7828261452a565b915050610140830151614aee610140860182614572565b50610160830151614b03610160860182614572565b508091505092915050565b60006020820190508181036000830152614b2881846149d9565b905092915050565b7f4e487b7100000000000000000000000000000000000000000000000000000000600052602260045260246000fd5b60006002820490506001821680614b7757607f821691505b602082108103614b8a57614b89614b30565b5b50919050565b7f4f6e6c792061646d696e2063616e20706572666f726d2074686973206163746960008201527f6f6e000000000000000000000000000000000000000000000000000000000000602082015250565b6000614bec602283613ed0565b9150614bf782614b90565b604082019050919050565b60006020820190508181036000830152614c1b81614bdf565b9050919050565b7f4e487b7100000000000000000000000000000000000000000000000000000000600052603260045260246000fd5b7f4e487b7100000000000000000000000000000000000000000000000000000000600052601160045260246000fd5b6000614c8b82613e62565b9150614c9683613e62565b9250828203905081811115614cae57614cad614c51565b5b92915050565b6000614cbf82613e62565b9150614cca83613e62565b9250828201905080821115614ce257614ce1614c51565b5b92915050565b6000614cf382613e62565b91507fffffffffffffffffffffffffffffffffffffffffffffffffffffffffffffffff8203614d2557614d24614c51565b5b600182019050919050565b7f4e487b7100000000000000000000000000000000000000000000000000000000600052603160045260246000fd5b7f596f7572206163636f756e74206973206e6f7420726567697374657265642100600082015250565b6000614d95601f83613ed0565b9150614da082614d5f565b602082019050919050565b60006020820190508181036000830152614dc481614d88565b9050919050565b7f557365726e616d6520616e642070617373776f72642063616e6e6f742062652060008201527f656d707479000000000000000000000000000000000000000000000000000000602082015250565b6000614e27602583613ed0565b9150614e3282614dcb565b604082019050919050565b60006020820190508181036000830152614e5681614e1a565b9050919050565b600081905092915050565b60008190508160005260206000209050919050565b60008154614e8a81614b5f565b614e948186614e5d565b94506001821660008114614eaf5760018114614ec457614ef7565b60ff1983168652811515820286019350614ef7565b614ecd85614e68565b60005b83811015614eef57815481890152600182019150602081019050614ed0565b838801955050505b50505092915050565b6000614f0c8284614e7d565b915081905092915050565b7f496e76616c696420726567697374726174696f6e206e756d6265720000000000600082015250565b6000614f4d601b83613ed0565b9150614f5882614f17565b602082019050919050565b60006020820190508181036000830152614f7c81614f40565b9050919050565b7f496e76616c69642070617373776f726400000000000000000000000000000000600082015250565b6000614fb9601083613ed0565b9150614fc482614f83565b602082019050919050565b60006020820190508181036000830152614fe881614fac565b9050919050565b60008190508160005260206000209050919050565b60006020601f8301049050919050565b600082821b905092915050565b6000600883026150517fffffffffffffffffffffffffffffffffffffffffffffffffffffffffffffffff82615014565b61505b8683615014565b95508019841693508086168417925050509392505050565b6000819050919050565b600061509861509361508e84613e62565b615073565b613e62565b9050919050565b6000819050919050565b6150b28361507d565b6150c66150be8261509f565b848454615021565b825550505050565b600090565b6150db6150ce565b6150e68184846150a9565b505050565b5b8181101561510a576150ff6000826150d3565b6001810190506150ec565b5050565b601f82111561514f5761512081614fef565b61512984615004565b81016020851015615138578190505b61514c61514485615004565b8301826150eb565b50505b505050565b600082821c905092915050565b600061517260001984600802615154565b1980831691505092915050565b600061518b8383615161565b9150826002028217905092915050565b6151a482613ec5565b67ffffffffffffffff8111156151bd576151bc61406c565b5b6151c78254614b5f565b6151d282828561510e565b600060209050601f83116001811461520557600084156151f3578287015190505b6151fd858261517f565b865550615265565b601f19841661521386614fef565b60005b8281101561523b57848901518255600182019150602085019450602081019050615216565b868310156152585784890151615254601f891682615161565b8355505b6001600288020188555050505b505050505050565b600081905092915050565b6000815461528581614b5f565b61528f818661526d565b945060018216600081146152aa57600181146152bf576152f2565b60ff19831686528115158202860193506152f2565b6152c885614fef565b60005b838110156152ea578154818901526001820191506020810190506152cb565b838801955050505b50505092915050565b60006153078284615278565b915081905092915050565b7f566f74657220697320616c726561647920726567697374657265640000000000600082015250565b6000615348601b83613ed0565b915061535382615312565b602082019050919050565b600060208201905081810360008301526153778161533b565b905091905056fea2646970667358221220533994a3c771347300fd7ae4f85b8f8cc9d7e4019e2aca3cb52d65da284e440864736f6c63430008130033",
  "immutableReferences": {},
  "source": "// SPDX-License-Identifier: MIT\npragma solidity ^0.8.0;\nimport \"./CandidateStructure.sol\";\nimport \"./AccessControl.sol\";\nimport \"./TimeStructure.sol\";\n\ncontract VoterContract is CandidateStructure, AccessControl, TimeStructure{\n\n     // Data structure for a voter\n    struct Voter {   \n        address voterAddress; \n        string firstName; \n        string lastName;\n        string collegeName;\n        string programName;\n        uint256 yearOfStudy;\n        string regNo;\n        string blockNumber;\n        string password;\n        string gender;\n        bool isRegistered;\n        bool voted;\n    }\n\n    mapping(address => Voter) public voters;\n    mapping(address => bool) public hasLogedin;\n    mapping(address => string) public voterSession;\n    address[] public voterAddressArray;\n\n    function getVoter( address _voterAddress) public view returns (Voter memory)\n    {\n        return voters[_voterAddress];\n    }\n\n    // function getHasLoggedIn( address _voterAddress) public view returns (bool)\n    // {\n    //     return hasLoggedIn[_voterAddress];\n    // }\n\n    // function getVoterSession( address _voterAddress) public view returns (string storage)\n    // {\n    //     return voterSession[_voterAddress];\n    // }\n\n    function getVoterAddressArray() public view returns (address[] memory)\n    {\n        return voterAddressArray;\n    }\n\n    // event NewVoterRegistered( string firstName, string lastName, string collegeName, string programName, uint256 yearOfStudy, string regNo, string blockNumber, string gender);\n\n    function registerVoter( string memory _firstName, string memory _lastName, string memory _collegeName, string memory _programName, uint256 _yearOfStudy, \n    string memory _regNo,string memory _blockNumber, string memory _password, string memory _gender) public\n    {\n        require(!voters[msg.sender].isRegistered, \"Voter is already registered\");\n        Voter memory newVoter = Voter({\n            voterAddress: msg.sender,\n            firstName: _firstName,\n            lastName: _lastName,\n            collegeName: _collegeName, \n            programName: _programName, \n            yearOfStudy: _yearOfStudy, \n            regNo: _regNo, \n            blockNumber: _blockNumber, \n            password: _password, \n            gender: _gender,\n            isRegistered: true, \n            voted: false\n        });\n        voters[msg.sender] = newVoter;\n        voterAddressArray.push(msg.sender);\n        // emit NewVoterRegistered( _firstName, _lastName, _collegeName, _programName, _yearOfStudy, _regNo, _blockNumber, _gender);\n    }\n\n    function getVoterRegNumbers() public view returns (address[] memory){\n        return voterAddressArray;\n    }\n\n\n    function viewVoter(address vtAddress) public view returns (address voterAddress,string memory firstName,string memory lastName,string memory collegeName,string memory programName,string memory regNo,uint256 yearOfStudy,string memory blockNumber,string memory gender) {\n    // require(voters[vtAddress].exists, \"Voter does not exist\");\n        Voter storage voter = voters[vtAddress]; \n        return (voter.voterAddress,voter.firstName,voter.lastName,voter.collegeName,voter.programName,voter.regNo,voter.yearOfStudy,voter.blockNumber,voter.gender);\n    }\n\n\n    // voter can view candidate of the corresponding area of vote\n    function voterViewBlockLeader(address addressVoter) public view returns(Candidate[] memory){\n\n        Voter memory newVoter = voters[addressVoter];\n        string memory voterCollegeName = newVoter.collegeName;\n        string memory voterBlockNumber = newVoter.blockNumber;\n\n        Candidate[] memory result = new Candidate[](blockLeaderList.length);        \n        for(uint i = 0; i < blockLeaderList.length; i++){\n            if(keccak256(bytes(candidateBlockLeader[blockLeaderList[i]].collegeName)) == keccak256(bytes(voterCollegeName)) && keccak256(bytes(candidateBlockLeader[blockLeaderList[i]].blockNumber)) == keccak256(bytes(voterBlockNumber))){\n                result[i] = candidateGovernor[blockLeaderList[i]];  \n            }            \n        }\n        return result;\n    }\n\n    \n\n    function getVotingStatus() public view returns(bool) {\n        return (block.timestamp >= startTime && block.timestamp <= endTime);\n    }\n\n    function deleteVoter(address _voterAddress) public {\n        delete voters[_voterAddress];\n        for (uint256 i = 0; i < voterAddressArray.length; i++) {\n            if (voterAddressArray[i] == _voterAddress) {\n                for (uint256 j = i; j < voterAddressArray.length - 1; j++) {\n                    voterAddressArray[j] = voterAddressArray[j + 1];\n                }\n                voterAddressArray.pop();\n                break;\n            }\n        }\n    }\n    \n    function voterLogin(string memory _regNo, string memory _password) public {\n        require(voters[msg.sender].isRegistered, \"Your account is not registered!\");\n        require(keccak256(bytes(_regNo)).length > 0 && keccak256(bytes(_password)).length > 0, \"Username and password cannot be empty\");\n        require(keccak256(bytes(voters[msg.sender].regNo)) == keccak256(bytes(_regNo)), \"Invalid registration number\");\n        require(keccak256(bytes(voters[msg.sender].password)) == keccak256(bytes(_password)), \"Invalid password\");\n        hasLogedin[msg.sender] = true;\n        voterSession[msg.sender] = _regNo;\n\n    }\n\n    function logout() public {\n        hasLogedin[msg.sender] = false;\n        delete voterSession[msg.sender];\n    }\n\n \n}",
  "sourcePath": "/home/temba/Documents/SmartContract/client/contracts/VoterContract.sol",
  "compiler": {
    "name": "solc",
    "version": "0.8.19+commit.7dd6d404.Emscripten.clang"
  },
  "schemaVersion": "3.4.14",
  "updatedAt": "2023-06-21T10:05:41.725Z",
  "networkType": "ethereum",
  "devdoc": {
    "kind": "dev",
    "methods": {},
    "version": 1
  },
  "userdoc": {
    "kind": "user",
    "methods": {},
    "version": 1
  }
}