{
  "contractName": "VoterRegistry",
  "abi": [
    {
      "inputs": [],
      "name": "admin",
      "outputs": [
        {
          "internalType": "address",
          "name": "",
          "type": "address"
        }
      ],
      "stateMutability": "view",
      "type": "function"
    },
    {
      "inputs": [
        {
          "internalType": "uint256",
          "name": "",
          "type": "uint256"
        }
      ],
      "name": "blockLeaderList",
      "outputs": [
        {
          "internalType": "string",
          "name": "",
          "type": "string"
        }
      ],
      "stateMutability": "view",
      "type": "function"
    },
    {
      "inputs": [
        {
          "internalType": "address",
          "name": "",
          "type": "address"
        }
      ],
      "name": "blockLeaderVoted",
      "outputs": [
        {
          "internalType": "bool",
          "name": "",
          "type": "bool"
        }
      ],
      "stateMutability": "view",
      "type": "function"
    },
    {
      "inputs": [
        {
          "internalType": "string",
          "name": "",
          "type": "string"
        }
      ],
      "name": "candidateBlockLeader",
      "outputs": [
        {
          "internalType": "string",
          "name": "firstName",
          "type": "string"
        },
        {
          "internalType": "string",
          "name": "lastName",
          "type": "string"
        },
        {
          "internalType": "string",
          "name": "collegeName",
          "type": "string"
        },
        {
          "internalType": "string",
          "name": "programName",
          "type": "string"
        },
        {
          "internalType": "uint256",
          "name": "yearOfStudy",
          "type": "uint256"
        },
        {
          "internalType": "string",
          "name": "regNo",
          "type": "string"
        },
        {
          "internalType": "string",
          "name": "blockNumber",
          "type": "string"
        },
        {
          "internalType": "string",
          "name": "gender",
          "type": "string"
        },
        {
          "internalType": "bool",
          "name": "isWinner",
          "type": "bool"
        },
        {
          "internalType": "uint256",
          "name": "voteCount",
          "type": "uint256"
        }
      ],
      "stateMutability": "view",
      "type": "function"
    },
    {
      "inputs": [
        {
          "internalType": "string",
          "name": "",
          "type": "string"
        }
      ],
      "name": "candidateGovernor",
      "outputs": [
        {
          "internalType": "string",
          "name": "firstName",
          "type": "string"
        },
        {
          "internalType": "string",
          "name": "lastName",
          "type": "string"
        },
        {
          "internalType": "string",
          "name": "collegeName",
          "type": "string"
        },
        {
          "internalType": "string",
          "name": "programName",
          "type": "string"
        },
        {
          "internalType": "uint256",
          "name": "yearOfStudy",
          "type": "uint256"
        },
        {
          "internalType": "string",
          "name": "regNo",
          "type": "string"
        },
        {
          "internalType": "string",
          "name": "blockNumber",
          "type": "string"
        },
        {
          "internalType": "string",
          "name": "gender",
          "type": "string"
        },
        {
          "internalType": "bool",
          "name": "isWinner",
          "type": "bool"
        },
        {
          "internalType": "uint256",
          "name": "voteCount",
          "type": "uint256"
        }
      ],
      "stateMutability": "view",
      "type": "function"
    },
    {
      "inputs": [
        {
          "internalType": "string",
          "name": "",
          "type": "string"
        }
      ],
      "name": "candidatePresident",
      "outputs": [
        {
          "internalType": "string",
          "name": "firstName",
          "type": "string"
        },
        {
          "internalType": "string",
          "name": "lastName",
          "type": "string"
        },
        {
          "internalType": "string",
          "name": "collegeName",
          "type": "string"
        },
        {
          "internalType": "string",
          "name": "programName",
          "type": "string"
        },
        {
          "internalType": "uint256",
          "name": "yearOfStudy",
          "type": "uint256"
        },
        {
          "internalType": "string",
          "name": "regNo",
          "type": "string"
        },
        {
          "internalType": "string",
          "name": "blockNumber",
          "type": "string"
        },
        {
          "internalType": "string",
          "name": "gender",
          "type": "string"
        },
        {
          "internalType": "bool",
          "name": "isWinner",
          "type": "bool"
        },
        {
          "internalType": "uint256",
          "name": "voteCount",
          "type": "uint256"
        }
      ],
      "stateMutability": "view",
      "type": "function"
    },
    {
      "inputs": [],
      "name": "getRemainingTime",
      "outputs": [
        {
          "internalType": "uint256",
          "name": "",
          "type": "uint256"
        }
      ],
      "stateMutability": "view",
      "type": "function"
    },
    {
      "inputs": [],
      "name": "getTime",
      "outputs": [
        {
          "internalType": "uint256",
          "name": "startTime",
          "type": "uint256"
        },
        {
          "internalType": "uint256",
          "name": "endTime",
          "type": "uint256"
        }
      ],
      "stateMutability": "view",
      "type": "function"
    },
    {
      "inputs": [
        {
          "internalType": "uint256",
          "name": "",
          "type": "uint256"
        }
      ],
      "name": "governorList",
      "outputs": [
        {
          "internalType": "string",
          "name": "",
          "type": "string"
        }
      ],
      "stateMutability": "view",
      "type": "function"
    },
    {
      "inputs": [
        {
          "internalType": "address",
          "name": "",
          "type": "address"
        }
      ],
      "name": "governorVoted",
      "outputs": [
        {
          "internalType": "bool",
          "name": "",
          "type": "bool"
        }
      ],
      "stateMutability": "view",
      "type": "function"
    },
    {
      "inputs": [
        {
          "internalType": "address",
          "name": "",
          "type": "address"
        }
      ],
      "name": "hasLogedin",
      "outputs": [
        {
          "internalType": "bool",
          "name": "",
          "type": "bool"
        }
      ],
      "stateMutability": "view",
      "type": "function"
    },
    {
      "inputs": [],
      "name": "isInitiated",
      "outputs": [
        {
          "internalType": "bool",
          "name": "",
          "type": "bool"
        }
      ],
      "stateMutability": "view",
      "type": "function"
    },
    {
      "inputs": [
        {
          "internalType": "string",
          "name": "",
          "type": "string"
        }
      ],
      "name": "isRegistered",
      "outputs": [
        {
          "internalType": "bool",
          "name": "",
          "type": "bool"
        }
      ],
      "stateMutability": "view",
      "type": "function"
    },
    {
      "inputs": [],
      "name": "numberOfBlockLeader",
      "outputs": [
        {
          "internalType": "uint256",
          "name": "",
          "type": "uint256"
        }
      ],
      "stateMutability": "view",
      "type": "function"
    },
    {
      "inputs": [
        {
          "internalType": "uint256",
          "name": "",
          "type": "uint256"
        }
      ],
      "name": "numberOfGovernor",
      "outputs": [
        {
          "internalType": "uint256",
          "name": "",
          "type": "uint256"
        }
      ],
      "stateMutability": "view",
      "type": "function"
    },
    {
      "inputs": [],
      "name": "numberOfPresident",
      "outputs": [
        {
          "internalType": "uint256",
          "name": "",
          "type": "uint256"
        }
      ],
      "stateMutability": "view",
      "type": "function"
    },
    {
      "inputs": [
        {
          "internalType": "uint256",
          "name": "",
          "type": "uint256"
        }
      ],
      "name": "presidentList",
      "outputs": [
        {
          "internalType": "string",
          "name": "",
          "type": "string"
        }
      ],
      "stateMutability": "view",
      "type": "function"
    },
    {
      "inputs": [
        {
          "internalType": "address",
          "name": "",
          "type": "address"
        }
      ],
      "name": "presidentVoted",
      "outputs": [
        {
          "internalType": "bool",
          "name": "",
          "type": "bool"
        }
      ],
      "stateMutability": "view",
      "type": "function"
    },
    {
      "inputs": [
        {
          "internalType": "uint256",
          "name": "_startTime",
          "type": "uint256"
        },
        {
          "internalType": "uint256",
          "name": "_endTime",
          "type": "uint256"
        }
      ],
      "name": "setVotingPeriod",
      "outputs": [],
      "stateMutability": "nonpayable",
      "type": "function"
    },
    {
      "inputs": [],
      "name": "totalVotes",
      "outputs": [
        {
          "internalType": "uint256",
          "name": "",
          "type": "uint256"
        }
      ],
      "stateMutability": "view",
      "type": "function"
    },
    {
      "inputs": [
        {
          "internalType": "address",
          "name": "newAdmin",
          "type": "address"
        }
      ],
      "name": "transferAdmin",
      "outputs": [],
      "stateMutability": "nonpayable",
      "type": "function"
    },
    {
      "inputs": [
        {
          "internalType": "uint256",
          "name": "",
          "type": "uint256"
        }
      ],
      "name": "voterAddressArray",
      "outputs": [
        {
          "internalType": "address",
          "name": "",
          "type": "address"
        }
      ],
      "stateMutability": "view",
      "type": "function"
    },
    {
      "inputs": [
        {
          "internalType": "address",
          "name": "",
          "type": "address"
        }
      ],
      "name": "voterSession",
      "outputs": [
        {
          "internalType": "string",
          "name": "",
          "type": "string"
        }
      ],
      "stateMutability": "view",
      "type": "function"
    },
    {
      "inputs": [
        {
          "internalType": "address",
          "name": "",
          "type": "address"
        }
      ],
      "name": "voters",
      "outputs": [
        {
          "internalType": "address",
          "name": "voterAddress",
          "type": "address"
        },
        {
          "internalType": "string",
          "name": "firstName",
          "type": "string"
        },
        {
          "internalType": "string",
          "name": "lastName",
          "type": "string"
        },
        {
          "internalType": "string",
          "name": "collegeName",
          "type": "string"
        },
        {
          "internalType": "string",
          "name": "programName",
          "type": "string"
        },
        {
          "internalType": "uint256",
          "name": "yearOfStudy",
          "type": "uint256"
        },
        {
          "internalType": "string",
          "name": "regNo",
          "type": "string"
        },
        {
          "internalType": "string",
          "name": "blockNumber",
          "type": "string"
        },
        {
          "internalType": "string",
          "name": "password",
          "type": "string"
        },
        {
          "internalType": "string",
          "name": "gender",
          "type": "string"
        },
        {
          "internalType": "bool",
          "name": "isRegistered",
          "type": "bool"
        },
        {
          "internalType": "bool",
          "name": "voted",
          "type": "bool"
        }
      ],
      "stateMutability": "view",
      "type": "function"
    },
    {
      "inputs": [
        {
          "internalType": "string",
          "name": "_firstName",
          "type": "string"
        },
        {
          "internalType": "string",
          "name": "_lastName",
          "type": "string"
        },
        {
          "internalType": "string",
          "name": "_collegeName",
          "type": "string"
        },
        {
          "internalType": "string",
          "name": "_programName",
          "type": "string"
        },
        {
          "internalType": "uint256",
          "name": "_yearOfStudy",
          "type": "uint256"
        },
        {
          "internalType": "string",
          "name": "_regNo",
          "type": "string"
        },
        {
          "internalType": "string",
          "name": "_blockNumber",
          "type": "string"
        },
        {
          "internalType": "string",
          "name": "_password",
          "type": "string"
        },
        {
          "internalType": "string",
          "name": "_gender",
          "type": "string"
        }
      ],
      "name": "registerVoter",
      "outputs": [],
      "stateMutability": "nonpayable",
      "type": "function"
    },
    {
      "inputs": [],
      "name": "getVoterRegNumbers",
      "outputs": [
        {
          "internalType": "address[]",
          "name": "",
          "type": "address[]"
        }
      ],
      "stateMutability": "view",
      "type": "function"
    },
    {
      "inputs": [],
      "name": "viewRegisteredVoters",
      "outputs": [
        {
          "components": [
            {
              "internalType": "address",
              "name": "voterAddress",
              "type": "address"
            },
            {
              "internalType": "string",
              "name": "firstName",
              "type": "string"
            },
            {
              "internalType": "string",
              "name": "lastName",
              "type": "string"
            },
            {
              "internalType": "string",
              "name": "collegeName",
              "type": "string"
            },
            {
              "internalType": "string",
              "name": "programName",
              "type": "string"
            },
            {
              "internalType": "uint256",
              "name": "yearOfStudy",
              "type": "uint256"
            },
            {
              "internalType": "string",
              "name": "regNo",
              "type": "string"
            },
            {
              "internalType": "string",
              "name": "blockNumber",
              "type": "string"
            },
            {
              "internalType": "string",
              "name": "password",
              "type": "string"
            },
            {
              "internalType": "string",
              "name": "gender",
              "type": "string"
            },
            {
              "internalType": "bool",
              "name": "isRegistered",
              "type": "bool"
            },
            {
              "internalType": "bool",
              "name": "voted",
              "type": "bool"
            }
          ],
          "internalType": "struct VoterStructure.Voter[]",
          "name": "",
          "type": "tuple[]"
        }
      ],
      "stateMutability": "view",
      "type": "function"
    },
    {
      "inputs": [
        {
          "internalType": "address",
          "name": "vtAddress",
          "type": "address"
        }
      ],
      "name": "viewVoter",
      "outputs": [
        {
          "internalType": "address",
          "name": "voterAddress",
          "type": "address"
        },
        {
          "internalType": "string",
          "name": "firstName",
          "type": "string"
        },
        {
          "internalType": "string",
          "name": "lastName",
          "type": "string"
        },
        {
          "internalType": "string",
          "name": "collegeName",
          "type": "string"
        },
        {
          "internalType": "string",
          "name": "programName",
          "type": "string"
        },
        {
          "internalType": "string",
          "name": "regNo",
          "type": "string"
        },
        {
          "internalType": "uint256",
          "name": "yearOfStudy",
          "type": "uint256"
        },
        {
          "internalType": "string",
          "name": "blockNumber",
          "type": "string"
        },
        {
          "internalType": "string",
          "name": "gender",
          "type": "string"
        }
      ],
      "stateMutability": "view",
      "type": "function"
    },
    {
      "inputs": [
        {
          "internalType": "string",
          "name": "_presidentRegNo",
          "type": "string"
        }
      ],
      "name": "castVotePresident",
      "outputs": [],
      "stateMutability": "nonpayable",
      "type": "function"
    },
    {
      "inputs": [
        {
          "internalType": "string",
          "name": "_regNo",
          "type": "string"
        },
        {
          "internalType": "string",
          "name": "_password",
          "type": "string"
        }
      ],
      "name": "voterLogin",
      "outputs": [],
      "stateMutability": "nonpayable",
      "type": "function"
    },
    {
      "inputs": [],
      "name": "logout",
      "outputs": [],
      "stateMutability": "nonpayable",
      "type": "function"
    }
  ],
  "bytecode": "0x608060405234801561001057600080fd5b5033601860006101000a81548173ffffffffffffffffffffffffffffffffffffffff021916908373ffffffffffffffffffffffffffffffffffffffff1602179055506152d6806100616000396000f3fe608060405234801561001057600080fd5b50600436106101e55760003560e01c806399cab9da1161010f578063d6f36304116100a2578063efb98bcf11610071578063efb98bcf1461062a578063f644502614610648578063f6ffc11714610681578063f851a4401461069f576101e5565b8063d6f3630414610590578063dccea189146105ac578063e316db4e146105ca578063e6b52a33146105fa576101e5565b8063b010b574116100de578063b010b574146104f6578063b9e18f0314610512578063bf08128f14610530578063c822d7f014610560576101e5565b806399cab9da14610453578063a0b0df951461046f578063a15a36c71461049f578063a3ec138d146104bb576101e5565b80631f3c99c3116101875780635f8b9972116101565780635f8b9972146103b957806371b7ddb8146103e957806375829def146104195780637edf4f6d14610435576101e5565b80631f3c99c31461033057806345a8a2be1461033a578063557ed1ba1461036a5780635b6e990c14610389576101e5565b8063166b4722116101c3578063166b47221461026857806316d0b773146102a15780631ac45f52146102d95780631cb5991414610312576101e5565b806302aac7b2146101ea578063052fbf8c1461021a5780630d15fd771461024a575b600080fd5b61020460048036038101906101ff919061380a565b6106bd565b60405161021191906138c7565b60405180910390f35b610234600480360381019061022f9190613947565b610769565b604051610241919061398f565b60405180910390f35b610252610789565b60405161025f91906139b9565b60405180910390f35b610282600480360381019061027d9190613b09565b61078f565b6040516102989a99989796959493929190613b52565b60405180910390f35b6102bb60048036038101906102b69190613947565b610bbe565b6040516102d099989796959493929190613c2e565b60405180910390f35b6102f360048036038101906102ee9190613b09565b611049565b6040516103099a99989796959493929190613b52565b60405180910390f35b61031a611478565b604051610327919061398f565b60405180910390f35b61033861148b565b005b610354600480360381019061034f919061380a565b611530565b60405161036191906138c7565b60405180910390f35b6103726115dc565b604051610380929190613cec565b60405180910390f35b6103a3600480360381019061039e9190613947565b611673565b6040516103b091906138c7565b60405180910390f35b6103d360048036038101906103ce9190613947565b611713565b6040516103e0919061398f565b60405180910390f35b61040360048036038101906103fe919061380a565b611733565b6040516104109190613d15565b60405180910390f35b610433600480360381019061042e9190613947565b611772565b005b61043d611846565b60405161044a9190613dee565b60405180910390f35b61046d60048036038101906104689190613e10565b6118d4565b005b61048960048036038101906104849190613947565b611baf565b604051610496919061398f565b60405180910390f35b6104b960048036038101906104b49190613e88565b611bcf565b005b6104d560048036038101906104d09190613947565b611d14565b6040516104ed9c9b9a99989796959493929190613ec8565b60405180910390f35b610510600480360381019061050b9190613fba565b6121ee565b005b61051a612853565b60405161052791906143c3565b60405180910390f35b61054a60048036038101906105459190613947565b612f31565b604051610557919061398f565b60405180910390f35b61057a60048036038101906105759190613b09565b612f51565b604051610587919061398f565b60405180910390f35b6105aa60048036038101906105a59190613b09565b612f87565b005b6105b4613152565b6040516105c191906139b9565b60405180910390f35b6105e460048036038101906105df919061380a565b613158565b6040516105f191906138c7565b60405180910390f35b610614600480360381019061060f919061380a565b613204565b60405161062191906139b9565b60405180910390f35b61063261321f565b60405161063f91906139b9565b60405180910390f35b610662600480360381019061065d9190613b09565b61328d565b6040516106789a99989796959493929190613b52565b60405180910390f35b6106896136bc565b60405161069691906139b9565b60405180910390f35b6106a76136c2565b6040516106b49190613d15565b60405180910390f35b600d81815481106106cd57600080fd5b9060005260206000200160009150905080546106e890614414565b80601f016020809104026020016040519081016040528092919081815260200182805461071490614414565b80156107615780601f1061073657610100808354040283529160200191610761565b820191906000526020600020905b81548152906001019060200180831161074457829003601f168201915b505050505081565b600b6020528060005260406000206000915054906101000a900460ff1681565b60045481565b6006818051602081018201805184825260208301602085012081835280955050505050506000915090508060000180546107c890614414565b80601f01602080910402602001604051908101604052809291908181526020018280546107f490614414565b80156108415780601f1061081657610100808354040283529160200191610841565b820191906000526020600020905b81548152906001019060200180831161082457829003601f168201915b50505050509080600101805461085690614414565b80601f016020809104026020016040519081016040528092919081815260200182805461088290614414565b80156108cf5780601f106108a4576101008083540402835291602001916108cf565b820191906000526020600020905b8154815290600101906020018083116108b257829003601f168201915b5050505050908060020180546108e490614414565b80601f016020809104026020016040519081016040528092919081815260200182805461091090614414565b801561095d5780601f106109325761010080835404028352916020019161095d565b820191906000526020600020905b81548152906001019060200180831161094057829003601f168201915b50505050509080600301805461097290614414565b80601f016020809104026020016040519081016040528092919081815260200182805461099e90614414565b80156109eb5780601f106109c0576101008083540402835291602001916109eb565b820191906000526020600020905b8154815290600101906020018083116109ce57829003601f168201915b505050505090806004015490806005018054610a0690614414565b80601f0160208091040260200160405190810160405280929190818152602001828054610a3290614414565b8015610a7f5780601f10610a5457610100808354040283529160200191610a7f565b820191906000526020600020905b815481529060010190602001808311610a6257829003601f168201915b505050505090806006018054610a9490614414565b80601f0160208091040260200160405190810160405280929190818152602001828054610ac090614414565b8015610b0d5780601f10610ae257610100808354040283529160200191610b0d565b820191906000526020600020905b815481529060010190602001808311610af057829003601f168201915b505050505090806007018054610b2290614414565b80601f0160208091040260200160405190810160405280929190818152602001828054610b4e90614414565b8015610b9b5780601f10610b7057610100808354040283529160200191610b9b565b820191906000526020600020905b815481529060010190602001808311610b7e57829003601f168201915b5050505050908060080160009054906101000a900460ff1690806009015490508a565b60006060806060806060600060608060008060008c73ffffffffffffffffffffffffffffffffffffffff1673ffffffffffffffffffffffffffffffffffffffff16815260200190815260200160002090508060000160009054906101000a900473ffffffffffffffffffffffffffffffffffffffff16816001018260020183600301846004018560060186600501548760070188600901878054610c6190614414565b80601f0160208091040260200160405190810160405280929190818152602001828054610c8d90614414565b8015610cda5780601f10610caf57610100808354040283529160200191610cda565b820191906000526020600020905b815481529060010190602001808311610cbd57829003601f168201915b50505050509750868054610ced90614414565b80601f0160208091040260200160405190810160405280929190818152602001828054610d1990614414565b8015610d665780601f10610d3b57610100808354040283529160200191610d66565b820191906000526020600020905b815481529060010190602001808311610d4957829003601f168201915b50505050509650858054610d7990614414565b80601f0160208091040260200160405190810160405280929190818152602001828054610da590614414565b8015610df25780601f10610dc757610100808354040283529160200191610df2565b820191906000526020600020905b815481529060010190602001808311610dd557829003601f168201915b50505050509550848054610e0590614414565b80601f0160208091040260200160405190810160405280929190818152602001828054610e3190614414565b8015610e7e5780601f10610e5357610100808354040283529160200191610e7e565b820191906000526020600020905b815481529060010190602001808311610e6157829003601f168201915b50505050509450838054610e9190614414565b80601f0160208091040260200160405190810160405280929190818152602001828054610ebd90614414565b8015610f0a5780601f10610edf57610100808354040283529160200191610f0a565b820191906000526020600020905b815481529060010190602001808311610eed57829003601f168201915b50505050509350818054610f1d90614414565b80601f0160208091040260200160405190810160405280929190818152602001828054610f4990614414565b8015610f965780601f10610f6b57610100808354040283529160200191610f96565b820191906000526020600020905b815481529060010190602001808311610f7957829003601f168201915b50505050509150808054610fa990614414565b80601f0160208091040260200160405190810160405280929190818152602001828054610fd590614414565b80156110225780601f10610ff757610100808354040283529160200191611022565b820191906000526020600020905b81548152906001019060200180831161100557829003601f168201915b50505050509050995099509950995099509950995099509950509193959799909294969850565b60088180516020810182018051848252602083016020850120818352809550505050505060009150905080600001805461108290614414565b80601f01602080910402602001604051908101604052809291908181526020018280546110ae90614414565b80156110fb5780601f106110d0576101008083540402835291602001916110fb565b820191906000526020600020905b8154815290600101906020018083116110de57829003601f168201915b50505050509080600101805461111090614414565b80601f016020809104026020016040519081016040528092919081815260200182805461113c90614414565b80156111895780601f1061115e57610100808354040283529160200191611189565b820191906000526020600020905b81548152906001019060200180831161116c57829003601f168201915b50505050509080600201805461119e90614414565b80601f01602080910402602001604051908101604052809291908181526020018280546111ca90614414565b80156112175780601f106111ec57610100808354040283529160200191611217565b820191906000526020600020905b8154815290600101906020018083116111fa57829003601f168201915b50505050509080600301805461122c90614414565b80601f016020809104026020016040519081016040528092919081815260200182805461125890614414565b80156112a55780601f1061127a576101008083540402835291602001916112a5565b820191906000526020600020905b81548152906001019060200180831161128857829003601f168201915b5050505050908060040154908060050180546112c090614414565b80601f01602080910402602001604051908101604052809291908181526020018280546112ec90614414565b80156113395780601f1061130e57610100808354040283529160200191611339565b820191906000526020600020905b81548152906001019060200180831161131c57829003601f168201915b50505050509080600601805461134e90614414565b80601f016020809104026020016040519081016040528092919081815260200182805461137a90614414565b80156113c75780601f1061139c576101008083540402835291602001916113c7565b820191906000526020600020905b8154815290600101906020018083116113aa57829003601f168201915b5050505050908060070180546113dc90614414565b80601f016020809104026020016040519081016040528092919081815260200182805461140890614414565b80156114555780601f1061142a57610100808354040283529160200191611455565b820191906000526020600020905b81548152906001019060200180831161143857829003601f168201915b5050505050908060080160009054906101000a900460ff1690806009015490508a565b601c60009054906101000a900460ff1681565b6000600160003373ffffffffffffffffffffffffffffffffffffffff1673ffffffffffffffffffffffffffffffffffffffff16815260200190815260200160002060006101000a81548160ff021916908315150217905550600260003373ffffffffffffffffffffffffffffffffffffffff1673ffffffffffffffffffffffffffffffffffffffff168152602001908152602001600020600061152e91906136e8565b565b600e818154811061154057600080fd5b90600052602060002001600091509050805461155b90614414565b80601f016020809104026020016040519081016040528092919081815260200182805461158790614414565b80156115d45780601f106115a9576101008083540402835291602001916115d4565b820191906000526020600020905b8154815290600101906020018083116115b757829003601f168201915b505050505081565b600080601860009054906101000a900473ffffffffffffffffffffffffffffffffffffffff1673ffffffffffffffffffffffffffffffffffffffff163373ffffffffffffffffffffffffffffffffffffffff161461166f576040517f08c379a0000000000000000000000000000000000000000000000000000000008152600401611666906144b7565b60405180910390fd5b9091565b6002602052806000526040600020600091509050805461169290614414565b80601f01602080910402602001604051908101604052809291908181526020018280546116be90614414565b801561170b5780601f106116e05761010080835404028352916020019161170b565b820191906000526020600020905b8154815290600101906020018083116116ee57829003601f168201915b505050505081565b60096020528060005260406000206000915054906101000a900460ff1681565b6003818154811061174357600080fd5b906000526020600020016000915054906101000a900473ffffffffffffffffffffffffffffffffffffffff1681565b601860009054906101000a900473ffffffffffffffffffffffffffffffffffffffff1673ffffffffffffffffffffffffffffffffffffffff163373ffffffffffffffffffffffffffffffffffffffff1614611802576040517f08c379a00000000000000000000000000000000000000000000000000000000081526004016117f9906144b7565b60405180910390fd5b80601860006101000a81548173ffffffffffffffffffffffffffffffffffffffff021916908373ffffffffffffffffffffffffffffffffffffffff16021790555050565b606060038054806020026020016040519081016040528092919081815260200182805480156118ca57602002820191906000526020600020905b8160009054906101000a900473ffffffffffffffffffffffffffffffffffffffff1673ffffffffffffffffffffffffffffffffffffffff1681526020019060010190808311611880575b5050505050905090565b6000803373ffffffffffffffffffffffffffffffffffffffff1673ffffffffffffffffffffffffffffffffffffffff168152602001908152602001600020600a0160009054906101000a900460ff16611962576040517f08c379a000000000000000000000000000000000000000000000000000000000815260040161195990614523565b60405180910390fd5b6000828051906020012050602060ff1611801561198c57506000818051906020012050602060ff16115b6119cb576040517f08c379a00000000000000000000000000000000000000000000000000000000081526004016119c2906145b5565b60405180910390fd5b81805190602001206000803373ffffffffffffffffffffffffffffffffffffffff1673ffffffffffffffffffffffffffffffffffffffff168152602001908152602001600020600601604051611a219190614678565b604051809103902014611a69576040517f08c379a0000000000000000000000000000000000000000000000000000000008152600401611a60906146db565b60405180910390fd5b80805190602001206000803373ffffffffffffffffffffffffffffffffffffffff1673ffffffffffffffffffffffffffffffffffffffff168152602001908152602001600020600801604051611abf9190614678565b604051809103902014611b07576040517f08c379a0000000000000000000000000000000000000000000000000000000008152600401611afe90614747565b60405180910390fd5b60018060003373ffffffffffffffffffffffffffffffffffffffff1673ffffffffffffffffffffffffffffffffffffffff16815260200190815260200160002060006101000a81548160ff02191690831515021790555081600260003373ffffffffffffffffffffffffffffffffffffffff1673ffffffffffffffffffffffffffffffffffffffff1681526020019081526020016000209081611baa9190614913565b505050565b600a6020528060005260406000206000915054906101000a900460ff1681565b601860009054906101000a900473ffffffffffffffffffffffffffffffffffffffff1673ffffffffffffffffffffffffffffffffffffffff163373ffffffffffffffffffffffffffffffffffffffff1614611c5f576040517f08c379a0000000000000000000000000000000000000000000000000000000008152600401611c56906144b7565b60405180910390fd5b818111611ca1576040517f08c379a0000000000000000000000000000000000000000000000000000000008152600401611c9890614a31565b60405180910390fd5b60008282611caf9190614a80565b90506001601c60006101000a81548160ff021916908315150217905550600183611cd99190614ab4565b42611ce49190614af6565b601981905550600182611cf79190614ab4565b42611d029190614af6565b601a8190555080601b81905550505050565b60006020528060005260406000206000915090508060000160009054906101000a900473ffffffffffffffffffffffffffffffffffffffff1690806001018054611d5d90614414565b80601f0160208091040260200160405190810160405280929190818152602001828054611d8990614414565b8015611dd65780601f10611dab57610100808354040283529160200191611dd6565b820191906000526020600020905b815481529060010190602001808311611db957829003601f168201915b505050505090806002018054611deb90614414565b80601f0160208091040260200160405190810160405280929190818152602001828054611e1790614414565b8015611e645780601f10611e3957610100808354040283529160200191611e64565b820191906000526020600020905b815481529060010190602001808311611e4757829003601f168201915b505050505090806003018054611e7990614414565b80601f0160208091040260200160405190810160405280929190818152602001828054611ea590614414565b8015611ef25780601f10611ec757610100808354040283529160200191611ef2565b820191906000526020600020905b815481529060010190602001808311611ed557829003601f168201915b505050505090806004018054611f0790614414565b80601f0160208091040260200160405190810160405280929190818152602001828054611f3390614414565b8015611f805780601f10611f5557610100808354040283529160200191611f80565b820191906000526020600020905b815481529060010190602001808311611f6357829003601f168201915b505050505090806005015490806006018054611f9b90614414565b80601f0160208091040260200160405190810160405280929190818152602001828054611fc790614414565b80156120145780601f10611fe957610100808354040283529160200191612014565b820191906000526020600020905b815481529060010190602001808311611ff757829003601f168201915b50505050509080600701805461202990614414565b80601f016020809104026020016040519081016040528092919081815260200182805461205590614414565b80156120a25780601f10612077576101008083540402835291602001916120a2565b820191906000526020600020905b81548152906001019060200180831161208557829003601f168201915b5050505050908060080180546120b790614414565b80601f01602080910402602001604051908101604052809291908181526020018280546120e390614414565b80156121305780601f1061210557610100808354040283529160200191612130565b820191906000526020600020905b81548152906001019060200180831161211357829003601f168201915b50505050509080600901805461214590614414565b80601f016020809104026020016040519081016040528092919081815260200182805461217190614414565b80156121be5780601f10612193576101008083540402835291602001916121be565b820191906000526020600020905b8154815290600101906020018083116121a157829003601f168201915b50505050509080600a0160009054906101000a900460ff169080600a0160019054906101000a900460ff1690508c565b6000898051906020012050602060ff161161223e576040517f08c379a000000000000000000000000000000000000000000000000000000000815260040161223590614b9c565b60405180910390fd5b6000888051906020012050602060ff161161228e576040517f08c379a000000000000000000000000000000000000000000000000000000000815260040161228590614c2e565b60405180910390fd5b6000878051906020012050602060ff16116122de576040517f08c379a00000000000000000000000000000000000000000000000000000000081526004016122d590614cc0565b60405180910390fd5b6000868051906020012050602060ff161161232e576040517f08c379a000000000000000000000000000000000000000000000000000000000815260040161232590614d52565b60405180910390fd5b6000838051906020012050602060ff161161237e576040517f08c379a000000000000000000000000000000000000000000000000000000000815260040161237590614de4565b60405180910390fd5b6000848051906020012050602060ff16116123ce576040517f08c379a00000000000000000000000000000000000000000000000000000000081526004016123c590614e50565b60405180910390fd5b6000828051906020012050602060ff161161241e576040517f08c379a000000000000000000000000000000000000000000000000000000000815260040161241590614ee2565b60405180910390fd5b6000818051906020012050602060ff161161246e576040517f08c379a000000000000000000000000000000000000000000000000000000000815260040161246590614f4e565b60405180910390fd5b6040518060400160405280600481526020017f54494241000000000000000000000000000000000000000000000000000000008152508051906020012087805190602001200361250c576000851180156124c85750600585105b612507576040517f08c379a00000000000000000000000000000000000000000000000000000000081526004016124fe90614fba565b60405180910390fd5b61255c565b60008511801561251c5750600485105b61255b576040517f08c379a000000000000000000000000000000000000000000000000000000000815260040161255290614fba565b60405180910390fd5b5b6000803373ffffffffffffffffffffffffffffffffffffffff1673ffffffffffffffffffffffffffffffffffffffff168152602001908152602001600020600a0160009054906101000a900460ff16156125eb576040517f08c379a00000000000000000000000000000000000000000000000000000000081526004016125e290615026565b60405180910390fd5b60006040518061018001604052803373ffffffffffffffffffffffffffffffffffffffff1681526020018b81526020018a8152602001898152602001888152602001878152602001868152602001858152602001848152602001838152602001600115158152602001600015158152509050806000803373ffffffffffffffffffffffffffffffffffffffff1673ffffffffffffffffffffffffffffffffffffffff16815260200190815260200160002060008201518160000160006101000a81548173ffffffffffffffffffffffffffffffffffffffff021916908373ffffffffffffffffffffffffffffffffffffffff16021790555060208201518160010190816126f89190614913565b50604082015181600201908161270e9190614913565b5060608201518160030190816127249190614913565b50608082015181600401908161273a9190614913565b5060a0820151816005015560c082015181600601908161275a9190614913565b5060e08201518160070190816127709190614913565b506101008201518160080190816127879190614913565b5061012082015181600901908161279e9190614913565b5061014082015181600a0160006101000a81548160ff02191690831515021790555061016082015181600a0160016101000a81548160ff0219169083151502179055509050506003339080600181540180825580915050600190039060005260206000200160009091909190916101000a81548173ffffffffffffffffffffffffffffffffffffffff021916908373ffffffffffffffffffffffffffffffffffffffff16021790555050505050505050505050565b6060600060038054905067ffffffffffffffff811115612876576128756139de565b5b6040519080825280602002602001820160405280156128af57816020015b61289c613728565b8152602001906001900390816128945790505b5090506000600380548060200260200160405190810160405280929190818152602001828054801561293657602002820191906000526020600020905b8160009054906101000a900473ffffffffffffffffffffffffffffffffffffffff1673ffffffffffffffffffffffffffffffffffffffff16815260200190600101908083116128ec575b5050505050905060005b8151811015612f2857600080600383815481106129605761295f615046565b5b9060005260206000200160009054906101000a900473ffffffffffffffffffffffffffffffffffffffff1673ffffffffffffffffffffffffffffffffffffffff1673ffffffffffffffffffffffffffffffffffffffff168152602001908152602001600020604051806101800160405290816000820160009054906101000a900473ffffffffffffffffffffffffffffffffffffffff1673ffffffffffffffffffffffffffffffffffffffff1673ffffffffffffffffffffffffffffffffffffffff168152602001600182018054612a3790614414565b80601f0160208091040260200160405190810160405280929190818152602001828054612a6390614414565b8015612ab05780601f10612a8557610100808354040283529160200191612ab0565b820191906000526020600020905b815481529060010190602001808311612a9357829003601f168201915b50505050508152602001600282018054612ac990614414565b80601f0160208091040260200160405190810160405280929190818152602001828054612af590614414565b8015612b425780601f10612b1757610100808354040283529160200191612b42565b820191906000526020600020905b815481529060010190602001808311612b2557829003601f168201915b50505050508152602001600382018054612b5b90614414565b80601f0160208091040260200160405190810160405280929190818152602001828054612b8790614414565b8015612bd45780601f10612ba957610100808354040283529160200191612bd4565b820191906000526020600020905b815481529060010190602001808311612bb757829003601f168201915b50505050508152602001600482018054612bed90614414565b80601f0160208091040260200160405190810160405280929190818152602001828054612c1990614414565b8015612c665780601f10612c3b57610100808354040283529160200191612c66565b820191906000526020600020905b815481529060010190602001808311612c4957829003601f168201915b5050505050815260200160058201548152602001600682018054612c8990614414565b80601f0160208091040260200160405190810160405280929190818152602001828054612cb590614414565b8015612d025780601f10612cd757610100808354040283529160200191612d02565b820191906000526020600020905b815481529060010190602001808311612ce557829003601f168201915b50505050508152602001600782018054612d1b90614414565b80601f0160208091040260200160405190810160405280929190818152602001828054612d4790614414565b8015612d945780601f10612d6957610100808354040283529160200191612d94565b820191906000526020600020905b815481529060010190602001808311612d7757829003601f168201915b50505050508152602001600882018054612dad90614414565b80601f0160208091040260200160405190810160405280929190818152602001828054612dd990614414565b8015612e265780601f10612dfb57610100808354040283529160200191612e26565b820191906000526020600020905b815481529060010190602001808311612e0957829003601f168201915b50505050508152602001600982018054612e3f90614414565b80601f0160208091040260200160405190810160405280929190818152602001828054612e6b90614414565b8015612eb85780601f10612e8d57610100808354040283529160200191612eb8565b820191906000526020600020905b815481529060010190602001808311612e9b57829003601f168201915b50505050508152602001600a820160009054906101000a900460ff16151515158152602001600a820160019054906101000a900460ff161515151581525050838281518110612f0a57612f09615046565b5b60200260200101819052508080612f2090615075565b915050612940565b50819250505090565b60016020528060005260406000206000915054906101000a900460ff1681565b6005818051602081018201805184825260208301602085012081835280955050505050506000915054906101000a900460ff1681565b6000803373ffffffffffffffffffffffffffffffffffffffff1673ffffffffffffffffffffffffffffffffffffffff168152602001908152602001600020600a0160009054906101000a900460ff16613015576040517f08c379a000000000000000000000000000000000000000000000000000000000815260040161300c90615109565b60405180910390fd5b600960003373ffffffffffffffffffffffffffffffffffffffff1673ffffffffffffffffffffffffffffffffffffffff16815260200190815260200160002060009054906101000a900460ff16156130a2576040517f08c379a00000000000000000000000000000000000000000000000000000000081526004016130999061519b565b60405180910390fd5b60006006826040516130b491906151f7565b908152602001604051809103902090508060090160008154809291906130d990615075565b91905055506001600960003373ffffffffffffffffffffffffffffffffffffffff1673ffffffffffffffffffffffffffffffffffffffff16815260200190815260200160002060006101000a81548160ff0219169083151502179055506004600081548092919061314990615075565b91905055505050565b600f5481565b600c818154811061316857600080fd5b90600052602060002001600091509050805461318390614414565b80601f01602080910402602001604051908101604052809291908181526020018280546131af90614414565b80156131fc5780601f106131d1576101008083540402835291602001916131fc565b820191906000526020600020905b8154815290600101906020018083116131df57829003601f168201915b505050505081565b6010816007811061321457600080fd5b016000915090505481565b6000601954421015613266576040517f08c379a000000000000000000000000000000000000000000000000000000000815260040161325d90615280565b60405180910390fd5b601a544210156132855742601a5461327e9190614a80565b905061328a565b600090505b90565b6007818051602081018201805184825260208301602085012081835280955050505050506000915090508060000180546132c690614414565b80601f01602080910402602001604051908101604052809291908181526020018280546132f290614414565b801561333f5780601f106133145761010080835404028352916020019161333f565b820191906000526020600020905b81548152906001019060200180831161332257829003601f168201915b50505050509080600101805461335490614414565b80601f016020809104026020016040519081016040528092919081815260200182805461338090614414565b80156133cd5780601f106133a2576101008083540402835291602001916133cd565b820191906000526020600020905b8154815290600101906020018083116133b057829003601f168201915b5050505050908060020180546133e290614414565b80601f016020809104026020016040519081016040528092919081815260200182805461340e90614414565b801561345b5780601f106134305761010080835404028352916020019161345b565b820191906000526020600020905b81548152906001019060200180831161343e57829003601f168201915b50505050509080600301805461347090614414565b80601f016020809104026020016040519081016040528092919081815260200182805461349c90614414565b80156134e95780601f106134be576101008083540402835291602001916134e9565b820191906000526020600020905b8154815290600101906020018083116134cc57829003601f168201915b50505050509080600401549080600501805461350490614414565b80601f016020809104026020016040519081016040528092919081815260200182805461353090614414565b801561357d5780601f106135525761010080835404028352916020019161357d565b820191906000526020600020905b81548152906001019060200180831161356057829003601f168201915b50505050509080600601805461359290614414565b80601f01602080910402602001604051908101604052809291908181526020018280546135be90614414565b801561360b5780601f106135e05761010080835404028352916020019161360b565b820191906000526020600020905b8154815290600101906020018083116135ee57829003601f168201915b50505050509080600701805461362090614414565b80601f016020809104026020016040519081016040528092919081815260200182805461364c90614414565b80156136995780601f1061366e57610100808354040283529160200191613699565b820191906000526020600020905b81548152906001019060200180831161367c57829003601f168201915b5050505050908060080160009054906101000a900460ff1690806009015490508a565b60175481565b601860009054906101000a900473ffffffffffffffffffffffffffffffffffffffff1681565b5080546136f490614414565b6000825580601f106137065750613725565b601f01602090049060005260206000209081019061372491906137a3565b5b50565b604051806101800160405280600073ffffffffffffffffffffffffffffffffffffffff1681526020016060815260200160608152602001606081526020016060815260200160008152602001606081526020016060815260200160608152602001606081526020016000151581526020016000151581525090565b5b808211156137bc5760008160009055506001016137a4565b5090565b6000604051905090565b600080fd5b600080fd5b6000819050919050565b6137e7816137d4565b81146137f257600080fd5b50565b600081359050613804816137de565b92915050565b6000602082840312156138205761381f6137ca565b5b600061382e848285016137f5565b91505092915050565b600081519050919050565b600082825260208201905092915050565b60005b83811015613871578082015181840152602081019050613856565b60008484015250505050565b6000601f19601f8301169050919050565b600061389982613837565b6138a38185613842565b93506138b3818560208601613853565b6138bc8161387d565b840191505092915050565b600060208201905081810360008301526138e1818461388e565b905092915050565b600073ffffffffffffffffffffffffffffffffffffffff82169050919050565b6000613914826138e9565b9050919050565b61392481613909565b811461392f57600080fd5b50565b6000813590506139418161391b565b92915050565b60006020828403121561395d5761395c6137ca565b5b600061396b84828501613932565b91505092915050565b60008115159050919050565b61398981613974565b82525050565b60006020820190506139a46000830184613980565b92915050565b6139b3816137d4565b82525050565b60006020820190506139ce60008301846139aa565b92915050565b600080fd5b600080fd5b7f4e487b7100000000000000000000000000000000000000000000000000000000600052604160045260246000fd5b613a168261387d565b810181811067ffffffffffffffff82111715613a3557613a346139de565b5b80604052505050565b6000613a486137c0565b9050613a548282613a0d565b919050565b600067ffffffffffffffff821115613a7457613a736139de565b5b613a7d8261387d565b9050602081019050919050565b82818337600083830152505050565b6000613aac613aa784613a59565b613a3e565b905082815260208101848484011115613ac857613ac76139d9565b5b613ad3848285613a8a565b509392505050565b600082601f830112613af057613aef6139d4565b5b8135613b00848260208601613a99565b91505092915050565b600060208284031215613b1f57613b1e6137ca565b5b600082013567ffffffffffffffff811115613b3d57613b3c6137cf565b5b613b4984828501613adb565b91505092915050565b6000610140820190508181036000830152613b6d818d61388e565b90508181036020830152613b81818c61388e565b90508181036040830152613b95818b61388e565b90508181036060830152613ba9818a61388e565b9050613bb860808301896139aa565b81810360a0830152613bca818861388e565b905081810360c0830152613bde818761388e565b905081810360e0830152613bf2818661388e565b9050613c02610100830185613980565b613c106101208301846139aa565b9b9a5050505050505050505050565b613c2881613909565b82525050565b600061012082019050613c44600083018c613c1f565b8181036020830152613c56818b61388e565b90508181036040830152613c6a818a61388e565b90508181036060830152613c7e818961388e565b90508181036080830152613c92818861388e565b905081810360a0830152613ca6818761388e565b9050613cb560c08301866139aa565b81810360e0830152613cc7818561388e565b9050818103610100830152613cdc818461388e565b90509a9950505050505050505050565b6000604082019050613d0160008301856139aa565b613d0e60208301846139aa565b9392505050565b6000602082019050613d2a6000830184613c1f565b92915050565b600081519050919050565b600082825260208201905092915050565b6000819050602082019050919050565b613d6581613909565b82525050565b6000613d778383613d5c565b60208301905092915050565b6000602082019050919050565b6000613d9b82613d30565b613da58185613d3b565b9350613db083613d4c565b8060005b83811015613de1578151613dc88882613d6b565b9750613dd383613d83565b925050600181019050613db4565b5085935050505092915050565b60006020820190508181036000830152613e088184613d90565b905092915050565b60008060408385031215613e2757613e266137ca565b5b600083013567ffffffffffffffff811115613e4557613e446137cf565b5b613e5185828601613adb565b925050602083013567ffffffffffffffff811115613e7257613e716137cf565b5b613e7e85828601613adb565b9150509250929050565b60008060408385031215613e9f57613e9e6137ca565b5b6000613ead858286016137f5565b9250506020613ebe858286016137f5565b9150509250929050565b600061018082019050613ede600083018f613c1f565b8181036020830152613ef0818e61388e565b90508181036040830152613f04818d61388e565b90508181036060830152613f18818c61388e565b90508181036080830152613f2c818b61388e565b9050613f3b60a083018a6139aa565b81810360c0830152613f4d818961388e565b905081810360e0830152613f61818861388e565b9050818103610100830152613f76818761388e565b9050818103610120830152613f8b818661388e565b9050613f9b610140830185613980565b613fa9610160830184613980565b9d9c50505050505050505050505050565b60008060008060008060008060006101208a8c031215613fdd57613fdc6137ca565b5b60008a013567ffffffffffffffff811115613ffb57613ffa6137cf565b5b6140078c828d01613adb565b99505060208a013567ffffffffffffffff811115614028576140276137cf565b5b6140348c828d01613adb565b98505060408a013567ffffffffffffffff811115614055576140546137cf565b5b6140618c828d01613adb565b97505060608a013567ffffffffffffffff811115614082576140816137cf565b5b61408e8c828d01613adb565b965050608061409f8c828d016137f5565b95505060a08a013567ffffffffffffffff8111156140c0576140bf6137cf565b5b6140cc8c828d01613adb565b94505060c08a013567ffffffffffffffff8111156140ed576140ec6137cf565b5b6140f98c828d01613adb565b93505060e08a013567ffffffffffffffff81111561411a576141196137cf565b5b6141268c828d01613adb565b9250506101008a013567ffffffffffffffff811115614148576141476137cf565b5b6141548c828d01613adb565b9150509295985092959850929598565b600081519050919050565b600082825260208201905092915050565b6000819050602082019050919050565b600082825260208201905092915050565b60006141ac82613837565b6141b68185614190565b93506141c6818560208601613853565b6141cf8161387d565b840191505092915050565b6141e3816137d4565b82525050565b6141f281613974565b82525050565b6000610180830160008301516142116000860182613d5c565b506020830151848203602086015261422982826141a1565b9150506040830151848203604086015261424382826141a1565b9150506060830151848203606086015261425d82826141a1565b9150506080830151848203608086015261427782826141a1565b91505060a083015161428c60a08601826141da565b5060c083015184820360c08601526142a482826141a1565b91505060e083015184820360e08601526142be82826141a1565b9150506101008301518482036101008601526142da82826141a1565b9150506101208301518482036101208601526142f682826141a1565b91505061014083015161430d6101408601826141e9565b506101608301516143226101608601826141e9565b508091505092915050565b600061433983836141f8565b905092915050565b6000602082019050919050565b600061435982614164565b614363818561416f565b93508360208202850161437585614180565b8060005b858110156143b15784840389528151614392858261432d565b945061439d83614341565b925060208a01995050600181019050614379565b50829750879550505050505092915050565b600060208201905081810360008301526143dd818461434e565b905092915050565b7f4e487b7100000000000000000000000000000000000000000000000000000000600052602260045260246000fd5b6000600282049050600182168061442c57607f821691505b60208210810361443f5761443e6143e5565b5b50919050565b7f4f6e6c792061646d696e2063616e20706572666f726d2074686973206163746960008201527f6f6e000000000000000000000000000000000000000000000000000000000000602082015250565b60006144a1602283613842565b91506144ac82614445565b604082019050919050565b600060208201905081810360008301526144d081614494565b9050919050565b7f596f7572206163636f756e74206973206e6f7420726567697374657265642100600082015250565b600061450d601f83613842565b9150614518826144d7565b602082019050919050565b6000602082019050818103600083015261453c81614500565b9050919050565b7f557365726e616d6520616e642070617373776f72642063616e6e6f742062652060008201527f656d707479000000000000000000000000000000000000000000000000000000602082015250565b600061459f602583613842565b91506145aa82614543565b604082019050919050565b600060208201905081810360008301526145ce81614592565b9050919050565b600081905092915050565b60008190508160005260206000209050919050565b6000815461460281614414565b61460c81866145d5565b94506001821660008114614627576001811461463c5761466f565b60ff198316865281151582028601935061466f565b614645856145e0565b60005b8381101561466757815481890152600182019150602081019050614648565b838801955050505b50505092915050565b600061468482846145f5565b915081905092915050565b7f496e76616c696420726567697374726174696f6e206e756d6265720000000000600082015250565b60006146c5601b83613842565b91506146d08261468f565b602082019050919050565b600060208201905081810360008301526146f4816146b8565b9050919050565b7f496e76616c69642070617373776f726400000000000000000000000000000000600082015250565b6000614731601083613842565b915061473c826146fb565b602082019050919050565b6000602082019050818103600083015261476081614724565b9050919050565b60008190508160005260206000209050919050565b60006020601f8301049050919050565b600082821b905092915050565b6000600883026147c97fffffffffffffffffffffffffffffffffffffffffffffffffffffffffffffffff8261478c565b6147d3868361478c565b95508019841693508086168417925050509392505050565b6000819050919050565b600061481061480b614806846137d4565b6147eb565b6137d4565b9050919050565b6000819050919050565b61482a836147f5565b61483e61483682614817565b848454614799565b825550505050565b600090565b614853614846565b61485e818484614821565b505050565b5b818110156148825761487760008261484b565b600181019050614864565b5050565b601f8211156148c75761489881614767565b6148a18461477c565b810160208510156148b0578190505b6148c46148bc8561477c565b830182614863565b50505b505050565b600082821c905092915050565b60006148ea600019846008026148cc565b1980831691505092915050565b600061490383836148d9565b9150826002028217905092915050565b61491c82613837565b67ffffffffffffffff811115614935576149346139de565b5b61493f8254614414565b61494a828285614886565b600060209050601f83116001811461497d576000841561496b578287015190505b61497585826148f7565b8655506149dd565b601f19841661498b86614767565b60005b828110156149b35784890151825560018201915060208501945060208101905061498e565b868310156149d057848901516149cc601f8916826148d9565b8355505b6001600288020188555050505b505050505050565b7f496e76616c696420766f74696e6720706572696f640000000000000000000000600082015250565b6000614a1b601583613842565b9150614a26826149e5565b602082019050919050565b60006020820190508181036000830152614a4a81614a0e565b9050919050565b7f4e487b7100000000000000000000000000000000000000000000000000000000600052601160045260246000fd5b6000614a8b826137d4565b9150614a96836137d4565b9250828203905081811115614aae57614aad614a51565b5b92915050565b6000614abf826137d4565b9150614aca836137d4565b9250828202614ad8816137d4565b91508282048414831517614aef57614aee614a51565b5b5092915050565b6000614b01826137d4565b9150614b0c836137d4565b9250828201905080821115614b2457614b23614a51565b5b92915050565b7f566f74657246697273744e616d65206669656c642073686f7564206e6f74206260008201527f6520656d70747900000000000000000000000000000000000000000000000000602082015250565b6000614b86602783613842565b9150614b9182614b2a565b604082019050919050565b60006020820190508181036000830152614bb581614b79565b9050919050565b7f566f7465724c6173744e616d65206669656c642073686f7564206e6f7420626560008201527f20656d7074790000000000000000000000000000000000000000000000000000602082015250565b6000614c18602683613842565b9150614c2382614bbc565b604082019050919050565b60006020820190508181036000830152614c4781614c0b565b9050919050565b7f436f6c6c6167654e616d65206669656c642073686f7564206e6f74206265206560008201527f6d70747900000000000000000000000000000000000000000000000000000000602082015250565b6000614caa602483613842565b9150614cb582614c4e565b604082019050919050565b60006020820190508181036000830152614cd981614c9d565b9050919050565b7f50726f6772616d4e616d65206669656c642073686f7564206e6f74206265206560008201527f6d70747900000000000000000000000000000000000000000000000000000000602082015250565b6000614d3c602483613842565b9150614d4782614ce0565b604082019050919050565b60006020820190508181036000830152614d6b81614d2f565b9050919050565b7f426c6f636b4e756d626572206669656c642073686f7564206e6f74206265206560008201527f6d70747900000000000000000000000000000000000000000000000000000000602082015250565b6000614dce602483613842565b9150614dd982614d72565b604082019050919050565b60006020820190508181036000830152614dfd81614dc1565b9050919050565b7f5265674e6f206669656c642073686f7564206e6f7420626520656d7074790000600082015250565b6000614e3a601e83613842565b9150614e4582614e04565b602082019050919050565b60006020820190508181036000830152614e6981614e2d565b9050919050565b7f50617373776f7264206669656c642073686f7564206e6f7420626520656d707460008201527f7900000000000000000000000000000000000000000000000000000000000000602082015250565b6000614ecc602183613842565b9150614ed782614e70565b604082019050919050565b60006020820190508181036000830152614efb81614ebf565b9050919050565b7f47656e646572206669656c642073686f7564206e6f7420626520656d70747900600082015250565b6000614f38601f83613842565b9150614f4382614f02565b602082019050919050565b60006020820190508181036000830152614f6781614f2b565b9050919050565b7f496e76616c69642079656172206f662053747564790000000000000000000000600082015250565b6000614fa4601583613842565b9150614faf82614f6e565b602082019050919050565b60006020820190508181036000830152614fd381614f97565b9050919050565b7f566f74657220697320616c726561647920726567697374657265640000000000600082015250565b6000615010601b83613842565b915061501b82614fda565b602082019050919050565b6000602082019050818103600083015261503f81615003565b9050919050565b7f4e487b7100000000000000000000000000000000000000000000000000000000600052603260045260246000fd5b6000615080826137d4565b91507fffffffffffffffffffffffffffffffffffffffffffffffffffffffffffffffff82036150b2576150b1614a51565b5b600182019050919050565b7f566f746572206973206e6f742072656769737465726564000000000000000000600082015250565b60006150f3601783613842565b91506150fe826150bd565b602082019050919050565b60006020820190508181036000830152615122816150e6565b9050919050565b7f416c726561647920766f74656420666f7220507265736964656e7420706f736960008201527f74696f6e00000000000000000000000000000000000000000000000000000000602082015250565b6000615185602483613842565b915061519082615129565b604082019050919050565b600060208201905081810360008301526151b481615178565b9050919050565b600081905092915050565b60006151d182613837565b6151db81856151bb565b93506151eb818560208601613853565b80840191505092915050565b600061520382846151c6565b915081905092915050565b7f766f74696e6720686173206e6f742073746172746564207965742121212c205060008201527f6c65617365207761697400000000000000000000000000000000000000000000602082015250565b600061526a602a83613842565b91506152758261520e565b604082019050919050565b600060208201905081810360008301526152998161525d565b905091905056fea2646970667358221220b468461d7b44b1528fc1e7a32f7b448f85651b0ef4faaf78fa4bbb6aaab6f87564736f6c63430008130033",
  "immutableReferences": {},
  "source": "// SPDX-License-Identifier: MIT\npragma solidity ^0.8.0;\nimport \"./AccessControl.sol\";\nimport \"./VoterStructure.sol\";\nimport \"./CandidateStructure.sol\";\nimport \"./TimeControl.sol\";\n\ncontract VoterRegistry is VoterStructure, CandidateStructure, TimeControl {\n    \n    // event NewVoterRegistered( string firstName, string lastName, string collegeName, string programName, uint256 yearOfStudy, string regNo, string blockNumber, string gender);\n\n    function registerVoter( string memory _firstName, string memory _lastName, string memory _collegeName, string memory _programName, uint256 _yearOfStudy, \n    string memory _regNo,string memory _blockNumber, string memory _password, string memory _gender) public\n    {\n        require(keccak256(bytes(_firstName)).length > 0, \"VoterFirstName field shoud not be empty\");\n        require(keccak256(bytes(_lastName)).length > 0, \"VoterLastName field shoud not be empty\");\n        require(keccak256(bytes(_collegeName)).length > 0, \"CollageName field shoud not be empty\");\n        require(keccak256(bytes(_programName)).length > 0 , \"ProgramName field shoud not be empty\");\n        require(keccak256(bytes(_blockNumber)).length > 0 , \"BlockNumber field shoud not be empty\");\n        require(keccak256(bytes(_regNo)).length > 0 , \"RegNo field shoud not be empty\");\n        require(keccak256(bytes(_password)).length > 0 , \"Password field shoud not be empty\");\n        require(keccak256(bytes(_gender)).length > 0 , \"Gender field shoud not be empty\");\n\n        if(keccak256(bytes(_collegeName)) == keccak256(bytes(\"TIBA\"))){\n            require(_yearOfStudy > 0 && _yearOfStudy < 5, \"Invalid year of Study\");\n        }else{\n            require(_yearOfStudy > 0 && _yearOfStudy < 4, \"Invalid year of Study\");\n        } \n        require(!voters[msg.sender].isRegistered, \"Voter is already registered\");\n        Voter memory newVoter = Voter({\n            voterAddress: msg.sender,\n            firstName: _firstName,\n            lastName: _lastName,\n            collegeName: _collegeName, \n            programName: _programName, \n            yearOfStudy: _yearOfStudy, \n            regNo: _regNo, \n            blockNumber: _blockNumber, \n            password: _password, \n            gender: _gender,\n            isRegistered: true, \n            voted: false\n        });\n        voters[msg.sender] = newVoter;\n        voterAddressArray.push(msg.sender);\n        // emit NewVoterRegistered( _firstName, _lastName, _collegeName, _programName, _yearOfStudy, _regNo, _blockNumber, _gender);\n    }\n\n    function getVoterRegNumbers() public view returns (address[] memory){\n        return voterAddressArray;\n    }\n\n    function viewRegisteredVoters() public view returns(Voter[] memory){\n        Voter[] memory result = new Voter[](voterAddressArray.length);\n        address[] memory voterRegNos = voterAddressArray;        \n        for(uint i=0; i<voterRegNos.length; i++){\n            result[i] = voters[voterAddressArray[i]];     \n        }\n        return result;\n    }\n        \n    // function viewVoter(address vtAddress) public view returns(address voterAddress, string memory firstName, string memory lastName,\n    // string memory collegeName, string memory programName,string memory regNo, uint256 yearOfStudy, string memory blockNumber, string memory gender){\n    //     Voter memory voter = voters[vtAddress];\n    //     voterAddress = voter.voterAddress;\n    //     firstName = voter.firstName;\n    //     lastName = voter.lastName;\n    //     collegeName = voter.collegeName;\n    //     programName = voter.programName;\n    //     yearOfStudy = voter.yearOfStudy;\n    //     regNo = voter.regNo;\n    //     blockNumber = voter.blockNumber;\n    //     // password = voter.password;\n    //     gender = voter.gender;\n    // }\n    function viewVoter(address vtAddress) public view returns (\n    address voterAddress,\n    string memory firstName,\n    string memory lastName,\n    string memory collegeName,\n    string memory programName,\n    string memory regNo,\n    uint256 yearOfStudy,\n    string memory blockNumber,\n    string memory gender\n) {\n    // require(voters[vtAddress].exists, \"Voter does not exist\");\n    \n    Voter storage voter = voters[vtAddress];\n    \n    return (\n        voter.voterAddress,\n        voter.firstName,\n        voter.lastName,\n        voter.collegeName,\n        voter.programName,\n        voter.regNo,\n        voter.yearOfStudy,\n        voter.blockNumber,\n        voter.gender\n    );\n}\n\n\n    // voter can view candidate of the corresponding area of vote\n\n    // function voterViewGovernors(address addressVoter) public view returns(Candidate[] memory){\n\n    //     Voter memory newVoter = voters[addressVoter];\n    //     string memory voterCollege = newVoter.collegeName;\n\n    //     Candidate[] memory result = new Candidate[](governorList.length);\n    //     string[] memory governorLst = governorList;        \n    //     for(uint i = 0; i < governorLst.length; i++){\n    //         if(keccak256(bytes(candidateGovernor[governorLst[i]].collegeName)) == keccak256(bytes(voterCollege))){\n    //             result[i] = candidateGovernor[governorLst[i]];  \n    //         }            \n    //     }\n    //     return result;\n    // }\n\n    // function voterViewBlockLeader(address addressVoter) public view returns(Candidate[] memory){\n\n    //     Voter memory newVoter = voters[addressVoter];\n    //     string memory voterCollegeName = newVoter.collegeName;\n    //     string memory voterBlockNumber = newVoter.blockNumber;\n\n    //     Candidate[] memory result = new Candidate[](blockLeaderList.length);        \n    //     for(uint i = 0; i < blockLeaderList.length; i++){\n    //         if(keccak256(bytes(candidateBlockLeader[blockLeaderList[i]].collegeName)) == keccak256(bytes(voterCollegeName)) && keccak256(bytes(candidateBlockLeader[blockLeaderList[i]].blockNumber)) == keccak256(bytes(voterBlockNumber))){\n    //             result[i] = candidateGovernor[blockLeaderList[i]];  \n    //         }            \n    //     }\n    //     return result;\n    // }\n    function castVotePresident( string memory _presidentRegNo) public {\n        require(voters[msg.sender].isRegistered, \"Voter is not registered\");\n        // require(!voters[msg.sender].voted, \"You have already voted for President!!!\");\n        require(!presidentVoted[msg.sender], \"Already voted for President position\");\n        Candidate storage candidate = candidatePresident[_presidentRegNo];\n        candidate.voteCount++;\n        presidentVoted[msg.sender] = true;\n\n        totalVotes++;\n\n        // emit VoteCast(candidate.voteCount, candidate.regNo);\n    }\n\n    // function deleteVoter(address _voterAddress) public {\n    //     delete voters[_voterAddress];\n    //     for (uint256 i = 0; i < voterAddressArray.length; i++) {\n    //         if (voterAddressArray[i] == _voterAddress) {\n    //             for (uint256 j = i; j < voterAddressArray.length - 1; j++) {\n    //                 voterAddressArray[j] = voterAddressArray[j + 1];\n    //             }\n    //             voterAddressArray.pop();\n    //             break;\n    //         }\n    //     }\n    // }\n    \n    function voterLogin(string memory _regNo, string memory _password) public {\n        require(voters[msg.sender].isRegistered, \"Your account is not registered!\");\n        require(keccak256(bytes(_regNo)).length > 0 && keccak256(bytes(_password)).length > 0, \"Username and password cannot be empty\");\n        require(keccak256(bytes(voters[msg.sender].regNo)) == keccak256(bytes(_regNo)), \"Invalid registration number\");\n        require(keccak256(bytes(voters[msg.sender].password)) == keccak256(bytes(_password)), \"Invalid password\");\n        hasLogedin[msg.sender] = true;\n        voterSession[msg.sender] = _regNo;\n\n    }\n\n    function logout() public {\n        hasLogedin[msg.sender] = false;\n        delete voterSession[msg.sender];\n    }\n}\n",
  "sourcePath": "/home/temba/Documents/SmartContract/client/contracts/VoterRegistry.sol",
  "compiler": {
    "name": "solc",
    "version": "0.8.19+commit.7dd6d404.Emscripten.clang"
  },
  "schemaVersion": "3.4.14",
  "updatedAt": "2023-06-21T10:05:21.804Z",
  "devdoc": {
    "kind": "dev",
    "methods": {},
    "version": 1
  },
  "userdoc": {
    "kind": "user",
    "methods": {},
    "version": 1
  }
}