{
  "contractName": "VotingSystem",
  "abi": [
    {
      "inputs": [],
      "name": "admin",
      "outputs": [
        {
          "internalType": "address",
          "name": "",
          "type": "address"
        }
      ],
      "stateMutability": "view",
      "type": "function"
    },
    {
      "inputs": [
        {
          "internalType": "uint256",
          "name": "",
          "type": "uint256"
        }
      ],
      "name": "blockLeaderList",
      "outputs": [
        {
          "internalType": "string",
          "name": "",
          "type": "string"
        }
      ],
      "stateMutability": "view",
      "type": "function"
    },
    {
      "inputs": [
        {
          "internalType": "address",
          "name": "",
          "type": "address"
        }
      ],
      "name": "blockLeaderVoted",
      "outputs": [
        {
          "internalType": "bool",
          "name": "",
          "type": "bool"
        }
      ],
      "stateMutability": "view",
      "type": "function"
    },
    {
      "inputs": [
        {
          "internalType": "string",
          "name": "",
          "type": "string"
        }
      ],
      "name": "candidateBlockLeader",
      "outputs": [
        {
          "internalType": "string",
          "name": "firstName",
          "type": "string"
        },
        {
          "internalType": "string",
          "name": "lastName",
          "type": "string"
        },
        {
          "internalType": "string",
          "name": "collegeName",
          "type": "string"
        },
        {
          "internalType": "string",
          "name": "programName",
          "type": "string"
        },
        {
          "internalType": "uint256",
          "name": "yearOfStudy",
          "type": "uint256"
        },
        {
          "internalType": "string",
          "name": "regNo",
          "type": "string"
        },
        {
          "internalType": "string",
          "name": "blockNumber",
          "type": "string"
        },
        {
          "internalType": "string",
          "name": "gender",
          "type": "string"
        },
        {
          "internalType": "bool",
          "name": "isWinner",
          "type": "bool"
        },
        {
          "internalType": "uint256",
          "name": "voteCount",
          "type": "uint256"
        }
      ],
      "stateMutability": "view",
      "type": "function"
    },
    {
      "inputs": [
        {
          "internalType": "string",
          "name": "",
          "type": "string"
        }
      ],
      "name": "candidateGovernor",
      "outputs": [
        {
          "internalType": "string",
          "name": "firstName",
          "type": "string"
        },
        {
          "internalType": "string",
          "name": "lastName",
          "type": "string"
        },
        {
          "internalType": "string",
          "name": "collegeName",
          "type": "string"
        },
        {
          "internalType": "string",
          "name": "programName",
          "type": "string"
        },
        {
          "internalType": "uint256",
          "name": "yearOfStudy",
          "type": "uint256"
        },
        {
          "internalType": "string",
          "name": "regNo",
          "type": "string"
        },
        {
          "internalType": "string",
          "name": "blockNumber",
          "type": "string"
        },
        {
          "internalType": "string",
          "name": "gender",
          "type": "string"
        },
        {
          "internalType": "bool",
          "name": "isWinner",
          "type": "bool"
        },
        {
          "internalType": "uint256",
          "name": "voteCount",
          "type": "uint256"
        }
      ],
      "stateMutability": "view",
      "type": "function"
    },
    {
      "inputs": [
        {
          "internalType": "string",
          "name": "",
          "type": "string"
        }
      ],
      "name": "candidatePresident",
      "outputs": [
        {
          "internalType": "string",
          "name": "firstName",
          "type": "string"
        },
        {
          "internalType": "string",
          "name": "lastName",
          "type": "string"
        },
        {
          "internalType": "string",
          "name": "collegeName",
          "type": "string"
        },
        {
          "internalType": "string",
          "name": "programName",
          "type": "string"
        },
        {
          "internalType": "uint256",
          "name": "yearOfStudy",
          "type": "uint256"
        },
        {
          "internalType": "string",
          "name": "regNo",
          "type": "string"
        },
        {
          "internalType": "string",
          "name": "blockNumber",
          "type": "string"
        },
        {
          "internalType": "string",
          "name": "gender",
          "type": "string"
        },
        {
          "internalType": "bool",
          "name": "isWinner",
          "type": "bool"
        },
        {
          "internalType": "uint256",
          "name": "voteCount",
          "type": "uint256"
        }
      ],
      "stateMutability": "view",
      "type": "function"
    },
    {
      "inputs": [
        {
          "internalType": "uint256",
          "name": "",
          "type": "uint256"
        }
      ],
      "name": "governorList",
      "outputs": [
        {
          "internalType": "string",
          "name": "",
          "type": "string"
        }
      ],
      "stateMutability": "view",
      "type": "function"
    },
    {
      "inputs": [
        {
          "internalType": "address",
          "name": "",
          "type": "address"
        }
      ],
      "name": "governorVoted",
      "outputs": [
        {
          "internalType": "bool",
          "name": "",
          "type": "bool"
        }
      ],
      "stateMutability": "view",
      "type": "function"
    },
    {
      "inputs": [
        {
          "internalType": "address",
          "name": "",
          "type": "address"
        }
      ],
      "name": "hasLogedin",
      "outputs": [
        {
          "internalType": "bool",
          "name": "",
          "type": "bool"
        }
      ],
      "stateMutability": "view",
      "type": "function"
    },
    {
      "inputs": [],
      "name": "isInitiated",
      "outputs": [
        {
          "internalType": "bool",
          "name": "",
          "type": "bool"
        }
      ],
      "stateMutability": "view",
      "type": "function"
    },
    {
      "inputs": [
        {
          "internalType": "string",
          "name": "",
          "type": "string"
        }
      ],
      "name": "isRegistered",
      "outputs": [
        {
          "internalType": "bool",
          "name": "",
          "type": "bool"
        }
      ],
      "stateMutability": "view",
      "type": "function"
    },
    {
      "inputs": [],
      "name": "numberOfBlockLeader",
      "outputs": [
        {
          "internalType": "uint256",
          "name": "",
          "type": "uint256"
        }
      ],
      "stateMutability": "view",
      "type": "function"
    },
    {
      "inputs": [
        {
          "internalType": "uint256",
          "name": "",
          "type": "uint256"
        }
      ],
      "name": "numberOfGovernor",
      "outputs": [
        {
          "internalType": "uint256",
          "name": "",
          "type": "uint256"
        }
      ],
      "stateMutability": "view",
      "type": "function"
    },
    {
      "inputs": [],
      "name": "numberOfPresident",
      "outputs": [
        {
          "internalType": "uint256",
          "name": "",
          "type": "uint256"
        }
      ],
      "stateMutability": "view",
      "type": "function"
    },
    {
      "inputs": [
        {
          "internalType": "uint256",
          "name": "",
          "type": "uint256"
        }
      ],
      "name": "presidentList",
      "outputs": [
        {
          "internalType": "string",
          "name": "",
          "type": "string"
        }
      ],
      "stateMutability": "view",
      "type": "function"
    },
    {
      "inputs": [
        {
          "internalType": "address",
          "name": "",
          "type": "address"
        }
      ],
      "name": "presidentVoted",
      "outputs": [
        {
          "internalType": "bool",
          "name": "",
          "type": "bool"
        }
      ],
      "stateMutability": "view",
      "type": "function"
    },
    {
      "inputs": [],
      "name": "totalVotes",
      "outputs": [
        {
          "internalType": "uint256",
          "name": "",
          "type": "uint256"
        }
      ],
      "stateMutability": "view",
      "type": "function"
    },
    {
      "inputs": [
        {
          "internalType": "address",
          "name": "newAdmin",
          "type": "address"
        }
      ],
      "name": "transferAdmin",
      "outputs": [],
      "stateMutability": "nonpayable",
      "type": "function"
    },
    {
      "inputs": [
        {
          "internalType": "uint256",
          "name": "",
          "type": "uint256"
        }
      ],
      "name": "voterAddressArray",
      "outputs": [
        {
          "internalType": "address",
          "name": "",
          "type": "address"
        }
      ],
      "stateMutability": "view",
      "type": "function"
    },
    {
      "inputs": [
        {
          "internalType": "address",
          "name": "",
          "type": "address"
        }
      ],
      "name": "voterSession",
      "outputs": [
        {
          "internalType": "string",
          "name": "",
          "type": "string"
        }
      ],
      "stateMutability": "view",
      "type": "function"
    },
    {
      "inputs": [
        {
          "internalType": "address",
          "name": "",
          "type": "address"
        }
      ],
      "name": "voters",
      "outputs": [
        {
          "internalType": "address",
          "name": "voterAddress",
          "type": "address"
        },
        {
          "internalType": "string",
          "name": "firstName",
          "type": "string"
        },
        {
          "internalType": "string",
          "name": "lastName",
          "type": "string"
        },
        {
          "internalType": "string",
          "name": "collegeName",
          "type": "string"
        },
        {
          "internalType": "string",
          "name": "programName",
          "type": "string"
        },
        {
          "internalType": "uint256",
          "name": "yearOfStudy",
          "type": "uint256"
        },
        {
          "internalType": "string",
          "name": "regNo",
          "type": "string"
        },
        {
          "internalType": "string",
          "name": "blockNumber",
          "type": "string"
        },
        {
          "internalType": "string",
          "name": "password",
          "type": "string"
        },
        {
          "internalType": "string",
          "name": "gender",
          "type": "string"
        },
        {
          "internalType": "bool",
          "name": "isRegistered",
          "type": "bool"
        },
        {
          "internalType": "bool",
          "name": "voted",
          "type": "bool"
        }
      ],
      "stateMutability": "view",
      "type": "function"
    },
    {
      "inputs": [
        {
          "internalType": "string",
          "name": "_firstName",
          "type": "string"
        },
        {
          "internalType": "string",
          "name": "_lastName",
          "type": "string"
        },
        {
          "internalType": "string",
          "name": "_collegeName",
          "type": "string"
        },
        {
          "internalType": "string",
          "name": "_programName",
          "type": "string"
        },
        {
          "internalType": "uint256",
          "name": "_yearOfStudy",
          "type": "uint256"
        },
        {
          "internalType": "string",
          "name": "_regNo",
          "type": "string"
        },
        {
          "internalType": "string",
          "name": "_blockNumber",
          "type": "string"
        },
        {
          "internalType": "string",
          "name": "_gender",
          "type": "string"
        }
      ],
      "name": "registerPresident",
      "outputs": [],
      "stateMutability": "nonpayable",
      "type": "function"
    },
    {
      "inputs": [
        {
          "internalType": "string",
          "name": "_firstName",
          "type": "string"
        },
        {
          "internalType": "string",
          "name": "_lastName",
          "type": "string"
        },
        {
          "internalType": "string",
          "name": "_collegeName",
          "type": "string"
        },
        {
          "internalType": "string",
          "name": "_programName",
          "type": "string"
        },
        {
          "internalType": "uint256",
          "name": "_yearOfStudy",
          "type": "uint256"
        },
        {
          "internalType": "string",
          "name": "_regNo",
          "type": "string"
        },
        {
          "internalType": "string",
          "name": "_blockNumber",
          "type": "string"
        },
        {
          "internalType": "string",
          "name": "_gender",
          "type": "string"
        }
      ],
      "name": "registerGovernor",
      "outputs": [],
      "stateMutability": "nonpayable",
      "type": "function"
    },
    {
      "inputs": [
        {
          "internalType": "string",
          "name": "_firstName",
          "type": "string"
        },
        {
          "internalType": "string",
          "name": "_lastName",
          "type": "string"
        },
        {
          "internalType": "string",
          "name": "_collegeName",
          "type": "string"
        },
        {
          "internalType": "string",
          "name": "_programName",
          "type": "string"
        },
        {
          "internalType": "uint256",
          "name": "_yearOfStudy",
          "type": "uint256"
        },
        {
          "internalType": "string",
          "name": "_regNo",
          "type": "string"
        },
        {
          "internalType": "string",
          "name": "_blockNumber",
          "type": "string"
        },
        {
          "internalType": "string",
          "name": "_gender",
          "type": "string"
        }
      ],
      "name": "registerBlockLeader",
      "outputs": [],
      "stateMutability": "nonpayable",
      "type": "function"
    },
    {
      "inputs": [],
      "name": "getPresidentRegNumber",
      "outputs": [
        {
          "internalType": "string[]",
          "name": "",
          "type": "string[]"
        }
      ],
      "stateMutability": "view",
      "type": "function"
    },
    {
      "inputs": [
        {
          "internalType": "string",
          "name": "_regNo",
          "type": "string"
        }
      ],
      "name": "viewPresident",
      "outputs": [
        {
          "internalType": "string",
          "name": "firstName",
          "type": "string"
        },
        {
          "internalType": "string",
          "name": "lastName",
          "type": "string"
        },
        {
          "internalType": "string",
          "name": "collegeName",
          "type": "string"
        },
        {
          "internalType": "string",
          "name": "programName",
          "type": "string"
        },
        {
          "internalType": "uint256",
          "name": "yearOfStudy",
          "type": "uint256"
        },
        {
          "internalType": "string",
          "name": "regNo",
          "type": "string"
        },
        {
          "internalType": "string",
          "name": "blockNumber",
          "type": "string"
        },
        {
          "internalType": "string",
          "name": "gender",
          "type": "string"
        },
        {
          "internalType": "uint256",
          "name": "voteCount",
          "type": "uint256"
        }
      ],
      "stateMutability": "view",
      "type": "function"
    },
    {
      "inputs": [],
      "name": "getGovernorRegNumber",
      "outputs": [
        {
          "internalType": "string[]",
          "name": "",
          "type": "string[]"
        }
      ],
      "stateMutability": "view",
      "type": "function"
    },
    {
      "inputs": [
        {
          "internalType": "string",
          "name": "_regNo",
          "type": "string"
        }
      ],
      "name": "adminViewGovernors",
      "outputs": [
        {
          "internalType": "string",
          "name": "firstName",
          "type": "string"
        },
        {
          "internalType": "string",
          "name": "lastName",
          "type": "string"
        },
        {
          "internalType": "string",
          "name": "collegeName",
          "type": "string"
        },
        {
          "internalType": "string",
          "name": "programName",
          "type": "string"
        },
        {
          "internalType": "uint256",
          "name": "yearOfStudy",
          "type": "uint256"
        },
        {
          "internalType": "string",
          "name": "regNo",
          "type": "string"
        },
        {
          "internalType": "string",
          "name": "blockNumber",
          "type": "string"
        },
        {
          "internalType": "string",
          "name": "gender",
          "type": "string"
        },
        {
          "internalType": "uint256",
          "name": "voteCount",
          "type": "uint256"
        }
      ],
      "stateMutability": "view",
      "type": "function"
    },
    {
      "inputs": [],
      "name": "getBlockLeaderRegNumber",
      "outputs": [
        {
          "internalType": "string[]",
          "name": "",
          "type": "string[]"
        }
      ],
      "stateMutability": "view",
      "type": "function"
    },
    {
      "inputs": [
        {
          "internalType": "string",
          "name": "_regNo",
          "type": "string"
        }
      ],
      "name": "adminViewBlockLeaders",
      "outputs": [
        {
          "internalType": "string",
          "name": "firstName",
          "type": "string"
        },
        {
          "internalType": "string",
          "name": "lastName",
          "type": "string"
        },
        {
          "internalType": "string",
          "name": "collegeName",
          "type": "string"
        },
        {
          "internalType": "string",
          "name": "programName",
          "type": "string"
        },
        {
          "internalType": "uint256",
          "name": "yearOfStudy",
          "type": "uint256"
        },
        {
          "internalType": "string",
          "name": "regNo",
          "type": "string"
        },
        {
          "internalType": "string",
          "name": "blockNumber",
          "type": "string"
        },
        {
          "internalType": "string",
          "name": "gender",
          "type": "string"
        },
        {
          "internalType": "uint256",
          "name": "voteCount",
          "type": "uint256"
        }
      ],
      "stateMutability": "view",
      "type": "function"
    },
    {
      "inputs": [
        {
          "internalType": "string",
          "name": "_firstName",
          "type": "string"
        },
        {
          "internalType": "string",
          "name": "_lastName",
          "type": "string"
        },
        {
          "internalType": "string",
          "name": "_collegeName",
          "type": "string"
        },
        {
          "internalType": "string",
          "name": "_programName",
          "type": "string"
        },
        {
          "internalType": "uint256",
          "name": "_yearOfStudy",
          "type": "uint256"
        },
        {
          "internalType": "string",
          "name": "_regNo",
          "type": "string"
        },
        {
          "internalType": "string",
          "name": "_blockNumber",
          "type": "string"
        },
        {
          "internalType": "string",
          "name": "_password",
          "type": "string"
        },
        {
          "internalType": "string",
          "name": "_gender",
          "type": "string"
        }
      ],
      "name": "registerVoter",
      "outputs": [],
      "stateMutability": "nonpayable",
      "type": "function"
    },
    {
      "inputs": [],
      "name": "getVoterRegNumbers",
      "outputs": [
        {
          "internalType": "address[]",
          "name": "",
          "type": "address[]"
        }
      ],
      "stateMutability": "view",
      "type": "function"
    },
    {
      "inputs": [
        {
          "internalType": "address",
          "name": "vtAddress",
          "type": "address"
        }
      ],
      "name": "viewVoter",
      "outputs": [
        {
          "internalType": "address",
          "name": "voterAddress",
          "type": "address"
        },
        {
          "internalType": "string",
          "name": "firstName",
          "type": "string"
        },
        {
          "internalType": "string",
          "name": "lastName",
          "type": "string"
        },
        {
          "internalType": "string",
          "name": "collegeName",
          "type": "string"
        },
        {
          "internalType": "string",
          "name": "programName",
          "type": "string"
        },
        {
          "internalType": "string",
          "name": "regNo",
          "type": "string"
        },
        {
          "internalType": "uint256",
          "name": "yearOfStudy",
          "type": "uint256"
        },
        {
          "internalType": "string",
          "name": "blockNumber",
          "type": "string"
        },
        {
          "internalType": "string",
          "name": "gender",
          "type": "string"
        }
      ],
      "stateMutability": "view",
      "type": "function"
    },
    {
      "inputs": [
        {
          "internalType": "string",
          "name": "_presidentRegNo",
          "type": "string"
        }
      ],
      "name": "castVotePresident",
      "outputs": [],
      "stateMutability": "nonpayable",
      "type": "function"
    },
    {
      "inputs": [
        {
          "internalType": "string",
          "name": "_governorRegNo",
          "type": "string"
        }
      ],
      "name": "castVoteGovernor",
      "outputs": [],
      "stateMutability": "nonpayable",
      "type": "function"
    },
    {
      "inputs": [
        {
          "internalType": "string",
          "name": "_blockLeaderRegNo",
          "type": "string"
        }
      ],
      "name": "castVoteBlockLeader",
      "outputs": [],
      "stateMutability": "nonpayable",
      "type": "function"
    },
    {
      "inputs": [],
      "name": "getVotingStatus",
      "outputs": [
        {
          "internalType": "bool",
          "name": "",
          "type": "bool"
        }
      ],
      "stateMutability": "view",
      "type": "function"
    },
    {
      "inputs": [
        {
          "internalType": "string",
          "name": "_regNo",
          "type": "string"
        },
        {
          "internalType": "string",
          "name": "_password",
          "type": "string"
        }
      ],
      "name": "voterLogin",
      "outputs": [],
      "stateMutability": "nonpayable",
      "type": "function"
    },
    {
      "inputs": [],
      "name": "logout",
      "outputs": [],
      "stateMutability": "nonpayable",
      "type": "function"
    }
  ],
  "bytecode": "0x608060405234801561001057600080fd5b5033601860006101000a81548173ffffffffffffffffffffffffffffffffffffffff021916908373ffffffffffffffffffffffffffffffffffffffff160217905550616ded80620000626000396000f3fe608060405234801561001057600080fd5b506004361061023d5760003560e01c80637f8bbbc51161013b578063d6f36304116100b8578063f64450261161007c578063f64450261461079b578063f6ffc117146107d4578063f851a440146107f2578063f9c1200914610810578063fdfc14fa1461082e5761023d565b8063d6f36304146106e5578063dccea18914610701578063e316db4e1461071f578063e6b52a331461074f578063f19c88021461077f5761023d565b8063b010b574116100ff578063b010b5741461062f578063b339eb161461064b578063bf08128f14610669578063c184e77814610699578063c822d7f0146106b55761023d565b80637f8bbbc514610538578063828d95f21461057057806399cab9da146105a8578063a0b0df95146105c4578063a3ec138d146105f45761023d565b80634b20c243116101c95780635f8b99721161018d5780635f8b99721461046657806371b7ddb81461049657806375829def146104c6578063788cbe84146104e25780637edf4f6d1461051a5761023d565b80634b20c243146103c25780634c1e63c2146103e0578063581c281c146103fc5780635aca02cf1461041a5780635b6e990c146104365761023d565b806316d0b7731161021057806316d0b773146102f95780631ac45f52146103315780631cb599141461036a5780631f3c99c31461038857806345a8a2be146103925761023d565b806302aac7b214610242578063052fbf8c146102725780630d15fd77146102a2578063166b4722146102c0575b600080fd5b61025c60048036038101906102579190615632565b61084a565b60405161026991906156ef565b60405180910390f35b61028c6004803603810190610287919061576f565b6108f6565b60405161029991906157b7565b60405180910390f35b6102aa610916565b6040516102b791906157e1565b60405180910390f35b6102da60048036038101906102d59190615931565b61091c565b6040516102f09a9998979695949392919061597a565b60405180910390f35b610313600480360381019061030e919061576f565b610d4b565b60405161032899989796959493929190615a56565b60405180910390f35b61034b60048036038101906103469190615931565b6111d7565b6040516103619a9998979695949392919061597a565b60405180910390f35b610372611606565b60405161037f91906157b7565b60405180910390f35b610390611619565b005b6103ac60048036038101906103a79190615632565b6116be565b6040516103b991906156ef565b60405180910390f35b6103ca61176a565b6040516103d79190615c20565b60405180910390f35b6103fa60048036038101906103f59190615c42565b611843565b005b610404611b00565b60405161041191906157b7565b60405180910390f35b610434600480360381019061042f9190615931565b611b1b565b005b610450600480360381019061044b919061576f565b612187565b60405161045d91906156ef565b60405180910390f35b610480600480360381019061047b919061576f565b612227565b60405161048d91906157b7565b60405180910390f35b6104b060048036038101906104ab9190615632565b612247565b6040516104bd9190615dbc565b60405180910390f35b6104e060048036038101906104db919061576f565b612286565b005b6104fc60048036038101906104f79190615931565b61235a565b60405161051199989796959493929190615dd7565b60405180910390f35b610522612811565b60405161052f9190615f53565b60405180910390f35b610552600480360381019061054d9190615931565b61289f565b60405161056799989796959493929190615dd7565b60405180910390f35b61058a60048036038101906105859190615931565b612d56565b60405161059f99989796959493929190615dd7565b60405180910390f35b6105c260048036038101906105bd9190615f75565b61320d565b005b6105de60048036038101906105d9919061576f565b6134ec565b6040516105eb91906157b7565b60405180910390f35b61060e6004803603810190610609919061576f565b61350c565b6040516106269c9b9a99989796959493929190615fed565b60405180910390f35b610649600480360381019061064491906160df565b6139e6565b005b610653613cdf565b6040516106609190615c20565b60405180910390f35b610683600480360381019061067e919061576f565b613db8565b60405161069091906157b7565b60405180910390f35b6106b360048036038101906106ae9190615c42565b613dd8565b005b6106cf60048036038101906106ca9190615931565b614087565b6040516106dc91906157b7565b60405180910390f35b6106ff60048036038101906106fa9190615931565b6140bd565b005b6107096146be565b60405161071691906157e1565b60405180910390f35b61073960048036038101906107349190615632565b6146c4565b60405161074691906156ef565b60405180910390f35b61076960048036038101906107649190615632565b614770565b60405161077691906157e1565b60405180910390f35b61079960048036038101906107949190615c42565b61478b565b005b6107b560048036038101906107b09190615931565b6149eb565b6040516107cb9a9998979695949392919061597a565b60405180910390f35b6107dc614e1a565b6040516107e991906157e1565b60405180910390f35b6107fa614e20565b6040516108079190615dbc565b60405180910390f35b610818614e46565b6040516108259190615c20565b60405180910390f35b61084860048036038101906108439190615931565b614f1f565b005b6009818154811061085a57600080fd5b906000526020600020016000915090508054610875906162b8565b80601f01602080910402602001604051908101604052809291908181526020018280546108a1906162b8565b80156108ee5780601f106108c3576101008083540402835291602001916108ee565b820191906000526020600020905b8154815290600101906020018083116108d157829003601f168201915b505050505081565b60076020528060005260406000206000915054906101000a900460ff1681565b60005481565b600281805160208101820180518482526020830160208501208183528095505050505050600091509050806000018054610955906162b8565b80601f0160208091040260200160405190810160405280929190818152602001828054610981906162b8565b80156109ce5780601f106109a3576101008083540402835291602001916109ce565b820191906000526020600020905b8154815290600101906020018083116109b157829003601f168201915b5050505050908060010180546109e3906162b8565b80601f0160208091040260200160405190810160405280929190818152602001828054610a0f906162b8565b8015610a5c5780601f10610a3157610100808354040283529160200191610a5c565b820191906000526020600020905b815481529060010190602001808311610a3f57829003601f168201915b505050505090806002018054610a71906162b8565b80601f0160208091040260200160405190810160405280929190818152602001828054610a9d906162b8565b8015610aea5780601f10610abf57610100808354040283529160200191610aea565b820191906000526020600020905b815481529060010190602001808311610acd57829003601f168201915b505050505090806003018054610aff906162b8565b80601f0160208091040260200160405190810160405280929190818152602001828054610b2b906162b8565b8015610b785780601f10610b4d57610100808354040283529160200191610b78565b820191906000526020600020905b815481529060010190602001808311610b5b57829003601f168201915b505050505090806004015490806005018054610b93906162b8565b80601f0160208091040260200160405190810160405280929190818152602001828054610bbf906162b8565b8015610c0c5780601f10610be157610100808354040283529160200191610c0c565b820191906000526020600020905b815481529060010190602001808311610bef57829003601f168201915b505050505090806006018054610c21906162b8565b80601f0160208091040260200160405190810160405280929190818152602001828054610c4d906162b8565b8015610c9a5780601f10610c6f57610100808354040283529160200191610c9a565b820191906000526020600020905b815481529060010190602001808311610c7d57829003601f168201915b505050505090806007018054610caf906162b8565b80601f0160208091040260200160405190810160405280929190818152602001828054610cdb906162b8565b8015610d285780601f10610cfd57610100808354040283529160200191610d28565b820191906000526020600020905b815481529060010190602001808311610d0b57829003601f168201915b5050505050908060080160009054906101000a900460ff1690806009015490508a565b6000606080606080606060006060806000601460008c73ffffffffffffffffffffffffffffffffffffffff1673ffffffffffffffffffffffffffffffffffffffff16815260200190815260200160002090508060000160009054906101000a900473ffffffffffffffffffffffffffffffffffffffff16816001018260020183600301846004018560060186600501548760070188600901878054610def906162b8565b80601f0160208091040260200160405190810160405280929190818152602001828054610e1b906162b8565b8015610e685780601f10610e3d57610100808354040283529160200191610e68565b820191906000526020600020905b815481529060010190602001808311610e4b57829003601f168201915b50505050509750868054610e7b906162b8565b80601f0160208091040260200160405190810160405280929190818152602001828054610ea7906162b8565b8015610ef45780601f10610ec957610100808354040283529160200191610ef4565b820191906000526020600020905b815481529060010190602001808311610ed757829003601f168201915b50505050509650858054610f07906162b8565b80601f0160208091040260200160405190810160405280929190818152602001828054610f33906162b8565b8015610f805780601f10610f5557610100808354040283529160200191610f80565b820191906000526020600020905b815481529060010190602001808311610f6357829003601f168201915b50505050509550848054610f93906162b8565b80601f0160208091040260200160405190810160405280929190818152602001828054610fbf906162b8565b801561100c5780601f10610fe15761010080835404028352916020019161100c565b820191906000526020600020905b815481529060010190602001808311610fef57829003601f168201915b5050505050945083805461101f906162b8565b80601f016020809104026020016040519081016040528092919081815260200182805461104b906162b8565b80156110985780601f1061106d57610100808354040283529160200191611098565b820191906000526020600020905b81548152906001019060200180831161107b57829003601f168201915b505050505093508180546110ab906162b8565b80601f01602080910402602001604051908101604052809291908181526020018280546110d7906162b8565b80156111245780601f106110f957610100808354040283529160200191611124565b820191906000526020600020905b81548152906001019060200180831161110757829003601f168201915b50505050509150808054611137906162b8565b80601f0160208091040260200160405190810160405280929190818152602001828054611163906162b8565b80156111b05780601f10611185576101008083540402835291602001916111b0565b820191906000526020600020905b81548152906001019060200180831161119357829003601f168201915b50505050509050995099509950995099509950995099509950509193959799909294969850565b600481805160208101820180518482526020830160208501208183528095505050505050600091509050806000018054611210906162b8565b80601f016020809104026020016040519081016040528092919081815260200182805461123c906162b8565b80156112895780601f1061125e57610100808354040283529160200191611289565b820191906000526020600020905b81548152906001019060200180831161126c57829003601f168201915b50505050509080600101805461129e906162b8565b80601f01602080910402602001604051908101604052809291908181526020018280546112ca906162b8565b80156113175780601f106112ec57610100808354040283529160200191611317565b820191906000526020600020905b8154815290600101906020018083116112fa57829003601f168201915b50505050509080600201805461132c906162b8565b80601f0160208091040260200160405190810160405280929190818152602001828054611358906162b8565b80156113a55780601f1061137a576101008083540402835291602001916113a5565b820191906000526020600020905b81548152906001019060200180831161138857829003601f168201915b5050505050908060030180546113ba906162b8565b80601f01602080910402602001604051908101604052809291908181526020018280546113e6906162b8565b80156114335780601f1061140857610100808354040283529160200191611433565b820191906000526020600020905b81548152906001019060200180831161141657829003601f168201915b50505050509080600401549080600501805461144e906162b8565b80601f016020809104026020016040519081016040528092919081815260200182805461147a906162b8565b80156114c75780601f1061149c576101008083540402835291602001916114c7565b820191906000526020600020905b8154815290600101906020018083116114aa57829003601f168201915b5050505050908060060180546114dc906162b8565b80601f0160208091040260200160405190810160405280929190818152602001828054611508906162b8565b80156115555780601f1061152a57610100808354040283529160200191611555565b820191906000526020600020905b81548152906001019060200180831161153857829003601f168201915b50505050509080600701805461156a906162b8565b80601f0160208091040260200160405190810160405280929190818152602001828054611596906162b8565b80156115e35780601f106115b8576101008083540402835291602001916115e3565b820191906000526020600020905b8154815290600101906020018083116115c657829003601f168201915b5050505050908060080160009054906101000a900460ff1690806009015490508a565b601c60009054906101000a900460ff1681565b6000601560003373ffffffffffffffffffffffffffffffffffffffff1673ffffffffffffffffffffffffffffffffffffffff16815260200190815260200160002060006101000a81548160ff021916908315150217905550601660003373ffffffffffffffffffffffffffffffffffffffff1673ffffffffffffffffffffffffffffffffffffffff16815260200190815260200160002060006116bc919061558b565b565b600a81815481106116ce57600080fd5b9060005260206000200160009150905080546116e9906162b8565b80601f0160208091040260200160405190810160405280929190818152602001828054611715906162b8565b80156117625780601f1061173757610100808354040283529160200191611762565b820191906000526020600020905b81548152906001019060200180831161174557829003601f168201915b505050505081565b60606008805480602002602001604051908101604052809291908181526020016000905b8282101561183a5783829060005260206000200180546117ad906162b8565b80601f01602080910402602001604051908101604052809291908181526020018280546117d9906162b8565b80156118265780601f106117fb57610100808354040283529160200191611826565b820191906000526020600020905b81548152906001019060200180831161180957829003601f168201915b50505050508152602001906001019061178e565b50505050905090565b601860009054906101000a900473ffffffffffffffffffffffffffffffffffffffff1673ffffffffffffffffffffffffffffffffffffffff163373ffffffffffffffffffffffffffffffffffffffff16146118d3576040517f08c379a00000000000000000000000000000000000000000000000000000000081526004016118ca9061635b565b60405180910390fd5b601c60009054906101000a900460ff1615611923576040517f08c379a000000000000000000000000000000000000000000000000000000000815260040161191a906163c7565b60405180910390fd5b6002600b5410611968576040517f08c379a000000000000000000000000000000000000000000000000000000000815260040161195f90616459565b60405180910390fd5b60006040518061014001604052808a815260200189815260200188815260200187815260200186815260200185815260200184815260200183815260200160001515815260200160008152509050806002856040516119c791906164b5565b908152602001604051809103902060008201518160000190816119ea9190616678565b506020820151816001019081611a009190616678565b506040820151816002019081611a169190616678565b506060820151816003019081611a2c9190616678565b506080820151816004015560a0820151816005019081611a4c9190616678565b5060c0820151816006019081611a629190616678565b5060e0820151816007019081611a789190616678565b506101008201518160080160006101000a81548160ff0219169083151502179055506101208201518160090155905050600884908060018154018082558091505060019003906000526020600020016000909190919091509081611adc9190616678565b50600b6000815480929190611af090616779565b9190505550505050505050505050565b60006019544210158015611b165750601a544211155b905090565b601460003373ffffffffffffffffffffffffffffffffffffffff1673ffffffffffffffffffffffffffffffffffffffff168152602001908152602001600020600a0160009054906101000a900460ff16611baa576040517f08c379a0000000000000000000000000000000000000000000000000000000008152600401611ba19061680d565b60405180910390fd5b600181604051611bba91906164b5565b908152602001604051809103902060009054906101000a900460ff16611c15576040517f08c379a0000000000000000000000000000000000000000000000000000000008152600401611c0c90616879565b60405180910390fd5b600760003373ffffffffffffffffffffffffffffffffffffffff1673ffffffffffffffffffffffffffffffffffffffff16815260200190815260200160002060009054906101000a900460ff1615611ca2576040517f08c379a0000000000000000000000000000000000000000000000000000000008152600401611c999061690b565b60405180910390fd5b6001600760003373ffffffffffffffffffffffffffffffffffffffff1673ffffffffffffffffffffffffffffffffffffffff16815260200190815260200160002060006101000a81548160ff0219169083151502179055506000600482604051611d0c91906164b5565b908152602001604051809103902060405180610140016040529081600082018054611d36906162b8565b80601f0160208091040260200160405190810160405280929190818152602001828054611d62906162b8565b8015611daf5780601f10611d8457610100808354040283529160200191611daf565b820191906000526020600020905b815481529060010190602001808311611d9257829003601f168201915b50505050508152602001600182018054611dc8906162b8565b80601f0160208091040260200160405190810160405280929190818152602001828054611df4906162b8565b8015611e415780601f10611e1657610100808354040283529160200191611e41565b820191906000526020600020905b815481529060010190602001808311611e2457829003601f168201915b50505050508152602001600282018054611e5a906162b8565b80601f0160208091040260200160405190810160405280929190818152602001828054611e86906162b8565b8015611ed35780601f10611ea857610100808354040283529160200191611ed3565b820191906000526020600020905b815481529060010190602001808311611eb657829003601f168201915b50505050508152602001600382018054611eec906162b8565b80601f0160208091040260200160405190810160405280929190818152602001828054611f18906162b8565b8015611f655780601f10611f3a57610100808354040283529160200191611f65565b820191906000526020600020905b815481529060010190602001808311611f4857829003601f168201915b5050505050815260200160048201548152602001600582018054611f88906162b8565b80601f0160208091040260200160405190810160405280929190818152602001828054611fb4906162b8565b80156120015780601f10611fd657610100808354040283529160200191612001565b820191906000526020600020905b815481529060010190602001808311611fe457829003601f168201915b5050505050815260200160068201805461201a906162b8565b80601f0160208091040260200160405190810160405280929190818152602001828054612046906162b8565b80156120935780601f1061206857610100808354040283529160200191612093565b820191906000526020600020905b81548152906001019060200180831161207657829003601f168201915b505050505081526020016007820180546120ac906162b8565b80601f01602080910402602001604051908101604052809291908181526020018280546120d8906162b8565b80156121255780601f106120fa57610100808354040283529160200191612125565b820191906000526020600020905b81548152906001019060200180831161210857829003601f168201915b505050505081526020016008820160009054906101000a900460ff1615151515815260200160098201548152505090508061012001805180919061216890616779565b8152505060008081548092919061217e90616779565b91905055505050565b601660205280600052604060002060009150905080546121a6906162b8565b80601f01602080910402602001604051908101604052809291908181526020018280546121d2906162b8565b801561221f5780601f106121f45761010080835404028352916020019161221f565b820191906000526020600020905b81548152906001019060200180831161220257829003601f168201915b505050505081565b60056020528060005260406000206000915054906101000a900460ff1681565b6017818154811061225757600080fd5b906000526020600020016000915054906101000a900473ffffffffffffffffffffffffffffffffffffffff1681565b601860009054906101000a900473ffffffffffffffffffffffffffffffffffffffff1673ffffffffffffffffffffffffffffffffffffffff163373ffffffffffffffffffffffffffffffffffffffff1614612316576040517f08c379a000000000000000000000000000000000000000000000000000000000815260040161230d9061635b565b60405180910390fd5b80601860006101000a81548173ffffffffffffffffffffffffffffffffffffffff021916908373ffffffffffffffffffffffffffffffffffffffff16021790555050565b6060806060806000606080606060008060028b60405161237a91906164b5565b9081526020016040518091039020604051806101400160405290816000820180546123a4906162b8565b80601f01602080910402602001604051908101604052809291908181526020018280546123d0906162b8565b801561241d5780601f106123f25761010080835404028352916020019161241d565b820191906000526020600020905b81548152906001019060200180831161240057829003601f168201915b50505050508152602001600182018054612436906162b8565b80601f0160208091040260200160405190810160405280929190818152602001828054612462906162b8565b80156124af5780601f10612484576101008083540402835291602001916124af565b820191906000526020600020905b81548152906001019060200180831161249257829003601f168201915b505050505081526020016002820180546124c8906162b8565b80601f01602080910402602001604051908101604052809291908181526020018280546124f4906162b8565b80156125415780601f1061251657610100808354040283529160200191612541565b820191906000526020600020905b81548152906001019060200180831161252457829003601f168201915b5050505050815260200160038201805461255a906162b8565b80601f0160208091040260200160405190810160405280929190818152602001828054612586906162b8565b80156125d35780601f106125a8576101008083540402835291602001916125d3565b820191906000526020600020905b8154815290600101906020018083116125b657829003601f168201915b50505050508152602001600482015481526020016005820180546125f6906162b8565b80601f0160208091040260200160405190810160405280929190818152602001828054612622906162b8565b801561266f5780601f106126445761010080835404028352916020019161266f565b820191906000526020600020905b81548152906001019060200180831161265257829003601f168201915b50505050508152602001600682018054612688906162b8565b80601f01602080910402602001604051908101604052809291908181526020018280546126b4906162b8565b80156127015780601f106126d657610100808354040283529160200191612701565b820191906000526020600020905b8154815290600101906020018083116126e457829003601f168201915b5050505050815260200160078201805461271a906162b8565b80601f0160208091040260200160405190810160405280929190818152602001828054612746906162b8565b80156127935780601f1061276857610100808354040283529160200191612793565b820191906000526020600020905b81548152906001019060200180831161277657829003601f168201915b505050505081526020016008820160009054906101000a900460ff16151515158152602001600982015481525050905080600001519950806020015198508060400151975080606001519650806080015195508060a0015194508060c0015193508060e0015192508061012001519150509193959799909294969850565b6060601780548060200260200160405190810160405280929190818152602001828054801561289557602002820191906000526020600020905b8160009054906101000a900473ffffffffffffffffffffffffffffffffffffffff1673ffffffffffffffffffffffffffffffffffffffff168152602001906001019080831161284b575b5050505050905090565b6060806060806000606080606060008060048b6040516128bf91906164b5565b9081526020016040518091039020604051806101400160405290816000820180546128e9906162b8565b80601f0160208091040260200160405190810160405280929190818152602001828054612915906162b8565b80156129625780601f1061293757610100808354040283529160200191612962565b820191906000526020600020905b81548152906001019060200180831161294557829003601f168201915b5050505050815260200160018201805461297b906162b8565b80601f01602080910402602001604051908101604052809291908181526020018280546129a7906162b8565b80156129f45780601f106129c9576101008083540402835291602001916129f4565b820191906000526020600020905b8154815290600101906020018083116129d757829003601f168201915b50505050508152602001600282018054612a0d906162b8565b80601f0160208091040260200160405190810160405280929190818152602001828054612a39906162b8565b8015612a865780601f10612a5b57610100808354040283529160200191612a86565b820191906000526020600020905b815481529060010190602001808311612a6957829003601f168201915b50505050508152602001600382018054612a9f906162b8565b80601f0160208091040260200160405190810160405280929190818152602001828054612acb906162b8565b8015612b185780601f10612aed57610100808354040283529160200191612b18565b820191906000526020600020905b815481529060010190602001808311612afb57829003601f168201915b5050505050815260200160048201548152602001600582018054612b3b906162b8565b80601f0160208091040260200160405190810160405280929190818152602001828054612b67906162b8565b8015612bb45780601f10612b8957610100808354040283529160200191612bb4565b820191906000526020600020905b815481529060010190602001808311612b9757829003601f168201915b50505050508152602001600682018054612bcd906162b8565b80601f0160208091040260200160405190810160405280929190818152602001828054612bf9906162b8565b8015612c465780601f10612c1b57610100808354040283529160200191612c46565b820191906000526020600020905b815481529060010190602001808311612c2957829003601f168201915b50505050508152602001600782018054612c5f906162b8565b80601f0160208091040260200160405190810160405280929190818152602001828054612c8b906162b8565b8015612cd85780601f10612cad57610100808354040283529160200191612cd8565b820191906000526020600020905b815481529060010190602001808311612cbb57829003601f168201915b505050505081526020016008820160009054906101000a900460ff16151515158152602001600982015481525050905080600001519950806020015198508060400151975080606001519650806080015195508060a0015194508060c0015193508060e0015192508061012001519150509193959799909294969850565b6060806060806000606080606060008060038b604051612d7691906164b5565b908152602001604051809103902060405180610140016040529081600082018054612da0906162b8565b80601f0160208091040260200160405190810160405280929190818152602001828054612dcc906162b8565b8015612e195780601f10612dee57610100808354040283529160200191612e19565b820191906000526020600020905b815481529060010190602001808311612dfc57829003601f168201915b50505050508152602001600182018054612e32906162b8565b80601f0160208091040260200160405190810160405280929190818152602001828054612e5e906162b8565b8015612eab5780601f10612e8057610100808354040283529160200191612eab565b820191906000526020600020905b815481529060010190602001808311612e8e57829003601f168201915b50505050508152602001600282018054612ec4906162b8565b80601f0160208091040260200160405190810160405280929190818152602001828054612ef0906162b8565b8015612f3d5780601f10612f1257610100808354040283529160200191612f3d565b820191906000526020600020905b815481529060010190602001808311612f2057829003601f168201915b50505050508152602001600382018054612f56906162b8565b80601f0160208091040260200160405190810160405280929190818152602001828054612f82906162b8565b8015612fcf5780601f10612fa457610100808354040283529160200191612fcf565b820191906000526020600020905b815481529060010190602001808311612fb257829003601f168201915b5050505050815260200160048201548152602001600582018054612ff2906162b8565b80601f016020809104026020016040519081016040528092919081815260200182805461301e906162b8565b801561306b5780601f106130405761010080835404028352916020019161306b565b820191906000526020600020905b81548152906001019060200180831161304e57829003601f168201915b50505050508152602001600682018054613084906162b8565b80601f01602080910402602001604051908101604052809291908181526020018280546130b0906162b8565b80156130fd5780601f106130d2576101008083540402835291602001916130fd565b820191906000526020600020905b8154815290600101906020018083116130e057829003601f168201915b50505050508152602001600782018054613116906162b8565b80601f0160208091040260200160405190810160405280929190818152602001828054613142906162b8565b801561318f5780601f106131645761010080835404028352916020019161318f565b820191906000526020600020905b81548152906001019060200180831161317257829003601f168201915b505050505081526020016008820160009054906101000a900460ff16151515158152602001600982015481525050905080600001519950806020015198508060400151975080606001519650806080015195508060a0015194508060c0015193508060e0015192508061012001519150509193959799909294969850565b601460003373ffffffffffffffffffffffffffffffffffffffff1673ffffffffffffffffffffffffffffffffffffffff168152602001908152602001600020600a0160009054906101000a900460ff1661329c576040517f08c379a000000000000000000000000000000000000000000000000000000000815260040161329390616977565b60405180910390fd5b6000828051906020012050602060ff161180156132c657506000818051906020012050602060ff16115b613305576040517f08c379a00000000000000000000000000000000000000000000000000000000081526004016132fc90616a09565b60405180910390fd5b8180519060200120601460003373ffffffffffffffffffffffffffffffffffffffff1673ffffffffffffffffffffffffffffffffffffffff16815260200190815260200160002060060160405161335c9190616acc565b6040518091039020146133a4576040517f08c379a000000000000000000000000000000000000000000000000000000000815260040161339b90616b2f565b60405180910390fd5b8080519060200120601460003373ffffffffffffffffffffffffffffffffffffffff1673ffffffffffffffffffffffffffffffffffffffff1681526020019081526020016000206008016040516133fb9190616acc565b604051809103902014613443576040517f08c379a000000000000000000000000000000000000000000000000000000000815260040161343a90616b9b565b60405180910390fd5b6001601560003373ffffffffffffffffffffffffffffffffffffffff1673ffffffffffffffffffffffffffffffffffffffff16815260200190815260200160002060006101000a81548160ff02191690831515021790555081601660003373ffffffffffffffffffffffffffffffffffffffff1673ffffffffffffffffffffffffffffffffffffffff16815260200190815260200160002090816134e79190616678565b505050565b60066020528060005260406000206000915054906101000a900460ff1681565b60146020528060005260406000206000915090508060000160009054906101000a900473ffffffffffffffffffffffffffffffffffffffff1690806001018054613555906162b8565b80601f0160208091040260200160405190810160405280929190818152602001828054613581906162b8565b80156135ce5780601f106135a3576101008083540402835291602001916135ce565b820191906000526020600020905b8154815290600101906020018083116135b157829003601f168201915b5050505050908060020180546135e3906162b8565b80601f016020809104026020016040519081016040528092919081815260200182805461360f906162b8565b801561365c5780601f106136315761010080835404028352916020019161365c565b820191906000526020600020905b81548152906001019060200180831161363f57829003601f168201915b505050505090806003018054613671906162b8565b80601f016020809104026020016040519081016040528092919081815260200182805461369d906162b8565b80156136ea5780601f106136bf576101008083540402835291602001916136ea565b820191906000526020600020905b8154815290600101906020018083116136cd57829003601f168201915b5050505050908060040180546136ff906162b8565b80601f016020809104026020016040519081016040528092919081815260200182805461372b906162b8565b80156137785780601f1061374d57610100808354040283529160200191613778565b820191906000526020600020905b81548152906001019060200180831161375b57829003601f168201915b505050505090806005015490806006018054613793906162b8565b80601f01602080910402602001604051908101604052809291908181526020018280546137bf906162b8565b801561380c5780601f106137e15761010080835404028352916020019161380c565b820191906000526020600020905b8154815290600101906020018083116137ef57829003601f168201915b505050505090806007018054613821906162b8565b80601f016020809104026020016040519081016040528092919081815260200182805461384d906162b8565b801561389a5780601f1061386f5761010080835404028352916020019161389a565b820191906000526020600020905b81548152906001019060200180831161387d57829003601f168201915b5050505050908060080180546138af906162b8565b80601f01602080910402602001604051908101604052809291908181526020018280546138db906162b8565b80156139285780601f106138fd57610100808354040283529160200191613928565b820191906000526020600020905b81548152906001019060200180831161390b57829003601f168201915b50505050509080600901805461393d906162b8565b80601f0160208091040260200160405190810160405280929190818152602001828054613969906162b8565b80156139b65780601f1061398b576101008083540402835291602001916139b6565b820191906000526020600020905b81548152906001019060200180831161399957829003601f168201915b50505050509080600a0160009054906101000a900460ff169080600a0160019054906101000a900460ff1690508c565b601460003373ffffffffffffffffffffffffffffffffffffffff1673ffffffffffffffffffffffffffffffffffffffff168152602001908152602001600020600a0160009054906101000a900460ff1615613a76576040517f08c379a0000000000000000000000000000000000000000000000000000000008152600401613a6d90616c07565b60405180910390fd5b60006040518061018001604052803373ffffffffffffffffffffffffffffffffffffffff1681526020018b81526020018a815260200189815260200188815260200187815260200186815260200185815260200184815260200183815260200160011515815260200160001515815250905080601460003373ffffffffffffffffffffffffffffffffffffffff1673ffffffffffffffffffffffffffffffffffffffff16815260200190815260200160002060008201518160000160006101000a81548173ffffffffffffffffffffffffffffffffffffffff021916908373ffffffffffffffffffffffffffffffffffffffff1602179055506020820151816001019081613b849190616678565b506040820151816002019081613b9a9190616678565b506060820151816003019081613bb09190616678565b506080820151816004019081613bc69190616678565b5060a0820151816005015560c0820151816006019081613be69190616678565b5060e0820151816007019081613bfc9190616678565b50610100820151816008019081613c139190616678565b50610120820151816009019081613c2a9190616678565b5061014082015181600a0160006101000a81548160ff02191690831515021790555061016082015181600a0160016101000a81548160ff0219169083151502179055509050506017339080600181540180825580915050600190039060005260206000200160009091909190916101000a81548173ffffffffffffffffffffffffffffffffffffffff021916908373ffffffffffffffffffffffffffffffffffffffff16021790555050505050505050505050565b60606009805480602002602001604051908101604052809291908181526020016000905b82821015613daf578382906000526020600020018054613d22906162b8565b80601f0160208091040260200160405190810160405280929190818152602001828054613d4e906162b8565b8015613d9b5780601f10613d7057610100808354040283529160200191613d9b565b820191906000526020600020905b815481529060010190602001808311613d7e57829003601f168201915b505050505081526020019060010190613d03565b50505050905090565b60156020528060005260406000206000915054906101000a900460ff1681565b601860009054906101000a900473ffffffffffffffffffffffffffffffffffffffff1673ffffffffffffffffffffffffffffffffffffffff163373ffffffffffffffffffffffffffffffffffffffff1614613e68576040517f08c379a0000000000000000000000000000000000000000000000000000000008152600401613e5f9061635b565b60405180910390fd5b601c60009054906101000a900460ff1615613eb8576040517f08c379a0000000000000000000000000000000000000000000000000000000008152600401613eaf906163c7565b60405180910390fd5b600084118015613ec85750600584105b613f07576040517f08c379a0000000000000000000000000000000000000000000000000000000008152600401613efe90616c73565b60405180910390fd5b60006040518061014001604052808a81526020018981526020018881526020018781526020018681526020018581526020018481526020018381526020016000151581526020016000815250905080600385604051613f6691906164b5565b90815260200160405180910390206000820151816000019081613f899190616678565b506020820151816001019081613f9f9190616678565b506040820151816002019081613fb59190616678565b506060820151816003019081613fcb9190616678565b506080820151816004015560a0820151816005019081613feb9190616678565b5060c08201518160060190816140019190616678565b5060e08201518160070190816140179190616678565b506101008201518160080160006101000a81548160ff021916908315150217905550610120820151816009015590505060098490806001815401808255809150506001900390600052602060002001600090919091909150908161407b9190616678565b50505050505050505050565b6001818051602081018201805184825260208301602085012081835280955050505050506000915054906101000a900460ff1681565b601460003373ffffffffffffffffffffffffffffffffffffffff1673ffffffffffffffffffffffffffffffffffffffff168152602001908152602001600020600a0160009054906101000a900460ff1661414c576040517f08c379a00000000000000000000000000000000000000000000000000000000081526004016141439061680d565b60405180910390fd5b600560003373ffffffffffffffffffffffffffffffffffffffff1673ffffffffffffffffffffffffffffffffffffffff16815260200190815260200160002060009054906101000a900460ff16156141d9576040517f08c379a00000000000000000000000000000000000000000000000000000000081526004016141d090616d05565b60405180910390fd5b6001600560003373ffffffffffffffffffffffffffffffffffffffff1673ffffffffffffffffffffffffffffffffffffffff16815260200190815260200160002060006101000a81548160ff021916908315150217905550600060028260405161424391906164b5565b90815260200160405180910390206040518061014001604052908160008201805461426d906162b8565b80601f0160208091040260200160405190810160405280929190818152602001828054614299906162b8565b80156142e65780601f106142bb576101008083540402835291602001916142e6565b820191906000526020600020905b8154815290600101906020018083116142c957829003601f168201915b505050505081526020016001820180546142ff906162b8565b80601f016020809104026020016040519081016040528092919081815260200182805461432b906162b8565b80156143785780601f1061434d57610100808354040283529160200191614378565b820191906000526020600020905b81548152906001019060200180831161435b57829003601f168201915b50505050508152602001600282018054614391906162b8565b80601f01602080910402602001604051908101604052809291908181526020018280546143bd906162b8565b801561440a5780601f106143df5761010080835404028352916020019161440a565b820191906000526020600020905b8154815290600101906020018083116143ed57829003601f168201915b50505050508152602001600382018054614423906162b8565b80601f016020809104026020016040519081016040528092919081815260200182805461444f906162b8565b801561449c5780601f106144715761010080835404028352916020019161449c565b820191906000526020600020905b81548152906001019060200180831161447f57829003601f168201915b50505050508152602001600482015481526020016005820180546144bf906162b8565b80601f01602080910402602001604051908101604052809291908181526020018280546144eb906162b8565b80156145385780601f1061450d57610100808354040283529160200191614538565b820191906000526020600020905b81548152906001019060200180831161451b57829003601f168201915b50505050508152602001600682018054614551906162b8565b80601f016020809104026020016040519081016040528092919081815260200182805461457d906162b8565b80156145ca5780601f1061459f576101008083540402835291602001916145ca565b820191906000526020600020905b8154815290600101906020018083116145ad57829003601f168201915b505050505081526020016007820180546145e3906162b8565b80601f016020809104026020016040519081016040528092919081815260200182805461460f906162b8565b801561465c5780601f106146315761010080835404028352916020019161465c565b820191906000526020600020905b81548152906001019060200180831161463f57829003601f168201915b505050505081526020016008820160009054906101000a900460ff1615151515815260200160098201548152505090508061012001805180919061469f90616779565b815250506000808154809291906146b590616779565b91905055505050565b600b5481565b600881815481106146d457600080fd5b9060005260206000200160009150905080546146ef906162b8565b80601f016020809104026020016040519081016040528092919081815260200182805461471b906162b8565b80156147685780601f1061473d57610100808354040283529160200191614768565b820191906000526020600020905b81548152906001019060200180831161474b57829003601f168201915b505050505081565b600c816007811061478057600080fd5b016000915090505481565b601860009054906101000a900473ffffffffffffffffffffffffffffffffffffffff1673ffffffffffffffffffffffffffffffffffffffff163373ffffffffffffffffffffffffffffffffffffffff161461481b576040517f08c379a00000000000000000000000000000000000000000000000000000000081526004016148129061635b565b60405180910390fd5b601c60009054906101000a900460ff161561486b576040517f08c379a0000000000000000000000000000000000000000000000000000000008152600401614862906163c7565b60405180910390fd5b60006040518061014001604052808a815260200189815260200188815260200187815260200186815260200185815260200184815260200183815260200160001515815260200160008152509050806004856040516148ca91906164b5565b908152602001604051809103902060008201518160000190816148ed9190616678565b5060208201518160010190816149039190616678565b5060408201518160020190816149199190616678565b50606082015181600301908161492f9190616678565b506080820151816004015560a082015181600501908161494f9190616678565b5060c08201518160060190816149659190616678565b5060e082015181600701908161497b9190616678565b506101008201518160080160006101000a81548160ff0219169083151502179055506101208201518160090155905050600a849080600181540180825580915050600190039060005260206000200160009091909190915090816149df9190616678565b50505050505050505050565b600381805160208101820180518482526020830160208501208183528095505050505050600091509050806000018054614a24906162b8565b80601f0160208091040260200160405190810160405280929190818152602001828054614a50906162b8565b8015614a9d5780601f10614a7257610100808354040283529160200191614a9d565b820191906000526020600020905b815481529060010190602001808311614a8057829003601f168201915b505050505090806001018054614ab2906162b8565b80601f0160208091040260200160405190810160405280929190818152602001828054614ade906162b8565b8015614b2b5780601f10614b0057610100808354040283529160200191614b2b565b820191906000526020600020905b815481529060010190602001808311614b0e57829003601f168201915b505050505090806002018054614b40906162b8565b80601f0160208091040260200160405190810160405280929190818152602001828054614b6c906162b8565b8015614bb95780601f10614b8e57610100808354040283529160200191614bb9565b820191906000526020600020905b815481529060010190602001808311614b9c57829003601f168201915b505050505090806003018054614bce906162b8565b80601f0160208091040260200160405190810160405280929190818152602001828054614bfa906162b8565b8015614c475780601f10614c1c57610100808354040283529160200191614c47565b820191906000526020600020905b815481529060010190602001808311614c2a57829003601f168201915b505050505090806004015490806005018054614c62906162b8565b80601f0160208091040260200160405190810160405280929190818152602001828054614c8e906162b8565b8015614cdb5780601f10614cb057610100808354040283529160200191614cdb565b820191906000526020600020905b815481529060010190602001808311614cbe57829003601f168201915b505050505090806006018054614cf0906162b8565b80601f0160208091040260200160405190810160405280929190818152602001828054614d1c906162b8565b8015614d695780601f10614d3e57610100808354040283529160200191614d69565b820191906000526020600020905b815481529060010190602001808311614d4c57829003601f168201915b505050505090806007018054614d7e906162b8565b80601f0160208091040260200160405190810160405280929190818152602001828054614daa906162b8565b8015614df75780601f10614dcc57610100808354040283529160200191614df7565b820191906000526020600020905b815481529060010190602001808311614dda57829003601f168201915b5050505050908060080160009054906101000a900460ff1690806009015490508a565b60135481565b601860009054906101000a900473ffffffffffffffffffffffffffffffffffffffff1681565b6060600a805480602002602001604051908101604052809291908181526020016000905b82821015614f16578382906000526020600020018054614e89906162b8565b80601f0160208091040260200160405190810160405280929190818152602001828054614eb5906162b8565b8015614f025780601f10614ed757610100808354040283529160200191614f02565b820191906000526020600020905b815481529060010190602001808311614ee557829003601f168201915b505050505081526020019060010190614e6a565b50505050905090565b601460003373ffffffffffffffffffffffffffffffffffffffff1673ffffffffffffffffffffffffffffffffffffffff168152602001908152602001600020600a0160009054906101000a900460ff16614fae576040517f08c379a0000000000000000000000000000000000000000000000000000000008152600401614fa59061680d565b60405180910390fd5b600181604051614fbe91906164b5565b908152602001604051809103902060009054906101000a900460ff16615019576040517f08c379a000000000000000000000000000000000000000000000000000000000815260040161501090616879565b60405180910390fd5b600660003373ffffffffffffffffffffffffffffffffffffffff1673ffffffffffffffffffffffffffffffffffffffff16815260200190815260200160002060009054906101000a900460ff16156150a6576040517f08c379a000000000000000000000000000000000000000000000000000000000815260040161509d90616d97565b60405180910390fd5b6001600660003373ffffffffffffffffffffffffffffffffffffffff1673ffffffffffffffffffffffffffffffffffffffff16815260200190815260200160002060006101000a81548160ff021916908315150217905550600060038260405161511091906164b5565b90815260200160405180910390206040518061014001604052908160008201805461513a906162b8565b80601f0160208091040260200160405190810160405280929190818152602001828054615166906162b8565b80156151b35780601f10615188576101008083540402835291602001916151b3565b820191906000526020600020905b81548152906001019060200180831161519657829003601f168201915b505050505081526020016001820180546151cc906162b8565b80601f01602080910402602001604051908101604052809291908181526020018280546151f8906162b8565b80156152455780601f1061521a57610100808354040283529160200191615245565b820191906000526020600020905b81548152906001019060200180831161522857829003601f168201915b5050505050815260200160028201805461525e906162b8565b80601f016020809104026020016040519081016040528092919081815260200182805461528a906162b8565b80156152d75780601f106152ac576101008083540402835291602001916152d7565b820191906000526020600020905b8154815290600101906020018083116152ba57829003601f168201915b505050505081526020016003820180546152f0906162b8565b80601f016020809104026020016040519081016040528092919081815260200182805461531c906162b8565b80156153695780601f1061533e57610100808354040283529160200191615369565b820191906000526020600020905b81548152906001019060200180831161534c57829003601f168201915b505050505081526020016004820154815260200160058201805461538c906162b8565b80601f01602080910402602001604051908101604052809291908181526020018280546153b8906162b8565b80156154055780601f106153da57610100808354040283529160200191615405565b820191906000526020600020905b8154815290600101906020018083116153e857829003601f168201915b5050505050815260200160068201805461541e906162b8565b80601f016020809104026020016040519081016040528092919081815260200182805461544a906162b8565b80156154975780601f1061546c57610100808354040283529160200191615497565b820191906000526020600020905b81548152906001019060200180831161547a57829003601f168201915b505050505081526020016007820180546154b0906162b8565b80601f01602080910402602001604051908101604052809291908181526020018280546154dc906162b8565b80156155295780601f106154fe57610100808354040283529160200191615529565b820191906000526020600020905b81548152906001019060200180831161550c57829003601f168201915b505050505081526020016008820160009054906101000a900460ff1615151515815260200160098201548152505090508061012001805180919061556c90616779565b8152505060008081548092919061558290616779565b91905055505050565b508054615597906162b8565b6000825580601f106155a957506155c8565b601f0160209004906000526020600020908101906155c791906155cb565b5b50565b5b808211156155e45760008160009055506001016155cc565b5090565b6000604051905090565b600080fd5b600080fd5b6000819050919050565b61560f816155fc565b811461561a57600080fd5b50565b60008135905061562c81615606565b92915050565b600060208284031215615648576156476155f2565b5b60006156568482850161561d565b91505092915050565b600081519050919050565b600082825260208201905092915050565b60005b8381101561569957808201518184015260208101905061567e565b60008484015250505050565b6000601f19601f8301169050919050565b60006156c18261565f565b6156cb818561566a565b93506156db81856020860161567b565b6156e4816156a5565b840191505092915050565b6000602082019050818103600083015261570981846156b6565b905092915050565b600073ffffffffffffffffffffffffffffffffffffffff82169050919050565b600061573c82615711565b9050919050565b61574c81615731565b811461575757600080fd5b50565b60008135905061576981615743565b92915050565b600060208284031215615785576157846155f2565b5b60006157938482850161575a565b91505092915050565b60008115159050919050565b6157b18161579c565b82525050565b60006020820190506157cc60008301846157a8565b92915050565b6157db816155fc565b82525050565b60006020820190506157f660008301846157d2565b92915050565b600080fd5b600080fd5b7f4e487b7100000000000000000000000000000000000000000000000000000000600052604160045260246000fd5b61583e826156a5565b810181811067ffffffffffffffff8211171561585d5761585c615806565b5b80604052505050565b60006158706155e8565b905061587c8282615835565b919050565b600067ffffffffffffffff82111561589c5761589b615806565b5b6158a5826156a5565b9050602081019050919050565b82818337600083830152505050565b60006158d46158cf84615881565b615866565b9050828152602081018484840111156158f0576158ef615801565b5b6158fb8482856158b2565b509392505050565b600082601f830112615918576159176157fc565b5b81356159288482602086016158c1565b91505092915050565b600060208284031215615947576159466155f2565b5b600082013567ffffffffffffffff811115615965576159646155f7565b5b61597184828501615903565b91505092915050565b6000610140820190508181036000830152615995818d6156b6565b905081810360208301526159a9818c6156b6565b905081810360408301526159bd818b6156b6565b905081810360608301526159d1818a6156b6565b90506159e060808301896157d2565b81810360a08301526159f281886156b6565b905081810360c0830152615a0681876156b6565b905081810360e0830152615a1a81866156b6565b9050615a2a6101008301856157a8565b615a386101208301846157d2565b9b9a5050505050505050505050565b615a5081615731565b82525050565b600061012082019050615a6c600083018c615a47565b8181036020830152615a7e818b6156b6565b90508181036040830152615a92818a6156b6565b90508181036060830152615aa681896156b6565b90508181036080830152615aba81886156b6565b905081810360a0830152615ace81876156b6565b9050615add60c08301866157d2565b81810360e0830152615aef81856156b6565b9050818103610100830152615b0481846156b6565b90509a9950505050505050505050565b600081519050919050565b600082825260208201905092915050565b6000819050602082019050919050565b600082825260208201905092915050565b6000615b5c8261565f565b615b668185615b40565b9350615b7681856020860161567b565b615b7f816156a5565b840191505092915050565b6000615b968383615b51565b905092915050565b6000602082019050919050565b6000615bb682615b14565b615bc08185615b1f565b935083602082028501615bd285615b30565b8060005b85811015615c0e5784840389528151615bef8582615b8a565b9450615bfa83615b9e565b925060208a01995050600181019050615bd6565b50829750879550505050505092915050565b60006020820190508181036000830152615c3a8184615bab565b905092915050565b600080600080600080600080610100898b031215615c6357615c626155f2565b5b600089013567ffffffffffffffff811115615c8157615c806155f7565b5b615c8d8b828c01615903565b985050602089013567ffffffffffffffff811115615cae57615cad6155f7565b5b615cba8b828c01615903565b975050604089013567ffffffffffffffff811115615cdb57615cda6155f7565b5b615ce78b828c01615903565b965050606089013567ffffffffffffffff811115615d0857615d076155f7565b5b615d148b828c01615903565b9550506080615d258b828c0161561d565b94505060a089013567ffffffffffffffff811115615d4657615d456155f7565b5b615d528b828c01615903565b93505060c089013567ffffffffffffffff811115615d7357615d726155f7565b5b615d7f8b828c01615903565b92505060e089013567ffffffffffffffff811115615da057615d9f6155f7565b5b615dac8b828c01615903565b9150509295985092959890939650565b6000602082019050615dd16000830184615a47565b92915050565b6000610120820190508181036000830152615df2818c6156b6565b90508181036020830152615e06818b6156b6565b90508181036040830152615e1a818a6156b6565b90508181036060830152615e2e81896156b6565b9050615e3d60808301886157d2565b81810360a0830152615e4f81876156b6565b905081810360c0830152615e6381866156b6565b905081810360e0830152615e7781856156b6565b9050615e876101008301846157d2565b9a9950505050505050505050565b600081519050919050565b600082825260208201905092915050565b6000819050602082019050919050565b615eca81615731565b82525050565b6000615edc8383615ec1565b60208301905092915050565b6000602082019050919050565b6000615f0082615e95565b615f0a8185615ea0565b9350615f1583615eb1565b8060005b83811015615f46578151615f2d8882615ed0565b9750615f3883615ee8565b925050600181019050615f19565b5085935050505092915050565b60006020820190508181036000830152615f6d8184615ef5565b905092915050565b60008060408385031215615f8c57615f8b6155f2565b5b600083013567ffffffffffffffff811115615faa57615fa96155f7565b5b615fb685828601615903565b925050602083013567ffffffffffffffff811115615fd757615fd66155f7565b5b615fe385828601615903565b9150509250929050565b600061018082019050616003600083018f615a47565b8181036020830152616015818e6156b6565b90508181036040830152616029818d6156b6565b9050818103606083015261603d818c6156b6565b90508181036080830152616051818b6156b6565b905061606060a083018a6157d2565b81810360c083015261607281896156b6565b905081810360e083015261608681886156b6565b905081810361010083015261609b81876156b6565b90508181036101208301526160b081866156b6565b90506160c06101408301856157a8565b6160ce6101608301846157a8565b9d9c50505050505050505050505050565b60008060008060008060008060006101208a8c031215616102576161016155f2565b5b60008a013567ffffffffffffffff8111156161205761611f6155f7565b5b61612c8c828d01615903565b99505060208a013567ffffffffffffffff81111561614d5761614c6155f7565b5b6161598c828d01615903565b98505060408a013567ffffffffffffffff81111561617a576161796155f7565b5b6161868c828d01615903565b97505060608a013567ffffffffffffffff8111156161a7576161a66155f7565b5b6161b38c828d01615903565b96505060806161c48c828d0161561d565b95505060a08a013567ffffffffffffffff8111156161e5576161e46155f7565b5b6161f18c828d01615903565b94505060c08a013567ffffffffffffffff811115616212576162116155f7565b5b61621e8c828d01615903565b93505060e08a013567ffffffffffffffff81111561623f5761623e6155f7565b5b61624b8c828d01615903565b9250506101008a013567ffffffffffffffff81111561626d5761626c6155f7565b5b6162798c828d01615903565b9150509295985092959850929598565b7f4e487b7100000000000000000000000000000000000000000000000000000000600052602260045260246000fd5b600060028204905060018216806162d057607f821691505b6020821081036162e3576162e2616289565b5b50919050565b7f4f6e6c792061646d696e2063616e20706572666f726d2074686973206163746960008201527f6f6e000000000000000000000000000000000000000000000000000000000000602082015250565b600061634560228361566a565b9150616350826162e9565b604082019050919050565b6000602082019050818103600083015261637481616338565b9050919050565b7f566f74696e672070726f6365737320616c726561647920737461727465640000600082015250565b60006163b1601e8361566a565b91506163bc8261637b565b602082019050919050565b600060208201905081810360008301526163e0816163a4565b9050919050565b7f546865207265676973746572656420707265736964656e7420697320656e6f7560008201527f6768210000000000000000000000000000000000000000000000000000000000602082015250565b600061644360238361566a565b915061644e826163e7565b604082019050919050565b6000602082019050818103600083015261647281616436565b9050919050565b600081905092915050565b600061648f8261565f565b6164998185616479565b93506164a981856020860161567b565b80840191505092915050565b60006164c18284616484565b915081905092915050565b60008190508160005260206000209050919050565b60006020601f8301049050919050565b600082821b905092915050565b60006008830261652e7fffffffffffffffffffffffffffffffffffffffffffffffffffffffffffffffff826164f1565b61653886836164f1565b95508019841693508086168417925050509392505050565b6000819050919050565b600061657561657061656b846155fc565b616550565b6155fc565b9050919050565b6000819050919050565b61658f8361655a565b6165a361659b8261657c565b8484546164fe565b825550505050565b600090565b6165b86165ab565b6165c3818484616586565b505050565b5b818110156165e7576165dc6000826165b0565b6001810190506165c9565b5050565b601f82111561662c576165fd816164cc565b616606846164e1565b81016020851015616615578190505b616629616621856164e1565b8301826165c8565b50505b505050565b600082821c905092915050565b600061664f60001984600802616631565b1980831691505092915050565b6000616668838361663e565b9150826002028217905092915050565b6166818261565f565b67ffffffffffffffff81111561669a57616699615806565b5b6166a482546162b8565b6166af8282856165eb565b600060209050601f8311600181146166e257600084156166d0578287015190505b6166da858261665c565b865550616742565b601f1984166166f0866164cc565b60005b82811015616718578489015182556001820191506020850194506020810190506166f3565b868310156167355784890151616731601f89168261663e565b8355505b6001600288020188555050505b505050505050565b7f4e487b7100000000000000000000000000000000000000000000000000000000600052601160045260246000fd5b6000616784826155fc565b91507fffffffffffffffffffffffffffffffffffffffffffffffffffffffffffffffff82036167b6576167b561674a565b5b600182019050919050565b7f566f746572206973206e6f742072656769737465726564000000000000000000600082015250565b60006167f760178361566a565b9150616802826167c1565b602082019050919050565b60006020820190508181036000830152616826816167ea565b9050919050565b7f496e76616c69642063616e646964617465000000000000000000000000000000600082015250565b600061686360118361566a565b915061686e8261682d565b602082019050919050565b6000602082019050818103600083015261689281616856565b9050919050565b7f416c7265616479206361737420766f746520666f7220426c6f636b4c6561646560008201527f7220706f736974696f6e00000000000000000000000000000000000000000000602082015250565b60006168f5602a8361566a565b915061690082616899565b604082019050919050565b60006020820190508181036000830152616924816168e8565b9050919050565b7f596f7572206163636f756e74206973206e6f7420726567697374657265642100600082015250565b6000616961601f8361566a565b915061696c8261692b565b602082019050919050565b6000602082019050818103600083015261699081616954565b9050919050565b7f557365726e616d6520616e642070617373776f72642063616e6e6f742062652060008201527f656d707479000000000000000000000000000000000000000000000000000000602082015250565b60006169f360258361566a565b91506169fe82616997565b604082019050919050565b60006020820190508181036000830152616a22816169e6565b9050919050565b600081905092915050565b60008190508160005260206000209050919050565b60008154616a56816162b8565b616a608186616a29565b94506001821660008114616a7b5760018114616a9057616ac3565b60ff1983168652811515820286019350616ac3565b616a9985616a34565b60005b83811015616abb57815481890152600182019150602081019050616a9c565b838801955050505b50505092915050565b6000616ad88284616a49565b915081905092915050565b7f496e76616c696420726567697374726174696f6e206e756d6265720000000000600082015250565b6000616b19601b8361566a565b9150616b2482616ae3565b602082019050919050565b60006020820190508181036000830152616b4881616b0c565b9050919050565b7f496e76616c69642070617373776f726400000000000000000000000000000000600082015250565b6000616b8560108361566a565b9150616b9082616b4f565b602082019050919050565b60006020820190508181036000830152616bb481616b78565b9050919050565b7f566f74657220697320616c726561647920726567697374657265640000000000600082015250565b6000616bf1601b8361566a565b9150616bfc82616bbb565b602082019050919050565b60006020820190508181036000830152616c2081616be4565b9050919050565b7f496e76616c69642079656172206f662053747564790000000000000000000000600082015250565b6000616c5d60158361566a565b9150616c6882616c27565b602082019050919050565b60006020820190508181036000830152616c8c81616c50565b9050919050565b7f416c726561647920766f74656420666f7220507265736964656e7420706f736960008201527f74696f6e00000000000000000000000000000000000000000000000000000000602082015250565b6000616cef60248361566a565b9150616cfa82616c93565b604082019050919050565b60006020820190508181036000830152616d1e81616ce2565b9050919050565b7f596f75206861766520616c726561647920766f74656420666f7220476f76657260008201527f6e6f722121210000000000000000000000000000000000000000000000000000602082015250565b6000616d8160268361566a565b9150616d8c82616d25565b604082019050919050565b60006020820190508181036000830152616db081616d74565b905091905056fea26469706673582212208431cba9fce84cb8136c8f7eb9115bdd3d893a7d7c41838bd69fb1692edc5f9c64736f6c63430008130033",
  "immutableReferences": {},
  "source": "// SPDX-License-Identifier: MIT\npragma solidity ^0.8.0;\nimport \"./CandidateStructure.sol\";\nimport \"./VoterStructure.sol\";\nimport \"./AccessControl.sol\";\nimport \"./TimeStructure.sol\";\n\ncontract VotingSystem is CandidateStructure, VoterStructure, AccessControl, TimeStructure{\n\n    // event NewPresidentRegistered(string firstName, string lastName, string collegeName, string programName, uint256 yearOfStudy, string regNo, string blockNumber, string gender);\n    // event NewGovernorRegistered(string firstName, string lastName, string collegeName, string programName, uint256 yearOfStudy, string regNo, string blockNumber, string gender);\n    // event NewBlockLeaderRegistered(string firstName, string lastName, string collegeName, string programName, uint256 yearOfStudy, string regNo, string blockNumber, string gender);\n\n    function registerPresident(string memory _firstName, string memory _lastName, string memory _collegeName,string memory _programName, uint256 _yearOfStudy, string memory _regNo, string memory _blockNumber, string memory _gender) public onlyAdmin{\n        require(!isInitiated, \"Voting process already started\");\n        // require(!candidatePresident[_regNo].isRegistered, \"You have already registered this President.\");\n        require(numberOfPresident < 2, \"The registered president is enough!\");\n        Candidate memory newCandidate = Candidate({\n            firstName: _firstName,\n            lastName: _lastName,       \n            collegeName: _collegeName,\n            programName: _programName,\n            yearOfStudy: _yearOfStudy, \n            regNo: _regNo, \n            blockNumber: _blockNumber,\n            gender: _gender, \n            isWinner: false, \n            \n            voteCount: 0\n        });\n        candidatePresident[_regNo] = newCandidate;\n        presidentList.push(_regNo);\n        numberOfPresident++;\n\n        // emit NewPresidentRegistered(_firstName, _collegeName, _programName, _yearOfStudy, _regNo, _blockNumber, _gender);\n    }\n\n    function registerGovernor(string memory _firstName, string memory _lastName, string memory _collegeName,string memory _programName, uint256 _yearOfStudy, string memory _regNo, string memory _blockNumber, string memory _gender) public onlyAdmin{\n        require(!isInitiated, \"Voting process already started\");\n        // require(!candidateGovernor[_regNo].isRegistered, \"You have already registered this Governor.\");\n            require(_yearOfStudy > 0 && _yearOfStudy < 5, \"Invalid year of Study\");\n            Candidate memory newCandidate = Candidate({firstName: _firstName, lastName: _lastName, collegeName: _collegeName,programName: _programName, yearOfStudy: _yearOfStudy, \n            regNo: _regNo, blockNumber: _blockNumber,gender: _gender, isWinner: false, voteCount: 0\n            });\n            candidateGovernor[_regNo] = newCandidate;\n            // candidateGovernorCnms[_regNo] = newCandidate;\n            governorList.push(_regNo);\n\n            // emit NewGovernorRegistered(_firstName, _collegeName, _programName, _yearOfStudy, _regNo, _blockNumber, _gender);      \n    }\n\n    function registerBlockLeader(string memory _firstName, string memory _lastName, string memory _collegeName,string memory _programName, uint256 _yearOfStudy, string memory _regNo, string memory _blockNumber, string memory _gender) public onlyAdmin{\n        require(!isInitiated, \"Voting process already started\");     \n        // require(!candidateBlockLeader[_regNo].isRegistered, \"You have already registered this blockLeader.\");\n        Candidate memory newCandidate = Candidate({\n            firstName: _firstName,\n            lastName: _lastName,       \n            collegeName: _collegeName,\n            programName: _programName,\n            yearOfStudy: _yearOfStudy, \n            regNo: _regNo, \n            blockNumber: _blockNumber,\n            gender: _gender, \n            isWinner: false, \n            voteCount: 0\n        });\n        candidateBlockLeader[_regNo] = newCandidate;\n        blockLeaderList.push(_regNo);\n\n        // emit NewBlockLeaderRegistered(_firstName, _collegeName, _programName, _yearOfStudy, _regNo, _blockNumber, _gender);\n    }\n\n    \n\n    //return the registration number for the candidates for each position\n    function getPresidentRegNumber() public view returns (string[] memory){\n        return presidentList;\n    }\n\n\n    //Admin view candidates for a specific position of vote\n\n    function viewPresident(string memory _regNo) public view returns(string memory firstName,string memory lastName, \n        string memory collegeName, string memory programName, uint256 yearOfStudy, string memory regNo, string memory blockNumber, string memory gender,uint256 voteCount){\n        Candidate memory candidatePres = candidatePresident[_regNo];\n        firstName = candidatePres.firstName;\n        lastName = candidatePres.lastName;\n        collegeName = candidatePres.collegeName;\n        programName = candidatePres.programName;\n        yearOfStudy = candidatePres.yearOfStudy;\n        regNo = candidatePres.regNo;\n        blockNumber = candidatePres.blockNumber;\n        gender = candidatePres.gender;\n        voteCount = candidatePres.voteCount;\n    }\n\n    //return the registration number for the candidates for each position\n\n    function getGovernorRegNumber() public view returns (string[] memory){\n        return governorList;\n    }\n    \n    function adminViewGovernors(string memory _regNo) public view returns(string memory firstName,string memory lastName, \n        string memory collegeName, string memory programName, uint256 yearOfStudy, string memory regNo, string memory blockNumber, string memory gender,uint256 voteCount){\n        Candidate memory candidateGov = candidateGovernor[_regNo];\n        firstName = candidateGov.firstName;\n        lastName = candidateGov.lastName;\n        collegeName = candidateGov.collegeName;\n        programName = candidateGov.programName;\n        yearOfStudy = candidateGov.yearOfStudy;\n        regNo = candidateGov.regNo;\n        blockNumber = candidateGov.blockNumber;\n        gender = candidateGov.gender;\n        voteCount = candidateGov.voteCount;\n    }\n\n    function getBlockLeaderRegNumber() public view returns (string[] memory){\n        return blockLeaderList;\n    }\n\n    //Admin view candidates for a specific position of vote\n\n    function adminViewBlockLeaders(string memory _regNo) public view returns(string memory firstName,string memory lastName, \n        string memory collegeName, string memory programName, uint256 yearOfStudy, string memory regNo, string memory blockNumber, string memory gender,uint256 voteCount){\n        Candidate memory candidateBL = candidateBlockLeader[_regNo];\n        firstName = candidateBL.firstName;\n        lastName = candidateBL.lastName;\n        collegeName = candidateBL.collegeName;\n        programName = candidateBL.programName;\n        yearOfStudy = candidateBL.yearOfStudy;\n        regNo = candidateBL.regNo;\n        blockNumber = candidateBL.blockNumber;\n        gender = candidateBL.gender;\n        voteCount = candidateBL.voteCount;\n    }\n\n\n\n\n//Voter Process\n\n\n\n\n    // event NewVoterRegistered( string firstName, string lastName, string collegeName, string programName, uint256 yearOfStudy, string regNo, string blockNumber, string gender);\n\n    function registerVoter( string memory _firstName, string memory _lastName, string memory _collegeName, string memory _programName, uint256 _yearOfStudy, \n    string memory _regNo,string memory _blockNumber, string memory _password, string memory _gender) public\n    {\n        require(!voters[msg.sender].isRegistered, \"Voter is already registered\");\n        Voter memory newVoter = Voter({\n            voterAddress: msg.sender,\n            firstName: _firstName,\n            lastName: _lastName,\n            collegeName: _collegeName, \n            programName: _programName, \n            yearOfStudy: _yearOfStudy, \n            regNo: _regNo, \n            blockNumber: _blockNumber, \n            password: _password, \n            gender: _gender,\n            isRegistered: true, \n            voted: false\n        });\n        voters[msg.sender] = newVoter;\n        voterAddressArray.push(msg.sender);\n        // emit NewVoterRegistered( _firstName, _lastName, _collegeName, _programName, _yearOfStudy, _regNo, _blockNumber, _gender);\n    }\n\n    function getVoterRegNumbers() public view returns (address[] memory){\n        return voterAddressArray;\n    }\n        \n\n    function viewVoter(address vtAddress) public view returns (address voterAddress,string memory firstName,string memory lastName,string memory collegeName,string memory programName,string memory regNo,uint256 yearOfStudy,string memory blockNumber,string memory gender) {\n    // require(voters[vtAddress].exists, \"Voter does not exist\");\n    \n    Voter storage voter = voters[vtAddress];\n    \n    return (voter.voterAddress,voter.firstName,voter.lastName,voter.collegeName,voter.programName,voter.regNo,voter.yearOfStudy,voter.blockNumber,voter.gender);\n}\n\n\n    // voter can view candidate of the corresponding area of vote\n\n    // function voterViewBlockLeader(address addressVoter) public onlyDuringVotingPeriod view returns(Candidate[] memory){\n\n    //     Voter memory newVoter = voters[addressVoter];\n    //     string memory voterCollegeName = newVoter.collegeName;\n    //     string memory voterBlockNumber = newVoter.blockNumber;\n\n    //     Candidate[] memory result = new Candidate[](blockLeaderList.length);        \n    //     for(uint i = 0; i < blockLeaderList.length; i++){\n    //         if(keccak256(bytes(candidateBlockLeader[blockLeaderList[i]].collegeName)) == keccak256(bytes(voterCollegeName)) && keccak256(bytes(candidateBlockLeader[blockLeaderList[i]].blockNumber)) == keccak256(bytes(voterBlockNumber))){\n    //             result[i] = candidateGovernor[blockLeaderList[i]];  \n    //         }            \n    //     }\n    //     return result;\n    // }\n    function castVotePresident( string memory _presidentRegNo) public {\n        require(voters[msg.sender].isRegistered, \"Voter is not registered\");\n        // require(!voters[msg.sender].voted, \"You have already voted for President!!!\");\n        require(!presidentVoted[msg.sender], \"Already voted for President position\");\n        presidentVoted[msg.sender] = true;\n\n        Candidate memory candidate = candidatePresident[_presidentRegNo];\n        candidate.voteCount++;\n        totalVotes++;\n\n        // emit VoteCast(candidate.voteCount, candidate.regNo);\n    }\n    function castVoteGovernor( string memory _governorRegNo ) public {\n        require(voters[msg.sender].isRegistered, \"Voter is not registered\");\n        require(isRegistered[_governorRegNo], \"Invalid candidate\");\n        // require(keccak256(bytes(voters[msg.sender].collegeName)) == keccak256(bytes(candidateGovernor[_governorRegNo].collegeName)), \"Your Not valid voter\");    \n        require(!governorVoted[msg.sender], \"You have already voted for Governor!!!\");\n        governorVoted[msg.sender] = true; \n        \n        Candidate memory candidate = candidateGovernor[_governorRegNo];\n        candidate.voteCount++;\n        totalVotes++;\n\n        // emit VoteCast(candidate.voteCount, candidate.regNo);\n    }\n\n    function castVoteBlockLeader( string memory _blockLeaderRegNo ) public {\n        require(voters[msg.sender].isRegistered, \"Voter is not registered\");    \n        require(isRegistered[_blockLeaderRegNo], \"Invalid candidate\");\n        // require(keccak256(bytes(voters[msg.sender].collegeName)) == keccak256(bytes(candidateBlockLeader[_blockLeaderRegNo].collegeName)), \"Your Not member of a valid college\");    \n        // require(keccak256(bytes(voters[msg.sender].blockNumber)) == keccak256(bytes(candidateBlockLeader[_blockLeaderRegNo].blockNumber)), \"Your Not member of a valid block\");  \n        require(!blockLeaderVoted[msg.sender], \"Already cast vote for BlockLeader position\");\n        blockLeaderVoted[msg.sender] = true;\n        \n        Candidate memory candidate = candidateBlockLeader[_blockLeaderRegNo];\n        candidate.voteCount++;\n        totalVotes++;\n\n        // emit VoteCast(candidate.voteCount, candidate.regNo);\n    }\n\n    function getVotingStatus() public view returns(bool) {\n        return (block.timestamp >= startTime && block.timestamp <= endTime);\n    }\n\n    // function deleteVoter(address _voterAddress) public {\n    //     delete voters[_voterAddress];\n    //     for (uint256 i = 0; i < voterAddressArray.length; i++) {\n    //         if (voterAddressArray[i] == _voterAddress) {\n    //             for (uint256 j = i; j < voterAddressArray.length - 1; j++) {\n    //                 voterAddressArray[j] = voterAddressArray[j + 1];\n    //             }\n    //             voterAddressArray.pop();\n    //             break;\n    //         }\n    //     }\n    // }\n    \n    function voterLogin(string memory _regNo, string memory _password) public {\n        require(voters[msg.sender].isRegistered, \"Your account is not registered!\");\n        require(keccak256(bytes(_regNo)).length > 0 && keccak256(bytes(_password)).length > 0, \"Username and password cannot be empty\");\n        require(keccak256(bytes(voters[msg.sender].regNo)) == keccak256(bytes(_regNo)), \"Invalid registration number\");\n        require(keccak256(bytes(voters[msg.sender].password)) == keccak256(bytes(_password)), \"Invalid password\");\n        hasLogedin[msg.sender] = true;\n        voterSession[msg.sender] = _regNo;\n\n    }\n\n    function logout() public {\n        hasLogedin[msg.sender] = false;\n        delete voterSession[msg.sender];\n    }\n\n\n}",
  "sourcePath": "/home/temba/Documents/SmartContract/client/contracts/VotingSystem.sol",
  "compiler": {
    "name": "solc",
    "version": "0.8.19+commit.7dd6d404.Emscripten.clang"
  },
  "schemaVersion": "3.4.14",
  "updatedAt": "2023-06-20T15:27:40.330Z",
  "devdoc": {
    "kind": "dev",
    "methods": {},
    "version": 1
  },
  "userdoc": {
    "kind": "user",
    "methods": {},
    "version": 1
  }
}