{
  "contractName": "AccessControl",
  "abi": [
    {
      "inputs": [],
      "stateMutability": "nonpayable",
      "type": "constructor"
    },
    {
      "inputs": [],
      "name": "admin",
      "outputs": [
        {
          "internalType": "address",
          "name": "",
          "type": "address"
        }
      ],
      "stateMutability": "view",
      "type": "function",
      "constant": true
    },
    {
      "inputs": [
        {
          "internalType": "address",
          "name": "newAdmin",
          "type": "address"
        }
      ],
      "name": "transferAdmin",
      "outputs": [],
      "stateMutability": "nonpayable",
      "type": "function"
    }
  ],
  "bytecode": "0x608060405234801561001057600080fd5b50336000806101000a81548173ffffffffffffffffffffffffffffffffffffffff021916908373ffffffffffffffffffffffffffffffffffffffff1602179055506102fd806100606000396000f3fe608060405234801561001057600080fd5b50600436106100365760003560e01c806375829def1461003b578063f851a44014610057575b600080fd5b610055600480360381019061005091906101cd565b610075565b005b61005f610146565b60405161006c9190610209565b60405180910390f35b60008054906101000a900473ffffffffffffffffffffffffffffffffffffffff1673ffffffffffffffffffffffffffffffffffffffff163373ffffffffffffffffffffffffffffffffffffffff1614610103576040517f08c379a00000000000000000000000000000000000000000000000000000000081526004016100fa906102a7565b60405180910390fd5b806000806101000a81548173ffffffffffffffffffffffffffffffffffffffff021916908373ffffffffffffffffffffffffffffffffffffffff16021790555050565b60008054906101000a900473ffffffffffffffffffffffffffffffffffffffff1681565b600080fd5b600073ffffffffffffffffffffffffffffffffffffffff82169050919050565b600061019a8261016f565b9050919050565b6101aa8161018f565b81146101b557600080fd5b50565b6000813590506101c7816101a1565b92915050565b6000602082840312156101e3576101e261016a565b5b60006101f1848285016101b8565b91505092915050565b6102038161018f565b82525050565b600060208201905061021e60008301846101fa565b92915050565b600082825260208201905092915050565b7f4f6e6c792061646d696e2063616e20706572666f726d2074686973206163746960008201527f6f6e000000000000000000000000000000000000000000000000000000000000602082015250565b6000610291602283610224565b915061029c82610235565b604082019050919050565b600060208201905081810360008301526102c081610284565b905091905056fea26469706673582212208bd420641d2a206427a974dadd40bbab5bc6d565b99b1b5adf88e9e5772cc40a64736f6c63430008130033",
  "immutableReferences": {},
  "source": "//SPDX-License-Identifier: MIT\npragma solidity ^0.8.0;\n\ncontract AccessControl {\n\n    address public admin;\n    // mapping(address => bool) internal authorized;\n\n    constructor() {\n        admin = msg.sender;\n    }\n    \n    // modifier onlyAuthorized() {\n    //     require(authorized[msg.sender] || msg.sender == admin, \"Error: Unauthorized\");\n    //     _;\n    // }\n\n    // function addAuthorized(address _addr) public onlyAuthorized {\n    //     authorized[_addr] = true;\n    // }\n\n    // function removeAuthorized(address _addr) public onlyAuthorized{\n    //     authorized[_addr] = false;\n    // }\n\n    modifier onlyAdmin() {\n        require(msg.sender == admin, \"Only admin can perform this action\");\n        _;\n    }\n\n    function transferAdmin(address newAdmin) public virtual onlyAdmin {\n        admin = newAdmin;\n    }\n\n   \n}",
  "sourcePath": "/home/temba/Documents/client/contracts/AccessControl.sol",
  "compiler": {
    "name": "solc",
    "version": "0.8.19+commit.7dd6d404.Emscripten.clang"
  },
  "schemaVersion": "3.4.14",
  "updatedAt": "2023-06-22T10:27:14.091Z",
  "networkType": "ethereum",
  "devdoc": {
    "kind": "dev",
    "methods": {},
    "version": 1
  },
  "userdoc": {
    "kind": "user",
    "methods": {},
    "version": 1
  }
}