{
  "contractName": "AccessControl",
  "abi": [
    {
      "inputs": [],
      "stateMutability": "nonpayable",
      "type": "constructor"
    },
    {
      "inputs": [],
      "name": "admin",
      "outputs": [
        {
          "internalType": "address",
          "name": "",
          "type": "address"
        }
      ],
      "stateMutability": "view",
      "type": "function",
      "constant": true
    },
    {
      "inputs": [
        {
          "internalType": "address",
          "name": "newAdmin",
          "type": "address"
        }
      ],
      "name": "transferAdmin",
      "outputs": [],
      "stateMutability": "nonpayable",
      "type": "function"
    },
    {
      "inputs": [],
      "name": "setPublished",
      "outputs": [],
      "stateMutability": "nonpayable",
      "type": "function"
    },
    {
      "inputs": [],
      "name": "getPublished",
      "outputs": [
        {
          "internalType": "bool",
          "name": "",
          "type": "bool"
        }
      ],
      "stateMutability": "view",
      "type": "function",
      "constant": true
    }
  ],
  "bytecode": "0x608060405234801561001057600080fd5b50336000806101000a81548173ffffffffffffffffffffffffffffffffffffffff021916908373ffffffffffffffffffffffffffffffffffffffff1602179055506104ee806100606000396000f3fe608060405234801561001057600080fd5b506004361061004c5760003560e01c806375829def1461005157806397b0565e1461006d578063e19ca0d314610077578063f851a44014610095575b600080fd5b61006b6004803603810190610066919061031c565b6100b3565b005b610075610184565b005b61007f61027f565b60405161008c9190610364565b60405180910390f35b61009d610295565b6040516100aa919061038e565b60405180910390f35b60008054906101000a900473ffffffffffffffffffffffffffffffffffffffff1673ffffffffffffffffffffffffffffffffffffffff163373ffffffffffffffffffffffffffffffffffffffff1614610141576040517f08c379a00000000000000000000000000000000000000000000000000000000081526004016101389061042c565b60405180910390fd5b806000806101000a81548173ffffffffffffffffffffffffffffffffffffffff021916908373ffffffffffffffffffffffffffffffffffffffff16021790555050565b60008054906101000a900473ffffffffffffffffffffffffffffffffffffffff1673ffffffffffffffffffffffffffffffffffffffff163373ffffffffffffffffffffffffffffffffffffffff1614610212576040517f08c379a00000000000000000000000000000000000000000000000000000000081526004016102099061042c565b60405180910390fd5b600060149054906101000a900460ff1615610262576040517f08c379a000000000000000000000000000000000000000000000000000000000815260040161025990610498565b60405180910390fd5b6001600060146101000a81548160ff021916908315150217905550565b60008060149054906101000a900460ff16905090565b60008054906101000a900473ffffffffffffffffffffffffffffffffffffffff1681565b600080fd5b600073ffffffffffffffffffffffffffffffffffffffff82169050919050565b60006102e9826102be565b9050919050565b6102f9816102de565b811461030457600080fd5b50565b600081359050610316816102f0565b92915050565b600060208284031215610332576103316102b9565b5b600061034084828501610307565b91505092915050565b60008115159050919050565b61035e81610349565b82525050565b60006020820190506103796000830184610355565b92915050565b610388816102de565b82525050565b60006020820190506103a3600083018461037f565b92915050565b600082825260208201905092915050565b7f4f6e6c792061646d696e2063616e20706572666f726d2074686973206163746960008201527f6f6e000000000000000000000000000000000000000000000000000000000000602082015250565b60006104166022836103a9565b9150610421826103ba565b604082019050919050565b6000602082019050818103600083015261044581610409565b9050919050565b7f526573756c7420697320616c7265616479207075626c69736865642100000000600082015250565b6000610482601c836103a9565b915061048d8261044c565b602082019050919050565b600060208201905081810360008301526104b181610475565b905091905056fea2646970667358221220fe4d40f301d8bd8ef42abac0f8da062d2d10e1df9861fcc7ba2498f72bf7ac0d64736f6c63430008130033",
  "immutableReferences": {},
  "source": "//SPDX-License-Identifier: MIT\npragma solidity ^0.8.0;\n\ncontract AccessControl {\n\n    address public admin;\n    bool isPublished;\n    // mapping(address => bool) internal authorized;\n\n    constructor() {\n        admin = msg.sender;\n    }\n    \n    // modifier onlyAuthorized() {\n    //     require(authorized[msg.sender] || msg.sender == admin, \"Error: Unauthorized\");\n    //     _;\n    // }\n\n    // function addAuthorized(address _addr) public onlyAuthorized {\n    //     authorized[_addr] = true;\n    // }\n\n    // function removeAuthorized(address _addr) public onlyAuthorized{\n    //     authorized[_addr] = false;\n    // }\n\n    modifier onlyAdmin() {\n        require(msg.sender == admin, \"Only admin can perform this action\");\n        _;\n    }\n\n    function transferAdmin(address newAdmin) public virtual onlyAdmin {\n        admin = newAdmin;\n    }\n\n    function setPublished() public onlyAdmin{\n        require(!isPublished, \"Result is already published!\");\n        isPublished = true;\n    }\n\n    function getPublished() public view returns(bool){\n        return isPublished;\n    }\n\n   \n}",
  "sourcePath": "/home/temba/Documents/client/contracts/AccessControl.sol",
  "compiler": {
    "name": "solc",
    "version": "0.8.19+commit.7dd6d404.Emscripten.clang"
  },
  "schemaVersion": "3.4.14",
  "updatedAt": "2023-06-30T04:15:59.175Z",
  "networkType": "ethereum",
  "devdoc": {
    "kind": "dev",
    "methods": {},
    "version": 1
  },
  "userdoc": {
    "kind": "user",
    "methods": {},
    "version": 1
  }
}