{
  "contractName": "AdminAuthentication",
  "abi": [
    {
      "inputs": [],
      "stateMutability": "nonpayable",
      "type": "constructor"
    },
    {
      "inputs": [],
      "name": "admin",
      "outputs": [
        {
          "internalType": "address",
          "name": "",
          "type": "address"
        }
      ],
      "stateMutability": "view",
      "type": "function",
      "constant": true
    },
    {
      "inputs": [
        {
          "internalType": "string",
          "name": "",
          "type": "string"
        }
      ],
      "name": "admins",
      "outputs": [
        {
          "internalType": "string",
          "name": "username",
          "type": "string"
        },
        {
          "internalType": "string",
          "name": "password",
          "type": "string"
        },
        {
          "internalType": "bool",
          "name": "isRegistered",
          "type": "bool"
        }
      ],
      "stateMutability": "view",
      "type": "function",
      "constant": true
    },
    {
      "inputs": [],
      "name": "getEndTime",
      "outputs": [
        {
          "internalType": "uint256",
          "name": "",
          "type": "uint256"
        }
      ],
      "stateMutability": "view",
      "type": "function",
      "constant": true
    },
    {
      "inputs": [],
      "name": "getPublished",
      "outputs": [
        {
          "internalType": "bool",
          "name": "",
          "type": "bool"
        }
      ],
      "stateMutability": "view",
      "type": "function",
      "constant": true
    },
    {
      "inputs": [],
      "name": "getRemainingTime",
      "outputs": [
        {
          "internalType": "uint256",
          "name": "",
          "type": "uint256"
        }
      ],
      "stateMutability": "view",
      "type": "function",
      "constant": true
    },
    {
      "inputs": [],
      "name": "getStartTime",
      "outputs": [
        {
          "internalType": "uint256",
          "name": "",
          "type": "uint256"
        }
      ],
      "stateMutability": "view",
      "type": "function",
      "constant": true
    },
    {
      "inputs": [],
      "name": "getTime",
      "outputs": [
        {
          "internalType": "uint256[]",
          "name": "",
          "type": "uint256[]"
        }
      ],
      "stateMutability": "view",
      "type": "function",
      "constant": true
    },
    {
      "inputs": [],
      "name": "getVotingStatus",
      "outputs": [
        {
          "internalType": "bool",
          "name": "",
          "type": "bool"
        }
      ],
      "stateMutability": "view",
      "type": "function",
      "constant": true
    },
    {
      "inputs": [
        {
          "internalType": "address",
          "name": "",
          "type": "address"
        }
      ],
      "name": "hasAdminLoggiedIn",
      "outputs": [
        {
          "internalType": "bool",
          "name": "",
          "type": "bool"
        }
      ],
      "stateMutability": "view",
      "type": "function",
      "constant": true
    },
    {
      "inputs": [],
      "name": "isInitiate",
      "outputs": [
        {
          "internalType": "bool",
          "name": "",
          "type": "bool"
        }
      ],
      "stateMutability": "view",
      "type": "function",
      "constant": true
    },
    {
      "inputs": [],
      "name": "isInitiated",
      "outputs": [
        {
          "internalType": "bool",
          "name": "",
          "type": "bool"
        }
      ],
      "stateMutability": "view",
      "type": "function",
      "constant": true
    },
    {
      "inputs": [
        {
          "internalType": "uint256",
          "name": "",
          "type": "uint256"
        }
      ],
      "name": "oTime",
      "outputs": [
        {
          "internalType": "uint256",
          "name": "",
          "type": "uint256"
        }
      ],
      "stateMutability": "view",
      "type": "function",
      "constant": true
    },
    {
      "inputs": [],
      "name": "setPublished",
      "outputs": [],
      "stateMutability": "nonpayable",
      "type": "function"
    },
    {
      "inputs": [
        {
          "internalType": "uint256",
          "name": "_startTime",
          "type": "uint256"
        },
        {
          "internalType": "uint256",
          "name": "_endTime",
          "type": "uint256"
        }
      ],
      "name": "setVotingPeriod",
      "outputs": [],
      "stateMutability": "nonpayable",
      "type": "function"
    },
    {
      "inputs": [
        {
          "internalType": "address",
          "name": "newAdmin",
          "type": "address"
        }
      ],
      "name": "transferAdmin",
      "outputs": [],
      "stateMutability": "nonpayable",
      "type": "function"
    },
    {
      "inputs": [
        {
          "internalType": "string",
          "name": "_username",
          "type": "string"
        },
        {
          "internalType": "string",
          "name": "_password",
          "type": "string"
        }
      ],
      "name": "adminAuth",
      "outputs": [],
      "stateMutability": "nonpayable",
      "type": "function"
    },
    {
      "inputs": [],
      "name": "adminLogout",
      "outputs": [],
      "stateMutability": "nonpayable",
      "type": "function"
    }
  ],
  "bytecode": "0x60806040523480156200001157600080fd5b50336000806101000a81548173ffffffffffffffffffffffffffffffffffffffff021916908373ffffffffffffffffffffffffffffffffffffffff16021790555060006040518060400160405280600581526020017f41646d696e0000000000000000000000000000000000000000000000000000008152509050600060405180606001604052806040518060400160405280600581526020017f41646d696e00000000000000000000000000000000000000000000000000000081525081526020016040518060400160405280600881526020017f61646d696e3132330000000000000000000000000000000000000000000000008152508152602001600115158152509050806006836040516200012b91906200020d565b9081526020016040518091039020600082015181600001908162000150919062000495565b50602082015181600101908162000168919062000495565b5060408201518160020160006101000a81548160ff02191690831515021790555090505050506200057c565b600081519050919050565b600081905092915050565b60005b83811015620001ca578082015181840152602081019050620001ad565b60008484015250505050565b6000620001e38262000194565b620001ef81856200019f565b935062000201818560208601620001aa565b80840191505092915050565b60006200021b8284620001d6565b915081905092915050565b7f4e487b7100000000000000000000000000000000000000000000000000000000600052604160045260246000fd5b7f4e487b7100000000000000000000000000000000000000000000000000000000600052602260045260246000fd5b600060028204905060018216806200029d57607f821691505b602082108103620002b357620002b262000255565b5b50919050565b60008190508160005260206000209050919050565b60006020601f8301049050919050565b600082821b905092915050565b6000600883026200031d7fffffffffffffffffffffffffffffffffffffffffffffffffffffffffffffffff82620002de565b620003298683620002de565b95508019841693508086168417925050509392505050565b6000819050919050565b6000819050919050565b600062000376620003706200036a8462000341565b6200034b565b62000341565b9050919050565b6000819050919050565b620003928362000355565b620003aa620003a1826200037d565b848454620002eb565b825550505050565b600090565b620003c1620003b2565b620003ce81848462000387565b505050565b5b81811015620003f657620003ea600082620003b7565b600181019050620003d4565b5050565b601f82111562000445576200040f81620002b9565b6200041a84620002ce565b810160208510156200042a578190505b620004426200043985620002ce565b830182620003d3565b50505b505050565b600082821c905092915050565b60006200046a600019846008026200044a565b1980831691505092915050565b600062000485838362000457565b9150826002028217905092915050565b620004a08262000194565b67ffffffffffffffff811115620004bc57620004bb62000226565b5b620004c8825462000284565b620004d5828285620003fa565b600060209050601f8311600181146200050d5760008415620004f8578287015190505b62000504858262000477565b86555062000574565b601f1984166200051d86620002b9565b60005b82811015620005475784890151825560018201915060208501945060208101905062000520565b8683101562000567578489015162000563601f89168262000457565b8355505b6001600288020188555050505b505050505050565b611835806200058c6000396000f3fe608060405234801561001057600080fd5b506004361061010b5760003560e01c8063926d7eb0116100a2578063c828371e11610071578063c828371e14610284578063d4dd0b77146102a2578063e19ca0d3146102be578063efb98bcf146102dc578063f851a440146102fa5761010b565b8063926d7eb01461022257806397b0565e14610254578063a15a36c71461025e578063a1c855261461027a5761010b565b8063581c281c116100de578063581c281c1461019a5780635afdbb76146101b857806375829def146101e85780637776e62f146102045761010b565b80631cb59914146101105780633c26f8d41461012e578063439f5ac21461015e578063557ed1ba1461017c575b600080fd5b610118610318565b6040516101259190610c65565b60405180910390f35b61014860048036038101906101439190610cf2565b61032b565b6040516101559190610c65565b60405180910390f35b61016661034b565b6040516101739190610d38565b60405180910390f35b610184610355565b6040516101919190610e11565b60405180910390f35b6101a26103ad565b6040516101af9190610c65565b60405180910390f35b6101d260048036038101906101cd9190610e5f565b6103c8565b6040516101df9190610d38565b60405180910390f35b61020260048036038101906101fd9190610cf2565b6103ec565b005b61020c6104bd565b6040516102199190610c65565b60405180910390f35b61023c60048036038101906102379190610fd2565b6104d4565b60405161024b9392919061109a565b60405180910390f35b61025c610631565b005b610278600480360381019061027391906110df565b61072c565b005b6102826108c7565b005b61028c610921565b6040516102999190610d38565b60405180910390f35b6102bc60048036038101906102b7919061111f565b61092b565b005b6102c6610be8565b6040516102d39190610c65565b60405180910390f35b6102e4610bfe565b6040516102f19190610d38565b60405180910390f35b610302610c26565b60405161030f91906111a6565b60405180910390f35b600560009054906101000a900460ff1681565b60076020528060005260406000206000915054906101000a900460ff1681565b6000600254905090565b606060048054806020026020016040519081016040528092919081815260200182805480156103a357602002820191906000526020600020905b81548152602001906001019080831161038f575b5050505050905090565b600060015442101580156103c357506002544211155b905090565b600481815481106103d857600080fd5b906000526020600020016000915090505481565b60008054906101000a900473ffffffffffffffffffffffffffffffffffffffff1673ffffffffffffffffffffffffffffffffffffffff163373ffffffffffffffffffffffffffffffffffffffff161461047a576040517f08c379a000000000000000000000000000000000000000000000000000000000815260040161047190611233565b60405180910390fd5b806000806101000a81548173ffffffffffffffffffffffffffffffffffffffff021916908373ffffffffffffffffffffffffffffffffffffffff16021790555050565b6000600560009054906101000a900460ff16905090565b60068180516020810182018051848252602083016020850120818352809550505050505060009150905080600001805461050d90611282565b80601f016020809104026020016040519081016040528092919081815260200182805461053990611282565b80156105865780601f1061055b57610100808354040283529160200191610586565b820191906000526020600020905b81548152906001019060200180831161056957829003601f168201915b50505050509080600101805461059b90611282565b80601f01602080910402602001604051908101604052809291908181526020018280546105c790611282565b80156106145780601f106105e957610100808354040283529160200191610614565b820191906000526020600020905b8154815290600101906020018083116105f757829003601f168201915b5050505050908060020160009054906101000a900460ff16905083565b60008054906101000a900473ffffffffffffffffffffffffffffffffffffffff1673ffffffffffffffffffffffffffffffffffffffff163373ffffffffffffffffffffffffffffffffffffffff16146106bf576040517f08c379a00000000000000000000000000000000000000000000000000000000081526004016106b690611233565b60405180910390fd5b600060149054906101000a900460ff161561070f576040517f08c379a0000000000000000000000000000000000000000000000000000000008152600401610706906112ff565b60405180910390fd5b6001600060146101000a81548160ff021916908315150217905550565b81811161076e576040517f08c379a00000000000000000000000000000000000000000000000000000000081526004016107659061136b565b60405180910390fd5b600560009054906101000a900460ff16156107be576040517f08c379a00000000000000000000000000000000000000000000000000000000081526004016107b5906113fd565b60405180910390fd5b600082826107cc919061144c565b90506004839080600181540180825580915050600190039060005260206000200160009091909190915055600482908060018154018082558091505060019003906000526020600020016000909190919091505560048190806001815401808255809150506001900390600052602060002001600090919091909150556001600560006101000a81548160ff0219169083151502179055506001836108719190611480565b4261087c91906114c2565b60018190555060018261088f9190611480565b4261089a91906114c2565b600281905550806003819055506001600560006101000a81548160ff021916908315150217905550505050565b6000600760003373ffffffffffffffffffffffffffffffffffffffff1673ffffffffffffffffffffffffffffffffffffffff16815260200190815260200160002060006101000a81548160ff021916908315150217905550565b6000600154905090565b60008054906101000a900473ffffffffffffffffffffffffffffffffffffffff1673ffffffffffffffffffffffffffffffffffffffff163373ffffffffffffffffffffffffffffffffffffffff16146109b9576040517f08c379a00000000000000000000000000000000000000000000000000000000081526004016109b090611233565b60405180910390fd5b6006826040516109c99190611532565b908152602001604051809103902060020160009054906101000a900460ff16610a27576040517f08c379a0000000000000000000000000000000000000000000000000000000008152600401610a1e906115bb565b60405180910390fd5b6000828051906020012050602060ff16118015610a5157506000818051906020012050602060ff16115b610a90576040517f08c379a0000000000000000000000000000000000000000000000000000000008152600401610a879061164d565b60405180910390fd5b8180519060200120600683604051610aa89190611532565b9081526020016040518091039020600001604051610ac69190611710565b604051809103902014610b0e576040517f08c379a0000000000000000000000000000000000000000000000000000000008152600401610b0590611773565b60405180910390fd5b8080519060200120600683604051610b269190611532565b9081526020016040518091039020600101604051610b449190611710565b604051809103902014610b8c576040517f08c379a0000000000000000000000000000000000000000000000000000000008152600401610b83906117df565b60405180910390fd5b6001600760003373ffffffffffffffffffffffffffffffffffffffff1673ffffffffffffffffffffffffffffffffffffffff16815260200190815260200160002060006101000a81548160ff0219169083151502179055505050565b60008060149054906101000a900460ff16905090565b60006002544210610c125760009050610c23565b42600254610c20919061144c565b90505b90565b60008054906101000a900473ffffffffffffffffffffffffffffffffffffffff1681565b60008115159050919050565b610c5f81610c4a565b82525050565b6000602082019050610c7a6000830184610c56565b92915050565b6000604051905090565b600080fd5b600080fd5b600073ffffffffffffffffffffffffffffffffffffffff82169050919050565b6000610cbf82610c94565b9050919050565b610ccf81610cb4565b8114610cda57600080fd5b50565b600081359050610cec81610cc6565b92915050565b600060208284031215610d0857610d07610c8a565b5b6000610d1684828501610cdd565b91505092915050565b6000819050919050565b610d3281610d1f565b82525050565b6000602082019050610d4d6000830184610d29565b92915050565b600081519050919050565b600082825260208201905092915050565b6000819050602082019050919050565b610d8881610d1f565b82525050565b6000610d9a8383610d7f565b60208301905092915050565b6000602082019050919050565b6000610dbe82610d53565b610dc88185610d5e565b9350610dd383610d6f565b8060005b83811015610e04578151610deb8882610d8e565b9750610df683610da6565b925050600181019050610dd7565b5085935050505092915050565b60006020820190508181036000830152610e2b8184610db3565b905092915050565b610e3c81610d1f565b8114610e4757600080fd5b50565b600081359050610e5981610e33565b92915050565b600060208284031215610e7557610e74610c8a565b5b6000610e8384828501610e4a565b91505092915050565b600080fd5b600080fd5b6000601f19601f8301169050919050565b7f4e487b7100000000000000000000000000000000000000000000000000000000600052604160045260246000fd5b610edf82610e96565b810181811067ffffffffffffffff82111715610efe57610efd610ea7565b5b80604052505050565b6000610f11610c80565b9050610f1d8282610ed6565b919050565b600067ffffffffffffffff821115610f3d57610f3c610ea7565b5b610f4682610e96565b9050602081019050919050565b82818337600083830152505050565b6000610f75610f7084610f22565b610f07565b905082815260208101848484011115610f9157610f90610e91565b5b610f9c848285610f53565b509392505050565b600082601f830112610fb957610fb8610e8c565b5b8135610fc9848260208601610f62565b91505092915050565b600060208284031215610fe857610fe7610c8a565b5b600082013567ffffffffffffffff81111561100657611005610c8f565b5b61101284828501610fa4565b91505092915050565b600081519050919050565b600082825260208201905092915050565b60005b8381101561105557808201518184015260208101905061103a565b60008484015250505050565b600061106c8261101b565b6110768185611026565b9350611086818560208601611037565b61108f81610e96565b840191505092915050565b600060608201905081810360008301526110b48186611061565b905081810360208301526110c88185611061565b90506110d76040830184610c56565b949350505050565b600080604083850312156110f6576110f5610c8a565b5b600061110485828601610e4a565b925050602061111585828601610e4a565b9150509250929050565b6000806040838503121561113657611135610c8a565b5b600083013567ffffffffffffffff81111561115457611153610c8f565b5b61116085828601610fa4565b925050602083013567ffffffffffffffff81111561118157611180610c8f565b5b61118d85828601610fa4565b9150509250929050565b6111a081610cb4565b82525050565b60006020820190506111bb6000830184611197565b92915050565b7f4f6e6c792061646d696e2063616e20706572666f726d2074686973206163746960008201527f6f6e000000000000000000000000000000000000000000000000000000000000602082015250565b600061121d602283611026565b9150611228826111c1565b604082019050919050565b6000602082019050818103600083015261124c81611210565b9050919050565b7f4e487b7100000000000000000000000000000000000000000000000000000000600052602260045260246000fd5b6000600282049050600182168061129a57607f821691505b6020821081036112ad576112ac611253565b5b50919050565b7f526573756c7420697320616c7265616479207075626c69736865642100000000600082015250565b60006112e9601c83611026565b91506112f4826112b3565b602082019050919050565b60006020820190508181036000830152611318816112dc565b9050919050565b7f496e76616c696420766f74696e6720706572696f640000000000000000000000600082015250565b6000611355601583611026565b91506113608261131f565b602082019050919050565b6000602082019050818103600083015261138481611348565b9050919050565b7f54686520766f74696e672074696d6520697320616c726561647920696e69746960008201527f6174656400000000000000000000000000000000000000000000000000000000602082015250565b60006113e7602483611026565b91506113f28261138b565b604082019050919050565b60006020820190508181036000830152611416816113da565b9050919050565b7f4e487b7100000000000000000000000000000000000000000000000000000000600052601160045260246000fd5b600061145782610d1f565b915061146283610d1f565b925082820390508181111561147a5761147961141d565b5b92915050565b600061148b82610d1f565b915061149683610d1f565b92508282026114a481610d1f565b915082820484148315176114bb576114ba61141d565b5b5092915050565b60006114cd82610d1f565b91506114d883610d1f565b92508282019050808211156114f0576114ef61141d565b5b92915050565b600081905092915050565b600061150c8261101b565b61151681856114f6565b9350611526818560208601611037565b80840191505092915050565b600061153e8284611501565b915081905092915050565b7f506c656173652c204c6f67696e20776974682061646d696e6973747261746f7260008201527f20657468657265756d206163636f756e74000000000000000000000000000000602082015250565b60006115a5603183611026565b91506115b082611549565b604082019050919050565b600060208201905081810360008301526115d481611598565b9050919050565b7f757365726e616d6520616e642070617373776f72642063616e6e6f742062652060008201527f656d707479000000000000000000000000000000000000000000000000000000602082015250565b6000611637602583611026565b9150611642826115db565b604082019050919050565b600060208201905081810360008301526116668161162a565b9050919050565b600081905092915050565b60008190508160005260206000209050919050565b6000815461169a81611282565b6116a4818661166d565b945060018216600081146116bf57600181146116d457611707565b60ff1983168652811515820286019350611707565b6116dd85611678565b60005b838110156116ff578154818901526001820191506020810190506116e0565b838801955050505b50505092915050565b600061171c828461168d565b915081905092915050565b7f496e76616c6964207075626c6963206164647265737300000000000000000000600082015250565b600061175d601683611026565b915061176882611727565b602082019050919050565b6000602082019050818103600083015261178c81611750565b9050919050565b7f496e76616c69642070617373776f726400000000000000000000000000000000600082015250565b60006117c9601083611026565b91506117d482611793565b602082019050919050565b600060208201905081810360008301526117f8816117bc565b905091905056fea2646970667358221220b4cdbd38a723764647b198b0211c0754b9dd9e89d63bcb37782cccc7fa14eaa064736f6c63430008130033",
  "immutableReferences": {},
  "source": "//SPDX-License-Identifier: MIT\npragma solidity ^0.8.0;\nimport \"./TimeControl.sol\";\n\ncontract AdminAuthentication is TimeControl {\n\n    struct Admin {\n        string username;\n        string password;\n        bool isRegistered;\n    }\n\n    mapping(string => Admin) public admins;\n    mapping(address => bool) public hasAdminLoggiedIn;\n    constructor() {\n        string memory username = \"Admin\";\n        Admin memory admin = Admin(\"Admin\", \"admin123\", true);\n        admins[username] = admin;\n    }\n\n    function adminAuth(string memory _username, string memory _password) onlyAdmin public{\n        require(admins[_username].isRegistered, \"Please, Login with administrator ethereum account\");\n        // require(abi.encodePacked(_adminPublicAddress).length > 0 && keccak256(bytes(bytes(_password))).length > 0, \"username and password cannot be empty\");\n        require(keccak256(bytes(_username)).length > 0 && keccak256(bytes(bytes(_password))).length > 0, \"username and password cannot be empty\");\n        require(keccak256(bytes(admins[_username].username)) == keccak256(bytes(_username)), \"Invalid public address\");\n        require(keccak256(bytes(admins[_username].password)) == keccak256(bytes(_password)), \"Invalid password\");\n        hasAdminLoggiedIn[msg.sender] = true;\n    }\n\n    function adminLogout() public {\n        hasAdminLoggiedIn[msg.sender] = false;\n    }\n\n}",
  "sourcePath": "/home/temba/Documents/client/contracts/AdminAuthentication.sol",
  "compiler": {
    "name": "solc",
    "version": "0.8.19+commit.7dd6d404.Emscripten.clang"
  },
  "schemaVersion": "3.4.14",
  "updatedAt": "2023-06-30T04:15:59.195Z",
  "networkType": "ethereum",
  "devdoc": {
    "kind": "dev",
    "methods": {},
    "version": 1
  },
  "userdoc": {
    "kind": "user",
    "methods": {},
    "version": 1
  }
}