{
  "contractName": "AdminAuthentication",
  "abi": [
    {
      "inputs": [],
      "stateMutability": "nonpayable",
      "type": "constructor"
    },
    {
      "inputs": [],
      "name": "admin",
      "outputs": [
        {
          "internalType": "address",
          "name": "",
          "type": "address"
        }
      ],
      "stateMutability": "view",
      "type": "function",
      "constant": true
    },
    {
      "inputs": [
        {
          "internalType": "string",
          "name": "",
          "type": "string"
        }
      ],
      "name": "admins",
      "outputs": [
        {
          "internalType": "string",
          "name": "username",
          "type": "string"
        },
        {
          "internalType": "string",
          "name": "password",
          "type": "string"
        },
        {
          "internalType": "bool",
          "name": "isRegistered",
          "type": "bool"
        }
      ],
      "stateMutability": "view",
      "type": "function",
      "constant": true
    },
    {
      "inputs": [],
      "name": "getRemainingTime",
      "outputs": [
        {
          "internalType": "uint256",
          "name": "",
          "type": "uint256"
        }
      ],
      "stateMutability": "view",
      "type": "function",
      "constant": true
    },
    {
      "inputs": [],
      "name": "getTime",
      "outputs": [
        {
          "internalType": "uint256[]",
          "name": "",
          "type": "uint256[]"
        }
      ],
      "stateMutability": "view",
      "type": "function",
      "constant": true
    },
    {
      "inputs": [
        {
          "internalType": "address",
          "name": "",
          "type": "address"
        }
      ],
      "name": "hasAdminLoggiedIn",
      "outputs": [
        {
          "internalType": "bool",
          "name": "",
          "type": "bool"
        }
      ],
      "stateMutability": "view",
      "type": "function",
      "constant": true
    },
    {
      "inputs": [],
      "name": "isInitiated",
      "outputs": [
        {
          "internalType": "bool",
          "name": "",
          "type": "bool"
        }
      ],
      "stateMutability": "view",
      "type": "function",
      "constant": true
    },
    {
      "inputs": [
        {
          "internalType": "uint256",
          "name": "",
          "type": "uint256"
        }
      ],
      "name": "oTime",
      "outputs": [
        {
          "internalType": "uint256",
          "name": "",
          "type": "uint256"
        }
      ],
      "stateMutability": "view",
      "type": "function",
      "constant": true
    },
    {
      "inputs": [
        {
          "internalType": "uint256",
          "name": "_startTime",
          "type": "uint256"
        },
        {
          "internalType": "uint256",
          "name": "_endTime",
          "type": "uint256"
        }
      ],
      "name": "setVotingPeriod",
      "outputs": [],
      "stateMutability": "nonpayable",
      "type": "function"
    },
    {
      "inputs": [
        {
          "internalType": "address",
          "name": "newAdmin",
          "type": "address"
        }
      ],
      "name": "transferAdmin",
      "outputs": [],
      "stateMutability": "nonpayable",
      "type": "function"
    },
    {
      "inputs": [
        {
          "internalType": "string",
          "name": "_username",
          "type": "string"
        },
        {
          "internalType": "string",
          "name": "_password",
          "type": "string"
        }
      ],
      "name": "adminAuth",
      "outputs": [],
      "stateMutability": "nonpayable",
      "type": "function"
    },
    {
      "inputs": [],
      "name": "adminLogout",
      "outputs": [],
      "stateMutability": "nonpayable",
      "type": "function"
    }
  ],
  "bytecode": "0x60806040523480156200001157600080fd5b50336000806101000a81548173ffffffffffffffffffffffffffffffffffffffff021916908373ffffffffffffffffffffffffffffffffffffffff16021790555060006040518060400160405280600581526020017f41646d696e0000000000000000000000000000000000000000000000000000008152509050600060405180606001604052806040518060400160405280600581526020017f41646d696e00000000000000000000000000000000000000000000000000000081525081526020016040518060400160405280600881526020017f61646d696e3132330000000000000000000000000000000000000000000000008152508152602001600115158152509050806006836040516200012b91906200020d565b9081526020016040518091039020600082015181600001908162000150919062000495565b50602082015181600101908162000168919062000495565b5060408201518160020160006101000a81548160ff02191690831515021790555090505050506200057c565b600081519050919050565b600081905092915050565b60005b83811015620001ca578082015181840152602081019050620001ad565b60008484015250505050565b6000620001e38262000194565b620001ef81856200019f565b935062000201818560208601620001aa565b80840191505092915050565b60006200021b8284620001d6565b915081905092915050565b7f4e487b7100000000000000000000000000000000000000000000000000000000600052604160045260246000fd5b7f4e487b7100000000000000000000000000000000000000000000000000000000600052602260045260246000fd5b600060028204905060018216806200029d57607f821691505b602082108103620002b357620002b262000255565b5b50919050565b60008190508160005260206000209050919050565b60006020601f8301049050919050565b600082821b905092915050565b6000600883026200031d7fffffffffffffffffffffffffffffffffffffffffffffffffffffffffffffffff82620002de565b620003298683620002de565b95508019841693508086168417925050509392505050565b6000819050919050565b6000819050919050565b600062000376620003706200036a8462000341565b6200034b565b62000341565b9050919050565b6000819050919050565b620003928362000355565b620003aa620003a1826200037d565b848454620002eb565b825550505050565b600090565b620003c1620003b2565b620003ce81848462000387565b505050565b5b81811015620003f657620003ea600082620003b7565b600181019050620003d4565b5050565b601f82111562000445576200040f81620002b9565b6200041a84620002ce565b810160208510156200042a578190505b620004426200043985620002ce565b830182620003d3565b50505b505050565b600082821c905092915050565b60006200046a600019846008026200044a565b1980831691505092915050565b600062000485838362000457565b9150826002028217905092915050565b620004a08262000194565b67ffffffffffffffff811115620004bc57620004bb62000226565b5b620004c8825462000284565b620004d5828285620003fa565b600060209050601f8311600181146200050d5760008415620004f8578287015190505b62000504858262000477565b86555062000574565b601f1984166200051d86620002b9565b60005b82811015620005475784890151825560018201915060208501945060208101905062000520565b8683101562000567578489015162000563601f89168262000457565b8355505b6001600288020188555050505b505050505050565b6116d6806200058c6000396000f3fe608060405234801561001057600080fd5b50600436106100a95760003560e01c8063926d7eb011610071578063926d7eb014610166578063a15a36c714610198578063a1c85526146101b4578063d4dd0b77146101be578063efb98bcf146101da578063f851a440146101f8576100a9565b80631cb59914146100ae5780633c26f8d4146100cc578063557ed1ba146100fc5780635afdbb761461011a57806375829def1461014a575b600080fd5b6100b6610216565b6040516100c39190610ae0565b60405180910390f35b6100e660048036038101906100e19190610b6d565b610229565b6040516100f39190610ae0565b60405180910390f35b610104610249565b6040516101119190610c62565b60405180910390f35b610134600480360381019061012f9190610cb0565b6102a1565b6040516101419190610cec565b60405180910390f35b610164600480360381019061015f9190610b6d565b6102c5565b005b610180600480360381019061017b9190610e4d565b610396565b60405161018f93929190610f15565b60405180910390f35b6101b260048036038101906101ad9190610f5a565b6104f3565b005b6101bc61071c565b005b6101d860048036038101906101d39190610f9a565b610776565b005b6101e2610a33565b6040516101ef9190610cec565b60405180910390f35b610200610aa1565b60405161020d9190611021565b60405180910390f35b600460009054906101000a900460ff1681565b60076020528060005260406000206000915054906101000a900460ff1681565b6060600580548060200260200160405190810160405280929190818152602001828054801561029757602002820191906000526020600020905b815481526020019060010190808311610283575b5050505050905090565b600581815481106102b157600080fd5b906000526020600020016000915090505481565b60008054906101000a900473ffffffffffffffffffffffffffffffffffffffff1673ffffffffffffffffffffffffffffffffffffffff163373ffffffffffffffffffffffffffffffffffffffff1614610353576040517f08c379a000000000000000000000000000000000000000000000000000000000815260040161034a906110ae565b60405180910390fd5b806000806101000a81548173ffffffffffffffffffffffffffffffffffffffff021916908373ffffffffffffffffffffffffffffffffffffffff16021790555050565b6006818051602081018201805184825260208301602085012081835280955050505050506000915090508060000180546103cf906110fd565b80601f01602080910402602001604051908101604052809291908181526020018280546103fb906110fd565b80156104485780601f1061041d57610100808354040283529160200191610448565b820191906000526020600020905b81548152906001019060200180831161042b57829003601f168201915b50505050509080600101805461045d906110fd565b80601f0160208091040260200160405190810160405280929190818152602001828054610489906110fd565b80156104d65780601f106104ab576101008083540402835291602001916104d6565b820191906000526020600020905b8154815290600101906020018083116104b957829003601f168201915b5050505050908060020160009054906101000a900460ff16905083565b60008054906101000a900473ffffffffffffffffffffffffffffffffffffffff1673ffffffffffffffffffffffffffffffffffffffff163373ffffffffffffffffffffffffffffffffffffffff1614610581576040517f08c379a0000000000000000000000000000000000000000000000000000000008152600401610578906110ae565b60405180910390fd5b8181116105c3576040517f08c379a00000000000000000000000000000000000000000000000000000000081526004016105ba9061117a565b60405180910390fd5b600460009054906101000a900460ff1615610613576040517f08c379a000000000000000000000000000000000000000000000000000000000815260040161060a9061120c565b60405180910390fd5b60008282610621919061125b565b90506005839080600181540180825580915050600190039060005260206000200160009091909190915055600582908060018154018082558091505060019003906000526020600020016000909190919091505560058190806001815401808255809150506001900390600052602060002001600090919091909150556001600460006101000a81548160ff0219169083151502179055506001836106c6919061128f565b426106d191906112d1565b6001819055506001826106e4919061128f565b426106ef91906112d1565b600281905550806003819055506001600460006101000a81548160ff021916908315150217905550505050565b6000600760003373ffffffffffffffffffffffffffffffffffffffff1673ffffffffffffffffffffffffffffffffffffffff16815260200190815260200160002060006101000a81548160ff021916908315150217905550565b60008054906101000a900473ffffffffffffffffffffffffffffffffffffffff1673ffffffffffffffffffffffffffffffffffffffff163373ffffffffffffffffffffffffffffffffffffffff1614610804576040517f08c379a00000000000000000000000000000000000000000000000000000000081526004016107fb906110ae565b60405180910390fd5b6006826040516108149190611341565b908152602001604051809103902060020160009054906101000a900460ff16610872576040517f08c379a0000000000000000000000000000000000000000000000000000000008152600401610869906113ca565b60405180910390fd5b6000828051906020012050602060ff1611801561089c57506000818051906020012050602060ff16115b6108db576040517f08c379a00000000000000000000000000000000000000000000000000000000081526004016108d29061145c565b60405180910390fd5b81805190602001206006836040516108f39190611341565b9081526020016040518091039020600001604051610911919061151f565b604051809103902014610959576040517f08c379a000000000000000000000000000000000000000000000000000000000815260040161095090611582565b60405180910390fd5b80805190602001206006836040516109719190611341565b908152602001604051809103902060010160405161098f919061151f565b6040518091039020146109d7576040517f08c379a00000000000000000000000000000000000000000000000000000000081526004016109ce906115ee565b60405180910390fd5b6001600760003373ffffffffffffffffffffffffffffffffffffffff1673ffffffffffffffffffffffffffffffffffffffff16815260200190815260200160002060006101000a81548160ff0219169083151502179055505050565b6000600154421015610a7a576040517f08c379a0000000000000000000000000000000000000000000000000000000008152600401610a7190611680565b60405180910390fd5b600254421015610a995742600254610a92919061125b565b9050610a9e565b600090505b90565b60008054906101000a900473ffffffffffffffffffffffffffffffffffffffff1681565b60008115159050919050565b610ada81610ac5565b82525050565b6000602082019050610af56000830184610ad1565b92915050565b6000604051905090565b600080fd5b600080fd5b600073ffffffffffffffffffffffffffffffffffffffff82169050919050565b6000610b3a82610b0f565b9050919050565b610b4a81610b2f565b8114610b5557600080fd5b50565b600081359050610b6781610b41565b92915050565b600060208284031215610b8357610b82610b05565b5b6000610b9184828501610b58565b91505092915050565b600081519050919050565b600082825260208201905092915050565b6000819050602082019050919050565b6000819050919050565b610bd981610bc6565b82525050565b6000610beb8383610bd0565b60208301905092915050565b6000602082019050919050565b6000610c0f82610b9a565b610c198185610ba5565b9350610c2483610bb6565b8060005b83811015610c55578151610c3c8882610bdf565b9750610c4783610bf7565b925050600181019050610c28565b5085935050505092915050565b60006020820190508181036000830152610c7c8184610c04565b905092915050565b610c8d81610bc6565b8114610c9857600080fd5b50565b600081359050610caa81610c84565b92915050565b600060208284031215610cc657610cc5610b05565b5b6000610cd484828501610c9b565b91505092915050565b610ce681610bc6565b82525050565b6000602082019050610d016000830184610cdd565b92915050565b600080fd5b600080fd5b6000601f19601f8301169050919050565b7f4e487b7100000000000000000000000000000000000000000000000000000000600052604160045260246000fd5b610d5a82610d11565b810181811067ffffffffffffffff82111715610d7957610d78610d22565b5b80604052505050565b6000610d8c610afb565b9050610d988282610d51565b919050565b600067ffffffffffffffff821115610db857610db7610d22565b5b610dc182610d11565b9050602081019050919050565b82818337600083830152505050565b6000610df0610deb84610d9d565b610d82565b905082815260208101848484011115610e0c57610e0b610d0c565b5b610e17848285610dce565b509392505050565b600082601f830112610e3457610e33610d07565b5b8135610e44848260208601610ddd565b91505092915050565b600060208284031215610e6357610e62610b05565b5b600082013567ffffffffffffffff811115610e8157610e80610b0a565b5b610e8d84828501610e1f565b91505092915050565b600081519050919050565b600082825260208201905092915050565b60005b83811015610ed0578082015181840152602081019050610eb5565b60008484015250505050565b6000610ee782610e96565b610ef18185610ea1565b9350610f01818560208601610eb2565b610f0a81610d11565b840191505092915050565b60006060820190508181036000830152610f2f8186610edc565b90508181036020830152610f438185610edc565b9050610f526040830184610ad1565b949350505050565b60008060408385031215610f7157610f70610b05565b5b6000610f7f85828601610c9b565b9250506020610f9085828601610c9b565b9150509250929050565b60008060408385031215610fb157610fb0610b05565b5b600083013567ffffffffffffffff811115610fcf57610fce610b0a565b5b610fdb85828601610e1f565b925050602083013567ffffffffffffffff811115610ffc57610ffb610b0a565b5b61100885828601610e1f565b9150509250929050565b61101b81610b2f565b82525050565b60006020820190506110366000830184611012565b92915050565b7f4f6e6c792061646d696e2063616e20706572666f726d2074686973206163746960008201527f6f6e000000000000000000000000000000000000000000000000000000000000602082015250565b6000611098602283610ea1565b91506110a38261103c565b604082019050919050565b600060208201905081810360008301526110c78161108b565b9050919050565b7f4e487b7100000000000000000000000000000000000000000000000000000000600052602260045260246000fd5b6000600282049050600182168061111557607f821691505b602082108103611128576111276110ce565b5b50919050565b7f496e76616c696420766f74696e6720706572696f640000000000000000000000600082015250565b6000611164601583610ea1565b915061116f8261112e565b602082019050919050565b6000602082019050818103600083015261119381611157565b9050919050565b7f54686520766f74696e672074696d6520697320616c726561647920696e69746960008201527f6174656400000000000000000000000000000000000000000000000000000000602082015250565b60006111f6602483610ea1565b91506112018261119a565b604082019050919050565b60006020820190508181036000830152611225816111e9565b9050919050565b7f4e487b7100000000000000000000000000000000000000000000000000000000600052601160045260246000fd5b600061126682610bc6565b915061127183610bc6565b92508282039050818111156112895761128861122c565b5b92915050565b600061129a82610bc6565b91506112a583610bc6565b92508282026112b381610bc6565b915082820484148315176112ca576112c961122c565b5b5092915050565b60006112dc82610bc6565b91506112e783610bc6565b92508282019050808211156112ff576112fe61122c565b5b92915050565b600081905092915050565b600061131b82610e96565b6113258185611305565b9350611335818560208601610eb2565b80840191505092915050565b600061134d8284611310565b915081905092915050565b7f506c656173652c204c6f67696e20776974682061646d696e6973747261746f7260008201527f20657468657265756d206163636f756e74000000000000000000000000000000602082015250565b60006113b4603183610ea1565b91506113bf82611358565b604082019050919050565b600060208201905081810360008301526113e3816113a7565b9050919050565b7f757365726e616d6520616e642070617373776f72642063616e6e6f742062652060008201527f656d707479000000000000000000000000000000000000000000000000000000602082015250565b6000611446602583610ea1565b9150611451826113ea565b604082019050919050565b6000602082019050818103600083015261147581611439565b9050919050565b600081905092915050565b60008190508160005260206000209050919050565b600081546114a9816110fd565b6114b3818661147c565b945060018216600081146114ce57600181146114e357611516565b60ff1983168652811515820286019350611516565b6114ec85611487565b60005b8381101561150e578154818901526001820191506020810190506114ef565b838801955050505b50505092915050565b600061152b828461149c565b915081905092915050565b7f496e76616c6964207075626c6963206164647265737300000000000000000000600082015250565b600061156c601683610ea1565b915061157782611536565b602082019050919050565b6000602082019050818103600083015261159b8161155f565b9050919050565b7f496e76616c69642070617373776f726400000000000000000000000000000000600082015250565b60006115d8601083610ea1565b91506115e3826115a2565b602082019050919050565b60006020820190508181036000830152611607816115cb565b9050919050565b7f766f74696e6720686173206e6f742073746172746564207965742121212c205060008201527f6c65617365207761697400000000000000000000000000000000000000000000602082015250565b600061166a602a83610ea1565b91506116758261160e565b604082019050919050565b600060208201905081810360008301526116998161165d565b905091905056fea2646970667358221220db367531c15b023cae7bcbf3c844b39669b08fc9992ca42a1e5b6592cd2deee264736f6c63430008130033",
  "immutableReferences": {},
  "source": "//SPDX-License-Identifier: MIT\npragma solidity ^0.8.0;\nimport \"./TimeControl.sol\";\n\ncontract AdminAuthentication is TimeControl {\n\n    struct Admin {\n        string username;\n        string password;\n        bool isRegistered;\n    }\n\n    mapping(string => Admin) public admins;\n    mapping(address => bool) public hasAdminLoggiedIn;\n    constructor() {\n        string memory username = \"Admin\";\n        Admin memory admin = Admin(\"Admin\", \"admin123\", true);\n        admins[username] = admin;\n    }\n\n    function adminAuth(string memory _username, string memory _password) onlyAdmin public{\n        require(admins[_username].isRegistered, \"Please, Login with administrator ethereum account\");\n        // require(abi.encodePacked(_adminPublicAddress).length > 0 && keccak256(bytes(bytes(_password))).length > 0, \"username and password cannot be empty\");\n        require(keccak256(bytes(_username)).length > 0 && keccak256(bytes(bytes(_password))).length > 0, \"username and password cannot be empty\");\n        require(keccak256(bytes(admins[_username].username)) == keccak256(bytes(_username)), \"Invalid public address\");\n        require(keccak256(bytes(admins[_username].password)) == keccak256(bytes(_password)), \"Invalid password\");\n        hasAdminLoggiedIn[msg.sender] = true;\n    }\n\n    function adminLogout() public {\n        hasAdminLoggiedIn[msg.sender] = false;\n    }\n}",
  "sourcePath": "/home/temba/Documents/client/contracts/AdminAuthentication.sol",
  "compiler": {
    "name": "solc",
    "version": "0.8.19+commit.7dd6d404.Emscripten.clang"
  },
  "schemaVersion": "3.4.14",
  "updatedAt": "2023-06-22T10:27:14.109Z",
  "networkType": "ethereum",
  "devdoc": {
    "kind": "dev",
    "methods": {},
    "version": 1
  },
  "userdoc": {
    "kind": "user",
    "methods": {},
    "version": 1
  }
}