{
  "contractName": "CandidateStructure",
  "abi": [
    {
      "inputs": [
        {
          "internalType": "string",
          "name": "",
          "type": "string"
        }
      ],
      "name": "isRegistered",
      "outputs": [
        {
          "internalType": "bool",
          "name": "",
          "type": "bool"
        }
      ],
      "stateMutability": "view",
      "type": "function",
      "constant": true
    },
    {
      "inputs": [],
      "name": "totalVotes",
      "outputs": [
        {
          "internalType": "uint256",
          "name": "",
          "type": "uint256"
        }
      ],
      "stateMutability": "view",
      "type": "function",
      "constant": true
    }
  ],
  "bytecode": "0x608060405234801561001057600080fd5b50610308806100206000396000f3fe608060405234801561001057600080fd5b50600436106100365760003560e01c80630d15fd771461003b578063c822d7f014610059575b600080fd5b610043610089565b60405161005091906100de565b60405180910390f35b610073600480360381019061006e9190610253565b61008f565b60405161008091906102b7565b60405180910390f35b60005481565b6001818051602081018201805184825260208301602085012081835280955050505050506000915054906101000a900460ff1681565b6000819050919050565b6100d8816100c5565b82525050565b60006020820190506100f360008301846100cf565b92915050565b6000604051905090565b600080fd5b600080fd5b600080fd5b600080fd5b6000601f19601f8301169050919050565b7f4e487b7100000000000000000000000000000000000000000000000000000000600052604160045260246000fd5b61016082610117565b810181811067ffffffffffffffff8211171561017f5761017e610128565b5b80604052505050565b60006101926100f9565b905061019e8282610157565b919050565b600067ffffffffffffffff8211156101be576101bd610128565b5b6101c782610117565b9050602081019050919050565b82818337600083830152505050565b60006101f66101f1846101a3565b610188565b90508281526020810184848401111561021257610211610112565b5b61021d8482856101d4565b509392505050565b600082601f83011261023a5761023961010d565b5b813561024a8482602086016101e3565b91505092915050565b60006020828403121561026957610268610103565b5b600082013567ffffffffffffffff81111561028757610286610108565b5b61029384828501610225565b91505092915050565b60008115159050919050565b6102b18161029c565b82525050565b60006020820190506102cc60008301846102a8565b9291505056fea26469706673582212207dd574bad56a431b27aff2f00ab8f1a92aa7deeb826447d8493fdf54c003024e64736f6c63430008130033",
  "immutableReferences": {},
  "source": "// SPDX-License-Identifier: MIT\npragma solidity ^0.8.0;\n\ncontract CandidateStructure {\n\n     struct Candidate {\n        string firstName;\n        string lastName;\n        string collegeName;\n        string programName;\n        uint256 yearOfStudy;\n        string regNo;\n        string blockNumber;\n        string position;\n        bool isWinner;\n        uint256 voteCount;\n    }\n    uint public totalVotes;\n\n    mapping(string => bool) public isRegistered;   \n\n}",
  "sourcePath": "/home/temba/Documents/client/contracts/CandidateStructure.sol",
  "compiler": {
    "name": "solc",
    "version": "0.8.19+commit.7dd6d404.Emscripten.clang"
  },
  "schemaVersion": "3.4.14",
  "updatedAt": "2023-06-30T04:15:59.313Z",
  "networkType": "ethereum",
  "devdoc": {
    "kind": "dev",
    "methods": {},
    "version": 1
  },
  "userdoc": {
    "kind": "user",
    "methods": {},
    "version": 1
  }
}