{
  "contractName": "CandidateStructure",
  "abi": [
    {
      "inputs": [
        {
          "internalType": "uint256",
          "name": "",
          "type": "uint256"
        }
      ],
      "name": "blockLeaderList",
      "outputs": [
        {
          "internalType": "string",
          "name": "",
          "type": "string"
        }
      ],
      "stateMutability": "view",
      "type": "function",
      "constant": true
    },
    {
      "inputs": [
        {
          "internalType": "address",
          "name": "",
          "type": "address"
        }
      ],
      "name": "blockLeaderVoted",
      "outputs": [
        {
          "internalType": "bool",
          "name": "",
          "type": "bool"
        }
      ],
      "stateMutability": "view",
      "type": "function",
      "constant": true
    },
    {
      "inputs": [
        {
          "internalType": "string",
          "name": "",
          "type": "string"
        }
      ],
      "name": "candidateBlockLeader",
      "outputs": [
        {
          "internalType": "string",
          "name": "firstName",
          "type": "string"
        },
        {
          "internalType": "string",
          "name": "lastName",
          "type": "string"
        },
        {
          "internalType": "string",
          "name": "collegeName",
          "type": "string"
        },
        {
          "internalType": "string",
          "name": "programName",
          "type": "string"
        },
        {
          "internalType": "uint256",
          "name": "yearOfStudy",
          "type": "uint256"
        },
        {
          "internalType": "string",
          "name": "regNo",
          "type": "string"
        },
        {
          "internalType": "string",
          "name": "blockNumber",
          "type": "string"
        },
        {
          "internalType": "string",
          "name": "gender",
          "type": "string"
        },
        {
          "internalType": "bool",
          "name": "isWinner",
          "type": "bool"
        },
        {
          "internalType": "uint256",
          "name": "voteCount",
          "type": "uint256"
        }
      ],
      "stateMutability": "view",
      "type": "function",
      "constant": true
    },
    {
      "inputs": [
        {
          "internalType": "string",
          "name": "",
          "type": "string"
        }
      ],
      "name": "candidateGovernor",
      "outputs": [
        {
          "internalType": "string",
          "name": "firstName",
          "type": "string"
        },
        {
          "internalType": "string",
          "name": "lastName",
          "type": "string"
        },
        {
          "internalType": "string",
          "name": "collegeName",
          "type": "string"
        },
        {
          "internalType": "string",
          "name": "programName",
          "type": "string"
        },
        {
          "internalType": "uint256",
          "name": "yearOfStudy",
          "type": "uint256"
        },
        {
          "internalType": "string",
          "name": "regNo",
          "type": "string"
        },
        {
          "internalType": "string",
          "name": "blockNumber",
          "type": "string"
        },
        {
          "internalType": "string",
          "name": "gender",
          "type": "string"
        },
        {
          "internalType": "bool",
          "name": "isWinner",
          "type": "bool"
        },
        {
          "internalType": "uint256",
          "name": "voteCount",
          "type": "uint256"
        }
      ],
      "stateMutability": "view",
      "type": "function",
      "constant": true
    },
    {
      "inputs": [
        {
          "internalType": "string",
          "name": "",
          "type": "string"
        }
      ],
      "name": "candidatePresident",
      "outputs": [
        {
          "internalType": "string",
          "name": "firstName",
          "type": "string"
        },
        {
          "internalType": "string",
          "name": "lastName",
          "type": "string"
        },
        {
          "internalType": "string",
          "name": "collegeName",
          "type": "string"
        },
        {
          "internalType": "string",
          "name": "programName",
          "type": "string"
        },
        {
          "internalType": "uint256",
          "name": "yearOfStudy",
          "type": "uint256"
        },
        {
          "internalType": "string",
          "name": "regNo",
          "type": "string"
        },
        {
          "internalType": "string",
          "name": "blockNumber",
          "type": "string"
        },
        {
          "internalType": "string",
          "name": "gender",
          "type": "string"
        },
        {
          "internalType": "bool",
          "name": "isWinner",
          "type": "bool"
        },
        {
          "internalType": "uint256",
          "name": "voteCount",
          "type": "uint256"
        }
      ],
      "stateMutability": "view",
      "type": "function",
      "constant": true
    },
    {
      "inputs": [
        {
          "internalType": "uint256",
          "name": "",
          "type": "uint256"
        }
      ],
      "name": "governorList",
      "outputs": [
        {
          "internalType": "string",
          "name": "",
          "type": "string"
        }
      ],
      "stateMutability": "view",
      "type": "function",
      "constant": true
    },
    {
      "inputs": [
        {
          "internalType": "address",
          "name": "",
          "type": "address"
        }
      ],
      "name": "governorVoted",
      "outputs": [
        {
          "internalType": "bool",
          "name": "",
          "type": "bool"
        }
      ],
      "stateMutability": "view",
      "type": "function",
      "constant": true
    },
    {
      "inputs": [
        {
          "internalType": "string",
          "name": "",
          "type": "string"
        }
      ],
      "name": "isRegistered",
      "outputs": [
        {
          "internalType": "bool",
          "name": "",
          "type": "bool"
        }
      ],
      "stateMutability": "view",
      "type": "function",
      "constant": true
    },
    {
      "inputs": [],
      "name": "numberOfBlockLeader",
      "outputs": [
        {
          "internalType": "uint256",
          "name": "",
          "type": "uint256"
        }
      ],
      "stateMutability": "view",
      "type": "function",
      "constant": true
    },
    {
      "inputs": [
        {
          "internalType": "uint256",
          "name": "",
          "type": "uint256"
        }
      ],
      "name": "numberOfGovernor",
      "outputs": [
        {
          "internalType": "uint256",
          "name": "",
          "type": "uint256"
        }
      ],
      "stateMutability": "view",
      "type": "function",
      "constant": true
    },
    {
      "inputs": [],
      "name": "numberOfPresident",
      "outputs": [
        {
          "internalType": "uint256",
          "name": "",
          "type": "uint256"
        }
      ],
      "stateMutability": "view",
      "type": "function",
      "constant": true
    },
    {
      "inputs": [
        {
          "internalType": "uint256",
          "name": "",
          "type": "uint256"
        }
      ],
      "name": "presidentList",
      "outputs": [
        {
          "internalType": "string",
          "name": "",
          "type": "string"
        }
      ],
      "stateMutability": "view",
      "type": "function",
      "constant": true
    },
    {
      "inputs": [
        {
          "internalType": "address",
          "name": "",
          "type": "address"
        }
      ],
      "name": "presidentVoted",
      "outputs": [
        {
          "internalType": "bool",
          "name": "",
          "type": "bool"
        }
      ],
      "stateMutability": "view",
      "type": "function",
      "constant": true
    },
    {
      "inputs": [],
      "name": "totalVotes",
      "outputs": [
        {
          "internalType": "uint256",
          "name": "",
          "type": "uint256"
        }
      ],
      "stateMutability": "view",
      "type": "function",
      "constant": true
    }
  ],
  "bytecode": "0x608060405234801561001057600080fd5b506117bd806100206000396000f3fe608060405234801561001057600080fd5b50600436106100ea5760003560e01c8063a0b0df951161008c578063e316db4e11610066578063e316db4e146102bd578063e6b52a33146102ed578063f64450261461031d578063f6ffc11714610356576100ea565b8063a0b0df951461023f578063c822d7f01461026f578063dccea1891461029f576100ea565b8063166b4722116100c8578063166b47221461016d5780631ac45f52146101a657806345a8a2be146101df5780635f8b99721461020f576100ea565b806302aac7b2146100ef578063052fbf8c1461011f5780630d15fd771461014f575b600080fd5b61010960048036038101906101049190611312565b610374565b60405161011691906113cf565b60405180910390f35b6101396004803603810190610134919061144f565b610420565b6040516101469190611497565b60405180910390f35b610157610440565b60405161016491906114c1565b60405180910390f35b61018760048036038101906101829190611611565b610446565b60405161019d9a9998979695949392919061165a565b60405180910390f35b6101c060048036038101906101bb9190611611565b610875565b6040516101d69a9998979695949392919061165a565b60405180910390f35b6101f960048036038101906101f49190611312565b610ca4565b60405161020691906113cf565b60405180910390f35b6102296004803603810190610224919061144f565b610d50565b6040516102369190611497565b60405180910390f35b6102596004803603810190610254919061144f565b610d70565b6040516102669190611497565b60405180910390f35b61028960048036038101906102849190611611565b610d90565b6040516102969190611497565b60405180910390f35b6102a7610dc6565b6040516102b491906114c1565b60405180910390f35b6102d760048036038101906102d29190611312565b610dcc565b6040516102e491906113cf565b60405180910390f35b61030760048036038101906103029190611312565b610e78565b60405161031491906114c1565b60405180910390f35b61033760048036038101906103329190611611565b610e93565b60405161034d9a9998979695949392919061165a565b60405180910390f35b61035e6112c2565b60405161036b91906114c1565b60405180910390f35b6009818154811061038457600080fd5b90600052602060002001600091509050805461039f90611756565b80601f01602080910402602001604051908101604052809291908181526020018280546103cb90611756565b80156104185780601f106103ed57610100808354040283529160200191610418565b820191906000526020600020905b8154815290600101906020018083116103fb57829003601f168201915b505050505081565b60076020528060005260406000206000915054906101000a900460ff1681565b60005481565b60028180516020810182018051848252602083016020850120818352809550505050505060009150905080600001805461047f90611756565b80601f01602080910402602001604051908101604052809291908181526020018280546104ab90611756565b80156104f85780601f106104cd576101008083540402835291602001916104f8565b820191906000526020600020905b8154815290600101906020018083116104db57829003601f168201915b50505050509080600101805461050d90611756565b80601f016020809104026020016040519081016040528092919081815260200182805461053990611756565b80156105865780601f1061055b57610100808354040283529160200191610586565b820191906000526020600020905b81548152906001019060200180831161056957829003601f168201915b50505050509080600201805461059b90611756565b80601f01602080910402602001604051908101604052809291908181526020018280546105c790611756565b80156106145780601f106105e957610100808354040283529160200191610614565b820191906000526020600020905b8154815290600101906020018083116105f757829003601f168201915b50505050509080600301805461062990611756565b80601f016020809104026020016040519081016040528092919081815260200182805461065590611756565b80156106a25780601f10610677576101008083540402835291602001916106a2565b820191906000526020600020905b81548152906001019060200180831161068557829003601f168201915b5050505050908060040154908060050180546106bd90611756565b80601f01602080910402602001604051908101604052809291908181526020018280546106e990611756565b80156107365780601f1061070b57610100808354040283529160200191610736565b820191906000526020600020905b81548152906001019060200180831161071957829003601f168201915b50505050509080600601805461074b90611756565b80601f016020809104026020016040519081016040528092919081815260200182805461077790611756565b80156107c45780601f10610799576101008083540402835291602001916107c4565b820191906000526020600020905b8154815290600101906020018083116107a757829003601f168201915b5050505050908060070180546107d990611756565b80601f016020809104026020016040519081016040528092919081815260200182805461080590611756565b80156108525780601f1061082757610100808354040283529160200191610852565b820191906000526020600020905b81548152906001019060200180831161083557829003601f168201915b5050505050908060080160009054906101000a900460ff1690806009015490508a565b6004818051602081018201805184825260208301602085012081835280955050505050506000915090508060000180546108ae90611756565b80601f01602080910402602001604051908101604052809291908181526020018280546108da90611756565b80156109275780601f106108fc57610100808354040283529160200191610927565b820191906000526020600020905b81548152906001019060200180831161090a57829003601f168201915b50505050509080600101805461093c90611756565b80601f016020809104026020016040519081016040528092919081815260200182805461096890611756565b80156109b55780601f1061098a576101008083540402835291602001916109b5565b820191906000526020600020905b81548152906001019060200180831161099857829003601f168201915b5050505050908060020180546109ca90611756565b80601f01602080910402602001604051908101604052809291908181526020018280546109f690611756565b8015610a435780601f10610a1857610100808354040283529160200191610a43565b820191906000526020600020905b815481529060010190602001808311610a2657829003601f168201915b505050505090806003018054610a5890611756565b80601f0160208091040260200160405190810160405280929190818152602001828054610a8490611756565b8015610ad15780601f10610aa657610100808354040283529160200191610ad1565b820191906000526020600020905b815481529060010190602001808311610ab457829003601f168201915b505050505090806004015490806005018054610aec90611756565b80601f0160208091040260200160405190810160405280929190818152602001828054610b1890611756565b8015610b655780601f10610b3a57610100808354040283529160200191610b65565b820191906000526020600020905b815481529060010190602001808311610b4857829003601f168201915b505050505090806006018054610b7a90611756565b80601f0160208091040260200160405190810160405280929190818152602001828054610ba690611756565b8015610bf35780601f10610bc857610100808354040283529160200191610bf3565b820191906000526020600020905b815481529060010190602001808311610bd657829003601f168201915b505050505090806007018054610c0890611756565b80601f0160208091040260200160405190810160405280929190818152602001828054610c3490611756565b8015610c815780601f10610c5657610100808354040283529160200191610c81565b820191906000526020600020905b815481529060010190602001808311610c6457829003601f168201915b5050505050908060080160009054906101000a900460ff1690806009015490508a565b600a8181548110610cb457600080fd5b906000526020600020016000915090508054610ccf90611756565b80601f0160208091040260200160405190810160405280929190818152602001828054610cfb90611756565b8015610d485780601f10610d1d57610100808354040283529160200191610d48565b820191906000526020600020905b815481529060010190602001808311610d2b57829003601f168201915b505050505081565b60056020528060005260406000206000915054906101000a900460ff1681565b60066020528060005260406000206000915054906101000a900460ff1681565b6001818051602081018201805184825260208301602085012081835280955050505050506000915054906101000a900460ff1681565b600b5481565b60088181548110610ddc57600080fd5b906000526020600020016000915090508054610df790611756565b80601f0160208091040260200160405190810160405280929190818152602001828054610e2390611756565b8015610e705780601f10610e4557610100808354040283529160200191610e70565b820191906000526020600020905b815481529060010190602001808311610e5357829003601f168201915b505050505081565b600c8160078110610e8857600080fd5b016000915090505481565b600381805160208101820180518482526020830160208501208183528095505050505050600091509050806000018054610ecc90611756565b80601f0160208091040260200160405190810160405280929190818152602001828054610ef890611756565b8015610f455780601f10610f1a57610100808354040283529160200191610f45565b820191906000526020600020905b815481529060010190602001808311610f2857829003601f168201915b505050505090806001018054610f5a90611756565b80601f0160208091040260200160405190810160405280929190818152602001828054610f8690611756565b8015610fd35780601f10610fa857610100808354040283529160200191610fd3565b820191906000526020600020905b815481529060010190602001808311610fb657829003601f168201915b505050505090806002018054610fe890611756565b80601f016020809104026020016040519081016040528092919081815260200182805461101490611756565b80156110615780601f1061103657610100808354040283529160200191611061565b820191906000526020600020905b81548152906001019060200180831161104457829003601f168201915b50505050509080600301805461107690611756565b80601f01602080910402602001604051908101604052809291908181526020018280546110a290611756565b80156110ef5780601f106110c4576101008083540402835291602001916110ef565b820191906000526020600020905b8154815290600101906020018083116110d257829003601f168201915b50505050509080600401549080600501805461110a90611756565b80601f016020809104026020016040519081016040528092919081815260200182805461113690611756565b80156111835780601f1061115857610100808354040283529160200191611183565b820191906000526020600020905b81548152906001019060200180831161116657829003601f168201915b50505050509080600601805461119890611756565b80601f01602080910402602001604051908101604052809291908181526020018280546111c490611756565b80156112115780601f106111e657610100808354040283529160200191611211565b820191906000526020600020905b8154815290600101906020018083116111f457829003601f168201915b50505050509080600701805461122690611756565b80601f016020809104026020016040519081016040528092919081815260200182805461125290611756565b801561129f5780601f106112745761010080835404028352916020019161129f565b820191906000526020600020905b81548152906001019060200180831161128257829003601f168201915b5050505050908060080160009054906101000a900460ff1690806009015490508a565b60135481565b6000604051905090565b600080fd5b600080fd5b6000819050919050565b6112ef816112dc565b81146112fa57600080fd5b50565b60008135905061130c816112e6565b92915050565b600060208284031215611328576113276112d2565b5b6000611336848285016112fd565b91505092915050565b600081519050919050565b600082825260208201905092915050565b60005b8381101561137957808201518184015260208101905061135e565b60008484015250505050565b6000601f19601f8301169050919050565b60006113a18261133f565b6113ab818561134a565b93506113bb81856020860161135b565b6113c481611385565b840191505092915050565b600060208201905081810360008301526113e98184611396565b905092915050565b600073ffffffffffffffffffffffffffffffffffffffff82169050919050565b600061141c826113f1565b9050919050565b61142c81611411565b811461143757600080fd5b50565b60008135905061144981611423565b92915050565b600060208284031215611465576114646112d2565b5b60006114738482850161143a565b91505092915050565b60008115159050919050565b6114918161147c565b82525050565b60006020820190506114ac6000830184611488565b92915050565b6114bb816112dc565b82525050565b60006020820190506114d660008301846114b2565b92915050565b600080fd5b600080fd5b7f4e487b7100000000000000000000000000000000000000000000000000000000600052604160045260246000fd5b61151e82611385565b810181811067ffffffffffffffff8211171561153d5761153c6114e6565b5b80604052505050565b60006115506112c8565b905061155c8282611515565b919050565b600067ffffffffffffffff82111561157c5761157b6114e6565b5b61158582611385565b9050602081019050919050565b82818337600083830152505050565b60006115b46115af84611561565b611546565b9050828152602081018484840111156115d0576115cf6114e1565b5b6115db848285611592565b509392505050565b600082601f8301126115f8576115f76114dc565b5b81356116088482602086016115a1565b91505092915050565b600060208284031215611627576116266112d2565b5b600082013567ffffffffffffffff811115611645576116446112d7565b5b611651848285016115e3565b91505092915050565b6000610140820190508181036000830152611675818d611396565b90508181036020830152611689818c611396565b9050818103604083015261169d818b611396565b905081810360608301526116b1818a611396565b90506116c060808301896114b2565b81810360a08301526116d28188611396565b905081810360c08301526116e68187611396565b905081810360e08301526116fa8186611396565b905061170a610100830185611488565b6117186101208301846114b2565b9b9a5050505050505050505050565b7f4e487b7100000000000000000000000000000000000000000000000000000000600052602260045260246000fd5b6000600282049050600182168061176e57607f821691505b60208210810361178157611780611727565b5b5091905056fea264697066735822122043ed886265dbf32a61b5115bdb961ba271fa491d0dca448920a12e8376eb64ba64736f6c63430008130033",
  "immutableReferences": {},
  "source": "// SPDX-License-Identifier: MIT\npragma solidity ^0.8.0;\n\ncontract CandidateStructure {\n    // Data structure for a candidate\n    struct Candidate {\n        string firstName;\n        string lastName;\n        string collegeName;\n        string programName;\n        uint256 yearOfStudy;\n        string regNo;\n        string blockNumber;\n        string gender;\n        bool isWinner;\n        uint256 voteCount;\n    }\n    uint public totalVotes;\n\n    mapping(string => bool) public isRegistered;\n\n\n    // enum Position = {\"President\", \"Governor\", \"BlockLeader\"};\n    // Position pos = Position.Governor;\n    // enum College = {\"CIVE\", \"COED\", \"CNMS\", \"CHSS\", \"COES\", \"CSBL\", \"MEDICINE\"};\n    // College coll = College.CIVE;\n    // enum State = {}\n\n    //President Registration\n    mapping(string => Candidate) public candidatePresident;\n\n    //Governor Registration\n    mapping(string => Candidate) public candidateGovernor;\n\n    //BlockLeader Registration\n    mapping(string => Candidate) public candidateBlockLeader;\n\n    mapping(address => bool) public presidentVoted;\n    mapping(address => bool) public governorVoted;\n    mapping(address => bool) public blockLeaderVoted;\n\n\n\n    // mapping(string => mapping(string => mapping(string => mapping(string => Candidate)))) public candidateCR;\n\n    string[] public presidentList;\n    string[] public governorList;\n    string[] public blockLeaderList;\n\n    //Number of candidate in a particular position\n    uint256 public numberOfPresident;\n    uint256[7] public numberOfGovernor;\n\n    uint256 public numberOfBlockLeader;\n}\n",
  "sourcePath": "/home/temba/Documents/client/contracts/CandidateStructure.sol",
  "compiler": {
    "name": "solc",
    "version": "0.8.19+commit.7dd6d404.Emscripten.clang"
  },
  "schemaVersion": "3.4.14",
  "updatedAt": "2023-06-22T10:27:14.080Z",
  "networkType": "ethereum",
  "devdoc": {
    "kind": "dev",
    "methods": {},
    "version": 1
  },
  "userdoc": {
    "kind": "user",
    "methods": {},
    "version": 1
  }
}