{
  "contractName": "CandidateContract",
  "abi": [
    {
      "inputs": [],
      "name": "admin",
      "outputs": [
        {
          "internalType": "address",
          "name": "",
          "type": "address"
        }
      ],
      "stateMutability": "view",
      "type": "function"
    },
    {
      "inputs": [],
      "name": "getPublished",
      "outputs": [
        {
          "internalType": "bool",
          "name": "",
          "type": "bool"
        }
      ],
      "stateMutability": "view",
      "type": "function"
    },
    {
      "inputs": [
        {
          "internalType": "string",
          "name": "",
          "type": "string"
        }
      ],
      "name": "isRegistered",
      "outputs": [
        {
          "internalType": "bool",
          "name": "",
          "type": "bool"
        }
      ],
      "stateMutability": "view",
      "type": "function"
    },
    {
      "inputs": [],
      "name": "setPublished",
      "outputs": [],
      "stateMutability": "nonpayable",
      "type": "function"
    },
    {
      "inputs": [],
      "name": "totalVotes",
      "outputs": [
        {
          "internalType": "uint256",
          "name": "",
          "type": "uint256"
        }
      ],
      "stateMutability": "view",
      "type": "function"
    },
    {
      "inputs": [
        {
          "internalType": "address",
          "name": "newAdmin",
          "type": "address"
        }
      ],
      "name": "transferAdmin",
      "outputs": [],
      "stateMutability": "nonpayable",
      "type": "function"
    }
  ],
  "bytecode": "0x608060405234801561001057600080fd5b50336000806101000a81548173ffffffffffffffffffffffffffffffffffffffff021916908373ffffffffffffffffffffffffffffffffffffffff160217905550610760806100606000396000f3fe608060405234801561001057600080fd5b50600436106100625760003560e01c80630d15fd771461006757806375829def1461008557806397b0565e146100a1578063c822d7f0146100ab578063e19ca0d3146100db578063f851a440146100f9575b600080fd5b61006f610117565b60405161007c9190610372565b60405180910390f35b61009f600480360381019061009a91906103ff565b61011d565b005b6100a96101ee565b005b6100c560048036038101906100c09190610572565b6102e9565b6040516100d291906105d6565b60405180910390f35b6100e361031f565b6040516100f091906105d6565b60405180910390f35b610101610335565b60405161010e9190610600565b60405180910390f35b60015481565b60008054906101000a900473ffffffffffffffffffffffffffffffffffffffff1673ffffffffffffffffffffffffffffffffffffffff163373ffffffffffffffffffffffffffffffffffffffff16146101ab576040517f08c379a00000000000000000000000000000000000000000000000000000000081526004016101a29061069e565b60405180910390fd5b806000806101000a81548173ffffffffffffffffffffffffffffffffffffffff021916908373ffffffffffffffffffffffffffffffffffffffff16021790555050565b60008054906101000a900473ffffffffffffffffffffffffffffffffffffffff1673ffffffffffffffffffffffffffffffffffffffff163373ffffffffffffffffffffffffffffffffffffffff161461027c576040517f08c379a00000000000000000000000000000000000000000000000000000000081526004016102739061069e565b60405180910390fd5b600060149054906101000a900460ff16156102cc576040517f08c379a00000000000000000000000000000000000000000000000000000000081526004016102c39061070a565b60405180910390fd5b6001600060146101000a81548160ff021916908315150217905550565b6002818051602081018201805184825260208301602085012081835280955050505050506000915054906101000a900460ff1681565b60008060149054906101000a900460ff16905090565b60008054906101000a900473ffffffffffffffffffffffffffffffffffffffff1681565b6000819050919050565b61036c81610359565b82525050565b60006020820190506103876000830184610363565b92915050565b6000604051905090565b600080fd5b600080fd5b600073ffffffffffffffffffffffffffffffffffffffff82169050919050565b60006103cc826103a1565b9050919050565b6103dc816103c1565b81146103e757600080fd5b50565b6000813590506103f9816103d3565b92915050565b60006020828403121561041557610414610397565b5b6000610423848285016103ea565b91505092915050565b600080fd5b600080fd5b6000601f19601f8301169050919050565b7f4e487b7100000000000000000000000000000000000000000000000000000000600052604160045260246000fd5b61047f82610436565b810181811067ffffffffffffffff8211171561049e5761049d610447565b5b80604052505050565b60006104b161038d565b90506104bd8282610476565b919050565b600067ffffffffffffffff8211156104dd576104dc610447565b5b6104e682610436565b9050602081019050919050565b82818337600083830152505050565b6000610515610510846104c2565b6104a7565b90508281526020810184848401111561053157610530610431565b5b61053c8482856104f3565b509392505050565b600082601f8301126105595761055861042c565b5b8135610569848260208601610502565b91505092915050565b60006020828403121561058857610587610397565b5b600082013567ffffffffffffffff8111156105a6576105a561039c565b5b6105b284828501610544565b91505092915050565b60008115159050919050565b6105d0816105bb565b82525050565b60006020820190506105eb60008301846105c7565b92915050565b6105fa816103c1565b82525050565b600060208201905061061560008301846105f1565b92915050565b600082825260208201905092915050565b7f4f6e6c792061646d696e2063616e20706572666f726d2074686973206163746960008201527f6f6e000000000000000000000000000000000000000000000000000000000000602082015250565b600061068860228361061b565b91506106938261062c565b604082019050919050565b600060208201905081810360008301526106b78161067b565b9050919050565b7f526573756c7420697320616c7265616479207075626c69736865642100000000600082015250565b60006106f4601c8361061b565b91506106ff826106be565b602082019050919050565b60006020820190508181036000830152610723816106e7565b905091905056fea26469706673582212200d84ea06d89a943fb6dd59f638d96e9ee0f57efdcf68269b6b63c7177c7cc28464736f6c63430008130033",
  "immutableReferences": {},
  "source": "// SPDX-License-Identifier: MIT\npragma solidity ^0.8.0;\nimport \"./VoterContract.sol\";\nimport \"./AccessControl.sol\";\nimport \"./TimeControl.sol\";\nimport \"./CandidateStructure.sol\";\n\ncontract CandidateContract is AccessControl, CandidateStructure {\n\n    // //President Registration\n    // mapping(string => Candidate) public candidatePresident;\n\n    // //Governor Registration\n    // mapping(string => Candidate) public candidateGovernor;\n\n    // //BlockLeader Registration\n    // mapping(string => Candidate) public candidateBlockLeader;\n\n    // mapping(address => bool) public presidentVoted;\n    // mapping(address => bool) public governorVoted;\n    // mapping(address => bool) public blockLeaderVoted;\n\n    // string[] public presidentList;\n    // string[] public governorList;\n    // string[] public blockLeaderList;\n\n    // //Number of candidate in a particular position\n    // uint256 public numberOfPresident;\n    // uint256 public numberOfGovernor;\n    // uint256 public numberOfBlockLeader;\n\n    // // function getGovernorList() public view returns (string memory)\n    // // {\n    // //     return governorList;\n    // // }\n\n    // function setPublished() public onlyAdmin{\n    //     isPublished = true;\n    // }\n\n    // function getPublished() public view returns(bool){\n    //     return isPublished;\n    // }\n\n\n    // event NewPresidentRegistered(string firstName, string lastName, string collegeName, string programName, uint256 yearOfStudy, string regNo, string blockNumber, string gender);\n    // event NewGovernorRegistered(string firstName, string lastName, string collegeName, string programName, uint256 yearOfStudy, string regNo, string blockNumber, string gender);\n    // event NewBlockLeaderRegistered(string firstName, string lastName, string collegeName, string programName, uint256 yearOfStudy, string regNo, string blockNumber, string gender);\n\n    // function registerPresident(string memory _firstName, string memory _lastName, string memory _collegeName,string memory _programName, uint256 _yearOfStudy, string memory _regNo, string memory _blockNumber, address _timeControlContractAddress) public onlyAdmin{\n    //     TimeControl tC = TimeControl(_timeControlContractAddress);\n    //     require(!tC.isInitiate(), \"Voting process already started\");\n    //     require(!isRegistered[_regNo], \"candidate is already registered!\");\n    //     require(numberOfPresident < 2, \"The registered president is enough!\");\n    //     Candidate memory newCandidate = Candidate({\n    //         firstName: _firstName,\n    //         lastName: _lastName,       \n    //         collegeName: _collegeName,\n    //         programName: _programName,\n    //         yearOfStudy: _yearOfStudy, \n    //         regNo: _regNo, \n    //         blockNumber: _blockNumber,\n    //         position: \"PRESIDENT\", \n    //         isWinner: false, \n            \n    //         voteCount: 0\n    //     });\n    //     isRegistered[_regNo]= true;\n    //     candidatePresident[_regNo] = newCandidate;\n    //     presidentList.push(_regNo);\n    //     numberOfPresident++;\n\n    //     // emit NewPresidentRegistered(_firstName, _collegeName, _programName, _yearOfStudy, _regNo, _blockNumber, _gender);\n    // }\n\n    // function registerGovernor(string memory _firstName, string memory _lastName, string memory _collegeName,string memory _programName, uint256 _yearOfStudy, string memory _regNo, string memory _blockNumber, address _timeControlContractAddress) public onlyAdmin{\n    //     TimeControl tC = TimeControl(_timeControlContractAddress);\n    //     require(!tC.isInitiate(), \"Voting process already started\");\n    //     // require(!candidateGovernor[_regNo].isRegistered, \"You have already registered this Governor.\");\n    //     require(!isRegistered[_regNo], \"candidate is already registered!\");\n    //     require(_yearOfStudy > 0 && _yearOfStudy < 5, \"Invalid year of Study\");\n    //     Candidate memory newCandidate = Candidate({firstName: _firstName, lastName: _lastName, collegeName: _collegeName,programName: _programName, yearOfStudy: _yearOfStudy, \n    //     regNo: _regNo, blockNumber: _blockNumber, position: \"GOVERNOR\", isWinner: false, voteCount: 0\n    //     });\n    //     isRegistered[_regNo]= true;\n    //     candidateGovernor[_regNo] = newCandidate;\n    //     // candidateGovernorCnms[_regNo] = newCandidate;\n    //     governorList.push(_regNo);\n    //     numberOfGovernor++;\n        \n\n    //     // emit NewGovernorRegistered(_firstName, _collegeName, _programName, _yearOfStudy, _regNo, _blockNumber, _gender);      \n    // }\n\n    // function registerBlockLeader(string memory _firstName, string memory _lastName, string memory _collegeName,string memory _programName, uint256 _yearOfStudy, string memory _regNo, string memory _blockNumber, address _timeControlContractAddress) public onlyAdmin{\n    //     TimeControl tC = TimeControl(_timeControlContractAddress);\n    //     require(!tC.isInitiate(), \"Voting process already started\");    \n    //     // require(!candidateBlockLeader[_regNo].isRegistered, \"You have already registered this blockLeader.\");\n    //     // require(numberOfPresident < 2, \"The registered BlockLeader is enough!\");\n    //     require(!isRegistered[_regNo], \"candidate is already registered!\");\n    //     Candidate memory newCandidate = Candidate({\n    //         firstName: _firstName,\n    //         lastName: _lastName,       \n    //         collegeName: _collegeName,\n    //         programName: _programName,\n    //         yearOfStudy: _yearOfStudy, \n    //         regNo: _regNo, \n    //         blockNumber: _blockNumber,\n    //         position: \"BLOCK LEADER\", \n    //         isWinner: false, \n    //         voteCount: 0\n    //     });\n    //     isRegistered[_regNo] = true;\n    //     candidateBlockLeader[_regNo] = newCandidate;\n    //     blockLeaderList.push(_regNo);\n\n    //     // emit NewBlockLeaderRegistered(_firstName, _collegeName, _programName, _yearOfStudy, _regNo, _blockNumber, _gender);\n    // }\n\n    \n\n    // //return the registration number for the candidates for each position\n    // function getPresidentRegNumber() public view returns (string[] memory){\n    //     return presidentList;\n    // }\n\n\n    // //Admin view candidates for a specific position of vote\n\n    // function viewPresident(string memory _regNo) public view returns(string memory firstName,string memory lastName, \n    //     string memory collegeName, string memory programName, uint256 yearOfStudy, string memory regNo, string memory blockNumber, string memory position,uint256 voteCount){\n    //     Candidate memory candidatePres = candidatePresident[_regNo];\n    //     firstName = candidatePres.firstName;\n    //     lastName = candidatePres.lastName;\n    //     collegeName = candidatePres.collegeName;\n    //     programName = candidatePres.programName;\n    //     yearOfStudy = candidatePres.yearOfStudy;\n    //     regNo = candidatePres.regNo;\n    //     blockNumber = candidatePres.blockNumber;\n    //     position = candidatePres.position;\n    //     voteCount = candidatePres.voteCount;\n    // }\n\n    // //return the registration number for the candidates for each position\n\n    // function getGovernorRegNumber() public view returns (string[] memory){\n    //     return governorList;\n    // }\n    \n    // function adminViewGovernors(string memory _regNo) public view returns(string memory firstName,string memory lastName, \n    //     string memory collegeName, string memory programName, uint256 yearOfStudy, string memory regNo, string memory blockNumber, string memory position,uint256 voteCount){\n    //     Candidate memory candidateGov = candidateGovernor[_regNo];\n    //     firstName = candidateGov.firstName;\n    //     lastName = candidateGov.lastName;\n    //     collegeName = candidateGov.collegeName;\n    //     programName = candidateGov.programName;\n    //     yearOfStudy = candidateGov.yearOfStudy;\n    //     regNo = candidateGov.regNo;\n    //     blockNumber = candidateGov.blockNumber;\n    //     position = candidateGov.position;\n    //     voteCount = candidateGov.voteCount;\n    // }\n\n    // function getBlockLeaderRegNumber() public view returns (string[] memory){\n    //     return blockLeaderList;\n    // }\n\n    // //Admin view candidates for a specific position of vote\n\n    // function adminViewBlockLeaders(string memory _regNo) public view returns(string memory firstName,string memory lastName, \n    //     string memory collegeName, string memory programName, uint256 yearOfStudy, string memory regNo, string memory blockNumber, string memory position,uint256 voteCount){\n    //     Candidate memory candidateBL = candidateBlockLeader[_regNo];\n    //     firstName = candidateBL.firstName;\n    //     lastName = candidateBL.lastName;\n    //     collegeName = candidateBL.collegeName;\n    //     programName = candidateBL.programName;\n    //     yearOfStudy = candidateBL.yearOfStudy;\n    //     regNo = candidateBL.regNo;\n    //     blockNumber = candidateBL.blockNumber;\n    //     position = candidateBL.position;\n    //     voteCount = candidateBL.voteCount;\n    // }\n\n    // function castVotePresident( string memory _presidentRegNo, address _voterContractAddress) public {\n    //     VoterContract vc = VoterContract(_voterContractAddress);\n    //     require(vc.getVoter(msg.sender).isRegistered, \"Voter is not registered\");\n    //     // require(!voters[msg.sender].voted, \"You have already voted for President!!!\");\n    //     require(isRegistered[_presidentRegNo], \"Invalid candidate\");\n    //     require(!presidentVoted[msg.sender], \"Already voted for President position\");\n    //     presidentVoted[msg.sender] = true;\n\n    //     Candidate storage candidate = candidatePresident[_presidentRegNo];\n    //     candidate.voteCount++;\n    //     totalVotes++;\n\n    //     // emit VoteCast(candidate.voteCount, candidate.regNo);\n    // }\n    // function castVoteGovernor( string memory _governorRegNo, address _voterContractAddress ) public {\n    //     VoterContract vc = VoterContract(_voterContractAddress);\n    //     require(vc.getVoter(msg.sender).isRegistered, \"Voter is not registered\");\n    //     require(isRegistered[_governorRegNo], \"Invalid candidate\");\n    //     // require(keccak256(bytes(vc.getVoter(msg.sender).collegeName)) == keccak256(bytes(candidateGovernor[_governorRegNo].collegeName)), \"Your Not valid voter\");    \n    //     require(!governorVoted[msg.sender], \"You have already voted for Governor!!!\");\n    //     governorVoted[msg.sender] = true; \n        \n    //     Candidate storage candidate = candidateGovernor[_governorRegNo];\n    //     candidate.voteCount++;\n    //     totalVotes++;\n\n    //     // emit VoteCast(candidate.voteCount, candidate.regNo);\n    // }\n\n    // function castVoteBlockLeader( string memory _blockLeaderRegNo, address _voterContractAddress ) public {\n    //     VoterContract vc = VoterContract(_voterContractAddress);\n    //     require(vc.getVoter(msg.sender).isRegistered, \"Voter is not registered\");    \n    //     require(isRegistered[_blockLeaderRegNo], \"Invalid candidate\");\n    //     // require(keccak256(bytes(vc.getVoter(msg.sender).collegeName)) == keccak256(bytes(candidateBlockLeader[_blockLeaderRegNo].collegeName)), \"Your Not member of a valid college\");    \n    //     // require(keccak256(bytes(vc.getVoter(msg.sender).blockNumber)) == keccak256(bytes(candidateBlockLeader[_blockLeaderRegNo].blockNumber)), \"Your Not member of a valid block\");  \n    //     require(!blockLeaderVoted[msg.sender], \"Already cast vote for BlockLeader position\");\n    //     blockLeaderVoted[msg.sender] = true;\n        \n    //     Candidate storage candidate = candidateBlockLeader[_blockLeaderRegNo];\n    //     candidate.voteCount++;\n    //     totalVotes++;\n\n    //     // emit VoteCast(candidate.voteCount, candidate.regNo);\n    // }\n\n    // function getWinnerPresident() public view returns ( string memory, string memory, string memory, string memory, uint256 ){\n    //     uint256 winningPresidentVoteCount = 0;\n    //     uint256 winningPresidentIndex = 0;\n    //     for (uint256 i = 0; i < presidentList.length; i++) {\n    //         if (candidatePresident[presidentList[i]].voteCount > winningPresidentVoteCount) {\n    //             winningPresidentVoteCount = candidatePresident[presidentList[i]].voteCount;\n    //             winningPresidentIndex = i;\n    //         }\n    //     }\n    //     Candidate memory winner = candidatePresident[presidentList[winningPresidentIndex]];\n    //     // emit getTheWinner(winner.firstName, winner.regNo, winner.collegeName, winner.programName, winner.voteCount);\n    //     return (winner.firstName, winner.lastName, winner.collegeName, winner.position, winner.voteCount);\n    // }\n\n    // function getWinnerGovernor() public view returns (string memory, string memory, string memory, string memory, uint256){  \n    //     uint256 winningGovernorVoteCount = 0;\n    //     uint256 winningGovernorIndex = 0;    \n    //     for (uint256 i = 0; i < governorList.length; i++) {\n    //         if (candidateGovernor[governorList[i]].voteCount > winningGovernorVoteCount) {\n    //             winningGovernorVoteCount = candidateGovernor[governorList[i]].voteCount;\n    //             winningGovernorIndex = i;\n    //         }\n    //     }\n    //     Candidate memory winner = candidateGovernor[governorList[winningGovernorIndex]];\n    //     // emit getTheWinner(winner.firstName, winner.regNo, winner.collegeName, winner.programName, winner.voteCount);\n    //     return (winner.firstName, winner.lastName, winner.collegeName, winner.position, winner.voteCount);\n    // }\n\n    // function getWinnerBlockLeader() public view returns (string memory, string memory, string memory, string memory, uint256){  \n    //     uint256 winningBlockLeaderVoteCount = 0;\n    //     uint256 winningBlockLeaderIndex = 0;    \n    //     for (uint256 i = 0; i < blockLeaderList.length; i++) {\n    //         if (candidateBlockLeader[blockLeaderList[i]].voteCount > winningBlockLeaderVoteCount) {\n    //             winningBlockLeaderVoteCount = candidateBlockLeader[blockLeaderList[i]].voteCount;\n    //             winningBlockLeaderIndex = i;\n    //         }\n    //     }\n    //     Candidate memory winner = candidateBlockLeader[blockLeaderList[winningBlockLeaderIndex]];\n    //     // emit getTheWinner(winner.firstName, winner.lastName, winner.collegeName, winner.programName, winner.voteCount);\n    //     return (winner.firstName, winner.lastName, winner.collegeName, winner.position, winner.voteCount);\n    // }\n}",
  "sourcePath": "/home/temba/Documents/client/contracts/CandidateContract.sol",
  "compiler": {
    "name": "solc",
    "version": "0.8.19+commit.7dd6d404.Emscripten.clang"
  },
  "schemaVersion": "3.4.14",
  "updatedAt": "2023-06-27T07:27:19.649Z",
  "devdoc": {
    "kind": "dev",
    "methods": {},
    "version": 1
  },
  "userdoc": {
    "kind": "user",
    "methods": {},
    "version": 1
  }
}