{
  "contractName": "CandidatePresident",
  "abi": [
    {
      "anonymous": false,
      "inputs": [
        {
          "indexed": false,
          "internalType": "string",
          "name": "firstName",
          "type": "string"
        },
        {
          "indexed": false,
          "internalType": "string",
          "name": "lastName",
          "type": "string"
        },
        {
          "indexed": false,
          "internalType": "string",
          "name": "collegeName",
          "type": "string"
        },
        {
          "indexed": false,
          "internalType": "string",
          "name": "programName",
          "type": "string"
        },
        {
          "indexed": false,
          "internalType": "uint256",
          "name": "yearOfStudy",
          "type": "uint256"
        },
        {
          "indexed": false,
          "internalType": "string",
          "name": "regNo",
          "type": "string"
        },
        {
          "indexed": false,
          "internalType": "string",
          "name": "blockNumber",
          "type": "string"
        },
        {
          "indexed": false,
          "internalType": "string",
          "name": "gender",
          "type": "string"
        }
      ],
      "name": "NewPresidentRegistered",
      "type": "event"
    },
    {
      "inputs": [],
      "name": "admin",
      "outputs": [
        {
          "internalType": "address",
          "name": "",
          "type": "address"
        }
      ],
      "stateMutability": "view",
      "type": "function",
      "constant": true
    },
    {
      "inputs": [
        {
          "internalType": "string",
          "name": "",
          "type": "string"
        }
      ],
      "name": "candidatePresident",
      "outputs": [
        {
          "internalType": "string",
          "name": "firstName",
          "type": "string"
        },
        {
          "internalType": "string",
          "name": "lastName",
          "type": "string"
        },
        {
          "internalType": "string",
          "name": "collegeName",
          "type": "string"
        },
        {
          "internalType": "string",
          "name": "programName",
          "type": "string"
        },
        {
          "internalType": "uint256",
          "name": "yearOfStudy",
          "type": "uint256"
        },
        {
          "internalType": "string",
          "name": "regNo",
          "type": "string"
        },
        {
          "internalType": "string",
          "name": "blockNumber",
          "type": "string"
        },
        {
          "internalType": "string",
          "name": "position",
          "type": "string"
        },
        {
          "internalType": "bool",
          "name": "isWinner",
          "type": "bool"
        },
        {
          "internalType": "uint256",
          "name": "voteCount",
          "type": "uint256"
        }
      ],
      "stateMutability": "view",
      "type": "function",
      "constant": true
    },
    {
      "inputs": [],
      "name": "getPublished",
      "outputs": [
        {
          "internalType": "bool",
          "name": "",
          "type": "bool"
        }
      ],
      "stateMutability": "view",
      "type": "function",
      "constant": true
    },
    {
      "inputs": [
        {
          "internalType": "string",
          "name": "",
          "type": "string"
        }
      ],
      "name": "isRegistered",
      "outputs": [
        {
          "internalType": "bool",
          "name": "",
          "type": "bool"
        }
      ],
      "stateMutability": "view",
      "type": "function",
      "constant": true
    },
    {
      "inputs": [],
      "name": "numberOfPresident",
      "outputs": [
        {
          "internalType": "uint256",
          "name": "",
          "type": "uint256"
        }
      ],
      "stateMutability": "view",
      "type": "function",
      "constant": true
    },
    {
      "inputs": [
        {
          "internalType": "uint256",
          "name": "",
          "type": "uint256"
        }
      ],
      "name": "presidentList",
      "outputs": [
        {
          "internalType": "string",
          "name": "",
          "type": "string"
        }
      ],
      "stateMutability": "view",
      "type": "function",
      "constant": true
    },
    {
      "inputs": [
        {
          "internalType": "address",
          "name": "",
          "type": "address"
        }
      ],
      "name": "presidentVoted",
      "outputs": [
        {
          "internalType": "bool",
          "name": "",
          "type": "bool"
        }
      ],
      "stateMutability": "view",
      "type": "function",
      "constant": true
    },
    {
      "inputs": [],
      "name": "setPublished",
      "outputs": [],
      "stateMutability": "nonpayable",
      "type": "function"
    },
    {
      "inputs": [],
      "name": "totalVotes",
      "outputs": [
        {
          "internalType": "uint256",
          "name": "",
          "type": "uint256"
        }
      ],
      "stateMutability": "view",
      "type": "function",
      "constant": true
    },
    {
      "inputs": [
        {
          "internalType": "address",
          "name": "newAdmin",
          "type": "address"
        }
      ],
      "name": "transferAdmin",
      "outputs": [],
      "stateMutability": "nonpayable",
      "type": "function"
    },
    {
      "inputs": [
        {
          "internalType": "string",
          "name": "_firstName",
          "type": "string"
        },
        {
          "internalType": "string",
          "name": "_lastName",
          "type": "string"
        },
        {
          "internalType": "string",
          "name": "_collegeName",
          "type": "string"
        },
        {
          "internalType": "string",
          "name": "_programName",
          "type": "string"
        },
        {
          "internalType": "uint256",
          "name": "_yearOfStudy",
          "type": "uint256"
        },
        {
          "internalType": "string",
          "name": "_regNo",
          "type": "string"
        },
        {
          "internalType": "string",
          "name": "_blockNumber",
          "type": "string"
        },
        {
          "internalType": "address",
          "name": "_timeControlContractAddress",
          "type": "address"
        }
      ],
      "name": "registerPresident",
      "outputs": [],
      "stateMutability": "nonpayable",
      "type": "function"
    },
    {
      "inputs": [],
      "name": "getPresidentRegNumber",
      "outputs": [
        {
          "internalType": "string[]",
          "name": "",
          "type": "string[]"
        }
      ],
      "stateMutability": "view",
      "type": "function",
      "constant": true
    },
    {
      "inputs": [
        {
          "internalType": "string",
          "name": "_regNo",
          "type": "string"
        }
      ],
      "name": "viewPresident",
      "outputs": [
        {
          "internalType": "string",
          "name": "firstName",
          "type": "string"
        },
        {
          "internalType": "string",
          "name": "lastName",
          "type": "string"
        },
        {
          "internalType": "string",
          "name": "collegeName",
          "type": "string"
        },
        {
          "internalType": "string",
          "name": "programName",
          "type": "string"
        },
        {
          "internalType": "uint256",
          "name": "yearOfStudy",
          "type": "uint256"
        },
        {
          "internalType": "string",
          "name": "regNo",
          "type": "string"
        },
        {
          "internalType": "string",
          "name": "blockNumber",
          "type": "string"
        },
        {
          "internalType": "string",
          "name": "position",
          "type": "string"
        },
        {
          "internalType": "uint256",
          "name": "voteCount",
          "type": "uint256"
        }
      ],
      "stateMutability": "view",
      "type": "function",
      "constant": true
    },
    {
      "inputs": [
        {
          "internalType": "string",
          "name": "_presidentRegNo",
          "type": "string"
        },
        {
          "internalType": "address",
          "name": "_voterContractAddress",
          "type": "address"
        },
        {
          "internalType": "address",
          "name": "_timeControlContractAddress",
          "type": "address"
        }
      ],
      "name": "castVotePresident",
      "outputs": [],
      "stateMutability": "nonpayable",
      "type": "function"
    },
    {
      "inputs": [],
      "name": "getWinnerPresident",
      "outputs": [
        {
          "internalType": "string",
          "name": "",
          "type": "string"
        },
        {
          "internalType": "string",
          "name": "",
          "type": "string"
        },
        {
          "internalType": "string",
          "name": "",
          "type": "string"
        },
        {
          "internalType": "string",
          "name": "",
          "type": "string"
        },
        {
          "internalType": "uint256",
          "name": "",
          "type": "uint256"
        }
      ],
      "stateMutability": "view",
      "type": "function",
      "constant": true
    }
  ],
  "bytecode": "0x608060405234801561001057600080fd5b50336000806101000a81548173ffffffffffffffffffffffffffffffffffffffff021916908373ffffffffffffffffffffffffffffffffffffffff16021790555061316a806100606000396000f3fe608060405234801561001057600080fd5b50600436106100f55760003560e01c8063b086471711610097578063e19ca0d311610066578063e19ca0d314610289578063e316db4e146102a7578063ec057e55146102d7578063f851a440146102f3576100f5565b8063b0864717146101fd578063c822d7f014610219578063daa4348f14610249578063dccea1891461026b576100f5565b80635f8b9972116100d35780635f8b99721461016f57806375829def1461019f578063788cbe84146101bb57806397b0565e146101f3576100f5565b80630d15fd77146100fa578063166b4722146101185780634b20c24314610151575b600080fd5b610102610311565b60405161010f9190611c7f565b60405180910390f35b610132600480360381019061012d9190611df4565b610317565b6040516101489a99989796959493929190611ed7565b60405180910390f35b610159610746565b60405161016691906120b0565b60405180910390f35b61018960048036038101906101849190612130565b61081f565b604051610196919061215d565b60405180910390f35b6101b960048036038101906101b49190612130565b61083f565b005b6101d560048036038101906101d09190611df4565b610910565b6040516101ea99989796959493929190612178565b60405180910390f35b6101fb610dc7565b005b61021760048036038101906102129190612236565b610ec2565b005b610233600480360381019061022e9190611df4565b6111e9565b604051610240919061215d565b60405180910390f35b61025161121f565b6040516102629594939291906122a5565b60405180910390f35b610273611782565b6040516102809190611c7f565b60405180910390f35b610291611788565b60405161029e919061215d565b60405180910390f35b6102c160048036038101906102bc9190612340565b61179e565b6040516102ce919061236d565b60405180910390f35b6102f160048036038101906102ec919061238f565b61184a565b005b6102fb611c42565b60405161030891906124fc565b60405180910390f35b60015481565b60038180516020810182018051848252602083016020850120818352809550505050505060009150905080600001805461035090612546565b80601f016020809104026020016040519081016040528092919081815260200182805461037c90612546565b80156103c95780601f1061039e576101008083540402835291602001916103c9565b820191906000526020600020905b8154815290600101906020018083116103ac57829003601f168201915b5050505050908060010180546103de90612546565b80601f016020809104026020016040519081016040528092919081815260200182805461040a90612546565b80156104575780601f1061042c57610100808354040283529160200191610457565b820191906000526020600020905b81548152906001019060200180831161043a57829003601f168201915b50505050509080600201805461046c90612546565b80601f016020809104026020016040519081016040528092919081815260200182805461049890612546565b80156104e55780601f106104ba576101008083540402835291602001916104e5565b820191906000526020600020905b8154815290600101906020018083116104c857829003601f168201915b5050505050908060030180546104fa90612546565b80601f016020809104026020016040519081016040528092919081815260200182805461052690612546565b80156105735780601f1061054857610100808354040283529160200191610573565b820191906000526020600020905b81548152906001019060200180831161055657829003601f168201915b50505050509080600401549080600501805461058e90612546565b80601f01602080910402602001604051908101604052809291908181526020018280546105ba90612546565b80156106075780601f106105dc57610100808354040283529160200191610607565b820191906000526020600020905b8154815290600101906020018083116105ea57829003601f168201915b50505050509080600601805461061c90612546565b80601f016020809104026020016040519081016040528092919081815260200182805461064890612546565b80156106955780601f1061066a57610100808354040283529160200191610695565b820191906000526020600020905b81548152906001019060200180831161067857829003601f168201915b5050505050908060070180546106aa90612546565b80601f01602080910402602001604051908101604052809291908181526020018280546106d690612546565b80156107235780601f106106f857610100808354040283529160200191610723565b820191906000526020600020905b81548152906001019060200180831161070657829003601f168201915b5050505050908060080160009054906101000a900460ff1690806009015490508a565b60606005805480602002602001604051908101604052809291908181526020016000905b8282101561081657838290600052602060002001805461078990612546565b80601f01602080910402602001604051908101604052809291908181526020018280546107b590612546565b80156108025780601f106107d757610100808354040283529160200191610802565b820191906000526020600020905b8154815290600101906020018083116107e557829003601f168201915b50505050508152602001906001019061076a565b50505050905090565b60046020528060005260406000206000915054906101000a900460ff1681565b60008054906101000a900473ffffffffffffffffffffffffffffffffffffffff1673ffffffffffffffffffffffffffffffffffffffff163373ffffffffffffffffffffffffffffffffffffffff16146108cd576040517f08c379a00000000000000000000000000000000000000000000000000000000081526004016108c4906125e9565b60405180910390fd5b806000806101000a81548173ffffffffffffffffffffffffffffffffffffffff021916908373ffffffffffffffffffffffffffffffffffffffff16021790555050565b6060806060806000606080606060008060038b6040516109309190612645565b90815260200160405180910390206040518061014001604052908160008201805461095a90612546565b80601f016020809104026020016040519081016040528092919081815260200182805461098690612546565b80156109d35780601f106109a8576101008083540402835291602001916109d3565b820191906000526020600020905b8154815290600101906020018083116109b657829003601f168201915b505050505081526020016001820180546109ec90612546565b80601f0160208091040260200160405190810160405280929190818152602001828054610a1890612546565b8015610a655780601f10610a3a57610100808354040283529160200191610a65565b820191906000526020600020905b815481529060010190602001808311610a4857829003601f168201915b50505050508152602001600282018054610a7e90612546565b80601f0160208091040260200160405190810160405280929190818152602001828054610aaa90612546565b8015610af75780601f10610acc57610100808354040283529160200191610af7565b820191906000526020600020905b815481529060010190602001808311610ada57829003601f168201915b50505050508152602001600382018054610b1090612546565b80601f0160208091040260200160405190810160405280929190818152602001828054610b3c90612546565b8015610b895780601f10610b5e57610100808354040283529160200191610b89565b820191906000526020600020905b815481529060010190602001808311610b6c57829003601f168201915b5050505050815260200160048201548152602001600582018054610bac90612546565b80601f0160208091040260200160405190810160405280929190818152602001828054610bd890612546565b8015610c255780601f10610bfa57610100808354040283529160200191610c25565b820191906000526020600020905b815481529060010190602001808311610c0857829003601f168201915b50505050508152602001600682018054610c3e90612546565b80601f0160208091040260200160405190810160405280929190818152602001828054610c6a90612546565b8015610cb75780601f10610c8c57610100808354040283529160200191610cb7565b820191906000526020600020905b815481529060010190602001808311610c9a57829003601f168201915b50505050508152602001600782018054610cd090612546565b80601f0160208091040260200160405190810160405280929190818152602001828054610cfc90612546565b8015610d495780601f10610d1e57610100808354040283529160200191610d49565b820191906000526020600020905b815481529060010190602001808311610d2c57829003601f168201915b505050505081526020016008820160009054906101000a900460ff16151515158152602001600982015481525050905080600001519950806020015198508060400151975080606001519650806080015195508060a0015194508060c0015193508060e0015192508061012001519150509193959799909294969850565b60008054906101000a900473ffffffffffffffffffffffffffffffffffffffff1673ffffffffffffffffffffffffffffffffffffffff163373ffffffffffffffffffffffffffffffffffffffff1614610e55576040517f08c379a0000000000000000000000000000000000000000000000000000000008152600401610e4c906125e9565b60405180910390fd5b600060149054906101000a900460ff1615610ea5576040517f08c379a0000000000000000000000000000000000000000000000000000000008152600401610e9c906126a8565b60405180910390fd5b6001600060146101000a81548160ff021916908315150217905550565b600082905060008290508073ffffffffffffffffffffffffffffffffffffffff16637776e62f6040518163ffffffff1660e01b8152600401602060405180830381865afa158015610f17573d6000803e3d6000fd5b505050506040513d601f19601f82011682018060405250810190610f3b91906126f4565b610f7a576040517f08c379a0000000000000000000000000000000000000000000000000000000008152600401610f7190612793565b60405180910390fd5b8173ffffffffffffffffffffffffffffffffffffffff1663d4f50f98336040518263ffffffff1660e01b8152600401610fb391906124fc565b600060405180830381865afa158015610fd0573d6000803e3d6000fd5b505050506040513d6000823e3d601f19601f82011682018060405250810190610ff99190612a59565b610140015161103d576040517f08c379a000000000000000000000000000000000000000000000000000000000815260040161103490612aee565b60405180910390fd5b60028560405161104d9190612645565b908152602001604051809103902060009054906101000a900460ff166110a8576040517f08c379a000000000000000000000000000000000000000000000000000000000815260040161109f90612b5a565b60405180910390fd5b600460003373ffffffffffffffffffffffffffffffffffffffff1673ffffffffffffffffffffffffffffffffffffffff16815260200190815260200160002060009054906101000a900460ff1615611135576040517f08c379a000000000000000000000000000000000000000000000000000000000815260040161112c90612bec565b60405180910390fd5b6001600460003373ffffffffffffffffffffffffffffffffffffffff1673ffffffffffffffffffffffffffffffffffffffff16815260200190815260200160002060006101000a81548160ff021916908315150217905550600060038660405161119f9190612645565b908152602001604051809103902090508060090160008154809291906111c490612c3b565b9190505550600160008154809291906111dc90612c3b565b9190505550505050505050565b6002818051602081018201805184825260208301602085012081835280955050505050506000915054906101000a900460ff1681565b606080606080600080600090506000805b6005805490508110156112db578260036005838154811061125457611253612c83565b5b9060005260206000200160405161126b9190612d4a565b90815260200160405180910390206009015411156112c85760036005828154811061129957611298612c83565b5b906000526020600020016040516112b09190612d4a565b90815260200160405180910390206009015492508091505b80806112d390612c3b565b915050611230565b5060006003600583815481106112f4576112f3612c83565b5b9060005260206000200160405161130b9190612d4a565b90815260200160405180910390206040518061014001604052908160008201805461133590612546565b80601f016020809104026020016040519081016040528092919081815260200182805461136190612546565b80156113ae5780601f10611383576101008083540402835291602001916113ae565b820191906000526020600020905b81548152906001019060200180831161139157829003601f168201915b505050505081526020016001820180546113c790612546565b80601f01602080910402602001604051908101604052809291908181526020018280546113f390612546565b80156114405780601f1061141557610100808354040283529160200191611440565b820191906000526020600020905b81548152906001019060200180831161142357829003601f168201915b5050505050815260200160028201805461145990612546565b80601f016020809104026020016040519081016040528092919081815260200182805461148590612546565b80156114d25780601f106114a7576101008083540402835291602001916114d2565b820191906000526020600020905b8154815290600101906020018083116114b557829003601f168201915b505050505081526020016003820180546114eb90612546565b80601f016020809104026020016040519081016040528092919081815260200182805461151790612546565b80156115645780601f1061153957610100808354040283529160200191611564565b820191906000526020600020905b81548152906001019060200180831161154757829003601f168201915b505050505081526020016004820154815260200160058201805461158790612546565b80601f01602080910402602001604051908101604052809291908181526020018280546115b390612546565b80156116005780601f106115d557610100808354040283529160200191611600565b820191906000526020600020905b8154815290600101906020018083116115e357829003601f168201915b5050505050815260200160068201805461161990612546565b80601f016020809104026020016040519081016040528092919081815260200182805461164590612546565b80156116925780601f1061166757610100808354040283529160200191611692565b820191906000526020600020905b81548152906001019060200180831161167557829003601f168201915b505050505081526020016007820180546116ab90612546565b80601f01602080910402602001604051908101604052809291908181526020018280546116d790612546565b80156117245780601f106116f957610100808354040283529160200191611724565b820191906000526020600020905b81548152906001019060200180831161170757829003601f168201915b505050505081526020016008820160009054906101000a900460ff1615151515815260200160098201548152505090508060000151816020015182604001518360e00151846101200151975097509750975097505050509091929394565b60065481565b60008060149054906101000a900460ff16905090565b600581815481106117ae57600080fd5b9060005260206000200160009150905080546117c990612546565b80601f01602080910402602001604051908101604052809291908181526020018280546117f590612546565b80156118425780601f1061181757610100808354040283529160200191611842565b820191906000526020600020905b81548152906001019060200180831161182557829003601f168201915b505050505081565b60008054906101000a900473ffffffffffffffffffffffffffffffffffffffff1673ffffffffffffffffffffffffffffffffffffffff163373ffffffffffffffffffffffffffffffffffffffff16146118d8576040517f08c379a00000000000000000000000000000000000000000000000000000000081526004016118cf906125e9565b60405180910390fd5b60008190508073ffffffffffffffffffffffffffffffffffffffff16637776e62f6040518163ffffffff1660e01b8152600401602060405180830381865afa158015611928573d6000803e3d6000fd5b505050506040513d601f19601f8201168201806040525081019061194c91906126f4565b1561198c576040517f08c379a000000000000000000000000000000000000000000000000000000000815260040161198390612dad565b60405180910390fd5b60028460405161199c9190612645565b908152602001604051809103902060009054906101000a900460ff16156119f8576040517f08c379a00000000000000000000000000000000000000000000000000000000081526004016119ef90612e19565b60405180910390fd5b600260065410611a3d576040517f08c379a0000000000000000000000000000000000000000000000000000000008152600401611a3490612eab565b60405180910390fd5b60006040518061014001604052808b81526020018a81526020018981526020018881526020018781526020018681526020018581526020016040518060400160405280600981526020017f505245534944454e5400000000000000000000000000000000000000000000008152508152602001600015158152602001600081525090506001600286604051611ad29190612645565b908152602001604051809103902060006101000a81548160ff02191690831515021790555080600386604051611b089190612645565b90815260200160405180910390206000820151816000019081611b2b9190613062565b506020820151816001019081611b419190613062565b506040820151816002019081611b579190613062565b506060820151816003019081611b6d9190613062565b506080820151816004015560a0820151816005019081611b8d9190613062565b5060c0820151816006019081611ba39190613062565b5060e0820151816007019081611bb99190613062565b506101008201518160080160006101000a81548160ff0219169083151502179055506101208201518160090155905050600585908060018154018082558091505060019003906000526020600020016000909190919091509081611c1d9190613062565b5060066000815480929190611c3190612c3b565b919050555050505050505050505050565b60008054906101000a900473ffffffffffffffffffffffffffffffffffffffff1681565b6000819050919050565b611c7981611c66565b82525050565b6000602082019050611c946000830184611c70565b92915050565b6000604051905090565b600080fd5b600080fd5b600080fd5b600080fd5b6000601f19601f8301169050919050565b7f4e487b7100000000000000000000000000000000000000000000000000000000600052604160045260246000fd5b611d0182611cb8565b810181811067ffffffffffffffff82111715611d2057611d1f611cc9565b5b80604052505050565b6000611d33611c9a565b9050611d3f8282611cf8565b919050565b600067ffffffffffffffff821115611d5f57611d5e611cc9565b5b611d6882611cb8565b9050602081019050919050565b82818337600083830152505050565b6000611d97611d9284611d44565b611d29565b905082815260208101848484011115611db357611db2611cb3565b5b611dbe848285611d75565b509392505050565b600082601f830112611ddb57611dda611cae565b5b8135611deb848260208601611d84565b91505092915050565b600060208284031215611e0a57611e09611ca4565b5b600082013567ffffffffffffffff811115611e2857611e27611ca9565b5b611e3484828501611dc6565b91505092915050565b600081519050919050565b600082825260208201905092915050565b60005b83811015611e77578082015181840152602081019050611e5c565b60008484015250505050565b6000611e8e82611e3d565b611e988185611e48565b9350611ea8818560208601611e59565b611eb181611cb8565b840191505092915050565b60008115159050919050565b611ed181611ebc565b82525050565b6000610140820190508181036000830152611ef2818d611e83565b90508181036020830152611f06818c611e83565b90508181036040830152611f1a818b611e83565b90508181036060830152611f2e818a611e83565b9050611f3d6080830189611c70565b81810360a0830152611f4f8188611e83565b905081810360c0830152611f638187611e83565b905081810360e0830152611f778186611e83565b9050611f87610100830185611ec8565b611f95610120830184611c70565b9b9a5050505050505050505050565b600081519050919050565b600082825260208201905092915050565b6000819050602082019050919050565b600082825260208201905092915050565b6000611fec82611e3d565b611ff68185611fd0565b9350612006818560208601611e59565b61200f81611cb8565b840191505092915050565b60006120268383611fe1565b905092915050565b6000602082019050919050565b600061204682611fa4565b6120508185611faf565b93508360208202850161206285611fc0565b8060005b8581101561209e578484038952815161207f858261201a565b945061208a8361202e565b925060208a01995050600181019050612066565b50829750879550505050505092915050565b600060208201905081810360008301526120ca818461203b565b905092915050565b600073ffffffffffffffffffffffffffffffffffffffff82169050919050565b60006120fd826120d2565b9050919050565b61210d816120f2565b811461211857600080fd5b50565b60008135905061212a81612104565b92915050565b60006020828403121561214657612145611ca4565b5b60006121548482850161211b565b91505092915050565b60006020820190506121726000830184611ec8565b92915050565b6000610120820190508181036000830152612193818c611e83565b905081810360208301526121a7818b611e83565b905081810360408301526121bb818a611e83565b905081810360608301526121cf8189611e83565b90506121de6080830188611c70565b81810360a08301526121f08187611e83565b905081810360c08301526122048186611e83565b905081810360e08301526122188185611e83565b9050612228610100830184611c70565b9a9950505050505050505050565b60008060006060848603121561224f5761224e611ca4565b5b600084013567ffffffffffffffff81111561226d5761226c611ca9565b5b61227986828701611dc6565b935050602061228a8682870161211b565b925050604061229b8682870161211b565b9150509250925092565b600060a08201905081810360008301526122bf8188611e83565b905081810360208301526122d38187611e83565b905081810360408301526122e78186611e83565b905081810360608301526122fb8185611e83565b905061230a6080830184611c70565b9695505050505050565b61231d81611c66565b811461232857600080fd5b50565b60008135905061233a81612314565b92915050565b60006020828403121561235657612355611ca4565b5b60006123648482850161232b565b91505092915050565b600060208201905081810360008301526123878184611e83565b905092915050565b600080600080600080600080610100898b0312156123b0576123af611ca4565b5b600089013567ffffffffffffffff8111156123ce576123cd611ca9565b5b6123da8b828c01611dc6565b985050602089013567ffffffffffffffff8111156123fb576123fa611ca9565b5b6124078b828c01611dc6565b975050604089013567ffffffffffffffff81111561242857612427611ca9565b5b6124348b828c01611dc6565b965050606089013567ffffffffffffffff81111561245557612454611ca9565b5b6124618b828c01611dc6565b95505060806124728b828c0161232b565b94505060a089013567ffffffffffffffff81111561249357612492611ca9565b5b61249f8b828c01611dc6565b93505060c089013567ffffffffffffffff8111156124c0576124bf611ca9565b5b6124cc8b828c01611dc6565b92505060e06124dd8b828c0161211b565b9150509295985092959890939650565b6124f6816120f2565b82525050565b600060208201905061251160008301846124ed565b92915050565b7f4e487b7100000000000000000000000000000000000000000000000000000000600052602260045260246000fd5b6000600282049050600182168061255e57607f821691505b60208210810361257157612570612517565b5b50919050565b7f4f6e6c792061646d696e2063616e20706572666f726d2074686973206163746960008201527f6f6e000000000000000000000000000000000000000000000000000000000000602082015250565b60006125d3602283611e48565b91506125de82612577565b604082019050919050565b60006020820190508181036000830152612602816125c6565b9050919050565b600081905092915050565b600061261f82611e3d565b6126298185612609565b9350612639818560208601611e59565b80840191505092915050565b60006126518284612614565b915081905092915050565b7f526573756c7420697320616c7265616479207075626c69736865642100000000600082015250565b6000612692601c83611e48565b915061269d8261265c565b602082019050919050565b600060208201905081810360008301526126c181612685565b9050919050565b6126d181611ebc565b81146126dc57600080fd5b50565b6000815190506126ee816126c8565b92915050565b60006020828403121561270a57612709611ca4565b5b6000612718848285016126df565b91505092915050565b7f566f74696e672070726f6365737320646f65736e27742073746172746564207960008201527f6574210000000000000000000000000000000000000000000000000000000000602082015250565b600061277d602383611e48565b915061278882612721565b604082019050919050565b600060208201905081810360008301526127ac81612770565b9050919050565b600080fd5b600080fd5b6000815190506127cc81612104565b92915050565b60006127e56127e084611d44565b611d29565b90508281526020810184848401111561280157612800611cb3565b5b61280c848285611e59565b509392505050565b600082601f83011261282957612828611cae565b5b81516128398482602086016127d2565b91505092915050565b60008151905061285181612314565b92915050565b6000610180828403121561286e5761286d6127b3565b5b612879610180611d29565b90506000612889848285016127bd565b600083015250602082015167ffffffffffffffff8111156128ad576128ac6127b8565b5b6128b984828501612814565b602083015250604082015167ffffffffffffffff8111156128dd576128dc6127b8565b5b6128e984828501612814565b604083015250606082015167ffffffffffffffff81111561290d5761290c6127b8565b5b61291984828501612814565b606083015250608082015167ffffffffffffffff81111561293d5761293c6127b8565b5b61294984828501612814565b60808301525060a061295d84828501612842565b60a08301525060c082015167ffffffffffffffff811115612981576129806127b8565b5b61298d84828501612814565b60c08301525060e082015167ffffffffffffffff8111156129b1576129b06127b8565b5b6129bd84828501612814565b60e08301525061010082015167ffffffffffffffff8111156129e2576129e16127b8565b5b6129ee84828501612814565b6101008301525061012082015167ffffffffffffffff811115612a1457612a136127b8565b5b612a2084828501612814565b61012083015250610140612a36848285016126df565b61014083015250610160612a4c848285016126df565b6101608301525092915050565b600060208284031215612a6f57612a6e611ca4565b5b600082015167ffffffffffffffff811115612a8d57612a8c611ca9565b5b612a9984828501612857565b91505092915050565b7f566f746572206973206e6f742072656769737465726564000000000000000000600082015250565b6000612ad8601783611e48565b9150612ae382612aa2565b602082019050919050565b60006020820190508181036000830152612b0781612acb565b9050919050565b7f496e76616c69642063616e646964617465000000000000000000000000000000600082015250565b6000612b44601183611e48565b9150612b4f82612b0e565b602082019050919050565b60006020820190508181036000830152612b7381612b37565b9050919050565b7f416c726561647920766f74656420666f7220507265736964656e7420706f736960008201527f74696f6e00000000000000000000000000000000000000000000000000000000602082015250565b6000612bd6602483611e48565b9150612be182612b7a565b604082019050919050565b60006020820190508181036000830152612c0581612bc9565b9050919050565b7f4e487b7100000000000000000000000000000000000000000000000000000000600052601160045260246000fd5b6000612c4682611c66565b91507fffffffffffffffffffffffffffffffffffffffffffffffffffffffffffffffff8203612c7857612c77612c0c565b5b600182019050919050565b7f4e487b7100000000000000000000000000000000000000000000000000000000600052603260045260246000fd5b60008190508160005260206000209050919050565b60008154612cd481612546565b612cde8186612609565b94506001821660008114612cf95760018114612d0e57612d41565b60ff1983168652811515820286019350612d41565b612d1785612cb2565b60005b83811015612d3957815481890152600182019150602081019050612d1a565b838801955050505b50505092915050565b6000612d568284612cc7565b915081905092915050565b7f566f74696e672070726f6365737320616c726561647920737461727465640000600082015250565b6000612d97601e83611e48565b9150612da282612d61565b602082019050919050565b60006020820190508181036000830152612dc681612d8a565b9050919050565b7f63616e64696461746520697320616c7265616479207265676973746572656421600082015250565b6000612e03602083611e48565b9150612e0e82612dcd565b602082019050919050565b60006020820190508181036000830152612e3281612df6565b9050919050565b7f546865207265676973746572656420707265736964656e7420697320656e6f7560008201527f6768210000000000000000000000000000000000000000000000000000000000602082015250565b6000612e95602383611e48565b9150612ea082612e39565b604082019050919050565b60006020820190508181036000830152612ec481612e88565b9050919050565b60006020601f8301049050919050565b600082821b905092915050565b600060088302612f187fffffffffffffffffffffffffffffffffffffffffffffffffffffffffffffffff82612edb565b612f228683612edb565b95508019841693508086168417925050509392505050565b6000819050919050565b6000612f5f612f5a612f5584611c66565b612f3a565b611c66565b9050919050565b6000819050919050565b612f7983612f44565b612f8d612f8582612f66565b848454612ee8565b825550505050565b600090565b612fa2612f95565b612fad818484612f70565b505050565b5b81811015612fd157612fc6600082612f9a565b600181019050612fb3565b5050565b601f82111561301657612fe781612cb2565b612ff084612ecb565b81016020851015612fff578190505b61301361300b85612ecb565b830182612fb2565b50505b505050565b600082821c905092915050565b60006130396000198460080261301b565b1980831691505092915050565b60006130528383613028565b9150826002028217905092915050565b61306b82611e3d565b67ffffffffffffffff81111561308457613083611cc9565b5b61308e8254612546565b613099828285612fd5565b600060209050601f8311600181146130cc57600084156130ba578287015190505b6130c48582613046565b86555061312c565b601f1984166130da86612cb2565b60005b82811015613102578489015182556001820191506020850194506020810190506130dd565b8683101561311f578489015161311b601f891682613028565b8355505b6001600288020188555050505b50505050505056fea264697066735822122022740633917fa368cc184eb14ebca260699d4ef18392d13e5c9ef0822d9ca2de64736f6c63430008130033",
  "immutableReferences": {},
  "source": "// SPDX-License-Identifier: MIT\npragma solidity ^0.8.0;\nimport \"./VoterContract.sol\";\nimport \"./AccessControl.sol\";\nimport \"./TimeControl.sol\";\nimport \"./CandidateStructure.sol\";\n\ncontract CandidatePresident is AccessControl, CandidateStructure {\n\n    //President Registration\n    mapping(string => Candidate) public candidatePresident;\n\n    mapping(address => bool) public presidentVoted;\n\n    string[] public presidentList;\n\n    uint256 public numberOfPresident;\n\n    // function getPresidentList() public view returns (string memory)\n    // {\n    //     return presidentList;\n    // }\n\n    event NewPresidentRegistered(string firstName, string lastName, string collegeName, string programName, uint256 yearOfStudy, string regNo, string blockNumber, string gender);\n    \n    function registerPresident(string memory _firstName, string memory _lastName, string memory _collegeName,string memory _programName, uint256 _yearOfStudy, string memory _regNo, string memory _blockNumber, address _timeControlContractAddress) public onlyAdmin{\n        TimeControl tC = TimeControl(_timeControlContractAddress);\n        require(!tC.isInitiate(), \"Voting process already started\");\n        require(!isRegistered[_regNo], \"candidate is already registered!\");\n        require(numberOfPresident < 2, \"The registered president is enough!\");\n        Candidate memory newCandidate = Candidate({\n            firstName: _firstName,\n            lastName: _lastName,       \n            collegeName: _collegeName,\n            programName: _programName,\n            yearOfStudy: _yearOfStudy, \n            regNo: _regNo, \n            blockNumber: _blockNumber,\n            position: \"PRESIDENT\", \n            isWinner: false, \n            \n            voteCount: 0\n        });\n        isRegistered[_regNo]= true;\n        candidatePresident[_regNo] = newCandidate;\n        presidentList.push(_regNo);\n        numberOfPresident++;\n\n        // emit NewPresidentRegistered(_firstName, _collegeName, _programName, _yearOfStudy, _regNo, _blockNumber, _gender);\n    }\n    \n\n    //return the registration number for the candidates for each position\n    function getPresidentRegNumber() public view returns (string[] memory){\n        return presidentList;\n    }\n\n\n    //Admin view candidates for a specific position of vote\n\n    function viewPresident(string memory _regNo) public view returns(string memory firstName,string memory lastName, \n        string memory collegeName, string memory programName, uint256 yearOfStudy, string memory regNo, string memory blockNumber, string memory position,uint256 voteCount){\n        Candidate memory candidatePres = candidatePresident[_regNo];\n        firstName = candidatePres.firstName;\n        lastName = candidatePres.lastName;\n        collegeName = candidatePres.collegeName;\n        programName = candidatePres.programName;\n        yearOfStudy = candidatePres.yearOfStudy;\n        regNo = candidatePres.regNo;\n        blockNumber = candidatePres.blockNumber;\n        position = candidatePres.position;\n        voteCount = candidatePres.voteCount;\n    }\n\n    function castVotePresident( string memory _presidentRegNo, address _voterContractAddress, address _timeControlContractAddress) public {\n        VoterContract vc = VoterContract(_voterContractAddress);\n        TimeControl tC = TimeControl(_timeControlContractAddress);\n        require(tC.isInitiate(), \"Voting process doesn't started yet!\");\n        require(vc.getVoter(msg.sender).isRegistered, \"Voter is not registered\");\n        // require(!voters[msg.sender].voted, \"You have already voted for President!!!\");\n        require(isRegistered[_presidentRegNo], \"Invalid candidate\");\n        require(!presidentVoted[msg.sender], \"Already voted for President position\");\n        presidentVoted[msg.sender] = true;\n\n        Candidate storage candidate = candidatePresident[_presidentRegNo];\n        candidate.voteCount++;\n        totalVotes++;\n\n        // emit VoteCast(candidate.voteCount, candidate.regNo);\n    }\n\n    function getWinnerPresident() public view returns ( string memory, string memory, string memory, string memory, uint256 ){\n        uint256 winningPresidentVoteCount = 0;\n        uint256 winningPresidentIndex = 0;\n        for (uint256 i = 0; i < presidentList.length; i++) {\n            if (candidatePresident[presidentList[i]].voteCount > winningPresidentVoteCount) {\n                winningPresidentVoteCount = candidatePresident[presidentList[i]].voteCount;\n                winningPresidentIndex = i;\n            }\n        }\n        Candidate memory winner = candidatePresident[presidentList[winningPresidentIndex]];\n        // emit getTheWinner(winner.firstName, winner.regNo, winner.collegeName, winner.programName, winner.voteCount);\n        return (winner.firstName, winner.lastName, winner.collegeName, winner.position, winner.voteCount);\n    }\n\n}",
  "sourcePath": "/home/temba/Documents/client/contracts/CandidatePresident.sol",
  "compiler": {
    "name": "solc",
    "version": "0.8.19+commit.7dd6d404.Emscripten.clang"
  },
  "schemaVersion": "3.4.14",
  "updatedAt": "2023-06-30T04:15:59.234Z",
  "networkType": "ethereum",
  "devdoc": {
    "kind": "dev",
    "methods": {},
    "version": 1
  },
  "userdoc": {
    "kind": "user",
    "methods": {},
    "version": 1
  }
}