{
  "contractName": "CandidateBlockLeader",
  "abi": [
    {
      "anonymous": false,
      "inputs": [
        {
          "indexed": false,
          "internalType": "string",
          "name": "firstName",
          "type": "string"
        },
        {
          "indexed": false,
          "internalType": "string",
          "name": "lastName",
          "type": "string"
        },
        {
          "indexed": false,
          "internalType": "string",
          "name": "collegeName",
          "type": "string"
        },
        {
          "indexed": false,
          "internalType": "string",
          "name": "programName",
          "type": "string"
        },
        {
          "indexed": false,
          "internalType": "uint256",
          "name": "yearOfStudy",
          "type": "uint256"
        },
        {
          "indexed": false,
          "internalType": "string",
          "name": "regNo",
          "type": "string"
        },
        {
          "indexed": false,
          "internalType": "string",
          "name": "blockNumber",
          "type": "string"
        },
        {
          "indexed": false,
          "internalType": "string",
          "name": "gender",
          "type": "string"
        }
      ],
      "name": "NewBlockLeaderRegistered",
      "type": "event"
    },
    {
      "inputs": [],
      "name": "admin",
      "outputs": [
        {
          "internalType": "address",
          "name": "",
          "type": "address"
        }
      ],
      "stateMutability": "view",
      "type": "function",
      "constant": true
    },
    {
      "inputs": [
        {
          "internalType": "uint256",
          "name": "",
          "type": "uint256"
        }
      ],
      "name": "blockLeaderList",
      "outputs": [
        {
          "internalType": "string",
          "name": "",
          "type": "string"
        }
      ],
      "stateMutability": "view",
      "type": "function",
      "constant": true
    },
    {
      "inputs": [
        {
          "internalType": "address",
          "name": "",
          "type": "address"
        }
      ],
      "name": "blockLeaderVoted",
      "outputs": [
        {
          "internalType": "bool",
          "name": "",
          "type": "bool"
        }
      ],
      "stateMutability": "view",
      "type": "function",
      "constant": true
    },
    {
      "inputs": [
        {
          "internalType": "string",
          "name": "",
          "type": "string"
        }
      ],
      "name": "candidateBlockLeader",
      "outputs": [
        {
          "internalType": "string",
          "name": "firstName",
          "type": "string"
        },
        {
          "internalType": "string",
          "name": "lastName",
          "type": "string"
        },
        {
          "internalType": "string",
          "name": "collegeName",
          "type": "string"
        },
        {
          "internalType": "string",
          "name": "programName",
          "type": "string"
        },
        {
          "internalType": "uint256",
          "name": "yearOfStudy",
          "type": "uint256"
        },
        {
          "internalType": "string",
          "name": "regNo",
          "type": "string"
        },
        {
          "internalType": "string",
          "name": "blockNumber",
          "type": "string"
        },
        {
          "internalType": "string",
          "name": "position",
          "type": "string"
        },
        {
          "internalType": "bool",
          "name": "isWinner",
          "type": "bool"
        },
        {
          "internalType": "uint256",
          "name": "voteCount",
          "type": "uint256"
        }
      ],
      "stateMutability": "view",
      "type": "function",
      "constant": true
    },
    {
      "inputs": [],
      "name": "getPublished",
      "outputs": [
        {
          "internalType": "bool",
          "name": "",
          "type": "bool"
        }
      ],
      "stateMutability": "view",
      "type": "function",
      "constant": true
    },
    {
      "inputs": [
        {
          "internalType": "string",
          "name": "",
          "type": "string"
        }
      ],
      "name": "isRegistered",
      "outputs": [
        {
          "internalType": "bool",
          "name": "",
          "type": "bool"
        }
      ],
      "stateMutability": "view",
      "type": "function",
      "constant": true
    },
    {
      "inputs": [],
      "name": "numberOfBlockLeader",
      "outputs": [
        {
          "internalType": "uint256",
          "name": "",
          "type": "uint256"
        }
      ],
      "stateMutability": "view",
      "type": "function",
      "constant": true
    },
    {
      "inputs": [],
      "name": "setPublished",
      "outputs": [],
      "stateMutability": "nonpayable",
      "type": "function"
    },
    {
      "inputs": [],
      "name": "totalVotes",
      "outputs": [
        {
          "internalType": "uint256",
          "name": "",
          "type": "uint256"
        }
      ],
      "stateMutability": "view",
      "type": "function",
      "constant": true
    },
    {
      "inputs": [
        {
          "internalType": "address",
          "name": "newAdmin",
          "type": "address"
        }
      ],
      "name": "transferAdmin",
      "outputs": [],
      "stateMutability": "nonpayable",
      "type": "function"
    },
    {
      "inputs": [
        {
          "internalType": "string",
          "name": "_firstName",
          "type": "string"
        },
        {
          "internalType": "string",
          "name": "_lastName",
          "type": "string"
        },
        {
          "internalType": "string",
          "name": "_collegeName",
          "type": "string"
        },
        {
          "internalType": "string",
          "name": "_programName",
          "type": "string"
        },
        {
          "internalType": "uint256",
          "name": "_yearOfStudy",
          "type": "uint256"
        },
        {
          "internalType": "string",
          "name": "_regNo",
          "type": "string"
        },
        {
          "internalType": "string",
          "name": "_blockNumber",
          "type": "string"
        },
        {
          "internalType": "address",
          "name": "_timeControlContractAddress",
          "type": "address"
        }
      ],
      "name": "registerBlockLeader",
      "outputs": [],
      "stateMutability": "nonpayable",
      "type": "function"
    },
    {
      "inputs": [],
      "name": "getBlockLeaderRegNumber",
      "outputs": [
        {
          "internalType": "string[]",
          "name": "",
          "type": "string[]"
        }
      ],
      "stateMutability": "view",
      "type": "function",
      "constant": true
    },
    {
      "inputs": [
        {
          "internalType": "string",
          "name": "_regNo",
          "type": "string"
        }
      ],
      "name": "adminViewBlockLeaders",
      "outputs": [
        {
          "internalType": "string",
          "name": "firstName",
          "type": "string"
        },
        {
          "internalType": "string",
          "name": "lastName",
          "type": "string"
        },
        {
          "internalType": "string",
          "name": "collegeName",
          "type": "string"
        },
        {
          "internalType": "string",
          "name": "programName",
          "type": "string"
        },
        {
          "internalType": "uint256",
          "name": "yearOfStudy",
          "type": "uint256"
        },
        {
          "internalType": "string",
          "name": "regNo",
          "type": "string"
        },
        {
          "internalType": "string",
          "name": "blockNumber",
          "type": "string"
        },
        {
          "internalType": "string",
          "name": "position",
          "type": "string"
        },
        {
          "internalType": "uint256",
          "name": "voteCount",
          "type": "uint256"
        }
      ],
      "stateMutability": "view",
      "type": "function",
      "constant": true
    },
    {
      "inputs": [
        {
          "internalType": "string",
          "name": "_blockLeaderRegNo",
          "type": "string"
        },
        {
          "internalType": "address",
          "name": "_voterContractAddress",
          "type": "address"
        },
        {
          "internalType": "address",
          "name": "_timeControlContractAddress",
          "type": "address"
        }
      ],
      "name": "castVoteBlockLeader",
      "outputs": [],
      "stateMutability": "nonpayable",
      "type": "function"
    },
    {
      "inputs": [],
      "name": "getWinnerBlockLeader",
      "outputs": [
        {
          "internalType": "string",
          "name": "",
          "type": "string"
        },
        {
          "internalType": "string",
          "name": "",
          "type": "string"
        },
        {
          "internalType": "string",
          "name": "",
          "type": "string"
        },
        {
          "internalType": "string",
          "name": "",
          "type": "string"
        },
        {
          "internalType": "uint256",
          "name": "",
          "type": "uint256"
        }
      ],
      "stateMutability": "view",
      "type": "function",
      "constant": true
    },
    {
      "inputs": [
        {
          "internalType": "address",
          "name": "addressVoter",
          "type": "address"
        },
        {
          "internalType": "address",
          "name": "_voterContractAddress",
          "type": "address"
        }
      ],
      "name": "voterViewBlockLeaders",
      "outputs": [
        {
          "components": [
            {
              "internalType": "string",
              "name": "firstName",
              "type": "string"
            },
            {
              "internalType": "string",
              "name": "lastName",
              "type": "string"
            },
            {
              "internalType": "string",
              "name": "collegeName",
              "type": "string"
            },
            {
              "internalType": "string",
              "name": "programName",
              "type": "string"
            },
            {
              "internalType": "uint256",
              "name": "yearOfStudy",
              "type": "uint256"
            },
            {
              "internalType": "string",
              "name": "regNo",
              "type": "string"
            },
            {
              "internalType": "string",
              "name": "blockNumber",
              "type": "string"
            },
            {
              "internalType": "string",
              "name": "position",
              "type": "string"
            },
            {
              "internalType": "bool",
              "name": "isWinner",
              "type": "bool"
            },
            {
              "internalType": "uint256",
              "name": "voteCount",
              "type": "uint256"
            }
          ],
          "internalType": "struct CandidateStructure.Candidate[]",
          "name": "",
          "type": "tuple[]"
        }
      ],
      "stateMutability": "view",
      "type": "function",
      "constant": true
    }
  ],
  "bytecode": "0x608060405234801561001057600080fd5b50336000806101000a81548173ffffffffffffffffffffffffffffffffffffffff021916908373ffffffffffffffffffffffffffffffffffffffff160217905550613e8f806100606000396000f3fe608060405234801561001057600080fd5b50600436106101005760003560e01c8063991d7db711610097578063e53d427811610066578063e53d4278146102c2578063f6ffc117146102f2578063f851a44014610310578063f9c120091461032e57610100565b8063991d7db71461023c578063a49b85dd14610258578063c822d7f014610274578063e19ca0d3146102a457610100565b806345a8a2be116100d357806345a8a2be146101ae57806375829def146101de5780637f8bbbc5146101fa57806397b0565e1461023257610100565b8063052fbf8c146101055780630d15fd771461013557806319fbf89f146101535780631ac45f5214610175575b600080fd5b61011f600480360381019061011a919061266b565b61034c565b60405161012c91906126b3565b60405180910390f35b61013d61036c565b60405161014a91906126e7565b60405180910390f35b61015b610372565b60405161016c959493929190612792565b60405180910390f35b61018f600480360381019061018a9190612936565b6108d5565b6040516101a59a9998979695949392919061297f565b60405180910390f35b6101c860048036038101906101c39190612a78565b610d04565b6040516101d59190612aa5565b60405180910390f35b6101f860048036038101906101f3919061266b565b610db0565b005b610214600480360381019061020f9190612936565b610e81565b60405161022999989796959493929190612ac7565b60405180910390f35b61023a611338565b005b61025660048036038101906102519190612b85565b611433565b005b610272600480360381019061026d9190612ce3565b6117ce565b005b61028e60048036038101906102899190612936565b611cf5565b60405161029b91906126b3565b60405180910390f35b6102ac611d2b565b6040516102b991906126b3565b60405180910390f35b6102dc60048036038101906102d79190612d52565b611d41565b6040516102e99190612fc0565b60405180910390f35b6102fa6124a1565b60405161030791906126e7565b60405180910390f35b6103186124a7565b6040516103259190612ff1565b60405180910390f35b6103366124cb565b60405161034391906130ce565b60405180910390f35b60046020528060005260406000206000915054906101000a900460ff1681565b60015481565b606080606080600080600090506000805b60058054905081101561042e57826003600583815481106103a7576103a66130f0565b5b906000526020600020016040516103be9190613222565b908152602001604051809103902060090154111561041b576003600582815481106103ec576103eb6130f0565b5b906000526020600020016040516104039190613222565b90815260200160405180910390206009015492508091505b808061042690613268565b915050610383565b506000600360058381548110610447576104466130f0565b5b9060005260206000200160405161045e9190613222565b9081526020016040518091039020604051806101400160405290816000820180546104889061314e565b80601f01602080910402602001604051908101604052809291908181526020018280546104b49061314e565b80156105015780601f106104d657610100808354040283529160200191610501565b820191906000526020600020905b8154815290600101906020018083116104e457829003601f168201915b5050505050815260200160018201805461051a9061314e565b80601f01602080910402602001604051908101604052809291908181526020018280546105469061314e565b80156105935780601f1061056857610100808354040283529160200191610593565b820191906000526020600020905b81548152906001019060200180831161057657829003601f168201915b505050505081526020016002820180546105ac9061314e565b80601f01602080910402602001604051908101604052809291908181526020018280546105d89061314e565b80156106255780601f106105fa57610100808354040283529160200191610625565b820191906000526020600020905b81548152906001019060200180831161060857829003601f168201915b5050505050815260200160038201805461063e9061314e565b80601f016020809104026020016040519081016040528092919081815260200182805461066a9061314e565b80156106b75780601f1061068c576101008083540402835291602001916106b7565b820191906000526020600020905b81548152906001019060200180831161069a57829003601f168201915b50505050508152602001600482015481526020016005820180546106da9061314e565b80601f01602080910402602001604051908101604052809291908181526020018280546107069061314e565b80156107535780601f1061072857610100808354040283529160200191610753565b820191906000526020600020905b81548152906001019060200180831161073657829003601f168201915b5050505050815260200160068201805461076c9061314e565b80601f01602080910402602001604051908101604052809291908181526020018280546107989061314e565b80156107e55780601f106107ba576101008083540402835291602001916107e5565b820191906000526020600020905b8154815290600101906020018083116107c857829003601f168201915b505050505081526020016007820180546107fe9061314e565b80601f016020809104026020016040519081016040528092919081815260200182805461082a9061314e565b80156108775780601f1061084c57610100808354040283529160200191610877565b820191906000526020600020905b81548152906001019060200180831161085a57829003601f168201915b505050505081526020016008820160009054906101000a900460ff1615151515815260200160098201548152505090508060000151816020015182604001518360e00151846101200151975097509750975097505050509091929394565b60038180516020810182018051848252602083016020850120818352809550505050505060009150905080600001805461090e9061314e565b80601f016020809104026020016040519081016040528092919081815260200182805461093a9061314e565b80156109875780601f1061095c57610100808354040283529160200191610987565b820191906000526020600020905b81548152906001019060200180831161096a57829003601f168201915b50505050509080600101805461099c9061314e565b80601f01602080910402602001604051908101604052809291908181526020018280546109c89061314e565b8015610a155780601f106109ea57610100808354040283529160200191610a15565b820191906000526020600020905b8154815290600101906020018083116109f857829003601f168201915b505050505090806002018054610a2a9061314e565b80601f0160208091040260200160405190810160405280929190818152602001828054610a569061314e565b8015610aa35780601f10610a7857610100808354040283529160200191610aa3565b820191906000526020600020905b815481529060010190602001808311610a8657829003601f168201915b505050505090806003018054610ab89061314e565b80601f0160208091040260200160405190810160405280929190818152602001828054610ae49061314e565b8015610b315780601f10610b0657610100808354040283529160200191610b31565b820191906000526020600020905b815481529060010190602001808311610b1457829003601f168201915b505050505090806004015490806005018054610b4c9061314e565b80601f0160208091040260200160405190810160405280929190818152602001828054610b789061314e565b8015610bc55780601f10610b9a57610100808354040283529160200191610bc5565b820191906000526020600020905b815481529060010190602001808311610ba857829003601f168201915b505050505090806006018054610bda9061314e565b80601f0160208091040260200160405190810160405280929190818152602001828054610c069061314e565b8015610c535780601f10610c2857610100808354040283529160200191610c53565b820191906000526020600020905b815481529060010190602001808311610c3657829003601f168201915b505050505090806007018054610c689061314e565b80601f0160208091040260200160405190810160405280929190818152602001828054610c949061314e565b8015610ce15780601f10610cb657610100808354040283529160200191610ce1565b820191906000526020600020905b815481529060010190602001808311610cc457829003601f168201915b5050505050908060080160009054906101000a900460ff1690806009015490508a565b60058181548110610d1457600080fd5b906000526020600020016000915090508054610d2f9061314e565b80601f0160208091040260200160405190810160405280929190818152602001828054610d5b9061314e565b8015610da85780601f10610d7d57610100808354040283529160200191610da8565b820191906000526020600020905b815481529060010190602001808311610d8b57829003601f168201915b505050505081565b60008054906101000a900473ffffffffffffffffffffffffffffffffffffffff1673ffffffffffffffffffffffffffffffffffffffff163373ffffffffffffffffffffffffffffffffffffffff1614610e3e576040517f08c379a0000000000000000000000000000000000000000000000000000000008152600401610e3590613322565b60405180910390fd5b806000806101000a81548173ffffffffffffffffffffffffffffffffffffffff021916908373ffffffffffffffffffffffffffffffffffffffff16021790555050565b6060806060806000606080606060008060038b604051610ea19190613373565b908152602001604051809103902060405180610140016040529081600082018054610ecb9061314e565b80601f0160208091040260200160405190810160405280929190818152602001828054610ef79061314e565b8015610f445780601f10610f1957610100808354040283529160200191610f44565b820191906000526020600020905b815481529060010190602001808311610f2757829003601f168201915b50505050508152602001600182018054610f5d9061314e565b80601f0160208091040260200160405190810160405280929190818152602001828054610f899061314e565b8015610fd65780601f10610fab57610100808354040283529160200191610fd6565b820191906000526020600020905b815481529060010190602001808311610fb957829003601f168201915b50505050508152602001600282018054610fef9061314e565b80601f016020809104026020016040519081016040528092919081815260200182805461101b9061314e565b80156110685780601f1061103d57610100808354040283529160200191611068565b820191906000526020600020905b81548152906001019060200180831161104b57829003601f168201915b505050505081526020016003820180546110819061314e565b80601f01602080910402602001604051908101604052809291908181526020018280546110ad9061314e565b80156110fa5780601f106110cf576101008083540402835291602001916110fa565b820191906000526020600020905b8154815290600101906020018083116110dd57829003601f168201915b505050505081526020016004820154815260200160058201805461111d9061314e565b80601f01602080910402602001604051908101604052809291908181526020018280546111499061314e565b80156111965780601f1061116b57610100808354040283529160200191611196565b820191906000526020600020905b81548152906001019060200180831161117957829003601f168201915b505050505081526020016006820180546111af9061314e565b80601f01602080910402602001604051908101604052809291908181526020018280546111db9061314e565b80156112285780601f106111fd57610100808354040283529160200191611228565b820191906000526020600020905b81548152906001019060200180831161120b57829003601f168201915b505050505081526020016007820180546112419061314e565b80601f016020809104026020016040519081016040528092919081815260200182805461126d9061314e565b80156112ba5780601f1061128f576101008083540402835291602001916112ba565b820191906000526020600020905b81548152906001019060200180831161129d57829003601f168201915b505050505081526020016008820160009054906101000a900460ff16151515158152602001600982015481525050905080600001519950806020015198508060400151975080606001519650806080015195508060a0015194508060c0015193508060e0015192508061012001519150509193959799909294969850565b60008054906101000a900473ffffffffffffffffffffffffffffffffffffffff1673ffffffffffffffffffffffffffffffffffffffff163373ffffffffffffffffffffffffffffffffffffffff16146113c6576040517f08c379a00000000000000000000000000000000000000000000000000000000081526004016113bd90613322565b60405180910390fd5b600060149054906101000a900460ff1615611416576040517f08c379a000000000000000000000000000000000000000000000000000000000815260040161140d906133d6565b60405180910390fd5b6001600060146101000a81548160ff021916908315150217905550565b60008054906101000a900473ffffffffffffffffffffffffffffffffffffffff1673ffffffffffffffffffffffffffffffffffffffff163373ffffffffffffffffffffffffffffffffffffffff16146114c1576040517f08c379a00000000000000000000000000000000000000000000000000000000081526004016114b890613322565b60405180910390fd5b60008190508073ffffffffffffffffffffffffffffffffffffffff16637776e62f6040518163ffffffff1660e01b8152600401602060405180830381865afa158015611511573d6000803e3d6000fd5b505050506040513d601f19601f820116820180604052508101906115359190613422565b15611575576040517f08c379a000000000000000000000000000000000000000000000000000000000815260040161156c9061349b565b60405180910390fd5b6002846040516115859190613373565b908152602001604051809103902060009054906101000a900460ff16156115e1576040517f08c379a00000000000000000000000000000000000000000000000000000000081526004016115d890613507565b60405180910390fd5b60006040518061014001604052808b81526020018a81526020018981526020018881526020018781526020018681526020018581526020016040518060400160405280600c81526020017f424c4f434b204c4541444552000000000000000000000000000000000000000081525081526020016000151581526020016000815250905060016002866040516116769190613373565b908152602001604051809103902060006101000a81548160ff021916908315150217905550806003866040516116ac9190613373565b908152602001604051809103902060008201518160000190816116cf91906136be565b5060208201518160010190816116e591906136be565b5060408201518160020190816116fb91906136be565b50606082015181600301908161171191906136be565b506080820151816004015560a082015181600501908161173191906136be565b5060c082015181600601908161174791906136be565b5060e082015181600701908161175d91906136be565b506101008201518160080160006101000a81548160ff02191690831515021790555061012082015181600901559050506005859080600181540180825580915050600190039060005260206000200160009091909190915090816117c191906136be565b5050505050505050505050565b600082905060008290508073ffffffffffffffffffffffffffffffffffffffff16637776e62f6040518163ffffffff1660e01b8152600401602060405180830381865afa158015611823573d6000803e3d6000fd5b505050506040513d601f19601f820116820180604052508101906118479190613422565b611886576040517f08c379a000000000000000000000000000000000000000000000000000000000815260040161187d90613802565b60405180910390fd5b8173ffffffffffffffffffffffffffffffffffffffff1663d4f50f98336040518263ffffffff1660e01b81526004016118bf9190612ff1565b600060405180830381865afa1580156118dc573d6000803e3d6000fd5b505050506040513d6000823e3d601f19601f820116820180604052508101906119059190613ac8565b6101400151611949576040517f08c379a000000000000000000000000000000000000000000000000000000000815260040161194090613b5d565b60405180910390fd5b6002856040516119599190613373565b908152602001604051809103902060009054906101000a900460ff166119b4576040517f08c379a00000000000000000000000000000000000000000000000000000000081526004016119ab90613bc9565b60405180910390fd5b6003856040516119c49190613373565b90815260200160405180910390206002016040516119e29190613c8c565b60405180910390208273ffffffffffffffffffffffffffffffffffffffff1663d4f50f98336040518263ffffffff1660e01b8152600401611a239190612ff1565b600060405180830381865afa158015611a40573d6000803e3d6000fd5b505050506040513d6000823e3d601f19601f82011682018060405250810190611a699190613ac8565b606001518051906020012014611ab4576040517f08c379a0000000000000000000000000000000000000000000000000000000008152600401611aab90613d15565b60405180910390fd5b600385604051611ac49190613373565b9081526020016040518091039020600601604051611ae29190613c8c565b60405180910390208273ffffffffffffffffffffffffffffffffffffffff1663d4f50f98336040518263ffffffff1660e01b8152600401611b239190612ff1565b600060405180830381865afa158015611b40573d6000803e3d6000fd5b505050506040513d6000823e3d601f19601f82011682018060405250810190611b699190613ac8565b60e001518051906020012014611bb4576040517f08c379a0000000000000000000000000000000000000000000000000000000008152600401611bab90613da7565b60405180910390fd5b600460003373ffffffffffffffffffffffffffffffffffffffff1673ffffffffffffffffffffffffffffffffffffffff16815260200190815260200160002060009054906101000a900460ff1615611c41576040517f08c379a0000000000000000000000000000000000000000000000000000000008152600401611c3890613e39565b60405180910390fd5b6001600460003373ffffffffffffffffffffffffffffffffffffffff1673ffffffffffffffffffffffffffffffffffffffff16815260200190815260200160002060006101000a81548160ff0219169083151502179055506000600386604051611cab9190613373565b90815260200160405180910390209050806009016000815480929190611cd090613268565b919050555060016000815480929190611ce890613268565b9190505550505050505050565b6002818051602081018201805184825260208301602085012081835280955050505050506000915054906101000a900460ff1681565b60008060149054906101000a900460ff16905090565b6060600082905060008173ffffffffffffffffffffffffffffffffffffffff1663d4f50f98866040518263ffffffff1660e01b8152600401611d839190612ff1565b600060405180830381865afa158015611da0573d6000803e3d6000fd5b505050506040513d6000823e3d601f19601f82011682018060405250810190611dc99190613ac8565b905060008160600151905060008260e001519050600060058054905067ffffffffffffffff811115611dfe57611dfd61280b565b5b604051908082528060200260200182016040528015611e3757816020015b611e246125a4565b815260200190600190039081611e1c5790505b50905060006005805480602002602001604051908101604052809291908181526020016000905b82821015611f0a578382906000526020600020018054611e7d9061314e565b80601f0160208091040260200160405190810160405280929190818152602001828054611ea99061314e565b8015611ef65780601f10611ecb57610100808354040283529160200191611ef6565b820191906000526020600020905b815481529060010190602001808311611ed957829003601f168201915b505050505081526020019060010190611e5e565b5050505090506000805b825181101561248d5785805190602001206003848381518110611f3a57611f396130f0565b5b6020026020010151604051611f4f9190613373565b9081526020016040518091039020600201604051611f6d9190613c8c565b6040518091039020148015611fd7575084805190602001206003848381518110611f9a57611f996130f0565b5b6020026020010151604051611faf9190613373565b9081526020016040518091039020600601604051611fcd9190613c8c565b6040518091039020145b1561247a576003838281518110611ff157611ff06130f0565b5b60200260200101516040516120069190613373565b9081526020016040518091039020604051806101400160405290816000820180546120309061314e565b80601f016020809104026020016040519081016040528092919081815260200182805461205c9061314e565b80156120a95780601f1061207e576101008083540402835291602001916120a9565b820191906000526020600020905b81548152906001019060200180831161208c57829003601f168201915b505050505081526020016001820180546120c29061314e565b80601f01602080910402602001604051908101604052809291908181526020018280546120ee9061314e565b801561213b5780601f106121105761010080835404028352916020019161213b565b820191906000526020600020905b81548152906001019060200180831161211e57829003601f168201915b505050505081526020016002820180546121549061314e565b80601f01602080910402602001604051908101604052809291908181526020018280546121809061314e565b80156121cd5780601f106121a2576101008083540402835291602001916121cd565b820191906000526020600020905b8154815290600101906020018083116121b057829003601f168201915b505050505081526020016003820180546121e69061314e565b80601f01602080910402602001604051908101604052809291908181526020018280546122129061314e565b801561225f5780601f106122345761010080835404028352916020019161225f565b820191906000526020600020905b81548152906001019060200180831161224257829003601f168201915b50505050508152602001600482015481526020016005820180546122829061314e565b80601f01602080910402602001604051908101604052809291908181526020018280546122ae9061314e565b80156122fb5780601f106122d0576101008083540402835291602001916122fb565b820191906000526020600020905b8154815290600101906020018083116122de57829003601f168201915b505050505081526020016006820180546123149061314e565b80601f01602080910402602001604051908101604052809291908181526020018280546123409061314e565b801561238d5780601f106123625761010080835404028352916020019161238d565b820191906000526020600020905b81548152906001019060200180831161237057829003601f168201915b505050505081526020016007820180546123a69061314e565b80601f01602080910402602001604051908101604052809291908181526020018280546123d29061314e565b801561241f5780601f106123f45761010080835404028352916020019161241f565b820191906000526020600020905b81548152906001019060200180831161240257829003601f168201915b505050505081526020016008820160009054906101000a900460ff161515151581526020016009820154815250508483815181106124605761245f6130f0565b5b6020026020010181905250818061247690613268565b9250505b808061248590613268565b915050611f14565b508083528297505050505050505092915050565b60065481565b60008054906101000a900473ffffffffffffffffffffffffffffffffffffffff1681565b60606005805480602002602001604051908101604052809291908181526020016000905b8282101561259b57838290600052602060002001805461250e9061314e565b80601f016020809104026020016040519081016040528092919081815260200182805461253a9061314e565b80156125875780601f1061255c57610100808354040283529160200191612587565b820191906000526020600020905b81548152906001019060200180831161256a57829003601f168201915b5050505050815260200190600101906124ef565b50505050905090565b6040518061014001604052806060815260200160608152602001606081526020016060815260200160008152602001606081526020016060815260200160608152602001600015158152602001600081525090565b6000604051905090565b600080fd5b600080fd5b600073ffffffffffffffffffffffffffffffffffffffff82169050919050565b60006126388261260d565b9050919050565b6126488161262d565b811461265357600080fd5b50565b6000813590506126658161263f565b92915050565b60006020828403121561268157612680612603565b5b600061268f84828501612656565b91505092915050565b60008115159050919050565b6126ad81612698565b82525050565b60006020820190506126c860008301846126a4565b92915050565b6000819050919050565b6126e1816126ce565b82525050565b60006020820190506126fc60008301846126d8565b92915050565b600081519050919050565b600082825260208201905092915050565b60005b8381101561273c578082015181840152602081019050612721565b60008484015250505050565b6000601f19601f8301169050919050565b600061276482612702565b61276e818561270d565b935061277e81856020860161271e565b61278781612748565b840191505092915050565b600060a08201905081810360008301526127ac8188612759565b905081810360208301526127c08187612759565b905081810360408301526127d48186612759565b905081810360608301526127e88185612759565b90506127f760808301846126d8565b9695505050505050565b600080fd5b600080fd5b7f4e487b7100000000000000000000000000000000000000000000000000000000600052604160045260246000fd5b61284382612748565b810181811067ffffffffffffffff821117156128625761286161280b565b5b80604052505050565b60006128756125f9565b9050612881828261283a565b919050565b600067ffffffffffffffff8211156128a1576128a061280b565b5b6128aa82612748565b9050602081019050919050565b82818337600083830152505050565b60006128d96128d484612886565b61286b565b9050828152602081018484840111156128f5576128f4612806565b5b6129008482856128b7565b509392505050565b600082601f83011261291d5761291c612801565b5b813561292d8482602086016128c6565b91505092915050565b60006020828403121561294c5761294b612603565b5b600082013567ffffffffffffffff81111561296a57612969612608565b5b61297684828501612908565b91505092915050565b600061014082019050818103600083015261299a818d612759565b905081810360208301526129ae818c612759565b905081810360408301526129c2818b612759565b905081810360608301526129d6818a612759565b90506129e560808301896126d8565b81810360a08301526129f78188612759565b905081810360c0830152612a0b8187612759565b905081810360e0830152612a1f8186612759565b9050612a2f6101008301856126a4565b612a3d6101208301846126d8565b9b9a5050505050505050505050565b612a55816126ce565b8114612a6057600080fd5b50565b600081359050612a7281612a4c565b92915050565b600060208284031215612a8e57612a8d612603565b5b6000612a9c84828501612a63565b91505092915050565b60006020820190508181036000830152612abf8184612759565b905092915050565b6000610120820190508181036000830152612ae2818c612759565b90508181036020830152612af6818b612759565b90508181036040830152612b0a818a612759565b90508181036060830152612b1e8189612759565b9050612b2d60808301886126d8565b81810360a0830152612b3f8187612759565b905081810360c0830152612b538186612759565b905081810360e0830152612b678185612759565b9050612b776101008301846126d8565b9a9950505050505050505050565b600080600080600080600080610100898b031215612ba657612ba5612603565b5b600089013567ffffffffffffffff811115612bc457612bc3612608565b5b612bd08b828c01612908565b985050602089013567ffffffffffffffff811115612bf157612bf0612608565b5b612bfd8b828c01612908565b975050604089013567ffffffffffffffff811115612c1e57612c1d612608565b5b612c2a8b828c01612908565b965050606089013567ffffffffffffffff811115612c4b57612c4a612608565b5b612c578b828c01612908565b9550506080612c688b828c01612a63565b94505060a089013567ffffffffffffffff811115612c8957612c88612608565b5b612c958b828c01612908565b93505060c089013567ffffffffffffffff811115612cb657612cb5612608565b5b612cc28b828c01612908565b92505060e0612cd38b828c01612656565b9150509295985092959890939650565b600080600060608486031215612cfc57612cfb612603565b5b600084013567ffffffffffffffff811115612d1a57612d19612608565b5b612d2686828701612908565b9350506020612d3786828701612656565b9250506040612d4886828701612656565b9150509250925092565b60008060408385031215612d6957612d68612603565b5b6000612d7785828601612656565b9250506020612d8885828601612656565b9150509250929050565b600081519050919050565b600082825260208201905092915050565b6000819050602082019050919050565b600082825260208201905092915050565b6000612dda82612702565b612de48185612dbe565b9350612df481856020860161271e565b612dfd81612748565b840191505092915050565b612e11816126ce565b82525050565b612e2081612698565b82525050565b6000610140830160008301518482036000860152612e448282612dcf565b91505060208301518482036020860152612e5e8282612dcf565b91505060408301518482036040860152612e788282612dcf565b91505060608301518482036060860152612e928282612dcf565b9150506080830151612ea76080860182612e08565b5060a083015184820360a0860152612ebf8282612dcf565b91505060c083015184820360c0860152612ed98282612dcf565b91505060e083015184820360e0860152612ef38282612dcf565b915050610100830151612f0a610100860182612e17565b50610120830151612f1f610120860182612e08565b508091505092915050565b6000612f368383612e26565b905092915050565b6000602082019050919050565b6000612f5682612d92565b612f608185612d9d565b935083602082028501612f7285612dae565b8060005b85811015612fae5784840389528151612f8f8582612f2a565b9450612f9a83612f3e565b925060208a01995050600181019050612f76565b50829750879550505050505092915050565b60006020820190508181036000830152612fda8184612f4b565b905092915050565b612feb8161262d565b82525050565b60006020820190506130066000830184612fe2565b92915050565b600081519050919050565b600082825260208201905092915050565b6000819050602082019050919050565b60006130448383612dcf565b905092915050565b6000602082019050919050565b60006130648261300c565b61306e8185613017565b93508360208202850161308085613028565b8060005b858110156130bc578484038952815161309d8582613038565b94506130a88361304c565b925060208a01995050600181019050613084565b50829750879550505050505092915050565b600060208201905081810360008301526130e88184613059565b905092915050565b7f4e487b7100000000000000000000000000000000000000000000000000000000600052603260045260246000fd5b7f4e487b7100000000000000000000000000000000000000000000000000000000600052602260045260246000fd5b6000600282049050600182168061316657607f821691505b6020821081036131795761317861311f565b5b50919050565b600081905092915050565b60008190508160005260206000209050919050565b600081546131ac8161314e565b6131b6818661317f565b945060018216600081146131d157600181146131e657613219565b60ff1983168652811515820286019350613219565b6131ef8561318a565b60005b83811015613211578154818901526001820191506020810190506131f2565b838801955050505b50505092915050565b600061322e828461319f565b915081905092915050565b7f4e487b7100000000000000000000000000000000000000000000000000000000600052601160045260246000fd5b6000613273826126ce565b91507fffffffffffffffffffffffffffffffffffffffffffffffffffffffffffffffff82036132a5576132a4613239565b5b600182019050919050565b7f4f6e6c792061646d696e2063616e20706572666f726d2074686973206163746960008201527f6f6e000000000000000000000000000000000000000000000000000000000000602082015250565b600061330c60228361270d565b9150613317826132b0565b604082019050919050565b6000602082019050818103600083015261333b816132ff565b9050919050565b600061334d82612702565b613357818561317f565b935061336781856020860161271e565b80840191505092915050565b600061337f8284613342565b915081905092915050565b7f526573756c7420697320616c7265616479207075626c69736865642100000000600082015250565b60006133c0601c8361270d565b91506133cb8261338a565b602082019050919050565b600060208201905081810360008301526133ef816133b3565b9050919050565b6133ff81612698565b811461340a57600080fd5b50565b60008151905061341c816133f6565b92915050565b60006020828403121561343857613437612603565b5b60006134468482850161340d565b91505092915050565b7f566f74696e672070726f6365737320616c726561647920737461727465640000600082015250565b6000613485601e8361270d565b91506134908261344f565b602082019050919050565b600060208201905081810360008301526134b481613478565b9050919050565b7f63616e64696461746520697320616c7265616479207265676973746572656421600082015250565b60006134f160208361270d565b91506134fc826134bb565b602082019050919050565b60006020820190508181036000830152613520816134e4565b9050919050565b60006020601f8301049050919050565b600082821b905092915050565b6000600883026135747fffffffffffffffffffffffffffffffffffffffffffffffffffffffffffffffff82613537565b61357e8683613537565b95508019841693508086168417925050509392505050565b6000819050919050565b60006135bb6135b66135b1846126ce565b613596565b6126ce565b9050919050565b6000819050919050565b6135d5836135a0565b6135e96135e1826135c2565b848454613544565b825550505050565b600090565b6135fe6135f1565b6136098184846135cc565b505050565b5b8181101561362d576136226000826135f6565b60018101905061360f565b5050565b601f821115613672576136438161318a565b61364c84613527565b8101602085101561365b578190505b61366f61366785613527565b83018261360e565b50505b505050565b600082821c905092915050565b600061369560001984600802613677565b1980831691505092915050565b60006136ae8383613684565b9150826002028217905092915050565b6136c782612702565b67ffffffffffffffff8111156136e0576136df61280b565b5b6136ea825461314e565b6136f5828285613631565b600060209050601f8311600181146137285760008415613716578287015190505b61372085826136a2565b865550613788565b601f1984166137368661318a565b60005b8281101561375e57848901518255600182019150602085019450602081019050613739565b8683101561377b5784890151613777601f891682613684565b8355505b6001600288020188555050505b505050505050565b7f566f74696e672070726f6365737320646f65736e27742073746172746564207960008201527f6574210000000000000000000000000000000000000000000000000000000000602082015250565b60006137ec60238361270d565b91506137f782613790565b604082019050919050565b6000602082019050818103600083015261381b816137df565b9050919050565b600080fd5b600080fd5b60008151905061383b8161263f565b92915050565b600061385461384f84612886565b61286b565b9050828152602081018484840111156138705761386f612806565b5b61387b84828561271e565b509392505050565b600082601f83011261389857613897612801565b5b81516138a8848260208601613841565b91505092915050565b6000815190506138c081612a4c565b92915050565b600061018082840312156138dd576138dc613822565b5b6138e861018061286b565b905060006138f88482850161382c565b600083015250602082015167ffffffffffffffff81111561391c5761391b613827565b5b61392884828501613883565b602083015250604082015167ffffffffffffffff81111561394c5761394b613827565b5b61395884828501613883565b604083015250606082015167ffffffffffffffff81111561397c5761397b613827565b5b61398884828501613883565b606083015250608082015167ffffffffffffffff8111156139ac576139ab613827565b5b6139b884828501613883565b60808301525060a06139cc848285016138b1565b60a08301525060c082015167ffffffffffffffff8111156139f0576139ef613827565b5b6139fc84828501613883565b60c08301525060e082015167ffffffffffffffff811115613a2057613a1f613827565b5b613a2c84828501613883565b60e08301525061010082015167ffffffffffffffff811115613a5157613a50613827565b5b613a5d84828501613883565b6101008301525061012082015167ffffffffffffffff811115613a8357613a82613827565b5b613a8f84828501613883565b61012083015250610140613aa58482850161340d565b61014083015250610160613abb8482850161340d565b6101608301525092915050565b600060208284031215613ade57613add612603565b5b600082015167ffffffffffffffff811115613afc57613afb612608565b5b613b08848285016138c6565b91505092915050565b7f566f746572206973206e6f742072656769737465726564000000000000000000600082015250565b6000613b4760178361270d565b9150613b5282613b11565b602082019050919050565b60006020820190508181036000830152613b7681613b3a565b9050919050565b7f496e76616c69642063616e646964617465000000000000000000000000000000600082015250565b6000613bb360118361270d565b9150613bbe82613b7d565b602082019050919050565b60006020820190508181036000830152613be281613ba6565b9050919050565b600081905092915050565b60008190508160005260206000209050919050565b60008154613c168161314e565b613c208186613be9565b94506001821660008114613c3b5760018114613c5057613c83565b60ff1983168652811515820286019350613c83565b613c5985613bf4565b60005b83811015613c7b57815481890152600182019150602081019050613c5c565b838801955050505b50505092915050565b6000613c988284613c09565b915081905092915050565b7f596f7572204e6f74206d656d626572206f66206120746869732063616e64696460008201527f61746520636f6c6c656765000000000000000000000000000000000000000000602082015250565b6000613cff602b8361270d565b9150613d0a82613ca3565b604082019050919050565b60006020820190508181036000830152613d2e81613cf2565b9050919050565b7f596f7572204e6f74206d656d626572206f66206120746869732063616e64696460008201527f61746520626c6f636b0000000000000000000000000000000000000000000000602082015250565b6000613d9160298361270d565b9150613d9c82613d35565b604082019050919050565b60006020820190508181036000830152613dc081613d84565b9050919050565b7f416c7265616479206361737420766f746520666f7220426c6f636b4c6561646560008201527f7220706f736974696f6e00000000000000000000000000000000000000000000602082015250565b6000613e23602a8361270d565b9150613e2e82613dc7565b604082019050919050565b60006020820190508181036000830152613e5281613e16565b905091905056fea2646970667358221220541aa8c91e79f1676c37301ee503f0b859ed6b34b87404e8e340f0f57f204f1f64736f6c63430008130033",
  "immutableReferences": {},
  "source": "// SPDX-License-Identifier: MIT\npragma solidity ^0.8.0;\nimport \"./VoterContract.sol\";\nimport \"./AccessControl.sol\";\nimport \"./TimeControl.sol\";\nimport \"./CandidateStructure.sol\";\n\ncontract CandidateBlockLeader is AccessControl, CandidateStructure {\n\n    //BlockLeader Registration\n    mapping(string => Candidate) public candidateBlockLeader;\n\n    mapping(address => bool) public blockLeaderVoted;\n\n    string[] public blockLeaderList;\n\n    //Number of candidate in a particular position\n    uint256 public numberOfBlockLeader;\n\n    // function getBlockLeaderList() public view returns (string memory)\n    // {\n    //     return blockLeaderList;\n    // }\n\n    event NewBlockLeaderRegistered(string firstName, string lastName, string collegeName, string programName, uint256 yearOfStudy, string regNo, string blockNumber, string gender);\n\n    function registerBlockLeader(string memory _firstName, string memory _lastName, string memory _collegeName,string memory _programName, uint256 _yearOfStudy, string memory _regNo, string memory _blockNumber, address _timeControlContractAddress) public onlyAdmin{\n        TimeControl tC = TimeControl(_timeControlContractAddress);\n        require(!tC.isInitiate(), \"Voting process already started\");    \n        // require(numberOfBlock < 2, \"The registered BlockLeader is enough!\");\n        require(!isRegistered[_regNo], \"candidate is already registered!\");\n        Candidate memory newCandidate = Candidate({\n            firstName: _firstName,\n            lastName: _lastName,       \n            collegeName: _collegeName,\n            programName: _programName,\n            yearOfStudy: _yearOfStudy, \n            regNo: _regNo, \n            blockNumber: _blockNumber,\n            position: \"BLOCK LEADER\", \n            isWinner: false, \n            voteCount: 0\n        });\n        isRegistered[_regNo] = true;\n        candidateBlockLeader[_regNo] = newCandidate;\n        blockLeaderList.push(_regNo);\n\n        // emit NewBlockLeaderRegistered(_firstName, _collegeName, _programName, _yearOfStudy, _regNo, _blockNumber, _gender);\n    }\n\n    function getBlockLeaderRegNumber() public view returns (string[] memory){\n        return blockLeaderList;\n    }\n\n    //Admin view candidates for a specific position of vote\n\n    function adminViewBlockLeaders(string memory _regNo) public view returns(string memory firstName,string memory lastName, \n        string memory collegeName, string memory programName, uint256 yearOfStudy, string memory regNo, string memory blockNumber, string memory position,uint256 voteCount){\n        Candidate memory candidateBL = candidateBlockLeader[_regNo];\n        firstName = candidateBL.firstName;\n        lastName = candidateBL.lastName;\n        collegeName = candidateBL.collegeName;\n        programName = candidateBL.programName;\n        yearOfStudy = candidateBL.yearOfStudy;\n        regNo = candidateBL.regNo;\n        blockNumber = candidateBL.blockNumber;\n        position = candidateBL.position;\n        voteCount = candidateBL.voteCount;\n    }\n\n    function castVoteBlockLeader( string memory _blockLeaderRegNo, address _voterContractAddress, address _timeControlContractAddress ) public {\n        VoterContract vc = VoterContract(_voterContractAddress);\n        TimeControl tC = TimeControl(_timeControlContractAddress);\n        require(tC.isInitiate(), \"Voting process doesn't started yet!\");\n        require(vc.getVoter(msg.sender).isRegistered, \"Voter is not registered\");    \n        require(isRegistered[_blockLeaderRegNo], \"Invalid candidate\");\n        require(keccak256(bytes(vc.getVoter(msg.sender).collegeName)) == keccak256(bytes(candidateBlockLeader[_blockLeaderRegNo].collegeName)), \"Your Not member of a this candidate college\");    \n        require(keccak256(bytes(vc.getVoter(msg.sender).blockNumber)) == keccak256(bytes(candidateBlockLeader[_blockLeaderRegNo].blockNumber)), \"Your Not member of a this candidate block\");  \n        require(!blockLeaderVoted[msg.sender], \"Already cast vote for BlockLeader position\");\n        blockLeaderVoted[msg.sender] = true;\n        \n        Candidate storage candidate = candidateBlockLeader[_blockLeaderRegNo];\n        candidate.voteCount++;\n        totalVotes++;\n\n        // emit VoteCast(candidate.voteCount, candidate.regNo);\n    }\n\n    function getWinnerBlockLeader() public view returns (string memory, string memory, string memory, string memory, uint256){  \n        uint256 winningBlockLeaderVoteCount = 0;\n        uint256 winningBlockLeaderIndex = 0;    \n        for (uint256 i = 0; i < blockLeaderList.length; i++) {\n            if (candidateBlockLeader[blockLeaderList[i]].voteCount > winningBlockLeaderVoteCount) {\n                winningBlockLeaderVoteCount = candidateBlockLeader[blockLeaderList[i]].voteCount;\n                winningBlockLeaderIndex = i;\n            }\n        }\n        Candidate memory winner = candidateBlockLeader[blockLeaderList[winningBlockLeaderIndex]];\n        // emit getTheWinner(winner.firstName, winner.lastName, winner.collegeName, winner.programName, winner.voteCount);\n        return (winner.firstName, winner.lastName, winner.collegeName, winner.position, winner.voteCount);\n    }\n\n    function voterViewBlockLeaders(address addressVoter, address _voterContractAddress) public view returns (Candidate[] memory) {\n        VoterContract vC = VoterContract(_voterContractAddress);\n        VoterContract.Voter memory newVoter = vC.getVoter(addressVoter);\n        string memory voterCollege = newVoter.collegeName;\n        string memory voterBlockNumber = newVoter.blockNumber;\n\n        Candidate[] memory result = new Candidate[](blockLeaderList.length);\n        string[] memory blockLeaderLst = blockLeaderList;\n        uint256 count = 0; // Index for adding candidates to the result array\n\n        for (uint256 i = 0; i < blockLeaderLst.length; i++) {\n            if (keccak256(bytes(candidateBlockLeader[blockLeaderLst[i]].collegeName)) == keccak256(bytes(voterCollege)) && keccak256(bytes(candidateBlockLeader[blockLeaderLst[i]].blockNumber)) == keccak256(bytes(voterBlockNumber))) {\n                result[count] = candidateBlockLeader[blockLeaderLst[i]];\n                count++;\n            }\n        }\n        // Resize the result array to remove any empty elements\n        assembly {\n            mstore(result, count)\n        }\n        return result;\n    }\n}",
  "sourcePath": "/home/temba/Documents/client/contracts/CandidateBlockLeader.sol",
  "compiler": {
    "name": "solc",
    "version": "0.8.19+commit.7dd6d404.Emscripten.clang"
  },
  "schemaVersion": "3.4.14",
  "updatedAt": "2023-06-30T04:15:59.287Z",
  "networkType": "ethereum",
  "devdoc": {
    "kind": "dev",
    "methods": {},
    "version": 1
  },
  "userdoc": {
    "kind": "user",
    "methods": {},
    "version": 1
  }
}