{
  "contractName": "CandidateContract",
  "abi": [
    {
      "anonymous": false,
      "inputs": [
        {
          "indexed": false,
          "internalType": "string",
          "name": "firstName",
          "type": "string"
        },
        {
          "indexed": false,
          "internalType": "string",
          "name": "lastName",
          "type": "string"
        },
        {
          "indexed": false,
          "internalType": "string",
          "name": "collegeName",
          "type": "string"
        },
        {
          "indexed": false,
          "internalType": "string",
          "name": "programName",
          "type": "string"
        },
        {
          "indexed": false,
          "internalType": "uint256",
          "name": "yearOfStudy",
          "type": "uint256"
        },
        {
          "indexed": false,
          "internalType": "string",
          "name": "regNo",
          "type": "string"
        },
        {
          "indexed": false,
          "internalType": "string",
          "name": "blockNumber",
          "type": "string"
        },
        {
          "indexed": false,
          "internalType": "string",
          "name": "gender",
          "type": "string"
        }
      ],
      "name": "NewBlockLeaderRegistered",
      "type": "event"
    },
    {
      "anonymous": false,
      "inputs": [
        {
          "indexed": false,
          "internalType": "string",
          "name": "firstName",
          "type": "string"
        },
        {
          "indexed": false,
          "internalType": "string",
          "name": "lastName",
          "type": "string"
        },
        {
          "indexed": false,
          "internalType": "string",
          "name": "collegeName",
          "type": "string"
        },
        {
          "indexed": false,
          "internalType": "string",
          "name": "programName",
          "type": "string"
        },
        {
          "indexed": false,
          "internalType": "uint256",
          "name": "yearOfStudy",
          "type": "uint256"
        },
        {
          "indexed": false,
          "internalType": "string",
          "name": "regNo",
          "type": "string"
        },
        {
          "indexed": false,
          "internalType": "string",
          "name": "blockNumber",
          "type": "string"
        },
        {
          "indexed": false,
          "internalType": "string",
          "name": "gender",
          "type": "string"
        }
      ],
      "name": "NewGovernorRegistered",
      "type": "event"
    },
    {
      "anonymous": false,
      "inputs": [
        {
          "indexed": false,
          "internalType": "string",
          "name": "firstName",
          "type": "string"
        },
        {
          "indexed": false,
          "internalType": "string",
          "name": "lastName",
          "type": "string"
        },
        {
          "indexed": false,
          "internalType": "string",
          "name": "collegeName",
          "type": "string"
        },
        {
          "indexed": false,
          "internalType": "string",
          "name": "programName",
          "type": "string"
        },
        {
          "indexed": false,
          "internalType": "uint256",
          "name": "yearOfStudy",
          "type": "uint256"
        },
        {
          "indexed": false,
          "internalType": "string",
          "name": "regNo",
          "type": "string"
        },
        {
          "indexed": false,
          "internalType": "string",
          "name": "blockNumber",
          "type": "string"
        },
        {
          "indexed": false,
          "internalType": "string",
          "name": "gender",
          "type": "string"
        }
      ],
      "name": "NewPresidentRegistered",
      "type": "event"
    },
    {
      "inputs": [],
      "name": "admin",
      "outputs": [
        {
          "internalType": "address",
          "name": "",
          "type": "address"
        }
      ],
      "stateMutability": "view",
      "type": "function",
      "constant": true
    },
    {
      "inputs": [
        {
          "internalType": "uint256",
          "name": "",
          "type": "uint256"
        }
      ],
      "name": "blockLeaderList",
      "outputs": [
        {
          "internalType": "string",
          "name": "",
          "type": "string"
        }
      ],
      "stateMutability": "view",
      "type": "function",
      "constant": true
    },
    {
      "inputs": [
        {
          "internalType": "address",
          "name": "",
          "type": "address"
        }
      ],
      "name": "blockLeaderVoted",
      "outputs": [
        {
          "internalType": "bool",
          "name": "",
          "type": "bool"
        }
      ],
      "stateMutability": "view",
      "type": "function",
      "constant": true
    },
    {
      "inputs": [
        {
          "internalType": "string",
          "name": "",
          "type": "string"
        }
      ],
      "name": "candidateBlockLeader",
      "outputs": [
        {
          "internalType": "string",
          "name": "firstName",
          "type": "string"
        },
        {
          "internalType": "string",
          "name": "lastName",
          "type": "string"
        },
        {
          "internalType": "string",
          "name": "collegeName",
          "type": "string"
        },
        {
          "internalType": "string",
          "name": "programName",
          "type": "string"
        },
        {
          "internalType": "uint256",
          "name": "yearOfStudy",
          "type": "uint256"
        },
        {
          "internalType": "string",
          "name": "regNo",
          "type": "string"
        },
        {
          "internalType": "string",
          "name": "blockNumber",
          "type": "string"
        },
        {
          "internalType": "string",
          "name": "position",
          "type": "string"
        },
        {
          "internalType": "bool",
          "name": "isWinner",
          "type": "bool"
        },
        {
          "internalType": "uint256",
          "name": "voteCount",
          "type": "uint256"
        }
      ],
      "stateMutability": "view",
      "type": "function",
      "constant": true
    },
    {
      "inputs": [
        {
          "internalType": "string",
          "name": "",
          "type": "string"
        }
      ],
      "name": "candidateGovernor",
      "outputs": [
        {
          "internalType": "string",
          "name": "firstName",
          "type": "string"
        },
        {
          "internalType": "string",
          "name": "lastName",
          "type": "string"
        },
        {
          "internalType": "string",
          "name": "collegeName",
          "type": "string"
        },
        {
          "internalType": "string",
          "name": "programName",
          "type": "string"
        },
        {
          "internalType": "uint256",
          "name": "yearOfStudy",
          "type": "uint256"
        },
        {
          "internalType": "string",
          "name": "regNo",
          "type": "string"
        },
        {
          "internalType": "string",
          "name": "blockNumber",
          "type": "string"
        },
        {
          "internalType": "string",
          "name": "position",
          "type": "string"
        },
        {
          "internalType": "bool",
          "name": "isWinner",
          "type": "bool"
        },
        {
          "internalType": "uint256",
          "name": "voteCount",
          "type": "uint256"
        }
      ],
      "stateMutability": "view",
      "type": "function",
      "constant": true
    },
    {
      "inputs": [
        {
          "internalType": "string",
          "name": "",
          "type": "string"
        }
      ],
      "name": "candidatePresident",
      "outputs": [
        {
          "internalType": "string",
          "name": "firstName",
          "type": "string"
        },
        {
          "internalType": "string",
          "name": "lastName",
          "type": "string"
        },
        {
          "internalType": "string",
          "name": "collegeName",
          "type": "string"
        },
        {
          "internalType": "string",
          "name": "programName",
          "type": "string"
        },
        {
          "internalType": "uint256",
          "name": "yearOfStudy",
          "type": "uint256"
        },
        {
          "internalType": "string",
          "name": "regNo",
          "type": "string"
        },
        {
          "internalType": "string",
          "name": "blockNumber",
          "type": "string"
        },
        {
          "internalType": "string",
          "name": "position",
          "type": "string"
        },
        {
          "internalType": "bool",
          "name": "isWinner",
          "type": "bool"
        },
        {
          "internalType": "uint256",
          "name": "voteCount",
          "type": "uint256"
        }
      ],
      "stateMutability": "view",
      "type": "function",
      "constant": true
    },
    {
      "inputs": [
        {
          "internalType": "uint256",
          "name": "",
          "type": "uint256"
        }
      ],
      "name": "governorList",
      "outputs": [
        {
          "internalType": "string",
          "name": "",
          "type": "string"
        }
      ],
      "stateMutability": "view",
      "type": "function",
      "constant": true
    },
    {
      "inputs": [
        {
          "internalType": "address",
          "name": "",
          "type": "address"
        }
      ],
      "name": "governorVoted",
      "outputs": [
        {
          "internalType": "bool",
          "name": "",
          "type": "bool"
        }
      ],
      "stateMutability": "view",
      "type": "function",
      "constant": true
    },
    {
      "inputs": [],
      "name": "isInitiated",
      "outputs": [
        {
          "internalType": "bool",
          "name": "",
          "type": "bool"
        }
      ],
      "stateMutability": "view",
      "type": "function",
      "constant": true
    },
    {
      "inputs": [
        {
          "internalType": "string",
          "name": "",
          "type": "string"
        }
      ],
      "name": "isRegistered",
      "outputs": [
        {
          "internalType": "bool",
          "name": "",
          "type": "bool"
        }
      ],
      "stateMutability": "view",
      "type": "function",
      "constant": true
    },
    {
      "inputs": [],
      "name": "numberOfBlockLeader",
      "outputs": [
        {
          "internalType": "uint256",
          "name": "",
          "type": "uint256"
        }
      ],
      "stateMutability": "view",
      "type": "function",
      "constant": true
    },
    {
      "inputs": [],
      "name": "numberOfGovernor",
      "outputs": [
        {
          "internalType": "uint256",
          "name": "",
          "type": "uint256"
        }
      ],
      "stateMutability": "view",
      "type": "function",
      "constant": true
    },
    {
      "inputs": [],
      "name": "numberOfPresident",
      "outputs": [
        {
          "internalType": "uint256",
          "name": "",
          "type": "uint256"
        }
      ],
      "stateMutability": "view",
      "type": "function",
      "constant": true
    },
    {
      "inputs": [
        {
          "internalType": "uint256",
          "name": "",
          "type": "uint256"
        }
      ],
      "name": "presidentList",
      "outputs": [
        {
          "internalType": "string",
          "name": "",
          "type": "string"
        }
      ],
      "stateMutability": "view",
      "type": "function",
      "constant": true
    },
    {
      "inputs": [
        {
          "internalType": "address",
          "name": "",
          "type": "address"
        }
      ],
      "name": "presidentVoted",
      "outputs": [
        {
          "internalType": "bool",
          "name": "",
          "type": "bool"
        }
      ],
      "stateMutability": "view",
      "type": "function",
      "constant": true
    },
    {
      "inputs": [],
      "name": "totalVotes",
      "outputs": [
        {
          "internalType": "uint256",
          "name": "",
          "type": "uint256"
        }
      ],
      "stateMutability": "view",
      "type": "function",
      "constant": true
    },
    {
      "inputs": [
        {
          "internalType": "address",
          "name": "newAdmin",
          "type": "address"
        }
      ],
      "name": "transferAdmin",
      "outputs": [],
      "stateMutability": "nonpayable",
      "type": "function"
    },
    {
      "inputs": [],
      "name": "setPublished",
      "outputs": [],
      "stateMutability": "nonpayable",
      "type": "function"
    },
    {
      "inputs": [],
      "name": "getPublished",
      "outputs": [
        {
          "internalType": "bool",
          "name": "",
          "type": "bool"
        }
      ],
      "stateMutability": "view",
      "type": "function",
      "constant": true
    },
    {
      "inputs": [
        {
          "internalType": "string",
          "name": "_firstName",
          "type": "string"
        },
        {
          "internalType": "string",
          "name": "_lastName",
          "type": "string"
        },
        {
          "internalType": "string",
          "name": "_collegeName",
          "type": "string"
        },
        {
          "internalType": "string",
          "name": "_programName",
          "type": "string"
        },
        {
          "internalType": "uint256",
          "name": "_yearOfStudy",
          "type": "uint256"
        },
        {
          "internalType": "string",
          "name": "_regNo",
          "type": "string"
        },
        {
          "internalType": "string",
          "name": "_blockNumber",
          "type": "string"
        }
      ],
      "name": "registerPresident",
      "outputs": [],
      "stateMutability": "nonpayable",
      "type": "function"
    },
    {
      "inputs": [
        {
          "internalType": "string",
          "name": "_firstName",
          "type": "string"
        },
        {
          "internalType": "string",
          "name": "_lastName",
          "type": "string"
        },
        {
          "internalType": "string",
          "name": "_collegeName",
          "type": "string"
        },
        {
          "internalType": "string",
          "name": "_programName",
          "type": "string"
        },
        {
          "internalType": "uint256",
          "name": "_yearOfStudy",
          "type": "uint256"
        },
        {
          "internalType": "string",
          "name": "_regNo",
          "type": "string"
        },
        {
          "internalType": "string",
          "name": "_blockNumber",
          "type": "string"
        }
      ],
      "name": "registerGovernor",
      "outputs": [],
      "stateMutability": "nonpayable",
      "type": "function"
    },
    {
      "inputs": [
        {
          "internalType": "string",
          "name": "_firstName",
          "type": "string"
        },
        {
          "internalType": "string",
          "name": "_lastName",
          "type": "string"
        },
        {
          "internalType": "string",
          "name": "_collegeName",
          "type": "string"
        },
        {
          "internalType": "string",
          "name": "_programName",
          "type": "string"
        },
        {
          "internalType": "uint256",
          "name": "_yearOfStudy",
          "type": "uint256"
        },
        {
          "internalType": "string",
          "name": "_regNo",
          "type": "string"
        },
        {
          "internalType": "string",
          "name": "_blockNumber",
          "type": "string"
        }
      ],
      "name": "registerBlockLeader",
      "outputs": [],
      "stateMutability": "nonpayable",
      "type": "function"
    },
    {
      "inputs": [],
      "name": "getPresidentRegNumber",
      "outputs": [
        {
          "internalType": "string[]",
          "name": "",
          "type": "string[]"
        }
      ],
      "stateMutability": "view",
      "type": "function",
      "constant": true
    },
    {
      "inputs": [
        {
          "internalType": "string",
          "name": "_regNo",
          "type": "string"
        }
      ],
      "name": "viewPresident",
      "outputs": [
        {
          "internalType": "string",
          "name": "firstName",
          "type": "string"
        },
        {
          "internalType": "string",
          "name": "lastName",
          "type": "string"
        },
        {
          "internalType": "string",
          "name": "collegeName",
          "type": "string"
        },
        {
          "internalType": "string",
          "name": "programName",
          "type": "string"
        },
        {
          "internalType": "uint256",
          "name": "yearOfStudy",
          "type": "uint256"
        },
        {
          "internalType": "string",
          "name": "regNo",
          "type": "string"
        },
        {
          "internalType": "string",
          "name": "blockNumber",
          "type": "string"
        },
        {
          "internalType": "string",
          "name": "position",
          "type": "string"
        },
        {
          "internalType": "uint256",
          "name": "voteCount",
          "type": "uint256"
        }
      ],
      "stateMutability": "view",
      "type": "function",
      "constant": true
    },
    {
      "inputs": [],
      "name": "getGovernorRegNumber",
      "outputs": [
        {
          "internalType": "string[]",
          "name": "",
          "type": "string[]"
        }
      ],
      "stateMutability": "view",
      "type": "function",
      "constant": true
    },
    {
      "inputs": [
        {
          "internalType": "string",
          "name": "_regNo",
          "type": "string"
        }
      ],
      "name": "adminViewGovernors",
      "outputs": [
        {
          "internalType": "string",
          "name": "firstName",
          "type": "string"
        },
        {
          "internalType": "string",
          "name": "lastName",
          "type": "string"
        },
        {
          "internalType": "string",
          "name": "collegeName",
          "type": "string"
        },
        {
          "internalType": "string",
          "name": "programName",
          "type": "string"
        },
        {
          "internalType": "uint256",
          "name": "yearOfStudy",
          "type": "uint256"
        },
        {
          "internalType": "string",
          "name": "regNo",
          "type": "string"
        },
        {
          "internalType": "string",
          "name": "blockNumber",
          "type": "string"
        },
        {
          "internalType": "string",
          "name": "position",
          "type": "string"
        },
        {
          "internalType": "uint256",
          "name": "voteCount",
          "type": "uint256"
        }
      ],
      "stateMutability": "view",
      "type": "function",
      "constant": true
    },
    {
      "inputs": [],
      "name": "getBlockLeaderRegNumber",
      "outputs": [
        {
          "internalType": "string[]",
          "name": "",
          "type": "string[]"
        }
      ],
      "stateMutability": "view",
      "type": "function",
      "constant": true
    },
    {
      "inputs": [
        {
          "internalType": "string",
          "name": "_regNo",
          "type": "string"
        }
      ],
      "name": "adminViewBlockLeaders",
      "outputs": [
        {
          "internalType": "string",
          "name": "firstName",
          "type": "string"
        },
        {
          "internalType": "string",
          "name": "lastName",
          "type": "string"
        },
        {
          "internalType": "string",
          "name": "collegeName",
          "type": "string"
        },
        {
          "internalType": "string",
          "name": "programName",
          "type": "string"
        },
        {
          "internalType": "uint256",
          "name": "yearOfStudy",
          "type": "uint256"
        },
        {
          "internalType": "string",
          "name": "regNo",
          "type": "string"
        },
        {
          "internalType": "string",
          "name": "blockNumber",
          "type": "string"
        },
        {
          "internalType": "string",
          "name": "position",
          "type": "string"
        },
        {
          "internalType": "uint256",
          "name": "voteCount",
          "type": "uint256"
        }
      ],
      "stateMutability": "view",
      "type": "function",
      "constant": true
    },
    {
      "inputs": [
        {
          "internalType": "string",
          "name": "_presidentRegNo",
          "type": "string"
        },
        {
          "internalType": "address",
          "name": "_candidateContractAddress",
          "type": "address"
        }
      ],
      "name": "castVotePresident",
      "outputs": [],
      "stateMutability": "nonpayable",
      "type": "function"
    },
    {
      "inputs": [
        {
          "internalType": "string",
          "name": "_governorRegNo",
          "type": "string"
        },
        {
          "internalType": "address",
          "name": "_candidateContractAddress",
          "type": "address"
        }
      ],
      "name": "castVoteGovernor",
      "outputs": [],
      "stateMutability": "nonpayable",
      "type": "function"
    },
    {
      "inputs": [
        {
          "internalType": "string",
          "name": "_blockLeaderRegNo",
          "type": "string"
        },
        {
          "internalType": "address",
          "name": "_candidateContractAddress",
          "type": "address"
        }
      ],
      "name": "castVoteBlockLeader",
      "outputs": [],
      "stateMutability": "nonpayable",
      "type": "function"
    },
    {
      "inputs": [],
      "name": "getWinnerPresident",
      "outputs": [
        {
          "internalType": "string",
          "name": "",
          "type": "string"
        },
        {
          "internalType": "string",
          "name": "",
          "type": "string"
        },
        {
          "internalType": "string",
          "name": "",
          "type": "string"
        },
        {
          "internalType": "string",
          "name": "",
          "type": "string"
        },
        {
          "internalType": "uint256",
          "name": "",
          "type": "uint256"
        }
      ],
      "stateMutability": "view",
      "type": "function",
      "constant": true
    },
    {
      "inputs": [],
      "name": "getWinnerGovernor",
      "outputs": [
        {
          "internalType": "string",
          "name": "",
          "type": "string"
        },
        {
          "internalType": "string",
          "name": "",
          "type": "string"
        },
        {
          "internalType": "string",
          "name": "",
          "type": "string"
        },
        {
          "internalType": "string",
          "name": "",
          "type": "string"
        },
        {
          "internalType": "uint256",
          "name": "",
          "type": "uint256"
        }
      ],
      "stateMutability": "view",
      "type": "function",
      "constant": true
    },
    {
      "inputs": [],
      "name": "getWinnerBlockLeader",
      "outputs": [
        {
          "internalType": "string",
          "name": "",
          "type": "string"
        },
        {
          "internalType": "string",
          "name": "",
          "type": "string"
        },
        {
          "internalType": "string",
          "name": "",
          "type": "string"
        },
        {
          "internalType": "string",
          "name": "",
          "type": "string"
        },
        {
          "internalType": "uint256",
          "name": "",
          "type": "uint256"
        }
      ],
      "stateMutability": "view",
      "type": "function",
      "constant": true
    }
  ],
  "bytecode": "0x608060405234801561001057600080fd5b50336000806101000a81548173ffffffffffffffffffffffffffffffffffffffff021916908373ffffffffffffffffffffffffffffffffffffffff160217905550615fea80620000616000396000f3fe608060405234801561001057600080fd5b50600436106102055760003560e01c8063788cbe841161011a578063c822d7f0116100ad578063e316db4e1161007c578063e316db4e1461064a578063f64450261461067a578063f6ffc117146106b3578063f851a440146106d1578063f9c12009146106ef57610205565b8063c822d7f0146105bc578063daa4348f146105ec578063dccea1891461060e578063e19ca0d31461062c57610205565b806397b0565e116100e957806397b0565e14610546578063a0b0df9514610550578063b339eb1614610580578063b8c597db1461059e57610205565b8063788cbe84146104825780637f8bbbc5146104ba578063828d95f2146104f2578063891715001461052a57610205565b80631ac45f521161019d5780635c57578a1161016c5780635c57578a146103dc5780635f8b9972146103f85780636d75f0de1461042857806372389d631461044a57806375829def1461046657610205565b80631ac45f52146103375780631cb599141461037057806345a8a2be1461038e5780634b20c243146103be57610205565b80630a8b6c2d116101d95780630a8b6c2d146102a25780630d15fd77146102be578063166b4722146102dc57806319fbf89f1461031557610205565b8062b9463b1461020a57806302aac7b21461022657806304ecff8814610256578063052fbf8c14610272575b600080fd5b610224600480360381019061021f9190614c60565b61070d565b005b610240600480360381019061023b9190614cf2565b61097f565b60405161024d9190614d9e565b60405180910390f35b610270600480360381019061026b9190614c60565b610a2b565b005b61028c60048036038101906102879190614dc0565b610c9d565b6040516102999190614e08565b60405180910390f35b6102bc60048036038101906102b79190614c60565b610cbd565b005b6102c6610f2f565b6040516102d39190614e32565b60405180910390f35b6102f660048036038101906102f19190614e4d565b610f35565b60405161030c9a99989796959493929190614e96565b60405180910390f35b61031d611364565b60405161032e959493929190614f63565b60405180910390f35b610351600480360381019061034c9190614e4d565b6118c7565b6040516103679a99989796959493929190614e96565b60405180910390f35b610378611cf6565b6040516103859190614e08565b60405180910390f35b6103a860048036038101906103a39190614cf2565b611d09565b6040516103b59190614d9e565b60405180910390f35b6103c6611db5565b6040516103d391906150de565b60405180910390f35b6103f660048036038101906103f19190615100565b611e8e565b005b610412600480360381019061040d9190614dc0565b61222a565b60405161041f9190614e08565b60405180910390f35b61043061224a565b604051610441959493929190614f63565b60405180910390f35b610464600480360381019061045f9190615100565b6127ad565b005b610480600480360381019061047b9190614dc0565b612ae2565b005b61049c60048036038101906104979190614e4d565b612bb3565b6040516104b19998979695949392919061524a565b60405180910390f35b6104d460048036038101906104cf9190614e4d565b61306a565b6040516104e99998979695949392919061524a565b60405180910390f35b61050c60048036038101906105079190614e4d565b613521565b6040516105219998979695949392919061524a565b60405180910390f35b610544600480360381019061053f9190615100565b6139d8565b005b61054e613d6a565b005b61056a60048036038101906105659190614dc0565b613e15565b6040516105779190614e08565b60405180910390f35b610588613e35565b60405161059591906150de565b60405180910390f35b6105a6613f0e565b6040516105b39190614e32565b60405180910390f35b6105d660048036038101906105d19190614e4d565b613f14565b6040516105e39190614e08565b60405180910390f35b6105f4613f4a565b604051610605959493929190614f63565b60405180910390f35b6106166144ad565b6040516106239190614e32565b60405180910390f35b6106346144b3565b6040516106419190614e08565b60405180910390f35b610664600480360381019061065f9190614cf2565b6144ca565b6040516106719190614d9e565b60405180910390f35b610694600480360381019061068f9190614e4d565b614576565b6040516106aa9a99989796959493929190614e96565b60405180910390f35b6106bb6149a5565b6040516106c89190614e32565b60405180910390f35b6106d96149ab565b6040516106e69190615317565b60405180910390f35b6106f76149cf565b60405161070491906150de565b60405180910390f35b60008190508073ffffffffffffffffffffffffffffffffffffffff1663d4f50f98336040518263ffffffff1660e01b815260040161074b9190615317565b600060405180830381865afa158015610768573d6000803e3d6000fd5b505050506040513d6000823e3d601f19601f820116820180604052508101906107919190615604565b61014001516107d5576040517f08c379a00000000000000000000000000000000000000000000000000000000081526004016107cc90615699565b60405180910390fd5b6006836040516107e591906156f5565b908152602001604051809103902060009054906101000a900460ff16610840576040517f08c379a000000000000000000000000000000000000000000000000000000000815260040161083790615758565b60405180910390fd5b600c60003373ffffffffffffffffffffffffffffffffffffffff1673ffffffffffffffffffffffffffffffffffffffff16815260200190815260200160002060009054906101000a900460ff16156108cd576040517f08c379a00000000000000000000000000000000000000000000000000000000081526004016108c4906157ea565b60405180910390fd5b6001600c60003373ffffffffffffffffffffffffffffffffffffffff1673ffffffffffffffffffffffffffffffffffffffff16815260200190815260200160002060006101000a81548160ff021916908315150217905550600060098460405161093791906156f5565b9081526020016040518091039020905080600901600081548092919061095c90615839565b91905055506005600081548092919061097490615839565b919050555050505050565b600f818154811061098f57600080fd5b9060005260206000200160009150905080546109aa906158b0565b80601f01602080910402602001604051908101604052809291908181526020018280546109d6906158b0565b8015610a235780601f106109f857610100808354040283529160200191610a23565b820191906000526020600020905b815481529060010190602001808311610a0657829003601f168201915b505050505081565b60008190508073ffffffffffffffffffffffffffffffffffffffff1663d4f50f98336040518263ffffffff1660e01b8152600401610a699190615317565b600060405180830381865afa158015610a86573d6000803e3d6000fd5b505050506040513d6000823e3d601f19601f82011682018060405250810190610aaf9190615604565b6101400151610af3576040517f08c379a0000000000000000000000000000000000000000000000000000000008152600401610aea90615699565b60405180910390fd5b600683604051610b0391906156f5565b908152602001604051809103902060009054906101000a900460ff16610b5e576040517f08c379a0000000000000000000000000000000000000000000000000000000008152600401610b5590615758565b60405180910390fd5b600d60003373ffffffffffffffffffffffffffffffffffffffff1673ffffffffffffffffffffffffffffffffffffffff16815260200190815260200160002060009054906101000a900460ff1615610beb576040517f08c379a0000000000000000000000000000000000000000000000000000000008152600401610be290615953565b60405180910390fd5b6001600d60003373ffffffffffffffffffffffffffffffffffffffff1673ffffffffffffffffffffffffffffffffffffffff16815260200190815260200160002060006101000a81548160ff0219169083151502179055506000600a84604051610c5591906156f5565b90815260200160405180910390209050806009016000815480929190610c7a90615839565b919050555060056000815480929190610c9290615839565b919050555050505050565b600d6020528060005260406000206000915054906101000a900460ff1681565b60008190508073ffffffffffffffffffffffffffffffffffffffff1663d4f50f98336040518263ffffffff1660e01b8152600401610cfb9190615317565b600060405180830381865afa158015610d18573d6000803e3d6000fd5b505050506040513d6000823e3d601f19601f82011682018060405250810190610d419190615604565b6101400151610d85576040517f08c379a0000000000000000000000000000000000000000000000000000000008152600401610d7c90615699565b60405180910390fd5b600683604051610d9591906156f5565b908152602001604051809103902060009054906101000a900460ff16610df0576040517f08c379a0000000000000000000000000000000000000000000000000000000008152600401610de790615758565b60405180910390fd5b600b60003373ffffffffffffffffffffffffffffffffffffffff1673ffffffffffffffffffffffffffffffffffffffff16815260200190815260200160002060009054906101000a900460ff1615610e7d576040517f08c379a0000000000000000000000000000000000000000000000000000000008152600401610e74906159e5565b60405180910390fd5b6001600b60003373ffffffffffffffffffffffffffffffffffffffff1673ffffffffffffffffffffffffffffffffffffffff16815260200190815260200160002060006101000a81548160ff0219169083151502179055506000600884604051610ee791906156f5565b90815260200160405180910390209050806009016000815480929190610f0c90615839565b919050555060056000815480929190610f2490615839565b919050555050505050565b60055481565b600881805160208101820180518482526020830160208501208183528095505050505050600091509050806000018054610f6e906158b0565b80601f0160208091040260200160405190810160405280929190818152602001828054610f9a906158b0565b8015610fe75780601f10610fbc57610100808354040283529160200191610fe7565b820191906000526020600020905b815481529060010190602001808311610fca57829003601f168201915b505050505090806001018054610ffc906158b0565b80601f0160208091040260200160405190810160405280929190818152602001828054611028906158b0565b80156110755780601f1061104a57610100808354040283529160200191611075565b820191906000526020600020905b81548152906001019060200180831161105857829003601f168201915b50505050509080600201805461108a906158b0565b80601f01602080910402602001604051908101604052809291908181526020018280546110b6906158b0565b80156111035780601f106110d857610100808354040283529160200191611103565b820191906000526020600020905b8154815290600101906020018083116110e657829003601f168201915b505050505090806003018054611118906158b0565b80601f0160208091040260200160405190810160405280929190818152602001828054611144906158b0565b80156111915780601f1061116657610100808354040283529160200191611191565b820191906000526020600020905b81548152906001019060200180831161117457829003601f168201915b5050505050908060040154908060050180546111ac906158b0565b80601f01602080910402602001604051908101604052809291908181526020018280546111d8906158b0565b80156112255780601f106111fa57610100808354040283529160200191611225565b820191906000526020600020905b81548152906001019060200180831161120857829003601f168201915b50505050509080600601805461123a906158b0565b80601f0160208091040260200160405190810160405280929190818152602001828054611266906158b0565b80156112b35780601f10611288576101008083540402835291602001916112b3565b820191906000526020600020905b81548152906001019060200180831161129657829003601f168201915b5050505050908060070180546112c8906158b0565b80601f01602080910402602001604051908101604052809291908181526020018280546112f4906158b0565b80156113415780601f1061131657610100808354040283529160200191611341565b820191906000526020600020905b81548152906001019060200180831161132457829003601f168201915b5050505050908060080160009054906101000a900460ff1690806009015490508a565b606080606080600080600090506000805b6010805490508110156114205782600a6010838154811061139957611398615a05565b5b906000526020600020016040516113b09190615acc565b908152602001604051809103902060090154111561140d57600a601082815481106113de576113dd615a05565b5b906000526020600020016040516113f59190615acc565b90815260200160405180910390206009015492508091505b808061141890615839565b915050611375565b506000600a6010838154811061143957611438615a05565b5b906000526020600020016040516114509190615acc565b90815260200160405180910390206040518061014001604052908160008201805461147a906158b0565b80601f01602080910402602001604051908101604052809291908181526020018280546114a6906158b0565b80156114f35780601f106114c8576101008083540402835291602001916114f3565b820191906000526020600020905b8154815290600101906020018083116114d657829003601f168201915b5050505050815260200160018201805461150c906158b0565b80601f0160208091040260200160405190810160405280929190818152602001828054611538906158b0565b80156115855780601f1061155a57610100808354040283529160200191611585565b820191906000526020600020905b81548152906001019060200180831161156857829003601f168201915b5050505050815260200160028201805461159e906158b0565b80601f01602080910402602001604051908101604052809291908181526020018280546115ca906158b0565b80156116175780601f106115ec57610100808354040283529160200191611617565b820191906000526020600020905b8154815290600101906020018083116115fa57829003601f168201915b50505050508152602001600382018054611630906158b0565b80601f016020809104026020016040519081016040528092919081815260200182805461165c906158b0565b80156116a95780601f1061167e576101008083540402835291602001916116a9565b820191906000526020600020905b81548152906001019060200180831161168c57829003601f168201915b50505050508152602001600482015481526020016005820180546116cc906158b0565b80601f01602080910402602001604051908101604052809291908181526020018280546116f8906158b0565b80156117455780601f1061171a57610100808354040283529160200191611745565b820191906000526020600020905b81548152906001019060200180831161172857829003601f168201915b5050505050815260200160068201805461175e906158b0565b80601f016020809104026020016040519081016040528092919081815260200182805461178a906158b0565b80156117d75780601f106117ac576101008083540402835291602001916117d7565b820191906000526020600020905b8154815290600101906020018083116117ba57829003601f168201915b505050505081526020016007820180546117f0906158b0565b80601f016020809104026020016040519081016040528092919081815260200182805461181c906158b0565b80156118695780601f1061183e57610100808354040283529160200191611869565b820191906000526020600020905b81548152906001019060200180831161184c57829003601f168201915b505050505081526020016008820160009054906101000a900460ff1615151515815260200160098201548152505090508060000151816020015182604001518360e00151846101200151975097509750975097505050509091929394565b600a81805160208101820180518482526020830160208501208183528095505050505050600091509050806000018054611900906158b0565b80601f016020809104026020016040519081016040528092919081815260200182805461192c906158b0565b80156119795780601f1061194e57610100808354040283529160200191611979565b820191906000526020600020905b81548152906001019060200180831161195c57829003601f168201915b50505050509080600101805461198e906158b0565b80601f01602080910402602001604051908101604052809291908181526020018280546119ba906158b0565b8015611a075780601f106119dc57610100808354040283529160200191611a07565b820191906000526020600020905b8154815290600101906020018083116119ea57829003601f168201915b505050505090806002018054611a1c906158b0565b80601f0160208091040260200160405190810160405280929190818152602001828054611a48906158b0565b8015611a955780601f10611a6a57610100808354040283529160200191611a95565b820191906000526020600020905b815481529060010190602001808311611a7857829003601f168201915b505050505090806003018054611aaa906158b0565b80601f0160208091040260200160405190810160405280929190818152602001828054611ad6906158b0565b8015611b235780601f10611af857610100808354040283529160200191611b23565b820191906000526020600020905b815481529060010190602001808311611b0657829003601f168201915b505050505090806004015490806005018054611b3e906158b0565b80601f0160208091040260200160405190810160405280929190818152602001828054611b6a906158b0565b8015611bb75780601f10611b8c57610100808354040283529160200191611bb7565b820191906000526020600020905b815481529060010190602001808311611b9a57829003601f168201915b505050505090806006018054611bcc906158b0565b80601f0160208091040260200160405190810160405280929190818152602001828054611bf8906158b0565b8015611c455780601f10611c1a57610100808354040283529160200191611c45565b820191906000526020600020905b815481529060010190602001808311611c2857829003601f168201915b505050505090806007018054611c5a906158b0565b80601f0160208091040260200160405190810160405280929190818152602001828054611c86906158b0565b8015611cd35780601f10611ca857610100808354040283529160200191611cd3565b820191906000526020600020905b815481529060010190602001808311611cb657829003601f168201915b5050505050908060080160009054906101000a900460ff1690806009015490508a565b600460009054906101000a900460ff1681565b60108181548110611d1957600080fd5b906000526020600020016000915090508054611d34906158b0565b80601f0160208091040260200160405190810160405280929190818152602001828054611d60906158b0565b8015611dad5780601f10611d8257610100808354040283529160200191611dad565b820191906000526020600020905b815481529060010190602001808311611d9057829003601f168201915b505050505081565b6060600e805480602002602001604051908101604052809291908181526020016000905b82821015611e85578382906000526020600020018054611df8906158b0565b80601f0160208091040260200160405190810160405280929190818152602001828054611e24906158b0565b8015611e715780601f10611e4657610100808354040283529160200191611e71565b820191906000526020600020905b815481529060010190602001808311611e5457829003601f168201915b505050505081526020019060010190611dd9565b50505050905090565b60008054906101000a900473ffffffffffffffffffffffffffffffffffffffff1673ffffffffffffffffffffffffffffffffffffffff163373ffffffffffffffffffffffffffffffffffffffff1614611f1c576040517f08c379a0000000000000000000000000000000000000000000000000000000008152600401611f1390615b55565b60405180910390fd5b600460009054906101000a900460ff1615611f6c576040517f08c379a0000000000000000000000000000000000000000000000000000000008152600401611f6390615bc1565b60405180910390fd5b600682604051611f7c91906156f5565b908152602001604051809103902060009054906101000a900460ff1615611fd8576040517f08c379a0000000000000000000000000000000000000000000000000000000008152600401611fcf90615c2d565b60405180910390fd5b600083118015611fe85750600583105b612027576040517f08c379a000000000000000000000000000000000000000000000000000000000815260040161201e90615c99565b60405180910390fd5b60006040518061014001604052808981526020018881526020018781526020018681526020018581526020018481526020018381526020016040518060400160405280600881526020017f474f5645524e4f5200000000000000000000000000000000000000000000000081525081526020016000151581526020016000815250905060016006846040516120bc91906156f5565b908152602001604051809103902060006101000a81548160ff021916908315150217905550806009846040516120f291906156f5565b908152602001604051809103902060008201518160000190816121159190615e50565b50602082015181600101908161212b9190615e50565b5060408201518160020190816121419190615e50565b5060608201518160030190816121579190615e50565b506080820151816004015560a08201518160050190816121779190615e50565b5060c082015181600601908161218d9190615e50565b5060e08201518160070190816121a39190615e50565b506101008201518160080160006101000a81548160ff0219169083151502179055506101208201518160090155905050600f839080600181540180825580915050600190039060005260206000200160009091909190915090816122079190615e50565b506012600081548092919061221b90615839565b91905055505050505050505050565b600b6020528060005260406000206000915054906101000a900460ff1681565b606080606080600080600090506000805b600f8054905081101561230657826009600f838154811061227f5761227e615a05565b5b906000526020600020016040516122969190615acc565b90815260200160405180910390206009015411156122f3576009600f82815481106122c4576122c3615a05565b5b906000526020600020016040516122db9190615acc565b90815260200160405180910390206009015492508091505b80806122fe90615839565b91505061225b565b5060006009600f838154811061231f5761231e615a05565b5b906000526020600020016040516123369190615acc565b908152602001604051809103902060405180610140016040529081600082018054612360906158b0565b80601f016020809104026020016040519081016040528092919081815260200182805461238c906158b0565b80156123d95780601f106123ae576101008083540402835291602001916123d9565b820191906000526020600020905b8154815290600101906020018083116123bc57829003601f168201915b505050505081526020016001820180546123f2906158b0565b80601f016020809104026020016040519081016040528092919081815260200182805461241e906158b0565b801561246b5780601f106124405761010080835404028352916020019161246b565b820191906000526020600020905b81548152906001019060200180831161244e57829003601f168201915b50505050508152602001600282018054612484906158b0565b80601f01602080910402602001604051908101604052809291908181526020018280546124b0906158b0565b80156124fd5780601f106124d2576101008083540402835291602001916124fd565b820191906000526020600020905b8154815290600101906020018083116124e057829003601f168201915b50505050508152602001600382018054612516906158b0565b80601f0160208091040260200160405190810160405280929190818152602001828054612542906158b0565b801561258f5780601f106125645761010080835404028352916020019161258f565b820191906000526020600020905b81548152906001019060200180831161257257829003601f168201915b50505050508152602001600482015481526020016005820180546125b2906158b0565b80601f01602080910402602001604051908101604052809291908181526020018280546125de906158b0565b801561262b5780601f106126005761010080835404028352916020019161262b565b820191906000526020600020905b81548152906001019060200180831161260e57829003601f168201915b50505050508152602001600682018054612644906158b0565b80601f0160208091040260200160405190810160405280929190818152602001828054612670906158b0565b80156126bd5780601f10612692576101008083540402835291602001916126bd565b820191906000526020600020905b8154815290600101906020018083116126a057829003601f168201915b505050505081526020016007820180546126d6906158b0565b80601f0160208091040260200160405190810160405280929190818152602001828054612702906158b0565b801561274f5780601f106127245761010080835404028352916020019161274f565b820191906000526020600020905b81548152906001019060200180831161273257829003601f168201915b505050505081526020016008820160009054906101000a900460ff1615151515815260200160098201548152505090508060000151816020015182604001518360e00151846101200151975097509750975097505050509091929394565b60008054906101000a900473ffffffffffffffffffffffffffffffffffffffff1673ffffffffffffffffffffffffffffffffffffffff163373ffffffffffffffffffffffffffffffffffffffff161461283b576040517f08c379a000000000000000000000000000000000000000000000000000000000815260040161283290615b55565b60405180910390fd5b600460009054906101000a900460ff161561288b576040517f08c379a000000000000000000000000000000000000000000000000000000000815260040161288290615bc1565b60405180910390fd5b60068260405161289b91906156f5565b908152602001604051809103902060009054906101000a900460ff16156128f7576040517f08c379a00000000000000000000000000000000000000000000000000000000081526004016128ee90615c2d565b60405180910390fd5b60006040518061014001604052808981526020018881526020018781526020018681526020018581526020018481526020018381526020016040518060400160405280600c81526020017f424c4f434b204c45414445520000000000000000000000000000000000000000815250815260200160001515815260200160008152509050600160068460405161298c91906156f5565b908152602001604051809103902060006101000a81548160ff02191690831515021790555080600a846040516129c291906156f5565b908152602001604051809103902060008201518160000190816129e59190615e50565b5060208201518160010190816129fb9190615e50565b506040820151816002019081612a119190615e50565b506060820151816003019081612a279190615e50565b506080820151816004015560a0820151816005019081612a479190615e50565b5060c0820151816006019081612a5d9190615e50565b5060e0820151816007019081612a739190615e50565b506101008201518160080160006101000a81548160ff0219169083151502179055506101208201518160090155905050601083908060018154018082558091505060019003906000526020600020016000909190919091509081612ad79190615e50565b505050505050505050565b60008054906101000a900473ffffffffffffffffffffffffffffffffffffffff1673ffffffffffffffffffffffffffffffffffffffff163373ffffffffffffffffffffffffffffffffffffffff1614612b70576040517f08c379a0000000000000000000000000000000000000000000000000000000008152600401612b6790615b55565b60405180910390fd5b806000806101000a81548173ffffffffffffffffffffffffffffffffffffffff021916908373ffffffffffffffffffffffffffffffffffffffff16021790555050565b6060806060806000606080606060008060088b604051612bd391906156f5565b908152602001604051809103902060405180610140016040529081600082018054612bfd906158b0565b80601f0160208091040260200160405190810160405280929190818152602001828054612c29906158b0565b8015612c765780601f10612c4b57610100808354040283529160200191612c76565b820191906000526020600020905b815481529060010190602001808311612c5957829003601f168201915b50505050508152602001600182018054612c8f906158b0565b80601f0160208091040260200160405190810160405280929190818152602001828054612cbb906158b0565b8015612d085780601f10612cdd57610100808354040283529160200191612d08565b820191906000526020600020905b815481529060010190602001808311612ceb57829003601f168201915b50505050508152602001600282018054612d21906158b0565b80601f0160208091040260200160405190810160405280929190818152602001828054612d4d906158b0565b8015612d9a5780601f10612d6f57610100808354040283529160200191612d9a565b820191906000526020600020905b815481529060010190602001808311612d7d57829003601f168201915b50505050508152602001600382018054612db3906158b0565b80601f0160208091040260200160405190810160405280929190818152602001828054612ddf906158b0565b8015612e2c5780601f10612e0157610100808354040283529160200191612e2c565b820191906000526020600020905b815481529060010190602001808311612e0f57829003601f168201915b5050505050815260200160048201548152602001600582018054612e4f906158b0565b80601f0160208091040260200160405190810160405280929190818152602001828054612e7b906158b0565b8015612ec85780601f10612e9d57610100808354040283529160200191612ec8565b820191906000526020600020905b815481529060010190602001808311612eab57829003601f168201915b50505050508152602001600682018054612ee1906158b0565b80601f0160208091040260200160405190810160405280929190818152602001828054612f0d906158b0565b8015612f5a5780601f10612f2f57610100808354040283529160200191612f5a565b820191906000526020600020905b815481529060010190602001808311612f3d57829003601f168201915b50505050508152602001600782018054612f73906158b0565b80601f0160208091040260200160405190810160405280929190818152602001828054612f9f906158b0565b8015612fec5780601f10612fc157610100808354040283529160200191612fec565b820191906000526020600020905b815481529060010190602001808311612fcf57829003601f168201915b505050505081526020016008820160009054906101000a900460ff16151515158152602001600982015481525050905080600001519950806020015198508060400151975080606001519650806080015195508060a0015194508060c0015193508060e0015192508061012001519150509193959799909294969850565b60608060608060006060806060600080600a8b60405161308a91906156f5565b9081526020016040518091039020604051806101400160405290816000820180546130b4906158b0565b80601f01602080910402602001604051908101604052809291908181526020018280546130e0906158b0565b801561312d5780601f106131025761010080835404028352916020019161312d565b820191906000526020600020905b81548152906001019060200180831161311057829003601f168201915b50505050508152602001600182018054613146906158b0565b80601f0160208091040260200160405190810160405280929190818152602001828054613172906158b0565b80156131bf5780601f10613194576101008083540402835291602001916131bf565b820191906000526020600020905b8154815290600101906020018083116131a257829003601f168201915b505050505081526020016002820180546131d8906158b0565b80601f0160208091040260200160405190810160405280929190818152602001828054613204906158b0565b80156132515780601f1061322657610100808354040283529160200191613251565b820191906000526020600020905b81548152906001019060200180831161323457829003601f168201915b5050505050815260200160038201805461326a906158b0565b80601f0160208091040260200160405190810160405280929190818152602001828054613296906158b0565b80156132e35780601f106132b8576101008083540402835291602001916132e3565b820191906000526020600020905b8154815290600101906020018083116132c657829003601f168201915b5050505050815260200160048201548152602001600582018054613306906158b0565b80601f0160208091040260200160405190810160405280929190818152602001828054613332906158b0565b801561337f5780601f106133545761010080835404028352916020019161337f565b820191906000526020600020905b81548152906001019060200180831161336257829003601f168201915b50505050508152602001600682018054613398906158b0565b80601f01602080910402602001604051908101604052809291908181526020018280546133c4906158b0565b80156134115780601f106133e657610100808354040283529160200191613411565b820191906000526020600020905b8154815290600101906020018083116133f457829003601f168201915b5050505050815260200160078201805461342a906158b0565b80601f0160208091040260200160405190810160405280929190818152602001828054613456906158b0565b80156134a35780601f10613478576101008083540402835291602001916134a3565b820191906000526020600020905b81548152906001019060200180831161348657829003601f168201915b505050505081526020016008820160009054906101000a900460ff16151515158152602001600982015481525050905080600001519950806020015198508060400151975080606001519650806080015195508060a0015194508060c0015193508060e0015192508061012001519150509193959799909294969850565b6060806060806000606080606060008060098b60405161354191906156f5565b90815260200160405180910390206040518061014001604052908160008201805461356b906158b0565b80601f0160208091040260200160405190810160405280929190818152602001828054613597906158b0565b80156135e45780601f106135b9576101008083540402835291602001916135e4565b820191906000526020600020905b8154815290600101906020018083116135c757829003601f168201915b505050505081526020016001820180546135fd906158b0565b80601f0160208091040260200160405190810160405280929190818152602001828054613629906158b0565b80156136765780601f1061364b57610100808354040283529160200191613676565b820191906000526020600020905b81548152906001019060200180831161365957829003601f168201915b5050505050815260200160028201805461368f906158b0565b80601f01602080910402602001604051908101604052809291908181526020018280546136bb906158b0565b80156137085780601f106136dd57610100808354040283529160200191613708565b820191906000526020600020905b8154815290600101906020018083116136eb57829003601f168201915b50505050508152602001600382018054613721906158b0565b80601f016020809104026020016040519081016040528092919081815260200182805461374d906158b0565b801561379a5780601f1061376f5761010080835404028352916020019161379a565b820191906000526020600020905b81548152906001019060200180831161377d57829003601f168201915b50505050508152602001600482015481526020016005820180546137bd906158b0565b80601f01602080910402602001604051908101604052809291908181526020018280546137e9906158b0565b80156138365780601f1061380b57610100808354040283529160200191613836565b820191906000526020600020905b81548152906001019060200180831161381957829003601f168201915b5050505050815260200160068201805461384f906158b0565b80601f016020809104026020016040519081016040528092919081815260200182805461387b906158b0565b80156138c85780601f1061389d576101008083540402835291602001916138c8565b820191906000526020600020905b8154815290600101906020018083116138ab57829003601f168201915b505050505081526020016007820180546138e1906158b0565b80601f016020809104026020016040519081016040528092919081815260200182805461390d906158b0565b801561395a5780601f1061392f5761010080835404028352916020019161395a565b820191906000526020600020905b81548152906001019060200180831161393d57829003601f168201915b505050505081526020016008820160009054906101000a900460ff16151515158152602001600982015481525050905080600001519950806020015198508060400151975080606001519650806080015195508060a0015194508060c0015193508060e0015192508061012001519150509193959799909294969850565b60008054906101000a900473ffffffffffffffffffffffffffffffffffffffff1673ffffffffffffffffffffffffffffffffffffffff163373ffffffffffffffffffffffffffffffffffffffff1614613a66576040517f08c379a0000000000000000000000000000000000000000000000000000000008152600401613a5d90615b55565b60405180910390fd5b600460009054906101000a900460ff1615613ab6576040517f08c379a0000000000000000000000000000000000000000000000000000000008152600401613aad90615bc1565b60405180910390fd5b600682604051613ac691906156f5565b908152602001604051809103902060009054906101000a900460ff1615613b22576040517f08c379a0000000000000000000000000000000000000000000000000000000008152600401613b1990615c2d565b60405180910390fd5b600260115410613b67576040517f08c379a0000000000000000000000000000000000000000000000000000000008152600401613b5e90615f94565b60405180910390fd5b60006040518061014001604052808981526020018881526020018781526020018681526020018581526020018481526020018381526020016040518060400160405280600981526020017f505245534944454e5400000000000000000000000000000000000000000000008152508152602001600015158152602001600081525090506001600684604051613bfc91906156f5565b908152602001604051809103902060006101000a81548160ff02191690831515021790555080600884604051613c3291906156f5565b90815260200160405180910390206000820151816000019081613c559190615e50565b506020820151816001019081613c6b9190615e50565b506040820151816002019081613c819190615e50565b506060820151816003019081613c979190615e50565b506080820151816004015560a0820151816005019081613cb79190615e50565b5060c0820151816006019081613ccd9190615e50565b5060e0820151816007019081613ce39190615e50565b506101008201518160080160006101000a81548160ff0219169083151502179055506101208201518160090155905050600e83908060018154018082558091505060019003906000526020600020016000909190919091509081613d479190615e50565b5060116000815480929190613d5b90615839565b91905055505050505050505050565b60008054906101000a900473ffffffffffffffffffffffffffffffffffffffff1673ffffffffffffffffffffffffffffffffffffffff163373ffffffffffffffffffffffffffffffffffffffff1614613df8576040517f08c379a0000000000000000000000000000000000000000000000000000000008152600401613def90615b55565b60405180910390fd5b6001600760006101000a81548160ff021916908315150217905550565b600c6020528060005260406000206000915054906101000a900460ff1681565b6060600f805480602002602001604051908101604052809291908181526020016000905b82821015613f05578382906000526020600020018054613e78906158b0565b80601f0160208091040260200160405190810160405280929190818152602001828054613ea4906158b0565b8015613ef15780601f10613ec657610100808354040283529160200191613ef1565b820191906000526020600020905b815481529060010190602001808311613ed457829003601f168201915b505050505081526020019060010190613e59565b50505050905090565b60125481565b6006818051602081018201805184825260208301602085012081835280955050505050506000915054906101000a900460ff1681565b606080606080600080600090506000805b600e8054905081101561400657826008600e8381548110613f7f57613f7e615a05565b5b90600052602060002001604051613f969190615acc565b9081526020016040518091039020600901541115613ff3576008600e8281548110613fc457613fc3615a05565b5b90600052602060002001604051613fdb9190615acc565b90815260200160405180910390206009015492508091505b8080613ffe90615839565b915050613f5b565b5060006008600e838154811061401f5761401e615a05565b5b906000526020600020016040516140369190615acc565b908152602001604051809103902060405180610140016040529081600082018054614060906158b0565b80601f016020809104026020016040519081016040528092919081815260200182805461408c906158b0565b80156140d95780601f106140ae576101008083540402835291602001916140d9565b820191906000526020600020905b8154815290600101906020018083116140bc57829003601f168201915b505050505081526020016001820180546140f2906158b0565b80601f016020809104026020016040519081016040528092919081815260200182805461411e906158b0565b801561416b5780601f106141405761010080835404028352916020019161416b565b820191906000526020600020905b81548152906001019060200180831161414e57829003601f168201915b50505050508152602001600282018054614184906158b0565b80601f01602080910402602001604051908101604052809291908181526020018280546141b0906158b0565b80156141fd5780601f106141d2576101008083540402835291602001916141fd565b820191906000526020600020905b8154815290600101906020018083116141e057829003601f168201915b50505050508152602001600382018054614216906158b0565b80601f0160208091040260200160405190810160405280929190818152602001828054614242906158b0565b801561428f5780601f106142645761010080835404028352916020019161428f565b820191906000526020600020905b81548152906001019060200180831161427257829003601f168201915b50505050508152602001600482015481526020016005820180546142b2906158b0565b80601f01602080910402602001604051908101604052809291908181526020018280546142de906158b0565b801561432b5780601f106143005761010080835404028352916020019161432b565b820191906000526020600020905b81548152906001019060200180831161430e57829003601f168201915b50505050508152602001600682018054614344906158b0565b80601f0160208091040260200160405190810160405280929190818152602001828054614370906158b0565b80156143bd5780601f10614392576101008083540402835291602001916143bd565b820191906000526020600020905b8154815290600101906020018083116143a057829003601f168201915b505050505081526020016007820180546143d6906158b0565b80601f0160208091040260200160405190810160405280929190818152602001828054614402906158b0565b801561444f5780601f106144245761010080835404028352916020019161444f565b820191906000526020600020905b81548152906001019060200180831161443257829003601f168201915b505050505081526020016008820160009054906101000a900460ff1615151515815260200160098201548152505090508060000151816020015182604001518360e00151846101200151975097509750975097505050509091929394565b60115481565b6000600760009054906101000a900460ff16905090565b600e81815481106144da57600080fd5b9060005260206000200160009150905080546144f5906158b0565b80601f0160208091040260200160405190810160405280929190818152602001828054614521906158b0565b801561456e5780601f106145435761010080835404028352916020019161456e565b820191906000526020600020905b81548152906001019060200180831161455157829003601f168201915b505050505081565b6009818051602081018201805184825260208301602085012081835280955050505050506000915090508060000180546145af906158b0565b80601f01602080910402602001604051908101604052809291908181526020018280546145db906158b0565b80156146285780601f106145fd57610100808354040283529160200191614628565b820191906000526020600020905b81548152906001019060200180831161460b57829003601f168201915b50505050509080600101805461463d906158b0565b80601f0160208091040260200160405190810160405280929190818152602001828054614669906158b0565b80156146b65780601f1061468b576101008083540402835291602001916146b6565b820191906000526020600020905b81548152906001019060200180831161469957829003601f168201915b5050505050908060020180546146cb906158b0565b80601f01602080910402602001604051908101604052809291908181526020018280546146f7906158b0565b80156147445780601f1061471957610100808354040283529160200191614744565b820191906000526020600020905b81548152906001019060200180831161472757829003601f168201915b505050505090806003018054614759906158b0565b80601f0160208091040260200160405190810160405280929190818152602001828054614785906158b0565b80156147d25780601f106147a7576101008083540402835291602001916147d2565b820191906000526020600020905b8154815290600101906020018083116147b557829003601f168201915b5050505050908060040154908060050180546147ed906158b0565b80601f0160208091040260200160405190810160405280929190818152602001828054614819906158b0565b80156148665780601f1061483b57610100808354040283529160200191614866565b820191906000526020600020905b81548152906001019060200180831161484957829003601f168201915b50505050509080600601805461487b906158b0565b80601f01602080910402602001604051908101604052809291908181526020018280546148a7906158b0565b80156148f45780601f106148c9576101008083540402835291602001916148f4565b820191906000526020600020905b8154815290600101906020018083116148d757829003601f168201915b505050505090806007018054614909906158b0565b80601f0160208091040260200160405190810160405280929190818152602001828054614935906158b0565b80156149825780601f1061495757610100808354040283529160200191614982565b820191906000526020600020905b81548152906001019060200180831161496557829003601f168201915b5050505050908060080160009054906101000a900460ff1690806009015490508a565b60135481565b60008054906101000a900473ffffffffffffffffffffffffffffffffffffffff1681565b60606010805480602002602001604051908101604052809291908181526020016000905b82821015614a9f578382906000526020600020018054614a12906158b0565b80601f0160208091040260200160405190810160405280929190818152602001828054614a3e906158b0565b8015614a8b5780601f10614a6057610100808354040283529160200191614a8b565b820191906000526020600020905b815481529060010190602001808311614a6e57829003601f168201915b5050505050815260200190600101906149f3565b50505050905090565b6000604051905090565b600080fd5b600080fd5b600080fd5b600080fd5b6000601f19601f8301169050919050565b7f4e487b7100000000000000000000000000000000000000000000000000000000600052604160045260246000fd5b614b0f82614ac6565b810181811067ffffffffffffffff82111715614b2e57614b2d614ad7565b5b80604052505050565b6000614b41614aa8565b9050614b4d8282614b06565b919050565b600067ffffffffffffffff821115614b6d57614b6c614ad7565b5b614b7682614ac6565b9050602081019050919050565b82818337600083830152505050565b6000614ba5614ba084614b52565b614b37565b905082815260208101848484011115614bc157614bc0614ac1565b5b614bcc848285614b83565b509392505050565b600082601f830112614be957614be8614abc565b5b8135614bf9848260208601614b92565b91505092915050565b600073ffffffffffffffffffffffffffffffffffffffff82169050919050565b6000614c2d82614c02565b9050919050565b614c3d81614c22565b8114614c4857600080fd5b50565b600081359050614c5a81614c34565b92915050565b60008060408385031215614c7757614c76614ab2565b5b600083013567ffffffffffffffff811115614c9557614c94614ab7565b5b614ca185828601614bd4565b9250506020614cb285828601614c4b565b9150509250929050565b6000819050919050565b614ccf81614cbc565b8114614cda57600080fd5b50565b600081359050614cec81614cc6565b92915050565b600060208284031215614d0857614d07614ab2565b5b6000614d1684828501614cdd565b91505092915050565b600081519050919050565b600082825260208201905092915050565b60005b83811015614d59578082015181840152602081019050614d3e565b60008484015250505050565b6000614d7082614d1f565b614d7a8185614d2a565b9350614d8a818560208601614d3b565b614d9381614ac6565b840191505092915050565b60006020820190508181036000830152614db88184614d65565b905092915050565b600060208284031215614dd657614dd5614ab2565b5b6000614de484828501614c4b565b91505092915050565b60008115159050919050565b614e0281614ded565b82525050565b6000602082019050614e1d6000830184614df9565b92915050565b614e2c81614cbc565b82525050565b6000602082019050614e476000830184614e23565b92915050565b600060208284031215614e6357614e62614ab2565b5b600082013567ffffffffffffffff811115614e8157614e80614ab7565b5b614e8d84828501614bd4565b91505092915050565b6000610140820190508181036000830152614eb1818d614d65565b90508181036020830152614ec5818c614d65565b90508181036040830152614ed9818b614d65565b90508181036060830152614eed818a614d65565b9050614efc6080830189614e23565b81810360a0830152614f0e8188614d65565b905081810360c0830152614f228187614d65565b905081810360e0830152614f368186614d65565b9050614f46610100830185614df9565b614f54610120830184614e23565b9b9a5050505050505050505050565b600060a0820190508181036000830152614f7d8188614d65565b90508181036020830152614f918187614d65565b90508181036040830152614fa58186614d65565b90508181036060830152614fb98185614d65565b9050614fc86080830184614e23565b9695505050505050565b600081519050919050565b600082825260208201905092915050565b6000819050602082019050919050565b600082825260208201905092915050565b600061501a82614d1f565b6150248185614ffe565b9350615034818560208601614d3b565b61503d81614ac6565b840191505092915050565b6000615054838361500f565b905092915050565b6000602082019050919050565b600061507482614fd2565b61507e8185614fdd565b93508360208202850161509085614fee565b8060005b858110156150cc57848403895281516150ad8582615048565b94506150b88361505c565b925060208a01995050600181019050615094565b50829750879550505050505092915050565b600060208201905081810360008301526150f88184615069565b905092915050565b600080600080600080600060e0888a03121561511f5761511e614ab2565b5b600088013567ffffffffffffffff81111561513d5761513c614ab7565b5b6151498a828b01614bd4565b975050602088013567ffffffffffffffff81111561516a57615169614ab7565b5b6151768a828b01614bd4565b965050604088013567ffffffffffffffff81111561519757615196614ab7565b5b6151a38a828b01614bd4565b955050606088013567ffffffffffffffff8111156151c4576151c3614ab7565b5b6151d08a828b01614bd4565b94505060806151e18a828b01614cdd565b93505060a088013567ffffffffffffffff81111561520257615201614ab7565b5b61520e8a828b01614bd4565b92505060c088013567ffffffffffffffff81111561522f5761522e614ab7565b5b61523b8a828b01614bd4565b91505092959891949750929550565b6000610120820190508181036000830152615265818c614d65565b90508181036020830152615279818b614d65565b9050818103604083015261528d818a614d65565b905081810360608301526152a18189614d65565b90506152b06080830188614e23565b81810360a08301526152c28187614d65565b905081810360c08301526152d68186614d65565b905081810360e08301526152ea8185614d65565b90506152fa610100830184614e23565b9a9950505050505050505050565b61531181614c22565b82525050565b600060208201905061532c6000830184615308565b92915050565b600080fd5b600080fd5b60008151905061534b81614c34565b92915050565b600061536461535f84614b52565b614b37565b9050828152602081018484840111156153805761537f614ac1565b5b61538b848285614d3b565b509392505050565b600082601f8301126153a8576153a7614abc565b5b81516153b8848260208601615351565b91505092915050565b6000815190506153d081614cc6565b92915050565b6153df81614ded565b81146153ea57600080fd5b50565b6000815190506153fc816153d6565b92915050565b6000610180828403121561541957615418615332565b5b615424610180614b37565b905060006154348482850161533c565b600083015250602082015167ffffffffffffffff81111561545857615457615337565b5b61546484828501615393565b602083015250604082015167ffffffffffffffff81111561548857615487615337565b5b61549484828501615393565b604083015250606082015167ffffffffffffffff8111156154b8576154b7615337565b5b6154c484828501615393565b606083015250608082015167ffffffffffffffff8111156154e8576154e7615337565b5b6154f484828501615393565b60808301525060a0615508848285016153c1565b60a08301525060c082015167ffffffffffffffff81111561552c5761552b615337565b5b61553884828501615393565b60c08301525060e082015167ffffffffffffffff81111561555c5761555b615337565b5b61556884828501615393565b60e08301525061010082015167ffffffffffffffff81111561558d5761558c615337565b5b61559984828501615393565b6101008301525061012082015167ffffffffffffffff8111156155bf576155be615337565b5b6155cb84828501615393565b610120830152506101406155e1848285016153ed565b610140830152506101606155f7848285016153ed565b6101608301525092915050565b60006020828403121561561a57615619614ab2565b5b600082015167ffffffffffffffff81111561563857615637614ab7565b5b61564484828501615402565b91505092915050565b7f566f746572206973206e6f742072656769737465726564000000000000000000600082015250565b6000615683601783614d2a565b915061568e8261564d565b602082019050919050565b600060208201905081810360008301526156b281615676565b9050919050565b600081905092915050565b60006156cf82614d1f565b6156d981856156b9565b93506156e9818560208601614d3b565b80840191505092915050565b600061570182846156c4565b915081905092915050565b7f496e76616c69642063616e646964617465000000000000000000000000000000600082015250565b6000615742601183614d2a565b915061574d8261570c565b602082019050919050565b6000602082019050818103600083015261577181615735565b9050919050565b7f596f75206861766520616c726561647920766f74656420666f7220476f76657260008201527f6e6f722121210000000000000000000000000000000000000000000000000000602082015250565b60006157d4602683614d2a565b91506157df82615778565b604082019050919050565b60006020820190508181036000830152615803816157c7565b9050919050565b7f4e487b7100000000000000000000000000000000000000000000000000000000600052601160045260246000fd5b600061584482614cbc565b91507fffffffffffffffffffffffffffffffffffffffffffffffffffffffffffffffff82036158765761587561580a565b5b600182019050919050565b7f4e487b7100000000000000000000000000000000000000000000000000000000600052602260045260246000fd5b600060028204905060018216806158c857607f821691505b6020821081036158db576158da615881565b5b50919050565b7f416c7265616479206361737420766f746520666f7220426c6f636b4c6561646560008201527f7220706f736974696f6e00000000000000000000000000000000000000000000602082015250565b600061593d602a83614d2a565b9150615948826158e1565b604082019050919050565b6000602082019050818103600083015261596c81615930565b9050919050565b7f416c726561647920766f74656420666f7220507265736964656e7420706f736960008201527f74696f6e00000000000000000000000000000000000000000000000000000000602082015250565b60006159cf602483614d2a565b91506159da82615973565b604082019050919050565b600060208201905081810360008301526159fe816159c2565b9050919050565b7f4e487b7100000000000000000000000000000000000000000000000000000000600052603260045260246000fd5b60008190508160005260206000209050919050565b60008154615a56816158b0565b615a6081866156b9565b94506001821660008114615a7b5760018114615a9057615ac3565b60ff1983168652811515820286019350615ac3565b615a9985615a34565b60005b83811015615abb57815481890152600182019150602081019050615a9c565b838801955050505b50505092915050565b6000615ad88284615a49565b915081905092915050565b7f4f6e6c792061646d696e2063616e20706572666f726d2074686973206163746960008201527f6f6e000000000000000000000000000000000000000000000000000000000000602082015250565b6000615b3f602283614d2a565b9150615b4a82615ae3565b604082019050919050565b60006020820190508181036000830152615b6e81615b32565b9050919050565b7f566f74696e672070726f6365737320616c726561647920737461727465640000600082015250565b6000615bab601e83614d2a565b9150615bb682615b75565b602082019050919050565b60006020820190508181036000830152615bda81615b9e565b9050919050565b7f63616e64696461746520697320616c7265616479207265676973746572656421600082015250565b6000615c17602083614d2a565b9150615c2282615be1565b602082019050919050565b60006020820190508181036000830152615c4681615c0a565b9050919050565b7f496e76616c69642079656172206f662053747564790000000000000000000000600082015250565b6000615c83601583614d2a565b9150615c8e82615c4d565b602082019050919050565b60006020820190508181036000830152615cb281615c76565b9050919050565b60006020601f8301049050919050565b600082821b905092915050565b600060088302615d067fffffffffffffffffffffffffffffffffffffffffffffffffffffffffffffffff82615cc9565b615d108683615cc9565b95508019841693508086168417925050509392505050565b6000819050919050565b6000615d4d615d48615d4384614cbc565b615d28565b614cbc565b9050919050565b6000819050919050565b615d6783615d32565b615d7b615d7382615d54565b848454615cd6565b825550505050565b600090565b615d90615d83565b615d9b818484615d5e565b505050565b5b81811015615dbf57615db4600082615d88565b600181019050615da1565b5050565b601f821115615e0457615dd581615a34565b615dde84615cb9565b81016020851015615ded578190505b615e01615df985615cb9565b830182615da0565b50505b505050565b600082821c905092915050565b6000615e2760001984600802615e09565b1980831691505092915050565b6000615e408383615e16565b9150826002028217905092915050565b615e5982614d1f565b67ffffffffffffffff811115615e7257615e71614ad7565b5b615e7c82546158b0565b615e87828285615dc3565b600060209050601f831160018114615eba5760008415615ea8578287015190505b615eb28582615e34565b865550615f1a565b601f198416615ec886615a34565b60005b82811015615ef057848901518255600182019150602085019450602081019050615ecb565b86831015615f0d5784890151615f09601f891682615e16565b8355505b6001600288020188555050505b505050505050565b7f546865207265676973746572656420707265736964656e7420697320656e6f7560008201527f6768210000000000000000000000000000000000000000000000000000000000602082015250565b6000615f7e602383614d2a565b9150615f8982615f22565b604082019050919050565b60006020820190508181036000830152615fad81615f71565b905091905056fea2646970667358221220b7e08539f58c71db871f0f26d7aabf6662f9497e0fe37bce00b61518fb421cbb64736f6c63430008130033",
  "immutableReferences": {},
  "source": "// SPDX-License-Identifier: MIT\npragma solidity ^0.8.0;\nimport \"./VoterContract.sol\";\nimport \"./AccessControl.sol\";\nimport \"./TimeStructure.sol\";\n\ncontract CandidateContract is AccessControl, TimeStructure{\n\n    struct Candidate {\n        string firstName;\n        string lastName;\n        string collegeName;\n        string programName;\n        uint256 yearOfStudy;\n        string regNo;\n        string blockNumber;\n        string position;\n        bool isWinner;\n        uint256 voteCount;\n    }\n    uint public totalVotes;\n\n    mapping(string => bool) public isRegistered;\n\n    bool isPublished;\n\n    //President Registration\n    mapping(string => Candidate) public candidatePresident;\n\n    //Governor Registration\n    mapping(string => Candidate) public candidateGovernor;\n\n    //BlockLeader Registration\n    mapping(string => Candidate) public candidateBlockLeader;\n\n    mapping(address => bool) public presidentVoted;\n    mapping(address => bool) public governorVoted;\n    mapping(address => bool) public blockLeaderVoted;\n\n    string[] public presidentList;\n    string[] public governorList;\n    string[] public blockLeaderList;\n\n    //Number of candidate in a particular position\n    uint256 public numberOfPresident;\n    uint256 public numberOfGovernor;\n    uint256 public numberOfBlockLeader;\n\n    // function getGovernorList() public view returns (string memory)\n    // {\n    //     return governorList;\n    // }\n\n    function setPublished() public onlyAdmin{\n        isPublished = true;\n    }\n\n    function getPublished() public view returns(bool){\n        return isPublished;\n    }\n\n\n    event NewPresidentRegistered(string firstName, string lastName, string collegeName, string programName, uint256 yearOfStudy, string regNo, string blockNumber, string gender);\n    event NewGovernorRegistered(string firstName, string lastName, string collegeName, string programName, uint256 yearOfStudy, string regNo, string blockNumber, string gender);\n    event NewBlockLeaderRegistered(string firstName, string lastName, string collegeName, string programName, uint256 yearOfStudy, string regNo, string blockNumber, string gender);\n\n    function registerPresident(string memory _firstName, string memory _lastName, string memory _collegeName,string memory _programName, uint256 _yearOfStudy, string memory _regNo, string memory _blockNumber) public onlyAdmin{\n        require(!isInitiated, \"Voting process already started\");\n        require(!isRegistered[_regNo], \"candidate is already registered!\");\n        require(numberOfPresident < 2, \"The registered president is enough!\");\n        Candidate memory newCandidate = Candidate({\n            firstName: _firstName,\n            lastName: _lastName,       \n            collegeName: _collegeName,\n            programName: _programName,\n            yearOfStudy: _yearOfStudy, \n            regNo: _regNo, \n            blockNumber: _blockNumber,\n            position: \"PRESIDENT\", \n            isWinner: false, \n            \n            voteCount: 0\n        });\n        isRegistered[_regNo]= true;\n        candidatePresident[_regNo] = newCandidate;\n        presidentList.push(_regNo);\n        numberOfPresident++;\n\n        // emit NewPresidentRegistered(_firstName, _collegeName, _programName, _yearOfStudy, _regNo, _blockNumber, _gender);\n    }\n\n    function registerGovernor(string memory _firstName, string memory _lastName, string memory _collegeName,string memory _programName, uint256 _yearOfStudy, string memory _regNo, string memory _blockNumber) public onlyAdmin{\n        require(!isInitiated, \"Voting process already started\");\n        // require(!candidateGovernor[_regNo].isRegistered, \"You have already registered this Governor.\");\n        require(!isRegistered[_regNo], \"candidate is already registered!\");\n        require(_yearOfStudy > 0 && _yearOfStudy < 5, \"Invalid year of Study\");\n        Candidate memory newCandidate = Candidate({firstName: _firstName, lastName: _lastName, collegeName: _collegeName,programName: _programName, yearOfStudy: _yearOfStudy, \n        regNo: _regNo, blockNumber: _blockNumber, position: \"GOVERNOR\", isWinner: false, voteCount: 0\n        });\n        isRegistered[_regNo]= true;\n        candidateGovernor[_regNo] = newCandidate;\n        // candidateGovernorCnms[_regNo] = newCandidate;\n        governorList.push(_regNo);\n        numberOfGovernor++;\n        \n\n        // emit NewGovernorRegistered(_firstName, _collegeName, _programName, _yearOfStudy, _regNo, _blockNumber, _gender);      \n    }\n\n    function registerBlockLeader(string memory _firstName, string memory _lastName, string memory _collegeName,string memory _programName, uint256 _yearOfStudy, string memory _regNo, string memory _blockNumber) public onlyAdmin{\n        require(!isInitiated, \"Voting process already started\");     \n        // require(!candidateBlockLeader[_regNo].isRegistered, \"You have already registered this blockLeader.\");\n        // require(numberOfPresident < 2, \"The registered BlockLeader is enough!\");\n        require(!isRegistered[_regNo], \"candidate is already registered!\");\n        Candidate memory newCandidate = Candidate({\n            firstName: _firstName,\n            lastName: _lastName,       \n            collegeName: _collegeName,\n            programName: _programName,\n            yearOfStudy: _yearOfStudy, \n            regNo: _regNo, \n            blockNumber: _blockNumber,\n            position: \"BLOCK LEADER\", \n            isWinner: false, \n            voteCount: 0\n        });\n        isRegistered[_regNo] = true;\n        candidateBlockLeader[_regNo] = newCandidate;\n        blockLeaderList.push(_regNo);\n        \n\n        // emit NewBlockLeaderRegistered(_firstName, _collegeName, _programName, _yearOfStudy, _regNo, _blockNumber, _gender);\n    }\n\n    \n\n    //return the registration number for the candidates for each position\n    function getPresidentRegNumber() public view returns (string[] memory){\n        return presidentList;\n    }\n\n\n    //Admin view candidates for a specific position of vote\n\n    function viewPresident(string memory _regNo) public view returns(string memory firstName,string memory lastName, \n        string memory collegeName, string memory programName, uint256 yearOfStudy, string memory regNo, string memory blockNumber, string memory position,uint256 voteCount){\n        Candidate memory candidatePres = candidatePresident[_regNo];\n        firstName = candidatePres.firstName;\n        lastName = candidatePres.lastName;\n        collegeName = candidatePres.collegeName;\n        programName = candidatePres.programName;\n        yearOfStudy = candidatePres.yearOfStudy;\n        regNo = candidatePres.regNo;\n        blockNumber = candidatePres.blockNumber;\n        position = candidatePres.position;\n        voteCount = candidatePres.voteCount;\n    }\n\n    //return the registration number for the candidates for each position\n\n    function getGovernorRegNumber() public view returns (string[] memory){\n        return governorList;\n    }\n    \n    function adminViewGovernors(string memory _regNo) public view returns(string memory firstName,string memory lastName, \n        string memory collegeName, string memory programName, uint256 yearOfStudy, string memory regNo, string memory blockNumber, string memory position,uint256 voteCount){\n        Candidate memory candidateGov = candidateGovernor[_regNo];\n        firstName = candidateGov.firstName;\n        lastName = candidateGov.lastName;\n        collegeName = candidateGov.collegeName;\n        programName = candidateGov.programName;\n        yearOfStudy = candidateGov.yearOfStudy;\n        regNo = candidateGov.regNo;\n        blockNumber = candidateGov.blockNumber;\n        position = candidateGov.position;\n        voteCount = candidateGov.voteCount;\n    }\n\n    function getBlockLeaderRegNumber() public view returns (string[] memory){\n        return blockLeaderList;\n    }\n\n    //Admin view candidates for a specific position of vote\n\n    function adminViewBlockLeaders(string memory _regNo) public view returns(string memory firstName,string memory lastName, \n        string memory collegeName, string memory programName, uint256 yearOfStudy, string memory regNo, string memory blockNumber, string memory position,uint256 voteCount){\n        Candidate memory candidateBL = candidateBlockLeader[_regNo];\n        firstName = candidateBL.firstName;\n        lastName = candidateBL.lastName;\n        collegeName = candidateBL.collegeName;\n        programName = candidateBL.programName;\n        yearOfStudy = candidateBL.yearOfStudy;\n        regNo = candidateBL.regNo;\n        blockNumber = candidateBL.blockNumber;\n        position = candidateBL.position;\n        voteCount = candidateBL.voteCount;\n    }\n\n    function castVotePresident( string memory _presidentRegNo, address _candidateContractAddress) public {\n        VoterContract vc = VoterContract(_candidateContractAddress);\n        require(vc.getVoter(msg.sender).isRegistered, \"Voter is not registered\");\n        // require(!voters[msg.sender].voted, \"You have already voted for President!!!\");\n        require(isRegistered[_presidentRegNo], \"Invalid candidate\");\n        require(!presidentVoted[msg.sender], \"Already voted for President position\");\n        presidentVoted[msg.sender] = true;\n\n        Candidate storage candidate = candidatePresident[_presidentRegNo];\n        candidate.voteCount++;\n        totalVotes++;\n\n        // emit VoteCast(candidate.voteCount, candidate.regNo);\n    }\n    function castVoteGovernor( string memory _governorRegNo, address _candidateContractAddress ) public {\n        VoterContract vc = VoterContract(_candidateContractAddress);\n        require(vc.getVoter(msg.sender).isRegistered, \"Voter is not registered\");\n        require(isRegistered[_governorRegNo], \"Invalid candidate\");\n        // require(keccak256(bytes(vc.getVoter(msg.sender).collegeName)) == keccak256(bytes(candidateGovernor[_governorRegNo].collegeName)), \"Your Not valid voter\");    \n        require(!governorVoted[msg.sender], \"You have already voted for Governor!!!\");\n        governorVoted[msg.sender] = true; \n        \n        Candidate storage candidate = candidateGovernor[_governorRegNo];\n        candidate.voteCount++;\n        totalVotes++;\n\n        // emit VoteCast(candidate.voteCount, candidate.regNo);\n    }\n\n    function castVoteBlockLeader( string memory _blockLeaderRegNo, address _candidateContractAddress ) public {\n        VoterContract vc = VoterContract(_candidateContractAddress);\n        require(vc.getVoter(msg.sender).isRegistered, \"Voter is not registered\");    \n        require(isRegistered[_blockLeaderRegNo], \"Invalid candidate\");\n        // require(keccak256(bytes(vc.getVoter(msg.sender).collegeName)) == keccak256(bytes(candidateBlockLeader[_blockLeaderRegNo].collegeName)), \"Your Not member of a valid college\");    \n        // require(keccak256(bytes(vc.getVoter(msg.sender).blockNumber)) == keccak256(bytes(candidateBlockLeader[_blockLeaderRegNo].blockNumber)), \"Your Not member of a valid block\");  \n        require(!blockLeaderVoted[msg.sender], \"Already cast vote for BlockLeader position\");\n        blockLeaderVoted[msg.sender] = true;\n        \n        Candidate storage candidate = candidateBlockLeader[_blockLeaderRegNo];\n        candidate.voteCount++;\n        totalVotes++;\n\n        // emit VoteCast(candidate.voteCount, candidate.regNo);\n    }\n\n    function getWinnerPresident() public view returns ( string memory, string memory, string memory, string memory, uint256 ){\n        uint256 winningPresidentVoteCount = 0;\n        uint256 winningPresidentIndex = 0;\n        for (uint256 i = 0; i < presidentList.length; i++) {\n            if (candidatePresident[presidentList[i]].voteCount > winningPresidentVoteCount) {\n                winningPresidentVoteCount = candidatePresident[presidentList[i]].voteCount;\n                winningPresidentIndex = i;\n            }\n        }\n        Candidate memory winner = candidatePresident[presidentList[winningPresidentIndex]];\n        // emit getTheWinner(winner.firstName, winner.regNo, winner.collegeName, winner.programName, winner.voteCount);\n        return (winner.firstName, winner.lastName, winner.collegeName, winner.position, winner.voteCount);\n    }\n\n    function getWinnerGovernor() public view returns (string memory, string memory, string memory, string memory, uint256){  \n        uint256 winningGovernorVoteCount = 0;\n        uint256 winningGovernorIndex = 0;    \n        for (uint256 i = 0; i < governorList.length; i++) {\n            if (candidateGovernor[governorList[i]].voteCount > winningGovernorVoteCount) {\n                winningGovernorVoteCount = candidateGovernor[governorList[i]].voteCount;\n                winningGovernorIndex = i;\n            }\n        }\n        Candidate memory winner = candidateGovernor[governorList[winningGovernorIndex]];\n        // emit getTheWinner(winner.firstName, winner.regNo, winner.collegeName, winner.programName, winner.voteCount);\n        return (winner.firstName, winner.lastName, winner.collegeName, winner.position, winner.voteCount);\n    }\n\n    function getWinnerBlockLeader() public view returns (string memory, string memory, string memory, string memory, uint256){  \n        uint256 winningBlockLeaderVoteCount = 0;\n        uint256 winningBlockLeaderIndex = 0;    \n        for (uint256 i = 0; i < blockLeaderList.length; i++) {\n            if (candidateBlockLeader[blockLeaderList[i]].voteCount > winningBlockLeaderVoteCount) {\n                winningBlockLeaderVoteCount = candidateBlockLeader[blockLeaderList[i]].voteCount;\n                winningBlockLeaderIndex = i;\n            }\n        }\n        Candidate memory winner = candidateBlockLeader[blockLeaderList[winningBlockLeaderIndex]];\n        // emit getTheWinner(winner.firstName, winner.lastName, winner.collegeName, winner.programName, winner.voteCount);\n        return (winner.firstName, winner.lastName, winner.collegeName, winner.position, winner.voteCount);\n    }\n}",
  "sourcePath": "/home/temba/Documents/client/contracts/CandidateContract.sol",
  "compiler": {
    "name": "solc",
    "version": "0.8.19+commit.7dd6d404.Emscripten.clang"
  },
  "schemaVersion": "3.4.14",
  "updatedAt": "2023-06-22T10:27:14.171Z",
  "networkType": "ethereum",
  "devdoc": {
    "kind": "dev",
    "methods": {},
    "version": 1
  },
  "userdoc": {
    "kind": "user",
    "methods": {},
    "version": 1
  }
}