{
  "contractName": "CandidateGovernor",
  "abi": [
    {
      "inputs": [],
      "name": "admin",
      "outputs": [
        {
          "internalType": "address",
          "name": "",
          "type": "address"
        }
      ],
      "stateMutability": "view",
      "type": "function",
      "constant": true
    },
    {
      "inputs": [
        {
          "internalType": "string",
          "name": "",
          "type": "string"
        }
      ],
      "name": "candidateGovernor",
      "outputs": [
        {
          "internalType": "string",
          "name": "firstName",
          "type": "string"
        },
        {
          "internalType": "string",
          "name": "lastName",
          "type": "string"
        },
        {
          "internalType": "string",
          "name": "collegeName",
          "type": "string"
        },
        {
          "internalType": "string",
          "name": "programName",
          "type": "string"
        },
        {
          "internalType": "uint256",
          "name": "yearOfStudy",
          "type": "uint256"
        },
        {
          "internalType": "string",
          "name": "regNo",
          "type": "string"
        },
        {
          "internalType": "string",
          "name": "blockNumber",
          "type": "string"
        },
        {
          "internalType": "string",
          "name": "position",
          "type": "string"
        },
        {
          "internalType": "bool",
          "name": "isWinner",
          "type": "bool"
        },
        {
          "internalType": "uint256",
          "name": "voteCount",
          "type": "uint256"
        }
      ],
      "stateMutability": "view",
      "type": "function",
      "constant": true
    },
    {
      "inputs": [],
      "name": "getPublished",
      "outputs": [
        {
          "internalType": "bool",
          "name": "",
          "type": "bool"
        }
      ],
      "stateMutability": "view",
      "type": "function",
      "constant": true
    },
    {
      "inputs": [
        {
          "internalType": "uint256",
          "name": "",
          "type": "uint256"
        }
      ],
      "name": "governorList",
      "outputs": [
        {
          "internalType": "string",
          "name": "",
          "type": "string"
        }
      ],
      "stateMutability": "view",
      "type": "function",
      "constant": true
    },
    {
      "inputs": [
        {
          "internalType": "address",
          "name": "",
          "type": "address"
        }
      ],
      "name": "governorVoted",
      "outputs": [
        {
          "internalType": "bool",
          "name": "",
          "type": "bool"
        }
      ],
      "stateMutability": "view",
      "type": "function",
      "constant": true
    },
    {
      "inputs": [
        {
          "internalType": "string",
          "name": "",
          "type": "string"
        }
      ],
      "name": "isRegistered",
      "outputs": [
        {
          "internalType": "bool",
          "name": "",
          "type": "bool"
        }
      ],
      "stateMutability": "view",
      "type": "function",
      "constant": true
    },
    {
      "inputs": [],
      "name": "numberOfGovernor",
      "outputs": [
        {
          "internalType": "uint256",
          "name": "",
          "type": "uint256"
        }
      ],
      "stateMutability": "view",
      "type": "function",
      "constant": true
    },
    {
      "inputs": [],
      "name": "setPublished",
      "outputs": [],
      "stateMutability": "nonpayable",
      "type": "function"
    },
    {
      "inputs": [],
      "name": "totalVotes",
      "outputs": [
        {
          "internalType": "uint256",
          "name": "",
          "type": "uint256"
        }
      ],
      "stateMutability": "view",
      "type": "function",
      "constant": true
    },
    {
      "inputs": [
        {
          "internalType": "address",
          "name": "newAdmin",
          "type": "address"
        }
      ],
      "name": "transferAdmin",
      "outputs": [],
      "stateMutability": "nonpayable",
      "type": "function"
    },
    {
      "inputs": [
        {
          "internalType": "string",
          "name": "_firstName",
          "type": "string"
        },
        {
          "internalType": "string",
          "name": "_lastName",
          "type": "string"
        },
        {
          "internalType": "string",
          "name": "_collegeName",
          "type": "string"
        },
        {
          "internalType": "string",
          "name": "_programName",
          "type": "string"
        },
        {
          "internalType": "uint256",
          "name": "_yearOfStudy",
          "type": "uint256"
        },
        {
          "internalType": "string",
          "name": "_regNo",
          "type": "string"
        },
        {
          "internalType": "string",
          "name": "_blockNumber",
          "type": "string"
        },
        {
          "internalType": "address",
          "name": "_timeControlContractAddress",
          "type": "address"
        }
      ],
      "name": "registerGovernor",
      "outputs": [],
      "stateMutability": "nonpayable",
      "type": "function"
    },
    {
      "inputs": [],
      "name": "getGovernorRegNumber",
      "outputs": [
        {
          "internalType": "string[]",
          "name": "",
          "type": "string[]"
        }
      ],
      "stateMutability": "view",
      "type": "function",
      "constant": true
    },
    {
      "inputs": [
        {
          "internalType": "string",
          "name": "_regNo",
          "type": "string"
        }
      ],
      "name": "adminViewGovernors",
      "outputs": [
        {
          "internalType": "string",
          "name": "firstName",
          "type": "string"
        },
        {
          "internalType": "string",
          "name": "lastName",
          "type": "string"
        },
        {
          "internalType": "string",
          "name": "collegeName",
          "type": "string"
        },
        {
          "internalType": "string",
          "name": "programName",
          "type": "string"
        },
        {
          "internalType": "uint256",
          "name": "yearOfStudy",
          "type": "uint256"
        },
        {
          "internalType": "string",
          "name": "regNo",
          "type": "string"
        },
        {
          "internalType": "string",
          "name": "blockNumber",
          "type": "string"
        },
        {
          "internalType": "string",
          "name": "position",
          "type": "string"
        },
        {
          "internalType": "uint256",
          "name": "voteCount",
          "type": "uint256"
        }
      ],
      "stateMutability": "view",
      "type": "function",
      "constant": true
    },
    {
      "inputs": [
        {
          "internalType": "string",
          "name": "_governorRegNo",
          "type": "string"
        },
        {
          "internalType": "address",
          "name": "_voterContractAddress",
          "type": "address"
        },
        {
          "internalType": "address",
          "name": "_timeControlContractAddress",
          "type": "address"
        }
      ],
      "name": "castVoteGovernor",
      "outputs": [],
      "stateMutability": "nonpayable",
      "type": "function"
    },
    {
      "inputs": [],
      "name": "getWinnerGovernor",
      "outputs": [
        {
          "internalType": "string",
          "name": "",
          "type": "string"
        },
        {
          "internalType": "string",
          "name": "",
          "type": "string"
        },
        {
          "internalType": "string",
          "name": "",
          "type": "string"
        },
        {
          "internalType": "string",
          "name": "",
          "type": "string"
        },
        {
          "internalType": "uint256",
          "name": "",
          "type": "uint256"
        }
      ],
      "stateMutability": "view",
      "type": "function",
      "constant": true
    },
    {
      "inputs": [
        {
          "internalType": "address",
          "name": "addressVoter",
          "type": "address"
        },
        {
          "internalType": "address",
          "name": "_voterContractAddress",
          "type": "address"
        }
      ],
      "name": "voterViewGovernors",
      "outputs": [
        {
          "components": [
            {
              "internalType": "string",
              "name": "firstName",
              "type": "string"
            },
            {
              "internalType": "string",
              "name": "lastName",
              "type": "string"
            },
            {
              "internalType": "string",
              "name": "collegeName",
              "type": "string"
            },
            {
              "internalType": "string",
              "name": "programName",
              "type": "string"
            },
            {
              "internalType": "uint256",
              "name": "yearOfStudy",
              "type": "uint256"
            },
            {
              "internalType": "string",
              "name": "regNo",
              "type": "string"
            },
            {
              "internalType": "string",
              "name": "blockNumber",
              "type": "string"
            },
            {
              "internalType": "string",
              "name": "position",
              "type": "string"
            },
            {
              "internalType": "bool",
              "name": "isWinner",
              "type": "bool"
            },
            {
              "internalType": "uint256",
              "name": "voteCount",
              "type": "uint256"
            }
          ],
          "internalType": "struct CandidateStructure.Candidate[]",
          "name": "",
          "type": "tuple[]"
        }
      ],
      "stateMutability": "view",
      "type": "function",
      "constant": true
    }
  ],
  "bytecode": "0x608060405234801561001057600080fd5b50336000806101000a81548173ffffffffffffffffffffffffffffffffffffffff021916908373ffffffffffffffffffffffffffffffffffffffff160217905550613d3e806100606000396000f3fe608060405234801561001057600080fd5b50600436106101005760003560e01c8063a0b0df9511610097578063c822d7f011610066578063c822d7f0146102a7578063e19ca0d3146102d7578063f6445026146102f5578063f851a4401461032e57610100565b8063a0b0df951461021f578063a220f8f91461024f578063b339eb161461026b578063b8c597db1461028957610100565b80636d75f0de116100d35780636d75f0de1461019f57806375829def146101c1578063828d95f2146101dd57806397b0565e1461021557610100565b806302aac7b2146101055780630d15fd77146101355780633119d5f3146101535780635aac48661461016f575b600080fd5b61011f600480360381019061011a919061253e565b61034c565b60405161012c91906125fb565b60405180910390f35b61013d6103f8565b60405161014a919061262c565b60405180910390f35b61016d600480360381019061016891906127da565b6103fe565b005b61018960048036038101906101849190612849565b610825565b6040516101969190612ac3565b60405180910390f35b6101a7610f19565b6040516101b8959493929190612ae5565b60405180910390f35b6101db60048036038101906101d69190612b54565b61147c565b005b6101f760048036038101906101f29190612b81565b61154d565b60405161020c99989796959493929190612bca565b60405180910390f35b61021d611a04565b005b61023960048036038101906102349190612b54565b611aff565b6040516102469190612c97565b60405180910390f35b61026960048036038101906102649190612cb2565b611b1f565b005b610273611f21565b6040516102809190612ed2565b60405180910390f35b610291611ffa565b60405161029e919061262c565b60405180910390f35b6102c160048036038101906102bc9190612b81565b612000565b6040516102ce9190612c97565b60405180910390f35b6102df612036565b6040516102ec9190612c97565b60405180910390f35b61030f600480360381019061030a9190612b81565b61204c565b6040516103259a99989796959493929190612ef4565b60405180910390f35b61033661247b565b6040516103439190612fd0565b60405180910390f35b6005818154811061035c57600080fd5b9060005260206000200160009150905080546103779061301a565b80601f01602080910402602001604051908101604052809291908181526020018280546103a39061301a565b80156103f05780601f106103c5576101008083540402835291602001916103f0565b820191906000526020600020905b8154815290600101906020018083116103d357829003601f168201915b505050505081565b60015481565b600082905060008290508073ffffffffffffffffffffffffffffffffffffffff16637776e62f6040518163ffffffff1660e01b8152600401602060405180830381865afa158015610453573d6000803e3d6000fd5b505050506040513d601f19601f820116820180604052508101906104779190613077565b6104b6576040517f08c379a00000000000000000000000000000000000000000000000000000000081526004016104ad90613116565b60405180910390fd5b8173ffffffffffffffffffffffffffffffffffffffff1663d4f50f98336040518263ffffffff1660e01b81526004016104ef9190612fd0565b600060405180830381865afa15801561050c573d6000803e3d6000fd5b505050506040513d6000823e3d601f19601f8201168201806040525081019061053591906133dc565b6101400151610579576040517f08c379a000000000000000000000000000000000000000000000000000000000815260040161057090613471565b60405180910390fd5b60028560405161058991906134cd565b908152602001604051809103902060009054906101000a900460ff166105e4576040517f08c379a00000000000000000000000000000000000000000000000000000000081526004016105db90613530565b60405180910390fd5b6003856040516105f491906134cd565b908152602001604051809103902060020160405161061291906135f3565b60405180910390208273ffffffffffffffffffffffffffffffffffffffff1663d4f50f98336040518263ffffffff1660e01b81526004016106539190612fd0565b600060405180830381865afa158015610670573d6000803e3d6000fd5b505050506040513d6000823e3d601f19601f8201168201806040525081019061069991906133dc565b6060015180519060200120146106e4576040517f08c379a00000000000000000000000000000000000000000000000000000000081526004016106db90613656565b60405180910390fd5b600460003373ffffffffffffffffffffffffffffffffffffffff1673ffffffffffffffffffffffffffffffffffffffff16815260200190815260200160002060009054906101000a900460ff1615610771576040517f08c379a0000000000000000000000000000000000000000000000000000000008152600401610768906136e8565b60405180910390fd5b6001600460003373ffffffffffffffffffffffffffffffffffffffff1673ffffffffffffffffffffffffffffffffffffffff16815260200190815260200160002060006101000a81548160ff02191690831515021790555060006003866040516107db91906134cd565b9081526020016040518091039020905080600901600081548092919061080090613737565b91905055506001600081548092919061081890613737565b9190505550505050505050565b6060600082905060008173ffffffffffffffffffffffffffffffffffffffff1663d4f50f98866040518263ffffffff1660e01b81526004016108679190612fd0565b600060405180830381865afa158015610884573d6000803e3d6000fd5b505050506040513d6000823e3d601f19601f820116820180604052508101906108ad91906133dc565b9050600081606001519050600060058054905067ffffffffffffffff8111156108d9576108d8612651565b5b60405190808252806020026020018201604052801561091257816020015b6108ff61249f565b8152602001906001900390816108f75790505b50905060006005805480602002602001604051908101604052809291908181526020016000905b828210156109e55783829060005260206000200180546109589061301a565b80601f01602080910402602001604051908101604052809291908181526020018280546109849061301a565b80156109d15780601f106109a6576101008083540402835291602001916109d1565b820191906000526020600020905b8154815290600101906020018083116109b457829003601f168201915b505050505081526020019060010190610939565b5050505090506000805b8251811015610f065784805190602001206003848381518110610a1557610a1461377f565b5b6020026020010151604051610a2a91906134cd565b9081526020016040518091039020600201604051610a4891906135f3565b604051809103902003610ef3576003838281518110610a6a57610a6961377f565b5b6020026020010151604051610a7f91906134cd565b908152602001604051809103902060405180610140016040529081600082018054610aa99061301a565b80601f0160208091040260200160405190810160405280929190818152602001828054610ad59061301a565b8015610b225780601f10610af757610100808354040283529160200191610b22565b820191906000526020600020905b815481529060010190602001808311610b0557829003601f168201915b50505050508152602001600182018054610b3b9061301a565b80601f0160208091040260200160405190810160405280929190818152602001828054610b679061301a565b8015610bb45780601f10610b8957610100808354040283529160200191610bb4565b820191906000526020600020905b815481529060010190602001808311610b9757829003601f168201915b50505050508152602001600282018054610bcd9061301a565b80601f0160208091040260200160405190810160405280929190818152602001828054610bf99061301a565b8015610c465780601f10610c1b57610100808354040283529160200191610c46565b820191906000526020600020905b815481529060010190602001808311610c2957829003601f168201915b50505050508152602001600382018054610c5f9061301a565b80601f0160208091040260200160405190810160405280929190818152602001828054610c8b9061301a565b8015610cd85780601f10610cad57610100808354040283529160200191610cd8565b820191906000526020600020905b815481529060010190602001808311610cbb57829003601f168201915b5050505050815260200160048201548152602001600582018054610cfb9061301a565b80601f0160208091040260200160405190810160405280929190818152602001828054610d279061301a565b8015610d745780601f10610d4957610100808354040283529160200191610d74565b820191906000526020600020905b815481529060010190602001808311610d5757829003601f168201915b50505050508152602001600682018054610d8d9061301a565b80601f0160208091040260200160405190810160405280929190818152602001828054610db99061301a565b8015610e065780601f10610ddb57610100808354040283529160200191610e06565b820191906000526020600020905b815481529060010190602001808311610de957829003601f168201915b50505050508152602001600782018054610e1f9061301a565b80601f0160208091040260200160405190810160405280929190818152602001828054610e4b9061301a565b8015610e985780601f10610e6d57610100808354040283529160200191610e98565b820191906000526020600020905b815481529060010190602001808311610e7b57829003601f168201915b505050505081526020016008820160009054906101000a900460ff16151515158152602001600982015481525050848381518110610ed957610ed861377f565b5b60200260200101819052508180610eef90613737565b9250505b8080610efe90613737565b9150506109ef565b5080835282965050505050505092915050565b606080606080600080600090506000805b600580549050811015610fd55782600360058381548110610f4e57610f4d61377f565b5b90600052602060002001604051610f659190613846565b9081526020016040518091039020600901541115610fc257600360058281548110610f9357610f9261377f565b5b90600052602060002001604051610faa9190613846565b90815260200160405180910390206009015492508091505b8080610fcd90613737565b915050610f2a565b506000600360058381548110610fee57610fed61377f565b5b906000526020600020016040516110059190613846565b90815260200160405180910390206040518061014001604052908160008201805461102f9061301a565b80601f016020809104026020016040519081016040528092919081815260200182805461105b9061301a565b80156110a85780601f1061107d576101008083540402835291602001916110a8565b820191906000526020600020905b81548152906001019060200180831161108b57829003601f168201915b505050505081526020016001820180546110c19061301a565b80601f01602080910402602001604051908101604052809291908181526020018280546110ed9061301a565b801561113a5780601f1061110f5761010080835404028352916020019161113a565b820191906000526020600020905b81548152906001019060200180831161111d57829003601f168201915b505050505081526020016002820180546111539061301a565b80601f016020809104026020016040519081016040528092919081815260200182805461117f9061301a565b80156111cc5780601f106111a1576101008083540402835291602001916111cc565b820191906000526020600020905b8154815290600101906020018083116111af57829003601f168201915b505050505081526020016003820180546111e59061301a565b80601f01602080910402602001604051908101604052809291908181526020018280546112119061301a565b801561125e5780601f106112335761010080835404028352916020019161125e565b820191906000526020600020905b81548152906001019060200180831161124157829003601f168201915b50505050508152602001600482015481526020016005820180546112819061301a565b80601f01602080910402602001604051908101604052809291908181526020018280546112ad9061301a565b80156112fa5780601f106112cf576101008083540402835291602001916112fa565b820191906000526020600020905b8154815290600101906020018083116112dd57829003601f168201915b505050505081526020016006820180546113139061301a565b80601f016020809104026020016040519081016040528092919081815260200182805461133f9061301a565b801561138c5780601f106113615761010080835404028352916020019161138c565b820191906000526020600020905b81548152906001019060200180831161136f57829003601f168201915b505050505081526020016007820180546113a59061301a565b80601f01602080910402602001604051908101604052809291908181526020018280546113d19061301a565b801561141e5780601f106113f35761010080835404028352916020019161141e565b820191906000526020600020905b81548152906001019060200180831161140157829003601f168201915b505050505081526020016008820160009054906101000a900460ff1615151515815260200160098201548152505090508060000151816020015182604001518360e00151846101200151975097509750975097505050509091929394565b60008054906101000a900473ffffffffffffffffffffffffffffffffffffffff1673ffffffffffffffffffffffffffffffffffffffff163373ffffffffffffffffffffffffffffffffffffffff161461150a576040517f08c379a0000000000000000000000000000000000000000000000000000000008152600401611501906138cf565b60405180910390fd5b806000806101000a81548173ffffffffffffffffffffffffffffffffffffffff021916908373ffffffffffffffffffffffffffffffffffffffff16021790555050565b6060806060806000606080606060008060038b60405161156d91906134cd565b9081526020016040518091039020604051806101400160405290816000820180546115979061301a565b80601f01602080910402602001604051908101604052809291908181526020018280546115c39061301a565b80156116105780601f106115e557610100808354040283529160200191611610565b820191906000526020600020905b8154815290600101906020018083116115f357829003601f168201915b505050505081526020016001820180546116299061301a565b80601f01602080910402602001604051908101604052809291908181526020018280546116559061301a565b80156116a25780601f10611677576101008083540402835291602001916116a2565b820191906000526020600020905b81548152906001019060200180831161168557829003601f168201915b505050505081526020016002820180546116bb9061301a565b80601f01602080910402602001604051908101604052809291908181526020018280546116e79061301a565b80156117345780601f1061170957610100808354040283529160200191611734565b820191906000526020600020905b81548152906001019060200180831161171757829003601f168201915b5050505050815260200160038201805461174d9061301a565b80601f01602080910402602001604051908101604052809291908181526020018280546117799061301a565b80156117c65780601f1061179b576101008083540402835291602001916117c6565b820191906000526020600020905b8154815290600101906020018083116117a957829003601f168201915b50505050508152602001600482015481526020016005820180546117e99061301a565b80601f01602080910402602001604051908101604052809291908181526020018280546118159061301a565b80156118625780601f1061183757610100808354040283529160200191611862565b820191906000526020600020905b81548152906001019060200180831161184557829003601f168201915b5050505050815260200160068201805461187b9061301a565b80601f01602080910402602001604051908101604052809291908181526020018280546118a79061301a565b80156118f45780601f106118c9576101008083540402835291602001916118f4565b820191906000526020600020905b8154815290600101906020018083116118d757829003601f168201915b5050505050815260200160078201805461190d9061301a565b80601f01602080910402602001604051908101604052809291908181526020018280546119399061301a565b80156119865780601f1061195b57610100808354040283529160200191611986565b820191906000526020600020905b81548152906001019060200180831161196957829003601f168201915b505050505081526020016008820160009054906101000a900460ff16151515158152602001600982015481525050905080600001519950806020015198508060400151975080606001519650806080015195508060a0015194508060c0015193508060e0015192508061012001519150509193959799909294969850565b60008054906101000a900473ffffffffffffffffffffffffffffffffffffffff1673ffffffffffffffffffffffffffffffffffffffff163373ffffffffffffffffffffffffffffffffffffffff1614611a92576040517f08c379a0000000000000000000000000000000000000000000000000000000008152600401611a89906138cf565b60405180910390fd5b600060149054906101000a900460ff1615611ae2576040517f08c379a0000000000000000000000000000000000000000000000000000000008152600401611ad99061393b565b60405180910390fd5b6001600060146101000a81548160ff021916908315150217905550565b60046020528060005260406000206000915054906101000a900460ff1681565b60008054906101000a900473ffffffffffffffffffffffffffffffffffffffff1673ffffffffffffffffffffffffffffffffffffffff163373ffffffffffffffffffffffffffffffffffffffff1614611bad576040517f08c379a0000000000000000000000000000000000000000000000000000000008152600401611ba4906138cf565b60405180910390fd5b60008190508073ffffffffffffffffffffffffffffffffffffffff16637776e62f6040518163ffffffff1660e01b8152600401602060405180830381865afa158015611bfd573d6000803e3d6000fd5b505050506040513d601f19601f82011682018060405250810190611c219190613077565b15611c61576040517f08c379a0000000000000000000000000000000000000000000000000000000008152600401611c58906139a7565b60405180910390fd5b600284604051611c7191906134cd565b908152602001604051809103902060009054906101000a900460ff1615611ccd576040517f08c379a0000000000000000000000000000000000000000000000000000000008152600401611cc490613a13565b60405180910390fd5b600085118015611cdd5750600585105b611d1c576040517f08c379a0000000000000000000000000000000000000000000000000000000008152600401611d1390613a7f565b60405180910390fd5b60006040518061014001604052808b81526020018a81526020018981526020018881526020018781526020018681526020018581526020016040518060400160405280600881526020017f474f5645524e4f520000000000000000000000000000000000000000000000008152508152602001600015158152602001600081525090506001600286604051611db191906134cd565b908152602001604051809103902060006101000a81548160ff02191690831515021790555080600386604051611de791906134cd565b90815260200160405180910390206000820151816000019081611e0a9190613c36565b506020820151816001019081611e209190613c36565b506040820151816002019081611e369190613c36565b506060820151816003019081611e4c9190613c36565b506080820151816004015560a0820151816005019081611e6c9190613c36565b5060c0820151816006019081611e829190613c36565b5060e0820151816007019081611e989190613c36565b506101008201518160080160006101000a81548160ff0219169083151502179055506101208201518160090155905050600585908060018154018082558091505060019003906000526020600020016000909190919091509081611efc9190613c36565b5060066000815480929190611f1090613737565b919050555050505050505050505050565b60606005805480602002602001604051908101604052809291908181526020016000905b82821015611ff1578382906000526020600020018054611f649061301a565b80601f0160208091040260200160405190810160405280929190818152602001828054611f909061301a565b8015611fdd5780601f10611fb257610100808354040283529160200191611fdd565b820191906000526020600020905b815481529060010190602001808311611fc057829003601f168201915b505050505081526020019060010190611f45565b50505050905090565b60065481565b6002818051602081018201805184825260208301602085012081835280955050505050506000915054906101000a900460ff1681565b60008060149054906101000a900460ff16905090565b6003818051602081018201805184825260208301602085012081835280955050505050506000915090508060000180546120859061301a565b80601f01602080910402602001604051908101604052809291908181526020018280546120b19061301a565b80156120fe5780601f106120d3576101008083540402835291602001916120fe565b820191906000526020600020905b8154815290600101906020018083116120e157829003601f168201915b5050505050908060010180546121139061301a565b80601f016020809104026020016040519081016040528092919081815260200182805461213f9061301a565b801561218c5780601f106121615761010080835404028352916020019161218c565b820191906000526020600020905b81548152906001019060200180831161216f57829003601f168201915b5050505050908060020180546121a19061301a565b80601f01602080910402602001604051908101604052809291908181526020018280546121cd9061301a565b801561221a5780601f106121ef5761010080835404028352916020019161221a565b820191906000526020600020905b8154815290600101906020018083116121fd57829003601f168201915b50505050509080600301805461222f9061301a565b80601f016020809104026020016040519081016040528092919081815260200182805461225b9061301a565b80156122a85780601f1061227d576101008083540402835291602001916122a8565b820191906000526020600020905b81548152906001019060200180831161228b57829003601f168201915b5050505050908060040154908060050180546122c39061301a565b80601f01602080910402602001604051908101604052809291908181526020018280546122ef9061301a565b801561233c5780601f106123115761010080835404028352916020019161233c565b820191906000526020600020905b81548152906001019060200180831161231f57829003601f168201915b5050505050908060060180546123519061301a565b80601f016020809104026020016040519081016040528092919081815260200182805461237d9061301a565b80156123ca5780601f1061239f576101008083540402835291602001916123ca565b820191906000526020600020905b8154815290600101906020018083116123ad57829003601f168201915b5050505050908060070180546123df9061301a565b80601f016020809104026020016040519081016040528092919081815260200182805461240b9061301a565b80156124585780601f1061242d57610100808354040283529160200191612458565b820191906000526020600020905b81548152906001019060200180831161243b57829003601f168201915b5050505050908060080160009054906101000a900460ff1690806009015490508a565b60008054906101000a900473ffffffffffffffffffffffffffffffffffffffff1681565b6040518061014001604052806060815260200160608152602001606081526020016060815260200160008152602001606081526020016060815260200160608152602001600015158152602001600081525090565b6000604051905090565b600080fd5b600080fd5b6000819050919050565b61251b81612508565b811461252657600080fd5b50565b60008135905061253881612512565b92915050565b600060208284031215612554576125536124fe565b5b600061256284828501612529565b91505092915050565b600081519050919050565b600082825260208201905092915050565b60005b838110156125a557808201518184015260208101905061258a565b60008484015250505050565b6000601f19601f8301169050919050565b60006125cd8261256b565b6125d78185612576565b93506125e7818560208601612587565b6125f0816125b1565b840191505092915050565b6000602082019050818103600083015261261581846125c2565b905092915050565b61262681612508565b82525050565b6000602082019050612641600083018461261d565b92915050565b600080fd5b600080fd5b7f4e487b7100000000000000000000000000000000000000000000000000000000600052604160045260246000fd5b612689826125b1565b810181811067ffffffffffffffff821117156126a8576126a7612651565b5b80604052505050565b60006126bb6124f4565b90506126c78282612680565b919050565b600067ffffffffffffffff8211156126e7576126e6612651565b5b6126f0826125b1565b9050602081019050919050565b82818337600083830152505050565b600061271f61271a846126cc565b6126b1565b90508281526020810184848401111561273b5761273a61264c565b5b6127468482856126fd565b509392505050565b600082601f83011261276357612762612647565b5b813561277384826020860161270c565b91505092915050565b600073ffffffffffffffffffffffffffffffffffffffff82169050919050565b60006127a78261277c565b9050919050565b6127b78161279c565b81146127c257600080fd5b50565b6000813590506127d4816127ae565b92915050565b6000806000606084860312156127f3576127f26124fe565b5b600084013567ffffffffffffffff81111561281157612810612503565b5b61281d8682870161274e565b935050602061282e868287016127c5565b925050604061283f868287016127c5565b9150509250925092565b600080604083850312156128605761285f6124fe565b5b600061286e858286016127c5565b925050602061287f858286016127c5565b9150509250929050565b600081519050919050565b600082825260208201905092915050565b6000819050602082019050919050565b600082825260208201905092915050565b60006128d18261256b565b6128db81856128b5565b93506128eb818560208601612587565b6128f4816125b1565b840191505092915050565b61290881612508565b82525050565b60008115159050919050565b6129238161290e565b82525050565b600061014083016000830151848203600086015261294782826128c6565b9150506020830151848203602086015261296182826128c6565b9150506040830151848203604086015261297b82826128c6565b9150506060830151848203606086015261299582826128c6565b91505060808301516129aa60808601826128ff565b5060a083015184820360a08601526129c282826128c6565b91505060c083015184820360c08601526129dc82826128c6565b91505060e083015184820360e08601526129f682826128c6565b915050610100830151612a0d61010086018261291a565b50610120830151612a226101208601826128ff565b508091505092915050565b6000612a398383612929565b905092915050565b6000602082019050919050565b6000612a5982612889565b612a638185612894565b935083602082028501612a75856128a5565b8060005b85811015612ab15784840389528151612a928582612a2d565b9450612a9d83612a41565b925060208a01995050600181019050612a79565b50829750879550505050505092915050565b60006020820190508181036000830152612add8184612a4e565b905092915050565b600060a0820190508181036000830152612aff81886125c2565b90508181036020830152612b1381876125c2565b90508181036040830152612b2781866125c2565b90508181036060830152612b3b81856125c2565b9050612b4a608083018461261d565b9695505050505050565b600060208284031215612b6a57612b696124fe565b5b6000612b78848285016127c5565b91505092915050565b600060208284031215612b9757612b966124fe565b5b600082013567ffffffffffffffff811115612bb557612bb4612503565b5b612bc18482850161274e565b91505092915050565b6000610120820190508181036000830152612be5818c6125c2565b90508181036020830152612bf9818b6125c2565b90508181036040830152612c0d818a6125c2565b90508181036060830152612c2181896125c2565b9050612c30608083018861261d565b81810360a0830152612c4281876125c2565b905081810360c0830152612c5681866125c2565b905081810360e0830152612c6a81856125c2565b9050612c7a61010083018461261d565b9a9950505050505050505050565b612c918161290e565b82525050565b6000602082019050612cac6000830184612c88565b92915050565b600080600080600080600080610100898b031215612cd357612cd26124fe565b5b600089013567ffffffffffffffff811115612cf157612cf0612503565b5b612cfd8b828c0161274e565b985050602089013567ffffffffffffffff811115612d1e57612d1d612503565b5b612d2a8b828c0161274e565b975050604089013567ffffffffffffffff811115612d4b57612d4a612503565b5b612d578b828c0161274e565b965050606089013567ffffffffffffffff811115612d7857612d77612503565b5b612d848b828c0161274e565b9550506080612d958b828c01612529565b94505060a089013567ffffffffffffffff811115612db657612db5612503565b5b612dc28b828c0161274e565b93505060c089013567ffffffffffffffff811115612de357612de2612503565b5b612def8b828c0161274e565b92505060e0612e008b828c016127c5565b9150509295985092959890939650565b600081519050919050565b600082825260208201905092915050565b6000819050602082019050919050565b6000612e4883836128c6565b905092915050565b6000602082019050919050565b6000612e6882612e10565b612e728185612e1b565b935083602082028501612e8485612e2c565b8060005b85811015612ec05784840389528151612ea18582612e3c565b9450612eac83612e50565b925060208a01995050600181019050612e88565b50829750879550505050505092915050565b60006020820190508181036000830152612eec8184612e5d565b905092915050565b6000610140820190508181036000830152612f0f818d6125c2565b90508181036020830152612f23818c6125c2565b90508181036040830152612f37818b6125c2565b90508181036060830152612f4b818a6125c2565b9050612f5a608083018961261d565b81810360a0830152612f6c81886125c2565b905081810360c0830152612f8081876125c2565b905081810360e0830152612f9481866125c2565b9050612fa4610100830185612c88565b612fb261012083018461261d565b9b9a5050505050505050505050565b612fca8161279c565b82525050565b6000602082019050612fe56000830184612fc1565b92915050565b7f4e487b7100000000000000000000000000000000000000000000000000000000600052602260045260246000fd5b6000600282049050600182168061303257607f821691505b60208210810361304557613044612feb565b5b50919050565b6130548161290e565b811461305f57600080fd5b50565b6000815190506130718161304b565b92915050565b60006020828403121561308d5761308c6124fe565b5b600061309b84828501613062565b91505092915050565b7f566f74696e672070726f6365737320646f65736e27742073746172746564207960008201527f6574210000000000000000000000000000000000000000000000000000000000602082015250565b6000613100602383612576565b915061310b826130a4565b604082019050919050565b6000602082019050818103600083015261312f816130f3565b9050919050565b600080fd5b600080fd5b60008151905061314f816127ae565b92915050565b6000613168613163846126cc565b6126b1565b9050828152602081018484840111156131845761318361264c565b5b61318f848285612587565b509392505050565b600082601f8301126131ac576131ab612647565b5b81516131bc848260208601613155565b91505092915050565b6000815190506131d481612512565b92915050565b600061018082840312156131f1576131f0613136565b5b6131fc6101806126b1565b9050600061320c84828501613140565b600083015250602082015167ffffffffffffffff8111156132305761322f61313b565b5b61323c84828501613197565b602083015250604082015167ffffffffffffffff8111156132605761325f61313b565b5b61326c84828501613197565b604083015250606082015167ffffffffffffffff8111156132905761328f61313b565b5b61329c84828501613197565b606083015250608082015167ffffffffffffffff8111156132c0576132bf61313b565b5b6132cc84828501613197565b60808301525060a06132e0848285016131c5565b60a08301525060c082015167ffffffffffffffff8111156133045761330361313b565b5b61331084828501613197565b60c08301525060e082015167ffffffffffffffff8111156133345761333361313b565b5b61334084828501613197565b60e08301525061010082015167ffffffffffffffff8111156133655761336461313b565b5b61337184828501613197565b6101008301525061012082015167ffffffffffffffff8111156133975761339661313b565b5b6133a384828501613197565b610120830152506101406133b984828501613062565b610140830152506101606133cf84828501613062565b6101608301525092915050565b6000602082840312156133f2576133f16124fe565b5b600082015167ffffffffffffffff8111156134105761340f612503565b5b61341c848285016131da565b91505092915050565b7f566f746572206973206e6f742072656769737465726564000000000000000000600082015250565b600061345b601783612576565b915061346682613425565b602082019050919050565b6000602082019050818103600083015261348a8161344e565b9050919050565b600081905092915050565b60006134a78261256b565b6134b18185613491565b93506134c1818560208601612587565b80840191505092915050565b60006134d9828461349c565b915081905092915050565b7f496e76616c69642063616e646964617465000000000000000000000000000000600082015250565b600061351a601183612576565b9150613525826134e4565b602082019050919050565b600060208201905081810360008301526135498161350d565b9050919050565b600081905092915050565b60008190508160005260206000209050919050565b6000815461357d8161301a565b6135878186613550565b945060018216600081146135a257600181146135b7576135ea565b60ff19831686528115158202860193506135ea565b6135c08561355b565b60005b838110156135e2578154818901526001820191506020810190506135c3565b838801955050505b50505092915050565b60006135ff8284613570565b915081905092915050565b7f596f7572204e6f742076616c696420766f746572000000000000000000000000600082015250565b6000613640601483612576565b915061364b8261360a565b602082019050919050565b6000602082019050818103600083015261366f81613633565b9050919050565b7f596f75206861766520616c726561647920766f74656420666f7220476f76657260008201527f6e6f722121210000000000000000000000000000000000000000000000000000602082015250565b60006136d2602683612576565b91506136dd82613676565b604082019050919050565b60006020820190508181036000830152613701816136c5565b9050919050565b7f4e487b7100000000000000000000000000000000000000000000000000000000600052601160045260246000fd5b600061374282612508565b91507fffffffffffffffffffffffffffffffffffffffffffffffffffffffffffffffff820361377457613773613708565b5b600182019050919050565b7f4e487b7100000000000000000000000000000000000000000000000000000000600052603260045260246000fd5b60008190508160005260206000209050919050565b600081546137d08161301a565b6137da8186613491565b945060018216600081146137f5576001811461380a5761383d565b60ff198316865281151582028601935061383d565b613813856137ae565b60005b8381101561383557815481890152600182019150602081019050613816565b838801955050505b50505092915050565b600061385282846137c3565b915081905092915050565b7f4f6e6c792061646d696e2063616e20706572666f726d2074686973206163746960008201527f6f6e000000000000000000000000000000000000000000000000000000000000602082015250565b60006138b9602283612576565b91506138c48261385d565b604082019050919050565b600060208201905081810360008301526138e8816138ac565b9050919050565b7f526573756c7420697320616c7265616479207075626c69736865642100000000600082015250565b6000613925601c83612576565b9150613930826138ef565b602082019050919050565b6000602082019050818103600083015261395481613918565b9050919050565b7f566f74696e672070726f6365737320616c726561647920737461727465640000600082015250565b6000613991601e83612576565b915061399c8261395b565b602082019050919050565b600060208201905081810360008301526139c081613984565b9050919050565b7f43616e64696461746520697320616c7265616479207265676973746572656421600082015250565b60006139fd602083612576565b9150613a08826139c7565b602082019050919050565b60006020820190508181036000830152613a2c816139f0565b9050919050565b7f496e76616c69642079656172206f662053747564790000000000000000000000600082015250565b6000613a69601583612576565b9150613a7482613a33565b602082019050919050565b60006020820190508181036000830152613a9881613a5c565b9050919050565b60006020601f8301049050919050565b600082821b905092915050565b600060088302613aec7fffffffffffffffffffffffffffffffffffffffffffffffffffffffffffffffff82613aaf565b613af68683613aaf565b95508019841693508086168417925050509392505050565b6000819050919050565b6000613b33613b2e613b2984612508565b613b0e565b612508565b9050919050565b6000819050919050565b613b4d83613b18565b613b61613b5982613b3a565b848454613abc565b825550505050565b600090565b613b76613b69565b613b81818484613b44565b505050565b5b81811015613ba557613b9a600082613b6e565b600181019050613b87565b5050565b601f821115613bea57613bbb816137ae565b613bc484613a9f565b81016020851015613bd3578190505b613be7613bdf85613a9f565b830182613b86565b50505b505050565b600082821c905092915050565b6000613c0d60001984600802613bef565b1980831691505092915050565b6000613c268383613bfc565b9150826002028217905092915050565b613c3f8261256b565b67ffffffffffffffff811115613c5857613c57612651565b5b613c62825461301a565b613c6d828285613ba9565b600060209050601f831160018114613ca05760008415613c8e578287015190505b613c988582613c1a565b865550613d00565b601f198416613cae866137ae565b60005b82811015613cd657848901518255600182019150602085019450602081019050613cb1565b86831015613cf35784890151613cef601f891682613bfc565b8355505b6001600288020188555050505b50505050505056fea2646970667358221220a1aa94beb06b907da022a63502b131619f22b60753aee92a87f617c1aa5e452964736f6c63430008130033",
  "immutableReferences": {},
  "source": "// SPDX-License-Identifier: MIT\npragma solidity ^0.8.0;\nimport \"./VoterContract.sol\";\nimport \"./AccessControl.sol\";\nimport \"./TimeControl.sol\";\nimport \"./CandidateStructure.sol\";\n\ncontract CandidateGovernor is AccessControl, CandidateStructure {\n\n    //Governor Registration\n    mapping(string => Candidate) public candidateGovernor;\n\n    mapping(address => bool) public governorVoted;\n\n    string[] public governorList;\n\n    //Number of candidate in a particular position\n    uint256 public numberOfGovernor;\n\n    // function getGovernorList() public view returns (string memory)\n    // {\n    //     return governorList;\n    // }\n\n    // event NewGovernorRegistered(string firstName, string lastName, string collegeName, string programName, uint256 yearOfStudy, string regNo, string blockNumber);\n\n    function registerGovernor(string memory _firstName, string memory _lastName, string memory _collegeName,string memory _programName, uint256 _yearOfStudy, string memory _regNo, string memory _blockNumber, address _timeControlContractAddress) public onlyAdmin{\n        TimeControl tC = TimeControl(_timeControlContractAddress);\n        require(!tC.isInitiate(), \"Voting process already started\");\n        require(!isRegistered[_regNo], \"Candidate is already registered!\");\n        require(_yearOfStudy > 0 && _yearOfStudy < 5, \"Invalid year of Study\");\n        Candidate memory newCandidate = Candidate({firstName: _firstName, lastName: _lastName, collegeName: _collegeName,programName: _programName, yearOfStudy: _yearOfStudy, \n        regNo: _regNo, blockNumber: _blockNumber, position: \"GOVERNOR\", isWinner: false, voteCount: 0\n        });\n        isRegistered[_regNo]= true;\n        candidateGovernor[_regNo] = newCandidate;\n        // candidateGovernorCnms[_regNo] = newCandidate;\n        governorList.push(_regNo);\n        numberOfGovernor++;\n\n        // emit NewGovernorRegistered(_firstName, _collegeName, _programName, _yearOfStudy, _regNo, _blockNumber, _gender);      \n    }\n\n    //return the registration number for the candidates for each position\n\n    function getGovernorRegNumber() public view returns (string[] memory){\n        return governorList;\n    }\n    \n    function adminViewGovernors(string memory _regNo) public view returns(string memory firstName,string memory lastName, \n        string memory collegeName, string memory programName, uint256 yearOfStudy, string memory regNo, string memory blockNumber, string memory position,uint256 voteCount){\n        Candidate memory candidateGov = candidateGovernor[_regNo];\n        firstName = candidateGov.firstName;\n        lastName = candidateGov.lastName;\n        collegeName = candidateGov.collegeName;\n        programName = candidateGov.programName;\n        yearOfStudy = candidateGov.yearOfStudy;\n        regNo = candidateGov.regNo;\n        blockNumber = candidateGov.blockNumber;\n        position = candidateGov.position;\n        voteCount = candidateGov.voteCount;\n    }\n\n    function castVoteGovernor( string memory _governorRegNo, address _voterContractAddress, address _timeControlContractAddress ) public {\n        VoterContract vc = VoterContract(_voterContractAddress);\n        TimeControl tC = TimeControl(_timeControlContractAddress);\n        require(tC.isInitiate(), \"Voting process doesn't started yet!\");\n        require(vc.getVoter(msg.sender).isRegistered, \"Voter is not registered\");\n        require(isRegistered[_governorRegNo], \"Invalid candidate\");\n        require(keccak256(bytes(vc.getVoter(msg.sender).collegeName)) == keccak256(bytes(candidateGovernor[_governorRegNo].collegeName)), \"Your Not valid voter\");    \n        require(!governorVoted[msg.sender], \"You have already voted for Governor!!!\");\n        governorVoted[msg.sender] = true; \n        \n        Candidate storage candidate = candidateGovernor[_governorRegNo];\n        candidate.voteCount++;\n        totalVotes++;\n\n        // emit VoteCast(candidate.voteCount, candidate.regNo);\n    }\n\n    function getWinnerGovernor() public view returns (string memory, string memory, string memory, string memory, uint256){  \n        uint256 winningGovernorVoteCount = 0;\n        uint256 winningGovernorIndex = 0;    \n        for (uint256 i = 0; i < governorList.length; i++) {\n            if (candidateGovernor[governorList[i]].voteCount > winningGovernorVoteCount) {\n                winningGovernorVoteCount = candidateGovernor[governorList[i]].voteCount;\n                winningGovernorIndex = i;\n            }\n        }\n        Candidate memory winner = candidateGovernor[governorList[winningGovernorIndex]];\n        // emit getTheWinner(winner.firstName, winner.regNo, winner.collegeName, winner.programName, winner.voteCount);\n        return (winner.firstName, winner.lastName, winner.collegeName, winner.position, winner.voteCount);\n    }\n\n    function voterViewGovernors(address addressVoter, address _voterContractAddress) public view returns (Candidate[] memory) {\n        VoterContract vC = VoterContract(_voterContractAddress);\n        VoterContract.Voter memory newVoter = vC.getVoter(addressVoter);\n        string memory voterCollege = newVoter.collegeName;\n\n        Candidate[] memory result = new Candidate[](governorList.length);\n        string[] memory governorLst = governorList;\n        uint256 count = 0; // Index for adding candidates to the result array\n\n        for (uint256 i = 0; i < governorLst.length; i++) {\n            if (keccak256(bytes(candidateGovernor[governorLst[i]].collegeName)) == keccak256(bytes(voterCollege))) {\n                result[count] = candidateGovernor[governorLst[i]];\n                count++;\n            }\n        }\n        // Resize the result array to remove any empty elements\n        assembly {\n            mstore(result, count)\n        }\n        return result;\n    }\n\n}",
  "sourcePath": "/home/temba/Documents/client/contracts/CandidateGovernor.sol",
  "compiler": {
    "name": "solc",
    "version": "0.8.19+commit.7dd6d404.Emscripten.clang"
  },
  "schemaVersion": "3.4.14",
  "updatedAt": "2023-06-30T04:15:59.260Z",
  "networkType": "ethereum",
  "devdoc": {
    "kind": "dev",
    "methods": {},
    "version": 1
  },
  "userdoc": {
    "kind": "user",
    "methods": {},
    "version": 1
  }
}