{
  "contractName": "CastVote",
  "abi": [
    {
      "anonymous": false,
      "inputs": [
        {
          "indexed": false,
          "internalType": "uint256",
          "name": "voteCount",
          "type": "uint256"
        },
        {
          "indexed": false,
          "internalType": "string",
          "name": "candidateRegNo",
          "type": "string"
        }
      ],
      "name": "VoteCast",
      "type": "event"
    },
    {
      "inputs": [],
      "name": "StateOfElection",
      "outputs": [
        {
          "internalType": "enum CastVote.State",
          "name": "",
          "type": "uint8"
        }
      ],
      "stateMutability": "view",
      "type": "function"
    },
    {
      "inputs": [
        {
          "internalType": "uint256",
          "name": "",
          "type": "uint256"
        }
      ],
      "name": "blockLeaderList",
      "outputs": [
        {
          "internalType": "string",
          "name": "",
          "type": "string"
        }
      ],
      "stateMutability": "view",
      "type": "function"
    },
    {
      "inputs": [
        {
          "internalType": "address",
          "name": "",
          "type": "address"
        }
      ],
      "name": "blockLeaderVoted",
      "outputs": [
        {
          "internalType": "bool",
          "name": "",
          "type": "bool"
        }
      ],
      "stateMutability": "view",
      "type": "function"
    },
    {
      "inputs": [
        {
          "internalType": "string",
          "name": "",
          "type": "string"
        }
      ],
      "name": "candidateBlockLeader",
      "outputs": [
        {
          "internalType": "string",
          "name": "firstName",
          "type": "string"
        },
        {
          "internalType": "string",
          "name": "lastName",
          "type": "string"
        },
        {
          "internalType": "string",
          "name": "collegeName",
          "type": "string"
        },
        {
          "internalType": "string",
          "name": "programName",
          "type": "string"
        },
        {
          "internalType": "uint256",
          "name": "yearOfStudy",
          "type": "uint256"
        },
        {
          "internalType": "string",
          "name": "regNo",
          "type": "string"
        },
        {
          "internalType": "string",
          "name": "blockNumber",
          "type": "string"
        },
        {
          "internalType": "string",
          "name": "gender",
          "type": "string"
        },
        {
          "internalType": "bool",
          "name": "isWinner",
          "type": "bool"
        },
        {
          "internalType": "uint256",
          "name": "voteCount",
          "type": "uint256"
        }
      ],
      "stateMutability": "view",
      "type": "function"
    },
    {
      "inputs": [
        {
          "internalType": "string",
          "name": "",
          "type": "string"
        }
      ],
      "name": "candidateGovernor",
      "outputs": [
        {
          "internalType": "string",
          "name": "firstName",
          "type": "string"
        },
        {
          "internalType": "string",
          "name": "lastName",
          "type": "string"
        },
        {
          "internalType": "string",
          "name": "collegeName",
          "type": "string"
        },
        {
          "internalType": "string",
          "name": "programName",
          "type": "string"
        },
        {
          "internalType": "uint256",
          "name": "yearOfStudy",
          "type": "uint256"
        },
        {
          "internalType": "string",
          "name": "regNo",
          "type": "string"
        },
        {
          "internalType": "string",
          "name": "blockNumber",
          "type": "string"
        },
        {
          "internalType": "string",
          "name": "gender",
          "type": "string"
        },
        {
          "internalType": "bool",
          "name": "isWinner",
          "type": "bool"
        },
        {
          "internalType": "uint256",
          "name": "voteCount",
          "type": "uint256"
        }
      ],
      "stateMutability": "view",
      "type": "function"
    },
    {
      "inputs": [
        {
          "internalType": "string",
          "name": "",
          "type": "string"
        }
      ],
      "name": "candidatePresident",
      "outputs": [
        {
          "internalType": "string",
          "name": "firstName",
          "type": "string"
        },
        {
          "internalType": "string",
          "name": "lastName",
          "type": "string"
        },
        {
          "internalType": "string",
          "name": "collegeName",
          "type": "string"
        },
        {
          "internalType": "string",
          "name": "programName",
          "type": "string"
        },
        {
          "internalType": "uint256",
          "name": "yearOfStudy",
          "type": "uint256"
        },
        {
          "internalType": "string",
          "name": "regNo",
          "type": "string"
        },
        {
          "internalType": "string",
          "name": "blockNumber",
          "type": "string"
        },
        {
          "internalType": "string",
          "name": "gender",
          "type": "string"
        },
        {
          "internalType": "bool",
          "name": "isWinner",
          "type": "bool"
        },
        {
          "internalType": "uint256",
          "name": "voteCount",
          "type": "uint256"
        }
      ],
      "stateMutability": "view",
      "type": "function"
    },
    {
      "inputs": [
        {
          "internalType": "uint256",
          "name": "",
          "type": "uint256"
        }
      ],
      "name": "governorList",
      "outputs": [
        {
          "internalType": "string",
          "name": "",
          "type": "string"
        }
      ],
      "stateMutability": "view",
      "type": "function"
    },
    {
      "inputs": [
        {
          "internalType": "address",
          "name": "",
          "type": "address"
        }
      ],
      "name": "governorVoted",
      "outputs": [
        {
          "internalType": "bool",
          "name": "",
          "type": "bool"
        }
      ],
      "stateMutability": "view",
      "type": "function"
    },
    {
      "inputs": [
        {
          "internalType": "address",
          "name": "",
          "type": "address"
        }
      ],
      "name": "hasLogedin",
      "outputs": [
        {
          "internalType": "bool",
          "name": "",
          "type": "bool"
        }
      ],
      "stateMutability": "view",
      "type": "function"
    },
    {
      "inputs": [],
      "name": "isInitiated",
      "outputs": [
        {
          "internalType": "bool",
          "name": "",
          "type": "bool"
        }
      ],
      "stateMutability": "view",
      "type": "function"
    },
    {
      "inputs": [
        {
          "internalType": "string",
          "name": "",
          "type": "string"
        }
      ],
      "name": "isRegistered",
      "outputs": [
        {
          "internalType": "bool",
          "name": "",
          "type": "bool"
        }
      ],
      "stateMutability": "view",
      "type": "function"
    },
    {
      "inputs": [],
      "name": "numberOfBlockLeader",
      "outputs": [
        {
          "internalType": "uint256",
          "name": "",
          "type": "uint256"
        }
      ],
      "stateMutability": "view",
      "type": "function"
    },
    {
      "inputs": [
        {
          "internalType": "uint256",
          "name": "",
          "type": "uint256"
        }
      ],
      "name": "numberOfGovernor",
      "outputs": [
        {
          "internalType": "uint256",
          "name": "",
          "type": "uint256"
        }
      ],
      "stateMutability": "view",
      "type": "function"
    },
    {
      "inputs": [],
      "name": "numberOfPresident",
      "outputs": [
        {
          "internalType": "uint256",
          "name": "",
          "type": "uint256"
        }
      ],
      "stateMutability": "view",
      "type": "function"
    },
    {
      "inputs": [
        {
          "internalType": "uint256",
          "name": "",
          "type": "uint256"
        }
      ],
      "name": "presidentList",
      "outputs": [
        {
          "internalType": "string",
          "name": "",
          "type": "string"
        }
      ],
      "stateMutability": "view",
      "type": "function"
    },
    {
      "inputs": [
        {
          "internalType": "address",
          "name": "",
          "type": "address"
        }
      ],
      "name": "presidentVoted",
      "outputs": [
        {
          "internalType": "bool",
          "name": "",
          "type": "bool"
        }
      ],
      "stateMutability": "view",
      "type": "function"
    },
    {
      "inputs": [],
      "name": "totalVotes",
      "outputs": [
        {
          "internalType": "uint256",
          "name": "",
          "type": "uint256"
        }
      ],
      "stateMutability": "view",
      "type": "function"
    },
    {
      "inputs": [
        {
          "internalType": "uint256",
          "name": "",
          "type": "uint256"
        }
      ],
      "name": "voterAddressArray",
      "outputs": [
        {
          "internalType": "address",
          "name": "",
          "type": "address"
        }
      ],
      "stateMutability": "view",
      "type": "function"
    },
    {
      "inputs": [
        {
          "internalType": "address",
          "name": "",
          "type": "address"
        }
      ],
      "name": "voterSession",
      "outputs": [
        {
          "internalType": "string",
          "name": "",
          "type": "string"
        }
      ],
      "stateMutability": "view",
      "type": "function"
    },
    {
      "inputs": [
        {
          "internalType": "address",
          "name": "",
          "type": "address"
        }
      ],
      "name": "voters",
      "outputs": [
        {
          "internalType": "address",
          "name": "voterAddress",
          "type": "address"
        },
        {
          "internalType": "string",
          "name": "firstName",
          "type": "string"
        },
        {
          "internalType": "string",
          "name": "lastName",
          "type": "string"
        },
        {
          "internalType": "string",
          "name": "collegeName",
          "type": "string"
        },
        {
          "internalType": "string",
          "name": "programName",
          "type": "string"
        },
        {
          "internalType": "uint256",
          "name": "yearOfStudy",
          "type": "uint256"
        },
        {
          "internalType": "string",
          "name": "regNo",
          "type": "string"
        },
        {
          "internalType": "string",
          "name": "blockNumber",
          "type": "string"
        },
        {
          "internalType": "string",
          "name": "password",
          "type": "string"
        },
        {
          "internalType": "string",
          "name": "gender",
          "type": "string"
        },
        {
          "internalType": "bool",
          "name": "isRegistered",
          "type": "bool"
        },
        {
          "internalType": "bool",
          "name": "voted",
          "type": "bool"
        }
      ],
      "stateMutability": "view",
      "type": "function"
    },
    {
      "inputs": [
        {
          "internalType": "string",
          "name": "_governorRegNo",
          "type": "string"
        }
      ],
      "name": "castVoteGovernor",
      "outputs": [],
      "stateMutability": "nonpayable",
      "type": "function"
    },
    {
      "inputs": [
        {
          "internalType": "string",
          "name": "_blockLeaderRegNo",
          "type": "string"
        }
      ],
      "name": "castVoteBlockLeader",
      "outputs": [],
      "stateMutability": "nonpayable",
      "type": "function"
    },
    {
      "inputs": [],
      "name": "getVotingStatus",
      "outputs": [
        {
          "internalType": "bool",
          "name": "",
          "type": "bool"
        }
      ],
      "stateMutability": "view",
      "type": "function"
    },
    {
      "inputs": [],
      "name": "getWinnerPresident",
      "outputs": [
        {
          "internalType": "string",
          "name": "",
          "type": "string"
        },
        {
          "internalType": "string",
          "name": "",
          "type": "string"
        },
        {
          "internalType": "string",
          "name": "",
          "type": "string"
        },
        {
          "internalType": "string",
          "name": "",
          "type": "string"
        },
        {
          "internalType": "uint256",
          "name": "",
          "type": "uint256"
        }
      ],
      "stateMutability": "view",
      "type": "function"
    },
    {
      "inputs": [],
      "name": "getWinnerGovernor",
      "outputs": [
        {
          "internalType": "string",
          "name": "",
          "type": "string"
        },
        {
          "internalType": "string",
          "name": "",
          "type": "string"
        },
        {
          "internalType": "string",
          "name": "",
          "type": "string"
        },
        {
          "internalType": "string",
          "name": "",
          "type": "string"
        },
        {
          "internalType": "uint256",
          "name": "",
          "type": "uint256"
        }
      ],
      "stateMutability": "view",
      "type": "function"
    },
    {
      "inputs": [],
      "name": "getWinnerBlockLeader",
      "outputs": [
        {
          "internalType": "string",
          "name": "",
          "type": "string"
        },
        {
          "internalType": "string",
          "name": "",
          "type": "string"
        },
        {
          "internalType": "string",
          "name": "",
          "type": "string"
        },
        {
          "internalType": "string",
          "name": "",
          "type": "string"
        },
        {
          "internalType": "uint256",
          "name": "",
          "type": "uint256"
        }
      ],
      "stateMutability": "view",
      "type": "function"
    }
  ],
  "bytecode": "0x60806040526000601b60016101000a81548160ff021916908360028111156200002d576200002c62000046565b5b02179055503480156200003f57600080fd5b5062000075565b7f4e487b7100000000000000000000000000000000000000000000000000000000600052602160045260246000fd5b614d2c80620000856000396000f3fe608060405234801561001057600080fd5b506004361061018e5760003560e01c80636d75f0de116100de578063daa4348f11610097578063e6b52a3311610071578063e6b52a3314610538578063f644502614610568578063f6ffc117146105a1578063fdfc14fa146105bf5761018e565b8063daa4348f146104c8578063dccea189146104ea578063e316db4e146105085761018e565b80636d75f0de146103ab57806371b7ddb8146103cd578063a0b0df95146103fd578063a3ec138d1461042d578063bf08128f14610468578063c822d7f0146104985761018e565b80631cb599141161014b5780635aca02cf116101255780635aca02cf146103115780635b6e990c1461032d5780635f8b99721461035d5780636d025f401461038d5761018e565b80631cb59914146102a557806345a8a2be146102c3578063581c281c146102f35761018e565b806302aac7b214610193578063052fbf8c146101c35780630d15fd77146101f3578063166b47221461021157806319fbf89f1461024a5780631ac45f521461026c575b600080fd5b6101ad60048036038101906101a89190613e96565b6105db565b6040516101ba9190613f53565b60405180910390f35b6101dd60048036038101906101d89190613fd3565b610687565b6040516101ea919061401b565b60405180910390f35b6101fb6106a7565b6040516102089190614045565b60405180910390f35b61022b60048036038101906102269190614195565b6106ad565b6040516102419a999897969594939291906141de565b60405180910390f35b610252610adc565b6040516102639594939291906142ab565b60405180910390f35b61028660048036038101906102819190614195565b611080565b60405161029c9a999897969594939291906141de565b60405180910390f35b6102ad6114af565b6040516102ba919061401b565b60405180910390f35b6102dd60048036038101906102d89190613e96565b6114c2565b6040516102ea9190613f53565b60405180910390f35b6102fb61156e565b604051610308919061401b565b60405180910390f35b61032b60048036038101906103269190614195565b611589565b005b61034760048036038101906103429190613fd3565b611ee5565b6040516103549190613f53565b60405180910390f35b61037760048036038101906103729190613fd3565b611f85565b604051610384919061401b565b60405180910390f35b610395611fa5565b6040516103a29190614391565b60405180910390f35b6103b3611fb8565b6040516103c49594939291906142ab565b60405180910390f35b6103e760048036038101906103e29190613e96565b61255c565b6040516103f491906143bb565b60405180910390f35b61041760048036038101906104129190613fd3565b61259b565b604051610424919061401b565b60405180910390f35b61044760048036038101906104429190613fd3565b6125bb565b60405161045f9c9b9a999897969594939291906143d6565b60405180910390f35b610482600480360381019061047d9190613fd3565b612a95565b60405161048f919061401b565b60405180910390f35b6104b260048036038101906104ad9190614195565b612ab5565b6040516104bf919061401b565b60405180910390f35b6104d0612aeb565b6040516104e19594939291906142ab565b60405180910390f35b6104f261308f565b6040516104ff9190614045565b60405180910390f35b610522600480360381019061051d9190613e96565b613095565b60405161052f9190613f53565b60405180910390f35b610552600480360381019061054d9190613e96565b613141565b60405161055f9190614045565b60405180910390f35b610582600480360381019061057d9190614195565b61315c565b6040516105989a999897969594939291906141de565b60405180910390f35b6105a961358b565b6040516105b69190614045565b60405180910390f35b6105d960048036038101906105d49190614195565b613591565b005b600d81815481106105eb57600080fd5b906000526020600020016000915090508054610606906144f7565b80601f0160208091040260200160405190810160405280929190818152602001828054610632906144f7565b801561067f5780601f106106545761010080835404028352916020019161067f565b820191906000526020600020905b81548152906001019060200180831161066257829003601f168201915b505050505081565b600b6020528060005260406000206000915054906101000a900460ff1681565b60045481565b6006818051602081018201805184825260208301602085012081835280955050505050506000915090508060000180546106e6906144f7565b80601f0160208091040260200160405190810160405280929190818152602001828054610712906144f7565b801561075f5780601f106107345761010080835404028352916020019161075f565b820191906000526020600020905b81548152906001019060200180831161074257829003601f168201915b505050505090806001018054610774906144f7565b80601f01602080910402602001604051908101604052809291908181526020018280546107a0906144f7565b80156107ed5780601f106107c2576101008083540402835291602001916107ed565b820191906000526020600020905b8154815290600101906020018083116107d057829003601f168201915b505050505090806002018054610802906144f7565b80601f016020809104026020016040519081016040528092919081815260200182805461082e906144f7565b801561087b5780601f106108505761010080835404028352916020019161087b565b820191906000526020600020905b81548152906001019060200180831161085e57829003601f168201915b505050505090806003018054610890906144f7565b80601f01602080910402602001604051908101604052809291908181526020018280546108bc906144f7565b80156109095780601f106108de57610100808354040283529160200191610909565b820191906000526020600020905b8154815290600101906020018083116108ec57829003601f168201915b505050505090806004015490806005018054610924906144f7565b80601f0160208091040260200160405190810160405280929190818152602001828054610950906144f7565b801561099d5780601f106109725761010080835404028352916020019161099d565b820191906000526020600020905b81548152906001019060200180831161098057829003601f168201915b5050505050908060060180546109b2906144f7565b80601f01602080910402602001604051908101604052809291908181526020018280546109de906144f7565b8015610a2b5780601f10610a0057610100808354040283529160200191610a2b565b820191906000526020600020905b815481529060010190602001808311610a0e57829003601f168201915b505050505090806007018054610a40906144f7565b80601f0160208091040260200160405190810160405280929190818152602001828054610a6c906144f7565b8015610ab95780601f10610a8e57610100808354040283529160200191610ab9565b820191906000526020600020905b815481529060010190602001808311610a9c57829003601f168201915b5050505050908060080160009054906101000a900460ff1690806009015490508a565b60608060608060006019544211610b28576040517f08c379a0000000000000000000000000000000000000000000000000000000008152600401610b1f90614574565b60405180910390fd5b60008060005b600e80549050811015610bd957826007600e8381548110610b5257610b51614594565b5b90600052602060002001604051610b699190614666565b9081526020016040518091039020600901541115610bc6576007600e8281548110610b9757610b96614594565b5b90600052602060002001604051610bae9190614666565b90815260200160405180910390206009015492508091505b8080610bd1906146ac565b915050610b2e565b5060006007600e8381548110610bf257610bf1614594565b5b90600052602060002001604051610c099190614666565b908152602001604051809103902060405180610140016040529081600082018054610c33906144f7565b80601f0160208091040260200160405190810160405280929190818152602001828054610c5f906144f7565b8015610cac5780601f10610c8157610100808354040283529160200191610cac565b820191906000526020600020905b815481529060010190602001808311610c8f57829003601f168201915b50505050508152602001600182018054610cc5906144f7565b80601f0160208091040260200160405190810160405280929190818152602001828054610cf1906144f7565b8015610d3e5780601f10610d1357610100808354040283529160200191610d3e565b820191906000526020600020905b815481529060010190602001808311610d2157829003601f168201915b50505050508152602001600282018054610d57906144f7565b80601f0160208091040260200160405190810160405280929190818152602001828054610d83906144f7565b8015610dd05780601f10610da557610100808354040283529160200191610dd0565b820191906000526020600020905b815481529060010190602001808311610db357829003601f168201915b50505050508152602001600382018054610de9906144f7565b80601f0160208091040260200160405190810160405280929190818152602001828054610e15906144f7565b8015610e625780601f10610e3757610100808354040283529160200191610e62565b820191906000526020600020905b815481529060010190602001808311610e4557829003601f168201915b5050505050815260200160048201548152602001600582018054610e85906144f7565b80601f0160208091040260200160405190810160405280929190818152602001828054610eb1906144f7565b8015610efe5780601f10610ed357610100808354040283529160200191610efe565b820191906000526020600020905b815481529060010190602001808311610ee157829003601f168201915b50505050508152602001600682018054610f17906144f7565b80601f0160208091040260200160405190810160405280929190818152602001828054610f43906144f7565b8015610f905780601f10610f6557610100808354040283529160200191610f90565b820191906000526020600020905b815481529060010190602001808311610f7357829003601f168201915b50505050508152602001600782018054610fa9906144f7565b80601f0160208091040260200160405190810160405280929190818152602001828054610fd5906144f7565b80156110225780601f10610ff757610100808354040283529160200191611022565b820191906000526020600020905b81548152906001019060200180831161100557829003601f168201915b505050505081526020016008820160009054906101000a900460ff16151515158152602001600982015481525050905080600001518160a0015182604001518360600151846101200151975097509750975097505050509091929394565b6008818051602081018201805184825260208301602085012081835280955050505050506000915090508060000180546110b9906144f7565b80601f01602080910402602001604051908101604052809291908181526020018280546110e5906144f7565b80156111325780601f1061110757610100808354040283529160200191611132565b820191906000526020600020905b81548152906001019060200180831161111557829003601f168201915b505050505090806001018054611147906144f7565b80601f0160208091040260200160405190810160405280929190818152602001828054611173906144f7565b80156111c05780601f10611195576101008083540402835291602001916111c0565b820191906000526020600020905b8154815290600101906020018083116111a357829003601f168201915b5050505050908060020180546111d5906144f7565b80601f0160208091040260200160405190810160405280929190818152602001828054611201906144f7565b801561124e5780601f106112235761010080835404028352916020019161124e565b820191906000526020600020905b81548152906001019060200180831161123157829003601f168201915b505050505090806003018054611263906144f7565b80601f016020809104026020016040519081016040528092919081815260200182805461128f906144f7565b80156112dc5780601f106112b1576101008083540402835291602001916112dc565b820191906000526020600020905b8154815290600101906020018083116112bf57829003601f168201915b5050505050908060040154908060050180546112f7906144f7565b80601f0160208091040260200160405190810160405280929190818152602001828054611323906144f7565b80156113705780601f1061134557610100808354040283529160200191611370565b820191906000526020600020905b81548152906001019060200180831161135357829003601f168201915b505050505090806006018054611385906144f7565b80601f01602080910402602001604051908101604052809291908181526020018280546113b1906144f7565b80156113fe5780601f106113d3576101008083540402835291602001916113fe565b820191906000526020600020905b8154815290600101906020018083116113e157829003601f168201915b505050505090806007018054611413906144f7565b80601f016020809104026020016040519081016040528092919081815260200182805461143f906144f7565b801561148c5780601f106114615761010080835404028352916020019161148c565b820191906000526020600020905b81548152906001019060200180831161146f57829003601f168201915b5050505050908060080160009054906101000a900460ff1690806009015490508a565b601b60009054906101000a900460ff1681565b600e81815481106114d257600080fd5b9060005260206000200160009150905080546114ed906144f7565b80601f0160208091040260200160405190810160405280929190818152602001828054611519906144f7565b80156115665780601f1061153b57610100808354040283529160200191611566565b820191906000526020600020905b81548152906001019060200180831161154957829003601f168201915b505050505081565b6000601854421015801561158457506019544211155b905090565b6018544210156115ce576040517f08c379a00000000000000000000000000000000000000000000000000000000081526004016115c590614740565b60405180910390fd5b601954421115611613576040517f08c379a000000000000000000000000000000000000000000000000000000000815260040161160a906147ac565b60405180910390fd5b600160003373ffffffffffffffffffffffffffffffffffffffff1673ffffffffffffffffffffffffffffffffffffffff16815260200190815260200160002060009054906101000a900460ff1661169f576040517f08c379a00000000000000000000000000000000000000000000000000000000081526004016116969061483e565b60405180910390fd5b6000803373ffffffffffffffffffffffffffffffffffffffff1673ffffffffffffffffffffffffffffffffffffffff168152602001908152602001600020600a0160009054906101000a900460ff1661172d576040517f08c379a0000000000000000000000000000000000000000000000000000000008152600401611724906148aa565b60405180910390fd5b60058160405161173d91906148fb565b908152602001604051809103902060009054906101000a900460ff16611798576040517f08c379a000000000000000000000000000000000000000000000000000000000815260040161178f9061495e565b60405180910390fd5b6008816040516117a891906148fb565b90815260200160405180910390206002016040516117c69190614a21565b60405180910390206000803373ffffffffffffffffffffffffffffffffffffffff1673ffffffffffffffffffffffffffffffffffffffff16815260200190815260200160002060030160405161181c9190614a21565b604051809103902014611864576040517f08c379a000000000000000000000000000000000000000000000000000000000815260040161185b90614aaa565b60405180910390fd5b60088160405161187491906148fb565b90815260200160405180910390206006016040516118929190614a21565b60405180910390206000803373ffffffffffffffffffffffffffffffffffffffff1673ffffffffffffffffffffffffffffffffffffffff1681526020019081526020016000206007016040516118e89190614a21565b604051809103902014611930576040517f08c379a000000000000000000000000000000000000000000000000000000000815260040161192790614b16565b60405180910390fd5b600b60003373ffffffffffffffffffffffffffffffffffffffff1673ffffffffffffffffffffffffffffffffffffffff16815260200190815260200160002060009054906101000a900460ff16156119bd576040517f08c379a00000000000000000000000000000000000000000000000000000000081526004016119b490614ba8565b60405180910390fd5b6001600b60003373ffffffffffffffffffffffffffffffffffffffff1673ffffffffffffffffffffffffffffffffffffffff16815260200190815260200160002060006101000a81548160ff0219169083151502179055506000600882604051611a2791906148fb565b908152602001604051809103902060405180610140016040529081600082018054611a51906144f7565b80601f0160208091040260200160405190810160405280929190818152602001828054611a7d906144f7565b8015611aca5780601f10611a9f57610100808354040283529160200191611aca565b820191906000526020600020905b815481529060010190602001808311611aad57829003601f168201915b50505050508152602001600182018054611ae3906144f7565b80601f0160208091040260200160405190810160405280929190818152602001828054611b0f906144f7565b8015611b5c5780601f10611b3157610100808354040283529160200191611b5c565b820191906000526020600020905b815481529060010190602001808311611b3f57829003601f168201915b50505050508152602001600282018054611b75906144f7565b80601f0160208091040260200160405190810160405280929190818152602001828054611ba1906144f7565b8015611bee5780601f10611bc357610100808354040283529160200191611bee565b820191906000526020600020905b815481529060010190602001808311611bd157829003601f168201915b50505050508152602001600382018054611c07906144f7565b80601f0160208091040260200160405190810160405280929190818152602001828054611c33906144f7565b8015611c805780601f10611c5557610100808354040283529160200191611c80565b820191906000526020600020905b815481529060010190602001808311611c6357829003601f168201915b5050505050815260200160048201548152602001600582018054611ca3906144f7565b80601f0160208091040260200160405190810160405280929190818152602001828054611ccf906144f7565b8015611d1c5780601f10611cf157610100808354040283529160200191611d1c565b820191906000526020600020905b815481529060010190602001808311611cff57829003601f168201915b50505050508152602001600682018054611d35906144f7565b80601f0160208091040260200160405190810160405280929190818152602001828054611d61906144f7565b8015611dae5780601f10611d8357610100808354040283529160200191611dae565b820191906000526020600020905b815481529060010190602001808311611d9157829003601f168201915b50505050508152602001600782018054611dc7906144f7565b80601f0160208091040260200160405190810160405280929190818152602001828054611df3906144f7565b8015611e405780601f10611e1557610100808354040283529160200191611e40565b820191906000526020600020905b815481529060010190602001808311611e2357829003601f168201915b505050505081526020016008820160009054906101000a900460ff16151515158152602001600982015481525050905080610120018051809190611e83906146ac565b8152505060046000815480929190611e9a906146ac565b91905055507f26b8bb11f3c32b3756310fd2a521248252d66e44f3eb3536fca4373241956d438161012001518260a00151604051611ed9929190614bc8565b60405180910390a15050565b60026020528060005260406000206000915090508054611f04906144f7565b80601f0160208091040260200160405190810160405280929190818152602001828054611f30906144f7565b8015611f7d5780601f10611f5257610100808354040283529160200191611f7d565b820191906000526020600020905b815481529060010190602001808311611f6057829003601f168201915b505050505081565b60096020528060005260406000206000915054906101000a900460ff1681565b601b60019054906101000a900460ff1681565b60608060608060006019544211612004576040517f08c379a0000000000000000000000000000000000000000000000000000000008152600401611ffb90614574565b60405180910390fd5b60008060005b600d805490508110156120b557826007600d838154811061202e5761202d614594565b5b906000526020600020016040516120459190614666565b90815260200160405180910390206009015411156120a2576007600d828154811061207357612072614594565b5b9060005260206000200160405161208a9190614666565b90815260200160405180910390206009015492508091505b80806120ad906146ac565b91505061200a565b5060006007600d83815481106120ce576120cd614594565b5b906000526020600020016040516120e59190614666565b90815260200160405180910390206040518061014001604052908160008201805461210f906144f7565b80601f016020809104026020016040519081016040528092919081815260200182805461213b906144f7565b80156121885780601f1061215d57610100808354040283529160200191612188565b820191906000526020600020905b81548152906001019060200180831161216b57829003601f168201915b505050505081526020016001820180546121a1906144f7565b80601f01602080910402602001604051908101604052809291908181526020018280546121cd906144f7565b801561221a5780601f106121ef5761010080835404028352916020019161221a565b820191906000526020600020905b8154815290600101906020018083116121fd57829003601f168201915b50505050508152602001600282018054612233906144f7565b80601f016020809104026020016040519081016040528092919081815260200182805461225f906144f7565b80156122ac5780601f10612281576101008083540402835291602001916122ac565b820191906000526020600020905b81548152906001019060200180831161228f57829003601f168201915b505050505081526020016003820180546122c5906144f7565b80601f01602080910402602001604051908101604052809291908181526020018280546122f1906144f7565b801561233e5780601f106123135761010080835404028352916020019161233e565b820191906000526020600020905b81548152906001019060200180831161232157829003601f168201915b5050505050815260200160048201548152602001600582018054612361906144f7565b80601f016020809104026020016040519081016040528092919081815260200182805461238d906144f7565b80156123da5780601f106123af576101008083540402835291602001916123da565b820191906000526020600020905b8154815290600101906020018083116123bd57829003601f168201915b505050505081526020016006820180546123f3906144f7565b80601f016020809104026020016040519081016040528092919081815260200182805461241f906144f7565b801561246c5780601f106124415761010080835404028352916020019161246c565b820191906000526020600020905b81548152906001019060200180831161244f57829003601f168201915b50505050508152602001600782018054612485906144f7565b80601f01602080910402602001604051908101604052809291908181526020018280546124b1906144f7565b80156124fe5780601f106124d3576101008083540402835291602001916124fe565b820191906000526020600020905b8154815290600101906020018083116124e157829003601f168201915b505050505081526020016008820160009054906101000a900460ff16151515158152602001600982015481525050905080600001518160a0015182604001518360600151846101200151975097509750975097505050509091929394565b6003818154811061256c57600080fd5b906000526020600020016000915054906101000a900473ffffffffffffffffffffffffffffffffffffffff1681565b600a6020528060005260406000206000915054906101000a900460ff1681565b60006020528060005260406000206000915090508060000160009054906101000a900473ffffffffffffffffffffffffffffffffffffffff1690806001018054612604906144f7565b80601f0160208091040260200160405190810160405280929190818152602001828054612630906144f7565b801561267d5780601f106126525761010080835404028352916020019161267d565b820191906000526020600020905b81548152906001019060200180831161266057829003601f168201915b505050505090806002018054612692906144f7565b80601f01602080910402602001604051908101604052809291908181526020018280546126be906144f7565b801561270b5780601f106126e05761010080835404028352916020019161270b565b820191906000526020600020905b8154815290600101906020018083116126ee57829003601f168201915b505050505090806003018054612720906144f7565b80601f016020809104026020016040519081016040528092919081815260200182805461274c906144f7565b80156127995780601f1061276e57610100808354040283529160200191612799565b820191906000526020600020905b81548152906001019060200180831161277c57829003601f168201915b5050505050908060040180546127ae906144f7565b80601f01602080910402602001604051908101604052809291908181526020018280546127da906144f7565b80156128275780601f106127fc57610100808354040283529160200191612827565b820191906000526020600020905b81548152906001019060200180831161280a57829003601f168201915b505050505090806005015490806006018054612842906144f7565b80601f016020809104026020016040519081016040528092919081815260200182805461286e906144f7565b80156128bb5780601f10612890576101008083540402835291602001916128bb565b820191906000526020600020905b81548152906001019060200180831161289e57829003601f168201915b5050505050908060070180546128d0906144f7565b80601f01602080910402602001604051908101604052809291908181526020018280546128fc906144f7565b80156129495780601f1061291e57610100808354040283529160200191612949565b820191906000526020600020905b81548152906001019060200180831161292c57829003601f168201915b50505050509080600801805461295e906144f7565b80601f016020809104026020016040519081016040528092919081815260200182805461298a906144f7565b80156129d75780601f106129ac576101008083540402835291602001916129d7565b820191906000526020600020905b8154815290600101906020018083116129ba57829003601f168201915b5050505050908060090180546129ec906144f7565b80601f0160208091040260200160405190810160405280929190818152602001828054612a18906144f7565b8015612a655780601f10612a3a57610100808354040283529160200191612a65565b820191906000526020600020905b815481529060010190602001808311612a4857829003601f168201915b50505050509080600a0160009054906101000a900460ff169080600a0160019054906101000a900460ff1690508c565b60016020528060005260406000206000915054906101000a900460ff1681565b6005818051602081018201805184825260208301602085012081835280955050505050506000915054906101000a900460ff1681565b60608060608060006019544211612b37576040517f08c379a0000000000000000000000000000000000000000000000000000000008152600401612b2e90614574565b60405180910390fd5b60008060005b600c80549050811015612be857826006600c8381548110612b6157612b60614594565b5b90600052602060002001604051612b789190614666565b9081526020016040518091039020600901541115612bd5576006600c8281548110612ba657612ba5614594565b5b90600052602060002001604051612bbd9190614666565b90815260200160405180910390206009015492508091505b8080612be0906146ac565b915050612b3d565b5060006006600c8381548110612c0157612c00614594565b5b90600052602060002001604051612c189190614666565b908152602001604051809103902060405180610140016040529081600082018054612c42906144f7565b80601f0160208091040260200160405190810160405280929190818152602001828054612c6e906144f7565b8015612cbb5780601f10612c9057610100808354040283529160200191612cbb565b820191906000526020600020905b815481529060010190602001808311612c9e57829003601f168201915b50505050508152602001600182018054612cd4906144f7565b80601f0160208091040260200160405190810160405280929190818152602001828054612d00906144f7565b8015612d4d5780601f10612d2257610100808354040283529160200191612d4d565b820191906000526020600020905b815481529060010190602001808311612d3057829003601f168201915b50505050508152602001600282018054612d66906144f7565b80601f0160208091040260200160405190810160405280929190818152602001828054612d92906144f7565b8015612ddf5780601f10612db457610100808354040283529160200191612ddf565b820191906000526020600020905b815481529060010190602001808311612dc257829003601f168201915b50505050508152602001600382018054612df8906144f7565b80601f0160208091040260200160405190810160405280929190818152602001828054612e24906144f7565b8015612e715780601f10612e4657610100808354040283529160200191612e71565b820191906000526020600020905b815481529060010190602001808311612e5457829003601f168201915b5050505050815260200160048201548152602001600582018054612e94906144f7565b80601f0160208091040260200160405190810160405280929190818152602001828054612ec0906144f7565b8015612f0d5780601f10612ee257610100808354040283529160200191612f0d565b820191906000526020600020905b815481529060010190602001808311612ef057829003601f168201915b50505050508152602001600682018054612f26906144f7565b80601f0160208091040260200160405190810160405280929190818152602001828054612f52906144f7565b8015612f9f5780601f10612f7457610100808354040283529160200191612f9f565b820191906000526020600020905b815481529060010190602001808311612f8257829003601f168201915b50505050508152602001600782018054612fb8906144f7565b80601f0160208091040260200160405190810160405280929190818152602001828054612fe4906144f7565b80156130315780601f1061300657610100808354040283529160200191613031565b820191906000526020600020905b81548152906001019060200180831161301457829003601f168201915b505050505081526020016008820160009054906101000a900460ff16151515158152602001600982015481525050905080600001518160a0015182604001518360600151846101200151975097509750975097505050509091929394565b600f5481565b600c81815481106130a557600080fd5b9060005260206000200160009150905080546130c0906144f7565b80601f01602080910402602001604051908101604052809291908181526020018280546130ec906144f7565b80156131395780601f1061310e57610100808354040283529160200191613139565b820191906000526020600020905b81548152906001019060200180831161311c57829003601f168201915b505050505081565b6010816007811061315157600080fd5b016000915090505481565b600781805160208101820180518482526020830160208501208183528095505050505050600091509050806000018054613195906144f7565b80601f01602080910402602001604051908101604052809291908181526020018280546131c1906144f7565b801561320e5780601f106131e35761010080835404028352916020019161320e565b820191906000526020600020905b8154815290600101906020018083116131f157829003601f168201915b505050505090806001018054613223906144f7565b80601f016020809104026020016040519081016040528092919081815260200182805461324f906144f7565b801561329c5780601f106132715761010080835404028352916020019161329c565b820191906000526020600020905b81548152906001019060200180831161327f57829003601f168201915b5050505050908060020180546132b1906144f7565b80601f01602080910402602001604051908101604052809291908181526020018280546132dd906144f7565b801561332a5780601f106132ff5761010080835404028352916020019161332a565b820191906000526020600020905b81548152906001019060200180831161330d57829003601f168201915b50505050509080600301805461333f906144f7565b80601f016020809104026020016040519081016040528092919081815260200182805461336b906144f7565b80156133b85780601f1061338d576101008083540402835291602001916133b8565b820191906000526020600020905b81548152906001019060200180831161339b57829003601f168201915b5050505050908060040154908060050180546133d3906144f7565b80601f01602080910402602001604051908101604052809291908181526020018280546133ff906144f7565b801561344c5780601f106134215761010080835404028352916020019161344c565b820191906000526020600020905b81548152906001019060200180831161342f57829003601f168201915b505050505090806006018054613461906144f7565b80601f016020809104026020016040519081016040528092919081815260200182805461348d906144f7565b80156134da5780601f106134af576101008083540402835291602001916134da565b820191906000526020600020905b8154815290600101906020018083116134bd57829003601f168201915b5050505050908060070180546134ef906144f7565b80601f016020809104026020016040519081016040528092919081815260200182805461351b906144f7565b80156135685780601f1061353d57610100808354040283529160200191613568565b820191906000526020600020905b81548152906001019060200180831161354b57829003601f168201915b5050505050908060080160009054906101000a900460ff1690806009015490508a565b60175481565b6018544210156135d6576040517f08c379a00000000000000000000000000000000000000000000000000000000081526004016135cd90614740565b60405180910390fd5b60195442111561361b576040517f08c379a0000000000000000000000000000000000000000000000000000000008152600401613612906147ac565b60405180910390fd5b600160003373ffffffffffffffffffffffffffffffffffffffff1673ffffffffffffffffffffffffffffffffffffffff16815260200190815260200160002060009054906101000a900460ff166136a7576040517f08c379a000000000000000000000000000000000000000000000000000000000815260040161369e9061483e565b60405180910390fd5b6000803373ffffffffffffffffffffffffffffffffffffffff1673ffffffffffffffffffffffffffffffffffffffff168152602001908152602001600020600a0160009054906101000a900460ff16613735576040517f08c379a000000000000000000000000000000000000000000000000000000000815260040161372c906148aa565b60405180910390fd5b60058160405161374591906148fb565b908152602001604051809103902060009054906101000a900460ff166137a0576040517f08c379a00000000000000000000000000000000000000000000000000000000081526004016137979061495e565b60405180910390fd5b6007816040516137b091906148fb565b90815260200160405180910390206002016040516137ce9190614a21565b60405180910390206000803373ffffffffffffffffffffffffffffffffffffffff1673ffffffffffffffffffffffffffffffffffffffff1681526020019081526020016000206003016040516138249190614a21565b60405180910390201461386c576040517f08c379a000000000000000000000000000000000000000000000000000000000815260040161386390614c44565b60405180910390fd5b600a60003373ffffffffffffffffffffffffffffffffffffffff1673ffffffffffffffffffffffffffffffffffffffff16815260200190815260200160002060009054906101000a900460ff16156138f9576040517f08c379a00000000000000000000000000000000000000000000000000000000081526004016138f090614cd6565b60405180910390fd5b6001600a60003373ffffffffffffffffffffffffffffffffffffffff1673ffffffffffffffffffffffffffffffffffffffff16815260200190815260200160002060006101000a81548160ff021916908315150217905550600060078260405161396391906148fb565b90815260200160405180910390206040518061014001604052908160008201805461398d906144f7565b80601f01602080910402602001604051908101604052809291908181526020018280546139b9906144f7565b8015613a065780601f106139db57610100808354040283529160200191613a06565b820191906000526020600020905b8154815290600101906020018083116139e957829003601f168201915b50505050508152602001600182018054613a1f906144f7565b80601f0160208091040260200160405190810160405280929190818152602001828054613a4b906144f7565b8015613a985780601f10613a6d57610100808354040283529160200191613a98565b820191906000526020600020905b815481529060010190602001808311613a7b57829003601f168201915b50505050508152602001600282018054613ab1906144f7565b80601f0160208091040260200160405190810160405280929190818152602001828054613add906144f7565b8015613b2a5780601f10613aff57610100808354040283529160200191613b2a565b820191906000526020600020905b815481529060010190602001808311613b0d57829003601f168201915b50505050508152602001600382018054613b43906144f7565b80601f0160208091040260200160405190810160405280929190818152602001828054613b6f906144f7565b8015613bbc5780601f10613b9157610100808354040283529160200191613bbc565b820191906000526020600020905b815481529060010190602001808311613b9f57829003601f168201915b5050505050815260200160048201548152602001600582018054613bdf906144f7565b80601f0160208091040260200160405190810160405280929190818152602001828054613c0b906144f7565b8015613c585780601f10613c2d57610100808354040283529160200191613c58565b820191906000526020600020905b815481529060010190602001808311613c3b57829003601f168201915b50505050508152602001600682018054613c71906144f7565b80601f0160208091040260200160405190810160405280929190818152602001828054613c9d906144f7565b8015613cea5780601f10613cbf57610100808354040283529160200191613cea565b820191906000526020600020905b815481529060010190602001808311613ccd57829003601f168201915b50505050508152602001600782018054613d03906144f7565b80601f0160208091040260200160405190810160405280929190818152602001828054613d2f906144f7565b8015613d7c5780601f10613d5157610100808354040283529160200191613d7c565b820191906000526020600020905b815481529060010190602001808311613d5f57829003601f168201915b505050505081526020016008820160009054906101000a900460ff16151515158152602001600982015481525050905080610120018051809190613dbf906146ac565b8152505060046000815480929190613dd6906146ac565b91905055506002601b60016101000a81548160ff02191690836002811115613e0157613e0061431a565b5b02179055507f26b8bb11f3c32b3756310fd2a521248252d66e44f3eb3536fca4373241956d438161012001518260a00151604051613e40929190614bc8565b60405180910390a15050565b6000604051905090565b600080fd5b600080fd5b6000819050919050565b613e7381613e60565b8114613e7e57600080fd5b50565b600081359050613e9081613e6a565b92915050565b600060208284031215613eac57613eab613e56565b5b6000613eba84828501613e81565b91505092915050565b600081519050919050565b600082825260208201905092915050565b60005b83811015613efd578082015181840152602081019050613ee2565b60008484015250505050565b6000601f19601f8301169050919050565b6000613f2582613ec3565b613f2f8185613ece565b9350613f3f818560208601613edf565b613f4881613f09565b840191505092915050565b60006020820190508181036000830152613f6d8184613f1a565b905092915050565b600073ffffffffffffffffffffffffffffffffffffffff82169050919050565b6000613fa082613f75565b9050919050565b613fb081613f95565b8114613fbb57600080fd5b50565b600081359050613fcd81613fa7565b92915050565b600060208284031215613fe957613fe8613e56565b5b6000613ff784828501613fbe565b91505092915050565b60008115159050919050565b61401581614000565b82525050565b6000602082019050614030600083018461400c565b92915050565b61403f81613e60565b82525050565b600060208201905061405a6000830184614036565b92915050565b600080fd5b600080fd5b7f4e487b7100000000000000000000000000000000000000000000000000000000600052604160045260246000fd5b6140a282613f09565b810181811067ffffffffffffffff821117156140c1576140c061406a565b5b80604052505050565b60006140d4613e4c565b90506140e08282614099565b919050565b600067ffffffffffffffff821115614100576140ff61406a565b5b61410982613f09565b9050602081019050919050565b82818337600083830152505050565b6000614138614133846140e5565b6140ca565b90508281526020810184848401111561415457614153614065565b5b61415f848285614116565b509392505050565b600082601f83011261417c5761417b614060565b5b813561418c848260208601614125565b91505092915050565b6000602082840312156141ab576141aa613e56565b5b600082013567ffffffffffffffff8111156141c9576141c8613e5b565b5b6141d584828501614167565b91505092915050565b60006101408201905081810360008301526141f9818d613f1a565b9050818103602083015261420d818c613f1a565b90508181036040830152614221818b613f1a565b90508181036060830152614235818a613f1a565b90506142446080830189614036565b81810360a08301526142568188613f1a565b905081810360c083015261426a8187613f1a565b905081810360e083015261427e8186613f1a565b905061428e61010083018561400c565b61429c610120830184614036565b9b9a5050505050505050505050565b600060a08201905081810360008301526142c58188613f1a565b905081810360208301526142d98187613f1a565b905081810360408301526142ed8186613f1a565b905081810360608301526143018185613f1a565b90506143106080830184614036565b9695505050505050565b7f4e487b7100000000000000000000000000000000000000000000000000000000600052602160045260246000fd5b6003811061435a5761435961431a565b5b50565b600081905061436b82614349565b919050565b600061437b8261435d565b9050919050565b61438b81614370565b82525050565b60006020820190506143a66000830184614382565b92915050565b6143b581613f95565b82525050565b60006020820190506143d060008301846143ac565b92915050565b6000610180820190506143ec600083018f6143ac565b81810360208301526143fe818e613f1a565b90508181036040830152614412818d613f1a565b90508181036060830152614426818c613f1a565b9050818103608083015261443a818b613f1a565b905061444960a083018a614036565b81810360c083015261445b8189613f1a565b905081810360e083015261446f8188613f1a565b90508181036101008301526144848187613f1a565b90508181036101208301526144998186613f1a565b90506144a961014083018561400c565b6144b761016083018461400c565b9d9c50505050505050505050505050565b7f4e487b7100000000000000000000000000000000000000000000000000000000600052602260045260246000fd5b6000600282049050600182168061450f57607f821691505b602082108103614522576145216144c8565b5b50919050565b7f566f74696e67206973207374696c6c206f6e676f696e67000000000000000000600082015250565b600061455e601783613ece565b915061456982614528565b602082019050919050565b6000602082019050818103600083015261458d81614551565b9050919050565b7f4e487b7100000000000000000000000000000000000000000000000000000000600052603260045260246000fd5b600081905092915050565b60008190508160005260206000209050919050565b600081546145f0816144f7565b6145fa81866145c3565b94506001821660008114614615576001811461462a5761465d565b60ff198316865281151582028601935061465d565b614633856145ce565b60005b8381101561465557815481890152600182019150602081019050614636565b838801955050505b50505092915050565b600061467282846145e3565b915081905092915050565b7f4e487b7100000000000000000000000000000000000000000000000000000000600052601160045260246000fd5b60006146b782613e60565b91507fffffffffffffffffffffffffffffffffffffffffffffffffffffffffffffffff82036146e9576146e861467d565b5b600182019050919050565b7f566f74696e67206973206e6f742063757272656e746c79206f70656e00000000600082015250565b600061472a601c83613ece565b9150614735826146f4565b602082019050919050565b600060208201905081810360008301526147598161471d565b9050919050565b7f566f74696e672073657373696f6e206578706972656400000000000000000000600082015250565b6000614796601683613ece565b91506147a182614760565b602082019050919050565b600060208201905081810360008301526147c581614789565b9050919050565b7f796f7520617265206e6f742061757468656e7469636174656420706c6561736560008201527f206c6f67696e2066697273740000000000000000000000000000000000000000602082015250565b6000614828602c83613ece565b9150614833826147cc565b604082019050919050565b600060208201905081810360008301526148578161481b565b9050919050565b7f566f746572206973206e6f742072656769737465726564000000000000000000600082015250565b6000614894601783613ece565b915061489f8261485e565b602082019050919050565b600060208201905081810360008301526148c381614887565b9050919050565b60006148d582613ec3565b6148df81856145c3565b93506148ef818560208601613edf565b80840191505092915050565b600061490782846148ca565b915081905092915050565b7f496e76616c69642063616e646964617465000000000000000000000000000000600082015250565b6000614948601183613ece565b915061495382614912565b602082019050919050565b600060208201905081810360008301526149778161493b565b9050919050565b600081905092915050565b60008190508160005260206000209050919050565b600081546149ab816144f7565b6149b5818661497e565b945060018216600081146149d057600181146149e557614a18565b60ff1983168652811515820286019350614a18565b6149ee85614989565b60005b83811015614a10578154818901526001820191506020810190506149f1565b838801955050505b50505092915050565b6000614a2d828461499e565b915081905092915050565b7f596f7572204e6f74206d656d626572206f6620612076616c696420636f6c6c6560008201527f6765000000000000000000000000000000000000000000000000000000000000602082015250565b6000614a94602283613ece565b9150614a9f82614a38565b604082019050919050565b60006020820190508181036000830152614ac381614a87565b9050919050565b7f596f7572204e6f74206d656d626572206f6620612076616c696420626c6f636b600082015250565b6000614b00602083613ece565b9150614b0b82614aca565b602082019050919050565b60006020820190508181036000830152614b2f81614af3565b9050919050565b7f416c7265616479206361737420766f746520666f7220426c6f636b4c6561646560008201527f7220706f736974696f6e00000000000000000000000000000000000000000000602082015250565b6000614b92602a83613ece565b9150614b9d82614b36565b604082019050919050565b60006020820190508181036000830152614bc181614b85565b9050919050565b6000604082019050614bdd6000830185614036565b8181036020830152614bef8184613f1a565b90509392505050565b7f596f7572204e6f742076616c696420766f746572000000000000000000000000600082015250565b6000614c2e601483613ece565b9150614c3982614bf8565b602082019050919050565b60006020820190508181036000830152614c5d81614c21565b9050919050565b7f596f75206861766520616c726561647920766f74656420666f7220476f76657260008201527f6e6f722121210000000000000000000000000000000000000000000000000000602082015250565b6000614cc0602683613ece565b9150614ccb82614c64565b604082019050919050565b60006020820190508181036000830152614cef81614cb3565b905091905056fea2646970667358221220ad8f90d1fdf9262e2c9f5203221d484854906ffd4a928edeced746505ab96de364736f6c63430008130033",
  "immutableReferences": {},
  "source": "// SPDX-License-Identifier: MIT\npragma solidity ^0.8.0;\nimport \"./CandidateStructure.sol\";\nimport \"./VoterStructure.sol\";\nimport \"./TimeStructure.sol\";\n\ncontract CastVote is VoterStructure, CandidateStructure, TimeStructure {\n\n    // string[] public winners;\n    enum State { President, Governor, BlockLeader }\n    State public StateOfElection = State.President;\n\n    // uint public totalVotes;\n// \n    event VoteCast(uint256 voteCount, string candidateRegNo);\n    // event getTheWinner(string name, string regNo, string collegeName, string programName, uint256 winningVoteCount);\n\n    modifier onlyAuthenticated() {\n        require(hasLogedin[msg.sender], \"you are not authenticated please login first\");\n        _;\n    }\n// onlyDuringVotingPeriod\n// onlyAuthenticated\n\n    // function castVotePresident( string memory _presidentRegNo) public {\n    //     // require(voters[msg.sender].isRegistered, \"Voter is not registered\");\n    //     // require(StateOfElection == State.President, \"You has already cast for President level\");\n    //     // require(!voters[msg.sender].voted, \"You have already voted for President!!!\");\n    //     // require(!presidentVoted[msg.sender], \"Already voted for President position\");\n    //     presidentVoted[msg.sender] = true;\n    //     // voters[msg.sender].voted = true;\n    //     Candidate memory candidate = candidatePresident[_presidentRegNo];\n    //     candidate.voteCount++;\n    //     // totalVotes++;\n    //     // StateOfElection = State.Governor;\n\n    //     emit VoteCast(candidate.voteCount, candidate.regNo);\n    // }\n\n    function castVoteGovernor( string memory _governorRegNo ) public onlyDuringVotingPeriod onlyAuthenticated{\n        require(voters[msg.sender].isRegistered, \"Voter is not registered\");\n        // require(StateOfElection != State.President, \"Please cast a vote for president position before to cast for Governor position\");\n        // require(StateOfElection == State.Governor);\n        require(isRegistered[_governorRegNo], \"Invalid candidate\");\n        require(keccak256(bytes(voters[msg.sender].collegeName)) == keccak256(bytes(candidateGovernor[_governorRegNo].collegeName)), \"Your Not valid voter\");    \n        require(!governorVoted[msg.sender], \"You have already voted for Governor!!!\");\n        governorVoted[msg.sender] = true; \n        \n        Candidate memory candidate = candidateGovernor[_governorRegNo];\n        candidate.voteCount++;\n        totalVotes++;\n        StateOfElection = State.BlockLeader;\n\n        emit VoteCast(candidate.voteCount, candidate.regNo);\n    }\n\n    function castVoteBlockLeader( string memory _blockLeaderRegNo ) external onlyDuringVotingPeriod onlyAuthenticated{\n        require(voters[msg.sender].isRegistered, \"Voter is not registered\");    \n        require(isRegistered[_blockLeaderRegNo], \"Invalid candidate\");\n        require(keccak256(bytes(voters[msg.sender].collegeName)) == keccak256(bytes(candidateBlockLeader[_blockLeaderRegNo].collegeName)), \"Your Not member of a valid college\");    \n        require(keccak256(bytes(voters[msg.sender].blockNumber)) == keccak256(bytes(candidateBlockLeader[_blockLeaderRegNo].blockNumber)), \"Your Not member of a valid block\");  \n        require(!blockLeaderVoted[msg.sender], \"Already cast vote for BlockLeader position\");\n        blockLeaderVoted[msg.sender] = true;\n        \n        Candidate memory candidate = candidateBlockLeader[_blockLeaderRegNo];\n        candidate.voteCount++;\n        totalVotes++;\n\n        emit VoteCast(candidate.voteCount, candidate.regNo);\n    }\n\n    function getVotingStatus() public view returns(bool) {\n        return (block.timestamp >= startTime && block.timestamp <= endTime);\n    }\n\n    //Display the winner for each President, Governor and BlockLeader position\n\n    modifier onlyAfterVotingComplete(){\n        require(block.timestamp > endTime, \"Voting is still ongoing\");\n        _;\n    }\n\n\n\n    function getWinnerPresident() public view onlyAfterVotingComplete returns ( string memory, string memory, string memory, string memory, uint256 ){\n        uint256 winningPresidentVoteCount = 0;\n        uint256 winningPresidentIndex = 0;\n        for (uint256 i = 0; i < presidentList.length; i++) {\n            if (candidatePresident[presidentList[i]].voteCount > winningPresidentVoteCount) {\n                winningPresidentVoteCount = candidatePresident[presidentList[i]].voteCount;\n                winningPresidentIndex = i;\n            }\n        }\n        Candidate memory winner = candidatePresident[presidentList[winningPresidentIndex]];\n        // emit getTheWinner(winner.firstName, winner.regNo, winner.collegeName, winner.programName, winner.voteCount);\n        return (winner.firstName, winner.regNo, winner.collegeName, winner.programName, winner.voteCount);\n    }\n\n    function getWinnerGovernor() public view onlyAfterVotingComplete returns (string memory, string memory, string memory, string memory, uint256){  \n        uint256 winningGovernorVoteCount = 0;\n        uint256 winningGovernorIndex = 0;    \n        for (uint256 i = 0; i < governorList.length; i++) {\n            if (candidateGovernor[governorList[i]].voteCount > winningGovernorVoteCount) {\n                winningGovernorVoteCount = candidateGovernor[governorList[i]].voteCount;\n                winningGovernorIndex = i;\n            }\n        }\n        Candidate memory winner = candidateGovernor[governorList[winningGovernorIndex]];\n        // emit getTheWinner(winner.firstName, winner.regNo, winner.collegeName, winner.programName, winner.voteCount);\n        return (winner.firstName, winner.regNo, winner.collegeName, winner.programName, winner.voteCount);\n    }\n\n    function getWinnerBlockLeader() public view onlyAfterVotingComplete returns (string memory, string memory, string memory, string memory, uint256){  \n        uint256 winningBlockLeaderVoteCount = 0;\n        uint256 winningBlockLeaderIndex = 0;    \n        for (uint256 i = 0; i < blockLeaderList.length; i++) {\n            if (candidateGovernor[blockLeaderList[i]].voteCount > winningBlockLeaderVoteCount) {\n                winningBlockLeaderVoteCount = candidateGovernor[blockLeaderList[i]].voteCount;\n                winningBlockLeaderIndex = i;\n            }\n        }\n        Candidate memory winner = candidateGovernor[blockLeaderList[winningBlockLeaderIndex]];\n        // emit getTheWinner(winner.firstName, winner.regNo, winner.collegeName, winner.programName, winner.voteCount);\n        return (winner.firstName, winner.regNo, winner.collegeName, winner.programName, winner.voteCount);\n    }\n}",
  "sourcePath": "/home/temba/Documents/client/contracts/CastVote.sol",
  "compiler": {
    "name": "solc",
    "version": "0.8.19+commit.7dd6d404.Emscripten.clang"
  },
  "schemaVersion": "3.4.14",
  "updatedAt": "2023-06-22T07:58:32.595Z",
  "devdoc": {
    "kind": "dev",
    "methods": {},
    "version": 1
  },
  "userdoc": {
    "kind": "user",
    "methods": {},
    "version": 1
  }
}