{
  "contractName": "TimeControl",
  "abi": [
    {
      "inputs": [],
      "name": "admin",
      "outputs": [
        {
          "internalType": "address",
          "name": "",
          "type": "address"
        }
      ],
      "stateMutability": "view",
      "type": "function",
      "constant": true
    },
    {
      "inputs": [],
      "name": "getPublished",
      "outputs": [
        {
          "internalType": "bool",
          "name": "",
          "type": "bool"
        }
      ],
      "stateMutability": "view",
      "type": "function",
      "constant": true
    },
    {
      "inputs": [],
      "name": "isInitiated",
      "outputs": [
        {
          "internalType": "bool",
          "name": "",
          "type": "bool"
        }
      ],
      "stateMutability": "view",
      "type": "function",
      "constant": true
    },
    {
      "inputs": [
        {
          "internalType": "uint256",
          "name": "",
          "type": "uint256"
        }
      ],
      "name": "oTime",
      "outputs": [
        {
          "internalType": "uint256",
          "name": "",
          "type": "uint256"
        }
      ],
      "stateMutability": "view",
      "type": "function",
      "constant": true
    },
    {
      "inputs": [],
      "name": "setPublished",
      "outputs": [],
      "stateMutability": "nonpayable",
      "type": "function"
    },
    {
      "inputs": [
        {
          "internalType": "address",
          "name": "newAdmin",
          "type": "address"
        }
      ],
      "name": "transferAdmin",
      "outputs": [],
      "stateMutability": "nonpayable",
      "type": "function"
    },
    {
      "inputs": [],
      "name": "isInitiate",
      "outputs": [
        {
          "internalType": "bool",
          "name": "",
          "type": "bool"
        }
      ],
      "stateMutability": "view",
      "type": "function",
      "constant": true
    },
    {
      "inputs": [],
      "name": "getStartTime",
      "outputs": [
        {
          "internalType": "uint256",
          "name": "",
          "type": "uint256"
        }
      ],
      "stateMutability": "view",
      "type": "function",
      "constant": true
    },
    {
      "inputs": [],
      "name": "getEndTime",
      "outputs": [
        {
          "internalType": "uint256",
          "name": "",
          "type": "uint256"
        }
      ],
      "stateMutability": "view",
      "type": "function",
      "constant": true
    },
    {
      "inputs": [
        {
          "internalType": "uint256",
          "name": "_startTime",
          "type": "uint256"
        },
        {
          "internalType": "uint256",
          "name": "_endTime",
          "type": "uint256"
        }
      ],
      "name": "setVotingPeriod",
      "outputs": [],
      "stateMutability": "nonpayable",
      "type": "function"
    },
    {
      "inputs": [],
      "name": "getTime",
      "outputs": [
        {
          "internalType": "uint256[]",
          "name": "",
          "type": "uint256[]"
        }
      ],
      "stateMutability": "view",
      "type": "function",
      "constant": true
    },
    {
      "inputs": [],
      "name": "getVotingStatus",
      "outputs": [
        {
          "internalType": "bool",
          "name": "",
          "type": "bool"
        }
      ],
      "stateMutability": "view",
      "type": "function",
      "constant": true
    },
    {
      "inputs": [],
      "name": "getRemainingTime",
      "outputs": [
        {
          "internalType": "uint256",
          "name": "",
          "type": "uint256"
        }
      ],
      "stateMutability": "view",
      "type": "function",
      "constant": true
    }
  ],
  "bytecode": "0x608060405234801561001057600080fd5b50336000806101000a81548173ffffffffffffffffffffffffffffffffffffffff021916908373ffffffffffffffffffffffffffffffffffffffff160217905550610cab806100606000396000f3fe608060405234801561001057600080fd5b50600436106100cf5760003560e01c80637776e62f1161008c578063c828371e11610066578063c828371e146101dc578063e19ca0d3146101fa578063efb98bcf14610218578063f851a44014610236576100cf565b80637776e62f1461019857806397b0565e146101b6578063a15a36c7146101c0576100cf565b80631cb59914146100d4578063439f5ac2146100f2578063557ed1ba14610110578063581c281c1461012e5780635afdbb761461014c57806375829def1461017c575b600080fd5b6100dc610254565b6040516100e9919061070d565b60405180910390f35b6100fa610267565b6040516101079190610741565b60405180910390f35b610118610271565b604051610125919061081a565b60405180910390f35b6101366102c9565b604051610143919061070d565b60405180910390f35b6101666004803603810190610161919061086d565b6102e4565b6040516101739190610741565b60405180910390f35b610196600480360381019061019191906108f8565b610308565b005b6101a06103d9565b6040516101ad919061070d565b60405180910390f35b6101be6103f0565b005b6101da60048036038101906101d59190610925565b6104eb565b005b6101e4610686565b6040516101f19190610741565b60405180910390f35b610202610690565b60405161020f919061070d565b60405180910390f35b6102206106a6565b60405161022d9190610741565b60405180910390f35b61023e6106ce565b60405161024b9190610974565b60405180910390f35b600560009054906101000a900460ff1681565b6000600254905090565b606060048054806020026020016040519081016040528092919081815260200182805480156102bf57602002820191906000526020600020905b8154815260200190600101908083116102ab575b5050505050905090565b600060015442101580156102df57506002544211155b905090565b600481815481106102f457600080fd5b906000526020600020016000915090505481565b60008054906101000a900473ffffffffffffffffffffffffffffffffffffffff1673ffffffffffffffffffffffffffffffffffffffff163373ffffffffffffffffffffffffffffffffffffffff1614610396576040517f08c379a000000000000000000000000000000000000000000000000000000000815260040161038d90610a12565b60405180910390fd5b806000806101000a81548173ffffffffffffffffffffffffffffffffffffffff021916908373ffffffffffffffffffffffffffffffffffffffff16021790555050565b6000600560009054906101000a900460ff16905090565b60008054906101000a900473ffffffffffffffffffffffffffffffffffffffff1673ffffffffffffffffffffffffffffffffffffffff163373ffffffffffffffffffffffffffffffffffffffff161461047e576040517f08c379a000000000000000000000000000000000000000000000000000000000815260040161047590610a12565b60405180910390fd5b600060149054906101000a900460ff16156104ce576040517f08c379a00000000000000000000000000000000000000000000000000000000081526004016104c590610a7e565b60405180910390fd5b6001600060146101000a81548160ff021916908315150217905550565b81811161052d576040517f08c379a000000000000000000000000000000000000000000000000000000000815260040161052490610aea565b60405180910390fd5b600560009054906101000a900460ff161561057d576040517f08c379a000000000000000000000000000000000000000000000000000000000815260040161057490610b7c565b60405180910390fd5b6000828261058b9190610bcb565b90506004839080600181540180825580915050600190039060005260206000200160009091909190915055600482908060018154018082558091505060019003906000526020600020016000909190919091505560048190806001815401808255809150506001900390600052602060002001600090919091909150556001600560006101000a81548160ff0219169083151502179055506001836106309190610bff565b4261063b9190610c41565b60018190555060018261064e9190610bff565b426106599190610c41565b600281905550806003819055506001600560006101000a81548160ff021916908315150217905550505050565b6000600154905090565b60008060149054906101000a900460ff16905090565b600060025442106106ba57600090506106cb565b426002546106c89190610bcb565b90505b90565b60008054906101000a900473ffffffffffffffffffffffffffffffffffffffff1681565b60008115159050919050565b610707816106f2565b82525050565b600060208201905061072260008301846106fe565b92915050565b6000819050919050565b61073b81610728565b82525050565b60006020820190506107566000830184610732565b92915050565b600081519050919050565b600082825260208201905092915050565b6000819050602082019050919050565b61079181610728565b82525050565b60006107a38383610788565b60208301905092915050565b6000602082019050919050565b60006107c78261075c565b6107d18185610767565b93506107dc83610778565b8060005b8381101561080d5781516107f48882610797565b97506107ff836107af565b9250506001810190506107e0565b5085935050505092915050565b6000602082019050818103600083015261083481846107bc565b905092915050565b600080fd5b61084a81610728565b811461085557600080fd5b50565b60008135905061086781610841565b92915050565b6000602082840312156108835761088261083c565b5b600061089184828501610858565b91505092915050565b600073ffffffffffffffffffffffffffffffffffffffff82169050919050565b60006108c58261089a565b9050919050565b6108d5816108ba565b81146108e057600080fd5b50565b6000813590506108f2816108cc565b92915050565b60006020828403121561090e5761090d61083c565b5b600061091c848285016108e3565b91505092915050565b6000806040838503121561093c5761093b61083c565b5b600061094a85828601610858565b925050602061095b85828601610858565b9150509250929050565b61096e816108ba565b82525050565b60006020820190506109896000830184610965565b92915050565b600082825260208201905092915050565b7f4f6e6c792061646d696e2063616e20706572666f726d2074686973206163746960008201527f6f6e000000000000000000000000000000000000000000000000000000000000602082015250565b60006109fc60228361098f565b9150610a07826109a0565b604082019050919050565b60006020820190508181036000830152610a2b816109ef565b9050919050565b7f526573756c7420697320616c7265616479207075626c69736865642100000000600082015250565b6000610a68601c8361098f565b9150610a7382610a32565b602082019050919050565b60006020820190508181036000830152610a9781610a5b565b9050919050565b7f496e76616c696420766f74696e6720706572696f640000000000000000000000600082015250565b6000610ad460158361098f565b9150610adf82610a9e565b602082019050919050565b60006020820190508181036000830152610b0381610ac7565b9050919050565b7f54686520766f74696e672074696d6520697320616c726561647920696e69746960008201527f6174656400000000000000000000000000000000000000000000000000000000602082015250565b6000610b6660248361098f565b9150610b7182610b0a565b604082019050919050565b60006020820190508181036000830152610b9581610b59565b9050919050565b7f4e487b7100000000000000000000000000000000000000000000000000000000600052601160045260246000fd5b6000610bd682610728565b9150610be183610728565b9250828203905081811115610bf957610bf8610b9c565b5b92915050565b6000610c0a82610728565b9150610c1583610728565b9250828202610c2381610728565b91508282048414831517610c3a57610c39610b9c565b5b5092915050565b6000610c4c82610728565b9150610c5783610728565b9250828201905080821115610c6f57610c6e610b9c565b5b9291505056fea2646970667358221220dcd7f993f581faa1dee058e7a8a47d0918e42c048ab8d093facd0ffbd6cf61ce64736f6c63430008130033",
  "immutableReferences": {},
  "source": "//SPDX-License-Identifier: MIT\npragma solidity ^0.8.0;\nimport \"./AccessControl.sol\";\n\ncontract TimeControl is AccessControl {\n    uint256 startTime;\n    uint256 endTime;\n    uint256 remainingTime;\n    uint256[] public oTime;\n    bool public isInitiated;\n\n    function isInitiate() public view returns(bool){\n        return isInitiated;\n    }\n\n    function getStartTime() external view returns(uint256) {\n        return startTime;\n    }\n\n    function getEndTime() external view returns(uint256) {\n        return endTime;\n    }\n\n    modifier onlyDuringVotingPeriod(){\n        // require(!isInitiated, \"The voting time is already initiated\");\n        require(block.timestamp >= startTime, \"Voting is not currently open\");\n        require(block.timestamp <= endTime, \"Voting session expired\");\n        _;\n    }\n\n    function setVotingPeriod(uint256 _startTime, uint256 _endTime) public {\n        require(_endTime > _startTime, \"Invalid voting period\");\n        require(!isInitiated, \"The voting time is already initiated\");\n        uint256 _remainingTime = _endTime - _startTime;\n        oTime.push(_startTime);\n        oTime.push(_endTime);\n        oTime.push(_remainingTime);\n        isInitiated = true;\n        startTime = block.timestamp + (_startTime  * 1 seconds );\n        endTime = block.timestamp + (_endTime * 1 seconds );\n        remainingTime = _remainingTime;  \n        isInitiated = true;    \n    }\n\n    function getTime() public view returns(uint256[] memory){\n        return oTime;\n    }\n\n        // f`````````````````````````````````````````````````````````````````````````````````\n\n     function getVotingStatus() public view returns(bool) {\n        return (block.timestamp >= startTime && block.timestamp <= endTime);\n    }\n\n    function getRemainingTime() public view returns(uint256)  {\n        if(block.timestamp >= endTime){\n            return 0;\n        }else{\n            return endTime - block.timestamp;\n        }\n    }\n}",
  "sourcePath": "/home/temba/Documents/client/contracts/TimeControl.sol",
  "compiler": {
    "name": "solc",
    "version": "0.8.19+commit.7dd6d404.Emscripten.clang"
  },
  "schemaVersion": "3.4.14",
  "updatedAt": "2023-06-30T04:15:59.183Z",
  "networkType": "ethereum",
  "devdoc": {
    "kind": "dev",
    "methods": {},
    "version": 1
  },
  "userdoc": {
    "kind": "user",
    "methods": {},
    "version": 1
  }
}