{
  "contractName": "TimeStructure",
  "abi": [
    {
      "inputs": [],
      "name": "isInitiated",
      "outputs": [
        {
          "internalType": "bool",
          "name": "",
          "type": "bool"
        }
      ],
      "stateMutability": "view",
      "type": "function",
      "constant": true
    }
  ],
  "bytecode": "0x608060405234801561001057600080fd5b5060c28061001f6000396000f3fe6080604052348015600f57600080fd5b506004361060285760003560e01c80631cb5991414602d575b600080fd5b60336047565b604051603e91906073565b60405180910390f35b600360009054906101000a900460ff1681565b60008115159050919050565b606d81605a565b82525050565b6000602082019050608660008301846066565b9291505056fea26469706673582212205f98c80bfb0d56406b2f475f1eeb72efb4e5a260c1129a3c56b84fdabe38fe9064736f6c63430008130033",
  "immutableReferences": {},
  "source": "//SPDX-License-Identifier: MIT\npragma solidity ^0.8.0;\n// import \"./AccessControl.sol\";\n\ncontract TimeStructure {\n    // struct Time{\n    //     uint256 startTime;\n    //     uint256 endTime;\n    //     uint256 remainingTime;\n    // }\n    uint256 startTime;\n    uint256 endTime;\n    uint256 remainingTime;\n    bool public isInitiated;\n\n    // mapping(address => Time) public times;  \n\n    modifier onlyDuringVotingPeriod(){\n        // require(!isInitiated, \"The voting time is already initiated\");\n        require(block.timestamp >= startTime, \"Voting is not currently open\");\n        require(block.timestamp <= endTime, \"Voting session expired\");\n        _;\n    }\n}",
  "sourcePath": "/home/temba/Documents/client/contracts/TimeStructure.sol",
  "compiler": {
    "name": "solc",
    "version": "0.8.19+commit.7dd6d404.Emscripten.clang"
  },
  "schemaVersion": "3.4.14",
  "updatedAt": "2023-06-22T10:27:14.100Z",
  "networkType": "ethereum",
  "devdoc": {
    "kind": "dev",
    "methods": {},
    "version": 1
  },
  "userdoc": {
    "kind": "user",
    "methods": {},
    "version": 1
  }
}