{
  "contractName": "TimeControl",
  "abi": [
    {
      "inputs": [],
      "name": "admin",
      "outputs": [
        {
          "internalType": "address",
          "name": "",
          "type": "address"
        }
      ],
      "stateMutability": "view",
      "type": "function",
      "constant": true
    },
    {
      "inputs": [],
      "name": "isInitiated",
      "outputs": [
        {
          "internalType": "bool",
          "name": "",
          "type": "bool"
        }
      ],
      "stateMutability": "view",
      "type": "function",
      "constant": true
    },
    {
      "inputs": [
        {
          "internalType": "uint256",
          "name": "",
          "type": "uint256"
        }
      ],
      "name": "oTime",
      "outputs": [
        {
          "internalType": "uint256",
          "name": "",
          "type": "uint256"
        }
      ],
      "stateMutability": "view",
      "type": "function",
      "constant": true
    },
    {
      "inputs": [
        {
          "internalType": "address",
          "name": "newAdmin",
          "type": "address"
        }
      ],
      "name": "transferAdmin",
      "outputs": [],
      "stateMutability": "nonpayable",
      "type": "function"
    },
    {
      "inputs": [
        {
          "internalType": "uint256",
          "name": "_startTime",
          "type": "uint256"
        },
        {
          "internalType": "uint256",
          "name": "_endTime",
          "type": "uint256"
        }
      ],
      "name": "setVotingPeriod",
      "outputs": [],
      "stateMutability": "nonpayable",
      "type": "function"
    },
    {
      "inputs": [],
      "name": "getTime",
      "outputs": [
        {
          "internalType": "uint256[]",
          "name": "",
          "type": "uint256[]"
        }
      ],
      "stateMutability": "view",
      "type": "function",
      "constant": true
    },
    {
      "inputs": [],
      "name": "getRemainingTime",
      "outputs": [
        {
          "internalType": "uint256",
          "name": "",
          "type": "uint256"
        }
      ],
      "stateMutability": "view",
      "type": "function",
      "constant": true
    }
  ],
  "bytecode": "0x608060405234801561001057600080fd5b50336000806101000a81548173ffffffffffffffffffffffffffffffffffffffff021916908373ffffffffffffffffffffffffffffffffffffffff160217905550610b5c806100606000396000f3fe608060405234801561001057600080fd5b506004361061007d5760003560e01c806375829def1161005b57806375829def146100ee578063a15a36c71461010a578063efb98bcf14610126578063f851a440146101445761007d565b80631cb5991414610082578063557ed1ba146100a05780635afdbb76146100be575b600080fd5b61008a610162565b6040516100979190610598565b60405180910390f35b6100a8610175565b6040516100b5919061067b565b60405180910390f35b6100d860048036038101906100d391906106ce565b6101cd565b6040516100e5919061070a565b60405180910390f35b61010860048036038101906101039190610783565b6101f1565b005b610124600480360381019061011f91906107b0565b6102c2565b005b61012e6104eb565b60405161013b919061070a565b60405180910390f35b61014c610559565b60405161015991906107ff565b60405180910390f35b600460009054906101000a900460ff1681565b606060058054806020026020016040519081016040528092919081815260200182805480156101c357602002820191906000526020600020905b8154815260200190600101908083116101af575b5050505050905090565b600581815481106101dd57600080fd5b906000526020600020016000915090505481565b60008054906101000a900473ffffffffffffffffffffffffffffffffffffffff1673ffffffffffffffffffffffffffffffffffffffff163373ffffffffffffffffffffffffffffffffffffffff161461027f576040517f08c379a00000000000000000000000000000000000000000000000000000000081526004016102769061089d565b60405180910390fd5b806000806101000a81548173ffffffffffffffffffffffffffffffffffffffff021916908373ffffffffffffffffffffffffffffffffffffffff16021790555050565b60008054906101000a900473ffffffffffffffffffffffffffffffffffffffff1673ffffffffffffffffffffffffffffffffffffffff163373ffffffffffffffffffffffffffffffffffffffff1614610350576040517f08c379a00000000000000000000000000000000000000000000000000000000081526004016103479061089d565b60405180910390fd5b818111610392576040517f08c379a000000000000000000000000000000000000000000000000000000000815260040161038990610909565b60405180910390fd5b600460009054906101000a900460ff16156103e2576040517f08c379a00000000000000000000000000000000000000000000000000000000081526004016103d99061099b565b60405180910390fd5b600082826103f091906109ea565b90506005839080600181540180825580915050600190039060005260206000200160009091909190915055600582908060018154018082558091505060019003906000526020600020016000909190919091505560058190806001815401808255809150506001900390600052602060002001600090919091909150556001600460006101000a81548160ff0219169083151502179055506001836104959190610a1e565b426104a09190610a60565b6001819055506001826104b39190610a1e565b426104be9190610a60565b600281905550806003819055506001600460006101000a81548160ff021916908315150217905550505050565b6000600154421015610532576040517f08c379a000000000000000000000000000000000000000000000000000000000815260040161052990610b06565b60405180910390fd5b600254421015610551574260025461054a91906109ea565b9050610556565b600090505b90565b60008054906101000a900473ffffffffffffffffffffffffffffffffffffffff1681565b60008115159050919050565b6105928161057d565b82525050565b60006020820190506105ad6000830184610589565b92915050565b600081519050919050565b600082825260208201905092915050565b6000819050602082019050919050565b6000819050919050565b6105f2816105df565b82525050565b600061060483836105e9565b60208301905092915050565b6000602082019050919050565b6000610628826105b3565b61063281856105be565b935061063d836105cf565b8060005b8381101561066e57815161065588826105f8565b975061066083610610565b925050600181019050610641565b5085935050505092915050565b60006020820190508181036000830152610695818461061d565b905092915050565b600080fd5b6106ab816105df565b81146106b657600080fd5b50565b6000813590506106c8816106a2565b92915050565b6000602082840312156106e4576106e361069d565b5b60006106f2848285016106b9565b91505092915050565b610704816105df565b82525050565b600060208201905061071f60008301846106fb565b92915050565b600073ffffffffffffffffffffffffffffffffffffffff82169050919050565b600061075082610725565b9050919050565b61076081610745565b811461076b57600080fd5b50565b60008135905061077d81610757565b92915050565b6000602082840312156107995761079861069d565b5b60006107a78482850161076e565b91505092915050565b600080604083850312156107c7576107c661069d565b5b60006107d5858286016106b9565b92505060206107e6858286016106b9565b9150509250929050565b6107f981610745565b82525050565b600060208201905061081460008301846107f0565b92915050565b600082825260208201905092915050565b7f4f6e6c792061646d696e2063616e20706572666f726d2074686973206163746960008201527f6f6e000000000000000000000000000000000000000000000000000000000000602082015250565b600061088760228361081a565b91506108928261082b565b604082019050919050565b600060208201905081810360008301526108b68161087a565b9050919050565b7f496e76616c696420766f74696e6720706572696f640000000000000000000000600082015250565b60006108f360158361081a565b91506108fe826108bd565b602082019050919050565b60006020820190508181036000830152610922816108e6565b9050919050565b7f54686520766f74696e672074696d6520697320616c726561647920696e69746960008201527f6174656400000000000000000000000000000000000000000000000000000000602082015250565b600061098560248361081a565b915061099082610929565b604082019050919050565b600060208201905081810360008301526109b481610978565b9050919050565b7f4e487b7100000000000000000000000000000000000000000000000000000000600052601160045260246000fd5b60006109f5826105df565b9150610a00836105df565b9250828203905081811115610a1857610a176109bb565b5b92915050565b6000610a29826105df565b9150610a34836105df565b9250828202610a42816105df565b91508282048414831517610a5957610a586109bb565b5b5092915050565b6000610a6b826105df565b9150610a76836105df565b9250828201905080821115610a8e57610a8d6109bb565b5b92915050565b7f766f74696e6720686173206e6f742073746172746564207965742121212c205060008201527f6c65617365207761697400000000000000000000000000000000000000000000602082015250565b6000610af0602a8361081a565b9150610afb82610a94565b604082019050919050565b60006020820190508181036000830152610b1f81610ae3565b905091905056fea264697066735822122099129ca7f0fe3f109b2f21e45db032422e6aa45a8872cd48885474d57add478664736f6c63430008130033",
  "immutableReferences": {},
  "source": "//SPDX-License-Identifier: MIT\npragma solidity ^0.8.0;\nimport \"./AccessControl.sol\";\nimport \"./TimeStructure.sol\";\n\ncontract TimeControl is AccessControl, TimeStructure{\n\n    uint256[] public oTime;\n\n\n    function setVotingPeriod(uint256 _startTime, uint256 _endTime) public onlyAdmin {\n        require(_endTime > _startTime, \"Invalid voting period\");\n        require(!isInitiated, \"The voting time is already initiated\");\n        uint256 _remainingTime = _endTime - _startTime;\n        oTime.push(_startTime);\n        oTime.push(_endTime);\n        oTime.push(_remainingTime);\n        isInitiated = true;\n        startTime = block.timestamp + (_startTime  * 1 seconds );\n        endTime = block.timestamp + (_endTime * 1 seconds );\n        remainingTime = _remainingTime;  \n        isInitiated = true;    \n    }\n\n        // f`````````````````````````````````````````````````````````````````````````````````\n\n    function getTime() public view returns(uint256[] memory){\n        return oTime;\n    }\n\n    function getRemainingTime() public view returns(uint256)  {\n        require(block.timestamp >= startTime, \"voting has not started yet!!!, Please wait\");\n        if(block.timestamp < endTime){\n            return(endTime - block.timestamp);\n        }else{\n            return 0;\n        }\n    }\n}",
  "sourcePath": "/home/temba/Documents/client/contracts/TimeControl.sol",
  "compiler": {
    "name": "solc",
    "version": "0.8.19+commit.7dd6d404.Emscripten.clang"
  },
  "schemaVersion": "3.4.14",
  "updatedAt": "2023-06-22T10:27:14.095Z",
  "networkType": "ethereum",
  "devdoc": {
    "kind": "dev",
    "methods": {},
    "version": 1
  },
  "userdoc": {
    "kind": "user",
    "methods": {},
    "version": 1
  }
}