{
  "contractName": "ViewCandidates",
  "abi": [
    {
      "inputs": [],
      "name": "admin",
      "outputs": [
        {
          "internalType": "address",
          "name": "",
          "type": "address"
        }
      ],
      "stateMutability": "view",
      "type": "function"
    },
    {
      "inputs": [
        {
          "internalType": "uint256",
          "name": "",
          "type": "uint256"
        }
      ],
      "name": "blockLeaderList",
      "outputs": [
        {
          "internalType": "string",
          "name": "",
          "type": "string"
        }
      ],
      "stateMutability": "view",
      "type": "function"
    },
    {
      "inputs": [
        {
          "internalType": "address",
          "name": "",
          "type": "address"
        }
      ],
      "name": "blockLeaderVoted",
      "outputs": [
        {
          "internalType": "bool",
          "name": "",
          "type": "bool"
        }
      ],
      "stateMutability": "view",
      "type": "function"
    },
    {
      "inputs": [
        {
          "internalType": "string",
          "name": "",
          "type": "string"
        }
      ],
      "name": "candidateBlockLeader",
      "outputs": [
        {
          "internalType": "string",
          "name": "firstName",
          "type": "string"
        },
        {
          "internalType": "string",
          "name": "lastName",
          "type": "string"
        },
        {
          "internalType": "string",
          "name": "collegeName",
          "type": "string"
        },
        {
          "internalType": "string",
          "name": "programName",
          "type": "string"
        },
        {
          "internalType": "uint256",
          "name": "yearOfStudy",
          "type": "uint256"
        },
        {
          "internalType": "string",
          "name": "regNo",
          "type": "string"
        },
        {
          "internalType": "string",
          "name": "blockNumber",
          "type": "string"
        },
        {
          "internalType": "string",
          "name": "gender",
          "type": "string"
        },
        {
          "internalType": "bool",
          "name": "isWinner",
          "type": "bool"
        },
        {
          "internalType": "uint256",
          "name": "voteCount",
          "type": "uint256"
        }
      ],
      "stateMutability": "view",
      "type": "function"
    },
    {
      "inputs": [
        {
          "internalType": "string",
          "name": "",
          "type": "string"
        }
      ],
      "name": "candidateGovernor",
      "outputs": [
        {
          "internalType": "string",
          "name": "firstName",
          "type": "string"
        },
        {
          "internalType": "string",
          "name": "lastName",
          "type": "string"
        },
        {
          "internalType": "string",
          "name": "collegeName",
          "type": "string"
        },
        {
          "internalType": "string",
          "name": "programName",
          "type": "string"
        },
        {
          "internalType": "uint256",
          "name": "yearOfStudy",
          "type": "uint256"
        },
        {
          "internalType": "string",
          "name": "regNo",
          "type": "string"
        },
        {
          "internalType": "string",
          "name": "blockNumber",
          "type": "string"
        },
        {
          "internalType": "string",
          "name": "gender",
          "type": "string"
        },
        {
          "internalType": "bool",
          "name": "isWinner",
          "type": "bool"
        },
        {
          "internalType": "uint256",
          "name": "voteCount",
          "type": "uint256"
        }
      ],
      "stateMutability": "view",
      "type": "function"
    },
    {
      "inputs": [
        {
          "internalType": "string",
          "name": "",
          "type": "string"
        }
      ],
      "name": "candidatePresident",
      "outputs": [
        {
          "internalType": "string",
          "name": "firstName",
          "type": "string"
        },
        {
          "internalType": "string",
          "name": "lastName",
          "type": "string"
        },
        {
          "internalType": "string",
          "name": "collegeName",
          "type": "string"
        },
        {
          "internalType": "string",
          "name": "programName",
          "type": "string"
        },
        {
          "internalType": "uint256",
          "name": "yearOfStudy",
          "type": "uint256"
        },
        {
          "internalType": "string",
          "name": "regNo",
          "type": "string"
        },
        {
          "internalType": "string",
          "name": "blockNumber",
          "type": "string"
        },
        {
          "internalType": "string",
          "name": "gender",
          "type": "string"
        },
        {
          "internalType": "bool",
          "name": "isWinner",
          "type": "bool"
        },
        {
          "internalType": "uint256",
          "name": "voteCount",
          "type": "uint256"
        }
      ],
      "stateMutability": "view",
      "type": "function"
    },
    {
      "inputs": [],
      "name": "getRemainingTime",
      "outputs": [
        {
          "internalType": "uint256",
          "name": "",
          "type": "uint256"
        }
      ],
      "stateMutability": "view",
      "type": "function"
    },
    {
      "inputs": [],
      "name": "getTime",
      "outputs": [
        {
          "internalType": "uint256[]",
          "name": "",
          "type": "uint256[]"
        }
      ],
      "stateMutability": "view",
      "type": "function"
    },
    {
      "inputs": [
        {
          "internalType": "uint256",
          "name": "",
          "type": "uint256"
        }
      ],
      "name": "governorList",
      "outputs": [
        {
          "internalType": "string",
          "name": "",
          "type": "string"
        }
      ],
      "stateMutability": "view",
      "type": "function"
    },
    {
      "inputs": [
        {
          "internalType": "address",
          "name": "",
          "type": "address"
        }
      ],
      "name": "governorVoted",
      "outputs": [
        {
          "internalType": "bool",
          "name": "",
          "type": "bool"
        }
      ],
      "stateMutability": "view",
      "type": "function"
    },
    {
      "inputs": [],
      "name": "isInitiated",
      "outputs": [
        {
          "internalType": "bool",
          "name": "",
          "type": "bool"
        }
      ],
      "stateMutability": "view",
      "type": "function"
    },
    {
      "inputs": [
        {
          "internalType": "string",
          "name": "",
          "type": "string"
        }
      ],
      "name": "isRegistered",
      "outputs": [
        {
          "internalType": "bool",
          "name": "",
          "type": "bool"
        }
      ],
      "stateMutability": "view",
      "type": "function"
    },
    {
      "inputs": [],
      "name": "numberOfBlockLeader",
      "outputs": [
        {
          "internalType": "uint256",
          "name": "",
          "type": "uint256"
        }
      ],
      "stateMutability": "view",
      "type": "function"
    },
    {
      "inputs": [
        {
          "internalType": "uint256",
          "name": "",
          "type": "uint256"
        }
      ],
      "name": "numberOfGovernor",
      "outputs": [
        {
          "internalType": "uint256",
          "name": "",
          "type": "uint256"
        }
      ],
      "stateMutability": "view",
      "type": "function"
    },
    {
      "inputs": [],
      "name": "numberOfPresident",
      "outputs": [
        {
          "internalType": "uint256",
          "name": "",
          "type": "uint256"
        }
      ],
      "stateMutability": "view",
      "type": "function"
    },
    {
      "inputs": [
        {
          "internalType": "uint256",
          "name": "",
          "type": "uint256"
        }
      ],
      "name": "oTime",
      "outputs": [
        {
          "internalType": "uint256",
          "name": "",
          "type": "uint256"
        }
      ],
      "stateMutability": "view",
      "type": "function"
    },
    {
      "inputs": [
        {
          "internalType": "uint256",
          "name": "",
          "type": "uint256"
        }
      ],
      "name": "presidentList",
      "outputs": [
        {
          "internalType": "string",
          "name": "",
          "type": "string"
        }
      ],
      "stateMutability": "view",
      "type": "function"
    },
    {
      "inputs": [
        {
          "internalType": "address",
          "name": "",
          "type": "address"
        }
      ],
      "name": "presidentVoted",
      "outputs": [
        {
          "internalType": "bool",
          "name": "",
          "type": "bool"
        }
      ],
      "stateMutability": "view",
      "type": "function"
    },
    {
      "inputs": [
        {
          "internalType": "uint256",
          "name": "_startTime",
          "type": "uint256"
        },
        {
          "internalType": "uint256",
          "name": "_endTime",
          "type": "uint256"
        }
      ],
      "name": "setVotingPeriod",
      "outputs": [],
      "stateMutability": "nonpayable",
      "type": "function"
    },
    {
      "inputs": [],
      "name": "totalVotes",
      "outputs": [
        {
          "internalType": "uint256",
          "name": "",
          "type": "uint256"
        }
      ],
      "stateMutability": "view",
      "type": "function"
    },
    {
      "inputs": [
        {
          "internalType": "address",
          "name": "newAdmin",
          "type": "address"
        }
      ],
      "name": "transferAdmin",
      "outputs": [],
      "stateMutability": "nonpayable",
      "type": "function"
    },
    {
      "inputs": [],
      "name": "viewPresident",
      "outputs": [
        {
          "components": [
            {
              "internalType": "string",
              "name": "firstName",
              "type": "string"
            },
            {
              "internalType": "string",
              "name": "lastName",
              "type": "string"
            },
            {
              "internalType": "string",
              "name": "collegeName",
              "type": "string"
            },
            {
              "internalType": "string",
              "name": "programName",
              "type": "string"
            },
            {
              "internalType": "uint256",
              "name": "yearOfStudy",
              "type": "uint256"
            },
            {
              "internalType": "string",
              "name": "regNo",
              "type": "string"
            },
            {
              "internalType": "string",
              "name": "blockNumber",
              "type": "string"
            },
            {
              "internalType": "string",
              "name": "gender",
              "type": "string"
            },
            {
              "internalType": "bool",
              "name": "isWinner",
              "type": "bool"
            },
            {
              "internalType": "uint256",
              "name": "voteCount",
              "type": "uint256"
            }
          ],
          "internalType": "struct CandidateStructure.Candidate[]",
          "name": "",
          "type": "tuple[]"
        }
      ],
      "stateMutability": "view",
      "type": "function"
    },
    {
      "inputs": [
        {
          "internalType": "string",
          "name": "_collegeName",
          "type": "string"
        }
      ],
      "name": "viewGovernors",
      "outputs": [
        {
          "components": [
            {
              "internalType": "string",
              "name": "firstName",
              "type": "string"
            },
            {
              "internalType": "string",
              "name": "lastName",
              "type": "string"
            },
            {
              "internalType": "string",
              "name": "collegeName",
              "type": "string"
            },
            {
              "internalType": "string",
              "name": "programName",
              "type": "string"
            },
            {
              "internalType": "uint256",
              "name": "yearOfStudy",
              "type": "uint256"
            },
            {
              "internalType": "string",
              "name": "regNo",
              "type": "string"
            },
            {
              "internalType": "string",
              "name": "blockNumber",
              "type": "string"
            },
            {
              "internalType": "string",
              "name": "gender",
              "type": "string"
            },
            {
              "internalType": "bool",
              "name": "isWinner",
              "type": "bool"
            },
            {
              "internalType": "uint256",
              "name": "voteCount",
              "type": "uint256"
            }
          ],
          "internalType": "struct CandidateStructure.Candidate[]",
          "name": "",
          "type": "tuple[]"
        }
      ],
      "stateMutability": "view",
      "type": "function"
    },
    {
      "inputs": [
        {
          "internalType": "string",
          "name": "_collegeName",
          "type": "string"
        },
        {
          "internalType": "string",
          "name": "_blockNumber",
          "type": "string"
        }
      ],
      "name": "viewBlockLeader",
      "outputs": [
        {
          "components": [
            {
              "internalType": "string",
              "name": "firstName",
              "type": "string"
            },
            {
              "internalType": "string",
              "name": "lastName",
              "type": "string"
            },
            {
              "internalType": "string",
              "name": "collegeName",
              "type": "string"
            },
            {
              "internalType": "string",
              "name": "programName",
              "type": "string"
            },
            {
              "internalType": "uint256",
              "name": "yearOfStudy",
              "type": "uint256"
            },
            {
              "internalType": "string",
              "name": "regNo",
              "type": "string"
            },
            {
              "internalType": "string",
              "name": "blockNumber",
              "type": "string"
            },
            {
              "internalType": "string",
              "name": "gender",
              "type": "string"
            },
            {
              "internalType": "bool",
              "name": "isWinner",
              "type": "bool"
            },
            {
              "internalType": "uint256",
              "name": "voteCount",
              "type": "uint256"
            }
          ],
          "internalType": "struct CandidateStructure.Candidate[]",
          "name": "",
          "type": "tuple[]"
        }
      ],
      "stateMutability": "view",
      "type": "function"
    },
    {
      "inputs": [],
      "name": "adminViewPresident",
      "outputs": [
        {
          "components": [
            {
              "internalType": "string",
              "name": "firstName",
              "type": "string"
            },
            {
              "internalType": "string",
              "name": "lastName",
              "type": "string"
            },
            {
              "internalType": "string",
              "name": "collegeName",
              "type": "string"
            },
            {
              "internalType": "string",
              "name": "programName",
              "type": "string"
            },
            {
              "internalType": "uint256",
              "name": "yearOfStudy",
              "type": "uint256"
            },
            {
              "internalType": "string",
              "name": "regNo",
              "type": "string"
            },
            {
              "internalType": "string",
              "name": "blockNumber",
              "type": "string"
            },
            {
              "internalType": "string",
              "name": "gender",
              "type": "string"
            },
            {
              "internalType": "bool",
              "name": "isWinner",
              "type": "bool"
            },
            {
              "internalType": "uint256",
              "name": "voteCount",
              "type": "uint256"
            }
          ],
          "internalType": "struct CandidateStructure.Candidate[]",
          "name": "",
          "type": "tuple[]"
        }
      ],
      "stateMutability": "view",
      "type": "function"
    },
    {
      "inputs": [],
      "name": "adminViewGovernors",
      "outputs": [
        {
          "components": [
            {
              "internalType": "string",
              "name": "firstName",
              "type": "string"
            },
            {
              "internalType": "string",
              "name": "lastName",
              "type": "string"
            },
            {
              "internalType": "string",
              "name": "collegeName",
              "type": "string"
            },
            {
              "internalType": "string",
              "name": "programName",
              "type": "string"
            },
            {
              "internalType": "uint256",
              "name": "yearOfStudy",
              "type": "uint256"
            },
            {
              "internalType": "string",
              "name": "regNo",
              "type": "string"
            },
            {
              "internalType": "string",
              "name": "blockNumber",
              "type": "string"
            },
            {
              "internalType": "string",
              "name": "gender",
              "type": "string"
            },
            {
              "internalType": "bool",
              "name": "isWinner",
              "type": "bool"
            },
            {
              "internalType": "uint256",
              "name": "voteCount",
              "type": "uint256"
            }
          ],
          "internalType": "struct CandidateStructure.Candidate[]",
          "name": "",
          "type": "tuple[]"
        }
      ],
      "stateMutability": "view",
      "type": "function"
    },
    {
      "inputs": [],
      "name": "adminViewBlockLeader",
      "outputs": [
        {
          "components": [
            {
              "internalType": "string",
              "name": "firstName",
              "type": "string"
            },
            {
              "internalType": "string",
              "name": "lastName",
              "type": "string"
            },
            {
              "internalType": "string",
              "name": "collegeName",
              "type": "string"
            },
            {
              "internalType": "string",
              "name": "programName",
              "type": "string"
            },
            {
              "internalType": "uint256",
              "name": "yearOfStudy",
              "type": "uint256"
            },
            {
              "internalType": "string",
              "name": "regNo",
              "type": "string"
            },
            {
              "internalType": "string",
              "name": "blockNumber",
              "type": "string"
            },
            {
              "internalType": "string",
              "name": "gender",
              "type": "string"
            },
            {
              "internalType": "bool",
              "name": "isWinner",
              "type": "bool"
            },
            {
              "internalType": "uint256",
              "name": "voteCount",
              "type": "uint256"
            }
          ],
          "internalType": "struct CandidateStructure.Candidate[]",
          "name": "",
          "type": "tuple[]"
        }
      ],
      "stateMutability": "view",
      "type": "function"
    }
  ],
  "bytecode": "0x608060405234801561001057600080fd5b5033601460006101000a81548173ffffffffffffffffffffffffffffffffffffffff021916908373ffffffffffffffffffffffffffffffffffffffff160217905550614c19806100616000396000f3fe608060405234801561001057600080fd5b50600436106101a95760003560e01c80635e1f2848116100f9578063dccea18911610097578063efb98bcf11610071578063efb98bcf14610558578063f644502614610576578063f6ffc117146105af578063f851a440146105cd576101a9565b8063dccea189146104da578063e316db4e146104f8578063e6b52a3314610528576101a9565b8063a0b0df95116100d3578063a0b0df951461042e578063a15a36c71461045e578063a27913021461047a578063c822d7f0146104aa576101a9565b80635e1f2848146103c45780635f8b9972146103e257806375829def14610412576101a9565b80631ac45f521161016657806345a8a2be1161014057806345a8a2be146103285780634c4c3bd914610358578063557ed1ba146103765780635afdbb7614610394576101a9565b80631ac45f52146102b35780631cb59914146102ec578063454a0af11461030a576101a9565b806302aac7b2146101ae578063052fbf8c146101de57806305420c751461020e5780630d15fd771461023e57806313769eb11461025c578063166b47221461027a575b600080fd5b6101c860048036038101906101c39190613d65565b6105eb565b6040516101d59190613e22565b60405180910390f35b6101f860048036038101906101f39190613ea2565b610697565b6040516102059190613eea565b60405180910390f35b6102286004803603810190610223919061403a565b6106b7565b60405161023591906142e0565b60405180910390f35b610246610d26565b6040516102539190614311565b60405180910390f35b610264610d2c565b60405161027191906142e0565b60405180910390f35b610294600480360381019061028f919061432c565b6112d8565b6040516102aa9a99989796959493929190614375565b60405180910390f35b6102cd60048036038101906102c8919061432c565b611707565b6040516102e39a99989796959493929190614375565b60405180910390f35b6102f4611b36565b6040516103019190613eea565b60405180910390f35b610312611b49565b60405161031f91906142e0565b60405180910390f35b610342600480360381019061033d9190613d65565b6120f5565b60405161034f9190613e22565b60405180910390f35b6103606121a1565b60405161036d91906142e0565b60405180910390f35b61037e61274d565b60405161038b91906144f1565b60405180910390f35b6103ae60048036038101906103a99190613d65565b6127a5565b6040516103bb9190614311565b60405180910390f35b6103cc6127c9565b6040516103d991906142e0565b60405180910390f35b6103fc60048036038101906103f79190613ea2565b612ce5565b6040516104099190613eea565b60405180910390f35b61042c60048036038101906104279190613ea2565b612d05565b005b61044860048036038101906104439190613ea2565b612dd9565b6040516104559190613eea565b60405180910390f35b61047860048036038101906104739190614513565b612df9565b005b610494600480360381019061048f919061432c565b613024565b6040516104a191906142e0565b60405180910390f35b6104c460048036038101906104bf919061432c565b6136fa565b6040516104d19190613eea565b60405180910390f35b6104e2613730565b6040516104ef9190614311565b60405180910390f35b610512600480360381019061050d9190613d65565b613736565b60405161051f9190613e22565b60405180910390f35b610542600480360381019061053d9190613d65565b6137e2565b60405161054f9190614311565b60405180910390f35b6105606137fd565b60405161056d9190614311565b60405180910390f35b610590600480360381019061058b919061432c565b61386b565b6040516105a69a99989796959493929190614375565b60405180910390f35b6105b7613c9a565b6040516105c49190614311565b60405180910390f35b6105d5613ca0565b6040516105e29190614562565b60405180910390f35b600981815481106105fb57600080fd5b906000526020600020016000915090508054610616906145ac565b80601f0160208091040260200160405190810160405280929190818152602001828054610642906145ac565b801561068f5780601f106106645761010080835404028352916020019161068f565b820191906000526020600020905b81548152906001019060200180831161067257829003601f168201915b505050505081565b60076020528060005260406000206000915054906101000a900460ff1681565b60606015544210156106fe576040517f08c379a00000000000000000000000000000000000000000000000000000000081526004016106f590614629565b60405180910390fd5b601654421115610743576040517f08c379a000000000000000000000000000000000000000000000000000000000815260040161073a90614695565b60405180910390fd5b6000600a8054905067ffffffffffffffff81111561076457610763613f0f565b5b60405190808252806020026020018201604052801561079d57816020015b61078a613cc6565b8152602001906001900390816107825790505b50905060005b600a80549050811015610d1b5784805190602001206004600a83815481106107ce576107cd6146b5565b5b906000526020600020016040516107e59190614787565b90815260200160405180910390206002016040516108039190614841565b6040518091039020148015610870575083805190602001206004600a8381548110610831576108306146b5565b5b906000526020600020016040516108489190614787565b90815260200160405180910390206006016040516108669190614841565b6040518091039020145b15610d08576003600a828154811061088b5761088a6146b5565b5b906000526020600020016040516108a29190614787565b9081526020016040518091039020604051806101400160405290816000820180546108cc906145ac565b80601f01602080910402602001604051908101604052809291908181526020018280546108f8906145ac565b80156109455780601f1061091a57610100808354040283529160200191610945565b820191906000526020600020905b81548152906001019060200180831161092857829003601f168201915b5050505050815260200160018201805461095e906145ac565b80601f016020809104026020016040519081016040528092919081815260200182805461098a906145ac565b80156109d75780601f106109ac576101008083540402835291602001916109d7565b820191906000526020600020905b8154815290600101906020018083116109ba57829003601f168201915b505050505081526020016002820180546109f0906145ac565b80601f0160208091040260200160405190810160405280929190818152602001828054610a1c906145ac565b8015610a695780601f10610a3e57610100808354040283529160200191610a69565b820191906000526020600020905b815481529060010190602001808311610a4c57829003601f168201915b50505050508152602001600382018054610a82906145ac565b80601f0160208091040260200160405190810160405280929190818152602001828054610aae906145ac565b8015610afb5780601f10610ad057610100808354040283529160200191610afb565b820191906000526020600020905b815481529060010190602001808311610ade57829003601f168201915b5050505050815260200160048201548152602001600582018054610b1e906145ac565b80601f0160208091040260200160405190810160405280929190818152602001828054610b4a906145ac565b8015610b975780601f10610b6c57610100808354040283529160200191610b97565b820191906000526020600020905b815481529060010190602001808311610b7a57829003601f168201915b50505050508152602001600682018054610bb0906145ac565b80601f0160208091040260200160405190810160405280929190818152602001828054610bdc906145ac565b8015610c295780601f10610bfe57610100808354040283529160200191610c29565b820191906000526020600020905b815481529060010190602001808311610c0c57829003601f168201915b50505050508152602001600782018054610c42906145ac565b80601f0160208091040260200160405190810160405280929190818152602001828054610c6e906145ac565b8015610cbb5780601f10610c9057610100808354040283529160200191610cbb565b820191906000526020600020905b815481529060010190602001808311610c9e57829003601f168201915b505050505081526020016008820160009054906101000a900460ff16151515158152602001600982015481525050828281518110610cfc57610cfb6146b5565b5b60200260200101819052505b8080610d1390614887565b9150506107a3565b508091505092915050565b60005481565b6060601460009054906101000a900473ffffffffffffffffffffffffffffffffffffffff1673ffffffffffffffffffffffffffffffffffffffff163373ffffffffffffffffffffffffffffffffffffffff1614610dbe576040517f08c379a0000000000000000000000000000000000000000000000000000000008152600401610db590614941565b60405180910390fd5b600060098054905067ffffffffffffffff811115610ddf57610dde613f0f565b5b604051908082528060200260200182016040528015610e1857816020015b610e05613cc6565b815260200190600190039081610dfd5790505b50905060005b6009805490508110156112d057600360098281548110610e4157610e406146b5565b5b90600052602060002001604051610e589190614787565b908152602001604051809103902060405180610140016040529081600082018054610e82906145ac565b80601f0160208091040260200160405190810160405280929190818152602001828054610eae906145ac565b8015610efb5780601f10610ed057610100808354040283529160200191610efb565b820191906000526020600020905b815481529060010190602001808311610ede57829003601f168201915b50505050508152602001600182018054610f14906145ac565b80601f0160208091040260200160405190810160405280929190818152602001828054610f40906145ac565b8015610f8d5780601f10610f6257610100808354040283529160200191610f8d565b820191906000526020600020905b815481529060010190602001808311610f7057829003601f168201915b50505050508152602001600282018054610fa6906145ac565b80601f0160208091040260200160405190810160405280929190818152602001828054610fd2906145ac565b801561101f5780601f10610ff45761010080835404028352916020019161101f565b820191906000526020600020905b81548152906001019060200180831161100257829003601f168201915b50505050508152602001600382018054611038906145ac565b80601f0160208091040260200160405190810160405280929190818152602001828054611064906145ac565b80156110b15780601f10611086576101008083540402835291602001916110b1565b820191906000526020600020905b81548152906001019060200180831161109457829003601f168201915b50505050508152602001600482015481526020016005820180546110d4906145ac565b80601f0160208091040260200160405190810160405280929190818152602001828054611100906145ac565b801561114d5780601f106111225761010080835404028352916020019161114d565b820191906000526020600020905b81548152906001019060200180831161113057829003601f168201915b50505050508152602001600682018054611166906145ac565b80601f0160208091040260200160405190810160405280929190818152602001828054611192906145ac565b80156111df5780601f106111b4576101008083540402835291602001916111df565b820191906000526020600020905b8154815290600101906020018083116111c257829003601f168201915b505050505081526020016007820180546111f8906145ac565b80601f0160208091040260200160405190810160405280929190818152602001828054611224906145ac565b80156112715780601f1061124657610100808354040283529160200191611271565b820191906000526020600020905b81548152906001019060200180831161125457829003601f168201915b505050505081526020016008820160009054906101000a900460ff161515151581526020016009820154815250508282815181106112b2576112b16146b5565b5b602002602001018190525080806112c890614887565b915050610e1e565b508091505090565b600281805160208101820180518482526020830160208501208183528095505050505050600091509050806000018054611311906145ac565b80601f016020809104026020016040519081016040528092919081815260200182805461133d906145ac565b801561138a5780601f1061135f5761010080835404028352916020019161138a565b820191906000526020600020905b81548152906001019060200180831161136d57829003601f168201915b50505050509080600101805461139f906145ac565b80601f01602080910402602001604051908101604052809291908181526020018280546113cb906145ac565b80156114185780601f106113ed57610100808354040283529160200191611418565b820191906000526020600020905b8154815290600101906020018083116113fb57829003601f168201915b50505050509080600201805461142d906145ac565b80601f0160208091040260200160405190810160405280929190818152602001828054611459906145ac565b80156114a65780601f1061147b576101008083540402835291602001916114a6565b820191906000526020600020905b81548152906001019060200180831161148957829003601f168201915b5050505050908060030180546114bb906145ac565b80601f01602080910402602001604051908101604052809291908181526020018280546114e7906145ac565b80156115345780601f1061150957610100808354040283529160200191611534565b820191906000526020600020905b81548152906001019060200180831161151757829003601f168201915b50505050509080600401549080600501805461154f906145ac565b80601f016020809104026020016040519081016040528092919081815260200182805461157b906145ac565b80156115c85780601f1061159d576101008083540402835291602001916115c8565b820191906000526020600020905b8154815290600101906020018083116115ab57829003601f168201915b5050505050908060060180546115dd906145ac565b80601f0160208091040260200160405190810160405280929190818152602001828054611609906145ac565b80156116565780601f1061162b57610100808354040283529160200191611656565b820191906000526020600020905b81548152906001019060200180831161163957829003601f168201915b50505050509080600701805461166b906145ac565b80601f0160208091040260200160405190810160405280929190818152602001828054611697906145ac565b80156116e45780601f106116b9576101008083540402835291602001916116e4565b820191906000526020600020905b8154815290600101906020018083116116c757829003601f168201915b5050505050908060080160009054906101000a900460ff1690806009015490508a565b600481805160208101820180518482526020830160208501208183528095505050505050600091509050806000018054611740906145ac565b80601f016020809104026020016040519081016040528092919081815260200182805461176c906145ac565b80156117b95780601f1061178e576101008083540402835291602001916117b9565b820191906000526020600020905b81548152906001019060200180831161179c57829003601f168201915b5050505050908060010180546117ce906145ac565b80601f01602080910402602001604051908101604052809291908181526020018280546117fa906145ac565b80156118475780601f1061181c57610100808354040283529160200191611847565b820191906000526020600020905b81548152906001019060200180831161182a57829003601f168201915b50505050509080600201805461185c906145ac565b80601f0160208091040260200160405190810160405280929190818152602001828054611888906145ac565b80156118d55780601f106118aa576101008083540402835291602001916118d5565b820191906000526020600020905b8154815290600101906020018083116118b857829003601f168201915b5050505050908060030180546118ea906145ac565b80601f0160208091040260200160405190810160405280929190818152602001828054611916906145ac565b80156119635780601f1061193857610100808354040283529160200191611963565b820191906000526020600020905b81548152906001019060200180831161194657829003601f168201915b50505050509080600401549080600501805461197e906145ac565b80601f01602080910402602001604051908101604052809291908181526020018280546119aa906145ac565b80156119f75780601f106119cc576101008083540402835291602001916119f7565b820191906000526020600020905b8154815290600101906020018083116119da57829003601f168201915b505050505090806006018054611a0c906145ac565b80601f0160208091040260200160405190810160405280929190818152602001828054611a38906145ac565b8015611a855780601f10611a5a57610100808354040283529160200191611a85565b820191906000526020600020905b815481529060010190602001808311611a6857829003601f168201915b505050505090806007018054611a9a906145ac565b80601f0160208091040260200160405190810160405280929190818152602001828054611ac6906145ac565b8015611b135780601f10611ae857610100808354040283529160200191611b13565b820191906000526020600020905b815481529060010190602001808311611af657829003601f168201915b5050505050908060080160009054906101000a900460ff1690806009015490508a565b601860009054906101000a900460ff1681565b6060601460009054906101000a900473ffffffffffffffffffffffffffffffffffffffff1673ffffffffffffffffffffffffffffffffffffffff163373ffffffffffffffffffffffffffffffffffffffff1614611bdb576040517f08c379a0000000000000000000000000000000000000000000000000000000008152600401611bd290614941565b60405180910390fd5b600060088054905067ffffffffffffffff811115611bfc57611bfb613f0f565b5b604051908082528060200260200182016040528015611c3557816020015b611c22613cc6565b815260200190600190039081611c1a5790505b50905060005b6008805490508110156120ed57600260088281548110611c5e57611c5d6146b5565b5b90600052602060002001604051611c759190614787565b908152602001604051809103902060405180610140016040529081600082018054611c9f906145ac565b80601f0160208091040260200160405190810160405280929190818152602001828054611ccb906145ac565b8015611d185780601f10611ced57610100808354040283529160200191611d18565b820191906000526020600020905b815481529060010190602001808311611cfb57829003601f168201915b50505050508152602001600182018054611d31906145ac565b80601f0160208091040260200160405190810160405280929190818152602001828054611d5d906145ac565b8015611daa5780601f10611d7f57610100808354040283529160200191611daa565b820191906000526020600020905b815481529060010190602001808311611d8d57829003601f168201915b50505050508152602001600282018054611dc3906145ac565b80601f0160208091040260200160405190810160405280929190818152602001828054611def906145ac565b8015611e3c5780601f10611e1157610100808354040283529160200191611e3c565b820191906000526020600020905b815481529060010190602001808311611e1f57829003601f168201915b50505050508152602001600382018054611e55906145ac565b80601f0160208091040260200160405190810160405280929190818152602001828054611e81906145ac565b8015611ece5780601f10611ea357610100808354040283529160200191611ece565b820191906000526020600020905b815481529060010190602001808311611eb157829003601f168201915b5050505050815260200160048201548152602001600582018054611ef1906145ac565b80601f0160208091040260200160405190810160405280929190818152602001828054611f1d906145ac565b8015611f6a5780601f10611f3f57610100808354040283529160200191611f6a565b820191906000526020600020905b815481529060010190602001808311611f4d57829003601f168201915b50505050508152602001600682018054611f83906145ac565b80601f0160208091040260200160405190810160405280929190818152602001828054611faf906145ac565b8015611ffc5780601f10611fd157610100808354040283529160200191611ffc565b820191906000526020600020905b815481529060010190602001808311611fdf57829003601f168201915b50505050508152602001600782018054612015906145ac565b80601f0160208091040260200160405190810160405280929190818152602001828054612041906145ac565b801561208e5780601f106120635761010080835404028352916020019161208e565b820191906000526020600020905b81548152906001019060200180831161207157829003601f168201915b505050505081526020016008820160009054906101000a900460ff161515151581526020016009820154815250508282815181106120cf576120ce6146b5565b5b602002602001018190525080806120e590614887565b915050611c3b565b508091505090565b600a818154811061210557600080fd5b906000526020600020016000915090508054612120906145ac565b80601f016020809104026020016040519081016040528092919081815260200182805461214c906145ac565b80156121995780601f1061216e57610100808354040283529160200191612199565b820191906000526020600020905b81548152906001019060200180831161217c57829003601f168201915b505050505081565b6060601460009054906101000a900473ffffffffffffffffffffffffffffffffffffffff1673ffffffffffffffffffffffffffffffffffffffff163373ffffffffffffffffffffffffffffffffffffffff1614612233576040517f08c379a000000000000000000000000000000000000000000000000000000000815260040161222a90614941565b60405180910390fd5b6000600a8054905067ffffffffffffffff81111561225457612253613f0f565b5b60405190808252806020026020018201604052801561228d57816020015b61227a613cc6565b8152602001906001900390816122725790505b50905060005b600a80549050811015612745576003600a82815481106122b6576122b56146b5565b5b906000526020600020016040516122cd9190614787565b9081526020016040518091039020604051806101400160405290816000820180546122f7906145ac565b80601f0160208091040260200160405190810160405280929190818152602001828054612323906145ac565b80156123705780601f1061234557610100808354040283529160200191612370565b820191906000526020600020905b81548152906001019060200180831161235357829003601f168201915b50505050508152602001600182018054612389906145ac565b80601f01602080910402602001604051908101604052809291908181526020018280546123b5906145ac565b80156124025780601f106123d757610100808354040283529160200191612402565b820191906000526020600020905b8154815290600101906020018083116123e557829003601f168201915b5050505050815260200160028201805461241b906145ac565b80601f0160208091040260200160405190810160405280929190818152602001828054612447906145ac565b80156124945780601f1061246957610100808354040283529160200191612494565b820191906000526020600020905b81548152906001019060200180831161247757829003601f168201915b505050505081526020016003820180546124ad906145ac565b80601f01602080910402602001604051908101604052809291908181526020018280546124d9906145ac565b80156125265780601f106124fb57610100808354040283529160200191612526565b820191906000526020600020905b81548152906001019060200180831161250957829003601f168201915b5050505050815260200160048201548152602001600582018054612549906145ac565b80601f0160208091040260200160405190810160405280929190818152602001828054612575906145ac565b80156125c25780601f10612597576101008083540402835291602001916125c2565b820191906000526020600020905b8154815290600101906020018083116125a557829003601f168201915b505050505081526020016006820180546125db906145ac565b80601f0160208091040260200160405190810160405280929190818152602001828054612607906145ac565b80156126545780601f1061262957610100808354040283529160200191612654565b820191906000526020600020905b81548152906001019060200180831161263757829003601f168201915b5050505050815260200160078201805461266d906145ac565b80601f0160208091040260200160405190810160405280929190818152602001828054612699906145ac565b80156126e65780601f106126bb576101008083540402835291602001916126e6565b820191906000526020600020905b8154815290600101906020018083116126c957829003601f168201915b505050505081526020016008820160009054906101000a900460ff16151515158152602001600982015481525050828281518110612727576127266146b5565b5b6020026020010181905250808061273d90614887565b915050612293565b508091505090565b6060601980548060200260200160405190810160405280929190818152602001828054801561279b57602002820191906000526020600020905b815481526020019060010190808311612787575b5050505050905090565b601981815481106127b557600080fd5b906000526020600020016000915090505481565b6060600060088054905067ffffffffffffffff8111156127ec576127eb613f0f565b5b60405190808252806020026020018201604052801561282557816020015b612812613cc6565b81526020019060019003908161280a5790505b50905060005b600880549050811015612cdd5760026008828154811061284e5761284d6146b5565b5b906000526020600020016040516128659190614787565b90815260200160405180910390206040518061014001604052908160008201805461288f906145ac565b80601f01602080910402602001604051908101604052809291908181526020018280546128bb906145ac565b80156129085780601f106128dd57610100808354040283529160200191612908565b820191906000526020600020905b8154815290600101906020018083116128eb57829003601f168201915b50505050508152602001600182018054612921906145ac565b80601f016020809104026020016040519081016040528092919081815260200182805461294d906145ac565b801561299a5780601f1061296f5761010080835404028352916020019161299a565b820191906000526020600020905b81548152906001019060200180831161297d57829003601f168201915b505050505081526020016002820180546129b3906145ac565b80601f01602080910402602001604051908101604052809291908181526020018280546129df906145ac565b8015612a2c5780601f10612a0157610100808354040283529160200191612a2c565b820191906000526020600020905b815481529060010190602001808311612a0f57829003601f168201915b50505050508152602001600382018054612a45906145ac565b80601f0160208091040260200160405190810160405280929190818152602001828054612a71906145ac565b8015612abe5780601f10612a9357610100808354040283529160200191612abe565b820191906000526020600020905b815481529060010190602001808311612aa157829003601f168201915b5050505050815260200160048201548152602001600582018054612ae1906145ac565b80601f0160208091040260200160405190810160405280929190818152602001828054612b0d906145ac565b8015612b5a5780601f10612b2f57610100808354040283529160200191612b5a565b820191906000526020600020905b815481529060010190602001808311612b3d57829003601f168201915b50505050508152602001600682018054612b73906145ac565b80601f0160208091040260200160405190810160405280929190818152602001828054612b9f906145ac565b8015612bec5780601f10612bc157610100808354040283529160200191612bec565b820191906000526020600020905b815481529060010190602001808311612bcf57829003601f168201915b50505050508152602001600782018054612c05906145ac565b80601f0160208091040260200160405190810160405280929190818152602001828054612c31906145ac565b8015612c7e5780601f10612c5357610100808354040283529160200191612c7e565b820191906000526020600020905b815481529060010190602001808311612c6157829003601f168201915b505050505081526020016008820160009054906101000a900460ff16151515158152602001600982015481525050828281518110612cbf57612cbe6146b5565b5b60200260200101819052508080612cd590614887565b91505061282b565b508091505090565b60056020528060005260406000206000915054906101000a900460ff1681565b601460009054906101000a900473ffffffffffffffffffffffffffffffffffffffff1673ffffffffffffffffffffffffffffffffffffffff163373ffffffffffffffffffffffffffffffffffffffff1614612d95576040517f08c379a0000000000000000000000000000000000000000000000000000000008152600401612d8c90614941565b60405180910390fd5b80601460006101000a81548173ffffffffffffffffffffffffffffffffffffffff021916908373ffffffffffffffffffffffffffffffffffffffff16021790555050565b60066020528060005260406000206000915054906101000a900460ff1681565b601460009054906101000a900473ffffffffffffffffffffffffffffffffffffffff1673ffffffffffffffffffffffffffffffffffffffff163373ffffffffffffffffffffffffffffffffffffffff1614612e89576040517f08c379a0000000000000000000000000000000000000000000000000000000008152600401612e8090614941565b60405180910390fd5b818111612ecb576040517f08c379a0000000000000000000000000000000000000000000000000000000008152600401612ec2906149ad565b60405180910390fd5b601860009054906101000a900460ff1615612f1b576040517f08c379a0000000000000000000000000000000000000000000000000000000008152600401612f1290614a3f565b60405180910390fd5b60008282612f299190614a5f565b90506019839080600181540180825580915050600190039060005260206000200160009091909190915055601982908060018154018082558091505060019003906000526020600020016000909190919091505560198190806001815401808255809150506001900390600052602060002001600090919091909150556001601860006101000a81548160ff021916908315150217905550600183612fce9190614a93565b42612fd99190614ad5565b601581905550600182612fec9190614a93565b42612ff79190614ad5565b601681905550806017819055506001601860006101000a81548160ff021916908315150217905550505050565b606060155442101561306b576040517f08c379a000000000000000000000000000000000000000000000000000000000815260040161306290614629565b60405180910390fd5b6016544211156130b0576040517f08c379a00000000000000000000000000000000000000000000000000000000081526004016130a790614695565b60405180910390fd5b600060098054905067ffffffffffffffff8111156130d1576130d0613f0f565b5b60405190808252806020026020018201604052801561310a57816020015b6130f7613cc6565b8152602001906001900390816130ef5790505b50905060006009805480602002602001604051908101604052809291908181526020016000905b828210156131dd578382906000526020600020018054613150906145ac565b80601f016020809104026020016040519081016040528092919081815260200182805461317c906145ac565b80156131c95780601f1061319e576101008083540402835291602001916131c9565b820191906000526020600020905b8154815290600101906020018083116131ac57829003601f168201915b505050505081526020019060010190613131565b50505050905060005b81518110156136ef578480519060200120600383838151811061320c5761320b6146b5565b5b60200260200101516040516132219190614b3a565b908152602001604051809103902060020160405161323f9190614841565b6040518091039020036136dc576003828281518110613261576132606146b5565b5b60200260200101516040516132769190614b3a565b9081526020016040518091039020604051806101400160405290816000820180546132a0906145ac565b80601f01602080910402602001604051908101604052809291908181526020018280546132cc906145ac565b80156133195780601f106132ee57610100808354040283529160200191613319565b820191906000526020600020905b8154815290600101906020018083116132fc57829003601f168201915b50505050508152602001600182018054613332906145ac565b80601f016020809104026020016040519081016040528092919081815260200182805461335e906145ac565b80156133ab5780601f10613380576101008083540402835291602001916133ab565b820191906000526020600020905b81548152906001019060200180831161338e57829003601f168201915b505050505081526020016002820180546133c4906145ac565b80601f01602080910402602001604051908101604052809291908181526020018280546133f0906145ac565b801561343d5780601f106134125761010080835404028352916020019161343d565b820191906000526020600020905b81548152906001019060200180831161342057829003601f168201915b50505050508152602001600382018054613456906145ac565b80601f0160208091040260200160405190810160405280929190818152602001828054613482906145ac565b80156134cf5780601f106134a4576101008083540402835291602001916134cf565b820191906000526020600020905b8154815290600101906020018083116134b257829003601f168201915b50505050508152602001600482015481526020016005820180546134f2906145ac565b80601f016020809104026020016040519081016040528092919081815260200182805461351e906145ac565b801561356b5780601f106135405761010080835404028352916020019161356b565b820191906000526020600020905b81548152906001019060200180831161354e57829003601f168201915b50505050508152602001600682018054613584906145ac565b80601f01602080910402602001604051908101604052809291908181526020018280546135b0906145ac565b80156135fd5780601f106135d2576101008083540402835291602001916135fd565b820191906000526020600020905b8154815290600101906020018083116135e057829003601f168201915b50505050508152602001600782018054613616906145ac565b80601f0160208091040260200160405190810160405280929190818152602001828054613642906145ac565b801561368f5780601f106136645761010080835404028352916020019161368f565b820191906000526020600020905b81548152906001019060200180831161367257829003601f168201915b505050505081526020016008820160009054906101000a900460ff161515151581526020016009820154815250508382815181106136d0576136cf6146b5565b5b60200260200101819052505b80806136e790614887565b9150506131e6565b508192505050919050565b6001818051602081018201805184825260208301602085012081835280955050505050506000915054906101000a900460ff1681565b600b5481565b6008818154811061374657600080fd5b906000526020600020016000915090508054613761906145ac565b80601f016020809104026020016040519081016040528092919081815260200182805461378d906145ac565b80156137da5780601f106137af576101008083540402835291602001916137da565b820191906000526020600020905b8154815290600101906020018083116137bd57829003601f168201915b505050505081565b600c81600781106137f257600080fd5b016000915090505481565b6000601554421015613844576040517f08c379a000000000000000000000000000000000000000000000000000000000815260040161383b90614bc3565b60405180910390fd5b601654421015613863574260165461385c9190614a5f565b9050613868565b600090505b90565b6003818051602081018201805184825260208301602085012081835280955050505050506000915090508060000180546138a4906145ac565b80601f01602080910402602001604051908101604052809291908181526020018280546138d0906145ac565b801561391d5780601f106138f25761010080835404028352916020019161391d565b820191906000526020600020905b81548152906001019060200180831161390057829003601f168201915b505050505090806001018054613932906145ac565b80601f016020809104026020016040519081016040528092919081815260200182805461395e906145ac565b80156139ab5780601f10613980576101008083540402835291602001916139ab565b820191906000526020600020905b81548152906001019060200180831161398e57829003601f168201915b5050505050908060020180546139c0906145ac565b80601f01602080910402602001604051908101604052809291908181526020018280546139ec906145ac565b8015613a395780601f10613a0e57610100808354040283529160200191613a39565b820191906000526020600020905b815481529060010190602001808311613a1c57829003601f168201915b505050505090806003018054613a4e906145ac565b80601f0160208091040260200160405190810160405280929190818152602001828054613a7a906145ac565b8015613ac75780601f10613a9c57610100808354040283529160200191613ac7565b820191906000526020600020905b815481529060010190602001808311613aaa57829003601f168201915b505050505090806004015490806005018054613ae2906145ac565b80601f0160208091040260200160405190810160405280929190818152602001828054613b0e906145ac565b8015613b5b5780601f10613b3057610100808354040283529160200191613b5b565b820191906000526020600020905b815481529060010190602001808311613b3e57829003601f168201915b505050505090806006018054613b70906145ac565b80601f0160208091040260200160405190810160405280929190818152602001828054613b9c906145ac565b8015613be95780601f10613bbe57610100808354040283529160200191613be9565b820191906000526020600020905b815481529060010190602001808311613bcc57829003601f168201915b505050505090806007018054613bfe906145ac565b80601f0160208091040260200160405190810160405280929190818152602001828054613c2a906145ac565b8015613c775780601f10613c4c57610100808354040283529160200191613c77565b820191906000526020600020905b815481529060010190602001808311613c5a57829003601f168201915b5050505050908060080160009054906101000a900460ff1690806009015490508a565b60135481565b601460009054906101000a900473ffffffffffffffffffffffffffffffffffffffff1681565b6040518061014001604052806060815260200160608152602001606081526020016060815260200160008152602001606081526020016060815260200160608152602001600015158152602001600081525090565b6000604051905090565b600080fd5b600080fd5b6000819050919050565b613d4281613d2f565b8114613d4d57600080fd5b50565b600081359050613d5f81613d39565b92915050565b600060208284031215613d7b57613d7a613d25565b5b6000613d8984828501613d50565b91505092915050565b600081519050919050565b600082825260208201905092915050565b60005b83811015613dcc578082015181840152602081019050613db1565b60008484015250505050565b6000601f19601f8301169050919050565b6000613df482613d92565b613dfe8185613d9d565b9350613e0e818560208601613dae565b613e1781613dd8565b840191505092915050565b60006020820190508181036000830152613e3c8184613de9565b905092915050565b600073ffffffffffffffffffffffffffffffffffffffff82169050919050565b6000613e6f82613e44565b9050919050565b613e7f81613e64565b8114613e8a57600080fd5b50565b600081359050613e9c81613e76565b92915050565b600060208284031215613eb857613eb7613d25565b5b6000613ec684828501613e8d565b91505092915050565b60008115159050919050565b613ee481613ecf565b82525050565b6000602082019050613eff6000830184613edb565b92915050565b600080fd5b600080fd5b7f4e487b7100000000000000000000000000000000000000000000000000000000600052604160045260246000fd5b613f4782613dd8565b810181811067ffffffffffffffff82111715613f6657613f65613f0f565b5b80604052505050565b6000613f79613d1b565b9050613f858282613f3e565b919050565b600067ffffffffffffffff821115613fa557613fa4613f0f565b5b613fae82613dd8565b9050602081019050919050565b82818337600083830152505050565b6000613fdd613fd884613f8a565b613f6f565b905082815260208101848484011115613ff957613ff8613f0a565b5b614004848285613fbb565b509392505050565b600082601f83011261402157614020613f05565b5b8135614031848260208601613fca565b91505092915050565b6000806040838503121561405157614050613d25565b5b600083013567ffffffffffffffff81111561406f5761406e613d2a565b5b61407b8582860161400c565b925050602083013567ffffffffffffffff81111561409c5761409b613d2a565b5b6140a88582860161400c565b9150509250929050565b600081519050919050565b600082825260208201905092915050565b6000819050602082019050919050565b600082825260208201905092915050565b60006140fa82613d92565b61410481856140de565b9350614114818560208601613dae565b61411d81613dd8565b840191505092915050565b61413181613d2f565b82525050565b61414081613ecf565b82525050565b600061014083016000830151848203600086015261416482826140ef565b9150506020830151848203602086015261417e82826140ef565b9150506040830151848203604086015261419882826140ef565b915050606083015184820360608601526141b282826140ef565b91505060808301516141c76080860182614128565b5060a083015184820360a08601526141df82826140ef565b91505060c083015184820360c08601526141f982826140ef565b91505060e083015184820360e086015261421382826140ef565b91505061010083015161422a610100860182614137565b5061012083015161423f610120860182614128565b508091505092915050565b60006142568383614146565b905092915050565b6000602082019050919050565b6000614276826140b2565b61428081856140bd565b935083602082028501614292856140ce565b8060005b858110156142ce57848403895281516142af858261424a565b94506142ba8361425e565b925060208a01995050600181019050614296565b50829750879550505050505092915050565b600060208201905081810360008301526142fa818461426b565b905092915050565b61430b81613d2f565b82525050565b60006020820190506143266000830184614302565b92915050565b60006020828403121561434257614341613d25565b5b600082013567ffffffffffffffff8111156143605761435f613d2a565b5b61436c8482850161400c565b91505092915050565b6000610140820190508181036000830152614390818d613de9565b905081810360208301526143a4818c613de9565b905081810360408301526143b8818b613de9565b905081810360608301526143cc818a613de9565b90506143db6080830189614302565b81810360a08301526143ed8188613de9565b905081810360c08301526144018187613de9565b905081810360e08301526144158186613de9565b9050614425610100830185613edb565b614433610120830184614302565b9b9a5050505050505050505050565b600081519050919050565b600082825260208201905092915050565b6000819050602082019050919050565b600061447a8383614128565b60208301905092915050565b6000602082019050919050565b600061449e82614442565b6144a8818561444d565b93506144b38361445e565b8060005b838110156144e45781516144cb888261446e565b97506144d683614486565b9250506001810190506144b7565b5085935050505092915050565b6000602082019050818103600083015261450b8184614493565b905092915050565b6000806040838503121561452a57614529613d25565b5b600061453885828601613d50565b925050602061454985828601613d50565b9150509250929050565b61455c81613e64565b82525050565b60006020820190506145776000830184614553565b92915050565b7f4e487b7100000000000000000000000000000000000000000000000000000000600052602260045260246000fd5b600060028204905060018216806145c457607f821691505b6020821081036145d7576145d661457d565b5b50919050565b7f566f74696e67206973206e6f742063757272656e746c79206f70656e00000000600082015250565b6000614613601c83613d9d565b915061461e826145dd565b602082019050919050565b6000602082019050818103600083015261464281614606565b9050919050565b7f566f74696e672073657373696f6e206578706972656400000000000000000000600082015250565b600061467f601683613d9d565b915061468a82614649565b602082019050919050565b600060208201905081810360008301526146ae81614672565b9050919050565b7f4e487b7100000000000000000000000000000000000000000000000000000000600052603260045260246000fd5b600081905092915050565b60008190508160005260206000209050919050565b60008154614711816145ac565b61471b81866146e4565b94506001821660008114614736576001811461474b5761477e565b60ff198316865281151582028601935061477e565b614754856146ef565b60005b8381101561477657815481890152600182019150602081019050614757565b838801955050505b50505092915050565b60006147938284614704565b915081905092915050565b600081905092915050565b60008190508160005260206000209050919050565b600081546147cb816145ac565b6147d5818661479e565b945060018216600081146147f0576001811461480557614838565b60ff1983168652811515820286019350614838565b61480e856147a9565b60005b8381101561483057815481890152600182019150602081019050614811565b838801955050505b50505092915050565b600061484d82846147be565b915081905092915050565b7f4e487b7100000000000000000000000000000000000000000000000000000000600052601160045260246000fd5b600061489282613d2f565b91507fffffffffffffffffffffffffffffffffffffffffffffffffffffffffffffffff82036148c4576148c3614858565b5b600182019050919050565b7f4f6e6c792061646d696e2063616e20706572666f726d2074686973206163746960008201527f6f6e000000000000000000000000000000000000000000000000000000000000602082015250565b600061492b602283613d9d565b9150614936826148cf565b604082019050919050565b6000602082019050818103600083015261495a8161491e565b9050919050565b7f496e76616c696420766f74696e6720706572696f640000000000000000000000600082015250565b6000614997601583613d9d565b91506149a282614961565b602082019050919050565b600060208201905081810360008301526149c68161498a565b9050919050565b7f54686520766f74696e672074696d6520697320616c726561647920696e69746960008201527f6174656400000000000000000000000000000000000000000000000000000000602082015250565b6000614a29602483613d9d565b9150614a34826149cd565b604082019050919050565b60006020820190508181036000830152614a5881614a1c565b9050919050565b6000614a6a82613d2f565b9150614a7583613d2f565b9250828203905081811115614a8d57614a8c614858565b5b92915050565b6000614a9e82613d2f565b9150614aa983613d2f565b9250828202614ab781613d2f565b91508282048414831517614ace57614acd614858565b5b5092915050565b6000614ae082613d2f565b9150614aeb83613d2f565b9250828201905080821115614b0357614b02614858565b5b92915050565b6000614b1482613d92565b614b1e81856146e4565b9350614b2e818560208601613dae565b80840191505092915050565b6000614b468284614b09565b915081905092915050565b7f766f74696e6720686173206e6f742073746172746564207965742121212c205060008201527f6c65617365207761697400000000000000000000000000000000000000000000602082015250565b6000614bad602a83613d9d565b9150614bb882614b51565b604082019050919050565b60006020820190508181036000830152614bdc81614ba0565b905091905056fea2646970667358221220ec995126486ce728001169a6ea666ccc4bb3cd2b4247b1adfb9f151dfdf5c38664736f6c63430008130033",
  "immutableReferences": {},
  "source": "// SPDX-License-Identifier: MIT\npragma solidity ^0.8.0;\nimport \"./CandidateRegistry.sol\";\nimport \"./CandidateStructure.sol\";\nimport \"./TimeControl.sol\";\n\ncontract ViewCandidates is CandidateStructure, TimeControl {\n        //voter can view candidate of the corresponding area of vote\n    function viewPresident() public view returns(Candidate[] memory){\n        Candidate[] memory result = new Candidate[](presidentList.length);        \n        for(uint i=0; i < presidentList.length; i++){\n                result[i] = candidatePresident[presidentList[i]];       \n        }\n        return result;\n    }\n\n    function viewGovernors(string memory _collegeName) public view onlyDuringVotingPeriod returns(Candidate[] memory){\n        Candidate[] memory result = new Candidate[](governorList.length);\n        string[] memory governorLst = governorList;        \n        for(uint i = 0; i < governorLst.length; i++){\n            if(keccak256(bytes(candidateGovernor[governorLst[i]].collegeName)) == keccak256(bytes(_collegeName))){\n                result[i] = candidateGovernor[governorLst[i]];  \n            }            \n        }\n        return result;\n    }\n\n    function viewBlockLeader(string memory _collegeName, string memory _blockNumber) public onlyDuringVotingPeriod view returns(Candidate[] memory){\n        Candidate[] memory result = new Candidate[](blockLeaderList.length);        \n        for(uint i = 0; i < blockLeaderList.length; i++){\n            if(keccak256(bytes(candidateBlockLeader[blockLeaderList[i]].collegeName)) == keccak256(bytes(_collegeName)) && keccak256(bytes(candidateBlockLeader[blockLeaderList[i]].blockNumber)) == keccak256(bytes(_blockNumber))){\n                result[i] = candidateGovernor[blockLeaderList[i]];  \n            }            \n        }\n        return result;\n    }\n\n\n    //Admin view candidates for a specific position of vote\n    function adminViewPresident() public view onlyAdmin returns(Candidate[] memory){\n        Candidate[] memory result = new Candidate[](presidentList.length);        \n        for(uint i=0; i < presidentList.length; i++){\n                result[i] = candidatePresident[presidentList[i]];       \n        }\n        return result;\n    }\n\n    function adminViewGovernors() public view onlyAdmin returns(Candidate[] memory){\n        Candidate[] memory result = new Candidate[](governorList.length);        \n        for(uint i = 0; i < governorList.length; i++){\n            result[i] = candidateGovernor[governorList[i]];         \n        }\n        return result;\n    }\n\n    function adminViewBlockLeader() public view onlyAdmin returns(Candidate[] memory){\n        Candidate[] memory result = new Candidate[](blockLeaderList.length);        \n        for(uint i = 0; i < blockLeaderList.length; i++){\n            result[i] = candidateGovernor[blockLeaderList[i]];           \n        }\n        return result;\n    }\n}",
  "sourcePath": "/home/temba/Documents/client/contracts/ViewCandidates.sol",
  "compiler": {
    "name": "solc",
    "version": "0.8.19+commit.7dd6d404.Emscripten.clang"
  },
  "schemaVersion": "3.4.14",
  "updatedAt": "2023-06-22T07:58:32.670Z",
  "devdoc": {
    "kind": "dev",
    "methods": {},
    "version": 1
  },
  "userdoc": {
    "kind": "user",
    "methods": {},
    "version": 1
  }
}