{
  "contractName": "VoterRegistry",
  "abi": [
    {
      "inputs": [],
      "name": "admin",
      "outputs": [
        {
          "internalType": "address",
          "name": "",
          "type": "address"
        }
      ],
      "stateMutability": "view",
      "type": "function"
    },
    {
      "inputs": [
        {
          "internalType": "uint256",
          "name": "",
          "type": "uint256"
        }
      ],
      "name": "blockLeaderList",
      "outputs": [
        {
          "internalType": "string",
          "name": "",
          "type": "string"
        }
      ],
      "stateMutability": "view",
      "type": "function"
    },
    {
      "inputs": [
        {
          "internalType": "address",
          "name": "",
          "type": "address"
        }
      ],
      "name": "blockLeaderVoted",
      "outputs": [
        {
          "internalType": "bool",
          "name": "",
          "type": "bool"
        }
      ],
      "stateMutability": "view",
      "type": "function"
    },
    {
      "inputs": [
        {
          "internalType": "string",
          "name": "",
          "type": "string"
        }
      ],
      "name": "candidateBlockLeader",
      "outputs": [
        {
          "internalType": "string",
          "name": "firstName",
          "type": "string"
        },
        {
          "internalType": "string",
          "name": "lastName",
          "type": "string"
        },
        {
          "internalType": "string",
          "name": "collegeName",
          "type": "string"
        },
        {
          "internalType": "string",
          "name": "programName",
          "type": "string"
        },
        {
          "internalType": "uint256",
          "name": "yearOfStudy",
          "type": "uint256"
        },
        {
          "internalType": "string",
          "name": "regNo",
          "type": "string"
        },
        {
          "internalType": "string",
          "name": "blockNumber",
          "type": "string"
        },
        {
          "internalType": "string",
          "name": "gender",
          "type": "string"
        },
        {
          "internalType": "bool",
          "name": "isWinner",
          "type": "bool"
        },
        {
          "internalType": "uint256",
          "name": "voteCount",
          "type": "uint256"
        }
      ],
      "stateMutability": "view",
      "type": "function"
    },
    {
      "inputs": [
        {
          "internalType": "string",
          "name": "",
          "type": "string"
        }
      ],
      "name": "candidateGovernor",
      "outputs": [
        {
          "internalType": "string",
          "name": "firstName",
          "type": "string"
        },
        {
          "internalType": "string",
          "name": "lastName",
          "type": "string"
        },
        {
          "internalType": "string",
          "name": "collegeName",
          "type": "string"
        },
        {
          "internalType": "string",
          "name": "programName",
          "type": "string"
        },
        {
          "internalType": "uint256",
          "name": "yearOfStudy",
          "type": "uint256"
        },
        {
          "internalType": "string",
          "name": "regNo",
          "type": "string"
        },
        {
          "internalType": "string",
          "name": "blockNumber",
          "type": "string"
        },
        {
          "internalType": "string",
          "name": "gender",
          "type": "string"
        },
        {
          "internalType": "bool",
          "name": "isWinner",
          "type": "bool"
        },
        {
          "internalType": "uint256",
          "name": "voteCount",
          "type": "uint256"
        }
      ],
      "stateMutability": "view",
      "type": "function"
    },
    {
      "inputs": [
        {
          "internalType": "string",
          "name": "",
          "type": "string"
        }
      ],
      "name": "candidatePresident",
      "outputs": [
        {
          "internalType": "string",
          "name": "firstName",
          "type": "string"
        },
        {
          "internalType": "string",
          "name": "lastName",
          "type": "string"
        },
        {
          "internalType": "string",
          "name": "collegeName",
          "type": "string"
        },
        {
          "internalType": "string",
          "name": "programName",
          "type": "string"
        },
        {
          "internalType": "uint256",
          "name": "yearOfStudy",
          "type": "uint256"
        },
        {
          "internalType": "string",
          "name": "regNo",
          "type": "string"
        },
        {
          "internalType": "string",
          "name": "blockNumber",
          "type": "string"
        },
        {
          "internalType": "string",
          "name": "gender",
          "type": "string"
        },
        {
          "internalType": "bool",
          "name": "isWinner",
          "type": "bool"
        },
        {
          "internalType": "uint256",
          "name": "voteCount",
          "type": "uint256"
        }
      ],
      "stateMutability": "view",
      "type": "function"
    },
    {
      "inputs": [],
      "name": "getRemainingTime",
      "outputs": [
        {
          "internalType": "uint256",
          "name": "",
          "type": "uint256"
        }
      ],
      "stateMutability": "view",
      "type": "function"
    },
    {
      "inputs": [],
      "name": "getTime",
      "outputs": [
        {
          "internalType": "uint256[]",
          "name": "",
          "type": "uint256[]"
        }
      ],
      "stateMutability": "view",
      "type": "function"
    },
    {
      "inputs": [
        {
          "internalType": "uint256",
          "name": "",
          "type": "uint256"
        }
      ],
      "name": "governorList",
      "outputs": [
        {
          "internalType": "string",
          "name": "",
          "type": "string"
        }
      ],
      "stateMutability": "view",
      "type": "function"
    },
    {
      "inputs": [
        {
          "internalType": "address",
          "name": "",
          "type": "address"
        }
      ],
      "name": "governorVoted",
      "outputs": [
        {
          "internalType": "bool",
          "name": "",
          "type": "bool"
        }
      ],
      "stateMutability": "view",
      "type": "function"
    },
    {
      "inputs": [
        {
          "internalType": "address",
          "name": "",
          "type": "address"
        }
      ],
      "name": "hasLogedin",
      "outputs": [
        {
          "internalType": "bool",
          "name": "",
          "type": "bool"
        }
      ],
      "stateMutability": "view",
      "type": "function"
    },
    {
      "inputs": [],
      "name": "isInitiated",
      "outputs": [
        {
          "internalType": "bool",
          "name": "",
          "type": "bool"
        }
      ],
      "stateMutability": "view",
      "type": "function"
    },
    {
      "inputs": [
        {
          "internalType": "string",
          "name": "",
          "type": "string"
        }
      ],
      "name": "isRegistered",
      "outputs": [
        {
          "internalType": "bool",
          "name": "",
          "type": "bool"
        }
      ],
      "stateMutability": "view",
      "type": "function"
    },
    {
      "inputs": [],
      "name": "numberOfBlockLeader",
      "outputs": [
        {
          "internalType": "uint256",
          "name": "",
          "type": "uint256"
        }
      ],
      "stateMutability": "view",
      "type": "function"
    },
    {
      "inputs": [
        {
          "internalType": "uint256",
          "name": "",
          "type": "uint256"
        }
      ],
      "name": "numberOfGovernor",
      "outputs": [
        {
          "internalType": "uint256",
          "name": "",
          "type": "uint256"
        }
      ],
      "stateMutability": "view",
      "type": "function"
    },
    {
      "inputs": [],
      "name": "numberOfPresident",
      "outputs": [
        {
          "internalType": "uint256",
          "name": "",
          "type": "uint256"
        }
      ],
      "stateMutability": "view",
      "type": "function"
    },
    {
      "inputs": [
        {
          "internalType": "uint256",
          "name": "",
          "type": "uint256"
        }
      ],
      "name": "oTime",
      "outputs": [
        {
          "internalType": "uint256",
          "name": "",
          "type": "uint256"
        }
      ],
      "stateMutability": "view",
      "type": "function"
    },
    {
      "inputs": [
        {
          "internalType": "uint256",
          "name": "",
          "type": "uint256"
        }
      ],
      "name": "presidentList",
      "outputs": [
        {
          "internalType": "string",
          "name": "",
          "type": "string"
        }
      ],
      "stateMutability": "view",
      "type": "function"
    },
    {
      "inputs": [
        {
          "internalType": "address",
          "name": "",
          "type": "address"
        }
      ],
      "name": "presidentVoted",
      "outputs": [
        {
          "internalType": "bool",
          "name": "",
          "type": "bool"
        }
      ],
      "stateMutability": "view",
      "type": "function"
    },
    {
      "inputs": [
        {
          "internalType": "uint256",
          "name": "_startTime",
          "type": "uint256"
        },
        {
          "internalType": "uint256",
          "name": "_endTime",
          "type": "uint256"
        }
      ],
      "name": "setVotingPeriod",
      "outputs": [],
      "stateMutability": "nonpayable",
      "type": "function"
    },
    {
      "inputs": [],
      "name": "totalVotes",
      "outputs": [
        {
          "internalType": "uint256",
          "name": "",
          "type": "uint256"
        }
      ],
      "stateMutability": "view",
      "type": "function"
    },
    {
      "inputs": [
        {
          "internalType": "address",
          "name": "newAdmin",
          "type": "address"
        }
      ],
      "name": "transferAdmin",
      "outputs": [],
      "stateMutability": "nonpayable",
      "type": "function"
    },
    {
      "inputs": [
        {
          "internalType": "uint256",
          "name": "",
          "type": "uint256"
        }
      ],
      "name": "voterAddressArray",
      "outputs": [
        {
          "internalType": "address",
          "name": "",
          "type": "address"
        }
      ],
      "stateMutability": "view",
      "type": "function"
    },
    {
      "inputs": [
        {
          "internalType": "address",
          "name": "",
          "type": "address"
        }
      ],
      "name": "voterSession",
      "outputs": [
        {
          "internalType": "string",
          "name": "",
          "type": "string"
        }
      ],
      "stateMutability": "view",
      "type": "function"
    },
    {
      "inputs": [
        {
          "internalType": "address",
          "name": "",
          "type": "address"
        }
      ],
      "name": "voters",
      "outputs": [
        {
          "internalType": "address",
          "name": "voterAddress",
          "type": "address"
        },
        {
          "internalType": "string",
          "name": "firstName",
          "type": "string"
        },
        {
          "internalType": "string",
          "name": "lastName",
          "type": "string"
        },
        {
          "internalType": "string",
          "name": "collegeName",
          "type": "string"
        },
        {
          "internalType": "string",
          "name": "programName",
          "type": "string"
        },
        {
          "internalType": "uint256",
          "name": "yearOfStudy",
          "type": "uint256"
        },
        {
          "internalType": "string",
          "name": "regNo",
          "type": "string"
        },
        {
          "internalType": "string",
          "name": "blockNumber",
          "type": "string"
        },
        {
          "internalType": "string",
          "name": "password",
          "type": "string"
        },
        {
          "internalType": "string",
          "name": "gender",
          "type": "string"
        },
        {
          "internalType": "bool",
          "name": "isRegistered",
          "type": "bool"
        },
        {
          "internalType": "bool",
          "name": "voted",
          "type": "bool"
        }
      ],
      "stateMutability": "view",
      "type": "function"
    },
    {
      "inputs": [
        {
          "internalType": "string",
          "name": "_firstName",
          "type": "string"
        },
        {
          "internalType": "string",
          "name": "_lastName",
          "type": "string"
        },
        {
          "internalType": "string",
          "name": "_collegeName",
          "type": "string"
        },
        {
          "internalType": "string",
          "name": "_programName",
          "type": "string"
        },
        {
          "internalType": "uint256",
          "name": "_yearOfStudy",
          "type": "uint256"
        },
        {
          "internalType": "string",
          "name": "_regNo",
          "type": "string"
        },
        {
          "internalType": "string",
          "name": "_blockNumber",
          "type": "string"
        },
        {
          "internalType": "string",
          "name": "_password",
          "type": "string"
        },
        {
          "internalType": "string",
          "name": "_gender",
          "type": "string"
        }
      ],
      "name": "registerVoter",
      "outputs": [],
      "stateMutability": "nonpayable",
      "type": "function"
    },
    {
      "inputs": [],
      "name": "getVoterRegNumbers",
      "outputs": [
        {
          "internalType": "address[]",
          "name": "",
          "type": "address[]"
        }
      ],
      "stateMutability": "view",
      "type": "function"
    },
    {
      "inputs": [],
      "name": "viewRegisteredVoters",
      "outputs": [
        {
          "components": [
            {
              "internalType": "address",
              "name": "voterAddress",
              "type": "address"
            },
            {
              "internalType": "string",
              "name": "firstName",
              "type": "string"
            },
            {
              "internalType": "string",
              "name": "lastName",
              "type": "string"
            },
            {
              "internalType": "string",
              "name": "collegeName",
              "type": "string"
            },
            {
              "internalType": "string",
              "name": "programName",
              "type": "string"
            },
            {
              "internalType": "uint256",
              "name": "yearOfStudy",
              "type": "uint256"
            },
            {
              "internalType": "string",
              "name": "regNo",
              "type": "string"
            },
            {
              "internalType": "string",
              "name": "blockNumber",
              "type": "string"
            },
            {
              "internalType": "string",
              "name": "password",
              "type": "string"
            },
            {
              "internalType": "string",
              "name": "gender",
              "type": "string"
            },
            {
              "internalType": "bool",
              "name": "isRegistered",
              "type": "bool"
            },
            {
              "internalType": "bool",
              "name": "voted",
              "type": "bool"
            }
          ],
          "internalType": "struct VoterStructure.Voter[]",
          "name": "",
          "type": "tuple[]"
        }
      ],
      "stateMutability": "view",
      "type": "function"
    },
    {
      "inputs": [
        {
          "internalType": "address",
          "name": "vtAddress",
          "type": "address"
        }
      ],
      "name": "viewVoter",
      "outputs": [
        {
          "internalType": "address",
          "name": "voterAddress",
          "type": "address"
        },
        {
          "internalType": "string",
          "name": "firstName",
          "type": "string"
        },
        {
          "internalType": "string",
          "name": "lastName",
          "type": "string"
        },
        {
          "internalType": "string",
          "name": "collegeName",
          "type": "string"
        },
        {
          "internalType": "string",
          "name": "programName",
          "type": "string"
        },
        {
          "internalType": "string",
          "name": "regNo",
          "type": "string"
        },
        {
          "internalType": "uint256",
          "name": "yearOfStudy",
          "type": "uint256"
        },
        {
          "internalType": "string",
          "name": "blockNumber",
          "type": "string"
        },
        {
          "internalType": "string",
          "name": "gender",
          "type": "string"
        }
      ],
      "stateMutability": "view",
      "type": "function"
    },
    {
      "inputs": [
        {
          "internalType": "string",
          "name": "_presidentRegNo",
          "type": "string"
        }
      ],
      "name": "castVotePresident",
      "outputs": [],
      "stateMutability": "nonpayable",
      "type": "function"
    },
    {
      "inputs": [
        {
          "internalType": "string",
          "name": "_regNo",
          "type": "string"
        },
        {
          "internalType": "string",
          "name": "_password",
          "type": "string"
        }
      ],
      "name": "voterLogin",
      "outputs": [],
      "stateMutability": "nonpayable",
      "type": "function"
    },
    {
      "inputs": [],
      "name": "logout",
      "outputs": [],
      "stateMutability": "nonpayable",
      "type": "function"
    }
  ],
  "bytecode": "0x608060405234801561001057600080fd5b5033601860006101000a81548173ffffffffffffffffffffffffffffffffffffffff021916908373ffffffffffffffffffffffffffffffffffffffff160217905550615515806100616000396000f3fe608060405234801561001057600080fd5b50600436106101f05760003560e01c806399cab9da1161010f578063d6f36304116100a2578063efb98bcf11610071578063efb98bcf14610664578063f644502614610682578063f6ffc117146106bb578063f851a440146106d9576101f0565b8063d6f36304146105ca578063dccea189146105e6578063e316db4e14610604578063e6b52a3314610634576101f0565b8063b010b574116100de578063b010b57414610530578063b9e18f031461054c578063bf08128f1461056a578063c822d7f01461059a576101f0565b806399cab9da1461048d578063a0b0df95146104a9578063a15a36c7146104d9578063a3ec138d146104f5576101f0565b806345a8a2be116101875780635f8b9972116101565780635f8b9972146103f357806371b7ddb81461042357806375829def146104535780637edf4f6d1461046f576101f0565b806345a8a2be14610345578063557ed1ba146103755780635afdbb76146103935780635b6e990c146103c3576101f0565b806316d0b773116101c357806316d0b773146102ac5780631ac45f52146102e45780631cb599141461031d5780631f3c99c31461033b576101f0565b806302aac7b2146101f5578063052fbf8c146102255780630d15fd7714610255578063166b472214610273575b600080fd5b61020f600480360381019061020a919061390f565b6106f7565b60405161021c91906139cc565b60405180910390f35b61023f600480360381019061023a9190613a4c565b6107a3565b60405161024c9190613a94565b60405180910390f35b61025d6107c3565b60405161026a9190613abe565b60405180910390f35b61028d60048036038101906102889190613c0e565b6107c9565b6040516102a39a99989796959493929190613c57565b60405180910390f35b6102c660048036038101906102c19190613a4c565b610bf8565b6040516102db99989796959493929190613d33565b60405180910390f35b6102fe60048036038101906102f99190613c0e565b611083565b6040516103149a99989796959493929190613c57565b60405180910390f35b6103256114b2565b6040516103329190613a94565b60405180910390f35b6103436114c5565b005b61035f600480360381019061035a919061390f565b61156a565b60405161036c91906139cc565b60405180910390f35b61037d611616565b60405161038a9190613eaf565b60405180910390f35b6103ad60048036038101906103a8919061390f565b61166e565b6040516103ba9190613abe565b60405180910390f35b6103dd60048036038101906103d89190613a4c565b611692565b6040516103ea91906139cc565b60405180910390f35b61040d60048036038101906104089190613a4c565b611732565b60405161041a9190613a94565b60405180910390f35b61043d6004803603810190610438919061390f565b611752565b60405161044a9190613ed1565b60405180910390f35b61046d60048036038101906104689190613a4c565b611791565b005b610477611865565b6040516104849190613faa565b60405180910390f35b6104a760048036038101906104a29190613fcc565b6118f3565b005b6104c360048036038101906104be9190613a4c565b611bce565b6040516104d09190613a94565b60405180910390f35b6104f360048036038101906104ee9190614044565b611bee565b005b61050f600480360381019061050a9190613a4c565b611e19565b6040516105279c9b9a99989796959493929190614084565b60405180910390f35b61054a60048036038101906105459190614176565b6122f3565b005b610554612958565b6040516105619190614570565b60405180910390f35b610584600480360381019061057f9190613a4c565b613036565b6040516105919190613a94565b60405180910390f35b6105b460048036038101906105af9190613c0e565b613056565b6040516105c19190613a94565b60405180910390f35b6105e460048036038101906105df9190613c0e565b61308c565b005b6105ee613257565b6040516105fb9190613abe565b60405180910390f35b61061e6004803603810190610619919061390f565b61325d565b60405161062b91906139cc565b60405180910390f35b61064e6004803603810190610649919061390f565b613309565b60405161065b9190613abe565b60405180910390f35b61066c613324565b6040516106799190613abe565b60405180910390f35b61069c60048036038101906106979190613c0e565b613392565b6040516106b29a99989796959493929190613c57565b60405180910390f35b6106c36137c1565b6040516106d09190613abe565b60405180910390f35b6106e16137c7565b6040516106ee9190613ed1565b60405180910390f35b600d818154811061070757600080fd5b906000526020600020016000915090508054610722906145c1565b80601f016020809104026020016040519081016040528092919081815260200182805461074e906145c1565b801561079b5780601f106107705761010080835404028352916020019161079b565b820191906000526020600020905b81548152906001019060200180831161077e57829003601f168201915b505050505081565b600b6020528060005260406000206000915054906101000a900460ff1681565b60045481565b600681805160208101820180518482526020830160208501208183528095505050505050600091509050806000018054610802906145c1565b80601f016020809104026020016040519081016040528092919081815260200182805461082e906145c1565b801561087b5780601f106108505761010080835404028352916020019161087b565b820191906000526020600020905b81548152906001019060200180831161085e57829003601f168201915b505050505090806001018054610890906145c1565b80601f01602080910402602001604051908101604052809291908181526020018280546108bc906145c1565b80156109095780601f106108de57610100808354040283529160200191610909565b820191906000526020600020905b8154815290600101906020018083116108ec57829003601f168201915b50505050509080600201805461091e906145c1565b80601f016020809104026020016040519081016040528092919081815260200182805461094a906145c1565b80156109975780601f1061096c57610100808354040283529160200191610997565b820191906000526020600020905b81548152906001019060200180831161097a57829003601f168201915b5050505050908060030180546109ac906145c1565b80601f01602080910402602001604051908101604052809291908181526020018280546109d8906145c1565b8015610a255780601f106109fa57610100808354040283529160200191610a25565b820191906000526020600020905b815481529060010190602001808311610a0857829003601f168201915b505050505090806004015490806005018054610a40906145c1565b80601f0160208091040260200160405190810160405280929190818152602001828054610a6c906145c1565b8015610ab95780601f10610a8e57610100808354040283529160200191610ab9565b820191906000526020600020905b815481529060010190602001808311610a9c57829003601f168201915b505050505090806006018054610ace906145c1565b80601f0160208091040260200160405190810160405280929190818152602001828054610afa906145c1565b8015610b475780601f10610b1c57610100808354040283529160200191610b47565b820191906000526020600020905b815481529060010190602001808311610b2a57829003601f168201915b505050505090806007018054610b5c906145c1565b80601f0160208091040260200160405190810160405280929190818152602001828054610b88906145c1565b8015610bd55780601f10610baa57610100808354040283529160200191610bd5565b820191906000526020600020905b815481529060010190602001808311610bb857829003601f168201915b5050505050908060080160009054906101000a900460ff1690806009015490508a565b60006060806060806060600060608060008060008c73ffffffffffffffffffffffffffffffffffffffff1673ffffffffffffffffffffffffffffffffffffffff16815260200190815260200160002090508060000160009054906101000a900473ffffffffffffffffffffffffffffffffffffffff16816001018260020183600301846004018560060186600501548760070188600901878054610c9b906145c1565b80601f0160208091040260200160405190810160405280929190818152602001828054610cc7906145c1565b8015610d145780601f10610ce957610100808354040283529160200191610d14565b820191906000526020600020905b815481529060010190602001808311610cf757829003601f168201915b50505050509750868054610d27906145c1565b80601f0160208091040260200160405190810160405280929190818152602001828054610d53906145c1565b8015610da05780601f10610d7557610100808354040283529160200191610da0565b820191906000526020600020905b815481529060010190602001808311610d8357829003601f168201915b50505050509650858054610db3906145c1565b80601f0160208091040260200160405190810160405280929190818152602001828054610ddf906145c1565b8015610e2c5780601f10610e0157610100808354040283529160200191610e2c565b820191906000526020600020905b815481529060010190602001808311610e0f57829003601f168201915b50505050509550848054610e3f906145c1565b80601f0160208091040260200160405190810160405280929190818152602001828054610e6b906145c1565b8015610eb85780601f10610e8d57610100808354040283529160200191610eb8565b820191906000526020600020905b815481529060010190602001808311610e9b57829003601f168201915b50505050509450838054610ecb906145c1565b80601f0160208091040260200160405190810160405280929190818152602001828054610ef7906145c1565b8015610f445780601f10610f1957610100808354040283529160200191610f44565b820191906000526020600020905b815481529060010190602001808311610f2757829003601f168201915b50505050509350818054610f57906145c1565b80601f0160208091040260200160405190810160405280929190818152602001828054610f83906145c1565b8015610fd05780601f10610fa557610100808354040283529160200191610fd0565b820191906000526020600020905b815481529060010190602001808311610fb357829003601f168201915b50505050509150808054610fe3906145c1565b80601f016020809104026020016040519081016040528092919081815260200182805461100f906145c1565b801561105c5780601f106110315761010080835404028352916020019161105c565b820191906000526020600020905b81548152906001019060200180831161103f57829003601f168201915b50505050509050995099509950995099509950995099509950509193959799909294969850565b6008818051602081018201805184825260208301602085012081835280955050505050506000915090508060000180546110bc906145c1565b80601f01602080910402602001604051908101604052809291908181526020018280546110e8906145c1565b80156111355780601f1061110a57610100808354040283529160200191611135565b820191906000526020600020905b81548152906001019060200180831161111857829003601f168201915b50505050509080600101805461114a906145c1565b80601f0160208091040260200160405190810160405280929190818152602001828054611176906145c1565b80156111c35780601f10611198576101008083540402835291602001916111c3565b820191906000526020600020905b8154815290600101906020018083116111a657829003601f168201915b5050505050908060020180546111d8906145c1565b80601f0160208091040260200160405190810160405280929190818152602001828054611204906145c1565b80156112515780601f1061122657610100808354040283529160200191611251565b820191906000526020600020905b81548152906001019060200180831161123457829003601f168201915b505050505090806003018054611266906145c1565b80601f0160208091040260200160405190810160405280929190818152602001828054611292906145c1565b80156112df5780601f106112b4576101008083540402835291602001916112df565b820191906000526020600020905b8154815290600101906020018083116112c257829003601f168201915b5050505050908060040154908060050180546112fa906145c1565b80601f0160208091040260200160405190810160405280929190818152602001828054611326906145c1565b80156113735780601f1061134857610100808354040283529160200191611373565b820191906000526020600020905b81548152906001019060200180831161135657829003601f168201915b505050505090806006018054611388906145c1565b80601f01602080910402602001604051908101604052809291908181526020018280546113b4906145c1565b80156114015780601f106113d657610100808354040283529160200191611401565b820191906000526020600020905b8154815290600101906020018083116113e457829003601f168201915b505050505090806007018054611416906145c1565b80601f0160208091040260200160405190810160405280929190818152602001828054611442906145c1565b801561148f5780601f106114645761010080835404028352916020019161148f565b820191906000526020600020905b81548152906001019060200180831161147257829003601f168201915b5050505050908060080160009054906101000a900460ff1690806009015490508a565b601c60009054906101000a900460ff1681565b6000600160003373ffffffffffffffffffffffffffffffffffffffff1673ffffffffffffffffffffffffffffffffffffffff16815260200190815260200160002060006101000a81548160ff021916908315150217905550600260003373ffffffffffffffffffffffffffffffffffffffff1673ffffffffffffffffffffffffffffffffffffffff168152602001908152602001600020600061156891906137ed565b565b600e818154811061157a57600080fd5b906000526020600020016000915090508054611595906145c1565b80601f01602080910402602001604051908101604052809291908181526020018280546115c1906145c1565b801561160e5780601f106115e35761010080835404028352916020019161160e565b820191906000526020600020905b8154815290600101906020018083116115f157829003601f168201915b505050505081565b6060601d80548060200260200160405190810160405280929190818152602001828054801561166457602002820191906000526020600020905b815481526020019060010190808311611650575b5050505050905090565b601d818154811061167e57600080fd5b906000526020600020016000915090505481565b600260205280600052604060002060009150905080546116b1906145c1565b80601f01602080910402602001604051908101604052809291908181526020018280546116dd906145c1565b801561172a5780601f106116ff5761010080835404028352916020019161172a565b820191906000526020600020905b81548152906001019060200180831161170d57829003601f168201915b505050505081565b60096020528060005260406000206000915054906101000a900460ff1681565b6003818154811061176257600080fd5b906000526020600020016000915054906101000a900473ffffffffffffffffffffffffffffffffffffffff1681565b601860009054906101000a900473ffffffffffffffffffffffffffffffffffffffff1673ffffffffffffffffffffffffffffffffffffffff163373ffffffffffffffffffffffffffffffffffffffff1614611821576040517f08c379a000000000000000000000000000000000000000000000000000000000815260040161181890614664565b60405180910390fd5b80601860006101000a81548173ffffffffffffffffffffffffffffffffffffffff021916908373ffffffffffffffffffffffffffffffffffffffff16021790555050565b606060038054806020026020016040519081016040528092919081815260200182805480156118e957602002820191906000526020600020905b8160009054906101000a900473ffffffffffffffffffffffffffffffffffffffff1673ffffffffffffffffffffffffffffffffffffffff168152602001906001019080831161189f575b5050505050905090565b6000803373ffffffffffffffffffffffffffffffffffffffff1673ffffffffffffffffffffffffffffffffffffffff168152602001908152602001600020600a0160009054906101000a900460ff16611981576040517f08c379a0000000000000000000000000000000000000000000000000000000008152600401611978906146d0565b60405180910390fd5b6000828051906020012050602060ff161180156119ab57506000818051906020012050602060ff16115b6119ea576040517f08c379a00000000000000000000000000000000000000000000000000000000081526004016119e190614762565b60405180910390fd5b81805190602001206000803373ffffffffffffffffffffffffffffffffffffffff1673ffffffffffffffffffffffffffffffffffffffff168152602001908152602001600020600601604051611a409190614825565b604051809103902014611a88576040517f08c379a0000000000000000000000000000000000000000000000000000000008152600401611a7f90614888565b60405180910390fd5b80805190602001206000803373ffffffffffffffffffffffffffffffffffffffff1673ffffffffffffffffffffffffffffffffffffffff168152602001908152602001600020600801604051611ade9190614825565b604051809103902014611b26576040517f08c379a0000000000000000000000000000000000000000000000000000000008152600401611b1d906148f4565b60405180910390fd5b60018060003373ffffffffffffffffffffffffffffffffffffffff1673ffffffffffffffffffffffffffffffffffffffff16815260200190815260200160002060006101000a81548160ff02191690831515021790555081600260003373ffffffffffffffffffffffffffffffffffffffff1673ffffffffffffffffffffffffffffffffffffffff1681526020019081526020016000209081611bc99190614ac0565b505050565b600a6020528060005260406000206000915054906101000a900460ff1681565b601860009054906101000a900473ffffffffffffffffffffffffffffffffffffffff1673ffffffffffffffffffffffffffffffffffffffff163373ffffffffffffffffffffffffffffffffffffffff1614611c7e576040517f08c379a0000000000000000000000000000000000000000000000000000000008152600401611c7590614664565b60405180910390fd5b818111611cc0576040517f08c379a0000000000000000000000000000000000000000000000000000000008152600401611cb790614bde565b60405180910390fd5b601c60009054906101000a900460ff1615611d10576040517f08c379a0000000000000000000000000000000000000000000000000000000008152600401611d0790614c70565b60405180910390fd5b60008282611d1e9190614cbf565b9050601d839080600181540180825580915050600190039060005260206000200160009091909190915055601d829080600181540180825580915050600190039060005260206000200160009091909190915055601d8190806001815401808255809150506001900390600052602060002001600090919091909150556001601c60006101000a81548160ff021916908315150217905550600183611dc39190614cf3565b42611dce9190614d35565b601981905550600182611de19190614cf3565b42611dec9190614d35565b601a8190555080601b819055506001601c60006101000a81548160ff021916908315150217905550505050565b60006020528060005260406000206000915090508060000160009054906101000a900473ffffffffffffffffffffffffffffffffffffffff1690806001018054611e62906145c1565b80601f0160208091040260200160405190810160405280929190818152602001828054611e8e906145c1565b8015611edb5780601f10611eb057610100808354040283529160200191611edb565b820191906000526020600020905b815481529060010190602001808311611ebe57829003601f168201915b505050505090806002018054611ef0906145c1565b80601f0160208091040260200160405190810160405280929190818152602001828054611f1c906145c1565b8015611f695780601f10611f3e57610100808354040283529160200191611f69565b820191906000526020600020905b815481529060010190602001808311611f4c57829003601f168201915b505050505090806003018054611f7e906145c1565b80601f0160208091040260200160405190810160405280929190818152602001828054611faa906145c1565b8015611ff75780601f10611fcc57610100808354040283529160200191611ff7565b820191906000526020600020905b815481529060010190602001808311611fda57829003601f168201915b50505050509080600401805461200c906145c1565b80601f0160208091040260200160405190810160405280929190818152602001828054612038906145c1565b80156120855780601f1061205a57610100808354040283529160200191612085565b820191906000526020600020905b81548152906001019060200180831161206857829003601f168201915b5050505050908060050154908060060180546120a0906145c1565b80601f01602080910402602001604051908101604052809291908181526020018280546120cc906145c1565b80156121195780601f106120ee57610100808354040283529160200191612119565b820191906000526020600020905b8154815290600101906020018083116120fc57829003601f168201915b50505050509080600701805461212e906145c1565b80601f016020809104026020016040519081016040528092919081815260200182805461215a906145c1565b80156121a75780601f1061217c576101008083540402835291602001916121a7565b820191906000526020600020905b81548152906001019060200180831161218a57829003601f168201915b5050505050908060080180546121bc906145c1565b80601f01602080910402602001604051908101604052809291908181526020018280546121e8906145c1565b80156122355780601f1061220a57610100808354040283529160200191612235565b820191906000526020600020905b81548152906001019060200180831161221857829003601f168201915b50505050509080600901805461224a906145c1565b80601f0160208091040260200160405190810160405280929190818152602001828054612276906145c1565b80156122c35780601f10612298576101008083540402835291602001916122c3565b820191906000526020600020905b8154815290600101906020018083116122a657829003601f168201915b50505050509080600a0160009054906101000a900460ff169080600a0160019054906101000a900460ff1690508c565b6000898051906020012050602060ff1611612343576040517f08c379a000000000000000000000000000000000000000000000000000000000815260040161233a90614ddb565b60405180910390fd5b6000888051906020012050602060ff1611612393576040517f08c379a000000000000000000000000000000000000000000000000000000000815260040161238a90614e6d565b60405180910390fd5b6000878051906020012050602060ff16116123e3576040517f08c379a00000000000000000000000000000000000000000000000000000000081526004016123da90614eff565b60405180910390fd5b6000868051906020012050602060ff1611612433576040517f08c379a000000000000000000000000000000000000000000000000000000000815260040161242a90614f91565b60405180910390fd5b6000838051906020012050602060ff1611612483576040517f08c379a000000000000000000000000000000000000000000000000000000000815260040161247a90615023565b60405180910390fd5b6000848051906020012050602060ff16116124d3576040517f08c379a00000000000000000000000000000000000000000000000000000000081526004016124ca9061508f565b60405180910390fd5b6000828051906020012050602060ff1611612523576040517f08c379a000000000000000000000000000000000000000000000000000000000815260040161251a90615121565b60405180910390fd5b6000818051906020012050602060ff1611612573576040517f08c379a000000000000000000000000000000000000000000000000000000000815260040161256a9061518d565b60405180910390fd5b6040518060400160405280600481526020017f544942410000000000000000000000000000000000000000000000000000000081525080519060200120878051906020012003612611576000851180156125cd5750600585105b61260c576040517f08c379a0000000000000000000000000000000000000000000000000000000008152600401612603906151f9565b60405180910390fd5b612661565b6000851180156126215750600485105b612660576040517f08c379a0000000000000000000000000000000000000000000000000000000008152600401612657906151f9565b60405180910390fd5b5b6000803373ffffffffffffffffffffffffffffffffffffffff1673ffffffffffffffffffffffffffffffffffffffff168152602001908152602001600020600a0160009054906101000a900460ff16156126f0576040517f08c379a00000000000000000000000000000000000000000000000000000000081526004016126e790615265565b60405180910390fd5b60006040518061018001604052803373ffffffffffffffffffffffffffffffffffffffff1681526020018b81526020018a8152602001898152602001888152602001878152602001868152602001858152602001848152602001838152602001600115158152602001600015158152509050806000803373ffffffffffffffffffffffffffffffffffffffff1673ffffffffffffffffffffffffffffffffffffffff16815260200190815260200160002060008201518160000160006101000a81548173ffffffffffffffffffffffffffffffffffffffff021916908373ffffffffffffffffffffffffffffffffffffffff16021790555060208201518160010190816127fd9190614ac0565b5060408201518160020190816128139190614ac0565b5060608201518160030190816128299190614ac0565b50608082015181600401908161283f9190614ac0565b5060a0820151816005015560c082015181600601908161285f9190614ac0565b5060e08201518160070190816128759190614ac0565b5061010082015181600801908161288c9190614ac0565b506101208201518160090190816128a39190614ac0565b5061014082015181600a0160006101000a81548160ff02191690831515021790555061016082015181600a0160016101000a81548160ff0219169083151502179055509050506003339080600181540180825580915050600190039060005260206000200160009091909190916101000a81548173ffffffffffffffffffffffffffffffffffffffff021916908373ffffffffffffffffffffffffffffffffffffffff16021790555050505050505050505050565b6060600060038054905067ffffffffffffffff81111561297b5761297a613ae3565b5b6040519080825280602002602001820160405280156129b457816020015b6129a161382d565b8152602001906001900390816129995790505b50905060006003805480602002602001604051908101604052809291908181526020018280548015612a3b57602002820191906000526020600020905b8160009054906101000a900473ffffffffffffffffffffffffffffffffffffffff1673ffffffffffffffffffffffffffffffffffffffff16815260200190600101908083116129f1575b5050505050905060005b815181101561302d5760008060038381548110612a6557612a64615285565b5b9060005260206000200160009054906101000a900473ffffffffffffffffffffffffffffffffffffffff1673ffffffffffffffffffffffffffffffffffffffff1673ffffffffffffffffffffffffffffffffffffffff168152602001908152602001600020604051806101800160405290816000820160009054906101000a900473ffffffffffffffffffffffffffffffffffffffff1673ffffffffffffffffffffffffffffffffffffffff1673ffffffffffffffffffffffffffffffffffffffff168152602001600182018054612b3c906145c1565b80601f0160208091040260200160405190810160405280929190818152602001828054612b68906145c1565b8015612bb55780601f10612b8a57610100808354040283529160200191612bb5565b820191906000526020600020905b815481529060010190602001808311612b9857829003601f168201915b50505050508152602001600282018054612bce906145c1565b80601f0160208091040260200160405190810160405280929190818152602001828054612bfa906145c1565b8015612c475780601f10612c1c57610100808354040283529160200191612c47565b820191906000526020600020905b815481529060010190602001808311612c2a57829003601f168201915b50505050508152602001600382018054612c60906145c1565b80601f0160208091040260200160405190810160405280929190818152602001828054612c8c906145c1565b8015612cd95780601f10612cae57610100808354040283529160200191612cd9565b820191906000526020600020905b815481529060010190602001808311612cbc57829003601f168201915b50505050508152602001600482018054612cf2906145c1565b80601f0160208091040260200160405190810160405280929190818152602001828054612d1e906145c1565b8015612d6b5780601f10612d4057610100808354040283529160200191612d6b565b820191906000526020600020905b815481529060010190602001808311612d4e57829003601f168201915b5050505050815260200160058201548152602001600682018054612d8e906145c1565b80601f0160208091040260200160405190810160405280929190818152602001828054612dba906145c1565b8015612e075780601f10612ddc57610100808354040283529160200191612e07565b820191906000526020600020905b815481529060010190602001808311612dea57829003601f168201915b50505050508152602001600782018054612e20906145c1565b80601f0160208091040260200160405190810160405280929190818152602001828054612e4c906145c1565b8015612e995780601f10612e6e57610100808354040283529160200191612e99565b820191906000526020600020905b815481529060010190602001808311612e7c57829003601f168201915b50505050508152602001600882018054612eb2906145c1565b80601f0160208091040260200160405190810160405280929190818152602001828054612ede906145c1565b8015612f2b5780601f10612f0057610100808354040283529160200191612f2b565b820191906000526020600020905b815481529060010190602001808311612f0e57829003601f168201915b50505050508152602001600982018054612f44906145c1565b80601f0160208091040260200160405190810160405280929190818152602001828054612f70906145c1565b8015612fbd5780601f10612f9257610100808354040283529160200191612fbd565b820191906000526020600020905b815481529060010190602001808311612fa057829003601f168201915b50505050508152602001600a820160009054906101000a900460ff16151515158152602001600a820160019054906101000a900460ff16151515158152505083828151811061300f5761300e615285565b5b60200260200101819052508080613025906152b4565b915050612a45565b50819250505090565b60016020528060005260406000206000915054906101000a900460ff1681565b6005818051602081018201805184825260208301602085012081835280955050505050506000915054906101000a900460ff1681565b6000803373ffffffffffffffffffffffffffffffffffffffff1673ffffffffffffffffffffffffffffffffffffffff168152602001908152602001600020600a0160009054906101000a900460ff1661311a576040517f08c379a000000000000000000000000000000000000000000000000000000000815260040161311190615348565b60405180910390fd5b600960003373ffffffffffffffffffffffffffffffffffffffff1673ffffffffffffffffffffffffffffffffffffffff16815260200190815260200160002060009054906101000a900460ff16156131a7576040517f08c379a000000000000000000000000000000000000000000000000000000000815260040161319e906153da565b60405180910390fd5b60006006826040516131b99190615436565b908152602001604051809103902090508060090160008154809291906131de906152b4565b91905055506001600960003373ffffffffffffffffffffffffffffffffffffffff1673ffffffffffffffffffffffffffffffffffffffff16815260200190815260200160002060006101000a81548160ff0219169083151502179055506004600081548092919061324e906152b4565b91905055505050565b600f5481565b600c818154811061326d57600080fd5b906000526020600020016000915090508054613288906145c1565b80601f01602080910402602001604051908101604052809291908181526020018280546132b4906145c1565b80156133015780601f106132d657610100808354040283529160200191613301565b820191906000526020600020905b8154815290600101906020018083116132e457829003601f168201915b505050505081565b6010816007811061331957600080fd5b016000915090505481565b600060195442101561336b576040517f08c379a0000000000000000000000000000000000000000000000000000000008152600401613362906154bf565b60405180910390fd5b601a5442101561338a5742601a546133839190614cbf565b905061338f565b600090505b90565b6007818051602081018201805184825260208301602085012081835280955050505050506000915090508060000180546133cb906145c1565b80601f01602080910402602001604051908101604052809291908181526020018280546133f7906145c1565b80156134445780601f1061341957610100808354040283529160200191613444565b820191906000526020600020905b81548152906001019060200180831161342757829003601f168201915b505050505090806001018054613459906145c1565b80601f0160208091040260200160405190810160405280929190818152602001828054613485906145c1565b80156134d25780601f106134a7576101008083540402835291602001916134d2565b820191906000526020600020905b8154815290600101906020018083116134b557829003601f168201915b5050505050908060020180546134e7906145c1565b80601f0160208091040260200160405190810160405280929190818152602001828054613513906145c1565b80156135605780601f1061353557610100808354040283529160200191613560565b820191906000526020600020905b81548152906001019060200180831161354357829003601f168201915b505050505090806003018054613575906145c1565b80601f01602080910402602001604051908101604052809291908181526020018280546135a1906145c1565b80156135ee5780601f106135c3576101008083540402835291602001916135ee565b820191906000526020600020905b8154815290600101906020018083116135d157829003601f168201915b505050505090806004015490806005018054613609906145c1565b80601f0160208091040260200160405190810160405280929190818152602001828054613635906145c1565b80156136825780601f1061365757610100808354040283529160200191613682565b820191906000526020600020905b81548152906001019060200180831161366557829003601f168201915b505050505090806006018054613697906145c1565b80601f01602080910402602001604051908101604052809291908181526020018280546136c3906145c1565b80156137105780601f106136e557610100808354040283529160200191613710565b820191906000526020600020905b8154815290600101906020018083116136f357829003601f168201915b505050505090806007018054613725906145c1565b80601f0160208091040260200160405190810160405280929190818152602001828054613751906145c1565b801561379e5780601f106137735761010080835404028352916020019161379e565b820191906000526020600020905b81548152906001019060200180831161378157829003601f168201915b5050505050908060080160009054906101000a900460ff1690806009015490508a565b60175481565b601860009054906101000a900473ffffffffffffffffffffffffffffffffffffffff1681565b5080546137f9906145c1565b6000825580601f1061380b575061382a565b601f01602090049060005260206000209081019061382991906138a8565b5b50565b604051806101800160405280600073ffffffffffffffffffffffffffffffffffffffff1681526020016060815260200160608152602001606081526020016060815260200160008152602001606081526020016060815260200160608152602001606081526020016000151581526020016000151581525090565b5b808211156138c15760008160009055506001016138a9565b5090565b6000604051905090565b600080fd5b600080fd5b6000819050919050565b6138ec816138d9565b81146138f757600080fd5b50565b600081359050613909816138e3565b92915050565b600060208284031215613925576139246138cf565b5b6000613933848285016138fa565b91505092915050565b600081519050919050565b600082825260208201905092915050565b60005b8381101561397657808201518184015260208101905061395b565b60008484015250505050565b6000601f19601f8301169050919050565b600061399e8261393c565b6139a88185613947565b93506139b8818560208601613958565b6139c181613982565b840191505092915050565b600060208201905081810360008301526139e68184613993565b905092915050565b600073ffffffffffffffffffffffffffffffffffffffff82169050919050565b6000613a19826139ee565b9050919050565b613a2981613a0e565b8114613a3457600080fd5b50565b600081359050613a4681613a20565b92915050565b600060208284031215613a6257613a616138cf565b5b6000613a7084828501613a37565b91505092915050565b60008115159050919050565b613a8e81613a79565b82525050565b6000602082019050613aa96000830184613a85565b92915050565b613ab8816138d9565b82525050565b6000602082019050613ad36000830184613aaf565b92915050565b600080fd5b600080fd5b7f4e487b7100000000000000000000000000000000000000000000000000000000600052604160045260246000fd5b613b1b82613982565b810181811067ffffffffffffffff82111715613b3a57613b39613ae3565b5b80604052505050565b6000613b4d6138c5565b9050613b598282613b12565b919050565b600067ffffffffffffffff821115613b7957613b78613ae3565b5b613b8282613982565b9050602081019050919050565b82818337600083830152505050565b6000613bb1613bac84613b5e565b613b43565b905082815260208101848484011115613bcd57613bcc613ade565b5b613bd8848285613b8f565b509392505050565b600082601f830112613bf557613bf4613ad9565b5b8135613c05848260208601613b9e565b91505092915050565b600060208284031215613c2457613c236138cf565b5b600082013567ffffffffffffffff811115613c4257613c416138d4565b5b613c4e84828501613be0565b91505092915050565b6000610140820190508181036000830152613c72818d613993565b90508181036020830152613c86818c613993565b90508181036040830152613c9a818b613993565b90508181036060830152613cae818a613993565b9050613cbd6080830189613aaf565b81810360a0830152613ccf8188613993565b905081810360c0830152613ce38187613993565b905081810360e0830152613cf78186613993565b9050613d07610100830185613a85565b613d15610120830184613aaf565b9b9a5050505050505050505050565b613d2d81613a0e565b82525050565b600061012082019050613d49600083018c613d24565b8181036020830152613d5b818b613993565b90508181036040830152613d6f818a613993565b90508181036060830152613d838189613993565b90508181036080830152613d978188613993565b905081810360a0830152613dab8187613993565b9050613dba60c0830186613aaf565b81810360e0830152613dcc8185613993565b9050818103610100830152613de18184613993565b90509a9950505050505050505050565b600081519050919050565b600082825260208201905092915050565b6000819050602082019050919050565b613e26816138d9565b82525050565b6000613e388383613e1d565b60208301905092915050565b6000602082019050919050565b6000613e5c82613df1565b613e668185613dfc565b9350613e7183613e0d565b8060005b83811015613ea2578151613e898882613e2c565b9750613e9483613e44565b925050600181019050613e75565b5085935050505092915050565b60006020820190508181036000830152613ec98184613e51565b905092915050565b6000602082019050613ee66000830184613d24565b92915050565b600081519050919050565b600082825260208201905092915050565b6000819050602082019050919050565b613f2181613a0e565b82525050565b6000613f338383613f18565b60208301905092915050565b6000602082019050919050565b6000613f5782613eec565b613f618185613ef7565b9350613f6c83613f08565b8060005b83811015613f9d578151613f848882613f27565b9750613f8f83613f3f565b925050600181019050613f70565b5085935050505092915050565b60006020820190508181036000830152613fc48184613f4c565b905092915050565b60008060408385031215613fe357613fe26138cf565b5b600083013567ffffffffffffffff811115614001576140006138d4565b5b61400d85828601613be0565b925050602083013567ffffffffffffffff81111561402e5761402d6138d4565b5b61403a85828601613be0565b9150509250929050565b6000806040838503121561405b5761405a6138cf565b5b6000614069858286016138fa565b925050602061407a858286016138fa565b9150509250929050565b60006101808201905061409a600083018f613d24565b81810360208301526140ac818e613993565b905081810360408301526140c0818d613993565b905081810360608301526140d4818c613993565b905081810360808301526140e8818b613993565b90506140f760a083018a613aaf565b81810360c08301526141098189613993565b905081810360e083015261411d8188613993565b90508181036101008301526141328187613993565b90508181036101208301526141478186613993565b9050614157610140830185613a85565b614165610160830184613a85565b9d9c50505050505050505050505050565b60008060008060008060008060006101208a8c031215614199576141986138cf565b5b60008a013567ffffffffffffffff8111156141b7576141b66138d4565b5b6141c38c828d01613be0565b99505060208a013567ffffffffffffffff8111156141e4576141e36138d4565b5b6141f08c828d01613be0565b98505060408a013567ffffffffffffffff811115614211576142106138d4565b5b61421d8c828d01613be0565b97505060608a013567ffffffffffffffff81111561423e5761423d6138d4565b5b61424a8c828d01613be0565b965050608061425b8c828d016138fa565b95505060a08a013567ffffffffffffffff81111561427c5761427b6138d4565b5b6142888c828d01613be0565b94505060c08a013567ffffffffffffffff8111156142a9576142a86138d4565b5b6142b58c828d01613be0565b93505060e08a013567ffffffffffffffff8111156142d6576142d56138d4565b5b6142e28c828d01613be0565b9250506101008a013567ffffffffffffffff811115614304576143036138d4565b5b6143108c828d01613be0565b9150509295985092959850929598565b600081519050919050565b600082825260208201905092915050565b6000819050602082019050919050565b600082825260208201905092915050565b60006143688261393c565b614372818561434c565b9350614382818560208601613958565b61438b81613982565b840191505092915050565b61439f81613a79565b82525050565b6000610180830160008301516143be6000860182613f18565b50602083015184820360208601526143d6828261435d565b915050604083015184820360408601526143f0828261435d565b9150506060830151848203606086015261440a828261435d565b91505060808301518482036080860152614424828261435d565b91505060a083015161443960a0860182613e1d565b5060c083015184820360c0860152614451828261435d565b91505060e083015184820360e086015261446b828261435d565b915050610100830151848203610100860152614487828261435d565b9150506101208301518482036101208601526144a3828261435d565b9150506101408301516144ba610140860182614396565b506101608301516144cf610160860182614396565b508091505092915050565b60006144e683836143a5565b905092915050565b6000602082019050919050565b600061450682614320565b614510818561432b565b9350836020820285016145228561433c565b8060005b8581101561455e578484038952815161453f85826144da565b945061454a836144ee565b925060208a01995050600181019050614526565b50829750879550505050505092915050565b6000602082019050818103600083015261458a81846144fb565b905092915050565b7f4e487b7100000000000000000000000000000000000000000000000000000000600052602260045260246000fd5b600060028204905060018216806145d957607f821691505b6020821081036145ec576145eb614592565b5b50919050565b7f4f6e6c792061646d696e2063616e20706572666f726d2074686973206163746960008201527f6f6e000000000000000000000000000000000000000000000000000000000000602082015250565b600061464e602283613947565b9150614659826145f2565b604082019050919050565b6000602082019050818103600083015261467d81614641565b9050919050565b7f596f7572206163636f756e74206973206e6f7420726567697374657265642100600082015250565b60006146ba601f83613947565b91506146c582614684565b602082019050919050565b600060208201905081810360008301526146e9816146ad565b9050919050565b7f557365726e616d6520616e642070617373776f72642063616e6e6f742062652060008201527f656d707479000000000000000000000000000000000000000000000000000000602082015250565b600061474c602583613947565b9150614757826146f0565b604082019050919050565b6000602082019050818103600083015261477b8161473f565b9050919050565b600081905092915050565b60008190508160005260206000209050919050565b600081546147af816145c1565b6147b98186614782565b945060018216600081146147d457600181146147e95761481c565b60ff198316865281151582028601935061481c565b6147f28561478d565b60005b83811015614814578154818901526001820191506020810190506147f5565b838801955050505b50505092915050565b600061483182846147a2565b915081905092915050565b7f496e76616c696420726567697374726174696f6e206e756d6265720000000000600082015250565b6000614872601b83613947565b915061487d8261483c565b602082019050919050565b600060208201905081810360008301526148a181614865565b9050919050565b7f496e76616c69642070617373776f726400000000000000000000000000000000600082015250565b60006148de601083613947565b91506148e9826148a8565b602082019050919050565b6000602082019050818103600083015261490d816148d1565b9050919050565b60008190508160005260206000209050919050565b60006020601f8301049050919050565b600082821b905092915050565b6000600883026149767fffffffffffffffffffffffffffffffffffffffffffffffffffffffffffffffff82614939565b6149808683614939565b95508019841693508086168417925050509392505050565b6000819050919050565b60006149bd6149b86149b3846138d9565b614998565b6138d9565b9050919050565b6000819050919050565b6149d7836149a2565b6149eb6149e3826149c4565b848454614946565b825550505050565b600090565b614a006149f3565b614a0b8184846149ce565b505050565b5b81811015614a2f57614a246000826149f8565b600181019050614a11565b5050565b601f821115614a7457614a4581614914565b614a4e84614929565b81016020851015614a5d578190505b614a71614a6985614929565b830182614a10565b50505b505050565b600082821c905092915050565b6000614a9760001984600802614a79565b1980831691505092915050565b6000614ab08383614a86565b9150826002028217905092915050565b614ac98261393c565b67ffffffffffffffff811115614ae257614ae1613ae3565b5b614aec82546145c1565b614af7828285614a33565b600060209050601f831160018114614b2a5760008415614b18578287015190505b614b228582614aa4565b865550614b8a565b601f198416614b3886614914565b60005b82811015614b6057848901518255600182019150602085019450602081019050614b3b565b86831015614b7d5784890151614b79601f891682614a86565b8355505b6001600288020188555050505b505050505050565b7f496e76616c696420766f74696e6720706572696f640000000000000000000000600082015250565b6000614bc8601583613947565b9150614bd382614b92565b602082019050919050565b60006020820190508181036000830152614bf781614bbb565b9050919050565b7f54686520766f74696e672074696d6520697320616c726561647920696e69746960008201527f6174656400000000000000000000000000000000000000000000000000000000602082015250565b6000614c5a602483613947565b9150614c6582614bfe565b604082019050919050565b60006020820190508181036000830152614c8981614c4d565b9050919050565b7f4e487b7100000000000000000000000000000000000000000000000000000000600052601160045260246000fd5b6000614cca826138d9565b9150614cd5836138d9565b9250828203905081811115614ced57614cec614c90565b5b92915050565b6000614cfe826138d9565b9150614d09836138d9565b9250828202614d17816138d9565b91508282048414831517614d2e57614d2d614c90565b5b5092915050565b6000614d40826138d9565b9150614d4b836138d9565b9250828201905080821115614d6357614d62614c90565b5b92915050565b7f566f74657246697273744e616d65206669656c642073686f7564206e6f74206260008201527f6520656d70747900000000000000000000000000000000000000000000000000602082015250565b6000614dc5602783613947565b9150614dd082614d69565b604082019050919050565b60006020820190508181036000830152614df481614db8565b9050919050565b7f566f7465724c6173744e616d65206669656c642073686f7564206e6f7420626560008201527f20656d7074790000000000000000000000000000000000000000000000000000602082015250565b6000614e57602683613947565b9150614e6282614dfb565b604082019050919050565b60006020820190508181036000830152614e8681614e4a565b9050919050565b7f436f6c6c6167654e616d65206669656c642073686f7564206e6f74206265206560008201527f6d70747900000000000000000000000000000000000000000000000000000000602082015250565b6000614ee9602483613947565b9150614ef482614e8d565b604082019050919050565b60006020820190508181036000830152614f1881614edc565b9050919050565b7f50726f6772616d4e616d65206669656c642073686f7564206e6f74206265206560008201527f6d70747900000000000000000000000000000000000000000000000000000000602082015250565b6000614f7b602483613947565b9150614f8682614f1f565b604082019050919050565b60006020820190508181036000830152614faa81614f6e565b9050919050565b7f426c6f636b4e756d626572206669656c642073686f7564206e6f74206265206560008201527f6d70747900000000000000000000000000000000000000000000000000000000602082015250565b600061500d602483613947565b915061501882614fb1565b604082019050919050565b6000602082019050818103600083015261503c81615000565b9050919050565b7f5265674e6f206669656c642073686f7564206e6f7420626520656d7074790000600082015250565b6000615079601e83613947565b915061508482615043565b602082019050919050565b600060208201905081810360008301526150a88161506c565b9050919050565b7f50617373776f7264206669656c642073686f7564206e6f7420626520656d707460008201527f7900000000000000000000000000000000000000000000000000000000000000602082015250565b600061510b602183613947565b9150615116826150af565b604082019050919050565b6000602082019050818103600083015261513a816150fe565b9050919050565b7f47656e646572206669656c642073686f7564206e6f7420626520656d70747900600082015250565b6000615177601f83613947565b915061518282615141565b602082019050919050565b600060208201905081810360008301526151a68161516a565b9050919050565b7f496e76616c69642079656172206f662053747564790000000000000000000000600082015250565b60006151e3601583613947565b91506151ee826151ad565b602082019050919050565b60006020820190508181036000830152615212816151d6565b9050919050565b7f566f74657220697320616c726561647920726567697374657265640000000000600082015250565b600061524f601b83613947565b915061525a82615219565b602082019050919050565b6000602082019050818103600083015261527e81615242565b9050919050565b7f4e487b7100000000000000000000000000000000000000000000000000000000600052603260045260246000fd5b60006152bf826138d9565b91507fffffffffffffffffffffffffffffffffffffffffffffffffffffffffffffffff82036152f1576152f0614c90565b5b600182019050919050565b7f566f746572206973206e6f742072656769737465726564000000000000000000600082015250565b6000615332601783613947565b915061533d826152fc565b602082019050919050565b6000602082019050818103600083015261536181615325565b9050919050565b7f416c726561647920766f74656420666f7220507265736964656e7420706f736960008201527f74696f6e00000000000000000000000000000000000000000000000000000000602082015250565b60006153c4602483613947565b91506153cf82615368565b604082019050919050565b600060208201905081810360008301526153f3816153b7565b9050919050565b600081905092915050565b60006154108261393c565b61541a81856153fa565b935061542a818560208601613958565b80840191505092915050565b60006154428284615405565b915081905092915050565b7f766f74696e6720686173206e6f742073746172746564207965742121212c205060008201527f6c65617365207761697400000000000000000000000000000000000000000000602082015250565b60006154a9602a83613947565b91506154b48261544d565b604082019050919050565b600060208201905081810360008301526154d88161549c565b905091905056fea264697066735822122059f4914070c7ae9f1500bac33c3d3098632dddc68ecac5fd4312aa37409c7a2464736f6c63430008130033",
  "immutableReferences": {},
  "source": "// SPDX-License-Identifier: MIT\npragma solidity ^0.8.0;\nimport \"./AccessControl.sol\";\nimport \"./VoterStructure.sol\";\nimport \"./CandidateStructure.sol\";\nimport \"./TimeControl.sol\";\n\ncontract VoterRegistry is VoterStructure, CandidateStructure, TimeControl {\n    \n    // event NewVoterRegistered( string firstName, string lastName, string collegeName, string programName, uint256 yearOfStudy, string regNo, string blockNumber, string gender);\n\n    function registerVoter( string memory _firstName, string memory _lastName, string memory _collegeName, string memory _programName, uint256 _yearOfStudy, \n    string memory _regNo,string memory _blockNumber, string memory _password, string memory _gender) public\n    {\n        require(keccak256(bytes(_firstName)).length > 0, \"VoterFirstName field shoud not be empty\");\n        require(keccak256(bytes(_lastName)).length > 0, \"VoterLastName field shoud not be empty\");\n        require(keccak256(bytes(_collegeName)).length > 0, \"CollageName field shoud not be empty\");\n        require(keccak256(bytes(_programName)).length > 0 , \"ProgramName field shoud not be empty\");\n        require(keccak256(bytes(_blockNumber)).length > 0 , \"BlockNumber field shoud not be empty\");\n        require(keccak256(bytes(_regNo)).length > 0 , \"RegNo field shoud not be empty\");\n        require(keccak256(bytes(_password)).length > 0 , \"Password field shoud not be empty\");\n        require(keccak256(bytes(_gender)).length > 0 , \"Gender field shoud not be empty\");\n\n        if(keccak256(bytes(_collegeName)) == keccak256(bytes(\"TIBA\"))){\n            require(_yearOfStudy > 0 && _yearOfStudy < 5, \"Invalid year of Study\");\n        }else{\n            require(_yearOfStudy > 0 && _yearOfStudy < 4, \"Invalid year of Study\");\n        } \n        require(!voters[msg.sender].isRegistered, \"Voter is already registered\");\n        Voter memory newVoter = Voter({\n            voterAddress: msg.sender,\n            firstName: _firstName,\n            lastName: _lastName,\n            collegeName: _collegeName, \n            programName: _programName, \n            yearOfStudy: _yearOfStudy, \n            regNo: _regNo, \n            blockNumber: _blockNumber, \n            password: _password, \n            gender: _gender,\n            isRegistered: true, \n            voted: false\n        });\n        voters[msg.sender] = newVoter;\n        voterAddressArray.push(msg.sender);\n        // emit NewVoterRegistered( _firstName, _lastName, _collegeName, _programName, _yearOfStudy, _regNo, _blockNumber, _gender);\n    }\n\n    function getVoterRegNumbers() public view returns (address[] memory){\n        return voterAddressArray;\n    }\n\n    function viewRegisteredVoters() public view returns(Voter[] memory){\n        Voter[] memory result = new Voter[](voterAddressArray.length);\n        address[] memory voterRegNos = voterAddressArray;        \n        for(uint i=0; i<voterRegNos.length; i++){\n            result[i] = voters[voterAddressArray[i]];     \n        }\n        return result;\n    }\n        \n    // function viewVoter(address vtAddress) public view returns(address voterAddress, string memory firstName, string memory lastName,\n    // string memory collegeName, string memory programName,string memory regNo, uint256 yearOfStudy, string memory blockNumber, string memory gender){\n    //     Voter memory voter = voters[vtAddress];\n    //     voterAddress = voter.voterAddress;\n    //     firstName = voter.firstName;\n    //     lastName = voter.lastName;\n    //     collegeName = voter.collegeName;\n    //     programName = voter.programName;\n    //     yearOfStudy = voter.yearOfStudy;\n    //     regNo = voter.regNo;\n    //     blockNumber = voter.blockNumber;\n    //     // password = voter.password;\n    //     gender = voter.gender;\n    // }\n    function viewVoter(address vtAddress) public view returns (\n    address voterAddress,\n    string memory firstName,\n    string memory lastName,\n    string memory collegeName,\n    string memory programName,\n    string memory regNo,\n    uint256 yearOfStudy,\n    string memory blockNumber,\n    string memory gender\n) {\n    // require(voters[vtAddress].exists, \"Voter does not exist\");\n    \n    Voter storage voter = voters[vtAddress];\n    \n    return (\n        voter.voterAddress,\n        voter.firstName,\n        voter.lastName,\n        voter.collegeName,\n        voter.programName,\n        voter.regNo,\n        voter.yearOfStudy,\n        voter.blockNumber,\n        voter.gender\n    );\n}\n\n\n    // voter can view candidate of the corresponding area of vote\n\n    // function voterViewGovernors(address addressVoter) public view returns(Candidate[] memory){\n\n    //     Voter memory newVoter = voters[addressVoter];\n    //     string memory voterCollege = newVoter.collegeName;\n\n    //     Candidate[] memory result = new Candidate[](governorList.length);\n    //     string[] memory governorLst = governorList;        \n    //     for(uint i = 0; i < governorLst.length; i++){\n    //         if(keccak256(bytes(candidateGovernor[governorLst[i]].collegeName)) == keccak256(bytes(voterCollege))){\n    //             result[i] = candidateGovernor[governorLst[i]];  \n    //         }            \n    //     }\n    //     return result;\n    // }\n\n    // function voterViewBlockLeader(address addressVoter) public view returns(Candidate[] memory){\n\n    //     Voter memory newVoter = voters[addressVoter];\n    //     string memory voterCollegeName = newVoter.collegeName;\n    //     string memory voterBlockNumber = newVoter.blockNumber;\n\n    //     Candidate[] memory result = new Candidate[](blockLeaderList.length);        \n    //     for(uint i = 0; i < blockLeaderList.length; i++){\n    //         if(keccak256(bytes(candidateBlockLeader[blockLeaderList[i]].collegeName)) == keccak256(bytes(voterCollegeName)) && keccak256(bytes(candidateBlockLeader[blockLeaderList[i]].blockNumber)) == keccak256(bytes(voterBlockNumber))){\n    //             result[i] = candidateGovernor[blockLeaderList[i]];  \n    //         }            \n    //     }\n    //     return result;\n    // }\n    function castVotePresident( string memory _presidentRegNo) public {\n        require(voters[msg.sender].isRegistered, \"Voter is not registered\");\n        // require(!voters[msg.sender].voted, \"You have already voted for President!!!\");\n        require(!presidentVoted[msg.sender], \"Already voted for President position\");\n        Candidate storage candidate = candidatePresident[_presidentRegNo];\n        candidate.voteCount++;\n        presidentVoted[msg.sender] = true;\n\n        totalVotes++;\n\n        // emit VoteCast(candidate.voteCount, candidate.regNo);\n    }\n\n    // function deleteVoter(address _voterAddress) public {\n    //     delete voters[_voterAddress];\n    //     for (uint256 i = 0; i < voterAddressArray.length; i++) {\n    //         if (voterAddressArray[i] == _voterAddress) {\n    //             for (uint256 j = i; j < voterAddressArray.length - 1; j++) {\n    //                 voterAddressArray[j] = voterAddressArray[j + 1];\n    //             }\n    //             voterAddressArray.pop();\n    //             break;\n    //         }\n    //     }\n    // }\n    \n    function voterLogin(string memory _regNo, string memory _password) public {\n        require(voters[msg.sender].isRegistered, \"Your account is not registered!\");\n        require(keccak256(bytes(_regNo)).length > 0 && keccak256(bytes(_password)).length > 0, \"Username and password cannot be empty\");\n        require(keccak256(bytes(voters[msg.sender].regNo)) == keccak256(bytes(_regNo)), \"Invalid registration number\");\n        require(keccak256(bytes(voters[msg.sender].password)) == keccak256(bytes(_password)), \"Invalid password\");\n        hasLogedin[msg.sender] = true;\n        voterSession[msg.sender] = _regNo;\n\n    }\n\n    function logout() public {\n        hasLogedin[msg.sender] = false;\n        delete voterSession[msg.sender];\n    }\n}\n",
  "sourcePath": "/home/temba/Documents/client/contracts/VoterRegistry.sol",
  "compiler": {
    "name": "solc",
    "version": "0.8.19+commit.7dd6d404.Emscripten.clang"
  },
  "schemaVersion": "3.4.14",
  "updatedAt": "2023-06-22T07:58:32.759Z",
  "devdoc": {
    "kind": "dev",
    "methods": {},
    "version": 1
  },
  "userdoc": {
    "kind": "user",
    "methods": {},
    "version": 1
  }
}