{
  "contractName": "VoterContract",
  "abi": [
    {
      "inputs": [],
      "name": "admin",
      "outputs": [
        {
          "internalType": "address",
          "name": "",
          "type": "address"
        }
      ],
      "stateMutability": "view",
      "type": "function",
      "constant": true
    },
    {
      "inputs": [],
      "name": "getPublished",
      "outputs": [
        {
          "internalType": "bool",
          "name": "",
          "type": "bool"
        }
      ],
      "stateMutability": "view",
      "type": "function",
      "constant": true
    },
    {
      "inputs": [
        {
          "internalType": "address",
          "name": "",
          "type": "address"
        }
      ],
      "name": "hasLogedin",
      "outputs": [
        {
          "internalType": "bool",
          "name": "",
          "type": "bool"
        }
      ],
      "stateMutability": "view",
      "type": "function",
      "constant": true
    },
    {
      "inputs": [],
      "name": "setPublished",
      "outputs": [],
      "stateMutability": "nonpayable",
      "type": "function"
    },
    {
      "inputs": [
        {
          "internalType": "address",
          "name": "newAdmin",
          "type": "address"
        }
      ],
      "name": "transferAdmin",
      "outputs": [],
      "stateMutability": "nonpayable",
      "type": "function"
    },
    {
      "inputs": [
        {
          "internalType": "uint256",
          "name": "",
          "type": "uint256"
        }
      ],
      "name": "voterAddressArray",
      "outputs": [
        {
          "internalType": "address",
          "name": "",
          "type": "address"
        }
      ],
      "stateMutability": "view",
      "type": "function",
      "constant": true
    },
    {
      "inputs": [
        {
          "internalType": "address",
          "name": "",
          "type": "address"
        }
      ],
      "name": "voterSession",
      "outputs": [
        {
          "internalType": "string",
          "name": "",
          "type": "string"
        }
      ],
      "stateMutability": "view",
      "type": "function",
      "constant": true
    },
    {
      "inputs": [
        {
          "internalType": "address",
          "name": "",
          "type": "address"
        }
      ],
      "name": "voters",
      "outputs": [
        {
          "internalType": "address",
          "name": "voterAddress",
          "type": "address"
        },
        {
          "internalType": "string",
          "name": "firstName",
          "type": "string"
        },
        {
          "internalType": "string",
          "name": "lastName",
          "type": "string"
        },
        {
          "internalType": "string",
          "name": "collegeName",
          "type": "string"
        },
        {
          "internalType": "string",
          "name": "programName",
          "type": "string"
        },
        {
          "internalType": "uint256",
          "name": "yearOfStudy",
          "type": "uint256"
        },
        {
          "internalType": "string",
          "name": "regNo",
          "type": "string"
        },
        {
          "internalType": "string",
          "name": "blockNumber",
          "type": "string"
        },
        {
          "internalType": "string",
          "name": "password",
          "type": "string"
        },
        {
          "internalType": "string",
          "name": "gender",
          "type": "string"
        },
        {
          "internalType": "bool",
          "name": "isRegistered",
          "type": "bool"
        },
        {
          "internalType": "bool",
          "name": "voted",
          "type": "bool"
        }
      ],
      "stateMutability": "view",
      "type": "function",
      "constant": true
    },
    {
      "inputs": [
        {
          "internalType": "address",
          "name": "_voterAddress",
          "type": "address"
        }
      ],
      "name": "getVoter",
      "outputs": [
        {
          "components": [
            {
              "internalType": "address",
              "name": "voterAddress",
              "type": "address"
            },
            {
              "internalType": "string",
              "name": "firstName",
              "type": "string"
            },
            {
              "internalType": "string",
              "name": "lastName",
              "type": "string"
            },
            {
              "internalType": "string",
              "name": "collegeName",
              "type": "string"
            },
            {
              "internalType": "string",
              "name": "programName",
              "type": "string"
            },
            {
              "internalType": "uint256",
              "name": "yearOfStudy",
              "type": "uint256"
            },
            {
              "internalType": "string",
              "name": "regNo",
              "type": "string"
            },
            {
              "internalType": "string",
              "name": "blockNumber",
              "type": "string"
            },
            {
              "internalType": "string",
              "name": "password",
              "type": "string"
            },
            {
              "internalType": "string",
              "name": "gender",
              "type": "string"
            },
            {
              "internalType": "bool",
              "name": "isRegistered",
              "type": "bool"
            },
            {
              "internalType": "bool",
              "name": "voted",
              "type": "bool"
            }
          ],
          "internalType": "struct VoterContract.Voter",
          "name": "",
          "type": "tuple"
        }
      ],
      "stateMutability": "view",
      "type": "function",
      "constant": true
    },
    {
      "inputs": [],
      "name": "getVoterAddressArray",
      "outputs": [
        {
          "internalType": "address[]",
          "name": "",
          "type": "address[]"
        }
      ],
      "stateMutability": "view",
      "type": "function",
      "constant": true
    },
    {
      "inputs": [
        {
          "internalType": "string",
          "name": "_firstName",
          "type": "string"
        },
        {
          "internalType": "string",
          "name": "_lastName",
          "type": "string"
        },
        {
          "internalType": "string",
          "name": "_collegeName",
          "type": "string"
        },
        {
          "internalType": "string",
          "name": "_programName",
          "type": "string"
        },
        {
          "internalType": "uint256",
          "name": "_yearOfStudy",
          "type": "uint256"
        },
        {
          "internalType": "string",
          "name": "_regNo",
          "type": "string"
        },
        {
          "internalType": "string",
          "name": "_blockNumber",
          "type": "string"
        },
        {
          "internalType": "string",
          "name": "_password",
          "type": "string"
        },
        {
          "internalType": "string",
          "name": "_gender",
          "type": "string"
        }
      ],
      "name": "registerVoter",
      "outputs": [],
      "stateMutability": "nonpayable",
      "type": "function"
    },
    {
      "inputs": [],
      "name": "getVoterRegNumbers",
      "outputs": [
        {
          "internalType": "address[]",
          "name": "",
          "type": "address[]"
        }
      ],
      "stateMutability": "view",
      "type": "function",
      "constant": true
    },
    {
      "inputs": [
        {
          "internalType": "address",
          "name": "vtAddress",
          "type": "address"
        }
      ],
      "name": "viewVoter",
      "outputs": [
        {
          "internalType": "address",
          "name": "voterAddress",
          "type": "address"
        },
        {
          "internalType": "string",
          "name": "firstName",
          "type": "string"
        },
        {
          "internalType": "string",
          "name": "lastName",
          "type": "string"
        },
        {
          "internalType": "string",
          "name": "collegeName",
          "type": "string"
        },
        {
          "internalType": "string",
          "name": "programName",
          "type": "string"
        },
        {
          "internalType": "string",
          "name": "regNo",
          "type": "string"
        },
        {
          "internalType": "uint256",
          "name": "yearOfStudy",
          "type": "uint256"
        },
        {
          "internalType": "string",
          "name": "blockNumber",
          "type": "string"
        },
        {
          "internalType": "string",
          "name": "gender",
          "type": "string"
        }
      ],
      "stateMutability": "view",
      "type": "function",
      "constant": true
    },
    {
      "inputs": [
        {
          "internalType": "address",
          "name": "_voterAddress",
          "type": "address"
        }
      ],
      "name": "deleteVoter",
      "outputs": [],
      "stateMutability": "nonpayable",
      "type": "function"
    },
    {
      "inputs": [
        {
          "internalType": "string",
          "name": "_regNo",
          "type": "string"
        },
        {
          "internalType": "string",
          "name": "_password",
          "type": "string"
        }
      ],
      "name": "voterLogin",
      "outputs": [],
      "stateMutability": "nonpayable",
      "type": "function"
    },
    {
      "inputs": [],
      "name": "logout",
      "outputs": [],
      "stateMutability": "nonpayable",
      "type": "function"
    }
  ],
  "bytecode": "0x608060405234801561001057600080fd5b50336000806101000a81548173ffffffffffffffffffffffffffffffffffffffff021916908373ffffffffffffffffffffffffffffffffffffffff16021790555061327b806100606000396000f3fe608060405234801561001057600080fd5b50600436106101005760003560e01c806397b0565e11610097578063bf08128f11610066578063bf08128f14610298578063d4f50f98146102c8578063e19ca0d3146102f8578063f851a4401461031657610100565b806397b0565e1461021b57806399cab9da14610225578063a3ec138d14610241578063b010b5741461027c57610100565b806375829def116100d357806375829def146101a75780637edf4f6d146101c357806388e1c739146101e15780638b2dc456146101fd57610100565b806316d0b773146101055780631f3c99c31461013d5780635b6e990c1461014757806371b7ddb814610177575b600080fd5b61011f600480360381019061011a91906120d9565b610334565b604051610134999897969594939291906121be565b60405180910390f35b6101456107c0565b005b610161600480360381019061015c91906120d9565b610865565b60405161016e919061227c565b60405180910390f35b610191600480360381019061018c91906122ca565b610905565b60405161019e91906122f7565b60405180910390f35b6101c160048036038101906101bc91906120d9565b610944565b005b6101cb610a15565b6040516101d891906123d0565b60405180910390f35b6101fb60048036038101906101f691906120d9565b610aa3565b005b610205610d7a565b60405161021291906123d0565b60405180910390f35b610223610e08565b005b61023f600480360381019061023a9190612527565b610f03565b005b61025b600480360381019061025691906120d9565b6111e2565b6040516102739c9b9a999897969594939291906125ba565b60405180910390f35b610296600480360381019061029191906126ac565b6116bc565b005b6102b260048036038101906102ad91906120d9565b6119b5565b6040516102bf9190612856565b60405180910390f35b6102e260048036038101906102dd91906120d9565b6119d5565b6040516102ef9190612a0e565b60405180910390f35b610300611f55565b60405161030d9190612856565b60405180910390f35b61031e611f6b565b60405161032b91906122f7565b60405180910390f35b6000606080606080606060006060806000600160008c73ffffffffffffffffffffffffffffffffffffffff1673ffffffffffffffffffffffffffffffffffffffff16815260200190815260200160002090508060000160009054906101000a900473ffffffffffffffffffffffffffffffffffffffff168160010182600201836003018460040185600601866005015487600701886009018780546103d890612a5f565b80601f016020809104026020016040519081016040528092919081815260200182805461040490612a5f565b80156104515780601f1061042657610100808354040283529160200191610451565b820191906000526020600020905b81548152906001019060200180831161043457829003601f168201915b5050505050975086805461046490612a5f565b80601f016020809104026020016040519081016040528092919081815260200182805461049090612a5f565b80156104dd5780601f106104b2576101008083540402835291602001916104dd565b820191906000526020600020905b8154815290600101906020018083116104c057829003601f168201915b505050505096508580546104f090612a5f565b80601f016020809104026020016040519081016040528092919081815260200182805461051c90612a5f565b80156105695780601f1061053e57610100808354040283529160200191610569565b820191906000526020600020905b81548152906001019060200180831161054c57829003601f168201915b5050505050955084805461057c90612a5f565b80601f01602080910402602001604051908101604052809291908181526020018280546105a890612a5f565b80156105f55780601f106105ca576101008083540402835291602001916105f5565b820191906000526020600020905b8154815290600101906020018083116105d857829003601f168201915b5050505050945083805461060890612a5f565b80601f016020809104026020016040519081016040528092919081815260200182805461063490612a5f565b80156106815780601f1061065657610100808354040283529160200191610681565b820191906000526020600020905b81548152906001019060200180831161066457829003601f168201915b5050505050935081805461069490612a5f565b80601f01602080910402602001604051908101604052809291908181526020018280546106c090612a5f565b801561070d5780601f106106e25761010080835404028352916020019161070d565b820191906000526020600020905b8154815290600101906020018083116106f057829003601f168201915b5050505050915080805461072090612a5f565b80601f016020809104026020016040519081016040528092919081815260200182805461074c90612a5f565b80156107995780601f1061076e57610100808354040283529160200191610799565b820191906000526020600020905b81548152906001019060200180831161077c57829003601f168201915b50505050509050995099509950995099509950995099509950509193959799909294969850565b6000600260003373ffffffffffffffffffffffffffffffffffffffff1673ffffffffffffffffffffffffffffffffffffffff16815260200190815260200160002060006101000a81548160ff021916908315150217905550600360003373ffffffffffffffffffffffffffffffffffffffff1673ffffffffffffffffffffffffffffffffffffffff16815260200190815260200160002060006108639190611f8f565b565b6003602052806000526040600020600091509050805461088490612a5f565b80601f01602080910402602001604051908101604052809291908181526020018280546108b090612a5f565b80156108fd5780601f106108d2576101008083540402835291602001916108fd565b820191906000526020600020905b8154815290600101906020018083116108e057829003601f168201915b505050505081565b6004818154811061091557600080fd5b906000526020600020016000915054906101000a900473ffffffffffffffffffffffffffffffffffffffff1681565b60008054906101000a900473ffffffffffffffffffffffffffffffffffffffff1673ffffffffffffffffffffffffffffffffffffffff163373ffffffffffffffffffffffffffffffffffffffff16146109d2576040517f08c379a00000000000000000000000000000000000000000000000000000000081526004016109c990612b02565b60405180910390fd5b806000806101000a81548173ffffffffffffffffffffffffffffffffffffffff021916908373ffffffffffffffffffffffffffffffffffffffff16021790555050565b60606004805480602002602001604051908101604052809291908181526020018280548015610a9957602002820191906000526020600020905b8160009054906101000a900473ffffffffffffffffffffffffffffffffffffffff1673ffffffffffffffffffffffffffffffffffffffff1681526020019060010190808311610a4f575b5050505050905090565b600160008273ffffffffffffffffffffffffffffffffffffffff1673ffffffffffffffffffffffffffffffffffffffff168152602001908152602001600020600080820160006101000a81549073ffffffffffffffffffffffffffffffffffffffff0219169055600182016000610b1a9190611f8f565b600282016000610b2a9190611f8f565b600382016000610b3a9190611f8f565b600482016000610b4a9190611f8f565b6005820160009055600682016000610b629190611f8f565b600782016000610b729190611f8f565b600882016000610b829190611f8f565b600982016000610b929190611f8f565b600a820160006101000a81549060ff0219169055600a820160016101000a81549060ff0219169055505060005b600480549050811015610d76578173ffffffffffffffffffffffffffffffffffffffff1660048281548110610bf757610bf6612b22565b5b9060005260206000200160009054906101000a900473ffffffffffffffffffffffffffffffffffffffff1673ffffffffffffffffffffffffffffffffffffffff1603610d635760008190505b6001600480549050610c559190612b80565b811015610d16576004600182610c6b9190612bb4565b81548110610c7c57610c7b612b22565b5b9060005260206000200160009054906101000a900473ffffffffffffffffffffffffffffffffffffffff1660048281548110610cbb57610cba612b22565b5b9060005260206000200160006101000a81548173ffffffffffffffffffffffffffffffffffffffff021916908373ffffffffffffffffffffffffffffffffffffffff1602179055508080610d0e90612be8565b915050610c43565b506004805480610d2957610d28612c30565b5b6001900381819060005260206000200160006101000a81549073ffffffffffffffffffffffffffffffffffffffff02191690559055610d76565b8080610d6e90612be8565b915050610bbf565b5050565b60606004805480602002602001604051908101604052809291908181526020018280548015610dfe57602002820191906000526020600020905b8160009054906101000a900473ffffffffffffffffffffffffffffffffffffffff1673ffffffffffffffffffffffffffffffffffffffff1681526020019060010190808311610db4575b5050505050905090565b60008054906101000a900473ffffffffffffffffffffffffffffffffffffffff1673ffffffffffffffffffffffffffffffffffffffff163373ffffffffffffffffffffffffffffffffffffffff1614610e96576040517f08c379a0000000000000000000000000000000000000000000000000000000008152600401610e8d90612b02565b60405180910390fd5b600060149054906101000a900460ff1615610ee6576040517f08c379a0000000000000000000000000000000000000000000000000000000008152600401610edd90612cab565b60405180910390fd5b6001600060146101000a81548160ff021916908315150217905550565b600160003373ffffffffffffffffffffffffffffffffffffffff1673ffffffffffffffffffffffffffffffffffffffff168152602001908152602001600020600a0160009054906101000a900460ff16610f92576040517f08c379a0000000000000000000000000000000000000000000000000000000008152600401610f8990612d17565b60405180910390fd5b6000828051906020012050602060ff16118015610fbc57506000818051906020012050602060ff16115b610ffb576040517f08c379a0000000000000000000000000000000000000000000000000000000008152600401610ff290612da9565b60405180910390fd5b8180519060200120600160003373ffffffffffffffffffffffffffffffffffffffff1673ffffffffffffffffffffffffffffffffffffffff1681526020019081526020016000206006016040516110529190612e6c565b60405180910390201461109a576040517f08c379a000000000000000000000000000000000000000000000000000000000815260040161109190612ecf565b60405180910390fd5b8080519060200120600160003373ffffffffffffffffffffffffffffffffffffffff1673ffffffffffffffffffffffffffffffffffffffff1681526020019081526020016000206008016040516110f19190612e6c565b604051809103902014611139576040517f08c379a000000000000000000000000000000000000000000000000000000000815260040161113090612f3b565b60405180910390fd5b6001600260003373ffffffffffffffffffffffffffffffffffffffff1673ffffffffffffffffffffffffffffffffffffffff16815260200190815260200160002060006101000a81548160ff02191690831515021790555081600360003373ffffffffffffffffffffffffffffffffffffffff1673ffffffffffffffffffffffffffffffffffffffff16815260200190815260200160002090816111dd9190613107565b505050565b60016020528060005260406000206000915090508060000160009054906101000a900473ffffffffffffffffffffffffffffffffffffffff169080600101805461122b90612a5f565b80601f016020809104026020016040519081016040528092919081815260200182805461125790612a5f565b80156112a45780601f10611279576101008083540402835291602001916112a4565b820191906000526020600020905b81548152906001019060200180831161128757829003601f168201915b5050505050908060020180546112b990612a5f565b80601f01602080910402602001604051908101604052809291908181526020018280546112e590612a5f565b80156113325780601f1061130757610100808354040283529160200191611332565b820191906000526020600020905b81548152906001019060200180831161131557829003601f168201915b50505050509080600301805461134790612a5f565b80601f016020809104026020016040519081016040528092919081815260200182805461137390612a5f565b80156113c05780601f10611395576101008083540402835291602001916113c0565b820191906000526020600020905b8154815290600101906020018083116113a357829003601f168201915b5050505050908060040180546113d590612a5f565b80601f016020809104026020016040519081016040528092919081815260200182805461140190612a5f565b801561144e5780601f106114235761010080835404028352916020019161144e565b820191906000526020600020905b81548152906001019060200180831161143157829003601f168201915b50505050509080600501549080600601805461146990612a5f565b80601f016020809104026020016040519081016040528092919081815260200182805461149590612a5f565b80156114e25780601f106114b7576101008083540402835291602001916114e2565b820191906000526020600020905b8154815290600101906020018083116114c557829003601f168201915b5050505050908060070180546114f790612a5f565b80601f016020809104026020016040519081016040528092919081815260200182805461152390612a5f565b80156115705780601f1061154557610100808354040283529160200191611570565b820191906000526020600020905b81548152906001019060200180831161155357829003601f168201915b50505050509080600801805461158590612a5f565b80601f01602080910402602001604051908101604052809291908181526020018280546115b190612a5f565b80156115fe5780601f106115d3576101008083540402835291602001916115fe565b820191906000526020600020905b8154815290600101906020018083116115e157829003601f168201915b50505050509080600901805461161390612a5f565b80601f016020809104026020016040519081016040528092919081815260200182805461163f90612a5f565b801561168c5780601f106116615761010080835404028352916020019161168c565b820191906000526020600020905b81548152906001019060200180831161166f57829003601f168201915b50505050509080600a0160009054906101000a900460ff169080600a0160019054906101000a900460ff1690508c565b600160003373ffffffffffffffffffffffffffffffffffffffff1673ffffffffffffffffffffffffffffffffffffffff168152602001908152602001600020600a0160009054906101000a900460ff161561174c576040517f08c379a000000000000000000000000000000000000000000000000000000000815260040161174390613225565b60405180910390fd5b60006040518061018001604052803373ffffffffffffffffffffffffffffffffffffffff1681526020018b81526020018a815260200189815260200188815260200187815260200186815260200185815260200184815260200183815260200160011515815260200160001515815250905080600160003373ffffffffffffffffffffffffffffffffffffffff1673ffffffffffffffffffffffffffffffffffffffff16815260200190815260200160002060008201518160000160006101000a81548173ffffffffffffffffffffffffffffffffffffffff021916908373ffffffffffffffffffffffffffffffffffffffff160217905550602082015181600101908161185a9190613107565b5060408201518160020190816118709190613107565b5060608201518160030190816118869190613107565b50608082015181600401908161189c9190613107565b5060a0820151816005015560c08201518160060190816118bc9190613107565b5060e08201518160070190816118d29190613107565b506101008201518160080190816118e99190613107565b506101208201518160090190816119009190613107565b5061014082015181600a0160006101000a81548160ff02191690831515021790555061016082015181600a0160016101000a81548160ff0219169083151502179055509050506004339080600181540180825580915050600190039060005260206000200160009091909190916101000a81548173ffffffffffffffffffffffffffffffffffffffff021916908373ffffffffffffffffffffffffffffffffffffffff16021790555050505050505050505050565b60026020528060005260406000206000915054906101000a900460ff1681565b6119dd611fcf565b600160008373ffffffffffffffffffffffffffffffffffffffff1673ffffffffffffffffffffffffffffffffffffffff168152602001908152602001600020604051806101800160405290816000820160009054906101000a900473ffffffffffffffffffffffffffffffffffffffff1673ffffffffffffffffffffffffffffffffffffffff1673ffffffffffffffffffffffffffffffffffffffff168152602001600182018054611a8e90612a5f565b80601f0160208091040260200160405190810160405280929190818152602001828054611aba90612a5f565b8015611b075780601f10611adc57610100808354040283529160200191611b07565b820191906000526020600020905b815481529060010190602001808311611aea57829003601f168201915b50505050508152602001600282018054611b2090612a5f565b80601f0160208091040260200160405190810160405280929190818152602001828054611b4c90612a5f565b8015611b995780601f10611b6e57610100808354040283529160200191611b99565b820191906000526020600020905b815481529060010190602001808311611b7c57829003601f168201915b50505050508152602001600382018054611bb290612a5f565b80601f0160208091040260200160405190810160405280929190818152602001828054611bde90612a5f565b8015611c2b5780601f10611c0057610100808354040283529160200191611c2b565b820191906000526020600020905b815481529060010190602001808311611c0e57829003601f168201915b50505050508152602001600482018054611c4490612a5f565b80601f0160208091040260200160405190810160405280929190818152602001828054611c7090612a5f565b8015611cbd5780601f10611c9257610100808354040283529160200191611cbd565b820191906000526020600020905b815481529060010190602001808311611ca057829003601f168201915b5050505050815260200160058201548152602001600682018054611ce090612a5f565b80601f0160208091040260200160405190810160405280929190818152602001828054611d0c90612a5f565b8015611d595780601f10611d2e57610100808354040283529160200191611d59565b820191906000526020600020905b815481529060010190602001808311611d3c57829003601f168201915b50505050508152602001600782018054611d7290612a5f565b80601f0160208091040260200160405190810160405280929190818152602001828054611d9e90612a5f565b8015611deb5780601f10611dc057610100808354040283529160200191611deb565b820191906000526020600020905b815481529060010190602001808311611dce57829003601f168201915b50505050508152602001600882018054611e0490612a5f565b80601f0160208091040260200160405190810160405280929190818152602001828054611e3090612a5f565b8015611e7d5780601f10611e5257610100808354040283529160200191611e7d565b820191906000526020600020905b815481529060010190602001808311611e6057829003601f168201915b50505050508152602001600982018054611e9690612a5f565b80601f0160208091040260200160405190810160405280929190818152602001828054611ec290612a5f565b8015611f0f5780601f10611ee457610100808354040283529160200191611f0f565b820191906000526020600020905b815481529060010190602001808311611ef257829003601f168201915b50505050508152602001600a820160009054906101000a900460ff16151515158152602001600a820160019054906101000a900460ff1615151515815250509050919050565b60008060149054906101000a900460ff16905090565b60008054906101000a900473ffffffffffffffffffffffffffffffffffffffff1681565b508054611f9b90612a5f565b6000825580601f10611fad5750611fcc565b601f016020900490600052602060002090810190611fcb919061204a565b5b50565b604051806101800160405280600073ffffffffffffffffffffffffffffffffffffffff1681526020016060815260200160608152602001606081526020016060815260200160008152602001606081526020016060815260200160608152602001606081526020016000151581526020016000151581525090565b5b8082111561206357600081600090555060010161204b565b5090565b6000604051905090565b600080fd5b600080fd5b600073ffffffffffffffffffffffffffffffffffffffff82169050919050565b60006120a68261207b565b9050919050565b6120b68161209b565b81146120c157600080fd5b50565b6000813590506120d3816120ad565b92915050565b6000602082840312156120ef576120ee612071565b5b60006120fd848285016120c4565b91505092915050565b61210f8161209b565b82525050565b600081519050919050565b600082825260208201905092915050565b60005b8381101561214f578082015181840152602081019050612134565b60008484015250505050565b6000601f19601f8301169050919050565b600061217782612115565b6121818185612120565b9350612191818560208601612131565b61219a8161215b565b840191505092915050565b6000819050919050565b6121b8816121a5565b82525050565b6000610120820190506121d4600083018c612106565b81810360208301526121e6818b61216c565b905081810360408301526121fa818a61216c565b9050818103606083015261220e818961216c565b90508181036080830152612222818861216c565b905081810360a0830152612236818761216c565b905061224560c08301866121af565b81810360e0830152612257818561216c565b905081810361010083015261226c818461216c565b90509a9950505050505050505050565b60006020820190508181036000830152612296818461216c565b905092915050565b6122a7816121a5565b81146122b257600080fd5b50565b6000813590506122c48161229e565b92915050565b6000602082840312156122e0576122df612071565b5b60006122ee848285016122b5565b91505092915050565b600060208201905061230c6000830184612106565b92915050565b600081519050919050565b600082825260208201905092915050565b6000819050602082019050919050565b6123478161209b565b82525050565b6000612359838361233e565b60208301905092915050565b6000602082019050919050565b600061237d82612312565b612387818561231d565b93506123928361232e565b8060005b838110156123c35781516123aa888261234d565b97506123b583612365565b925050600181019050612396565b5085935050505092915050565b600060208201905081810360008301526123ea8184612372565b905092915050565b600080fd5b600080fd5b7f4e487b7100000000000000000000000000000000000000000000000000000000600052604160045260246000fd5b6124348261215b565b810181811067ffffffffffffffff82111715612453576124526123fc565b5b80604052505050565b6000612466612067565b9050612472828261242b565b919050565b600067ffffffffffffffff821115612492576124916123fc565b5b61249b8261215b565b9050602081019050919050565b82818337600083830152505050565b60006124ca6124c584612477565b61245c565b9050828152602081018484840111156124e6576124e56123f7565b5b6124f18482856124a8565b509392505050565b600082601f83011261250e5761250d6123f2565b5b813561251e8482602086016124b7565b91505092915050565b6000806040838503121561253e5761253d612071565b5b600083013567ffffffffffffffff81111561255c5761255b612076565b5b612568858286016124f9565b925050602083013567ffffffffffffffff81111561258957612588612076565b5b612595858286016124f9565b9150509250929050565b60008115159050919050565b6125b48161259f565b82525050565b6000610180820190506125d0600083018f612106565b81810360208301526125e2818e61216c565b905081810360408301526125f6818d61216c565b9050818103606083015261260a818c61216c565b9050818103608083015261261e818b61216c565b905061262d60a083018a6121af565b81810360c083015261263f818961216c565b905081810360e0830152612653818861216c565b9050818103610100830152612668818761216c565b905081810361012083015261267d818661216c565b905061268d6101408301856125ab565b61269b6101608301846125ab565b9d9c50505050505050505050505050565b60008060008060008060008060006101208a8c0312156126cf576126ce612071565b5b60008a013567ffffffffffffffff8111156126ed576126ec612076565b5b6126f98c828d016124f9565b99505060208a013567ffffffffffffffff81111561271a57612719612076565b5b6127268c828d016124f9565b98505060408a013567ffffffffffffffff81111561274757612746612076565b5b6127538c828d016124f9565b97505060608a013567ffffffffffffffff81111561277457612773612076565b5b6127808c828d016124f9565b96505060806127918c828d016122b5565b95505060a08a013567ffffffffffffffff8111156127b2576127b1612076565b5b6127be8c828d016124f9565b94505060c08a013567ffffffffffffffff8111156127df576127de612076565b5b6127eb8c828d016124f9565b93505060e08a013567ffffffffffffffff81111561280c5761280b612076565b5b6128188c828d016124f9565b9250506101008a013567ffffffffffffffff81111561283a57612839612076565b5b6128468c828d016124f9565b9150509295985092959850929598565b600060208201905061286b60008301846125ab565b92915050565b600082825260208201905092915050565b600061288d82612115565b6128978185612871565b93506128a7818560208601612131565b6128b08161215b565b840191505092915050565b6128c4816121a5565b82525050565b6128d38161259f565b82525050565b6000610180830160008301516128f2600086018261233e565b506020830151848203602086015261290a8282612882565b915050604083015184820360408601526129248282612882565b9150506060830151848203606086015261293e8282612882565b915050608083015184820360808601526129588282612882565b91505060a083015161296d60a08601826128bb565b5060c083015184820360c08601526129858282612882565b91505060e083015184820360e086015261299f8282612882565b9150506101008301518482036101008601526129bb8282612882565b9150506101208301518482036101208601526129d78282612882565b9150506101408301516129ee6101408601826128ca565b50610160830151612a036101608601826128ca565b508091505092915050565b60006020820190508181036000830152612a2881846128d9565b905092915050565b7f4e487b7100000000000000000000000000000000000000000000000000000000600052602260045260246000fd5b60006002820490506001821680612a7757607f821691505b602082108103612a8a57612a89612a30565b5b50919050565b7f4f6e6c792061646d696e2063616e20706572666f726d2074686973206163746960008201527f6f6e000000000000000000000000000000000000000000000000000000000000602082015250565b6000612aec602283612120565b9150612af782612a90565b604082019050919050565b60006020820190508181036000830152612b1b81612adf565b9050919050565b7f4e487b7100000000000000000000000000000000000000000000000000000000600052603260045260246000fd5b7f4e487b7100000000000000000000000000000000000000000000000000000000600052601160045260246000fd5b6000612b8b826121a5565b9150612b96836121a5565b9250828203905081811115612bae57612bad612b51565b5b92915050565b6000612bbf826121a5565b9150612bca836121a5565b9250828201905080821115612be257612be1612b51565b5b92915050565b6000612bf3826121a5565b91507fffffffffffffffffffffffffffffffffffffffffffffffffffffffffffffffff8203612c2557612c24612b51565b5b600182019050919050565b7f4e487b7100000000000000000000000000000000000000000000000000000000600052603160045260246000fd5b7f526573756c7420697320616c7265616479207075626c69736865642100000000600082015250565b6000612c95601c83612120565b9150612ca082612c5f565b602082019050919050565b60006020820190508181036000830152612cc481612c88565b9050919050565b7f596f7572206163636f756e74206973206e6f7420726567697374657265642100600082015250565b6000612d01601f83612120565b9150612d0c82612ccb565b602082019050919050565b60006020820190508181036000830152612d3081612cf4565b9050919050565b7f557365726e616d6520616e642070617373776f72642063616e6e6f742062652060008201527f656d707479000000000000000000000000000000000000000000000000000000602082015250565b6000612d93602583612120565b9150612d9e82612d37565b604082019050919050565b60006020820190508181036000830152612dc281612d86565b9050919050565b600081905092915050565b60008190508160005260206000209050919050565b60008154612df681612a5f565b612e008186612dc9565b94506001821660008114612e1b5760018114612e3057612e63565b60ff1983168652811515820286019350612e63565b612e3985612dd4565b60005b83811015612e5b57815481890152600182019150602081019050612e3c565b838801955050505b50505092915050565b6000612e788284612de9565b915081905092915050565b7f496e76616c696420726567697374726174696f6e206e756d6265720000000000600082015250565b6000612eb9601b83612120565b9150612ec482612e83565b602082019050919050565b60006020820190508181036000830152612ee881612eac565b9050919050565b7f496e76616c69642070617373776f726400000000000000000000000000000000600082015250565b6000612f25601083612120565b9150612f3082612eef565b602082019050919050565b60006020820190508181036000830152612f5481612f18565b9050919050565b60008190508160005260206000209050919050565b60006020601f8301049050919050565b600082821b905092915050565b600060088302612fbd7fffffffffffffffffffffffffffffffffffffffffffffffffffffffffffffffff82612f80565b612fc78683612f80565b95508019841693508086168417925050509392505050565b6000819050919050565b6000613004612fff612ffa846121a5565b612fdf565b6121a5565b9050919050565b6000819050919050565b61301e83612fe9565b61303261302a8261300b565b848454612f8d565b825550505050565b600090565b61304761303a565b613052818484613015565b505050565b5b818110156130765761306b60008261303f565b600181019050613058565b5050565b601f8211156130bb5761308c81612f5b565b61309584612f70565b810160208510156130a4578190505b6130b86130b085612f70565b830182613057565b50505b505050565b600082821c905092915050565b60006130de600019846008026130c0565b1980831691505092915050565b60006130f783836130cd565b9150826002028217905092915050565b61311082612115565b67ffffffffffffffff811115613129576131286123fc565b5b6131338254612a5f565b61313e82828561307a565b600060209050601f831160018114613171576000841561315f578287015190505b61316985826130eb565b8655506131d1565b601f19841661317f86612f5b565b60005b828110156131a757848901518255600182019150602085019450602081019050613182565b868310156131c457848901516131c0601f8916826130cd565b8355505b6001600288020188555050505b505050505050565b7f566f74657220697320616c726561647920726567697374657265640000000000600082015250565b600061320f601b83612120565b915061321a826131d9565b602082019050919050565b6000602082019050818103600083015261323e81613202565b905091905056fea264697066735822122097e3c502d32f5c835bc75331f6838f3273cc33b4ec0fa4ca19679add2b5c50fb64736f6c63430008130033",
  "immutableReferences": {},
  "source": "// SPDX-License-Identifier: MIT\npragma solidity ^0.8.0;\nimport \"./CandidateContract.sol\";\nimport \"./AccessControl.sol\";\nimport \"./TimeControl.sol\";\n\ncontract VoterContract is AccessControl {\n\n    // Data structure for a voter\n    struct Voter {   \n        address voterAddress; \n        string firstName; \n        string lastName;\n        string collegeName;\n        string programName;\n        uint256 yearOfStudy;\n        string regNo;\n        string blockNumber;\n        string password;\n        string gender;\n        bool isRegistered;\n        bool voted;\n    }\n\n    mapping(address => Voter) public voters;\n    mapping(address => bool) public hasLogedin;\n    mapping(address => string) public voterSession;\n    address[] public voterAddressArray;\n\n    function getVoter(address _voterAddress) external view returns (Voter memory){\n        return voters[_voterAddress];\n    }\n\n\n    // function getHasLoggedIn( address _voterAddress) public view returns (bool)\n    // {\n    //     return hasLoggedIn[_voterAddress];\n    // }\n\n    // function getVoterSession( address _voterAddress) public view returns (string storage)\n    // {\n    //     return voterSession[_voterAddress];\n    // }\n\n    function getVoterAddressArray() public view returns (address[] memory){\n        return voterAddressArray;\n    }\n\n    // event NewVoterRegistered( string firstName, string lastName, string collegeName, string programName, uint256 yearOfStudy, string regNo, string blockNumber, string gender);\n\n    function registerVoter( string memory _firstName, string memory _lastName, string memory _collegeName, string memory _programName, uint256 _yearOfStudy, \n    string memory _regNo,string memory _blockNumber, string memory _password, string memory _gender) public\n    {\n        require(!voters[msg.sender].isRegistered, \"Voter is already registered\");\n        Voter memory newVoter = Voter({\n            voterAddress: msg.sender,\n            firstName: _firstName,\n            lastName: _lastName,\n            collegeName: _collegeName, \n            programName: _programName, \n            yearOfStudy: _yearOfStudy, \n            regNo: _regNo, \n            blockNumber: _blockNumber, \n            password: _password, \n            gender: _gender,\n            isRegistered: true, \n            voted: false\n        });\n        voters[msg.sender] = newVoter;\n        voterAddressArray.push(msg.sender);\n        // emit NewVoterRegistered( _firstName, _lastName, _collegeName, _programName, _yearOfStudy, _regNo, _blockNumber, _gender);\n    }\n\n    function getVoterRegNumbers() public view returns (address[] memory){\n        return voterAddressArray;\n    }\n\n\n    function viewVoter(address vtAddress) public view returns (address voterAddress,string memory firstName,string memory lastName,string memory collegeName,string memory programName,string memory regNo,uint256 yearOfStudy,string memory blockNumber,string memory gender) {\n    // require(voters[vtAddress].exists, \"Voter does not exist\");\n        Voter storage voter = voters[vtAddress]; \n        return (voter.voterAddress,voter.firstName,voter.lastName,voter.collegeName,voter.programName,voter.regNo,voter.yearOfStudy,voter.blockNumber,voter.gender);\n    }\n\n\n    // voter can view candidate of the corresponding area of vote\n    // function voterViewBlockLeader(address addressVoter) public view returns(Candidate[] memory){\n\n    //     Voter memory newVoter = voters[addressVoter];\n    //     string memory voterCollegeName = newVoter.collegeName;\n    //     string memory voterBlockNumber = newVoter.blockNumber;\n\n    //     Candidate[] memory result = new Candidate[](blockLeaderList.length);        \n    //     for(uint i = 0; i < blockLeaderList.length; i++){\n    //         if(keccak256(bytes(candidateBlockLeader[blockLeaderList[i]].collegeName)) == keccak256(bytes(voterCollegeName)) && keccak256(bytes(candidateBlockLeader[blockLeaderList[i]].blockNumber)) == keccak256(bytes(voterBlockNumber))){\n    //             result[i] = candidateGovernor[blockLeaderList[i]];  \n    //         }            \n    //     }\n    //     return result;\n    // }\n    \n\n   \n\n    function deleteVoter(address _voterAddress) public {\n        delete voters[_voterAddress];\n        for (uint256 i = 0; i < voterAddressArray.length; i++) {\n            if (voterAddressArray[i] == _voterAddress) {\n                for (uint256 j = i; j < voterAddressArray.length - 1; j++) {\n                    voterAddressArray[j] = voterAddressArray[j + 1];\n                }\n                voterAddressArray.pop();\n                break;\n            }\n        }\n    }\n    \n    function voterLogin(string memory _regNo, string memory _password) public {\n        require(voters[msg.sender].isRegistered, \"Your account is not registered!\");\n        require(keccak256(bytes(_regNo)).length > 0 && keccak256(bytes(_password)).length > 0, \"Username and password cannot be empty\");\n        require(keccak256(bytes(voters[msg.sender].regNo)) == keccak256(bytes(_regNo)), \"Invalid registration number\");\n        require(keccak256(bytes(voters[msg.sender].password)) == keccak256(bytes(_password)), \"Invalid password\");\n        hasLogedin[msg.sender] = true;\n        voterSession[msg.sender] = _regNo;\n    }\n\n    function logout() public {\n        hasLogedin[msg.sender] = false;\n        delete voterSession[msg.sender];\n    }\n\n \n}",
  "sourcePath": "/home/temba/Documents/client/contracts/VoterContract.sol",
  "compiler": {
    "name": "solc",
    "version": "0.8.19+commit.7dd6d404.Emscripten.clang"
  },
  "schemaVersion": "3.4.14",
  "updatedAt": "2023-06-30T04:15:59.213Z",
  "networkType": "ethereum",
  "devdoc": {
    "kind": "dev",
    "methods": {},
    "version": 1
  },
  "userdoc": {
    "kind": "user",
    "methods": {},
    "version": 1
  }
}